:020000040800F2
:100000000806002039B60008417300084373000851
:100010004D7300085773000861730008000000006A
:100020000000000000000000000000006B730008EA
:1000300075730008000000007F73000895730008C6
:1000400041B8000845B8000849B800084DB8000894
:1000500051B8000855B8000859B800085DB8000844
:1000600061B8000865B8000869B800086DB80008F4
:1000700071B8000875B8000879B800087DB80008A4
:1000800081B8000885B8000889B8000800000000A1
:100090000000000000000000000000008DB8000813
:1000A00091B8000895B8000899B800089DB80008F4
:1000B0008B73000881730008A1B80008A5B8000878
:1000C000A9B80008ADB80008B1B80008B5B8000874
:1000D000B9B80008D1730008DB7300080000000005
:1000E000BDB80008C1B80008C5B80008000000008D
:1000F000000000000000000000000000C9B8000877
:1001000000000000CDB80008D1B80008D5B800083C
:1001100000000000000000000000000000000000DF
:10012000D9B80008DDB80008E1B80008E5B8000853
:10013000E9B8000800000000000000000000000016
:10014000000000000000000000000000EDB8000802
:10015000F1B80008F5B80008F9B80008FDB80008C3
:1001600001B9000805B90008000000000000000007
:10017000000000000000000000000000000000007F
:100180000000000009B900080000000000000000A5
:100190000DB900082DE9F0410400002503F094FD9D
:1001A000E4B222001349144803F04AFFFF20134928
:1001B0008875114803F05EFF80B203F0A3FD0500CF
:1001C000EDB2002D02D02800C0B210E001260027B9
:1001D000DFF82C803A003100404603F067FF074803
:1001E000807D0E2801D000BFF9E72800C0B2BDE82D
:1001F000F0810000ECB6000808080020442C002024
:100200005A2C00202DE9F04F8BB00400002500206F
:10021000029020780500DFF8D41B0868C0F3804006
:1002200000280FD1EDB2002D0CD0DFF8C40BDFF8A1
:10023000C41B09684554DFF8BC0B0068401CDFF89C
:10024000B41B0860DFF8B00B04F01EF8DFF8A00B59
:10025000DFF8A01B0968084410F8020C0D2840F0D4
:100260005384DFF88C0BDFF88C1B0968084410F806
:10027000010C0A2840F04884DFF8701B0868C0F3BE
:100280000070002840F04084DFF8F00D007810F096
:100290000100002840F03884DFF8E41DDFF8500B3F
:1002A00004F001F800286FD003F0B2F872B6DFF85E
:1002B000400B01F04BFD62B603F09AF8DFF82C1BFF
:1002C000D1F80100C0F30060002810D172B6DFF849
:1002D000B40DD0E9082311001A00DFF8AC0D03F0CB
:1002E00037FF62B6DFF8100B03F0CEFF1CE0DFF83B
:1002F000FC1A0868C0F34000002815D1DFF8F80A9E
:1003000003F0C2FFDFF8E41AD1F80100DFF8DC1ACD
:1003100030F08070C1F80100DFF8D01A0868DFF80B
:10032000CC1A50F002000860DFF8C01AD1F80100C2
:10033000C0F38060002809D1DFF8B01AD1F80100BD
:10034000DFF8A81A30F08070C1F801000020DFF853
:10035000A41A0860DFF8941A0868C0F34050002817
:1003600010D0DFF8881A0868C0F3C060002809D0F0
:10037000DFF8781A0868DFF8741A30F00060086057
:1003800000F0B5BC01F0D1BCDFF8001EDFF8600A58
:1003900003F089FF002800F0C981DFF8F41DDFF8C1
:1003A000500A03F080FF060000282CD030798DF829
:1003B000040070798DF805009DF804000A219DF86D
:1003C000052001FB0020DFF8BC1C91F8211060F330
:1003D0000301DFF8B00C80F821100F20DFF8A41C17
:1003E00081F8260072B6DFF89C0CD0E908231100D2
:1003F0001A00DFF8940C03F0ABFE62B6DFF8F809E0
:1004000003F042FF6AE1DFF8901DDFF8E40903F032
:100410004AFF0600002800F0A980707A8DF80000DD
:10042000B07A8DF80100F07A8DF80200307B8DF8FB
:1004300003009DF801000D2807D19DF80000303819
:10044000DFF8581DC1F8A00044E09DF802000D2817
:100450000DD19DF800000A219DF8012001FB00202C
:10046000B0F50470DFF8341DC1F8A00032E09DF84B
:1004700003000D2814D19DF8000064219DF801208F
:100480000A235A4301FB00209DF8021050FA81F024
:10049000DFF80C1D0818DFF8041DC1F8A00019E0F2
:1004A0009DF800004FF47A719DF8012064235A43AF
:1004B00001FB00209DF802100A2202FB01009DF8BA
:1004C000031050FA81F0DFF8DC1C0818DFF8CC1CB0
:1004D000C1F8A000DFF8C40CD0F8A000002808D0B4
:1004E000DFF808190868DFF8041950F400400860C4
:1004F000F4E0DFF8A80CD0F8A000002840F0EE806F
:10050000DFF8980CDFF8941C0978C1F3C201C9B276
:10051000084490F8E90000281FD0DFF88C0CDFF8C1
:100520007C1C0978C1F3C201C9B2405C002808D024
:100530000221DFF8680C0078C0F3C200C0B203F0FB
:1005400073FBDFF8580CDFF8541C0978C1F3C201C3
:10055000C9B20844002180F8E910DFF89018086853
:10056000DFF8881830F008000860B7E015A1DFF860
:10057000800803F098FE0600002825D00320DFF84D
:10058000041B81F82600300003F074FDB0F10B0766
:1005900016F10308DFF8149C3A004146484603F080
:1005A0008BFE72B6DFF8DC2AD2E908010A000100EE
:1005B000DFF8D40A03F0CCFD62B6DFF83C0803F0A4
:1005C00063FE8BE0203D2000DFF8B00A0078C0F326
:1005D0004000C0B2002864D0DFF8A00A4078C0F321
:1005E0000010C0B2002871D0DFF8B00BC079C0F3A2
:1005F000C200C0B200280BD0DFF8A00BC07910F009
:10060000C701083810F038000843DFF8901BC871A4
:10061000DFF8680A007810F0FD00DFF8601A087053
:100620000020DFF8841BDFF8742B527912F00F02E0
:100630008854DFF8680B407910F00F00DFF85C1B7E
:100640000871DFF8380A407810F0EF00DFF82C1A54
:1006500048700220DFF8241AC874DFF89007807908
:10066000C0F38000C0B200280AD0DFF88017D1F8AC
:100670000100DFF8781750F08040C1F8010007E072
:10068000DFF86807807950F00400DFF860178871A0
:10069000DFF858170868DFF8541730F008000860D2
:1006A00014E00220DFF8DC1981F8260072B6DFF8CA
:1006B000D409D0E9082311001A00DFF8CC0903F0AF
:1006C00047FD62B6DFF8300703F0DEFDDFF8AC0966
:1006D000007810F0FD00DFF8A41908700020DFF8A2
:1006E000141708604FF400775FF00008DFF80097F8
:1006F00042463900484603F0D9FCDFF8F016086896
:10070000C0F3405000280FD0DFF8E0160868C0F3AF
:10071000C060002808D0DFF8D4160868DFF8CC16CF
:1007200030F000600860E2E201F0FFBADFF8E01D9F
:10073000DFF8BC0603F0B7FD002800F0F180DFF819
:10074000D41DDFF8AC0603F0AEFD002837D0DFF88B
:10075000C80D03F0EDFDDFF82409007810F0FD006E
:10076000DFF818190870DFF81409407810F0EF006E
:10077000DFF808194870DFF874068079C0F380004C
:10078000C0B2002807D1DFF86406807950F0040079
:10079000DFF8581688710120DFF8001ADFF8FC290D
:1007A000527912F00F02114481F8E900DFF83C168B
:1007B0000868DFF8381630F00800086088E0DFF8D5
:1007C0005C1DDFF82C0603F06EFD002807D1DFF872
:1007D000501DDFF81C0603F066FD002831D0DFF85D
:1007E0000C160868C0F3C040002871D0DFF8FC1573
:1007F0000868DFF8F81530F400200860DFF8EC1521
:100800000868DFF8E81530F008000860DFF8DC154C
:100810000868DFF8D81530F400100860DFF8CC1550
:100820000868DFF8C81530F4802008600020DFF881
:100830006C19A1F896000020DFF86019C1F8B40027
:1008400046E0DFF8E01CDFF8A80503F02CFD0028E7
:1008500003D0DFF8D40C03F06BFD0820DFF8241878
:1008600081F8260072B6DFF81C08D0E908231100D1
:100870001A00DFF8140803F06BFC62B6DFF87805A5
:1008800003F002FDDFF864150868C0F3C00000281B
:1008900007D0DFF858150868DFF8501530F0080069
:1008A0000860DFF84815D1F80200C0F34070002856
:1008B0000ED0DFF83815D1F80200DFF8301530F02F
:1008C0000050C1F802000020DFF8D018C1F8CC00B9
:1008D0000020DFF8201508604FF400775FF0000873
:1008E000DFF80C9542463900484603F0DFFBDFF89D
:1008F000FC140868C0F3405000280FD0DFF8EC1457
:100900000868C0F3C060002808D0DFF8E014086869
:10091000DFF8D81430F000600860E8E101F005BAB3
:10092000DFF8081CDFF8C80403F0BDFC00285FD026
:10093000DFF8FC1BDFF8B80403F0B5FC0600002E5E
:1009400004D00020DFF85418487203E00120DFF8DB
:100950004C1848726BA1DFF8980403F0A4FC060061
:10096000002E04D00020DFF83418887203E0012044
:10097000DFF8281888720420DFF8081781F82600AD
:1009800072B6DFF80007D0E9082311001A00DFF87B
:10099000F80603F0DDFB62B6DFF85C0403F074FCDC
:1009A0000020DFF8501408604FF400775FF0000873
:1009B000DFF83C9442463900484603F077FBDFF805
:1009C0002C140868C0F3405000280FD0DFF81C1426
:1009D0000868C0F3C060002808D0DFF81014086869
:1009E000DFF8081430F00060086080E101F09DB984
:1009F000DFF8F8130868C0F34050002843D0DFF850
:100A0000EC130868C0F3C06000283CD0DFF8DC13AA
:100A1000D1F80100C0F3C060002834D1DFF87C07B2
:100A2000B0F89800002814D072B6DFF87007B0F85C
:100A30009810DFF8500603F0A9FD62B6DFF85C07F6
:100A4000B0F898705FF0000842463900200003F0CB
:100A50002DFBDFF89813D1F80200DFF8901350F067
:100A60008040C1F80200DFF884130868DFF87C13C7
:100A700030F000600860DFF87C030068DFF81C17C6
:100A8000A1F89C001EE0DFF86403407AC0F3800008
:100A9000C0B2002816D0DFF85C0307685FF00008DA
:100AA000DFF84C9342463900484603F0FFFA002035
:100AB000DFF840130860DFF83403407A10F0FB00E1
:100AC000CA494872DFF8B405007810F00100002828
:100AD00040F00D81DFF8A4050078C0F34010C0B2EB
:100AE000002800F004810020C24908604FF400771C
:100AF0005FF00008DFF8F89242463900484603F0FC
:100B0000D5FAF4E06F757400B848407AC0F38000FD
:100B1000C0B200282AD1DFF8EC1DB54803F0C3FBB2
:100B2000002823D0DFF8E01DB14803F0BCFB00280B
:100B30001AD01D2003F0DEFD03F0FCFDAB48407A27
:100B400050F00400A9494872AA4807685FF00008FD
:100B5000DFF89C9242463900484603F0A7FA00208D
:100B6000A449086001F0E1B801F0DFB89F49D1F86D
:100B70000300C0F30060002874D0DFF8901D9C488B
:100B800003F091FB002845D1DFF8841D984803F05D
:100B90008AFB00283ED1DFF87C1D954803F083FBDB
:100BA000002837D1DFF8701D914803F07CFB002846
:100BB00030D1DFF8681D8E4803F075FB002829D17D
:100BC000DFF85C1D8A4803F06EFB002822D1DFF8B5
:100BD000541D874803F067FB00281BD1DFF8481D30
:100BE000834803F060FB002814D1DFF8401D8048E3
:100BF00003F059FB00280DD1DFF8341D7C4803F0C9
:100C000052FB002806D1DFF82C1D794803F04BFB7E
:100C100000286CD075490868744950F0805008600D
:100C200072490868714950F4802008606F49D1F812
:100C300003006E4930F08070C1F803000520DFF832
:100C40005C15A1F89A006949D1F80200674930F0B3
:100C50000050C1F802000020DFF84015C1F8CC00B8
:100C600001F063B8624863490968084410F8010C50
:100C7000092816D15E485F490968084410F8020C3B
:100C80003A280ED15A485B490968084410F8030C09
:100C9000312806D155490868544950F00040086091
:100CA00025E05248C079C0F38000C0B200280BD0C4
:100CB0004F4850490968084410F8010C002816D123
:100CC00000204C49086012E04A480068B0F5FF7FF8
:100CD0000DD90020474908604FF400775FF0000805
:100CE000DFF80C9142463900484603F0DFF93F49EE
:100CF0000868C0F38040002800F02D813B49D1F8FE
:100D00000200C0F38070002840F02581DFF88C04D9
:100D1000B0F89800DFF88414A1F89C00354800680A
:100D2000DFF87814B1F89C104018B0F5007F24D398
:100D300030480068DFF86414B1F89C104018A0F245
:100D4000FF1772B63900CF4803F020FC62B65FF09F
:100D50000008284800684042204400F2FF1942463B
:100D60003900484603F0A2F940F2FF102149096812
:100D7000401ADFF82814A1F89C00DFF82004B0F82E
:100D80009C70DFF8B48B1A481A49096800EB010916
:100D90003A004146484603F08FFA16480068DFF8EB
:100DA000FC13B1F89C104018124908601148006803
:100DB000012804D10E4800780D2800F0B687DFF82E
:100DC0003C1E0B4803F06FFA002817D0074908684B
:100DD000064930F0006008600449D1F80100034979
:100DE00030F00060C1F80100B5E000BFA82C002081
:100DF00008240020EC2C0020942A00209F48007832
:100E000010F00100002840F0A680DFF8F41D08680B
:100E1000C0F30070002840F09E80DFF8E80D0078F5
:100E2000002800F09880DFF8DC0D00780D2840F0F5
:100E30009280DFF8D00D40780A2840F08C80D748A7
:100E4000D0F8A400022800F08680DFF8B41DD1F8A5
:100E50000100DFF8AC1D50F00060C1F80100CDA129
:100E6000DFF8A40D03F01FFA0600002845D0DFF8D4
:100E7000940D301A871CDFF8941DDFF88C0D03F0F9
:100E800012FA00280DD0C149DFF8780D384403F07C
:100E90000AFA0600002E04D0DFF8680D301A801D13
:100EA0000700DFF86C0D0068C01B00281BD072B66D
:100EB000DFF85C0D0068C11B724803F067FB62B687
:100EC000DFF84C0D0068B0EB07085FF00009DFF8B1
:100ED000340D00EB070A4A464146504603F0E6F857
:100EE000DFF82C0D0760DFF8181DD1F80100DFF8DE
:100EF000101D30F00060C1F80100DFF8041D086823
:100F0000DFF8FC1C50F000600860DFF8040D00689A
:100F100040F2FF1188421ED1DFF8E41CD1F8010035
:100F2000C0F3C060002816D0DFF8D41CD1F801004F
:100F3000DFF8CC1C30F00060C1F80100DFF8C01C05
:100F40000868DFF8BC1C30F00060086040F2FF1059
:100F50009249A1F89C00DFF8A81C0868C0F3C060A3
:100F6000002840F0E782DFF8981C0868C0F3405082
:100F7000002800F0DF824148007850F001003F492E
:100F800008708648D0F8B0008449B1F89C10401829
:100F90008249C1F8B000DFF8641CDFF8680C7F4AB2
:100FA000B2F89A201044401F03F07DF90600002E8D
:100FB00000F0FE80DFF84C0CDFF8541C0968084490
:100FC00010F8020C0D2840F0F380DFF8380CDFF841
:100FD000401C0968084410F8010C0A2840F0E88019
:100FE000DFF84C1DDFF81C0C03F05DF9060000284B
:100FF0001DD0F07E00280FD0DFF8080C371ADFF87C
:10100000100C006817F11B01B0EB010872B64146E5
:101010001C4803F0BBFA62B61848407850F0010053
:10102000164948700D205D4981F8E8004BE0DFF873
:10103000E414DFF8D00B03F036F90600002825D0C1
:10104000F07D00280FD0DFF8BC0B371ADFF8C00B9B
:10105000006817F11701B0EB010872B64146094864
:1010600003F094FA62B601204C494C4A527912F0CE
:101070000F02114481F8E90025E000BF442C002054
:1010800094B70008742A0020882A0020DFF8A41CE6
:10109000DFF8700B03F007F90600002813D0F07D8D
:1010A000002810D0DFF85C0B371ADFF8640B0068FB
:1010B00017F11701B0EB010872B64146DFF8540E84
:1010C00003F064FA62B600203449C1F8B000002091
:1010D0003249C1F8A00000203049C1F8A400052021
:1010E0002E49A1F89A00DFF8181B0868DFF8101BDA
:1010F00030F400100860DFF8081B0868DFF8001BF8
:1011000030F008000860DFF8F81A0868DFF8F01A15
:1011100030F4802008600020DFF81C1C4860DFF8F5
:10112000180C007810F0FE00DFF80C1C0870DFF8D7
:10113000D01A0868C0F3C040002815D0DFF8C01AE4
:101140000868DFF8BC1A30F400200860002013495A
:10115000C1F8A800DFF8A81A0868DFF8A41A50F050
:101160000100086002F046FEDFF8A40A07685FF09D
:101170000008DFF8909A42463900484602F096FF90
:101180000020DFF88C1A086000F0CFBD9CB7000883
:10119000A4B700080D0A0000F8B600089827002040
:1011A00030EBFFFFB02FFFFFBC2C0020A627002054
:1011B000DFF85C0A0068062808D3002E06D1DFF8A5
:1011C000500A0068DFF8781BA1F89A00DFF8700B6E
:1011D000D0F8B000DFF8681BD1F8A4108842C0F046
:1011E0002081DFF85C0BD0F8A400DFF8541BD1F8A5
:1011F000B010884225D2DFF8480BD0F8B000DFF8F5
:10120000401BD1F8A410471A72B63900DFF8040D5C
:1012100003F0BCF962B65FF00008DFF8E809DFF818
:10122000F0190968C91B00EB01094246390048461C
:1012300002F03CFFDFF8D8090068C01BDFF8D019C6
:101240000860DFF8CC090068DFF8F41AA1F896000E
:10125000DFF8EC0AD0F8A400DFF8E41AC1F8B40013
:10126000DFF8AC090768DFF89C89DFF8D89A3A0004
:101270004146484603F020F80020DFF89419086042
:101280000020DFF8BC1AC1F8B0000020DFF8B01A67
:10129000C1F8A0000020DFF8A81AC1F8A4000020BF
:1012A000DFF89C1AA1F89C000520DFF8941AA1F839
:1012B0009A00DFF84C190868DFF8441930F0006034
:1012C0000860DFF83C190868DFF8341930F4802032
:1012D0000860DFF86C0AC07850F00700DFF8601A89
:1012E000C870DFF81C190868C0F3C040002830D06F
:1012F0000020DFF84C1AC1F8A800DFF8440A407853
:1013000010F0C700DFF8381A4870DFF82C0A406880
:10131000002806D0DFF8200A4068401EDFF8181ABF
:101320004860DFF8140A4068002809D1DFF8D018B7
:101330000868DFF8CC1850F00100086002F05AFD90
:10134000DFF8BC180868DFF8B81830F480000860CF
:101350001CE0DFF8AC180868DFF8A41850F480002F
:101360000860DFF8DC090078C0B2C008DFF8D019E7
:10137000497860F3C501DFF8C8094170DFF8B809A2
:10138000007850F00200DFF8B0190870DFF870182C
:101390000868DFF86C1830F400100860DFF898096E
:1013A000007810F0FE00DFF89019087002F03DF8A8
:1013B000DFF84C180868C0F3C04000281AD0DFF8E6
:1013C0004018D1F80100DFF8381850F00050C1F88B
:1013D0000100DFF82C180868DFF8241830F0080046
:1013E0000860DFF81C180868DFF8141830F40020D3
:1013F000086009E0DFF80818D1F80100DFF80018EC
:1014000050F08050C1F801004FF400775FF0000801
:10141000DFF8F09742463900484602F047FE00F0F8
:1014200084BCDFF8EC070068B0F5FF7F6DD90520BC
:10143000DFF80C19A1F89A00DFF80409D0F8A4002D
:10144000DFF8FC18C1F8B40040F2FF10DFF8F01824
:10145000A1F89600DFF8B8070768DFF8A887DFF87B
:10146000E4983A004146484602F026FF0020DFF8A3
:10147000A01708600520DFF8C818A1F89A00DFF867
:10148000C008C07850F00700DFF8B418C87001F049
:10149000CCFF4FF400795FF0000ADFF868B75246DE
:1014A0004946584602F002FEDFF854170868C0F3B8
:1014B000C040002812D0DFF88808407810F0C7003C
:1014C000DFF87C184870DFF83817D1F80100DFF832
:1014D000301750F00050C1F8010016E0DFF8600846
:1014E0000078C0B2C008DFF85818497860F3C50129
:1014F000DFF84C084170DFF80817D1F80100DFF879
:10150000001750F08050C1F8010000F00EBC00BF81
:10151000ACB7000848B2000824AD0008D4AE0008FB
:101520003CAE0008B4B70008DCAF0008BCB7000848
:10153000C4B70008DFF8C8160868C0F300700028B8
:1015400000F0FC81DFF8F007007850F00100DFF8D0
:10155000E8170870DFF8F017DFF8A806DFF8E027D3
:10156000B2F89A201044401F02F09DFE06000028A9
:1015700000F0AB80F079002823D0DFF88806371A16
:10158000DFF88C060068B91DB0EB010872B6414661
:10159000DFF8800902F0FAFF62B65FF00009DFF8B9
:1015A0006406384410F1070A4A464146504602F0A4
:1015B0007DFDDFF85C060068B0EB0800DFF8501630
:1015C0000860DFF84C060068DFF87417A1F8960091
:1015D000DFF83C060768DFF82C86DFF868973A00EA
:1015E0004146484602F068FEDFF824060068DFF84E
:1015F0005017A1F89200DFF84007407850F0010042
:10160000DFF834174870DFF8F8150868DFF8F015D0
:1016100030F480200860DFF8E8150868DFF8E0158E
:1016200030F08050086001F000FF0020DFF8101754
:1016300081F8E800DFF80007007810F0FE00DFF81E
:10164000F8160870DFF8B8150868DFF8B41530F040
:1016500000600860DFF8A8150868DFF8A41530F00E
:10166000080008600520DFF8D816A1F89A00DFF816
:10167000A005D0F800905FF0000ADFF888B5524668
:101680004946584602F012FD0020DFF88415086034
:10169000DFF86C150868C0F3407000280AD0DFF846
:1016A0006015D1F80200DFF8581550F08060C1F8DD
:1016B00002009BE0DFF84815D1F80200DFF8401582
:1016C00050F00070C1F8020090E0DFF8B81BDFF8BE
:1016D0003405DFF86C26B2F89A201044401F02F05F
:1016E000E2FD0600002800F08180DFF8141508688C
:1016F000DFF80C1530F480200860DFF80805DFF80B
:1017000010150968084410F8020C0D286ED1DFF896
:10171000F404DFF8FC140968084410F8010C0A28E6
:1017200064D1DFF81406407850F00100DFF80816A5
:1017300048700D20DFF8081681F8E800DFF8F8059A
:10174000007810F0FE00DFF8F0150870DFF8B01434
:101750000868DFF8AC1430F480200860DFF8A014CB
:101760000868DFF89C1430F0006008600020DFF8A3
:10177000A01408600520DFF8C815A1F89A00DFF86A
:1017800080140868DFF8781430F080500860DFF8C3
:1017900070140868DFF8681430F0080008604FF42F
:1017A00000775FF00008DFF85C9442463900484655
:1017B00002F07CFCDFF848140868C0F34070002891
:1017C0000AD0DFF83C14D1F80200DFF8341430F00E
:1017D0008060C1F8020009E0DFF82414D1F80200AB
:1017E000DFF81C1430F00070C1F80200DFF82004AC
:1017F0000068062801D3012000E00020002E01D15E
:10180000012100E00021C0B2084206D0DFF8000448
:101810000068DFF82C15A1F89A00DFF8F4030068DF
:1018200040F2FF1188426CD1DFF8E40300680A90AF
:10183000DFF8D0030990DFF80C750A9A099938008F
:1018400002F03AFD06200890DFF83C0A0790DFF826
:101850003C7A089A0799380002F02EFD062006907F
:1018600000200590DFF8207A059A0699380002F0EA
:101870001DFC4FF40070049000200390DFF8847387
:10188000039A0499380002F011FC0627DFF8FC895E
:10189000DFF870933A004146484602F00DFD5FF0D4
:1018A00006095FF0000ADFF8E4B952464946584697
:1018B00002F0FCFB0620D64908600520DFF8801402
:1018C000A1F89A0040F2F910DFF87414A1F8920020
:1018D00001F0ABFDCA490868C0F34070002808D089
:1018E000C749D1F80200C64950F08060C1F8020033
:1018F00007E0C349D1F80200C14950F00070C1F8B7
:10190000020012E204B70008CCB70008D4B7000800
:10191000DCB7000848B40008E4B700085CB400086D
:1019200018B6000828B6000860B20008C0B0000869
:1019300070B4000878B2000808220020B049086896
:10194000C0F3C060002840F08981AD490868C00F2D
:10195000002800F08381AB48AD490968084410F8BD
:10196000020C0D2840F06581A648A9490968084481
:1019700010F8010C0A2840F05C81DFF8140902F02D
:1019800016FFDFF8BC03407BDFF8B413097B884205
:1019900080F0D880DFF8FC189A4802F084FC06003A
:1019A000002E10D0B0798DF80000F0798DF801008C
:1019B0009DF800000A219DF8012001FB002010384D
:1019C000DFF8D4180870DFF8D0080078DFF8CC18FA
:1019D0000968DB4A527B2C235A438854DFF8C0182D
:1019E000884802F060FC0600002E0FD0F0798DF8D8
:1019F0000000307A8DF801009DF800000A219DF862
:101A0000012001FB0020B0F504700290DFF88C0883
:101A10000068CB49497B2C22514308440299494232
:101A20004160DFF88018774802F03DFC0600002E88
:101A300026D00720DFF870180870DFF86C080078EF
:101A4000305C27281CD0DFF854080068BC49497B6B
:101A50002C2251430844DFF8501809780844DFF875
:101A600048180978715C4170DFF83C080078401C28
:101A7000DFF834180870DFF8300800782328DCD14C
:101A8000DFF828185F4802F00EFC0600002E0BD08D
:101A9000DFF808080068AA49497B2C225143084412
:101AA000012180F826100AE0DFF8F0070068A44959
:101AB000497B2C2251430844002180F82610DFF88E
:101AC000F017504802F0EFFB0600002E0BD0DFF8B5
:101AD000CC0700689A49497B2C22514308440121D4
:101AE00080F827100AE0DFF8B40700689449497BC2
:101AF0002C2251430844002180F82710DFF8B41746
:101B0000404802F0D0FB0600002E0BD0DFF88C0717
:101B100000688B49497B2C2251430844012180F8FD
:101B200028100AE0DFF8740700688549497B2C22F9
:101B300051430844002180F828108148407B401C14
:101B40007F494873DFF83C172E4802F0ACFB0600D3
:101B5000002E24D04FF400775FF00008DFF8A49047
:101B600042463900484602F0A1FA002028490860A0
:101B70007148407850F001006F494870204908686A
:101B80001F4920F0004008601D4908681C4930F4D6
:101B9000007008600D206A4981F8E800C5E0DFF8B0
:101BA0001817184802F07FFB002833D01449086842
:101BB000134930F400700860002061494873002028
:101BC000134908605C48407850F001005A49487059
:101BD0000B4908680A4920F0004008600020584975
:101BE00081F8E8004FF400775FF00008DFF8149008
:101BF00042463900484602F059FA96E0ECB7000830
:101C0000A82C0020082400200A24002010B7000877
:101C1000EC2C00200020DFF8A41608604FF40077B9
:101C20005FF00008DFF8989642463900484602F017
:101C30003DFADFF888060068B0F5FF7F0ED9002076
:101C4000DFF8781608604FF400775FF00008DFF8DF
:101C5000709642463900484602F028FADFF86416CA
:101C60000868C0F3C06000285FD1DFF85816086824
:101C7000C0F38060002858D030A002F059FBDFF894
:101C80004816DFF83C0602F00EFB0600002836D0AE
:101C9000DFF830160868DFF82C1630F48020086072
:101CA000DFF81C06DFF814160968084410F8020C67
:101CB0000D2824D1DFF80806DFF80016096808446B
:101CC00010F8010C0A281AD1DFF8000602F030FBE8
:101CD000DFF8F0150868DFF8EC1530F08060086078
:101CE0000020DFF8D81508604FF400775FF0000897
:101CF000DFF8CC9542463900484602F0D7F9DFF8C4
:101D0000BC05006840F2FF1188420ED10020DFF8C8
:101D1000AC1508604FF400775FF00008DFF8A0957D
:101D200042463900484602F0C1F90BB0BDE8F08FD9
:101D3000DCB0000890B20008442C00202A0000000B
:101D400098270020082000209CB700082DE9FC47B8
:101D50000400250026004FF0FF08002E00F09082BE
:101D6000DFF86C15280002F09EFA0600002E00F045
:101D7000878270798DF80400B0798DF805009DF8A0
:101D800005003A2804D19DF80400303880460BE065
:101D90009DF804000A2110FB01F09DF8051050FA8F
:101DA00081F0B0F5047080465A4880F82080012008
:101DB000584981F826000FFA88F840460028032881
:101DC00040F23882001F012840F25082801E012814
:101DD00040F23082801E012840F24882801E00F0CE
:101DE0003882401E012840F24182801E012840F2C4
:101DF0002182801E00F03A82401E032840F21A829F
:101E0000001F00F03382401E00F01482401E0128A3
:101E100040F22C82C01E00F00D82401E012840F2CC
:101E20002582801E00F0A681801E00F00382401EE5
:101E3000012840F21B82801E012840F2FB81801E97
:101E4000012840F21382801E00F0F481401E00F051
:101E50000D82401E00F0EE81401E042840F20682F2
:101E6000401F012840F2E681001F052840F2E28170
:101E7000801F20D0801E00F0B581401E2FD0401E54
:101E800000F01681401E00F03181401E012840F212
:101E90009981C01E31D0801E00F0CC81401E00F020
:101EA000B381401E00F0BB81001F00F07781801ECF
:101EB00000F0C081DBE1DFF81C14280002F0F3F928
:101EC000060070798DF800009DF80000114991F826
:101ED000211060F303010F4880F82110C7E1B07DA5
:101EE0008DF800009DF800000A4991F8211060F378
:101EF0000301084880F82110B9E1DFF8C813D1F8D0
:101F00000100C0F30060002806D0DFF8CC0302F027
:101F10000FFAB5E1742A0020DFF8A813D1F8010008
:101F2000C0F34060002805D00020DFF8B013C1F8EE
:101F3000AC0011E0DFF88C130868DFF8881350F06C
:101F400008000860DFF87C13D1F80100DFF8741393
:101F500050F00070C1F80100DFF87813280002F09B
:101F6000A2F90600002E00F0A28070798DF8000022
:101F70009DF800003038DFF8681381F82200307ACD
:101F80008DF80000707A8DF80100B07A8DF80200AB
:101F9000F07A8DF803009DF800003A2806D1F07918
:101FA0008DF80000307A8DF801002EE09DF80100D8
:101FB0003A2809D1F0798DF80000307A8DF80100C7
:101FC000707A8DF8020020E09DF802003A280CD1CA
:101FD000F0798DF80000307A8DF80100707A8DF874
:101FE0000200B07A8DF803000FE09DF803003A2854
:101FF0000BD1F0798DF80000307A8DF80100707AFD
:102000008DF80200B07A8DF803009DF801003A289F
:1020100005D19DF800003038B149888442E09DF830
:1020200002003A280DD19DF800000A2110FB01F0B2
:102030009DF8011050FA81F0B0F50470A849888429
:1020400030E09DF803003A2813D19DF80000642188
:1020500010FB01F09DF801100A2211FB02009DF80F
:10206000021050FA81F041F2D041401A9C49888414
:1020700018E09DF800004FF47A7110FB01F09DF814
:102080000110642211FB02009DF802100A2211FBCC
:1020900002009DF8031050FA81F000F53C50B0307A
:1020A0008F4988848F484068401C8E494860DEE034
:1020B0008C48007850F080008A4908708948007880
:1020C00010F0DF00874908700020864948607D498C
:1020D00008687C4930F0020008607A49D1F80100B4
:1020E000784950F08070C1F80100C0E07D48007868
:1020F00010F07F007B4908707A48007850F020008B
:10210000784908706F4908686E4930F0020008602D
:102110006C49D1F801006B4950F08070C1F80100A2
:1021200068490868C00708D56E480078C0B2C00981
:10213000C0B2002801D101F05DFE62490868C0F319
:10214000C040002815D005206449A1F89A005D49D7
:1021500008685C4950F4802008605A490868594969
:1021600050F4001008605D48D0F8A8005B49C1F841
:10217000A4007CE05C49280002F095F806001120DC
:102180000700222F06DAF05D5449394481F83E00F9
:102190007F1CF6E70B205349887568E053492800F7
:1021A00002F081F8060011200700222F06DAF05D08
:1021B0004A49394481F83E007F1CF6E70C20494922
:1021C000887554E03F49D1F80100C0F30060002851
:1021D00007D03C49D1F801003A4930F08070C1F88D
:1021E000010044E00020424908703649086835493A
:1021F00030F0020008603349D1F80100314950F055
:102200008070C1F8010032E00A20354981F82600CB
:102210002C48C07950F004002A49C87127E00920F1
:102220002F4981F826002748C07910F0FB00254986
:10223000C8711CE023490868224930F00200086098
:102240002049D1F801001F4950F08070C1F8010009
:102250000DE01C490868C0F3C000002805D01949EA
:102260000868184930F00800086000E0FFE74FF404
:1022700000795FF0000A52464946280001F016FF37
:10228000BDE8F387ACB7000801220020CC2C002069
:1022900060000020F4B70008002D0020E82C00208A
:1022A000FCB7000804B80008FF2C00200CB8000898
:1022B00014B800081CB8000824B80008EC2C002052
:1022C00008240020A82C00201CB7000884B40008B3
:1022D00094B700082CB8000834B8000898270020EC
:1022E000742A0020442C002028B7000834B70008C6
:1022F000FB2C002070B54FF48061DFF8AC0202F0D7
:1023000029F8DFF8A802407810F0F100DFF89C12FD
:1023100048700020DFF89812087000F030F900F0E3
:1023200088F800F017F83221DFF8880201F0F2FE99
:1023300001F05EF8082400259F4E2A00210030009D
:1023400001F0B4FE9D4802F06BFA002801D001F0C4
:10235000D2FC70BD9548007850F008009349087091
:102360009248007850F08000904908708F480078BB
:1023700010F0BF008D49087000208C49487400207F
:102380008A4988740020894948608848407810F05C
:10239000FE0086494870FF208449887502208349E1
:1023A000C8740220814908750020804948750020C2
:1023B0007E49C86082490868814950F00100086080
:1023C0007F4908687E4950F0020008607C49D1F8D6
:1023D00002007B4930F00050C1F802007848007AD2
:1023E00010F0FE00764908727548807950F00400BC
:1023F000734988717248C07910F07F007049C871C4
:102400006F48007A10F0FD006D4908726C48007A40
:1024100010F0FB006A4908726948007A10F0F70072
:10242000674908726648407A10F0FB0064494872B8
:1024300070472DE9F0416348C07910F0C700614949
:10244000C87100205F49C1F8AC0000205D49C1F8A7
:10245000A00000205B49C1F8A80000205949C1F83C
:10246000B80000205749C1F8B00000205549A1F834
:10247000980000205349C1F8BC0000205149C1F820
:10248000C40000204F49C1F8C80000204D494873DE
:1024900000204C49C1F8CC0000204A49A1F8940022
:1024A0004FF480504749C1F8E40005204549A1F8A0
:1024B0009A0008240125444E2A002100300001F032
:1024C000F5FD4FF400660027DFF800813A00310087
:1024D000404601F0EBFDBDE8F08180B500200090A2
:1024E0003B48006850F004003949086038480068EB
:1024F00010F004000090009800200090344800681C
:1025000050F00100324908603148006810F00100C5
:10251000009000984FF4805023490863012022491D
:10252000486301202049886303201F49C863294963
:10253000294802F09BFA00201D490870FF201B4922
:10254000887500224FF48051234802F014FCC82003
:1025500002F032FC01224FF480511F4802F00BFCC4
:10256000322002F029FC4FF480511B4802F061FB3D
:102570000E48807D0E2801D000BFF9E701BD80B56F
:1025800000224FF48051154802F0F5FB0122144956
:10259000144802F082FD002805D10949086808495D
:1025A00050F48050086001BD742A0020442C0020A3
:1025B000FB2C0020882A0020BC2C0020382B002077
:1025C000A82C002098270020C42C002008100020F0
:1025D00030380240A42A00200008024000000240D7
:1025E000E6270020F82A00202DE9F04383B00400FC
:1025F00000250026DFF80C1E0868C0F3C000002884
:1026000040F0648472B6DFF8000E01F0ECFDDFF8F4
:10261000FC1D886262B6DFF8F40D806A002800F0C5
:102620005584DFF8E80D806A8079012838D00228C7
:1026300000F03084032800F02D84042800F02A8460
:10264000062800F00481082800F01284092800F010
:1026500034840A2800F030840C2800F026830D28EA
:1026600000F083830E2800F096820F2849D01028AE
:1026700000F09F81142800F05881152800F0158281
:10268000162800F08A80172800F0D3811C2800F05B
:1026900061821D280BD0282800F0AD8300F016BC05
:1026A000DFF8680D806A01F02BF800F00FBCDFF84E
:1026B0005C0D806A407810F00F00DFF88C1D0978FF
:1026C00060F30201DFF8800D01700120DFF81C1DAE
:1026D000DFF8382D926A527812F00F0288540020E9
:1026E000DFF8681D4875DFF8640D407850F0010090
:1026F000DFF8581D48700020DFF84C1D81F8E80015
:10270000E4E3DFF8440DC079C0F3C200C0B208288A
:102710000DDBDFF8380D407850F00100DFF82C1D9C
:1027200048700420DFF8201D81F8E800CEE3DFF8D0
:10273000180DC07910F0C701083010F038000843B8
:10274000DFF8041DC8710120DFF8041DDFF8BC2C80
:10275000926A527812F00F028854DFF8B00C806A47
:10276000407810F00F00DFF8E01C097860F30201F8
:10277000DFF8D40C01700020DFF8D01C4875DFF8BA
:10278000CC0C407850F00100DFF8C01C48700020ED
:10279000DFF8B41C81F8E80098E3DFF8681CD1F892
:1027A0000200DFF8601C30F00050C1F80200002089
:1027B000DFF8941CC1F8CC00DFF88C0C007A10F024
:1027C000070004280DDBDFF8840C407850F001008E
:1027D000DFF8781C48700420DFF86C1C81F8E800F2
:1027E00074E3DFF8640C007A10F0F801401C10F07C
:1027F00007000843DFF8501C08720120DFF8541C62
:10280000DFF8082C926A527812F00F028854DFF831
:10281000FC0B806A407810F00F00DFF82C1CC9799F
:1028200060F30201DFF8200CC1710020DFF81C1CEE
:102830004875DFF8180C407850F00100DFF80C1CE8
:1028400048700020DFF8001C81F8E8003EE301F04A
:102850003BFADFF8F40BC07A012811D1DFF8E80B5E
:10286000D0F8C0000090DFF8E00B436EDFF8D80B23
:10287000026EDFF8F81CDFF8F80C01F0E1FB15E060
:10288000DFF8C40BC07A002810D1DFF8BC0BD0F8F9
:10289000C0000090DFF8B00B436EDFF8AC0B026EA7
:1028A000DFF8D01CDFF8C80C01F0CAFBDFF8C00C61
:1028B00001F0E0FB80B201F025FA0500EDB2002D39
:1028C00025D10020DFF8801BC1F8CC00DFF8341BD5
:1028D000D1F80200DFF82C1B50F00050C1F80200C4
:1028E000DFF8201B0868DFF81C1B50F008000860A8
:1028F000DFF8101BD1F80300DFF8081B50F08070E0
:10290000C1F803000620DFF8441B48750CE00D20D9
:10291000DFF8341B81F8E800DFF8300B407850F026
:102920000100DFF8281B4870D0E201F0CDF9DFF894
:10293000180BB0F88C30DFF8100B807810F007021D
:10294000DFF8EC1CDFF8280C01F07AFBDFF8200C34
:1029500001F090FB80B201F0D5F90500EDB2002D39
:1029600013D101F0B1F972B6DFF8DC0AB0F88C20AF
:10297000DFF8D40AD0F88810DFF8B80C02F061FB59
:10298000002801D00F20050062B6EDB2002D02D163
:10299000F6B2002E0CD0DFF8B40A407850F00100F7
:1029A000DFF8A81A48700D20DFF89C1A81F8E800BB
:1029B0008CE201F089F9DFF8900AC06E0090DFF830
:1029C000880AD0F8C030DFF8800A026EDFF8681C91
:1029D000DFF89C0B01F034FBDFF8940B01F04AFBAD
:1029E00080B201F08FF90500EDB2002D0DD0DFF8B7
:1029F0005C0A407850F00100DFF8501A48700D2052
:102A0000DFF8441A81F8E80012E01020DFF83C1AE1
:102A100048750020DFF8301AC1F8CC00DFF8E4195F
:102A2000D1F80200DFF8DC1950F00050C1F80200C4
:102A30004CE201F049F9DFF8100AC36EDFF8080A2A
:102A4000D0F8C020DFF88C1CDFF8240B01F0F8FA76
:102A5000DFF81C0B01F00EFB80B201F053F905000A
:102A6000EDB2002D0DD0DFF8E409407850F0010000
:102A7000DFF8D81948700D20DFF8CC1981F8E8008C
:102A800012E01720DFF8C41948750020DFF8B819E4
:102A9000C1F8CC00DFF86C19D1F80200DFF8641936
:102AA00050F00050C1F8020010E2DFF8A409DFF88E
:102AB0005C19896A497811F00F01405C002844D004
:102AC00001F002F9DFF84409806A407810F00F0243
:102AD000DFF8041CDFF8980A01F0B2FADFF8900A78
:102AE00001F0C8FA80B201F00DF90500EDB2002D39
:102AF0002FD10020DFF8501981F8E800DFF8041921
:102B00000868DFF8001950F008000860DFF8FC08DA
:102B1000806A407810F00F00DFF82C19497960F3D3
:102B20000301DFF824094171DFF82009407850F0F3
:102B30001000DFF818194870DFF81009007850F01D
:102B40000200DFF80819087003E0DFF8900B01F0CD
:102B5000EFFBBBE101F0B8F8DFF8841BDFF8100AE7
:102B600001F06EFADFF8080A01F084FA80B201F091
:102B7000C9F80500EDB2002D0CD10020DFF8C8180F
:102B800081F8E800DFF87C180868DFF8781850F062
:102B9000080008609AE101F097F8DFF8AC08B0F897
:102BA0008C30DFF8A408026FDFF8381BDFF8C009AB
:102BB00001F046FADFF8B80901F05CFA80B201F0E2
:102BC000A1F80500EDB2002D0DD0DFF880084078A7
:102BD00050F00100DFF8741848700D20DFF8681815
:102BE00081F8E80060E000F00DFD0500EDB2002D79
:102BF0000CD0DFF85808407850F00100DFF84C188E
:102C000048700D20DFF8401881F8E800DFF8380838
:102C1000B0F88C30DFF83008026FDFF8CC1ADFF83C
:102C2000500901F00DFADFF8480901F023FA80B2EB
:102C300001F068F80500EDB2002D0CD0DFF80C08AB
:102C4000407850F00100DFF8041848700D20DFF8DC
:102C5000F81781F8E80001F037F8DFF8EC07B0F872
:102C60008C70DFF8E407D0F88880DFF804993A0028
:102C70004146484601F020FBDFF8F40801F0FAF97C
:102C800080B201F03FF80500EDB2002D0CD0DFF866
:102C9000BC07407850F00100DFF8B01748700D20F5
:102CA000DFF8A41781F8E80010E101F00DF8DFF873
:102CB0009807006F002806D1DFF8301ADFF8B00857
:102CC00001F0BEF91FE0DFF88007006E002809D18F
:102CD000DFF87407026FDFF8181ADFF8940801F0C4
:102CE000AFF910E0DFF86007D0F8C0000090DFF81F
:102CF0005807036FDFF85007026EDFF8F819DFF8A6
:102D0000700801F09DF9DFF8680801F0B3F980B2AE
:102D100000F0F8FF0500EDB2002D18D1DFF8E41641
:102D20000868DFF8E01650F000500860DFF8D416AD
:102D30000868DFF8D01650F480200860DFF8C41669
:102D40000868DFF8C01650F0805008600CE0DFF82B
:102D5000FC06407850F00100DFF8F01648700D20B6
:102D6000DFF8E41681F8E800B0E000F0ADFFDFF82E
:102D7000D80690F9840010F1010F23D1DFF8C806BE
:102D800090F9850010F1010F1CD1DFF8BC06006F2F
:102D9000002804D0DFF8B006406F002812D1DFF819
:102DA000A806006F00280DD0DFF89C06406F0028B1
:102DB00008D1DFF89406026FDFF83C19DFF8B0079E
:102DC00001F03EF9DFF8A80701F054F980B200F0F5
:102DD00099FF0500EDB2002D0CD0DFF870064078A9
:102DE00050F00100DFF8641648700D20DFF8581627
:102DF00081F8E8006AE000F067FFDFF84C06D0F8E1
:102E0000C0000090DFF84006036FDFF83C06026E5A
:102E1000DFF8E818DFF8580701F012F9DFF850077B
:102E200001F028F980B200F06DFF0500EDB2002D31
:102E300010D1DFF8D0150868DFF8C81550F08060B1
:102E40000860DFF8C0150868DFF8B81550F4802076
:102E500008600CE0DFF8F405407850F00100DFF87E
:102E6000EC1548700D20DFF8E01581F8E8002DE042
:102E7000DFF8D805407850F00100DFF8D015487031
:102E80000D20DFF8C41581F8E8000020DFF8BC153C
:102E900048751BE0DFF8B405407850F00100DFF81A
:102EA000AC1548700020DFF8A01581F8E80000207C
:102EB000DFF89815487509E008E0DFF8481508685C
:102EC000DFF8401550F020000860FFE7DFF8341508
:102ED0000868C0F3C03000280FD0DFF82815086854
:102EE000DFF8201530F400400860DFF85C05D0F80A
:102EF000A00080B202F0CCFE52E1DFF808150868AD
:102F0000C0F38050002812D0DFF840050078C0F3ED
:102F1000C000C0B200280AD0DFF8E8140868DFF863
:102F2000E41430F48000086002F0FAFE38E1DFF8C3
:102F3000D414D1F80100C0F3007000282FD0DFF8BE
:102F4000C414D1F80100DFF8BC1430F08050C1F88F
:102F5000010002200190DFF8F004B0F89600009024
:102F6000DFF8E404D0F8B430DFF8582CDFF8D804E8
:102F70004078C0F3C200010049B25FF0FF3003F0B7
:102F80008DF84FF400775FF00008DFF8389C424678
:102F90003900484601F08AF800F04EFA00E1DFF807
:102FA0006414D1F80100C0F34070002834D0DFF879
:102FB0005414D1F80100DFF84C1430F00050C1F87F
:102FC000010002200190DFF88004B0F89600009024
:102FD000DFF87404D0F8B430DFF8E82BDFF86804C9
:102FE0004078C0F3C200010049B2DFF85C0490F9F8
:102FF000030040F3020040B203F050F84FF40077B2
:103000005FF00008DFF8BC9B42463900484601F0FB
:103010004DF800F011FAC3E0DFF8E813D1F8010031
:10302000C00F00281CD0DFF82804DFF81C148979B1
:1030300011F00701405C002807D00221DFF80804E6
:10304000807910F0070000F0EFFDDFF8B813D1F839
:103050000100DFF8B01320F00040C1F801009FE04C
:10306000DFF8A013D1F80100C0F3807000281BD056
:103070000221DFF8540B03F012F80220DFF8CC1322
:10308000C874DFF88013D1F80100DFF8781330F04E
:103090008040C1F80100DFF86C130868DFF86413A2
:1030A00030F0080008607BE0DFF85813D1F8020028
:1030B000C0F34060002835D0DFF84813D1F8020093
:1030C000DFF8401330F00070C1F80200CD49086805
:1030D000C0F34070002804D0DFF8E80A02F0E0FFF7
:1030E00012E0C8490868C0F38070002804D0DFF8F7
:1030F000D40A02F0D6FF07E0DFF84C03B0F89210D4
:10310000DFF8C00A03F099FA4FF400775FF0000887
:10311000DFF8B09A42463900484600F0C7FF00F099
:103120008BF93DE0B749D1F80200C0F38060002878
:1031300019D0DFF8900A02F0B3FF4FF400775FF088
:103140000008DFF8809A42463900484600F0AEFF9A
:1031500000F072F9AB49D1F80200AA4930F0806062
:10316000C1F802001CE0A7490868C0F340300028FD
:1031700008D003F0F5FAA3490868A24930F40050DA
:1031800008600DE09F490868C0F38030002807D030
:1031900003F0E7FA9B4908689A4930F480400860D8
:1031A000AA48807D002800F09380012800F09780D5
:1031B000022800F09B80032800F09F80042800F084
:1031C000A380052800F0A780062800F0B280072819
:1031D00000F0B680082800F0BA8009284AD00A28F2
:1031E00054D00B2858D00C285ED00D2800F09A80BF
:1031F0000E282BD00F2800F0F680102800F0AE80AB
:10320000112800F0B980122800F0BD80132800F0CA
:10321000C180142800F0E780152800F0A680162849
:1032200000F0BF80172800F0C380182800F0C78086
:10323000192800F0CB801A2800F0CF801B283BD043
:103240001C283FD0FF2800F0CE80CCE07F4840789B
:10325000C0F34200C0B202280BD17C48407810F085
:10326000F101801C10F00E0008437849487003F00B
:10327000D4F9B8E0DFF8A0090078002805D10120D2
:10328000DFF89419087003F0D0F9ACE003F06AFAA3
:10329000FF206E498875A6E0DFF8800903F063FA25
:1032A000FF206A4988759EE0DFF8700903F05CFA38
:1032B000FF206649887596E003F057FAFF206349BE
:1032C000887590E003F051FAFF20604988758AE024
:1032D000FF205E498875112003F048FA83E0FF2043
:1032E0005A498875142003F041FA7CE0FF205749C1
:1032F0008875132003F03AFA75E0FF20534988756A
:10330000152003F033FA6EE0FF205049887516202F
:1033100003F02CFA67E0FF204C4988751B2003F06E
:1033200025FA60E0FF20494988751C2003F01EFA49
:1033300059E0FF2045498875172000F07BFE52E0D8
:10334000FF2042498875122000F074FE4BE0FF20F8
:103350003E498875182000F06DFE44E0FF203B498F
:1033600088751D2003F003FA3DE0FF20374988757A
:103370001E2003F0FCF936E0FF203449887519203F
:1033800003F0F5F92FE0FF20304988751A2003F08B
:10339000EEF928E0FF202D498875062003F0E7F9B3
:1033A00021E0FF20294988751F2003F0E1F91AE088
:1033B000FF2026498875202003F0DAF913E0FF206A
:1033C00022498875212003F0D3F90CE0FF201F4922
:1033D0008875222003F0CCF905E0FF201B49887591
:1033E00003F0C7F9FFE7BDE8F7830000FE2C0020DB
:1033F0000020164988601548007850F004001349F1
:1034000008707047A82C0020882A0020742A002009
:1034100000200E4988600D48007810F0FB000B4931
:10342000087001200949487470470848007810F076
:10343000F7000649087070470448007850F008000B
:10344000024908707047000098270020442C002093
:10345000BC2C0020F42C002080B5DFF83408007864
:10346000C0F38000C0B2002809D0DFF8240800783B
:10347000C0F3C000C0B2002801D000F0E4F8DFF8CB
:103480006418D1F80200C0F3C060002811D0DFF842
:10349000900700F071FF00280BD0DFF84818D1F832
:1034A0000200DFF8401830F00060C1F80200FFF7BA
:1034B00066F8DFF830180868C0F30010002819D04B
:1034C000DFF86007D0F8C800411CDFF85827C2F8C1
:1034D000C81040F26C7188420CD3DFF808180868F5
:1034E000DFF8001830F0100008600020DFF8341713
:1034F000C1F8C800DFF8EC17D1F80200C0F3007083
:10350000002828D0DFF81C07D0F8C400411CDFF8E1
:103510001427C2F8C410B0F5FA6F1CD3DFF8C41733
:103520000868C0F3C010002808D0DFF8B817086892
:10353000DFF8B01750F0800008600AE0DFF8A41749
:103540000868C0F3C010002803D11B20DFF8401723
:10355000887500F03FFC01BDDFF888271168DFF8AF
:10356000842731F00801116070470000E8B10008BD
:103570000808002000B2000810B50400DFF8641746
:103580000868DFF8601730F480500860FFF740FFEC
:1035900072B6DFF8EC16DFF8880600F003FF62B6BB
:1035A000FFF726FFDFF8780600F0DEFE002811D0D6
:1035B000DFF83017D1F80200DFF8281750F000606C
:1035C000C1F8020001224FF48051DFF8BC0601F07F
:1035D000D2FB16E0DFF80C170868C0F3C020002803
:1035E0000FD10122DFF89816124801F056FD00288D
:1035F00007D1DFF8F0160868DFF8E81650F48050BD
:10360000086010BDDFF88406407810F00100002843
:1036100001D100BFF6E7DFF87406407810F0FE0035
:10362000DFF868164870DFF8FC0590F8E80070478E
:10363000D0B30008F82A002088B0000810B50400B4
:1036400000F059FB10BD80B572B6DFF8D40500F06C
:10365000C9FEDFF8D015C1F8800062B6DFF8C405F6
:10366000D0F88000002805D0DFF8B805D0F8800039
:10367000FCF7C8FDDFF86C16D1F80100C0F340601C
:10368000002825D0DFF89C05D0F8AC00401CDFF8FE
:103690009415C1F8AC00DFF88C05D0F8AC003328E5
:1036A00016D30020DFF87C15C1F8AC00DFF8341623
:1036B000D1F80100DFF82C1630F00070C1F80100DD
:1036C000DFF820160868DFF81C1630F008000860E4
:1036D00001BD000018B20008C8B5000830B20008EB
:1036E000D8B50008E4B30008F8B30008E0B6000855
:1036F000E8B500087CAF0008F8B50008A4B00008E1
:1037000010B504002078012865D0042874D005285D
:1037100077D008287AD009287DD00A2800F0808048
:103720000B2800F082800C2800F084800F2800F025
:103730008680142800F08880162800F08A801728D8
:1037400000F08C80182800F08E801A2800F09080FD
:103750001B2800F092801F2800F09480202800F0A1
:103760009680232800F0CF80242800F0D5802628DA
:1037700000F0D780282800F0E180292800F0EF80B1
:103780002A2800F0FD802B2800F0FF802C2800F074
:103790000181372800F003813A2800F03E813D285E
:1037A00000F0AB813E2800F0C2813F2800F0D081BC
:1037B000402800F04881422800F0F981432800F0B9
:1037C000CC81442800F0D281452800F0DC814628D5
:1037D00000F0E281F4E1FF20DFF8B01488750020EA
:1037E000DFF834140870DFF83C04007A10F0E700CA
:1037F000DFF830140872E3E10720DFF890148875D1
:10380000DEE10020DFF884148875D9E10120DFF8BB
:103810007C148875D4E10220DFF870148875CFE13C
:103820000320DFF868148875CAE10420DFF85C140F
:103830008875C5E10620DFF854148875C0E10820BA
:10384000DFF848148875BBE11120DFF84014887553
:10385000B6E11220DFF834148875B1E11320DFF8E7
:103860002C148875ACE10920DFF820148875A7E1D5
:103870000A20DFF818148875A2E10520DFF80C147F
:1038800088759DE10D20DFF80414887598E1DFF854
:10389000FC034078C0F34200C0B202280BDADFF824
:1038A000EC03407810F0F101801C10F00E0008438A
:1038B000DFF8D8134870DFF8D403007850F0100018
:1038C000DFF8C81308700E20DFF8C0138875DFF822
:1038D00018140868C0F34010002813D0DFF808144B
:1038E0000868DFF8041430F020000860DFF8F813EF
:1038F0000868DFF8F41330F4807008601C20DFF8EB
:103900008C1388755CE1DFF8E0130868DFF8D813E2
:1039100030F40070086053E11620DFF870138875EA
:103920004EE1DFF86803007810F0EF00DFF85C1379
:1039300008700F20DFF85413887541E10020DFF88C
:10394000D8120870DFF8DC02007A10F0E700DFF828
:10395000D41208721020DFF83413887530E100208B
:10396000DFF8B4120870DFF8BC02007A10F0E7004C
:10397000DFF8B01208721520DFF8101388751FE108
:103980001720DFF8081388751AE11820DFF8FC12F9
:10399000887515E11920DFF8F412887510E1DFF859
:1039A00048130868C0F3405000280FD0DFF83813E0
:1039B0000868DFF8341330F400100860DFF82813CB
:1039C0000868DFF8241330F480200860607810F075
:1039D0000F00DFF85012097860F3C501DFF84402E8
:1039E0000170DFF85C04DFF83C120978C1F3C20112
:1039F000C9B2405C00280FD0DFF8EC120868DFF88D
:103A0000E81250F480000860DFF8DC120868DFF884
:103A1000D81250F008000860D2E0607810F00F0073
:103A2000DFF80012897960F30201DFF8F801817193
:103A3000DFF8B412D1F80100DFF8AC1250F000400A
:103A4000C1F80100BCE0A088DFF8D811C1F8A800D7
:103A5000DFF894120868DFF8901250F40020086034
:103A6000DFF884120868DFF8801250F00800086060
:103A7000DFF818020078C0F34010C0B200281ED151
:103A8000A07801280AD1DFF860120868DFF8581220
:103A900040084000086000F0C0F92DE0DFF848124F
:103AA0000868DFF8441230F400200860DFF83812AC
:103AB0000868DFF8341230F0080008601CE0DFF816
:103AC00028120868DFF8201250F4802008600520D2
:103AD000DFF85011A1F89A00DFF80C120868DFF83F
:103AE000081250F400100860DFF83801D0F8A80080
:103AF000DFF83011C1F8A40062E0DFF81C0461783F
:103B0000C9B20909C9B200EBC100617811F00F0117
:103B100001224254DFF8D0110868DFF8CC1150F4CC
:103B2000005008600120DFF82814087048E0DFF832
:103B3000B8110868DFF8B01150F480400860002028
:103B4000DFF8101408700020DFF80414087037E064
:103B50001A20DFF83811887532E0DFF88C11086818
:103B6000DFF8841150F48070086029E0DFF87811E4
:103B70000868DFF8741130F4807008601C20DFF8EA
:103B80000C1188751CE0DFF860110868DFF8581127
:103B900050F08000086013E0DFF84C110868DFF88F
:103BA000481130F08000086000F004F908E0DFF808
:103BB00038110868DFF8301150F040000860FFE766
:103BC00010BD0000082000209C270020F8B504004C
:103BD0000D0016001F0000F05DF812480466114841
:103BE00045661048C0F8C0600E48C77206202549D7
:103BF00081F8260072B62348D0E9082311001A0084
:103C0000DFF8EC0300F0A4FA62B6DFF8EC0300F092
:103C10003BFBF1BD00000000FB2C0020E72700204B
:103C2000742A00209827002038B504000D0000F009
:103C300031F8EDB2022D04D11520124981F8260089
:103C400006E0EDB2012D03D123200E4981F82600B4
:103C50000C4890F8210064F303000A4981F8210020
:103C600072B60848D0E9082311001A00DFF8800373
:103C700000F06EFA62B6DFF8800300F005FB31BD9C
:103C8000E6270020742A002000000240442C002077
:103C9000442C0020DFF86403007810F001000028B5
:103CA0000FD1DFF858030078C0F34000C0B20028FD
:103CB00009D0DFF848034078C0F30010C0B20028F4
:103CC00001D100BFE6E7704770B54FF400640025EE
:103CD000DFF820632A002100300000F0E7F970BD12
:103CE00000000000A82C0020A82C002080B5002097
:103CF00002F077FD01BD80B5002002F072FDFEF7F5
:103D00003EFC01BD10B50400DFF8F0020078C0F3FE
:103D10000010C0B2002809D1DFF8E0020078C0F33B
:103D20008010C0B2002801D1052042E0DFF8DC128B
:103D30000868C0F30020002806D1DFF8D012086818
:103D4000C0F3C010002801D0102032E0DFF8BC1210
:103D50000868DFF8B81250F400600860A4B2002CC4
:103D600005D1DFF8AC0200F0E3FA1F2021E04FF4A8
:103D70007A73220092B2DFF87C12DFF8980201F029
:103D80007DF8002803D0FFF7B6FF0F2011E0DFF821
:103D90007C120868DFF8741230F400600860DFF805
:103DA0006C120868C0F30030002801D1FEF7E7FB71
:103DB000002010BDDFF85412D1F80200DFF84C12D9
:103DC00050F08050C1F802000020DFF84C12C1F81A
:103DD000C4007047DFF83412D1F80200DFF82C126B
:103DE00030F08050C1F802000020DFF82C12C1F83A
:103DF000C400704710B50024FFF766FFDFF81C12FF
:103E0000DFF8F00100F01CF9DFF8E80100F032F90A
:103E100080B2FFF777FF040010BD10B50024FFF754
:103E200053FFDFF8FC11DFF8CC0100F009F9DFF8EF
:103E3000C40100F01FF980B2FFF764FF040010BD59
:103E4000BC2C00202DE9F047040088460026FFF72F
:103E50003BFF2200DFF8A811664800F0F1F8654842
:103E600000F008F980B2FFF74DFF0600F6B2002E11
:103E700015D1FFF7C7FB06005C4800F0FBF8050012
:103E80005A4F2A003900404600F016FA5FF0000948
:103E9000DFF858A14A462900504600F007F93000E3
:103EA000C0B2BDE8F08770B504000D000026FFF732
:103EB0000BFF2B0022005B494E4800F0C1F84D4833
:103EC00000F0D8F880B2FFF71DFF0600F6B2002E12
:103ED00002D1FFF797FB06003000C0B270BD70B58D
:103EE00004000D000026FFF7EFFE2B0022004E49D4
:103EF000404800F0A5F83F4800F0BCF880B2FFF75A
:103F000001FF0600F6B2002E02D1FFF77BFB060090
:103F10003000C0B270BD0000982C002038B50400FD
:103F20000025FFF7D1FE22003649324800F088F81C
:103F3000304800F09FF880B2FFF7E4FE0500EDB2D4
:103F4000002D02D1FFF75EFB05002800C0B232BD94
:103F5000FC2C0020FD2C002038B504000025FFF7C4
:103F6000B3FE22002849234800F06AF8214800F0F7
:103F700081F880B2FFF7C6FE0500EDB2002D02D138
:103F8000FFF740FB05002800C0B232BD10B5002489
:103F9000FFF79AFE2549174800F052F8154800F03F
:103FA00069F880B2FFF7AEFE0400E4B2002C02D143
:103FB000FFF728FB04002000C0B210BD10B500249C
:103FC000FFF782FE1A490B4800F03AF8094800F062
:103FD00051F880B2FFF796FE0400E4B2002C02D143
:103FE000FFF710FB04002000C0B210BDA627002080
:103FF000882A002008080020942A0020442C002051
:1040000008B600080CB400089CAF0008A82C0020DB
:10401000BCAF0008F82A00209827002074B70008D9
:104020007CB7000820B4000834B4000884B7000846
:104030008CB7000870470268531C0360117070470A
:104040000CB41CB5044604A801900A46009401ABC8
:10405000694607487844183002F0DAFB009A0021DC
:10406000117000285CBF0098001B16BC5DF80CFBAB
:10407000C7FFFFFF00F10103810704D010F8011B07
:1040800089B18107FAD10268B2F10131914311F08F
:10409000803F04BF50F8042FF6E710F8011B11B160
:1040A00010F8011BFBE7C01A7047200062F30F22D3
:1040B00062F31F42401810F0030308D0C91A1FD33F
:1040C000DB0748BF00F8012D28BF20F8022D1300A0
:1040D00030B414461546103928BF20E93C00FAD800
:1040E000490728BF20E90C0048BF40F8042D89008B
:1040F00028BF20F8022D48BF00F8012D30BC7047C2
:10410000C91818BF00F8012DCB0728BF00F8012DF2
:104110007047000008231A0012FB01F3838000237C
:1041200003800023C38000234380554B8360704786
:104130008188C088B0EBD10F01D1012000E00020C0
:104140007047C088002801D1012000E0002070479E
:1041500076B504002000FFF7EBFF002842D160880D
:10416000C0080600A06800EBC600BDF804108180FE
:10417000A06800EBC6009DF802108170A06800EBFB
:10418000C6009DF80110A26802EBC602527861F3E6
:1041900003024270A06800EBC600A16801EBC601F3
:1041A000497811F00F019DF8012012F0F00211433F
:1041B00041709DF80000A16801F83600A06800EB8E
:1041C000C6009DF806108171E088401CE080608880
:1041D00008306080A0880500608890FBF5F105FB41
:1041E0001100608073BD70B504002000FFF7A9FFC7
:1041F000002801D0002042E02088C0080600A06806
:1042000000EBC60080881F498880A06800EBC600CC
:10421000407810F00F001B49497860F303011948FA
:104220004170A06800EBC6004078C0B20009154993
:10423000497811F00F0151EA001012494870A06846
:1042400000EBC60080780F498870A06810F836002F
:104250000C490870A06800EBC60080790949887194
:10426000208808302080E088401EE080A08805007B
:10427000208890FBF5F105FB11002080014870BDFE
:1042800008260020B42C00200021818000218171AB
:10429000417811F0F00151F009014170092181705C
:1042A00063210170704738B504000D00290020001B
:1042B00002F090FE32BD000062B38B0708D0521EA0
:1042C00011F8013B00F8013B00F024808B07F6D188
:1042D000830740F0208000BF103A07D330B4B1E824
:1042E0003810103AA0E83810F9D230BC530724BF78
:1042F000B1E80810A0E8081044BF51F8043B40F8AA
:10430000043BD20724BF31F8022B20F8022B44BF14
:104310000B7803707047083A07D3B1E80810083AE1
:1043200040F8043B40F804CBF7D25307E4E7000021
:104330000EB400B582B003A9009102466B4601217C
:10434000034878440A3002F063FA06BC5DF810FBBB
:10435000596F00008160002202600022C2600022CA
:104360004260864A02617047C068B0F54E7F01DB4B
:10437000012000E000207047C068C92801DA012050
:1043800000E000207047C068B0F5806F01D10120C7
:1043900000E000207047C068002801D1012000E043
:1043A00000207047F8B504000D002000FFF7EBFF78
:1043B000002816D1E068401CE0606068411C616024
:1043C0000126216901EB0007320029003800FFF7C0
:1043D00073FF60684FF4806190FBF1F201FB120003
:1043E0006060F1BD2DE9F84F04006548050020002C
:1043F000FFF7D1FF002801D00020BCE04FF4007689
:104400000027DFF87C813A0031004046FFF74EFE7E
:104410005C490868C0F38040002800F08F80D4F821
:1044200004B0E068C82832DAE0685749A1F898007B
:10443000206883450CDB20685349B1F898602169F6
:1044400001EB0007320039002800FFF735FF19E0C3
:1044500026682068D6F58067216901EB00083A00DC
:1044600041462800FFF728FF2068D4F8109040420A
:1044700028444FF4806100EB010A5A4649465046F1
:10448000FFF71AFF606820600020E06072E020689B
:10449000834511DB2068C826216901EB0007320043
:1044A00039002800FFF708FF2068C8302060206826
:1044B000BBEB0000E0603CE02068C830B0F5806FE6
:1044C00013DA2068C826216901EB000732003900A1
:1044D0002800FFF7F1FE2068C83020602068D0F582
:1044E00080601BEB0000E06023E026682068D6F5C2
:1044F00080610091216901EB0007009A39002800D2
:10450000FFF7DAFE2068B6F54E78D4F810904042F6
:1045100028444FF4806100EB010A42464946504668
:10452000FFF7CAFEB6F54E7020602068BBEB0000B6
:10453000E060C8201449A1F898001BE0206801261B
:10454000216901EB0007320039002800FFF7B4FEB3
:104550002068401C2060E068401EE06001200A499D
:10456000A1F8980020684FF4806190FBF1F201FB04
:10457000120020602800BDE8F28F0000081C002017
:1045800008220020A82C00209827002010B44268A0
:1045900003685B1A002B0FD403685B1A036003687F
:1045A000934203DA0368D31AC3600FE00368D3F5BC
:1045B0008063D318C36009E00368D1F58064E31811
:1045C00003600368D3F58063D318C36010BC7047E1
:1045D00010F007024E4B1B6819004FF6FF031940FD
:1045E0004C4B53EA02231943494B19607047484822
:1045F0000068C0F302207047012110F01F029140B3
:10460000454A40B2430942F823107047012110F097
:104610001F029140414A40B2430942F823107047BB
:1046200010B440B2002808D50A013D4B40B210F04A
:104630000F04234403F8042C03E00A01394B40B271
:104640001A5410BC704770B4030013F00704D4F17F
:104650000706052E01D3042001E0D4F10700261D32
:10466000072E01D2002500E0E51E012616FA00F013
:10467000401E0840A8400121A940491E114008439E
:1046800070BC704710B50400601EB0F1807F01D38C
:1046900001200EE0601E244908600F215FF0FF300A
:1046A000FFF7BEFF0020214908600720204908606D
:1046B000002010BD10B504002000FFF789FF10BDD9
:1046C000F8B504000D0016000027FFF790FF070063
:1046D000320029003800FFF7B6FF0100200040B289
:1046E000FFF79EFFF1BD10B50400200040B2FFF7B8
:1046F00083FF10BD10B50400200040B2FFF786FF15
:1047000010BD10B504002000FFF7BCFF10BD000075
:104710000CED00E00000FA0500E100E080E100E0BF
:1047200018ED00E000E400E014E000E018E000E034
:1047300010E000E07047000038B502F062FC04466B
:10474000208880042ED5656809E04A1B294602F0BE
:10475000A1FC10F1010F18BF00280CD00544E1683E
:1047600094F903008D42F0D30022002102F092FC64
:1047700010F1010F0DD16068E0606061E062208897
:1047800040F400702080204602F03CFC4FF0FF30E7
:1047900032BD6568E5606561E5624DF6FF712088B0
:1047A00008402080204602F02DFC002032BDF8B5E4
:1047B000A0B9C046C04600240A4D08264FF0FF3776
:1047C000286820B1FFF7B8FF002848BF3C462D1DE0
:1047D000761EF5D1C046C0462046F2BDBDE8F24087
:1047E000AAE70000E000002010B50400002C01D171
:1047F000012014E094F83900002805D1002084F845
:104800003800200002F04DFD022084F83900211DFF
:10481000206800F0CFF8012084F83900002010BD96
:1048200001000868C06850F001000A68D06008689C
:10483000006850F001000A6810600020704710B551
:1048400004002068006980071AD52068C0688007C6
:1048500016D57FF0020021680861012020762068CB
:10486000806910F0030F03D0200002F065FD05E021
:10487000200002F062FD200002F060FD00202076A2
:104880002068006940071AD52068C068400716D51F
:104890007FF004002168086102202076206880698A
:1048A00010F4407F03D0200002F046FD05E0200018
:1048B00002F043FD200002F041FD00202076206838
:1048C000006900071AD52068C068000716D57FF078
:1048D000080021680861042020762068C06910F073
:1048E000030F03D0200002F027FD05E0200002F0B6
:1048F00024FD200002F022FD0020207620680069BF
:10490000C0061AD52068C068C00616D57FF0100012
:1049100021680861082020762068C06910F4407F73
:1049200003D0200002F008FD05E0200002F005FDA4
:10493000200002F003FD0020207620680069C007F7
:104940000AD52068C068C00706D57FF0010021683D
:104950000861200002F02AFD2068006900060AD5DF
:104960002068C068000606D57FF0800021680861D5
:10497000200002F041FD2068006940060AD5206849
:10498000C068400606D57FF040002168086120001D
:1049900002F033FD2068006980060AD52068C068EF
:1049A000800606D57FF0200021680861200002F013
:1049B00025FD10BD002203681A00DFF894309842EC
:1049C0000CD0B0F1804F09D0DFF88830984205D084
:1049D000214B984202D0214B984201D1012300E0A3
:1049E0000023DBB2002B03D032F070024B681A4375
:1049F000174B984214D0B0F1804F11D0154B98420C
:104A00000ED0154B98420BD0144B984208D0144B43
:104A1000984205D0134B984202D0134B984201D1D3
:104A2000012300E00023DBB2002B03D032F44072FC
:104A3000CB681A4302608B68C3620B688362044BC5
:104A4000984201D10B690363012343617047000061
:104A5000000001400004004000080040000C00403D
:104A6000004001400044014000480140F8B40023E8
:104A70000024002500263200102A80F0D88001266C
:104A8000964033000E681E4034009C4240F0CD80BA
:104A90004E68022E02D04E68122E16D1D60800EBB8
:104AA0008606366A35000F2612F00707FFB2BF00F0
:104AB000BE40B5430E6912F00707FFB2BF00BE400B
:104AC0003543D60800EB86063562066835000326B6
:104AD0001700FFB27F00BE40B5430E7916F0030603
:104AE0001700FFB27F00BE40354305604E68012EBF
:104AF00008D04E68022E05D04E68112E02D04E68A6
:104B0000122E19D18668350003261700FFB27F00E8
:104B1000BE40B543CE681700FFB27F00BE403543AC
:104B200085604668350001269640B5434E68C6F359
:104B30000016964035434560C668350003261700C9
:104B4000FFB27F00BE40B5438E681700FFB27F0002
:104B5000BE403543C5604E68F60066D50026009617
:104B60008A4E366856F48046884F3E60874E3668D7
:104B700016F480460096009E854E970856F82760EA
:104B800035000F2612F00307FFB2BF00BE40B54349
:104B9000804EB04201D1002614E07F4EB04201D1D8
:104BA00001260FE07D4EB04201D102260AE07C4E84
:104BB000B04201D1032605E07A4EB04201D104266D
:104BC00000E00726F6B212F00307FFB2BF00BE40B6
:104BD00035436F4E970846F82750734E36683500B8
:104BE000A5434E68F60300D525436F4E35606F4EE2
:104BF00036683500A5434E68B60300D525436B4E95
:104C000035606B4E36683500A5434E68F60200D518
:104C10002543674E3560674E36683500A5434E68BC
:104C2000B60200D52543634E3560521C24E7F1BC23
:104C30007047F0B500220023002400263500102D17
:104C400080F098800126AE40320012EA010633005F
:104C5000934240F08D8006680327AC465FFA8CFCD7
:104C60005FEA4C0C17FA0CF7BE430660EE0800EB47
:104C70008606EF0800EB87073F6A5FF00F0C15F020
:104C8000070E5FFA8EFE5FEA8E0E1CFA0EFC37EA04
:104C90000C07376286680327AC465FFA8CFC5FEA34
:104CA0004C0C17FA0CF7BE43866046680127AF40EC
:104CB000BE434660C6680327AC465FFA8CFC5FEAD9
:104CC0004C0C17FA0CF7BE43C660314EAF0856F8CD
:104CD000276034000F2615F00307FFB2BF00BE4067
:104CE00034402C4EB04201D1002614E02A4EB0428E
:104CF00001D101260FE0294EB04201D102260AE07F
:104D0000274EB04201D1032605E0264EB04201D124
:104D1000042600E00726F6B215F00307FFB2BF0035
:104D2000BE40B44224D10F2615F00307FFB2BF00E6
:104D3000BE403400164EAF0856F82760A643144F05
:104D40005FEA950C47F82C60174E36689E43164F65
:104D50003E60164E36689E43144F3E60144E3668D1
:104D60009E43134F3E60134E36689E43114F3E6084
:104D70006D1C64E7F0BDD2B2002A02D089B2816115
:104D800002E089B20B04836170470000443802409E
:104D900008380140000002400004024000080240C0
:104DA000000C024000100240003C0140043C014065
:104DB000083C01400C3C014011B581B0002402F0D8
:104DC0001FFB040002F01CFB001B01998842F9D371
:104DD00013BD000010B50400002C01D1012033E008
:104DE000A0690028FFD194F83900002805D10020DF
:104DF00084F83800200002F063F9242084F8390098
:104E00002068C06830F400502168C860200000F0BD
:104E100016FB2068006930F4904021680861206822
:104E2000406930F02A00216848612068C06850F469
:104E300000502168C8600020E063202084F8390019
:104E4000202084F83A00002010BD10B50400002C8A
:104E500001D1012011E0242084F83900200002F063
:104E600001FA0020E063002084F83900002084F873
:104E70003A00002084F83800002010BD2DE9F843E6
:104E800004000D0016001F005FF0000994F83900BF
:104E900020285FD1002D02D0B6B2002E01D1012012
:104EA00059E094F83800012801D1022053E0012094
:104EB00084F838000020E063212084F8390002F0F3
:104EC0009FFA8146A684E684E08C00282FD0E08CEF
:104ED000401EE084A068B0F5805F18D100974B4673
:104EE00000228021200000F0BEF9002801D003201C
:104EF00031E0A846B8F80000C005C00D2168486040
:104F00002069002801D1AD1CDEE76D1CDCE70097AD
:104F10004B4600228021200000F0A5F9002801D096
:104F2000032018E02878216848606D1CCCE70097C2
:104F30004B4600224021200000F095F9002801D0C6
:104F4000032008E0202084F83900002084F838008D
:104F5000002000E00220BDE8F2832DE9F8430400C0
:104F60000D0016001F005FF0000994F83A00202899
:104F700064D1002D02D0B6B2002E01D101205EE036
:104F800094F83800012801D1022058E0012084F86B
:104F900038000020E063222084F83A0002F030FA62
:104FA0008146A685E685E08D00283FD0E08D401E35
:104FB000E085A068B0F5805F1ED100974B460022C7
:104FC0002021200000F04FF9002801D0032036E016
:104FD000A8462069002807D120684068C005C00D98
:104FE000A8F80000AD1CDEE72068406800F0FF0074
:104FF000A8F800006D1CD6E700974B460022202140
:10500000200000F030F9002801D0032017E02069CB
:10501000002804D12068406828706D1CC3E7206810
:10502000406810F07F0028706D1CBCE7202084F8D9
:105030003A00002084F83800002000E00220BDE89B
:10504000F28310B4030093F83900202822D10029FC
:1050500002D092B2002A01D101201CE093F838005E
:10506000012801D1022016E0012083F838001962DE
:105070009A84DA840020D863212083F83900002044
:1050800083F838001868C06850F080001C68E06041
:10509000002000E0022010BC704710B4030093F819
:1050A0003A00202828D1002902D092B2002A01D14A
:1050B000012022E093F83800012801D102201CE0F1
:1050C000012083F8380099629A85DA850020D86338
:1050D000222083F83A00002083F8380018684069DD
:1050E00050F001001C6860611868C06850F490704E
:1050F0001C68E060002000E0022010BC70472DE931
:10510000F8430400206805682068C668206847697D
:105110005FF000085FF0000915F00F008046B8F15D
:10512000000F18D1A80605D5B00603D5200000F061
:1051300035F996E0E8060ED5F0060CD50020009073
:105140002068006800902068406800900098200067
:1051500002F05CF985E0B8F1000F72D0F80702D4D4
:1051600016F4907F6DD015F00100C0B2002805D074
:10517000F00503D5E06B50F00100E063680708D547
:1051800017F00100C0B2002803D0E06B50F002001D
:10519000E063A80708D517F00100C0B2002803D0CB
:1051A000E06B50F00400E063280708D517F0010019
:1051B000C0B2002803D0E06B50F00800E063E06B61
:1051C00000283DD0A80604D5B00602D5200000F086
:1051D000E5F820684069800910F001008146E06B25
:1051E000000702D4B9F1000F25D0200000F073F8B9
:1051F0002068406940061AD52068406930F04000B8
:1052000021684861606B00280DD00FF2ED00616BE2
:105210000865606B02F06CF9002811D0606B616B5F
:10522000096D88470CE0200002F0CCF808E020006F
:1052300002F0C8F804E0200002F0C4F80020E063A7
:105240000FE0280605D5300603D5200000F05FF8F2
:1052500007E0680605D5700603D5200000F08EF83B
:10526000FFE7BDE8F1832DE9F04104000D001600D1
:105270001F00DDF81880206800682840A84201D18E
:10528000012000E00020F6B2B04221D118F1010F58
:10529000F1D0B8F1000F04D002F0B2F8C01B804585
:1052A000E9D22068C06830F4D0702168C8602068F6
:1052B00040694008400021684861202084F8390096
:1052C000202084F83A00002084F83800032000E011
:1052D0000020BDE8F0810168C96831F4907102686E
:1052E000D16001684969490849000268516120217B
:1052F00080F83A107047000038B50400A56B002014
:10530000E8850020E884280002F05CF831BD010047
:1053100091F8390021282FD18868B0F5805F11D12C
:10532000086A02001088C005C00D0B685860086943
:10533000002803D1086A801C086209E0086A401C42
:10534000086205E0086A431C0B6200780B6858602D
:10535000C88C401EC884C88C00280BD10868C0685F
:1053600030F080000B68D8600868C06850F04000DA
:105370000B68D860002000E00220704710B50400E0
:105380002068C06830F040002168C860202084F8A0
:105390003900200002F010F8002010BD38B50400DC
:1053A00094F83A00222848D1A068B0F5805F16D161
:1053B000A06A05002069002808D120684068C0055F
:1053C000C00D2880A06A801CA0621AE02068406896
:1053D00000F0FF002880A06A401CA06211E0206954
:1053E000002806D1A06A411CA162216849680170A9
:1053F00007E0A06A411CA1622168496811F07F01A1
:105400000170E08D401EE085E08D002813D12068FA
:10541000C06830F490702168C86020684069400816
:10542000400021684861202084F83A00200001F003
:10543000B7FF002002E0002000E0022032BD2DE98D
:10544000F8430400002520680069050035F4405544
:10545000E0680543206805612068C0680500BC4815
:105460000540A0682169084361690843E169084370
:1054700005432068C56020684069050035F4407523
:10548000A069054320684561E069B0F5004F40F030
:10549000B0802068AF49884203D02068AE49884276
:1054A00053D102F08AF9814602F087F9804602F072
:1054B00084F9070002F081F9060002F07EF9192153
:1054C00001FB09F162685200B1FBF2F16422B1FB09
:1054D000F2F1192202FB08F263685B00B2FBF3F2FF
:1054E000192303FB07F367687F00B3FBF7F3642717
:1054F000B3FBF7F3642707FB1322D2003232642395
:10550000B2FBF3F2520012F4F87212EB01111922FD
:1055100002FB06F263685B00B2FBF3F21923584307
:1055200063685B00B0FBF3F06423B0FBF3F064232B
:1055300003FB1020C00032306422B0FBF2F010F008
:10554000070040182168886000E102F026F98146D2
:1055500002F023F9804602F020F9070002F01DF95D
:10556000060002F01AF9192101FB09F162685200E4
:10557000B1FBF2F16422B1FBF2F1192202FB08F255
:1055800063685B00B2FBF3F2192303FB07F3676860
:105590007F00B3FBF7F36427B3FBF7F3642707FB44
:1055A0001322D20032326423B2FBF3F2520012F41F
:1055B000F87212EB0111192202FB06F263685B001C
:1055C000B2FBF3F21923584363685B00B0FBF3F0BE
:1055D0006423B0FBF3F0642303FB1020C0003230DF
:1055E0006422B0FBF2F010F00700401821688860D8
:1055F000ACE020685749884203D020685649884269
:1056000052D102F0DAF8814602F0D7F8804602F073
:10561000D4F8070002F0D1F8060002F0CEF8192104
:1056200001FB09F162689200B1FBF2F16422B1FB67
:10563000F2F1192202FB08F263689B00B2FBF3F25D
:10564000192303FB07F36768BF00B3FBF7F3642775
:10565000B3FBF7F3642707FB1322120132326423F2
:10566000B2FBF3F212F0F00212EB0111192202FB6D
:1056700006F263689B00B2FBF3F219235843636898
:105680009B00B0FBF3F06423B0FBF3F0642303FB57
:105690001020000132306422B0FBF2F010F00F0055
:1056A00040182168886051E002F077F8814602F0E6
:1056B00074F8804602F071F8070002F06EF80600F8
:1056C00002F06BF8192101FB09F162689200B1FB4D
:1056D000F2F16422B1FBF2F1192202FB08F26368D5
:1056E0009B00B2FBF3F2192303FB07F36768BF00CB
:1056F000B3FBF7F36427B3FBF7F3642707FB13222D
:10570000120132326423B2FBF3F212F0F00212EB18
:105710000111192202FB06F263689B00B2FBF3F24F
:105720001923584363689B00B0FBF3F06423B0FB7C
:10573000F3F0642303FB1020000132306422B0FB3D
:10574000F2F010F00F00401821688860BDE8F18386
:10575000F369FFFF001001400014014038B5040058
:105760000025DFF83C06FEF7E3FDDFF83806FEF71C
:10577000DFFDDFF83406FEF7DBFDDFF83006FEF76D
:10578000D7FDFCF7B7FD012000F002FCFCF7A5FEF9
:10579000FEF7FCFB0500EDB2002D02D02800C0B2E0
:1057A00075E2616BDFF80806FEF799FB0500EDB2C4
:1057B000002D02D02800C0B269E2FEF785FADFF8BA
:1057C000F415DFF8F405FEF73BFCDFF8EC05FEF717
:1057D00051FC80B2FEF796FA0500EDB2002D08D11B
:1057E000FDF710FF0500EDB2002D02D02800C0B279
:1057F0004DE2FCF772FE0121DFF8C005FEF76FFBFA
:105800000500EDB2002D02D02800C0B23FE2206BAF
:1058100000280BD0216BDFF89805FEF760FB050030
:10582000EDB2002D02D02800C0B230E20021DFF836
:105830009005FEF754FB0500EDB2002D02D02800C4
:10584000C0B224E22078002802D001281AD033E028
:105850000021DFF87005FEF742FB0500EDB2002DD8
:1058600002D02800C0B212E2DFF85C15DFF85C0558
:10587000FEF719FB0500EDB2002D02D02800C0B2E2
:1058800005E219E00121DFF83C05FEF728FB0500E1
:10589000EDB2002D02D02800C0B2F8E1DFF83015DB
:1058A000DFF82805FEF7FFFA0500EDB2002D02D063
:1058B0002800C0B2EBE1FFE76078002803D002289F
:1058C0006FD025D3B6E00021DFF80805FEF707FB0F
:1058D0000500EDB2002D02D02800C0B2D7E10021B2
:1058E000DFF8F404FEF7FBFA0500EDB2002D02D05C
:1058F0002800C0B2CBE10021DFF82C05FEF7EFFA5B
:105900000500EDB2002D02D02800C0B2BFE191E049
:105910000121DFF8C004FEF7E2FA0500EDB2002D28
:1059200002D02800C0B2B2E10B21DFF80005FEF77B
:10593000D6FA0500EDB2002D02D02800C0B2A6E1D3
:105940000021DFF83805FEF7CAFA0500EDB2002D98
:1059500002D02800C0B29AE10021DFF82405FEF74A
:10596000BEFA0500EDB2002D02D02800C0B28EE1D3
:105970000021DFF86404FEF7B2FA0500EDB2002D55
:1059800002D02800C0B282E10021DFF89C04FEF7BB
:10599000A6FA0500EDB2002D02D02800C0B276E1D3
:1059A00048E00121DFF82C04FEF799FA0500EDB27A
:1059B000002D02D02800C0B269E10C21DFF86C0490
:1059C000FEF78DFA0500EDB2002D02D02800C0B21E
:1059D0005DE10A21DFF8A404FEF781FA0500EDB2CB
:1059E000002D02D02800C0B251E10121DFF890045F
:1059F000FEF775FA0500EDB2002D02D02800C0B206
:105A000045E10121DFF8D003FEF769FA0500EDB2A8
:105A1000002D02D02800C0B239E10021DFF80804CF
:105A2000FEF75DFA0500EDB2002D02D02800C0B2ED
:105A30002DE1FFE7A078002803280FD8A0780621E1
:105A400001FB00F1DFF83C04FEF749FA0500EDB276
:105A5000002D02D02800C0B219E1FFE7E07800284D
:105A600002280CD8E178DFF82004FEF738FA0500A8
:105A7000EDB2002D02D02800C0B208E1FFE7606857
:105A800000280BD06168DFF80404FEF70CFA05006B
:105A9000EDB2002D02D02800C0B2F8E0A0680028C6
:105AA0000BD0A168DFF8E803FEF7FDF90500EDB2C1
:105AB000002D02D02800C0B2E9E0E06800280BD039
:105AC000E168DFF8D003FEF7EEF90500EDB2002D36
:105AD00002D02800C0B2DAE0206900280BD021698A
