:020000040800F2
:10000000700500205D9F0008657200086772000897
:1000100000000000000000000000000000000000E0
:1000200000000000000000000000000071720008E5
:100030007B72000800000000857200089B720008B7
:10004000BF3F000813440008574A0008BF66000875
:10005000637200080373000813730008237E00080E
:10006000537E0008337F0008B77F00081381000823
:10007000DB880008038B000800000000877200087E
:1000800000000000338B00080000000000000000AA
:100090009172000800000000E38E0008AB90000899
:1000A000479A0008579A00081B9C0008D77200085E
:1000B000E172000839A100083BA100083DA1000839
:1000C000F1B5002403F0BBFC6846027812491348DE
:1000D00003F034FEFF2012498875104803F04AFEF1
:1000E00080B203F0C5FC0400E4B2002C02D0200072
:1000F000C0B20FE0012500260A4F32002900380067
:1001000003F040FE0648807D0E2801D000BFF9E7CD
:100110002000C0B2F2BD0000F09F0008700B00206C
:10012000441A00205A1A0020F1B58EB0002069460A
:100130008872002004900E98007869468872D5482D
:1001400003F048FE01004903C90F00290ED168469B
:10015000807A00280AD06846807ACF49CF4A126850
:100160008854CE480068401CCC490860CC4803F055
:100170000FFFC948C94909684018801E00780D283A
:1001800001D000F029FCC448C44909684018401E49
:1001900000780A2801D000F01FFCBE4803F01AFEC8
:1001A0000100C900C90F002901D000F015FCBD48AD
:1001B00000780100C907C90F002901D000F00CFC2C
:1001C000B949B54803F0F3FE00286BD003F006F8F8
:1001D00072B6B14801F0E8FC62B602F0F2FFDD4809
:1001E00003F0F8FD0100C901C90F00290CD172B656
:1001F000AB4803C80A000100D74803F01AFE62B6F4
:10020000A74803F0C5FE1CE0A24803F0E3FD01008F
:100210008907C90F002914D1A14803F0B9FECD48C0
:1002200003F0D8FD0200CB49D448104003F0C8FECB
:10023000984803F0CFFD020096490220104303F0D6
:10024000BFFEC44803F0C6FD01004901C90F0029E3
:1002500008D1C04803F0BEFD0200BE49C7481040A7
:1002600003F0AEFE00208D4908608A4803F0B2FD1D
:1002700001008902C90F002912D0864803F0AAFDA7
:1002800001000901C90F00290AD0824803F0A2FD2C
:1002900002008049D848104003F092FE00F0BBFCF9
:1002A00001F04BFCD5497C4803F081FE002800D1C9
:1002B000B0E1D349784803F07AFE0400002825D045
:1002C000684621790172607902A94870CD480178A9
:1002D000F02008406946097A0A22514302AA52785E
:1002E00089180907090F0143C64801700F20C64944
:1002F000087072B66A4803C80A000100964803F005
:1003000098FD62B6664803F043FE4EE1BF4962487D
:1003100003F04DFE0400002800D197E06846617AA2
:100320000170A07A69464870E07A69468870207B3F
:100330006946C870684640780D2805D1684600783F
:100340003038D34908603AE0684680780D280BD1F0
:10035000684600780A214843694649784018CD49E3
:100360004018CB4908602AE06846C0780D2810D1B3
:100370006846007864214843694649780A22514317
:100380004018694689784018C3494018C049086038
:1003900015E068460078FA218900484369464978A3
:1003A000642251434018694689780A225143401813
:1003B0006946C9784018D8494018B5490860B4481A
:1003C000006800280AD0334803F004FD02003149D8
:1003D00080200002104303F0F3FDE6E0AC48006823
:1003E000002800D0E1E0CD48CC490978C9B2C9085D
:1003F0004907490F4018E921405C00281DD0C84832
:10040000C6490978C9B2C9084907490F405C0028A4
:1004100008D00221C1480078C0B2C0084007400F90
:1004200003F0C0FABD48BD490978C9B2C9084907F7
:10043000490F4018E92100224254164803F0CAFC33
:1004400014490822904303F0BBFDAEE0B5A1124869
:1004500003F0ADFD0400002828D003206A4908708D
:10046000200003F087FC05000B3DE61CAE4F2A0080
:100470003100380003F0AEFD72B6094803C80A0027
:100480000100354803F0D5FC62B6054803F080FD55
:100490008BE000BF941A002070130020D81A0020AF
:1004A000DC180020441A002088A000089F4800782B
:1004B000C0B240080100C907C90F002960D09B489D
:1004C0004078C0B200090100C907C90F002966D0F1
:1004D0009248C079C0B2C0084007400F002809D038
:1004E0008E48C079C72101400838382202400A43AB
:1004F0008A48C2718D480078FD2101408B48017007
:1005000000208749854A52791207120F8854834880
:1005100040790007000F8149087184484078EF2135
:1005200001408248417002208049C874C2488079E5
:10053000C0B280080100C907C90F00290ED00548C4
:1005400003F048FC020003498020C005104303F07B
:1005500037FD09E0951A0020D0180020B6488079B0
:1005600004210143B4488171B34803F033FCB2491C
:100570000822904303F024FD11E000BFFFFFFFFEBF
:1005800002202149087072B6C84803C80A00010059
:10059000C74803F04EFC62B6C44803F0F9FC634858
:1005A0000078FD210140614801700020C1490860C8
:1005B0008025AD000026C04F32002900380003F02E
:1005C000E1FB9D4803F006FC01008902C90F0029E8
:1005D0001ED0994803F0FEFB01000901C90F002954
:1005E00016D0954803F0F6FB0200934902481040EC
:1005F00003F0E6FC0FE300BFFFFFFFF790A0000849
:1006000098A00008DD180020E2180020FC9F0008D8
:1006100001F093FACC49A84803F0C9FC002800D1A6
:10062000EAE0CA49A44803F0C2FC002836D0C84812
:1006300003F0FEFC3D480078FD2101403B4801707D
:100640003A484078EF210140384841707A48807933
:10065000C0B280080100C907C90F002905D176483A
:100660008079042101437448817101202B492B4A70
:1006700052791207120F8918E92288546E4803F044
:10068000A9FB6D490822904303F09AFC8CE000BF5F
:1006900010160020F0FDFFFF30EBFFFFCA4986482F
:1006A00003F085FC002805D1C849834803F07FFC8E
:1006B00000283DD0604803F08DFB01000903C90FFD
:1006C000002971D05C4803F085FB02005A49C048FC
:1006D000104003F075FC584803F07CFB5649082293
:1006E000904303F06DFC544803F074FB0200524940
:1006F000B848104003F064FC4F4803F06BFB020065
:100700004D49CC48104003F05BFC0020CA490880EA
:100710000020CA49086047E0B02FFFFF7015002095
:10072000A81A0020203D20007E150020441A002039
:10073000C349614803F03BFC002802D0C14803F0E4
:1007400077FC0820C049087072B6584803C80A00F0
:100750000100574803F06DFB62B6544803F018FCE3
:10076000354803F037FB01000907C90F002907D0FE
:10077000314803F02FFB30490822904303F020FC5E
:10078000B24803F027FB01008900C90F00290BD0F4
:10079000AE4803F01FFB0200AC49AD48104003F027
:1007A0000FFC0020AB49086000204249086080250A
:1007B000AD000026404F32002900380003F0E2FA75
:1007C0001D4803F007FB01008902C90F002911D061
:1007D000194803F0FFFA01000901C90F002909D0E7
:1007E000154803F0F7FA020013499B48104003F044
:1007F000E7FB10E201F0A1F998492F4803F0D7FB7D
:1008000000285DD096492C4803F0D1FB0400002C51
:1008100003D000209349487202E0012091494872B8
:1008200091A1254803F0C3FB0400002C06D0002052
:100830008C49887205E000BF941A00200120894984
:10084000887204208049087072B6184803C80A00EC
:100850000100174803F0EDFA62B6144803F098FB64
:100860000020144908608025AD000026124F320098
:100870002900380003F086FA7C4803F0ABFA010047
:100880008902C90F002919D0784803F0A3FA0100A2
:100890000901C90F002911D0744803F09BFA020026
:1008A00072496D48104003F08BFBB4E1DC18002066
:1008B000D0180020D81A00207013002001F03DF954
:1008C0006A4803F087FA01008902C90F002941D064
:1008D000664803F07FFA01000901C90F002939D0E9
:1008E000BD4803F077FA01000901C90F002931D191
:1008F000BA48008800280FD072B6B8480188B848B6
:1009000003F0CCFC62B6B548058800260E9F320085
:100910002900380003F036FA4C4803F05BFA020075
:100920004A498020C005104303F04AFB4F4803F0BA
:1009300051FA02004D494848104003F041FBA948D4
:100940000068A949088020E0A0A000088C9B00084E
:100950005C9500084548407AC0B280080100C9078C
:10096000C90F002911D09F48056800269F4F32000B
:100970002900380003F006FA00209A4908603B4835
:10098000407AFB21014039484172994800780100C2
:10099000C907C90F002900D03DE195480078C0B2D1
:1009A00040090100C907C90F002900D133E1002027
:1009B0008C4908608025AD0000268C4F320029004C
:1009C000380003F0DFF926E1449700081C96000880
:1009D000FFFFF7FFFFFFDFFF2448407AC0B2800827
:1009E0000100C907C90F002944D1C5497F4803F058
:1009F000DEFA00283ED0C3497C4803F0D8FA00282C
:100A000036D00F2003F0E8FC03F002FD1748407ACF
:100A10000421014315484172724805680026734F4E
:100A200032002900380003F0ADF900206D4908605C
:100A300001F083F8FFFFFBFF0616002024160020BC
:100A4000A8A00008E8980008E2180020961A0020E4
:100A5000FFFFFFDF3C160020FFFFFFF7B0A00008FC
:100A6000B8A00008701500206F757400941A00205B
:100A700001F063F8A44803F0ADF90100C901C90F02
:100A8000002970D0A149594803F091FA00283CD1BF
:100A90009F49564803F08BFA002836D19D495348A8
:100AA00003F085FA002830D19B49504803F07FFAC3
:100AB00000282AD199494D4803F079FA002824D119
:100AC00097494A4803F073FA00281ED195494748D0
:100AD00003F06DFA002818D19349444803F067FAEF
:100AE000002812D19149414803F061FA00280CD145
:100AF0008F493E4803F05BFA002806D18D493B48F8
:100B000003F055FA002800D185E08B4803F062F924
:100B10000200894980204005104303F051FA8648BD
:100B200003F058F9020084498020C002104303F00A
:100B300047FA754803F04EF9020073497F481040A8
:100B400003F03EFA05207E4908807E4803F042F912
:100B500002007C497C48104003F032FA00207B49B7
:100B6000086000F0EAFF21481E4909684018401E4D
:100B7000007809281AD11D481A4909684018801EB2
:100B800000783A2812D11948164909684018C01E41
:100B9000007831280AD1684803F01CF90200664940
:100BA00080200006104303F00BFA34E06248C0795D
:100BB000C0B280080100C907C90F00291AD00B482C
:100BC000084909684018401E0078002823D10020F9
:100BD000044908601FE000BF951A00200816002095
:100BE000BC180020D81A00200C160020701300201A
:100BF000441A0020D1480068D14988420BD3002014
:100C0000CE4908608025AD000026CE4F3200290075
:100C1000380003F0B7F8484803F0DCF80100490356
:100C2000C90F002900D12BE1464803F0D3F8010099
:100C30004900C90F002900D022E1D4480088D449D6
:100C40000880BE480068D249098840188021890080
:100C500088421FD3B9480068CD4909884018CD495A
:100C6000451872B62900CC4803F018FB62B600267E
:100C70000E98B24909684A428018B14947183200B3
:100C80002900380003F07EF8AD48AC490968401AE5
:100C9000BF490880BE480588C04EAA48A7490968D0
:100CA00047182A003100380003F094F9A34800687F
:100CB000B74909884018A1490860A0480068012880
:100CC00005D1A04800780D2801D100F036FFB449C5
:100CD0009C4803F06CF900283AD0174803F07AF8E2
:100CE00002001549AF48104003F06AF9AE4803F01E
:100CF00071F80200AC49AB48104003F061F9BFE065
:100D000008A00008C0A00008971A0020C8A000088A
:100D1000D0A00008589D0008D8A000086C9D0008CD
:100D20003C9F00084C9F0008A49B0008E89900081D
:100D3000809D0008BC9B0008941A0020FFFFFFFE66
:100D40000A160020961A0020FFFFFFDF3C16002045
:100D5000D04800780100C907C90F002900D08FE0F2
:100D6000CD4803F037F80100C900C90F002900D0B1
:100D700086E074480078002800D181E0714800784E
:100D80000D287DD16F4840780A2879D1C348006882
:100D9000022875D0844803F01DF8020082498020A3
:100DA0000005104303F00CF9BDA1BE4803F0FFF8A5
:100DB0000400002838D06348251AAD1CBA49B94848
:100DC00003F0F5F800280BD0B8495E48401903F04D
:100DD000EEF80400002C03D05A48201A801D0500AC
:100DE00056480068401B002815D072B6534800686A
:100DF000411B694803F052FA62B650480068401B34
:100E0000019000264F48471932000199380002F03E
:100E1000B9FF4A480560644802F0DCFF02006249FD
:100E20006048104003F0CCF89B4802F0D3FF02006A
:100E3000994980200005104303F0C2F83F4800683C
:100E40003F4988421CD1584802F0C4FF0100090103
:100E5000C90F002914D0544802F0BCFF02005249C7
:100E60005048104003F0ACF88B4802F0B3FF02008A
:100E700089494C48104003F0A3F8314844490880A0
:100E8000854802F0A7FF01000901C90F002900D021
:100E9000A0E2814802F09EFF01008902C90F0029EB
:100EA00000D197E27B480078012101437948017025
:100EB000CF480068364909884018CD49086038494C
:100EC0002048CC4A12888018401F03F070F80400B4
:100ED000002C00D1ECE01B48184909684018801E1E
:100EE00000780D2800D0E3E016481449096840183E
:100EF000401E00780A2800D0DAE0BF49114803F00C
:100F000056F8040000281FD0E07E00280CD00D48C1
:100F1000251A0A48016828001B300E1A72B63100E3
:100F20001D4803F0BBF962B65A48407801210143DD
:100F3000584841700D20D94908704EE0D81A002059
:100F4000FF01000070130020D549D64803F02FF8A8
:100F5000040000282AD0E07D00280CD0D148251AB2
:100F6000DC480168280017300E1A72B631000A48B2
:100F700003F094F962B60120D749D74A5279120793
:100F8000120F8918E922885427E000BF08160020B4
:100F90000C16002001FEFFFFBC180020701100207D
:100FA000E0A00008FFFFFFF7951A0020CB49BD48DD
:100FB00002F0FDFF040000280FD0E07D00280CD0D7
:100FC000B848251AC3480168280017300E1A72B6AF
:100FD0003100C34803F062F962B60020844908601A
:100FE0000020C049086000202C4908600520814984
:100FF0000880294802F0EEFE02002749BA48104056
:1010000002F0DEFF244802F0E5FE23490822904367
:1010100002F0D6FF204802F0DDFE02001E49B34870
:10102000104002F0CDFF00201A49486019480078AE
:10103000FE21014017480170174802F0CBFE010065
:101040000903C90F002916D0134802F0C3FE02009D
:101050001149D748104002F0B3FF0020D54908607D
:101060000D4802F0B7FE02000B490120104302F0C8
:10107000A7FF02F07BFD974805680026894F3200E4
:101080002900380002F07EFE00209249086000F03E
:1010900054FD00BF441A0020941A002014160020AA
:1010A0000D0A00007213002014A0000890A0000890
:1010B00088480068062805D3002C03D185480068BD
:1010C0004C4908804A480068BB490968884200D2F8
:1010D0000EE1B94800684649096888421AD2444876
:1010E0000068B5490968451A72B629007C4803F0C2
:1010F000D5F862B600266B4876490968491B47183F
:1011000032002900380002F03DFE72480068401BA2
:10111000704908606F480068A8490880A6480068C0
:10112000A74908606B4805685E4EA64F2A0031004B
:10113000380002F04FFF00206649086000202C496B
:10114000086000206749086000209B490860002073
:101150009D4908800520274908809C4802F03AFEF6
:1011600002009A499A48104002F02AFF974802F07C
:1011700031FE020095495D48104002F021FF5648BB
:10118000C078072101435448C170904802F022FE04
:1011900001000903C90F002930D0002085490860EB
:1011A0004D484078C72101404B484170E2484068B3
:1011B000002804D0E0484068401EDF494860DE480F
:1011C000406800280AD1814802F004FE02007F49ED
:1011D0000120104302F0F4FE02F0C8FC7B4802F04C
:1011E000F9FD02007949D548104002F0E9FE20E0FF
:1011F000201600200A160020049A0008734802F006
:10120000E9FD020071498020C003104302F0D8FEBE
:1012100031484078C72101402F48007838220240E9
:101220000A432D484270C448007802210143C24855
:101230000170664802F0CEFD020064492A48104061
:1012400002F0BEFEBC480078FE210140BA480170A1
:1012500001F0D1FF5D4802F0BDFD01000903C90F97
:10126000002921D0B64802F0B5FD0200B449802023
:101270008005104302F0A4FE544802F0ABFD534930
:101280000822904302F09CFE504802F0A3FD0200A9
:101290004E494748104002F093FE0FE058160020D8
:1012A0008C9B000870130020A54802F093FD0200FB
:1012B000A34980204005104302F082FE8025AD0046
:1012C0000026A04F32002900380002F05BFD00F03C
:1012D00034FC00BFD81A002070150020D49B0008F1
:1012E000BC18002010160020FFFFDFFFFFFFFBFFF0
:1012F000D8480068D849884259D30520D749088082
:101300002D4800682E490860D3482C490880D148F0
:10131000006801908B4803902A4D019A0399280098
:1013200002F058FE0020CB4908600520CB49088018
:10133000CB48C07807210143C948C17001F05BFF69
:101340008025AD0000267F4F32002900380002F0D2
:1013500019FD1E4802F03EFD01000903C90F0029D6
:1013600010D0BF484078C7210140BD484170744843
:1013700002F030FD0200724980208005104302F027
:101380001FFE14E0B6484078C7210140B4480078F9
:10139000382202400A43B2484270694802F01AFDFE
:1013A0000200674980204005104302F009FEC4E3B3
:1013B000FFFFF7FF18160020141600200616002065
:1013C00024160020700F00200C160020941A002014
:1013D000FFFFFFF7A34802F0FDFC0100C900C90FA1
:1013E000002900D1D2E1544800780121014352483C
:1013F00001709D495348994A12888018401F02F095
:10140000D6FD0400002800D19EE0E07900281ED01F
:101410004C48251A8F4801682800801D081A019041
:1014200072B60199CD4802F039FF62B60198039077
:10143000002644484019C71D32000399380002F0C5
:10144000A1FC844800680199401A824908608148DB
:101450000068C34908807F480068019039480390BC
:10146000C04D019A0399280002F0B4FD7948006844
:10147000BD49088030484078012101432E48417021
:10148000784802F0A7FC02007649B848104002F004
:1014900097FD744802F09EFC02007249B448104067
:1014A00002F08EFD01F0A7FE0020B249087022482C
:1014B0000078FE210140204801706A4802F08AFC51
:1014C00002006849AC48104002F07AFD654802F01D
:1014D00081FC64490822904302F072FD05205F49B7
:1014E00008805C4805680026164F32002900380045
:1014F00002F048FC0020574908605A4802F06AFC94
:1015000001008900C90F00290AD09C4802F062FC42
:1015100002009A498020C004104302F051FD93E07C
:10152000964802F057FC0200944980208004104342
:1015300002F046FD88E000BF441A0020FFFFBFFF15
:10154000951A0020701300208D498E48434A128856
:101550008018401F02F02BFD0400002874D0414881
:1015600002F038FC02003F498048104002F028FD9C
:101570008448384909684018801E00780D2863D1D6
:101580008048344909684018401E00780A285BD119
:101590007D484078012101437B4841700D20754909
:1015A000087079480078FE210140774801702D4885
:1015B00002F010FC02002B496C48104002F000FDC4
:1015C000284802F007FC020026496B48104002F050
:1015D000F7FC00201F4908600520204908802148A9
:1015E00002F0F8FB02001F496148104002F0E8FCDD
:1015F0001C4802F0EFFB1B490822904302F0E0FC7C
:101600008025AD0000265F4F32002900380002F02F
:10161000B9FB144802F0DEFB01008900C90F002964
:1016200009D0564802F0D6FB02005449C648104083
:1016300002F0C6FC08E0514802F0CCFB02004F4922
:10164000C248104002F0BCFC0248006806280DD3D6
:1016500001200CE0D81A0020FF0100000A1600202B
:1016600070150020941A002090A000080020002C83
:1016700001D1012100E00021C0B2084203D0D348CB
:101680000068D3490880D1480068D249884264D1B3
:10169000CE48006801903B480390324D019A03996F
:1016A000280002F097FC06200C90CB480B90CB4D05
:1016B0000C9A0B99280002F08DFC06200A9000205D
:1016C0000990C54D099A0A99280002F05BFB802019
:1016D00080000890002007902A4D079A089928005A
:1016E00002F050FB06200690BC480590254D069A56
:1016F0000599280002F06EFC06260025B74F2A0047
:101700003100380002F03EFB0620B0490860052099
:10171000AF490880FF20FA301349088001F06BFDC3
:10172000AF4802F057FB01008900C90F00290AD019
:10173000124802F04FFB020010498020C004104301
:1017400002F03EFC09E00D4802F044FB02000B49A8
:1017500080208004104302F033FCEEE1BC1800202E
:1017600006160020700F002002160020FFFFFBFF6E
:10177000FFFFFFEF58160020FFFFFFF7961A00202B
:10178000A0A0000870130020441A0020944802F022
:1017900021FB01000901C90F002900D071E1904827
:1017A00002F018FBC00F002800D16AE18D4887497C
:1017B00009684018801E00780D2800D050E1894843
:1017C000824909684018401E00780A2800D047E185
:1017D000DB4802F059FEDB48407BDA49097B88424E
:1017E00000D3C4E0D8497F4802F0E1FB0400002C9C
:1017F0000FD06846A1790170E07969464870684663
:1018000000780A2148436946497840181038CF4982
:101810000870CE480078CE490968CA4A527B2C230A
:101820005A438854CB496F4802F0C1FB0400002C96
:101830000FD06846E1790170207A694648706846A1
:1018400000780A214843694649784018C24940183F
:101850000490BF480068BB49497B2C225143401883
:1018600004994A424260BD495E4802F0A0FB040070
:10187000002C1ED00720BA490870B9480078205CB7
:10188000272816D0B2480068AE49497B2C22514324
:101890004018B34909784018B1490978615C417032
:1018A000AF480078401CAE490870AD480078232846
:1018B000E3D1AC494B4802F07AFB0400002C0AD07B
:1018C000A34800689F49497B2C2251434018262198
:1018D0000122425409E09E4800689A49497B2C2223
:1018E000514340182621002242549F493D4802F0AE
:1018F0005EFB0400002C0AD0954800689149497BA2
:101900002C225143401827210122425409E09048DB
:1019100000688C49497B2C22514340182721002222
:10192000425492492F4802F042FB0400002C0FD091
:10193000874800688349497B2C225143401828215D
:10194000012242540EE000BFFFFFFFFBFFFFFFFD3F
:101950007F4800687B49497B2C225143401828214D
:10196000002242547748407B401C764948738049A6
:101970001C4802F01CFB0400002C35D08025AD0073
:101980000026184F32002900380002F0FBF9002031
:101990000E4908607748407801210143754841703D
:1019A0000F4802F017FA0E494000400802F008FB09
:1019B0000B4802F00FFA020009496F48104002F08C
:1019C000FFFA0D206D490870B7E000BFD81A00205B
:1019D0000A160020FF01000069110020B81A00203B
:1019E000941A0020701300206549664802F0DFFA5F
:1019F000002829D0644802F0EDF9020062495E48EF
:101A0000104002F0DDFA00204E49487300205F4983
:101A100008605848407801210143564841705A48AF
:101A200002F0D8F958494000400802F0C9FA0020F5
:101A3000524908708025AD000026524F320029001F
:101A4000380002F09FF978E00020504908608025B6
:101A5000AD0000264B4F32002900380002F092F909
:101A60004A4800684A4988420BD300204749086029
:101A70008025AD000026434F32002900380002F0D7
:101A800081F9414802F0A6F901000901C90F0029B6
:101A900053D13D4802F09EF901004901C90F0029C8
:101AA0004BD03CA002F0C4FA3B49364802F07FFA22
:101AB0000400002830D0344802F08CF9020032498A
:101AC0003648104002F07CFA2E4830490968401828
:101AD000801E00780D281FD12A482C49096840181B
:101AE000401E00780A2817D12D4802F0A1FA264896
:101AF00002F070F9020024492A48104002F060FA0E
:101B00000020224908608025AD0000261D4F3200CC
:101B10002900380002F036F91C4800681C49884248
:101B20000BD10020194908608025AD000026154F13
:101B300032002900380002F025F90FB0F0BD00BFD7
:101B40005400002070150020E8A00008EF1A0020C3
:101B5000D41A0020F0A00008F0FDFFFFF8A0000854
:101B6000EE1A002000A1000808A1000810A100083A
:101B7000A0A00008441A0020FFFDFFFF5816002017
:101B800018A1000870130020941A0020D81A002011
:101B9000FF0100002A00000020A00008FFFFFBFF5B
:101BA000949D0008FFFFFFFBF1B584B0049E049DE7
:101BB000FF27002D00D1AEE2BD49300002F0F7F959
:101BC0000500002D00D1A6E2684669790171A87967
:101BD00001A9487001A840783A2804D168460079E4
:101BE000303807000AE0684600790A21414301A81D
:101BF0004078081884218900401A07003800AD4950
:101C000008700120AC4908703FB238000028032852
:101C100000D851E2001F012800D871E2801E01287F
:101C200000D849E2801E012800D869E2801E00D158
:101C300055E2401E012800D862E2801E012800D82B
:101C40003AE2801E00D15BE2401E032800D833E256
:101C5000001F00D154E2401E00D12DE2401E012899
:101C600000D84DE2C01E00D126E2401E012800D857
:101C700046E2801E00D1AFE1801E00D11CE2401E72
:101C8000012800D83CE2801E012800D814E2801E02
:101C9000012800D834E2801E00D10DE2401E00D1A0
:101CA0002EE2401E00D107E2401E042800D827E2A1
:101CB000401F012800D8FFE1001F052800D8FBE1E4
:101CC000801F20D0801E00D1CCE1401E2FD0401EAE
:101CD00000D10FE1401E00D12EE1401E012800D8A6
:101CE000A2E1C01E32D0801E00D1E5E1401E00D12D
:101CF000CEE1401E00D1D5E1001F00D180E1801E61
:101D000000D1D9E1FDE1D149300002F050F90500E0
:101D1000684669790170CE480178F020084069462C
:101D200009780907090F0143C9480170E9E16846CC
:101D3000A97D0170C6480178F020084069460978FD
:101D40000907090F0143C2480170DAE1C14802F0F6
:101D500041F80100C901C90F002903D0BE4802F0B3
:101D600067F9D8E1BB4802F035F801008901C90FD5
:101D7000002903D00020B949086012E0B84802F0F9
:101D800029F80200B6490820104302F019F9B148B9
:101D900002F020F80200AF4980208004104302F0D6
:101DA0000FF9AA49300002F002F90500002D00D118
:101DB0009FE0684669790170684600783038D749F5
:101DC00008706846297A0170687A69464870A87A6E
:101DD00069468870E87A6946C870684600783A288B
:101DE00006D16846E9790170287A694648702EE084
:101DF000684640783A2809D16846E9790170287A1E
:101E000069464870687A6946887020E0684680783C
:101E10003A280CD16846E9790170287A69464870F9
:101E2000687A69468870A87A6946C8700FE0684683
:101E3000C0783A280BD16846E9790170287A69465A
:101E40004870687A69468870A87A6946C87068469A
:101E500040783A2805D1684600783038B0498884FF
:101E600042E0684680783A280CD1684600780A211A
:101E7000414368464078081884218900401AA849DF
:101E8000888431E06846C0783A2817D168460178DE
:101E900064204843694649780A224A4380186946C3
:101EA000897840189F49401A9D4988841CE000BFEA
:101EB00088A00008DC180020E2180020684601789D
:101EC000FA20800048436946497864224A438018D2
:101ED000694689780A224A4380186946C9784018B9
:101EE000914940188E49888490484068401C8F4929
:101EF000486006E18D480078802101438B480170DD
:101F00008A480078DF210140884801700020874915
:101F10004860534801F05EFF51490222904302F0AD
:101F20004FF84C4801F056FF02004A498020400417
:101F3000104302F045F8E4E07C4800784006400E8B
:101F40007A49087079480078202101437748017068
:101F5000434801F03FFF42490222904302F030F82B
:101F60003C4801F037FF02003A498020400410430A
:101F700002F026F83A4801F02DFFC00708D56B485B
:101F80000078C0B2C009C0B2002801D101F0EEFD56
:101F9000334801F01FFF01000903C90F00291AD0BF
:101FA0000520634908802E4801F014FF02002C49E7
:101FB0008020C002104302F003F8294801F00AFF14
:101FC0000200274980208003104301F0F9FF59489F
:101FD00000685949086094E05849300001F0E7FF73
:101FE000050011200400222C06DA285D5449091945
:101FF0003E228854641CF6E70B204C49887580E02B
:102000005049300001F0D3FF050011200400222CBC
:1020100006DA285D4A4909193E228854641CF6E70D
:102020000C20424988756CE00A4801F0D3FE01009B
:10203000C901C90F002908D0064801F0CBFE0200F3
:1020400004494148104001F0BBFF5AE020A10008BC
:10205000DD180020951A002028A100081C16002079
:10206000941A0020002039490870394801F0B2FE66
:1020700037490222904301F0A3FF364801F0AAFE3F
:102080000200344980204004104301F099FF38E0F9
:102090000A20314908702E48C079042101432C4898
:1020A000C1712EE009202C4908702948C079FB2114
:1020B00001402748C17124E0254801F08BFE2449E6
:1020C0000222904301F07CFF224801F083FE0200CF
:1020D000204980204004104301F072FF11E01C48A9
:1020E00001F078FE01000907C90F002907D0184840
:1020F00001F070FE16490822904301F061FF00E0F4
:10210000FFE780208000039000200290029A03994C
:10211000300001F037FE05B0F0BD00BFDE18002032
:10212000BC180020D0140000B02F0000441A00207A
:102130000A16002018160020141600202CA00008F3
:102140007015002038A00008FFFFFFFEE91A0020EC
:10215000941A0020951A0020E218002070B5802102
:10216000C900714801F076FF70484078F1210140C4
:102170006E48417000206E49087000F02EF900F0A2
:102180008FF800F016F80A216A4801F02FFE01F0DE
:1021900018F808250024684E22002900300001F0BC
:1021A000F1FD9D4802F0ACF9002801D001F059FC86
:1021B00070BD00B55D480078082101435B4801709F
:1021C0005A480078802101435848017057480078E8
:1021D000BF21014055480170002054494874002037
:1021E0005249887400205149486050484078FE2187
:1021F00001404E484170FF204C49887502204B49F0
:10220000C8740220494908750020484948750020D3
:102210004649C860814801F0DDFD80490122024342
:10222000100001F0CDFE7D4801F0D4FD7B49022273
:102230000243100001F0C4FE754801F0CBFD744963
:10224000744A0240100001F0BBFE7448007AFE217F
:1022500001407248017271488079042101436F483E
:1022600081716E48C0794006400E6C49C8716B4858
:10227000007AFD210140694801726848007AFB211B
:102280000140664801726548007AF72101406348C1
:1022900001726248407AFB2101406048417200BDF2
:1022A000F8B55F48C079C72101405D48C171002081
:1022B0005C49086000205C49086000205B490860B8
:1022C00000205B49086000205A49086000205A49F4
:1022D0000880002059490860002059490860002002
:1022E0005849086000204E4948730020564908604C
:1022F000002056490880802040015549086005208B
:1023000054490880082000900124534D2200009970
:10231000280001F037FD01250026504F320029002A
:10232000380001F02FFDF1BDBC180020441A002038
:10233000E91A0020D0180020A81A002080B54848CB
:1023400000680421014346480160454800680421B3
:10235000084000900098424800680121014340482D
:1023600001603F4800680100C907C90F009100984B
:10237000802040013B49086301203A49486301201D
:102380003849886303203749C8633749374802F022
:10239000A7F9002036490870FF20364988750022C9
:1023A00080214901314802F02BFBC82002F046FB96
:1023B0000122802149012D4802F022FB322002F047
:1023C0003DFB80214901294802F073FA2948807DAC
:1023D0000E2801D000BFF9E701BD80B500228021A1
:1023E0004901A020C00502F00BFB0122224923482D
:1023F00002F0E3FC002809D1084801F0EBFC074992
:10240000802252010243100001F0DAFD01BD0000FC
:10241000961A0020FFFFFFDF78190020941A002091
:10242000701500201C160020101600201816002021
:102430002816002020160020081600202C16002048
:1024400034160020381600203C1600200416002008
:10245000541600200A160020B01A0020ED1A0020A1
:102460002C100240BC180020EC180020000800507E
:10247000E91A0020441A0020BE1500205C17002035
:10248000F1B584B00024002069460872AA4801F022
:10249000A1FC01000907C90F002900D0DAE372B6D8
:1024A000A64801F01BFDA649886262B6A448806A6E
:1024B000002800D1CEE3A248806A8079401E31D046
:1024C000401E022800D8A2E3001F00D1DAE0801EDF
:1024D00000D18FE3401E00D1ABE3401E00D1A7E343
:1024E000801E00D1B0E2401E00D10FE3401E00D19B
:1024F0003FE2401E3ED0401E00D159E1001F00D1F6
:1025000020E1401E00D1BDE1401E72D0401E00D12E
:1025100080E1401F00D10FE2401E08D00B3800D1EF
:102520002EE397E38648806A00F0BAFF92E384487E
:10253000806A40780007000FCE490978F8220A40E7
:102540004007400F1043CB4908700120CA497C4A1C
:10255000926A52781207120F88540020C7494875B2
:10256000C648407801210143C44841700020C44955
:1025700008706FE3BF48C079C0B2C0084007400F81
:10258000082809DBBD48407801210143BB48417060
:102590000420BB4908705DE3B648C079C7210140FB
:1025A0000830382202400A43B248C2710120DA4999
:1025B000634A926A52781207120F88546048806A00
:1025C00040780007000FAB490978F8220A4040071D
:1025D000400F1043A74908700020A8494875A74834
:1025E000407801210143A54841700020A4490870AA
:1025F00030E3CA4801F0EEFB0200C849C848104069
:1026000001F0DEFC0020C74908609A48007A4007C4
:10261000400F042809DB994840780121014397487D
:10262000417004209649087014E39248007AF8211A
:102630000140401C4007400F08438E4908720120AA
:10264000B9493F4A926A52781207120F88543C489F
:10265000806A40780007000F8649C979F8220A404D
:102660004007400F10438349C871002083494875D3
:102670008248407801210143804841700020804910
:102680000870E7E201F0DBF97A48C07A01280BD143
:10269000A648006800907748436E7648026EA449C9
:1026A000A44801F04BFB0EE07248C07A00280AD122
:1026B0009E48006800906F48436E6E48026EE14984
:1026C0009C4801F03BFB9B4801F054FB80B201F0B9
:1026D000CFF90400E4B2002C23D100209149086016
:1026E0008E4801F077FB02008C4980208005104362
:1026F00001F066FC104801F06DFB02000E49082055
:10270000104301F05DFCDB4801F064FB0200D94995
:1027100080204004104301F053FC062057494875BF
:1027200008E00D20564908705448407801210143C3
:10273000524841708EE200BF941A0020D018002049
:10274000BC18002001F07BF9CB4803884948807809
:102750004207520FC949774801F0F0FA754801F075
:1027600009FB80B201F084F90400E4B2002C0ED120
:1027700001F065F972B6C0480288C1480168C148D5
:1027800002F0DBFA002801D00F20040062B6E4B2A8
:10279000002C03D16846007A002808D037484078DA
:1027A00001210143354841700D203549087051E23F
:1027B00001F045F92F48C06E00905C4803682D4831
:1027C000026ECB495B4801F0B9FA5A4801F0D2FADF
:1027D00080B201F04DF90400E4B2002C09D0274882
:1027E000407801210143254841700D20244908709B
:1027F0000FE010202149487500204A4908604748E9
:1028000001F0E8FA0200454980208005104301F0FC
:10281000D7FB1FE201F013F91648C36E4348026864
:10282000B449444801F08AFA424801F0A3FA80B260
:1028300001F01EF90400E4B2002C09D00F484078E2
:10284000012101430D4841700D200D4908700FE032
:1028500017200A4948750020324908602F4801F0C6
:10286000B9FA02002D4980208005104301F0A8FB31
:10287000F0E100BF70150020EC1A0020441A00207F
:10288000581600202448D949896A49780907090F50
:10289000405C00283BD001F0D2F8D448806A4078F0
:1028A0000207120FD249234801F048FA214801F0EB
:1028B00061FA80B201F0DCF80400E4B2002C29D106
:1028C0000020D9490870D94801F084FA0200D7499C
:1028D0000820104301F074FBC448806A4078000768
:1028E000000FD9494979F0220A400007000F104330
:1028F000D5494871D548407810210143D3484170EB
:10290000D248007802210143D048017002E0D0484B
:1029100001F08EFB9EE100BFA81A0020961A00204D
:10292000FFFFFFDF3C160020E21A002030160020D7
:102930002C9B0008700B002001F081F8D149D2488F
:1029400001F0FCF9D04801F015FA80B201F090F8DE
:102950000400E4B2002C0BD10020B3490870B34846
:1029600001F038FA0200B1490820104301F028FBB9
:1029700070E101F064F840480388B348026FD2491F
:10298000C14801F0DBF9C04801F0F4F980B201F070
:102990006FF80400E4B2002C09D0AC484078012163
:1029A0000143AA4841700D209F49087048E000F09B
:1029B00007FD0400E4B2002C08D0A44840780121AF
:1029C0000143A24841700D20974908702A480388A6
:1029D0009D48026FBD49AC4801F0B0F9AA4801F02A
:1029E000C9F980B201F044F80400E4B2002C08D028
:1029F0009648407801210143944841700D208A494E
:102A0000087001F01CF81C4806881D4805689E4F98
:102A100032002900380001F0DDFA9B4801F0AAF9E4
:102A200080B201F025F80400E4B2002C08D08748F9
:102A3000407801210143854841700D207A49087092
:102A400008E100BF449B000800F0F9FF7E48006FDA
:102A5000002804D19E498C4801F070F91FE07A48A3
:102A6000006E002810D17848026F9A49864801F01C
:102A700065F914E0971A0020FC150020E09C00087E
:102A8000F81500205C1700209348006800906E48FD
:102A9000036F6D48026E91497B4801F04FF97A4807
:102AA00001F068F980B200F0E3FF0400E4B2002C0A
:102AB00022D15E4801F08EF902005C498020800539
:102AC000104301F07DFA594801F084F9020057499A
:102AD0008020C002104301F073FA544801F07AF9E3
:102AE0000200524980204005104301F069FA0CE0D1
:102AF000B09900085C9B00085448407801210143CC
:102B0000524841700D2048490870A3E000F097FF3B
:102B10004D48842140560021C94388421CD14A486F
:102B2000852140560021C943884215D14648006F8F
:102B3000002803D04448406F00280DD14248006F60
:102B4000002809D04048406F002805D13E48026F58
:102B5000D2494D4801F0F2F84B4801F00BF980B230
:102B600000F086FF0400E4B2002C08D0374840781B
:102B700001210143354841700D202B49087069E05F
:102B800000F05DFF5448006800902F48036F2E4806
:102B9000026ED3493C4801F0D1F83B4801F0EAF815
:102BA00080B200F065FF0400E4B2002C14D11F488D
:102BB00001F010F902001D498020C004104301F00B
:102BC000FFF91A4801F006F9020018498020C002F6
:102BD000104301F0F5F908E01C4840780121014359
:102BE0001A4841700D201049087033E0BC180020CD
:102BF000FC9E0008154840780121014313484170AC
:102C00000D200949087000201049487522E00F483E
:102C10004078012101430D484170002002490870AD
:102C200000200A49487515E058160020941A002023
:102C300010E0B64801F0CEF80200B449202010435D
:102C400001F0BEF906E000BF70150020441A002014
:102C5000749B0008AD4801F0BDF801000904C90FDC
:102C6000002913D0A94801F0B5F80200A749A848E7
:102C7000104001F0A5F9A748006880B202F09AFF61
:102C80006DE100BF0C9F0008700B00209F4801F011
:102C9000A1F801004902C90F002921D09E480078FF
:102CA000C0B2C0080100C907C90F002918D0974851
:102CB00001F090F8020095499848104001F080F921
:102CC00002F0C2FF4BE100BFF49C0008089D000821
:102CD000E49F00081C9F0008301600208898000818
:102CE0008F4801F077F80100C900C90F002928D0EA
:102CF0008B4801F06FF8020089498A48104001F0C2
:102D00005FF9022001908848008800908748036896
:102D1000874A88484078C0B2C0084007400F010089
:102D200049B20020C04303F0FCFB8026B60000251A
:102D30007F4F2A003100380001F024F800F064FAD7
:102D40000DE1774801F046F801008900C90F00291C
:102D50002BD0734801F03EF802007149BA48104088
:102D600001F02EF9022001906F48008800906F4812
:102D700003686F4A6F484078C0B2C0084007400FF0
:102D8000010049B26B48C0784007401740B203F0D9
:102D9000C8FB8026B6000025654F2A0031003800A8
:102DA00000F0F0FF00F030FAD9E05D4801F012F8D1
:102DB000C00F002817D0A5485E4989794907490FF7
:102DC000405C002806D002215A4880794007400F15
:102DD00000F0E8FD524800F0FDFF51494000400876
:102DE00001F0EEF8BBE04E4800F0F4FF01004900AE
:102DF000C90F002918D00221954803F057FC022082
:102E00004549C874464800F0E5FF0200444991482E
:102E1000104001F0D5F83D4800F0DCFF3B490822A6
:102E2000904301F0CDF89AE08B4800F0D3FF010009
:102E30008901C90F002933D0874800F0CBFF020079
:102E400085498648104001F0BBF8854800F0C2FF74
:102E500001008900C90F002903D0354803F027FC81
:102E600010E07F4800F0B6FF01004900C90F0029BB
:102E700003D02F4803F01CFC04E07A4801882C485A
:102E800003F017FC8026B6000025294F2A003100E8
:102E9000380000F077FF00F0B7F960E02C9F0008E1
:102EA0006D4800F097FF01004901C90F002919D0B2
:102EB0001F4803F0FCFB8026B60000251C4F2A00AB
:102EC0003100380000F05EFF00F09EF9624800F02B
:102ED00081FF02006049C048104001F071F83EE0F7
:102EE000CC9900085E4800F075FF01008904C90F05
:102EF000002921D003F04AFB594800F06BFF020083
:102F00005749C048104001F05BF828E0941A0020AF
:102F1000FF7FFFFF10160020441A0020FFFFBFFFB5
:102F2000951A0020FFFFFFEF061600202416002050
:102F3000700F002070150020494800F04BFF010081
:102F40004904C90F00290AD003F028FB444800F0C7
:102F500041FF02004249B048104001F031F8AF484B
:102F6000807D002800D19FE0012800D1A3E0022845
:102F700000D1A7E0032800D1ABE0042800D1AFE0E6
:102F8000052800D1B3E0062800D1BEE0072800D113
:102F9000C2E0082800D1C6E009284BD00A2863D037
:102FA0000B2867D00C286CD00D2800D1A6E00E2885
:102FB0002BD00F2800D102E1102800D1BAE011284F
:102FC00000D1C5E0122800D1C9E0132800D1CDE01E
:102FD000142800D1F3E0152800D1B2E0162800D162
:102FE000CBE0172800D1CFE0182800D1D3E0192872
:102FF00000D1D7E01A2800D1DBE01B2848D01C28DC
:103000004CD0FF2800D1DAE0D9E084484078C0B243
:1030100040084007400F02280BD180484078F1213A
:103020000140801C0E2202400A437C48427003F09B
:10303000A3FAC4E0BD480078002804D10120BB49B0
:10304000087003F09DFABAE0FFFFFFDFA81A002026
:1030500074150020FFFFFFBF961A0020FFFFFFFD41
:10306000941A00200216002003F024FBFF206B4975
:103070008875A4E0AE4803F09BFAFF206749887585
:103080009DE0AB4803F0A3FAFF206449887596E001
:1030900003F011FBFF206149887590E003F00BFB02
:1030A000FF205E4988758AE0FF205C498875112001
:1030B00003F0A0FA83E0FF2058498875142003F03C
:1030C00099FA7CE0FF2055498875132003F092FAA5
:1030D00075E0FF2051498875152003F08BFA6EE0EA
:1030E000FF204E498875162003F084FA67E0FF2020
:1030F0004A4988751B2003F07DFA60E0FF204749AC
:1031000088751C2003F076FA59E0FF204349887542
:10311000172000F00DFE52E0FF2040498875122074
:1031200000F006FE4BE0FF203C498875182000F0B7
:10313000FFFD44E0FF20394988751D2003F0BCFAEB
:103140003DE0FF20354988751E2003F0B5FA36E0D2
:10315000FF2032498875192003F0AEFA2FE0FF20D6
:103160002E4988751A2003F0A7FA28E0FF202B4982
:103170008875062003F0A0FA21E0FF202749887512
:103180001F2003F09AFA1AE0FF20244988752020B6
:1031900003F093FA13E0FF2020498875212003F003
:1031A0008CFA0CE0FF201D498875222003F085FA77
:1031B00005E0FF201949887503F080FAFFE705B0A4
:1031C000F0BD0020154988601448007804210143AF
:1031D0001248017070470000FFFFFFFB00200F49FD
:1031E00088600E480078FB2101400C4801700120E6
:1031F0000A494874704709480078F7210140074898
:1032000001707047FFDFFFFF044800780821014389
:103210000248017070470000FFBFFFFF441A002002
:1032200080B58F480078C0B280080100C907C90F77
:1032300000290AD08A480078C0B2C0080100C90736
:10324000C90F002901D000F0D3F8864800F0C2FD74
:1032500001000901C90F00290FD0834800F00EFFBB
:1032600000280AD07F4800F0B5FD7E497F4A024021
:10327000100000F0A5FEFFF7B0F87D4800F0AAFDB1
:103280000100C906C90F002913D07A48006801005F
:10329000491C784A1160784988420AD3744800F082
:1032A00099FD73491022904300F08AFE0020714975
:1032B00008606C4800F08EFD0100C900C90F0029AC
:1032C00028D06E4800680100491C6C4A1160FA2140
:1032D000C90088421ED3664800F07CFD0100090643
:1032E000C90F002909D0624800F074FD60498022AE
:1032F0000243100000F064FE0AE05D4800F06AFD41
:1033000001000906C90F002902D11B205449887504
:1033100000F01AFC01BD10B50400554800F05AFD3C
:1033200053490822904300F04BFE10BDE91A0020DB
:10333000BF15002010B504004D4800F04BFD4C496E
:103340004F4A0240100000F03BFEFFF747FF72B605
:103350004C49454800F0ACFE62B6FFF732FF4248E8
:1033600000F082FE002811D03E4800F033FD02003C
:103370003C4980200005104300F022FE01228021FC
:103380004901A020C00501F03BFB18E0384800F0DF
:1033900021FD01000905C90F002910D10122394979
:1033A000394801F00AFD002809D1314800F012FD2A
:1033B00002002F4980204001104300F001FE10BDA3
:1033C00000B5274840780100C907C90F002901D17D
:1033D00000BFF6E722484078FE21014020484170B6
:1033E0002A48007800BD10B5040000F03AFB10BD7B
:1033F00080B572B61C4800F079FE2549086062B6B7
:1034000023480068002803D021480068FCF78CFEA0
:10341000204800F0DFFC01008901C90F00291CD001
:103420001D480068401C1C4908601B480068332880
:1034300013D3002018490860164800F0CBFC15494A
:10344000164A0240100000F0BBFD094800F0C2FC23
:1034500007490822904300F0B3FD01BD00000000C1
:10346000441A0020961A0020BC180020FFFFFFF726
:10347000941A0020381600206C0700003416002033
:10348000FFEFFFFFBE1500205C170020581600203C
:10349000F0150020951A00201C160020FFFFFFFDEC
:1034A00010B50400207801285ED0042869D00528D2
:1034B0006BD008286DD009286FD00A2871D00B284E
:1034C00073D00C2875D00F2877D0142879D01628FF
:1034D0007BD017287DD0182800D17EE01A2800D193
:1034E0007FE01B2800D180E01F2800D181E0202848
:1034F00000D182E0232800D1B7E0242800D1BEE02B
:10350000262800D1BFE0282800D1C6E0292800D114
:10351000D0E02A2800D1DAE02B2800D1DBE02C28EB
:1035200000D1DCE0372800D1DDE03A2800D11FE1EE
:103530003D2800D18EE13E2800D1A6E13F2800D1F0
:10354000BAE1402800D12AE1422800D1E5E1432830
:1035500000D1B5E1442800D1BDE1452800D1C7E143
:10356000462800D1CEE1E2E1FF20D0498875002055
:10357000CF490870CF48007AE7210140CD48017259
:10358000D5E10720C9498875D1E10020C749887570
:10359000CDE10120C5498875C9E10220C34988757C
:1035A000C5E10320C1498875C1E10420BF49887580
:1035B000BDE10620BD498875B9E10820BB49887581
:1035C000B5E11120B9498875B1E11220B749887574
:1035D000ADE11320B5498875A9E10920B349887583
:1035E000A5E10A20B1498875A1E10520AF49887598
:1035F0009DE10D20AD49887599E1AC484078C0B295
:1036000040084007400F022809DAA8484078F12115
:103610000140801C0E2202400A43A4484270A34885
:10362000007810210143A14801700E209F49887540
:10363000BF4800F0CFFB01008906C90F002913D055
:10364000BB4800F0C7FBBA492022904300F0B8FC09
:10365000B74800F0BFFB0200B549B648104000F083
:10366000AFFC1C209149887561E1B14800F0B2FBC4
:103670000200AF49B048104000F0A2FC57E116200C
:103680008A49887553E189480078EF2101408748CD
:1036900001700F208549887549E100208449087030
:1036A0008448007AE72101408248017210207F4956
:1036B00088753CE100207E4908707E48007AE72149
:1036C00001407C4801721520784988752FE1172048
:1036D000764988752BE118207449887527E11920EF
:1036E0007249887523E1924800F074FB0100890259
:1036F000C90F002911D08E4800F06CFB02008C49E4
:103700008E48104000F05CFC894800F063FB02002A
:1037100087498B48104000F053FC60780007000F89
:1037200064490978C7220A40C0003821014011438A
:103730006048017083485F490978C9B2C9084907E0
:10374000490F405C002812D0794800F043FB02008A
:1037500077498020C003104300F032FC744800F029
:1037600039FB020072490820104300F029FCDEE01A
:1037700060780007000F4F498979F8220A40400716
:10378000400F10434B4988716F4800F023FB020043
:103790006D4980200006104300F012FCC7E0A088AD
:1037A0006A490860624800F015FB02006049802009
:1037B0000003104300F004FC5D4800F00BFB020026
:1037C0005B490820104300F0FBFB38480078C0B28A
:1037D00040090100C907C90F00291FD1A07801289D
:1037E0000AD1534800F0F6FA51490122904300F003
:1037F000E7FB00F0CBF92CE04D4800F0EBFA0200BB
:103800004B495348104000F0DBFB494800F0E2FA16
:1038100047490822904300F0D3FB1AE0444800F0E7
:10382000D9FA020042498020C002104300F0C8FBD0
:103830000520484908803E4800F0CCFA02003C4987
:1038400080208003104300F0BBFB404800684249E1
:1038500008606CE041486178C9B20909C9B2082220
:103860005143401861780907090F0122425430483A
:1038700000F0B0FA02002E4980208001104300F0D1
:103880009FFB01203649087051E0294800F0A2FA58
:10389000020027498020C001104300F091FB002066
:1038A0003049087000202E49087040E0441A00207A
:1038B000E91A0020701500201A202B49887536E07F
:1038C0001B4800F087FA020019498020400010438D
:1038D00000F076FB2BE0164800F07CFA0200144959
:1038E0001448104000F06CFB1C201F4988751EE036
:1038F0000F4800F06FFA02000D498020104300F0DD
:103900005FFB14E00A4800F065FA09498022904301
:1039100000F056FB00F009F909E0054800F05AFAFA
:10392000020003494020104300F04AFBFFE710BDAE
:10393000941A0020FFFEFFFFFFFDFFFFFFFFDFFFE8
:10394000FFFFFBFFA81A0020951A00201816002080
:10395000FFFFF7FF0A16002014160020841A00202B
:10396000EA1A0020EB1A0020441A002038B505009E
:103970000C0000F047F8214805601F48C466172076
:103980001C49087072B6064803C80A0001001C48AA
:1039900000F04FFA62B6024800F0FAFA31BD0000BA
:1039A000DC18002038B505000C0000F02BF8E4B25C
:1039B000022C03D115200F49087005E0E4B2012C58
:1039C00002D123200B49087022480078F0210140E1
:1039D0002807000F08431F49087072B6624803C8E1
:1039E0000A000100064800F024FA62B65E4800F0C2
:1039F000CFFA31BDE21800207015002030160020EB
:103A0000D018002000B5694800780100C907C90F27
:103A1000002911D165480078C0B240080100C907EB
:103A2000C90F00290AD061484078C0B200090100DE
:103A3000C907C90F002901D100BFE4E700BD70B577
:103A40008024E40000255A4E2A002100300000F0B6
:103A500099F970BDDD18002080B5002002F030FE1D
:103A600001BD80B5002002F02BFEFEF7B6FC01BDC3
:103A700010B504004D480078C0B200090100C90724
:103A8000C90F00290AD149480078C0B28009010055
:103A9000C907C90F002901D1052045E0954800F06C
:103AA00099F90100C905C90F002907D1914800F013
:103AB00091F901000906C90F002901D0102033E057
:103AC0008C4800F087F902008A49802000011043E9
:103AD00000F076FAA4B2002C04D1784800F0A8FADD
:103AE0001F2021E0FA239B00220092B23049744843
:103AF00001F015F8002803D0FFF7B3FF0F2013E003
:103B00007C4800F067F902007A497B48104000F0D9
:103B100057FA784800F05EF90100C904C90F00297E
:103B200001D1FEF75AFC002010BD00B5734800F02B
:103B300051F97249802252050243100000F040FA08
:103B400000207249086000BD00B56C4800F042F9E1
:103B50006A496B4A0240100000F032FA00206B49BB
:103B6000086000BD00000000DC18002010B5002433
:103B7000FFF765FF6349664800F0E0F8644800F02D
:103B8000F9F880B2FFF774FF040010BD10B50024EF
:103B9000FFF755FF5C495E4800F0D0F85C4800F044
:103BA000E9F880B2FFF764FF040010BD441A00205A
:103BB000700B002070B506000D000024FFF73FFFDA
:103BC0002B0032005349544800F0B8F8524800F036
:103BD000D1F880B2FFF74CFF0400E4B2002C02D110
:103BE000FFF7EEFB04002000C0B270BD70B5060008
:103BF0000D000024FFF723FF2B0032004749464801
:103C000000F09CF8444800F0B5F880B2FFF730FFB0
:103C10000400E4B2002C02D1FFF7D2FB0400200024
:103C2000C0B270BD38B505000024FFF708FF2A00B8
:103C30003B49394800F082F8374800F09BF880B2E1
:103C4000FFF716FF0400E4B2002C02D1FFF7B8FB27
:103C500004002000C0B232BD38B505000024FFF7D3
:103C6000EEFE2A002F492C4800F068F82A4800F0A0
:103C700081F880B2FFF7FCFE0400E4B2002C02D110
:103C8000FFF79EFB04002000C0B232BD10B5002437
:103C9000FFF7D5FE2449204800F050F81E4800F0F8
:103CA00069F880B2FFF7E4FE0400E4B2002C02D110
:103CB000FFF786FB04002000C0B210BDC8980008C2
:103CC0005C17002010B50024FFF7B9FE1749124811
:103CD00000F034F8104800F04DF880B2FFF7C8FE4D
:103CE0000400E4B2002C02D1FFF76AFB04002000BC
:103CF000C0B210BD941A0020FFF7FFFF961A0020F3
:103D0000FFFFFFEF68A0000870A000083416002035
:103D1000700B0020309D0008700B0020449D0008AF
:103D20001C9D0008A898000878A0000880A0000842
:103D300070470268531C0360117070470CB41CB5C7
:103D4000040004A80190009401AB0A0069460848E9
:103D500078441C3002F0C8FC0021009A1170002841
:103D600001D40098001B02B0019910BC03B00847B1
:103D7000C3FFFFFF010000E0491C0A78002AFBD1C5
:103D8000081A70471206130A1A43130C1A4300BF8D
:103D9000094205D0830705D00270401C491EF9D1A5
:103DA00070470000130030B414001500103902D31E
:103DB00010393CC0FCD2490700D30CC000D504C068
:103DC000890002D30280801C002900D5027030BC1B
:103DD00070470000C3788278417800781B021A434C
:103DE00009021204084310437047200010B408234E
:103DF0001A0013000C006343838000230380002318
:103E0000C38000234380604B836010BC704700B5C3
:103E10008188C088C908884201D1012000E00020C3
:103E200000BD00B5C088002801D1012000E00020BD
:103E300000BD76B504002000FFF7E9FF00284CD153
:103E40006088C0080500A0680821694340186946D9
:103E500089888180A068082169434018694689786B
:103E60008170A068082169434018A16808226A434C
:103E700089184A78F02111406A4652781207120FC9
:103E80000A434270A068082169434018A1680822CB
:103E90006A43891849780907090F6A465278F0235E
:103EA00013400B43437068460078A16808226A43B8
:103EB0008854A0680821694340186946897981714E
:103EC000E088401CE080608808306080A0880600A0
:103ED0006088310003F03EF8618073BD70B5040066
:103EE0002000FFF79EFF002801D000204AE0208834
:103EF000C0080500A068082169434018808823494C
:103F00008880A06808216943401840780007000FA6
:103F10001E494978F0220A400007000F10431B4950
:103F20004870A0680821694340184078C0B2000971
:103F3000164949780907090F0001084313494870D9
:103F4000A068082169434018807810498870A068EB
:103F500008216943405C0D490870A0680821694345
:103F60004018807909498871208808302080E088CD
:103F7000401EE080A08806002088310002F0EAFFA1
:103F80002180024870BD0000CC170020A01A00203C
:103F900000218180002181714178F0220A400921AD
:103FA000114341700921817063210170704738B558
:103FB00005000C002100280003F026F832BDFEE7C2
:103FC00084460870000A4870000A8870000AC870A9
:103FD00060467047124207D08B0706D00B78491C09
:103FE0000370401C521EF7D87047830706D00B7829
:103FF000491C0370401C521EF9D1704770B4103A2E
:1040000003D378C9103A78C0FBD2530701D318C93B
:1040100018C001D508C908C0D20704D30B88038093
:10402000891C801C002A01D50B78037070BC704776
:104030000EB400B582B003A900916B4602000121C5
:10404000034878440A3002F04FFB029906B0084753
:10405000B55B00008160002202600022C260002285
:104060004260894A0261704700B5C068CE2189006C
:10407000884201DB012000E0002000BD00B5C068DF
:10408000C92801DA012000E0002000BD00B5C068A9
:104090008021C900884201D1012000E0002000BD3C
:1040A00000B5C068002801D1012000E0002000BD5B
:1040B000F8B504000D002000FFF7E8FF002814D138
:1040C000E068401CE06060680100491C61600126F6
:1040D00021690F18320029003800FFF77BFF606864
:1040E0008021C90002F036FF6160F1BDF0B585B0F6
:1040F0000400664800902000FFF7D2FF002801D09E
:104100000020BEE08025AD000026604F320029006F
:104110003800FFF737FE5E48FFF75CFE01004903F9
:10412000C90F002900D192E06768E068C82834DA36
:10413000E06858490880206887420CDB20685549B0
:104140000988019121690D18009E019A290030000B
:10415000FFF740FF1CE0256820688021C900491B4B
:104160000191216908180290009E019A029930007D
:10417000FFF730FF206821690391009942428818B7
:104180008021C90046183A0003993000FFF722FF4A
:10419000606820600020E06072E02068874211DBE8
:1041A0002068C825216908180190009E2A000199FD
:1041B0003000FFF70FFF2068C83020602068381AF1
:1041C000E06040E02068C8308021C900884214DAED
:1041D0002068C825216908180190009E2A000199CD
:1041E0003000FFF7F7FE2068C83020608020C00054
:1041F0002168401AC019E06025E025682068802108
:10420000C900491B0191216908180390009E019A79
:1042100003993000FFF7DEFE20681F49491902911B
:10422000216904910099424288188021C9004618EA
:10423000029A04993000FFF7CDFE1748401920601C
:104240002068381AE060C8201249088018E0206809
:10425000012521690E18009F2A0031003800FFF760
:10426000B9FE2068401C2060E068401EE06001202C
:104270000849088020688021C90002F06BFE216097
:10428000009805B0F0BD00007007002070110020FC
:10429000941A002008160020C8FCFFFF10B54268E1
:1042A00003685B1A002B10D403685B1A0360036871
:1042B000934203DA0368D31AC36012E08023DB0061
:1042C00004681B1B9B18C3600BE003688024E40098
:1042D000641A1B1903608023DB0004681B1B9B18F6
:1042E000C36010BD0121C206D20E9140414A116047
:1042F00070470121C206D20E91403F4A11607047BB
:10430000F0B540B2002821D53C4C40B20207120F54
:10431000083A950804225543384A40B203071B0F58
:10432000083B9B0804267343D258FF238607B60F29
:1043300008277E43B3409A438B01DBB28607B60F52
:1043400008277E43B340134363511AE02C4A40B21E
:10435000830804246343D258FF238407A40F08254D
:104360006C43A3409A438B01DBB28407A40F08255A
:104370006C43A3401343224A40B2840804256C4393
:104380001351F0BD10B50400601E8021490488421D
:1043900001D301200EE0601E1A49086003210020AD
:1043A000C043FFF7ADFF00201749086007201749F9
:1043B0000860002010BD70B504000D001600290033
:1043C000200040B2FFF79CFF70BD10B50400200034
:1043D00040B2FFF787FF10BD10B50400200040B2C7
:1043E000FFF787FF10BD10B504002000FFF7CAFFDC
:1043F00010BD000000E100E080E100E01CED00E005
:1044000000E400E014E000E018E000E010E000E06C
:104410007047FEE770B502F013FE040020888004A8
:104420002DD565680026F64308E04A1B290002F0F6
:104430004FFEB0420DD000280BD02D18032020567F
:10444000E1688D42F1D30022002102F041FEB0422A
:104450000DD16068E0606061E062208880218900A1
:1044600001432180200002F0ECFD300070BD656842
:10447000E5606561E56220881149014021802000E6
:1044800002F0DFFD002070BDF8B5002815D1C04650
:10449000C04600240B4D08260027FF43286800284B
:1044A00004D0FFF7B7FF002800D53C002D1D761E75
:1044B000F4D1C046C0462000F2BDFFF7ABFFF2BD0D
:1044C000FFDF0000D400002010B50400002C01D153
:1044D000012014E03520205C002805D10020342183
:1044E0006054200002F089FE022035216054211D15
:1044F000206800F0B7F8012035216054002010BD7D
:1045000001000868C068012202430868C2600868A8
:10451000006801220243086802600020704710B55D
:1045200004002068006980071BD52068C0688007E8
:1045300017D50220C043216808610120207520683A
:1045400080698007800F002803D0200002F086FEDB
:1045500005E0200002F083FE200002F081FE002032
:1045600020752068006940071CD52068C068400796
:1045700018D50420C04321680861022020752068F6
:104580008069C02189000140002903D0200002F089
:1045900065FE05E0200002F062FE200002F060FEF1
:1045A000002020752068006900071BD52068C068BE
:1045B000000717D50820C043216808610420207532
:1045C0002068C0698007800F002803D0200002F017
:1045D00045FE05E0200002F042FE200002F040FE11
:1045E0000020207520680069C0061CD52068C068BE
:1045F000C00618D51020C043216808610820207526
:104600002068C069C02189000140002903D0200032
:1046100002F024FE05E0200002F021FE200002F05E
:104620001FFE0020207520680069C0070AD5206899
:10463000C068C00706D50120C0432168086120007A
:1046400002F037FE2068006940060AD52068C0687D
:10465000400606D54020C04321680861200002F0D2
:104660004FFE10BD00B5002203681A008023DB0551
:10467000984205D0174B984202D0174B984201D16F
:10468000012300E00023DBB2002B04D070239A4307
:1046900013004A681A438023DB05984205D00D4B6E
:1046A000984202D00C4B984201D1012300E0002334
:1046B000DBB2002B05D01300084A1A401300CA6869
:1046C0001A4302608B68C3620B68836201234361F3
:1046D00000BD00000008014000140140FFFCFFFF86
:1046E000F0B502000023002400250868D840002807
:1046F00000D1DDE0086801269E4006403400002C11
:1047000000D1D3E04868022802D0486812281BD1A3
:10471000D808042670431018006A05000F201E00F8
:104720007607760F04277E43B040854308691E0054
:104730007607760F04277E43B04028430500D8084B
:1047400004267043101805624868012808D048689C
:10475000022805D04868112802D0486812281CD1C8
:104760009068050003201E0002277E43B040854369
:10477000C8681E0002277E43B040284305009560AC
:104780005068050001209840854348680600F606F9
:10479000F60F9E402E43350055601068050003203B
:1047A0001E0002277E43B040854308798007800FB2
:1047B0001E0002277E43B040284305001560D068E4
:1047C000050003201E0002277E43B0408543886811
:1047D0001E0002277E43B04028430500D56048688C
:1047E000C00063D58B4800680126064389480660EF
:1047F00089489E0804277E43805905000F201E002B
:10480000B607B60F04277E43B0408543A020C005FD
:10481000824201D1002014E08048824201D101206F
:104820000FE07F48824201D102200AE07D488242A7
:1048300001D1032005E07C48824201D1052000E03F
:1048400006201E00B607B60F04277E43B04028435B
:10485000050071489E0804277E438551734800680F
:104860000500A5434868C00300D525436F4805608F
:104870006F4800680500A5434868800300D52543BC
:104880006B4805606B4800680500A5434868C00296
:1048900000D5254367480560674800680500A543C3
:1048A0004868800200D52543634805605B1C1CE70F
:1048B000F0BDF8B50022002300240D00D540002DE6
:1048C00000D19CE0012595400D402B00002B00D12C
:1048D00093E006680327BC46150002277D43674620
:1048E000AF40BE430660D5080426754345190095C0
:1048F000D5080426754345192F6A0F25AC461500C7
:104900006E07760F04256E436546B540AF43009DA4
:104910002F6286680327BC46150002277D43674641
:10492000AF40BE438660456801269640B54345606A
:10493000C6680327BC46150002277D436746AF4083
:10494000BE43C660344D960804277E43AD592C0003
:104950000F251600B607B60F04277E43B540254045
:104960002C00A025ED05A84201D1002514E02B4D17
:10497000A84201D101250FE0294DA84201D102250D
:104980000AE0284DA84201D1032505E0264DA842A2
:1049900001D1052500E006251600B607B60F04274D
:1049A0007E43B540AC4228D10F251600B607B60F9E
:1049B00004277E43B5402C00174D960804277E43FC
:1049C000AE59A643144FBC46950804277D4367465D
:1049D0007E51164D2D689D43144E3560144D2D6843
:1049E0009D43134E3560134D2D689D43114E356028
:1049F000114D2D689D43104E3560521C5DE7F1BD91
:104A000000B5D2B2002A02D089B2816101E089B238
:104A1000816200BD341002400800014000040050D3
:104A200000080050000C0050001C00500004014021
:104A300004040140080401400C04014011B581B098
:104A4000002402F05FFC040002F05CFC001B0199F2
:104A50008842F9D313BDFEE710B50400002C01D144
:104A6000012033E0A0690028FFD16920205C0028E4
:104A700005D1002068216054200002F03FFB022095
:104A8000692160542068006801218843216808601A
:104A9000200000F03DFB606A002802D0200000F0FA
:104AA00007FD206840680A4901402068416020688D
:104AB00080682A2188432168886020680068012175
:104AC000014320680160200000F0C0FC10BD000020
:104AD000FFB7FFFF10B50400002C01D101201DE03D
:104AE0000220692160542068006801218843216800
:104AF00008600020216808600020216848600020CC
:104B000021688860200002F056FB0020E06600204B
:104B100069216054002068216054002010BDF8B560
:104B200005000C0016001F006920285C012803D036
:104B30006920285C222863D1002C02D0B6B2002E56
:104B400001D101205DE06820285C012801D102200C
:104B500057E00120682168540020E8666920285C3D
:104B6000222803D132206921685402E012206921F1
:104B7000685450202E5252202E525220285A00287B
:104B800024D05220285A401E522168523B00002255
:104B90008021280000F004FD002801D0032030E02F
:104BA000A8688021490188420BD12869002808D1D2
:104BB000009400980088C005C00D29688862A41C74
:104BC000DBE7207829688862641CD6E73B00002276
:104BD0004021280000F0E4FC002801D0032010E070
:104BE0006920285C322803D122206921685402E020
:104BF000012069216854002068216854002000E0E9
:104C00000220F2BDF8B582B004000D001600692044
:104C1000205C012804D06920205C122800D08AE0A2
:104C2000002D02D0B6B2002E01D1012084E0682010
:104C3000205C012801D102207EE00120682160541F
:104C40000020E0666920205C122803D1322069210F
:104C5000605402E0222069216054582026525A20D4
:104C60002652A0688021490188420AD12069002883
:104C700003D18B485C21605220E0FF205C21605210
:104C80001CE0A06800280AD12069002803D1FF2079
:104C90005C21605212E07F205C2160520EE0A0682F
:104CA00080214905884209D12069002803D17F204D
:104CB0005C21605202E03F205C2160525C20205A5F
:104CC00007005A20205A002825D05A20205A401E7A
:104CD0005A216052029B00222021200000F060FC3B
:104CE000002801D0032027E0A068802149018842E4
:104CF0000AD12069002807D100952068406A384011
:104D000000990880AD1CDCE72068406A390001404A
:104D100029706D1CD5E76920205C322803D1122050
:104D20006921605402E0012069216054002068215B
:104D30006054002000E00220FEBD10B50300692091
:104D4000185C012803D06920185C222833D100297F
:104D500002D092B2002A01D101202DE06820185C17
:104D6000012801D1022027E0012068241855D964C8
:104D700050201A5252201A520020D8666920185C1E
:104D8000222803D132206924185502E01220692418
:104D9000185518680068802464000443186804608B
:104DA0000020682418551868006880240443186897
:104DB0000460002000E0022010BD10B5030069204F
:104DC000185C012803D06920185C122866D10029DC
:104DD00002D092B2002A01D1012060E06820185C64
:104DE000012801D102205AE0012068241855596594
:104DF00058201A525A201A52986880246401A042FE
:104E00000AD11869002803D125485C24185320E0F2
:104E1000FF205C2418531CE0986800280AD1186908
:104E2000002803D1FF205C24185312E07F205C246B
:104E300018530EE0986880246405A04209D11869CF
:104E4000002803D17F205C24185302E03F205C241B
:104E500018530020D8666920185C122803D132202C
:104E60006924185502E02220692418551868006842
:104E70008024640004431868046018688068012472
:104E80000443186884600020682418551868006876
:104E90002024044318680460002000E0022010BDB4
:104EA000FF01000010B504002068C069C0070DD5DF
:104EB00020680068C00509D5012021680862E06EFD
:104EC00001210143E1660120692160542068C06925
:104ED00080070DD520688068C00709D502202168A9
:104EE0000862E06E04210143E166012069216054FB
:104EF0002068C06940070DD520688068C00709D5C3
:104F0000042021680862E06E02210143E16601206D
:104F1000692160542068C06900070DD52068806849
:104F2000C00709D5082021680862E06E0821014306
:104F3000E166012069216054E06E002802D0200063
:104F400002F0C3F92068C069C0020DD520688068EE
:104F5000400209D5802040032168086201206921B0
:104F60006054200002F0D4F92068C069800606D59C
:104F700020680068800602D5200000F06DF82068E7
:104F8000C069000606D520680068000602D520002A
:104F900000F00CF82068C069400606D5206800685B
:104FA000400602D5200000F03FF810BD00B501001A
:104FB0006920085C122803D06920085C322831D1AE
:104FC0005220085A00280DD10868006880239843B1
:104FD0000B68186008680068402303430868036092
:104FE000002020E0886880235B0198420DD1086989
:104FF00000280AD1C86C02001088C005C00D0B68DB
:105000009862C86C801CC86405E0C86C431CCB6403
:1050100000780B6898625220085A401E5223C852EA
:10502000002000E0022000BD10B5040020680068E8
:1050300040218843216808606920205C322803D120
:1050400022206921605402E001206921605420007F
:1050500002F035F9002010BD70B504005C20265A1E
:105060006920205C222803D06920205C32284AD1A4
:10507000A0688021490188420CD12069002809D10B
:10508000606D05002068406A30402880606D801C9B
:10509000606507E0606D411C61652168496A320006
:1050A0000A4002705A20205A401E5A2160525A204B
:1050B000205A002825D12068C0698006FBD42068CA
:1050C000006820218843216808606920205C32281C
:1050D00003D11220692160540EE0206800680B495A
:1050E00001402068016020688068012188432168B0
:1050F0008860012069216054200002F0D4F800206B
:1051000002E0002000E0022070BD0000FFFEFFFF73
:10511000FEB504000020029000250026002720682C
:10512000B7498842FFD0A0682169014360690843FC
:10513000E1690143029120680068B2490140029888
:1051400008432168086020684068AF490140E06872
:10515000084321684860A06902902068A8498842F5
:1051600003D00298216A0143029120688068B34904
:10517000014002980843216888602068B04988424D
:1051800018D1B04800688007800F002805D0022899
:1051900006D008D3032809D00BE0012005004BE01E
:1051A0000220050048E00420050045E00820050035
:1051B00042E041E02068A449884219D1A148006832
:1051C0000C210140002906D004290AD0082905D065
:1051D0000C2909D00BE0002005002DE0022005007D
:1051E0002AE00420050027E00820050024E023E051
:1051F0002068834988421FD192480068C021090174
:10520000014000290CD08020C00081420ED08020B7
:105210000001814207D0C0200001814209D00BE08B
:105220000020050008E00220050005E0042005003C
:1052300002E008200500FFE720687149884268D134
:105240002800002806D002281CD004283AD00828BC
:1052500050D05DE002F081FC02F0B0FC0022904BE7
:1052600002F0BCFC00900191606802F0A7FC020013
:105270000B000098019902F073FD02F0D3FD216844
:10528000C860DAE087480068C0060DD5606802F0A3
:1052900095FC02000B000020834902F061FD02F042
:1052A000C1FD2168C8600CE0606802F087FC020064
:1052B0000B0000207D4902F053FD02F0B3FD216890
:1052C000C860BAE002F0CCFB02F078FC0022744B1C
:1052D00002F084FC00900191606802F06FFC020013
:1052E0000B000098019902F03BFD02F09BFD216844
:1052F000C860A2E0606802F061FC02000B000020C0
:10530000A34902F02DFD02F08DFD2168C86094E0F4
:1053100093E0E0698021090288424AD128000028F0
:1053200008D001280FD0022816D0042824D008283D
:105330002BD031E002F011FC02214843616801F0FA
:105340000CFE070028E002F017FC022148436168C8
:1053500001F003FE07001FE052480068C00605D5B3
:105360008C48616801F0F9FD070004E08A48616833
:1053700001F0F3FD07000FE002F072FB0221484349
:10538000616801F0EAFD070006E0802040026168E4
:1053900001F0E3FD0700FFE78048384006003807CA
:1053A000000FC0B24008C0B20643B6B22068C66063
:1053B00043E02800002808D001280ED0022814D08D
:1053C00004282AD0082830D037E002F0C6FB6168F4
:1053D00001F0C3FD2168C8602FE002F0CDFB6168D9
:1053E00001F0BBFD2168C86027E02E480068C006B8
:1053F0000CD5A248616801F0B0FD2168C8600BE0DF
:1054000000480040F369FFEFFFCFFFFF9C48616851
:1054100001F0A3FD2168C8600FE002F021FB616884
:1054200001F09BFD2168C86007E0802000026168F0
:1054300001F093FD2168C860FFE7F7BDFFF4FFFFAF
:10544000003801404C1002400044004010B50400F8
:105450002068006800070AD58A4B00228021890352
:10546000200000F09DF8002801D0032017E02068FC
:10547000006840070AD5834B00228021C903200021
:1054800000F08EF8002801D0032008E000206821F9
:1054900060540020E066012069216054002010BDA6
:1054A00000007040001002408084CE418084EE41B4
:1054B00000B52421415CC90707D501684968724AD3
:1054C0000A40816A1143026851602421415C8907C6
:1054D00007D5016849686D4A0A40C16A11430268EC
:1054E00051602421415C490707D501684968684A31
:1054F0000A40016B1143026851602421415C090795
:1055000007D501684968634A0A40416B1143026844
:1055100051602421415CC90607D5016889685E4A4B
:105520000A40816B1143026891602421415C890625
:1055300007D501688968594A0A40C16B114302685E
:1055400091602421415C490614D501684968544A98
:105550000A40016C114302685160016C80225203C1
:10556000914207D1016849684E4A0A40416C114393
:10557000026851602421415C090607D50168496829
:10558000494A0A40816C11430268516000BD000025
:105590000000604100127A000048E801F0FF0000BE
:1055A000F4B504000F001D00002601F0ABFE06005C
:1055B0006846007800282FD12068C0693840B8427A
:1055C0005AD00020C0438542F6D0002D04D001F00F
:1055D00099FE801B8542EFD22068006880218843B5
:1055E00021680860206800682021884321680860DD
:1055F000206800682D4901402068016020688068AB
:1056000001218843216888600120692160540020BD
:1056100068216054032030E02068C0693840B842F7
:105620002AD10020C0438542F6D0002D04D001F0DD
:1056300069FE801B8542EFD2206800688021884384
:10564000216808602068006820218843216808607C
:105650002068006815490140206801602068806862
:10566000012188432168886001206921605400205D
:1056700068216054032000E00020F2BD00093D00D5
:105680000024F400F0550000FFFFFDFFFFFFFEFFC8
:10569000FFFFFBFFFF7FFFFFFFEFFFFFFFDFFFFFCE
:1056A000FFFFEFFFFFFF9FFFFFFFF7FFFFFEFFFF83
:1056B00038B505000024B048FEF7BAFCAF48FEF745
:1056C000B7FCAF48FEF7B4FCAE48FEF7B1FCFCF700
:1056D00045FD012000F03AFCFCF730FEFEF7D6FA5B
:1056E0000400E4B2002C02D02000C0B23DE201214F
:1056F000A548FEF77BFA0400E4B2002C02D020009B
:10570000C0B232E2286B00280AD0296BAD48FEF700
:105710006DFA0400E4B2002C02D02000C0B224E2F2
:105720000021A948FEF762FA0400E4B2002C02D07E
:105730002000C0B219E22878002802D0012817D032
:105740002DE00021AF48FEF751FA0400E4B2002C2E
:1057500002D02000C0B208E2AB49AC48FEF72AFAFA
:105760000400E4B2002C02D02000C0B2FDE116E03B
:105770000121A448FEF73AFA0400E4B2002C02D05A
:105780002000C0B2F1E1B249A048FEF713FA0400CC
:10579000E4B2002C02D02000C0B2E6E1FFE7687856
:1057A000002803D0022866D022D3A7E00021A94810
:1057B000FEF71CFA0400E4B2002C02D02000C0B2B4
:1057C000D3E10021B348FEF711FA0400E4B2002C43
:1057D00002D02000C0B2C8E10021AF48FEF706FAAF
:1057E0000400E4B2002C02D02000C0B2BDE185E08C
:1057F00001219848FEF7FAF90400E4B2002C02D027
:105800002000C0B2B1E10B21A448FEF7EFF904007B
:10581000E4B2002C02D02000C0B2A6E10021A048D2
:10582000FEF7E4F90400E4B2002C02D02000C0B27C
:105830009BE100219B48FEF7D9F90400E4B2002C5B
:1058400002D02000C0B290E100219248FEF7CEF9CC
:105850000400E4B2002C02D02000C0B285E1002197
:105860008D48FEF7C3F90400E4B2002C02D02000FA
:10587000C0B27AE142E001217648FEF7B7F90400B0
:10588000E4B2002C02D02000C0B26EE10C218348AB
:10589000FEF7ACF90400E4B2002C02D02000C0B244
:1058A00063E10A217E48FEF7A1F90400E4B2002C6E
:1058B00002D02000C0B258E101217A48FEF796F9E3
:1058C0000400E4B2002C02D02000C0B24DE101215E
:1058D0007048FEF78BF90400E4B2002C02D02000DF
:1058E000C0B242E100216C48FEF780F90400E4B246
:1058F000002C02D02000C0B237E1FFE7A8780028D2
:1059000003280DD8A978062041439848FEF76EF980
:105910000400E4B2002C02D02000C0B225E1FFE771
:10592000E878002802280BD8E9789148FEF75EF95C
:105930000400E4B2002C02D02000C0B215E1FFE761
:10594000686800280AD069688A48FEF733F90400BD
:10595000E4B2002C02D02000C0B206E1A868002802
:1059600014D0A9688448FEF725F90400E4B2002C9D
:105970000CD02000C0B2F8E0E49A0008409900087A
:10598000689800087C9C0008EC9D0008E8680028E6
:105990000AD0E9687948FEF70DF90400E4B2002C5A
:1059A00002D02000C0B2E0E0286900280ED02969AA
:1059B0007348FEF7FFF80400E4B2002C06D0200084
:1059C000C0B2D2E0FC9D0008909F000868690028E2
:1059D0000AD069696B48FEF7EDF80400E4B2002CC8
:1059E00002D02000C0B2C0E0E869002810D0E96908
:1059F0006548FEF7DFF80400E4B2002C08D0200070
:105A0000C0B2B2E00C9E00089C9F0008909C000869
:105A1000286A00280AD0296A5C48FEF7CBF80400FF
:105A2000E4B2002C02D02000C0B29EE0686A0028D8
:105A300012D0696AFA20800041435548FEF7D6F833
:105A40000400E4B2002C07D02000C0B28DE000BFFB
:105A5000A89F00081C9E0008A86A00280AD0A96A0E
:105A60004C48FEF7C3F80400E4B2002C02D020003A
:105A7000C0B27AE02C20285C002815D02C20295CAC
:105A80004548FEF7B3F80400E4B2002C0CD0200027
:105A9000C0B26AE02C9E00083C9E0008FC9A0008F8
:105AA000A49C0008149B0008FDF7C9FF2A7E3B490F
:105AB0003B48FEF743F93A48FEF75CF980B2FDF740
:105AC000D7FF0400E4B2002C08D1FDF779FC0400F4
:105AD000E4B2002C02D02000C0B246E0FDF7AFFFD8
