:020000040800F2
:1000000060050020A13B0008210E0008230E000817
:100010002D0E0008370E0008410E000800000000F9
:100020000000000000000000000000004B0E00086F
:10003000550E0008000000005F0E0008750E000855
:10004000E13B0008E53B0008E93B0008ED3B000808
:10005000F13B0008F53B0008F93B0008FD3B0008B8
:10006000013C0008053C0008093C00080D3C000864
:10007000113C0008153C0008193C00081D3C000814
:10008000A50E0008213C0008253C000800000000E7
:10009000000000000000000000000000293C0008F3
:1000A0002D3C0008313C0008353C0008393C000874
:1000B0006B0E0008610E00083D3C0008413C000842
:1000C000453C0008493C00084D3C0008513C0008F4
:1000D000553C00088F0E0008990E00080000000033
:1000E000593C00085D3C0008613C0008000000002D
:1000F000000000000000000000000000653C000857
:1001000000000000693C00086D3C0008713C0008DC
:1001100000000000000000000000000000000000DF
:10012000753C0008793C0008BD0E00087D3C0008C5
:10013000813C0008000000000000000000000000FA
:10014000000000000000000000000000853C0008E6
:10015000893C00088D3C0008913C0008953C000853
:10016000993C00089D3C00080000000000000000D1
:10017000000000000000000000000000000000007F
:1001800000000000A13C000800000000000000008A
:10019000A53C000810B50400002C01D1012033E07B
:1001A000A0690028FFD194F83900002805D100206B
:1001B00084F83800200000F085FC242084F8390001
:1001C0002068C06830F400502168C860200000F04A
:1001D000EAFA2068006930F49040216808612068DC
:1001E000406930F02A00216848612068C06850F4F6
:1001F00000502168C8600020E063202084F83900A6
:10020000202084F83A00002010BD10B50400002C16
:1002100001D1012011E0242084F83900200000F0F1
:10022000BCFC0020E063002084F83900002084F842
:100230003A00002084F83800002010BD2DE9F84372
:1002400004000D0016001F005FF0000994F839004B
:1002500020285FD1002D02D0B6B2002E01D101209E
:1002600059E094F83800012801D1022053E0012020
:1002700084F838000020E063212084F8390000F081
:10028000B5FC8146A684E684E08C00282FD0E08C63
:10029000401EE084A068B0F5805F18D100974B46FF
:1002A00000228021200000F092F9002801D00320D4
:1002B00031E0A846B8F80000C005C00D21684860CC
:1002C0002069002801D1AD1CDEE76D1CDCE700973A
:1002D0004B4600228021200000F079F9002801D04F
:1002E000032018E02878216848606D1CCCE700974F
:1002F0004B4600224021200000F069F9002801D07F
:10030000032008E0202084F83900002084F8380019
:10031000002000E00220BDE8F2832DE9F84304004C
:100320000D0016001F005FF0000994F83A00202825
:1003300064D1002D02D0B6B2002E01D101205EE0C2
:1003400094F83800012801D1022058E0012084F8F7
:1003500038000020E063222084F83A0000F046FCD8
:100360008146A685E685E08D00283FD0E08D401EC1
:10037000E085A068B0F5805F1ED100974B46002253
:100380002021200000F023F9002801D0032036E0CE
:10039000A8462069002807D120684068C005C00D24
:1003A000A8F80000AD1CDEE72068406800F0FF0000
:1003B000A8F800006D1CD6E700974B4600222021CC
:1003C000200000F004F9002801D0032017E0206984
:1003D000002804D12068406828706D1CC3E720689D
:1003E000406810F07F0028706D1CBCE7202084F866
:1003F0003A00002084F83800002000E00220BDE828
:10040000F28310B4030093F83A00202828D1002981
:1004100002D092B2002A01D1012022E093F83800E4
:10042000012801D102201CE0012083F838009962E4
:100430009A85DA850020D863222083F83A000020CC
:1004400083F838001868406950F001001C6860614A
:100450001868C06850F490701C68E060002000E0EC
:10046000022010BC70472DE9F8430400206805689D
:100470002068C668206847695FF000085FF00009DF
:1004800015F00F008046B8F1000F18D1A80605D569
:10049000B00603D5200000F035F996E0E8060ED549
:1004A000F0060CD5002000902068006800902068BD
:1004B000406800900098200000F09EFB85E0B8F1B5
:1004C000000F72D0F80702D416F4907F6DD015F0AB
:1004D0000100C0B2002805D0F00503D5E06B50F054
:1004E0000100E063680708D517F00100C0B20028DA
:1004F00003D0E06B50F00200E063A80708D517F0C6
:100500000100C0B2002803D0E06B50F00400E063AB
:10051000280708D517F00100C0B2002803D0E06B0F
:1005200050F00800E063E06B00283DD0A80604D539
:10053000B00602D5200000F0E5F820684069800987
:1005400010F001008146E06B000702D4B9F1000F02
:1005500025D0200000F073F82068406940061AD5C5
:100560002068406930F0400021684861606B0028D5
:100570000DD00FF2ED00616B0865606B00F0B2FB0F
:10058000002811D0606B616B096D88470CE020007A
:1005900000F077FC08E0200000F073FC04E020008D
:1005A00000F06FFC0020E0630FE0280605D5300660
:1005B00003D5200000F05FF807E0680605D5700657
:1005C00003D5200000F08EF8FFE7BDE8F1832DE9A8
:1005D000F04104000D0016001F00DDF818802068AF
:1005E00000682840A84201D1012000E00020F6B2B6
:1005F000B04221D118F1010FF1D0B8F1000F04D0B1
:1006000000F0F4FAC01B8045E9D22068C06830F4DD
:10061000D0702168C86020684069400840002168A7
:100620004861202084F83900202084F83A00002016
:1006300084F83800032000E00020BDE8F081016864
:10064000C96831F490710268D1600168496949084C
:10065000490002685161202180F83A10704700007B
:1006600038B50400A56B0020E8850020E884280048
:1006700000F007FC31BD010091F8390021282FD18D
:100680008868B0F5805F11D1086A02001088C00543
:10069000C00D0B6858600869002803D1086A801CE7
:1006A000086209E0086A401C086205E0086A431C09
:1006B0000B6200780B685860C88C401EC884C88CD8
:1006C00000280BD10868C06830F080000B68D86043
:1006D0000868C06850F040000B68D860002000E057
:1006E0000220704710B504002068C06830F0400058
:1006F0002168C860202084F83900200000F0C0FB89
:10070000002010BD38B5040094F83A00222848D1E2
:10071000A068B0F5805F16D1A06A050020690028A6
:1007200008D120684068C005C00D2880A06A801CE0
:10073000A0621AE02068406800F0FF002880A06AEC
:10074000401CA06211E02069002806D1A06A411C6B
:10075000A16221684968017007E0A06A411CA1629A
:100760002168496811F07F010170E08D401EE0852D
:10077000E08D002813D12068C06830F490702168A3
:10078000C860206840694008400021684861202016
:1007900084F83A00200000F072FB002002E0002004
:1007A00000E0022032BD2DE9F84304000025206856
:1007B0000069050035F44055E0680543206805618F
:1007C0002068C0680500BC480540A068216908434E
:1007D00061690843E169084305432068C5602068F2
:1007E0004069050035F44075A069054320684561FE
:1007F000E069B0F5004F40F0B0802068AF49884212
:1008000003D02068AE49884253D100F04CFC8146A9
:1008100000F049FC804600F046FC070000F043FC75
:10082000060000F040FC192101FB09F1626852004A
:10083000B1FBF2F16422B1FBF2F1192202FB08F2E2
:1008400063685B00B2FBF3F2192303FB07F36768ED
:100850007F00B3FBF7F36427B3FBF7F3642707FBD1
:100860001322D20032326423B2FBF3F2520012F4AC
:10087000F87212EB0111192202FB06F263685B00A9
:10088000B2FBF3F21923584363685B00B0FBF3F04B
:100890006423B0FBF3F0642303FB1020C00032306C
:1008A0006422B0FBF2F010F0070040182168886065
:1008B00000E100F0E8FB814600F0E5FB804600F037
:1008C000E2FB070000F0DFFB060000F0DCFB192173
:1008D00001FB09F162685200B1FBF2F16422B1FB45
:1008E000F2F1192202FB08F263685B00B2FBF3F23B
:1008F000192303FB07F367687F00B3FBF7F3642753
:10090000B3FBF7F3642707FB1322D20032326423D0
:10091000B2FBF3F2520012F4F87212EB0111192239
:1009200002FB06F263685B00B2FBF3F21923584343
:1009300063685B00B0FBF3F06423B0FBF3F0642367
:1009400003FB1020C00032306422B0FBF2F010F044
:100950000700401821688860ACE020685749884249
:1009600003D020685649884252D100F09CFB814652
:1009700000F099FB804600F096FB070000F093FB27
:10098000060000F090FB192101FB09F1626892005A
:10099000B1FBF2F16422B1FBF2F1192202FB08F281
:1009A00063689B00B2FBF3F2192303FB07F367684C
:1009B000BF00B3FBF7F36427B3FBF7F3642707FB30
:1009C0001322120132326423B2FBF3F212F0F0026E
:1009D00012EB0111192202FB06F263689B00B2FBC5
:1009E000F3F21923584363689B00B0FBF3F06423D0
:1009F000B0FBF3F0642303FB1020000132306422CB
:100A0000B0FBF2F010F00F0040182168886051E050
:100A100000F039FB814600F036FB804600F033FBE6
:100A2000070000F030FB060000F02DFB192101FB50
:100A300009F162689200B1FBF2F16422B1FBF2F1BC
:100A4000192202FB08F263689B00B2FBF3F2192340
:100A500003FB07F36768BF00B3FBF7F36427B3FB3F
:100A6000F7F3642707FB1322120132326423B2FB2F
:100A7000F3F212F0F00212EB0111192202FB06F25E
:100A800063689B00B2FBF3F21923584363689B0031
:100A9000B0FBF3F06423B0FBF3F0642303FB1020FE
:100AA000000132306422B0FBF2F010F00F00401869
:100AB00021688860BDE8F183F369FFFF0010014001
:100AC0000014014010B586B004004648844262D14B
:100AD000002000904048006850F001003E49086046
:100AE0003D48006810F00100009000980020009040
:100AF0003948006850F001003749086036480068FE
:100B000010F0010000900098002000903348006829
:100B100050F01000314908603048006810F01000B3
:100B200000900098002000902C48006850F480400D
:100B30002A4908602948006810F480400090009815
:100B40004FF40070019002200290002003900720D3
:100B500005900320049001A9214800F01BFB4FF4ED
:100B6000806001900720059001A91D4800F012FB4C
:100B70004FF480500190012003900720059001A9B7
:100B8000174800F007FB00220321252000F020FD7C
:100B9000252000F030FD06B010BD10B5040011484E
:100BA000844218D11048006850F010000E490860C7
:100BB0000D48006830F010000B4908604FF40071D8
:100BC000074800F0CAFB4FF48061054800F0C5FB00
:100BD000252000F017FD10BD303802404438024097
:100BE000000002407C1200202438024001480068C6
:100BF000704700BF6013002070470268531C0360F9
:100C000011707047F8B504000025FFF7EFFF0600EC
:100C1000002C01D1012064E0606A0028002084F8E3
:100C20003400022084F83500206800684008400045
:100C30002168086020680068C0070BD5FFF7D6FF61
:100C4000801B0628F6D320206065032084F8350039
:100C5000032046E0206800680500DFF8E400054056
:100C60006068A1680843E168084321690843616935
:100C70000843A1690843E1690843216A0843054321
:100C8000606A042803D1E06A216B084305432068A9
:100C90000560206840690500ED08ED00606A0543C5
:100CA000606A04280DD1A06A0543200000F04CF8CA
:100CB000002806D040206065012084F8350001201E
:100CC0000FE020684561200000F020F807003F2079
:100CD000E16D8840B86000206065012084F835002F
:100CE0000020F2BD010091F83500022803D08020D9
:100CF0004865012009E0052081F835000868006892
:100D0000400840000A68106000207047017801F038
:100D1000FF0110391822B1FBF2F10A4A525CC26598
:100D2000042905D30268920A9202121D826503E02B
:100D30000268920A92028265806D7047000000008E
:100D40003F8010F0D03B000810B4010000208A6AF8
:100D50008B69002B1CD1002A05D0022A10D008D3A1
:100D6000032A13D013E0CB6ADB0101D5012318005D
:100D70003EE0CB6AB3F1C07F01D10123180037E018
:100D8000CB6ADB0101D50123180031E030E02FE010
:100D90008B69B3F5005F1BD1002A05D0022A0CD065
:100DA00005D3032A0CD012E00123180020E0CB6AFF
:100DB000DB0101D5012318001AE00123180017E018
:100DC000CB6AB3F1C07F01D10123180010E00FE01E
:100DD0001300002B022B02D9DB1E03D008E00123F5
:100DE000180005E0CB6ADB0101D501231800FFE7FD
:100DF000C0B210BC704720000068400D10F0010028
:100E000070474068C00A10F001007047816851F4D3
:100E1000001181607047C16851F40061C160704782
:100E2000704780B5002000F00DFCFBE780B5002086
:100E300000F008FCFBE780B5002000F003FCFBE7B6
:100E400080B5002000F0FEFBFBE780B5002000F03D
:100E5000F9FB01BD80B5002000F0F4FB01BD704737
:100E600080B51D4800F002FC01BD80B51B4800F0B4
:100E7000FDFB01BD80B500F0B5FC01BD70477047BA
:100E8000704710B50400200000F09AFE10BD80B538
:100E90001348FFF7E8FA01BD80B512480068FFF774
:100EA000E2FA01BD80B51048FFF7ABFF012804D17D
:100EB0000D48FFF7B0FF00F0D4FD01BD80B50B4831
:100EC000FFF79AFF012804D10848FFF79FFF00F0C1
:100ED00003FE01BD00000000BC120020F81200203B
:100EE0007C12002064130020006002400064024075
:100EF00070B504000D0000267348006810F00F0064
:100F0000A84209D2704805706F48006810F00F00C1
:100F1000A84201D00120B2E02078800707D56B48B5
:100F2000006830F0F000A168084368490860207844
:100F3000C00769D56068012805D16548006880034D
:100F400013D401209BE06068022802D06068032867
:100F500005D15F480068800107D401208FE05C481C
:100F60000068800701D4012089E0584800688008A3
:100F700080006168084355490860FFF737FE0600A6
:100F8000606801280ED15148006810F00C00042858
:100F90003AD0FFF72BFE801B41F289318842F2D311
:100FA00003206CE0606802280ED14848006810F009
:100FB0000C00082828D0FFF719FE801B41F2893168
:100FC0008842F2D303205AE0606803280ED13F48DC
:100FD000006810F00C000C2816D0FFF707FE801BED
:100FE00041F289318842F2D3032048E03748006853
:100FF00010F00C0F08D0FFF7F9FD801B41F289318A
:101000008842F3D303203AE02F48006810F00F0025
:10101000854209D22C4805702B48006810F00F005B
:10102000A84201D001202AE02078400707D52748B0
:10103000006830F4E050E1680843244908602078F3
:10104000000708D52148006830F46040216950EA63
:10105000C1001E49086000F041F81C4909681D4A9A
:1010600011F0F0015FF07063B3FA83F3D940515C83
:10107000C840194908600F2000F0D4FE002070BD60
:1010800015480068704780B5FFF7FAFF0F490968F7
:10109000104A11F4E0515FF46013B3FA83F3D940BE
:1010A000515CC84002BD80B5FFF7EAFF07490968F7
:1010B000084A11F460415FF4E023B3FA83F3D940A6
:1010C000515CC84002BD0000003C024008380240AC
:1010D00000380240903B00080400002070B400215A
:1010E000002200230020264C246814F00C04002C5D
:1010F00004D0042C05D0082C06D03DE0214C200063
:101100003CE0214C200039E0204C246814F03F04DE
:1011100021001E4C246864020FD51C4C24681A4D13
:10112000B5FBF1F547F6C0763440194EB6FA86F6AF
:10113000F44004FB05F422000EE0144C2468114D29
:10114000B5FBF1F547F6C0763440114EB6FA86F697
:10115000F44004FB05F422000C4C246814F44034E1
:101160004FF44045B5FA85F5EC40641C640023005B
:10117000B2FBF3F4200001E0024C200070BC704789
:10118000083802400024F40040787D010438024011
:101190000000FE03F8B400230024002500263200DE
:1011A000102A80F0D8800126964033000E681E4039
:1011B00034009C4240F0CD804E68022E02D04E6832
:1011C000122E16D1D60800EB8606366A35000F2699
:1011D00012F00707FFB2BF00BE40B5430E6912F020
:1011E0000707FFB2BF00BE403543D60800EB8606B6
:1011F00035620668350003261700FFB27F00BE4047
:10120000B5430E7916F003061700FFB27F00BE400B
:10121000354305604E68012E08D04E68022E05D079
:101220004E68112E02D04E68122E19D186683500F4
:1012300003261700FFB27F00BE40B543CE681700FB
:10124000FFB27F00BE403543856046683500012609
:101250009640B5434E68C6F3001696403543456048
:10126000C668350003261700FFB27F00BE40B543B5
:101270008E681700FFB27F00BE403543C5604E68E0
:10128000F60066D5002600968A4E366856F48046EB
:10129000884F3E60874E366816F480460096009E62
:1012A000854E970856F8276035000F2612F0030781
:1012B000FFB2BF00BE40B543804EB04201D1002610
:1012C00014E07F4EB04201D101260FE07D4EB042C6
:1012D00001D102260AE07C4EB04201D1032605E08E
:1012E0007A4EB04201D1042600E00726F6B212F091
:1012F0000307FFB2BF00BE4035436F4E970846F864
:101300002750734E36683500A5434E68F60300D566
:1013100025436F4E35606F4E36683500A5434E68E5
:10132000B60300D525436B4E35606B4E36683500ED
:10133000A5434E68F60200D52543674E3560674EDB
:1013400036683500A5434E68B60200D52543634E86
:101350003560521C24E7F1BC7047F0B50022002331
:10136000002400263500102D80F098800126AE4024
:10137000320012EA01063300934240F08D80066885
:101380000327AC465FFA8CFC5FEA4C0C17FA0CF7AB
:10139000BE430660EE0800EB8606EF0800EB870709
:1013A0003F6A5FF00F0C15F0070E5FFA8EFE5FEAE2
:1013B0008E0E1CFA0EFC37EA0C073762866803278C
:1013C000AC465FFA8CFC5FEA4C0C17FA0CF7BE4394
:1013D000866046680127AF40BE434660C668032763
:1013E000AC465FFA8CFC5FEA4C0C17FA0CF7BE4374
:1013F000C660314EAF0856F8276034000F2615F04E
:101400000307FFB2BF00BE4034402C4EB04201D1B2
:10141000002614E02A4EB04201D101260FE0294EE9
:10142000B04201D102260AE0274EB04201D1032684
:1014300005E0264EB04201D1042600E00726F6B2B0
:1014400015F00307FFB2BF00BE40B44224D10F26FF
:1014500015F00307FFB2BF00BE403400164EAF08C0
:1014600056F82760A643144F5FEA950C47F82C60A6
:10147000174E36689E43164F3E60164E36689E43A2
:10148000144F3E60144E36689E43134F3E60134E19
:1014900036689E43114F3E606D1C64E7F0BDD2B2CA
:1014A000002A02D089B2816102E089B20B04836113
:1014B00070470000443802400838014000000240F4
:1014C0000004024000080240000C024000100240EC
:1014D000003C0140043C0140083C01400C3C014000
:1014E00010F007024E4B1B6819004FF6FF0319401E
:1014F0004C4B53EA02231943494B19607047484843
:101500000068C0F302207047012110F01F029140D3
:10151000454A40B2430942F823107047012110F0B8
:101520001F029140414A40B2430942F823107047DC
:1015300010B440B2002808D50A013D4B40B210F06B
:101540000F04234403F8042C03E00A01394B40B292
:101550001A5410BC704770B4030013F00704D4F1A0
:101560000706052E01D3042001E0D4F10700261D53
:10157000072E01D2002500E0E51E012616FA00F034
:10158000401E0840A8400121A940491E11400843BF
:1015900070BC704710B50400601EB0F1807F01D3AD
:1015A00001200EE0601E244908600F215FF0FF302B
:1015B000FFF7BEFF0020214908600720204908608E
:1015C000002010BD10B504002000FFF789FF10BDFA
:1015D000F8B504000D0016000027FFF790FF070084
:1015E000320029003800FFF7B6FF0100200040B2AA
:1015F000FFF79EFFF1BD10B50400200040B2FFF7D9
:1016000083FF10BD10B50400200040B2FFF786FF35
:1016100010BD10B504002000FFF7BCFF10BD000096
:101620000CED00E00000FA0500E100E080E100E0E0
:1016300018ED00E000E400E014E000E018E000E055
:1016400010E000E010B504000122DFF81800E4B259
:1016500030F81410DFF81000E4B250F82400FFF75F
:101660001EFF10BDF60D00080000002010B504009C
:101670002068006980071AD52068C068800716D5E1
:101680007FF00200216808610120207620688069CF
:1016900010F0030F03D0200000F0D8FB05E020007D
:1016A00000F0D5FB200000F0D3FB0020207620685E
:1016B000006940071AD52068C068400716D57FF03A
:1016C000040021680861022020762068806910F4F7
:1016D000407F03D0200000F0B9FB05E0200000F0BF
:1016E000B6FB200000F0B4FB0020207620680069E3
:1016F00000071AD52068C068000716D57FF00800DB
:1017000021680861042020762068C06910F0030F6A
:1017100003D0200000F09AFB05E0200000F097FBCA
:10172000200000F095FB0020207620680069C006AC
:101730001AD52068C068C00616D57FF01000216851
:101740000861082020762068C06910F4407F03D02B
:10175000200000F07BFB05E0200000F078FB20007B
:1017600000F076FB0020207620680069C0070AD5CB
:101770002068C068C00706D57FF0010021680861B5
:101780002000FFF77BFB2068006900060AD520686F
:10179000C068000606D57FF080002168086120003F
:1017A00000F057FB2068006940060AD52068C06831
:1017B000400606D57FF0400021680861200000F057
:1017C00049FB2068006980060AD52068C068800649
:1017D00006D57FF0200021680861200000F03BFB67
:1017E00010BD000002480068401C014908607047B5
:1017F00060130020DFF88823525C8218126852F0D0
:101800000102DFF87C335B5CC3181A60704710B4C8
:10181000DFF86C335B5CC3185B681B0C1B04134361
:10182000DFF85C43645C0419636010BC704730B43B
:10183000029C402C0AD1DFF848536D5C4519EA60E0
:10184000DFF83C536D5C4519AB6009E0DFF83053BD
:101850006D5C4519AA60DFF828536D5C4519EB6093
:1018600030BC7047DFF81823525C8218126852F0BF
:101870001002DFF80C335B5CC3181A60704738B590
:1018800000200090DFF8FC02006850F40010DFF840
:10189000F4120860DFF8EC02006810F40010009009
:1018A00000985FF00060DFF8E01248600020DFF889
:1018B000D81288600020DFF8D012C8600020DFF85E
:1018C000C81208610020DFF8C01248610020DFF86C
:1018D000B81288610020DFF8B012C8615FF4803070
:1018E000DFF8A41208620020DFF89C12486203208F
:1018F000DFF8941288625FF40000DFF88C12C8628F
:101900005FF40010DFF880120863DFF88002DFF870
:1019100078120860DFF87002FFF774F9002801D030
:1019200000F05FF9002200211020FFF751FE102087
:10193000FFF761FEDFF85842DFF8585200200090B0
:101940002B0022000521DFF85002FFF770FF012273
:101950000521DFF84402FFF75AFF0521DFF83802BE
:10196000FFF780FF0521DFF83002FFF743FF00207B
:101970000090DFF81002006850F48000DFF80412D5
:101980000860DFF80002006810F480000090009802
:101990005FF00060DFF8041248600020DFF8FC11FF
:1019A00088600020DFF8F411C8600020DFF8EC1137
:1019B00008610020DFF8E41148610020DFF8DC1145
:1019C00088610020DFF8D411C8615FF48030DFF84F
:1019D000CC1108620020DFF8C41148620320DFF850
:1019E000BC1188625FF40000DFF8B011C8625FF4D8
:1019F0000010DFF8A8110863DFF8A401DFF89C11DC
:101A00000860DFF89801FFF7FDF8002801D000F02A
:101A1000E8F8002200213A20FFF7DAFD3A20FFF72C
:101A2000EAFDDFF880010400DFF87C0105000020FA
:101A300000902B0022000221DFF87001FFF7F7FE73
:101A400001220221DFF86401FFF7E1FE0221DFF845
:101A50005C01FFF707FF0221DFF85001FFF7CAFE24
:101A600031BD80B50120DFF8481181F83800002031
:101A7000DFF83C11C8632120DFF8341181F8390008
:101A8000DFF81001DFF8281108620120DFF82011CB
:101A900088840120DFF81811C8840020DFF81011B5
:101AA00081F83800DFF808010068C06850F0800055
:101AB000DFF8FC100968C8600521DFF8DC00FFF7DB
:101AC000D1FE0521DFF8D000FFF794FE0020DFF8FB
:101AD000E01081F8380001BD80B50120DFF8D41096
:101AE000096881F838000020DFF8C8100968C86369
:101AF0002120DFF8C010096881F83900DFF8A8005C
:101B0000DFF8B010096808620120DFF8A810096842
:101B100088840120DFF89C100968C8840020DFF861
:101B20009410096881F83800DFF8880000680068C0
:101B3000C06850F08000DFF87C1009680968C86050
:101B40000221DFF86800FFF78DFE0221DFF85C005C
:101B5000FFF750FE01BD80B500224FF480511748B9
:101B6000FFF79DFC012210491148FEF74AFC0028AE
:101B700005D111490868104950F48050086001BD32
:101B8000D83B000830380240DC100020886002405A
:101B9000044400406C130020006002403C1100200F
:101BA0004064024004100140AE0F00200064024077
:101BB0007C120020641300204C130020000002401F
:101BC00010B5040000F012F810BD70B54FF40064B9
:101BD0000025DFF830622A002100300000F03CF9D7
:101BE00070BD80B50020FFF72DFD01BD80B5002040
:101BF000FFF728FD01BD10B50400DFF814020078DE
:101C0000C0F30010C0B2002809D1DFF80402007848
:101C1000C0F38010C0B2002801D1052042E0DFF8F7
:101C2000F4110868C0F30020002806D1DFF8E411A1
:101C30000868C0F3C010002801D0102032E0DFF89F
:101C4000D4110868DFF8CC1150F400600860A4B229
:101C5000002C05D1DFF8C00100F032F91F2021E08F
:101C60004FF47A73220092B2DFF89811DFF8AC01DA
:101C7000FEF7E4FA002803D0FFF7B8FF0F2011E0C9
:101C8000DFF890110868DFF88C1130F4006008600C
:101C9000DFF880110868C0F30030002801D1FFF799
:101CA0005AFF002010BD70B504000D000026FFF79C
:101CB0008CFF2B0022005A49524800F013F951487A
:101CC00000F02AF94FF47A73020092B24D4953485A
:101CD000FEF7B4FA002803D0FFF788FF0F2005E0D5
:101CE000062000F066F806003000C0B270BD0000AB
:101CF0002DE9F04192B000240225402600270DF185
:101D000008083A003100404600F0A6F85FF00008ED
:101D1000FFF75BFF3CA1684600F01AF93AA168465C
:101D200000F038F96946374800F0DCF8354800F033
:101D3000F3F880B2FFF75FFF0400E4B2002C33D168
:101D4000364890F83A0020280AD01FFA88F8B8F5EB
:101D50007A7F05DA18F101080A2000F029F9EFE787
:101D60001FFA88F8B8F57A7F1CDA4FF496731422BC
:101D700002A92A48FEF7D1FA0500EDB2002D06D0DF
:101D8000EDB2032D03D0FFF731FF0F200EE01FA1AE
:101D900002A800F01AF9002801D10D2006E0002069
:101DA000040001E00F2001E02000C0B212B0BDE845
:101DB000F081F0B591B00400402500266F46320056
:101DC0002900380000F048F80027A4B2412C15DAA9
:101DD0004FF47A73220092B269461048FEF79DFADA
:101DE000002803D0FFF702FF0F2009E007A1684693
:101DF00000F0EBF8002801D10D2001E03800C0B25E
:101E000011B0F0BD6007002041540D004F4B0000A1
:101E1000341300204C130020A03A00087C1200204C
:101E20006C3B000810B50400074800684FF47A7155
:101E3000B0FBF1F0FFF7EDFB002221005FF0FF3077
:101E4000FFF7C6FB002010BD04000020704770475C
:101E5000704770477047704762F30F2262F31F426A
:101E6000401810F0030308D0C91A1FD3DB0748BF7E
:101E700000F8012D28BF20F8022D130030B41446BD
:101E80001546103928BF20E93C00FAD8490728BF79
:101E900020E90C0048BF40F8042D890028BF20F835
:101EA000022D48BF00F8012D30BC7047C91818BF7B
:101EB00000F8012DCB0728BF00F8012D7047000066
:101EC0000EB400B582B003A9009102466B46012111
:101ED000034878440A3000F081F806BC5DF810FB36
:101EE000411C00000CB41CB5044604A801900A462D
:101EF000009401AB694607487844183000F06EF84A
:101F0000009A0021117000285CBF0098001B16BCCD
:101F10005DF80CFBE7ECFFFF00F10103810704D043
:101F200010F8011B89B18107FAD10268B2F10131C1
:101F3000914311F0803F04BF50F8042FF6E710F8EA
:101F4000011B11B110F8011BFBE7C01A704700001C
:101F50005FEA000C830706D011F8013B00F8013B53
:101F6000B3B18307F8D10A68B2F1013323EA02035F
:101F700013F0803F02BF40F8042B51F8042FF3E721
:101F800011F8013B00F8013B13B111F8013BF9E7EF
:101F900060467047024600E0521C1378002BFBD1CC
:101FA00011F8013B137012F8013B002BF8D1704778
:101FB00011B581B00024FEF719FE0400FEF716FEED
:101FC000001B01998842F9D313BD38B504000D00F8
:101FD0002900200000F0E4FB32BD00002DE9F04FA5
:101FE00080460FF2A47095B015461E46D0E9002336
:101FF000CDE9132303AF00200391B8610DF134093B
:1020000000E02D190020ADF8020013AB4FF0FF32B5
:1020100029460DF1020000F0DAFB0446012C04DA37
:102020002878441EA441E443E40FBDF802002528AB
:102030000CBFA4F1010BA346BBF1010F0EDBAA46B6
:102040001AF8011B0398C0470028039000F0DA80BB
:10205000B869401CBBF1010BB861F1D1BDF80200B9
:10206000252804D10020F8603861786105E0002857
:10207000C7D1B86906E340F0010015F8011F202917
:10208000F9D023290DD02B2904D02D2906D03029B1
:102090000AD00CE040F0020080B2EEE740F004000D
:1020A000FAE740F00800F7E740F01000F4E72A29CB
:1020B0000ED13168316051F8042B3160002A3A6248
:1020C00004D5514240F00400396280B26D1C13E027
:1020D000002139620BE0396A6FF00043994205D064
:1020E00001EB810302EB4301303939626D1C2A7820
:1020F000A2F130010A29EED329782E2903D04FF01E
:10210000FF31F9611FE015F8011F2A2907D1316855
:1021100031606D1C51F8042B3160FA6113E000212D
:10212000F9610BE0F9696FF00043994205D001EBCA
:10213000810302EB43013039F9616D1C2A78A2F169
:1021400030010A29EED3B8840FF24460297800F0F8
:102150004FFB08B115F8010B8DF832009DF83200E5
:10216000682804BF2878682803D162208DF83200DF
:102170006D1C0DA8B86015F8014B252C13D0582CF8
:102180004BD0632C00F0A380642C18BF692C7CD04A
:102190006F2C42D0702C36D0732C0AD0752C18BFFF
:1021A000782C3AD0B6E00120F86025208DF8340074
:1021B000BAE09DF832006C283068306018D050F8D2
:1021C000044B30607C60D7F81CA0BAF1000F04D536
:1021D0002046FFF7A1FE824607E052460021204636
:1021E00000F012FB08B1A0EB040AC7F810A09BE0B6
:1021F00050F8042B306002A9404600F02DF9002869
:1022000040F192803CE23068306050F8041B30604E
:1022100002910DA87860782155E09DF832006C2875
:102220000DD0712818BF6A2809D13068C01D20F070
:1022300007023260D2E900010832326004E03168FE
:10224000316051F8040B316002909DF8320068282B
:1022500002D102A8008803E0622802D102A8007817
:10226000029097F82400000728D5029830B344F074
:102270002000782822D1F868302109F80010401C8D
:10228000411CF96009F8004018E09DF83200314621
:1022900000F0BCF80028029002D5F8682D2109E072
:1022A000B88C810702D5F8682B2103E0C00705D55B
:1022B000F868202109F80010401CF8600DA8F968A2
:1022C00008447860214602A800F0DFF92CE09DF870
:1022D00032006C2809D00120F8603068306050F876
:1022E000041B30608DF834101EE03068306001AAA5
:1022F00050F8041B3060ADF804100020ADF8060063
:1023000002A94FF0FF30F861404600F0A5F8002820
:102310000AD577E70120F86025208DF834001CB13C
:102320000220F86089F80140386AF968401A796932
:10233000401A3969441A97F82400400711D4202024
:10234000012C8DF800000CDBA24601236A4602A98D
:10235000404600F001FA00287FF454AFBAF1010AB8
:10236000F3D1D7F80CB0BBF1000F0DF1340A0DD04A
:102370001AF8011B0398C047002803903FF442AFAE
:10238000B869401CBBF1010BB861F1D1D7F814A0BA
:102390003020BAF1010F8DF800000BDB01236A46F3
:1023A00002A9404600F0D8F900287FF42BAFBAF11B
:1023B000010AF3D1D7F810B0D7F804A0BBF1000F91
:1023C0000DD01AF8011B0398C047002803903FF472
:1023D00019AFB869401CBBF1010BB861F1D197F896
:1023E000240040077FF50EAE2020012C8DF8000060
:1023F000FFF608AE01236A4602A9404600F0ACF998
:1024000000287FF4FFAE641EF4D1FBE5622815D0EE
:1024100068280CD06C2818BF742816D07A2814D1DC
:102420000A680A6052F8040B0A60002170470A68C3
:102430000A6052F8040B0A6000B20BE00A680A60F6
:1024400052F8040B0A6040B204E00A680A6052F8CD
:10245000040B0A60C11770472DE9F44F0D4694B084
:102460002F6A002F804648BF6FF0004700F0F8F950
:10247000696A401801900FF22030D0E90023CDE9BD
:10248000022395F82800400702D40198412805D27C
:1024900040200DF110090190002606E000F0E6F959
:1024A0005FEA0009F8D1EBE03F1B012FC0F29480F6
:1024B0001498018802AA0DF1010000F02FFA0028FB
:1024C000044600F19C801498008810B9641E00F145
:1024D0009680A742C0F28080286901992218914213
:1024E00068D26E624042A969401A6969461A95F835
:1024F0002800400710D42020012E8DF800000BDBAF
:10250000B24601236A462946404600F025F90028D4
:1025100075D1BAF1010AF4D1D5F810B0BBF1000FB2
:10252000CA460CD01AF8011B6868C04700286860CA
:1025300065D0E869401CBBF1010BE861F2D13020A5
:102540008DF80000D5F818A0BAF1010F0ADB0123BD
:102550006A462946404600F0FFF800284FD1BAF1FC
:10256000010AF4D1D5F814B0D5F808A0BBF1000FDA
:102570000CD01AF8011B6868C047002868603ED07C
:10258000E869401CBBF1010BE861F2D195F8280025
:1025900040070DD52020012E8DF8000008DB012317
:1025A0006A462946404600F0D7F840BB761EF6D171
:1025B00000262E61224628690DF10101484400F0F1
:1025C000BBF92869201828611498801C1490801E7B
:1025D000008800287FF468AF686A2969401AA969F1
:1025E000401A6969471A95F8280040070FD4012F4F
:1025F0000DDB3C4668682021C047686010B94FF089
:10260000FF3635E0E869401C641EE861F2D12B69B1
:102610004A462946404600F09FF80028EFD1AC69B1
:10262000012C0ADB68683021C04700286860E6D0CA
:10263000E869401C641EE861F4D16B69AA68294608
:10264000404600F089F80028D9D195F828004007C5
:102650000CD5012F0ADB68682021C047002868607C
:10266000CDD0E869401C7F1EE861F4D12E616E6216
:1026700004A881451CBF484600F09AF9304601E0A5
:102680004FF0FF3015B0BDE8F08FF0B4C2686F298D
:1026900008BF082405D041F02003782B14BF0A247A
:1026A000102418230668642918BF6929374602D107
:1026B000002E48BF7F425FB9056A4DB9082C27D16B
:1026C00090F82810090723D530211723D1751FE072
:1026D000B7FBF4F604FB16773037FFB25D1E3A2FD6
:1026E000A4BFA1F1510C674457552B46370003D0C6
:1026F0008568D618B542EBD3082C09D190F828107C
:10270000090705D5D15C302902D05B1E3021D15498
:102710001A448260C3F11801026A4161914208DAE9
:10272000511A81614FF6EF72018D11400185F0BCA5
:102730007047002A0ED590F8282002F01402102AC3
:1027400008D1426A0369D21A8369D21A531A012B3B
:10275000A8BF8361F0BC7047F8B504460D46164625
:102760001F46002077B116F8011B6868A047686013
:1027700030B1E869401CE86100207F1EF3D1F2BD52
:102780004FF0FF30F2BD000000000000000000002C
:10279000686C747A4C00000000000000000000002B
:1027A00070B50C462578290006D170BD11F8013F9F
:1027B0001678B34206D0401C294600F019F828B11B
:1027C0000146224612F8013F002BEFD170BDF8B54B
:1027D00004460D4616461F4600F02AF93B4632468F
:1027E0002946204601B0BDE8F04000F038B90000AD
:1027F0000278C9B28A421AB11CBF10F8012FF9E75A
:1028000018BF002070470000C9B2830706D0521ECF
:1028100022D310F8013B9942F7D11FE0083A13D3B5
:1028200002F1040241EA012141EA014150F8043B6E
:10283000121F21BF4B40A3F1013C2CEA030C1CF0FA
:10284000803FF3D0C9B2001F083210F8013B521E7E
:1028500028BF91EA030FF8D818BF0120401E704727
:1028600080B500F0E5F8012002BD000070B5054616
:1028700005F10F00C408C046C046E400A54232D2AC
:10288000082C04D2082402E0083000F091F8224815
:10289000026811000CD1011D0A6802B31368A3423B
:1028A00038BF111DF8D310E01D68A5420DD2191DC7
:1028B0000B68002BF8D11268011D00E0191D0B6890
:1028C00093420CD01D68A542F8D361B10D682A6807
:1028D000A2F10803A3420AD26A680A600FE000F07E
:1028E000E1F80028D0D1C046C046002070BD2B19A9
:1028F0000B60121B6E685E600B681A602C600968C2
:1029000000291DBF4A68002A091D00210160C04638
:10291000C04605F1080070BD5813002070B504468C
:102920000D46164600F084F8324629462046BDE89A
:10293000704000F087B8000062B38B0708D0521EC9
:1029400011F8013B00F8013B00F024808B07F6D121
:10295000830740F0208000BF103A07D330B4B1E8BD
:102960003810103AA0E83810F9D230BC530724BF11
:10297000B1E80810A0E8081044BF51F8043B40F843
:10298000043BD20724BF31F8022B20F8022B44BFAE
:102990000B7803707047083A07D3B1E80810083A7B
:1029A00040F8043B40F804CBF7D25307E4E70000BB
:1029B00000B9704738B5A0F108042068082833D35F
:1029C00010F0070F30D1C046C0461848416809B121
:1029D0008C4203D26160446017E019464B680BB12A
:1029E000A342FAD30B68CD18AC421BD3A54204D145
:1029F0002268D2180A600C4607E04A681AB12368B8
:102A000023449A420ED362604C60616851B12268DF
:102A1000A3188B4206D10023036008688018206049
:102A200048686060C046C04631BD000058130020B1
:102A300080B5DFF80C0000F04BF8806902BD0000A3
:102A4000F400002030B430B90FF24800D0E900455E
:102A5000C2E900451BE00170012030BC704730B472
:102A600031B90FF23800D0E90045C3E900450EE066
:102A70001AB930BC6FF00100704708B10A780280C3
:102A80000978481E804130BCC043C00F7047002009
:102A900030BC704700000000000000000000000093
:102AA000000000000749086808B100207047064888
:102AB000C008C00008600549C908C900091A0160BA
:102AC000704700BF681300206705002060070020E2
:102AD0007047000070B582B0040000252078C00760
:102AE0003AD5B648006810F00C00042809D0B34865
:102AF000006810F00C0008280CD1B14800684002B2
:102B000008D5B0480068800326D56068002823D126
:102B1000012051E16068AC490870606800280DD060
:102B2000FEF764F80500A7480068800314D4FEF798
:102B30005DF8401B6528F6D303203DE1FEF756F80B
:102B40000500A0480068800306D5FEF74FF8401B3B
:102B50006528F6D303202FE1207880075AD59748BF
:102B6000006810F00C0F09D09448006810F00C00B9
:102B700008281BD192480068400217D49148006889
:102B8000800704D5E068012801D0012014E18D48B8
:102B900000685FF0F851B1FA81F130F0F800226975
:102BA00012FA01F108438749086033E0E068002821
:102BB0001FD0012085490860FEF718F805008148FC
:102BC0000068800706D4FEF711F8401B0328F6D3EF
:102BD0000320F1E07B4800685FF0F851B1FA81F121
:102BE00030F0F800226912FA01F1084375490860D3
:102BF00010E0002075490860FDF7F8FF05007148F6
:102C00000068800706D5FDF7F1FF401B0328F6D3C7
:102C10000320D1E02078000724D56069002810D077
:102C200001206B490860FDF7E1FF05006948006875
:102C3000800717D4FDF7DAFF401B0328F6D30320E3
:102C4000BAE0002062490860FDF7D0FF0500614846
:102C50000068800706D5FDF7C9FF401B0328F6D39F
:102C60000320A9E02078400747D5002000905A486B
:102C7000006850F08050584908605748006810F0CC
:102C80008050009000985548006850F48070534977
:102C90000860FDF7ABFF050050480068C00506D48A
:102CA000FDF7A4FF401B0328F6D3032084E0A068AF
:102CB0004B490870A06800280FD0FDF797FF05006A
:102CC00047480068800718D4FDF790FF401B41F289
:102CD00089318842F4D303206EE0FDF787FF0500B9
:102CE0003F480068800708D5FDF780FF401B41F290
:102CF00089318842F4D303205EE0A06900285AD0CD
:102D00002E48006810F00C00082852D0A069022854
:102D10003ED1002033490860FDF768FF05002948CF
:102D20000068800106D5FDF761FF401B0328F6D33C
:102D3000032041E02C48B0FA80F24FF44040B0FA52
:102D400080F0F021B1FA81F1E369266A3343666AC3
:102D500016FA02F21A43A36A5B085B1E13FA00F02C
:102D60001043E26A12FA01F1084315490860012094
:102D70001C490860FDF73AFF050012480068800111
:102D800019D4FDF733FF401B0328F6D3032013E0CB
:102D9000002014490860FDF729FF05000948006874
:102DA000800108D5FDF722FF401B0328F6D303203E
:102DB00002E0012000E0002076BD00BF083802409C
:102DC0000438024000380240023802400000474206
:102DD000800E474274380240403802400070004084
:102DE00070380240600047420000FE0310B582B018
:102DF0000024002000908948006850F001008749B5
:102E000008608648006810F001000090009800F00B
:102E100025F900F039F800F0A3F85FF4612180484B
:102E200000F079F87E4800F039F97E48FFF748F85D
:102E30007D48FFF745F87D48FFF742F87C48FFF7EB
:102E40003FF87C48FFF73CF87748FFF739F87A48B5
:102E5000FFF736F87948FFF733F85FF4612000F0A8
:102E600084F90400E4B2002C02D1FEF708FD02E070
:102E70007348FFF725F84FF4FA60FFF799F87148A7
:102E8000FFF71EF800BFFDE700B593B000200090EB
:102E90006D48006850F080506B4908606A480068CF
:102EA00010F0805000900098002000906748006863
:102EB00030F4404050F400406449086063480068C2
:102EC00010F44040009000980220069001200990E4
:102ED00010200A9002200C9000200D9010200E90DF
:102EE0004FF4A8700F90042010900720119006A8AE
:102EF000FFF7F0FD0F2001900220029000200390C8
:102F00004FF48050049000200590022101A8FDF7A5
:102F1000EFFF13B000BD38B504000D004C48206031
:102F200065600020A0600020E0600020206100209B
:102F3000A0610C2060612000FDF767F9002801D036
:102F4000FEF74FFE2000FDF725F9002801D0FEF71F
:102F500048FE2068406950F040002168486131BD5A
:102F600000B587B0002000902C48006850F00100A8
:102F70002A4908602948006810F001000090009874
:102F8000002000902548006850F0010023490860A7
:102F90002248006810F00100009000980020009086
:102FA0002948006850F40030274908602648006826
:102FB00010F4003000900098002000902548006830
:102FC00050F48040234908602248006810F4804093
:102FD00000900098042001900220029001200390AC
:102FE000032004900720059001A91B48FEF7D2F8A2
:102FF00008200190002002900220029007200590F6
:1030000001A91548FEF7C6F8012200212620FEF787
:10301000DFFA2620FEF7EFFA07B000BD3038024095
:103020003C12002024380008E43800082039000849
:103030005C3900089839000864380008443B0008EF
:103040000C3A0008583B000840380240007000402D
:1030500000440040443802400000024080B50E4861
:10306000006850F400700C4908600B48006850F488
:103070008060094908600848006850F4807006497B
:1030800008600320FEF79EFA0F20FEF7CBFE00F04B
:10309000B5F8002002BD0000003C02400149086074
:1030A000704700BF6413002010B50400DFF82C0146
:1030B000DFF82C110860DFF8280144600020DFF8F9
:1030C000201188600020DFF81811C8600020DFF8A8
:1030D000101108614FF48070DFF8041188610C2032
:1030E000DFF8FC1048610020DFF8F410C861DFF859
:1030F000F000FDF78AF8002801D0FEF772FDDFF836
:10310000E000FDF747F8002801D0FEF76AFDDFF880
:10311000D0000068406950F04000DFF8C410096832
:10312000486110BD10B586B0002468462E491822AB
:10313000FFF712FC6846E4B250F8240000280ED0D5
:103140006846E4B250F82400FFF7AEFF0A20FEF70D
:103150002FFFFEF7CDFD002801D0641CEAE768468A
:10316000E4B250F8240006B010BD70B504001F484A
:10317000007850F010001D490870FFF7D3FF0600DB
:10318000002E26D021001A48FEF78DFD0500FEF71F
:103190001CFD18491348FEF7A5FE1248FEF7BCFEB9
:1031A00080B2FEF728FD0500FEF70FFD12490D481D
:1031B000FEF798FE0B48FEF7AFFE80B2FEF71BFD50
:1031C0000500EDB2002D02D12000FFF76DFF0020B9
:1031D00002E0FEF706FD012070BD00000010014076
:1031E0007C12002060070020083B000834130020F8
:1031F000803B0008C83B0008B03B000870472DE941
:10320000F04104460D4620780321084216461F4629
:1032100032D0204600F099F870BB15B1D5E9000115
:103220008619012F30D12088C00416D5A16904F178
:103230003D02204600F0A6F8626A804602B9226983
:10324000E168204600F09EF8A6EB08010E1AA26A7B
:10325000E168204600F096F8361A1EB94FB916F10B
:10326000010F09D094F903003A46314600F08FF877
:10327000064616F1010F0AD100F0B0F823210160D3
:103280004FF0FF30BDE8F081022FE7D1EAE7208858
:103290004FF4405108420ED06068E0602061A062A7
:1032A00060616068E06204F13D00A06104F1240007
:1032B000E061002060622DB1D5E9020104F1300225
:1032C000C2E9000120884CF6FF6108402080002000
:1032D000BDE8F08138B500F087F804462088800406
:1032E0002ED5656809E04A1B294600F08DF810F1DB
:1032F000010F18BF00280CD00544E16894F90300C1
:103300008D42F0D30022002100F07EF810F1010F71
:103310000DD16068E0606061E062208840F4007078
:103320002080204600F061F84FF0FF3032BD656824
:10333000E5606561E5624DF6FF71208808402080F8
:10334000204600F052F8002032BDF8B5A0B9C046C2
:10335000C04600240A4D08264FF0FF37286820B1E8
:10336000FFF7B8FF002848BF3C462D1D761EF5D15B
:10337000C046C0462046F2BDBDE8F240AAE70000C4
:10338000C8000020914234BF501A0020704730B569
:1033900083B004000D00012A02D100F090F807E08C
:1033A000022A07D100940020019069460C20ABBE90
:1033B0002D1801E0002A0CD10094019569460A20DD
:1033C000ABBE002805D100222100280000F054F8EF
:1033D00001E00020C04303B030BD00000148FFF70A
:1033E00077BB0000E80000207047704701B55FF030
:1033F000FF330122694603480068FCF71FFF00986D
:1034000002BD000064130020F8B504000D00160092
:10341000012C04D0022C02D05FF0FF3009E0002024
:103420000700B74204D2E85DFFF7E0FF7F1CF8E732
:103430003000F2BD10B4314A002113461C688442AA
:1034400005D1002342F8313002EBC10111E09C6844
:10345000491C84421EBF491C1C6984421EBF491C72
:103460009C698442EDD0491C20331029E6D310BC5E
:1034700070474B6010BC704770B4204C0023254649
:103480002E688E4209D1014604EBC303012A04BF12
:103490005A685118596070BC7047AE685B1C8E4208
:1034A0001EBF5B1C2E698E421EBF5B1CAE698E4226
:1034B000E9D05B1C2035102BE2D370BC704710B4F0
:1034C0000E4A002113461C68844204D102EBC1005D
:1034D000406810BC70479C68491C84421EBF491C50
:1034E0001C6984421EBF491C9C698442EED0491C61
:1034F00020331029E7D310BC002070475C10002057
:1035000010B50446E0686169884253D3218849F2C6
:1035100002020A40022A08D008044CBF4FF400708F
:103520004FF48440084320803DE001F4C041B1F5F0
:10353000C04F06D1A168884203D32046FFF705FF9C
:1035400088BB20884FF44061084202BF606804F1E4
:103550003D01884218D14FF40070FFF787F9606091
:1035600030B904F13D006060E060401CA0600BE0F9
:10357000218841F040012180E060A0624FF4007199
:1035800001446068A160E06260682061A0686061D9
:10359000207840070AD502220021204600F00CF8CE
:1035A00010F1010F02D14FF0FF3010BD208840F420
:1035B000C0402080002010BD70B50C461546FFF7B6
:1035C00013FF06462B4622460021FFF718FE04464D
:1035D0003046FFF70AFF204670BD0000017809065B
:1035E00026D51D4A13680021834203D1002342F8E7
:1035F00021301BE05368012183421EBF02219368E2
:103600008342F3D0D368032183421EBF0421136990
:103610008342EBD05369052183421EBF0621936983
:1036200083421EBF0721D3698342DFD0FFF7C0B9B1
:10363000002101804FF0FF31C17000F13D01416078
:10364000C160016181624161C162816100F1240157
:10365000C161704700000000C800002038B5044672
:1036600003212078084202D06056002809D5C046C0
:10367000C0462046FFF7B2FFC046C0464FF0FF35B8
:1036800027E02046FFF761FE0546C046C046207889
:10369000400644BF6068FFF78BF90020606094F932
:1036A0000300022804D900F016F808B14FF0FF35E6
:1036B000A06B48B100F01CF808B14FF0FF35A06BCB
:1036C000FFF776F90020A0632046FFF787FFC0468A
:1036D000C046284632BD10B582B00200009269464D
:1036E0000220ABBE04001000FFF7A4FE200016BDB0
:1036F00000B583B00090FEF70FFC019069460E20E4
:10370000ABBE03B000BD00001248006850F470006A
:10371000104908601048006850F001000E49086028
:1037200000200E4908600C4800680D4908400A490D
:1037300008600C480C4908600748006830F4802095
:10374000054908600020094908605FF000600849E9
:103750000860704788ED00E00038024008380240F9
:10376000FFFFF6FE10300024043802400C380240FF
:1037700008ED00E010B5144C206808B1FFF76EFFAB
:10378000606808B1FFF76AFFA06808B1FFF766FF3D
:10379000E06808B1FFF762FF206908B1FFF75EFF3C
:1037A000606908B1FFF75AFFA06908B1FFF756FF3B
:1037B000E06908B1FFF752FFBDE810400022002188
:1037C0004FF0FF30FFF720BEC800002038B5054697
:1037D0000846FFF709FE0446E0686169884204D3A1
:1037E0002046FFF78DFE002810D4E068401CE06002
:1037F00000F8015D2088010504D440050CD5EDB228
:103800000A2D09D12046FFF7A0FD28B12046FFF779
:10381000ECFD4FF0FF3032BD2046FFF7E6FDE8B289
:1038200032BD00000D0A0A2F2A2A2A2A2A2A2A2A09
:103830002A2A2A2A2A2A2A2A2A2A2A2A2A2A2A2AE8
:103840002A2A2A2A2A2A2A2A2A2A2A2A2A2A2A2AD8
:103850002A2A2A2A2A2A2A2A2A2A2A2A2A2A2A2AC8
:103860000A0000000D202A2A2A2A2A2A2A2A2A2A7D
:103870002A2A2A2A2A2A2A2A2A2A2A2A2A2A2A2AA8
:103880002A2A2A2A2A2A2A2A2A2A2A2A2A2A2A2A98
:103890002A2A2A2A2A2A2A2A2A2A2A2A2A2F0A0DC0
:1038A0000A00000019E050F8041BCB0744BFA9F13F
:1038B00001035918121F0023042A41F8043BF9D2CE
:1038C0005FEA827C0B4604D54FF0000CA1F800C0E3
:1038D0009B1CD10744BF0021197050F8042B002A0B
:1038E000E1D170470D202A202020202020202020F8
:1038F00020202020202020202020202020202020C8
:1039000020202020202020202020202020202020B7
:10391000202020202020202020202020202A0A00D3
:103920000D202A20582D435542452D5749464931EF
:1039300020457870616E73696F6E20536F6674777F
:103940006172652076332E312E31202020202020F8
:103950002020202020202020202A0A000D202A209C
:10396000436F6E736F6C65204170706C6963617436
:10397000696F6E2020202020202020202020202061
:103980002020202020202020202020202020202037
:1039900020202020202A0A000D202A2053656E6452
:1039A00020415420636F6D6D616E647320746F20CD
:1039B00053505746206D6F64756C6520646972655D
:1039C00063746C79202020202020202020202020BB
:1039D000202A0A0030B5016842688468014401EB7E
:1039E0005203D20748BF4C44994201D10C3030BD3C
:1039F00011F9012B11F8015B002A04F8015B02D5D3
:103A0000521CF9D1F0E7521EF4D5EDE70D45727264
:103A10006F7220696E20626175642D726174652019
:103A20006175746F2D646574656374696F6E2E2E95
:103A30002E0D0A0010B5074979441831064C7C4414
:103A4000163404E00A68081D114488470146A14263
:103A5000F8D110BD2C000000480000004EF688513F
:103A6000CEF20001086840F470000860BFF34F8F89
:103A7000BFF36F8F4FF00070E1EE100A7047000047
:103A800025FEFFFF100C0000600700200000000072
:103A900045FFFFFF140200000401000000000020A9
:103AA0004552524F5220696E2055534152545F5433
:103AB00072616E736D69745F41545F436D64210080
:103AC00000F00BF8002801D0FFF7B4FF0020C0463B
:103AD000C046FFF78BF900F002F80120704700F0B4
:103AE00001B800000746FFF745FE384600F002F82F
:103AF000FBE7000080B5C046C046024A110018200E
:103B0000ABBEFBE726000200C012000080250000CB
:103B100000C201000008070000100E0000000000B5
:103B200038B504460D46284600F006F8A84218BFEE
:103B30000024204632BD00000149FFF747BE00BF08
:103B4000480000200D506C656173652077616974D1
:103B50002E2E2E0D0A0000000D436F6E736F6C65E4
:103B60002052656164792E2E2E0D0A0041542B538C
:103B70002E534346473D25732C25640D000000005D
:103B8000636F6E736F6C65315F73706565640000A1
:103B900000000000010203040102030406070809F3
:103BA000014880470148004709370008BD3B00082D
:103BB00041542B4346554E3D300D0000C046C04693
:103BC000FFF74CFFFFF77CFF415426570D00000024
:103BD0000006101600061016102840587088A0B86D
:103BE000FFF7FEBFFFF7FEBFFFF7FEBFFFF7FEBF09
:103BF000FFF7FEBFFFF7FEBFFFF7FEBFFFF7FEBFF9
:103C0000FFF7FEBFFFF7FEBFFFF7FEBFFFF7FEBFE8
:103C1000FFF7FEBFFFF7FEBFFFF7FEBFFFF7FEBFD8
:103C2000FFF7FEBFFFF7FEBFFFF7FEBFFFF7FEBFC8
:103C3000FFF7FEBFFFF7FEBFFFF7FEBFFFF7FEBFB8
:103C4000FFF7FEBFFFF7FEBFFFF7FEBFFFF7FEBFA8
:103C5000FFF7FEBFFFF7FEBFFFF7FEBFFFF7FEBF98
:103C6000FFF7FEBFFFF7FEBFFFF7FEBFFFF7FEBF88
:103C7000FFF7FEBFFFF7FEBFFFF7FEBFFFF7FEBF78
:103C8000FFF7FEBFFFF7FEBFFFF7FEBFFFF7FEBF68
:103C9000FFF7FEBFFFF7FEBFFFF7FEBFFFF7FEBF58
:103CA000FFF7FEBFFFF7FEBF27000002400024F42D
:103CB00000010400004500002046000020450000EF
:103CC000204500002045000020450000202C000079
:103CD00020E0001F02040101EC1100203C12002032
:103CE000EC110020EC110020EC11002085000020D8
:103CF0006C000020E0001F020802029C110020EC72
:103D00001100209C1100209C1100209C110020C556
:103D1000000020AC000020E0000B0800002048005C
:0A3D20000020880000208100F3005D
:0400000508003BBDF7
:00000001FF
