:020000040800F2
:1000000070050020699E0008697000086B70000888
:10001000757000087F7000088970000800000000FB
:1000200000000000000000000000000093700008C5
:100030009D70000800000000A7700008BD70000857
:1000400051A0000855A0000859A000085DA00008B4
:1000500061A0000865A0000869A000086DA0000864
:1000600071A0000875A0000879A000087DA0000814
:1000700081A0000885A0000889A000088DA00008C4
:1000800091A0000895A0000899A000089DA0000874
:10009000A1A00008A5A00008A9A00008ADA0000824
:1000A000B1A00008B5A00008B9A00008BDA00008D4
:1000B000B3700008A9700008C1A00008C5A000081E
:1000C000C9A00008CDA00008D1A00008D5A0000854
:1000D000D9A00008F970000803710008DDA000082D
:1000E000E1A00008E5A00008E9A000082DE9F04122
:1000F0000400002503F048FDE4B22200134914482F
:1001000003F0C2FEFF2013498875114803F0D6FEA4
:1001100080B203F057FD0500EDB2002D02D028009B
:10012000C0B210E001260027DFF82C803A00310031
:10013000404603F0DFFE0748807D0E2801D000BF57
:10014000F9E72800C0B2BDE8F0810000109F000868
:10015000700B0020281B00203E1B00202DE9F04FD3
:100160008BB0040000250020029020780500DFF805
:10017000080E0068C0F3804000280FD1EDB2002DBA
:100180000CD0DFF8F80DDFF8F81D09684554DFF8EA
:10019000F00D0068401CDFF8E81D0860DFF8E40D92
:1001A00003F096FFDFF8D40DDFF8D41D096808448A
:1001B00010F8020C0D2840F03384DFF8C00DDFF892
:1001C000C01D0968084410F8010C0A2840F0288472
:1001D000DFF8A40D0068C0F30070002840F0208410
:1001E000DFF8A40D007810F00100002840F018841A
:1001F000DFF8981DDFF8840D03F079FF002867D041
:1002000003F06EF8DFF8740D01F01CFD03F058F8F0
:10021000DFF8640DD0F80100C0F30060002810D1B1
:1002200072B6DFF86C0DD0E9082311001A00DFF870
:10023000640D03F0B1FE62B6DFF8480D03F048FF2D
:100240001CE0DFF8340D0068C0F34000002815D131
:10025000DFF8300D03F03CFFDFF81C0DD0F8010093
:1002600030F08070DFF8101DC1F80100DFF8080DD4
:10027000006850F00200DFF8001D0860DFF8F80C9D
:10028000D0F80100C0F38060002809D1DFF8E80C45
:10029000D0F8010030F08070DFF8DC1CC1F80100FC
:1002A0000020DFF8DC1C0860DFF8CC0C006810F0E0
:1002B0000260B0F1026F09D1DFF8BC0C006830F0C9
:1002C0000060DFF8B41C086000F0C8BC01F0A3BCFB
:1002D000DFF8C81DDFF8A40C03F009FF002800F0C8
:1002E000C181DFF8BC1DDFF8940C03F000FF0600AD
:1002F00000282CD030798DF8040070798DF8050035
:100300009DF804000A219DF8052001FB0020DFF87C
:10031000801C91F8211060F30301DFF8740C80F861
:1003200021100F20DFF8681C81F8260072B6DFF874
:10033000600CD0E9082311001A00DFF8580C03F014
:100340002BFE62B6DFF83C0C03F0C2FE68E1DFF87A
:10035000541DDFF8280C03F0CAFE0600002800F048
:10036000A780707A8DF80000B07A8DF80100F07ADD
:100370008DF80200307B8DF803009DF801000D28F8
:1003800007D19DF800003038DFF81C1DC1F8A0002F
:1003900042E09DF802000D280DD19DF800000A21D1
:1003A0009DF8012001FB0020B0F50470DFF8F81C77
:1003B000C1F8A00030E09DF803000D2813D19DF88E
:1003C000000064219DF801200A235A4301FB00200C
:1003D0009DF802100818DFF8D41C0818DFF8C81CB4
:1003E000C1F8A00018E09DF800004FF47A719DF864
:1003F000012064235A4301FB00209DF802100A22C9
:1004000002FB01009DF803100818DFF8A41C08186F
:10041000DFF8941CC1F8A000DFF88C0CD0F8A00025
:10042000002808D0DFF8500B006850F40040DFF8D7
:10043000481B0860F4E0DFF8700CD0F8A00000283A
:1004400040F0EE80DFF8600CDFF85C1C0978C1F347
:10045000C201C9B2084490F8E90000281FD0DFF8B3
:10046000540CDFF8441C0978C1F3C201C9B2405CE6
:10047000002808D00221DFF8300C0078C0F3C20059
:10048000C0B203F031FBDFF8200CDFF81C1C097848
:10049000C1F3C201C9B20844002180F8E910DFF8B5
:1004A000D80A006830F00800DFF8CC1A0860B7E01E
:1004B00015A1DFF8C80A03F01AFE0600002825D0AF
:1004C0000320DFF8CC1A81F82600300003F0F6FC98
:1004D000B0F10B0716F10308DFF8DC9B3A00414648
:1004E000484603F00DFE72B6DFF8A42AD2E90801EF
:1004F0000A000100DFF89C0A03F04EFD62B6DFF847
:10050000840A03F0E5FD8BE0203D2000DFF8780A47
:100510000078C0F34000C0B2002864D0DFF8680A59
:100520004078C0F30010C0B2002871D0DFF8780B1B
:10053000C079C0F3C200C0B200280BD0DFF8680B4E
:10054000C07910F0C701083810F038000843DFF810
:10055000581BC871DFF8300A007810F0FD00DFF892
:10056000281A08700020DFF84C1BDFF83C2B52796A
:1005700012F00F028854DFF8300B407910F00F00B2
:10058000DFF8241B0871DFF8000A407810F0EF0054
:10059000DFF8F41948700220DFF8EC19C874DFF8AE
:1005A000D8098079C0F38000C0B200280AD0DFF8F3
:1005B000C809D0F8010050F08040DFF8BC19C1F83C
:1005C000010007E0DFF8B009807950F00400DFF89F
:1005D000A8198871DFF8A009006830F00800DFF87A
:1005E0009819086014E00220DFF8A41981F82600A9
:1005F00072B6DFF89C09D0E9082311001A00DFF871
:10060000940903F0C9FC62B6DFF8780903F060FDD5
:10061000DFF87409007810F0FD00DFF86C1908703D
:100620000020DFF85C1908604FF400775FF00008E5
:10063000DFF8489942463900484603F05BFCDFF892
:100640003809006810F00260B0F1026F08D1DFF8DD
:100650002809006830F00060DFF81C190860FDE22E
:1006600001F0D9BADFF8B41DDFF8100903F03FFD3F
:10067000002800F0EB80DFF8A81DDFF8000903F088
:1006800036FD002837D0DFF89C0D03F075FDDFF84C
:10069000F808007810F0FD00DFF8EC180870DFF8BB
:1006A000E808407810F0EF00DFF8DC184870DFF859
:1006B000C8088079C0F38000C0B2002807D1DFF8F5
:1006C000B808807950F00400DFF8AC188871012078
:1006D000DFF8D419DFF8D029527912F00F02114453
:1006E00081F8E900DFF89008006830F00800DFF8D2
:1006F0008818086088E0DFF8301DDFF8800803F014
:10070000F6FC002807D1DFF8241DDFF8700803F09D
:10071000EEFC002831D0DFF860080068C0F3C0406C
:10072000002871D0DFF85008006830F40020DFF8AE
:1007300048180860DFF84008006830F00800DFF86B
:1007400038180860DFF83008006830F40010DFF86F
:1007500028180860DFF82008006830F48020DFF8EF
:10076000181808600020DFF84019A1F89600002052
:10077000DFF83419C1F8B40046E0DFF8B41CDFF844
:10078000FC0703F0B4FC002803D0DFF8A80C03F04A
:10079000F3FC0820DFF8F81781F8260072B6DFF8BE
:1007A000F007D0E9082311001A00DFF8E80703F08A
:1007B000F3FB62B6DFF8CC0703F08AFCDFF8B8077A
:1007C0000068C0F3C000002807D0DFF8AC0700685D
:1007D00030F00800DFF8A0170860DFF89C07D0F8B9
:1007E0000200C0F3407000280ED0DFF88C07D0F86C
:1007F000020030F00050DFF88017C1F8020000203E
:10080000DFF8A418C1F8CC000020DFF874170860E6
:100810004FF400775FF00008DFF860974246390038
:10082000484603F067FBDFF85007006810F00260ED
:10083000B0F1026F08D1DFF84007006830F00060C7
:10084000DFF83417086009E201F0E5B9DFF8E81BCA
:10085000DFF8280703F04BFC002859D0DFF8DC1B39
:10086000DFF8180703F043FC0600002E04D0002038
:10087000DFF83418487203E00120DFF82C184872C2
:1008800066A1DFF8F80603F032FC0600002E04D063
:100890000020DFF81418887203E00120DFF8081840
:1008A00088720420DFF8E81681F8260072B6DFF8B7
:1008B000E006D0E9082311001A00DFF8D80603F09B
:1008C0006BFB62B6DFF8BC0603F002FC0020DFF829
:1008D000B01608604FF400775FF00008DFF89C96D0
:1008E00042463900484603F005FBDFF88C060068F5
:1008F00010F00260B0F1026F08D1DFF87C060068EA
:1009000030F00060DFF870160860A7E101F083B9ED
:10091000DFF86406006810F00260B0F1026F3CD1AD
:10092000DFF85406D0F80100C0F3C060002834D1CD
:10093000DFF87407B0F89800002814D072B6DFF81A
:100940006807B0F89810DFF8480603F043FD62B678
:10095000DFF85407B0F898705FF00008424639009D
:10096000200003F0C7FADFF81006D0F8020050F0BC
:100970008040DFF80416C1F80200DFF8FC050068CB
:1009800030F00060DFF8F0150860DFF8F40500686B
:10099000DFF81417A1F89C001FE0DFF8DC05407AAF
:1009A000C0F38000C0B2002817D0DFF8D405076874
:1009B0005FF00008DFF8C49542463900484603F06E
:1009C00099FA0020DFF8B8150860DFF8AC05407A26
:1009D00010F0FB00DFF8A0154872DFF8AC050078D6
:1009E00010F00100002840F03981DFF89C05007804
:1009F000C0F34010C0B2002800F030810020DFF8C2
:100A0000801508604FF400775FF00008DFF86C9500
:100A100042463900484603F06DFA1FE16F757400D5
:100A2000DFF85405407AC0F38000C0B2002830D10E
:100A3000DFF8E81DDFF8440503F059FB002828D053
:100A4000DFF8DC1DDFF8340503F051FB00281ED071
:100A50001D2003F073FD03F091FDDFF81C05407AC3
:100A600050F00400DFF810154872DFF8140507682D
:100A70005FF00008DFF8049542463900484603F06D
:100A800039FA0020DFF8F814086001F0C4B801F06A
:100A9000C2B8DFF8E404D0F80300C0F30060002817
:100AA00000F08980DFF87C1DDFF8D00403F01FFB25
:100AB000002850D1DFF8701DDFF8C00403F017FBE9
:100AC000002848D1DFF8641DDFF8B00403F00FFB05
:100AD000002840D1DFF8581DDFF8A00403F007FB21
:100AE000002838D1DFF84C1DDFF8900403F0FFFA3E
:100AF000002830D1DFF8401DDFF8800403F0F7FA5A
:100B0000002828D1DFF8341DDFF8700403F0EFFA75
:100B1000002820D1DFF8281DDFF8600403F0E7FA91
:100B2000002818D1DFF81C1DDFF8500403F0DFFAAD
:100B3000002810D1DFF8101DDFF8400403F0D7FAC9
:100B4000002808D1DFF8041DDFF8300403F0CFFAE5
:100B5000002800F08380DFF82004006850F0805007
:100B6000DFF814140860DFF81004006850F48020E7
:100B7000DFF804140860DFF80004D0F8030030F058
:100B80008070DFF8F413C1F803000520DFF81815B2
:100B9000A1F89A00DFF8E003D0F8020030F000502E
:100BA000DFF8D413C1F802000020DFF8FC14C1F80C
:100BB000CC0001F030B8DFF8C403DFF8C4130968D3
:100BC000084410F8010C09281CD1DFF8B003DFF845
:100BD000B0130968084410F8020C3A2812D1DFF863
:100BE0009C03DFF89C130968084410F8030C3128B3
:100BF00008D1DFF88403006850F00040DFF8781374
:100C000008602BE0DFF87003C079C0F38000C0B249
:100C100000280ED0DFF86403DFF864130968084485
:100C200010F8010C002819D10020DFF854130860D7
:100C300014E0DFF84C030068B0F5FF7F0ED9002008
:100C4000DFF83C1308604FF400775FF00008DFF82E
:100C50002C9342463900484603F04CF9C6480068D8
:100C6000C0F38040C00740F10781C348D0F80200BC
:100C7000C0F38070C00700F1FF80DFF82C04B0F8EB
:100C80009800DFF82414A1F89C00BD480068DFF844
:100C90001814B1F89C100818B0F5007F24D3B84898
:100CA0000068DFF80414B1F89C100818A0F2FF17D0
:100CB00072B63900B64803F08DFB62B65FF00008EB
:100CC000AF4800684042204400F2FF194246390014
:100CD000484603F00FF940F2FF10A9490968401A8D
:100CE000DFF8C413A1F89C00DFF8BC03B0F89C70D7
:100CF000DFF85C8BA148A249096800EB01093A00C2
:100D00004146484603F0FCF99D480068DFF8981317
:100D1000B1F89C1008189A490860994800680128A1
:100D200004D1964800780D2800F07587DFF8F01D93
:100D3000924803F0DCF900280ED08F48006830F0AC
:100D400000608D4908608C48D0F8010030F00060E8
:100D50008949C1F801008FE08B480078C00700F195
:100D60008B8085480068C0F30070C00700F1848064
:100D700082480078002800F07F80804800780D28A5
:100D80007AD17E4840780A2876D1C748D0F8A400A6
:100D9000022871D07848D0F8010050F00060764900
:100DA000C1F80100BCA1DFF87C0D03F0A0F906003A
:100DB00000283BD07148301A871CDFF86C1DDFF823
:100DC000640D03F094F900280BD0B4496B48384403
:100DD00003F08DF90600002E03D06848301A801DFC
:100DE000070067480068C01B002817D072B6644827
:100DF0000068C11B664803F0EDFA62B660480068FF
:100E0000B0EB07085FF000095C4800EB070A4A46B0
:100E10004146504603F06EF8594807605648D0F8EE
:100E2000010030F000605449C1F8010052480068E8
:100E300050F00060504908605148006840F2FF11CE
:100E4000884219D14C48D0F80100C0F3C060002896
:100E500012D04948D0F8010030F000604649C1F88E
:100E600001004548006830F000604349086040F2E6
:100E7000FF108D49A1F89C003F48006810F0026007
:100E8000B0F5001F40F0DC823F48007850F00100D0
:100E90003D4908708448D0F8B0008349B1F89C10EF
:100EA00008188149C1F8B000DFF8741C33487E4A45
:100EB000B2F89A201044401F03F019F90600002EE2
:100EC00000F0FC802D482E490968084410F8020CF7
:100ED0000D2840F0F380294829490968084410F892
:100EE000010C0A2840F0EA80DFF8301D234803F0A7
:100EF000FEF8060000281BD0F07E00280DD01F4809
:100F0000371A1F48006817F11B01B0EB010872B6D1
:100F100041461F4803F05EFA62B61B48407850F025
:100F20000100194948700D205F4981F8E80050E040
:100F3000DFF8EC14114803F0DAF8060000282BD093
:100F4000F07D00280DD00D48371A0D48006817F1C4
:100F50001701B0EB010872B641460D4803F03AFAAA
:100F600062B601205049504A527912F00F021144E2
:100F700081F8E9002DE000BF781B002070130020ED
:100F8000BC1B0020FC190020281B0020A89F000883
:100F9000DC190020F0190020DFF8841CDFF8840C35
:100FA00003F0A5F80600002813D0F07D002810D02B
:100FB000DFF8700C371ADFF8700C006817F11701B2
:100FC000B0EB010872B64146DFF83C0E03F002FABE
:100FD00062B600203449C1F8B00000203249C1F89F
:100FE000A00000203049C1F8A40005202E49A1F836
:100FF0009A00DFF8380C006830F40010DFF82C1C81
:101000000860DFF8280C006830F00800DFF81C1CCE
:101010000860DFF8180C006830F48020DFF80C1C42
:1010200008600020DFF8081C4860DFF8040C007836
:1010300010F0FE00DFF8F81B0870DFF8F00B006816
:10104000C0F3C040002815D0DFF8E00B006830F492
:101050000020DFF8D81B086000201349C1F8A80061
:10106000DFF8C80B006850F00100DFF8C01B086013
:1010700002F018FEDFF8B00B07685FF00008DFF839
:10108000A49B42463900484602F034FF0020DFF8B6
:10109000981B086000F0BFBD0D0A0000B09F00085B
:1010A000B89F00081C9F00080017002030EBFFFFCE
:1010B000B02FFFFF8C1B00200E170020DFF8680BFD
:1010C0000068062808D3002E06D1DFF85C0B006804
:1010D000DFF8641BA1F89A00DFF85C0BD0F8B000D1
:1010E000DFF8541BD1F8A4108842C0F02081DFF84B
:1010F000480BD0F8A400DFF8401BD1F8B0108842AC
:1011000025D2DFF8340BD0F8B000DFF82C1BD1F873
:10111000A410471A72B63900DFF8EC0C03F05AF944
:1011200062B65FF00008DFF8FC0ADFF8FC1A096815
:10113000C91B00EB010942463900484602F0DAFEBD
:10114000DFF8E40A0068C01BDFF8DC1A0860DFF88B
:10115000D80A0068DFF8E01AA1F89600DFF8D80A8C
:10116000D0F8A400DFF8D01AC1F8B400DFF8B80A4C
:101170000768DFF8B08ADFF8C49A3A00414648466B
:1011800002F0BEFF0020DFF8A01A08600020DFF8A0
:10119000A81AC1F8B0000020DFF89C1AC1F8A0001E
:1011A0000020DFF8941AC1F8A4000020DFF8881AA4
:1011B000A1F89C000520DFF8801AA1F89A00DFF85A
:1011C0006C0A006830F00060DFF8601A0860DFF831
:1011D0005C0A006830F48020DFF8501A0860DFF8FD
:1011E000580AC07850F00700DFF84C1AC870DFF8D2
:1011F0003C0A0068C0F3C040002830D00020DFF86F
:10120000381AC1F8A800DFF8300A407810F0C7009B
:10121000DFF8241A4870DFF8180A4068002806D062
:10122000DFF80C0A4068401EDFF8041A4860DFF857
:10123000000A4068002809D1DFF8F009006850F082
:101240000100DFF8E819086002F02CFDDFF8DC0986
:10125000006830F48000DFF8D41908601CE0DFF883
:10126000CC09006850F48000DFF8C0190860DFF88E
:10127000C8090078C0B2C008DFF8BC19497860F32B
:10128000C501DFF8B4094170DFF8A409007850F017
:101290000200DFF89C190870DFF89009006830F44C
:1012A0000010DFF888190860DFF88409007810F072
:1012B000FE00DFF87C19087002F01FF8DFF86C09F7
:1012C0000068C0F3C04000281AD0DFF86009D0F8E9
:1012D000010050F00050DFF85419C1F80100DFF8A8
:1012E0004C09006830F00800DFF840190860DFF8AA
:1012F0003C09006830F40020DFF83019086009E08C
:10130000DFF82809D0F8010050F08050DFF81C19F0
:10131000C1F801004FF400775FF00008DFF804998E
:1013200042463900484602F0E5FD00F074BCDFF8A3
:10133000F8080068B0F5FF7F6DD90520DFF8F818D0
:10134000A1F89A00DFF8F008D0F8A400DFF8E81858
:10135000C1F8B40040F2FF10DFF8DC18A1F89600E5
:10136000DFF8C4080768DFF8BC88DFF8D0983A00D7
:101370004146484602F0C4FE0020DFF8AC18086081
:101380000520DFF8B418A1F89A00DFF8AC08C0789F
:1013900050F00700DFF8A018C87001F0AEFF4FF45E
:1013A00000795FF0000ADFF87CB85246494658469B
:1013B00002F0A0FDDFF874080068C0F3C040002808
:1013C00012D0DFF87408407810F0C700DFF8681812
:1013D0004870DFF85808D0F8010050F00050DFF8EE
:1013E0004C18C1F8010016E0DFF84C080078C0B2D4
:1013F000C008DFF84418497860F3C501DFF8380801
:101400004170DFF82808D0F8010050F08050DFF874
:101410001C18C1F8010000F0FEBB00BFC09F00080F
:10142000B89A00088C940008749600084C9500083F
:10143000C89F000818980008D09F0008D89F00088F
:10144000DFF8E8070068C0F30070002800F00282AF
:10145000DFF8DC07007850F00100DFF8D4170870DF
:10146000DFF8DC17DFF8BC07DFF8CC27B2F89A20EA
:101470001044401F02F03BFE0600002800F0AB8045
:10148000F079002823D0DFF89C07371ADFF8980797
:101490000068B91DB0EB010872B64146DFF8680973
:1014A00002F098FF62B65FF00009DFF87807384471
:1014B00010F1070A4A464146504602F01BFDDFF88C
:1014C00068070068B0EB0800DFF85C170860DFF819
:1014D00058070068DFF86017A1F89600DFF84807A2
:1014E0000768DFF84087DFF854973A0041464846DE
:1014F00002F006FEDFF830070068DFF83C17A1F8BD
:101500009200DFF82C07407850F00100DFF8201738
:101510004870DFF81807006830F48020DFF80C17F7
:101520000860DFF80807006830F08050DFF8FC162C
:10153000086001F0E2FE0020DFF8FC1681F8E80008
:10154000DFF8EC06007810F0FE00DFF8E416087013
:10155000DFF8D806006830F00060DFF8D0160860C9
:10156000DFF8C806006830F00800DFF8C016086031
:101570000520DFF8C416A1F89A00DFF8AC06D0F811
:1015800000905FF0000ADFF89CB652464946584684
:1015900002F0B0FC0020DFF890160860DFF88C063F
:1015A0000068C0F3407000280AD0DFF88006D0F849
:1015B000020050F08060DFF87416C1F802009BE072
:1015C000DFF86806D0F8020050F00070DFF85C1613
:1015D000C1F8020090E0DFF8941BDFF84806DFF85E
:1015E0005826B2F89A201044401F02F080FD0600F1
:1015F000002800F08180DFF83406006830F4802095
:10160000DFF828160860DFF81C06DFF81C160968EA
:10161000084410F8020C0D286ED1DFF80806DFF838
:1016200008160968084410F8010C0A2864D1DFF88C
:101630000006407850F00100DFF8F41548700D20E6
:10164000DFF8F41581F8E800DFF8E405007810F021
:10165000FE00DFF8DC150870DFF8D005006830F414
:101660008020DFF8C8150860DFF8C005006830F09A
:101670000060DFF8B81508600020DFF8AC150860DE
:101680000520DFF8B415A1F89A00DFF8A00500687E
:1016900030F08050DFF894150860DFF8900500689E
:1016A00030F00800DFF8841508604FF400775FF031
:1016B0000008DFF8709542463900484602F01AFCEF
:1016C000DFF868050068C0F3407000280AD0DFF832
:1016D0005C05D0F8020030F08060DFF85015C1F8EA
:1016E000020009E0DFF84405D0F8020030F0007095
:1016F000DFF83815C1F80200DFF82C05006806286D
:1017000001D3012000E00020002E01D1012100E0E2
:101710000021C0B2084206D0DFF80C050068DFF8EF
:101720001815A1F89A00DFF80005006840F2FF11D3
:10173000884272D1DFF8F00400680A90DFF8E40410
:101740000990DFF8F8740A9A0999380002F0D8FC79
:1017500006200890DFF8180A0790DFF8187A089A30
:101760000799380002F0CCFC062006900020059076
:10177000DFF8FC79059A0699380002F0BBFB4FF4BC
:101780000070049000200390DFF89874039A049985
:10179000380002F0AFFB0627DFF8D889DFF8849421
:1017A0003A004146484602F0ABFC5FF006095FF0A4
:1017B000000ADFF8C0B952464946584602F09AFB83
:1017C0000620DFF8641408600520DFF86C14A1F827
:1017D0009A0040F2F910DFF86014A1F8920001F0CD
:1017E0008CFDDFF848040068C0F3407000280AD080
:1017F000DFF83804D0F8020050F08060DFF82C14D5
:10180000C1F8020009E0DFF82404D0F8020050F02B
:101810000070DFF81814C1F80200FCE1289F0008EE
:10182000E09F0008E89F0008F09F0008689C0008FF
:10183000F89F00087C9C0008489E0008589E0008FD
:10184000D09A000818990008909C0008E89A0008AF
:1018500070110020DFF8D4030068C0F3C060C00737
:1018600000F18581DFF8C4030068002840F17F8122
:10187000DFF8B003DFF8B0130968084410F8020C71
:101880000D2840F06181DFF89C03DFF89C130968A4
:10189000084410F8010C0A2840F05681DFF8D808F7
:1018A00002F0A9FEDFF89003407BDFF88C13097B80
:1018B000884280F0D980DFF8C418DFF8680302F0AE
:1018C00016FC0600002E10D0B0798DF80000F079DB
:1018D0008DF801009DF800000A219DF8012001FB10
:1018E00000201038DFF898180870DFF894080078A6
:1018F000DFF890180968D04A527B2C235A43885449
:10190000DFF88418C74802F0F2FB0600002E0FD063
:10191000F0798DF80000307A8DF801009DF8000014
:101920000A219DF8012001FB0020B0F5047002900F
:10193000DFF850080068C049497B2C225143084415
:10194000029949424160DFF84418B64802F0CFFBE3
:101950000600002E26D00720DFF834180870DFF8C4
:1019600030080078305C27281CD0DFF818080068A1
:10197000B149497B2C2251430844DFF814180978F7
:101980000844DFF80C180978715C4170DFF8000832
:101990000078401CDFF8F8170870DFF8F4070078CB
:1019A0002328DCD1DFF8EC179E4802F0A0FB0600EC
:1019B000002E0BD0DFF8CC0700689F49497B2C2212
:1019C00051430844012180F826100AE0DFF8B407EB
:1019D00000689949497B2C2251430844002180F832
:1019E0002610DFF8B4178F4802F081FB0600002EA6
:1019F0000BD0DFF8900700688F49497B2C225143B8
:101A00000844012180F827100AE0DFF87807006811
:101A10008949497B2C2251430844002180F8271032
:101A2000DFF878177F4802F062FB0600002E0BD02B
:101A3000DFF8500700688049497B2C225143084455
:101A4000012180F828100AE0DFF8380700687A4999
:101A5000497B2C2251430844002180F82810764805
:101A6000407B401C74494873DFF800176D4802F052
:101A70003EFB0600002E24D04FF400775FF00008F4
:101A8000DFF8A09142463900484602F033FA0020C0
:101A9000654908606648407850F001006449487024
:101AA0006248006820F00040604908605F480068B4
:101AB00030F400705D4908600D205F4981F8E8004E
:101AC000A9E0DFF8DC16574802F011FB00282DD002
:101AD0005648006830F400705449086000205649A8
:101AE00048730020504908605148407850F0010088
:101AF0004F4948704D48006820F000404B4908604D
:101B000000204D4981F8E8004FF400775FF00008AD
:101B1000DFF8109142463900484602F0EBF97AE0CE
:101B200000A0000872130020349F000800203E49E6
:101B300008604FF400775FF00008DFF8E890424655
:101B40003900484602F0D6F937480068B0F5FF7F03
:101B50000DD90020344908604FF400775FF0000889
:101B6000DFF8C09042463900484602F0C3F92F48DA
:101B7000006810F04060B0F1806F4CD12DA002F0F1
:101B8000FBFADFF82016274802F0B1FA0600002819
:101B90002DD02648006830F4802024490860214870
:101BA00021490968084410F8020C0D281FD11D486E
:101BB0001D490968084410F8010C0A2817D1DFF8FC
:101BC000E80502F0D9FA1948006830F0806017493A
:101BD00008600020144908604FF400775FF00008A7
:101BE000DFF8409042463900484602F083F90E483B
:101BF000006840F2FF1188420DD100200A490860B8
:101C00004FF400775FF00008DFF818904246390083
:101C1000484602F06FF90BB0BDE8F08F3499000828
:101C2000009B000870130020BC1B0020781B0020C4
:101C3000281B00202A00000000170020700F002041
:101C4000B09F00082DE9FC470400250026004FF056
:101C5000FF08002E00F08882DFF85015280002F0FF
:101C600046FA0600002E00F07F8270798DF804009D
:101C7000B0798DF805009DF805003A2804D19DF84B
:101C800004003038804609E09DF804000A219DF8E0
:101C9000052001FB0020B0F5047080465A4880F80A
:101CA00020800120584981F826000FFA88F8404624
:101CB0000028032840F23282001F012840F24A82A5
:101CC000801E012840F22A82801E012840F24282B2
:101CD000801E00F03282401E012840F23B82801EAE
:101CE000012840F21B82801E00F03482401E03282F
:101CF00040F21482001F00F02D82401E00F00E8280
:101D0000401E012840F22682C01E00F00782401EBD
:101D1000012840F21F82801E00F0A081801E00F08A
:101D2000FD81401E012840F21582801E012840F2EC
:101D3000F581801E012840F20D82801E00F0EE81A8
:101D4000401E00F00782401E00F0E881401E04287B
:101D500040F20082401F012840F2E081001F052868
:101D600040F2DC81801F20D0801E00F0AF81401E39
:101D70002FD0401E00F01081401E00F02B81401E2D
:101D8000012840F29381C01E31D0801E00F0C68130
:101D9000401E00F0AD81401E00F0B581001F00F034
:101DA0007181801E00F0BA81D5E1DFF804142800AB
:101DB00002F09DF9060070798DF800009DF8000092
:101DC000114991F8211060F303010F4880F82110A8
:101DD000C1E1B07D8DF800009DF800000A4991F83E
:101DE000211060F30301084880F82110B3E1DFF807
:101DF000C403D0F80100C0F30060002806D0DFF86B
:101E0000B80302F0B9F9AFE1DC190020DFF8A40350
:101E1000D0F80100C0F34060002805D00020DFF8B2
:101E20009C13C1F8AC0011E0DFF88803006850F0A3
:101E30000800DFF880130860DFF87803D0F80100AD
:101E400050F00070DFF86C13C1F80100DFF8601388
:101E5000280002F04CF90600002E00F09C807079FA
:101E60008DF800009DF800003038DFF8541381F839
:101E70002200307A8DF80000707A8DF80100B07A77
:101E80008DF80200F07A8DF803009DF800003A28E2
:101E900006D1F0798DF80000307A8DF801002EE03F
:101EA0009DF801003A2809D1F0798DF80000307AC8
:101EB0008DF80100707A8DF8020020E09DF8020094
:101EC0003A280CD1F0798DF80000307A8DF80100B5
:101ED000707A8DF80200B07A8DF803000FE09DF85B
:101EE00003003A280BD1F0798DF80000307A8DF894
:101EF0000100707A8DF80200B07A8DF803009DF829
:101F000001003A2805D19DF800003038AC4988849A
:101F10003CE09DF802003A280BD19DF800000A2110
:101F20009DF8012001FB0020B0F50470A4498884CD
:101F30002CE09DF803003A2811D19DF8000064219F
:101F40009DF801200A235A4301FB00209DF802104E
:101F5000081841F2D041401A9949888416E09DF84A
:101F600000004FF47A719DF8012064235A4301FB6D
:101F700000209DF802100A2202FB01009DF80310C8
:101F8000081800F53C50B0308D4988848D48406871
:101F9000401C8C494860DEE08A48007850F08000A0
:101FA000884908708748007810F0DF00854908707C
:101FB0000020844948607F48006830F002007D4975
:101FC00008607C48D0F8010050F080707949C1F871
:101FD0000100C0E07B48007810F07F00794908706C
:101FE0007848007850F02000764908707148006801
:101FF00030F002006F4908606E48D0F8010050F0E0
:1020000080706C49C1F801006A480078C00708D5A3
:102010006C480078C0B2C009C0B2002801D101F0FC
:1020200041FE64480068C0F3C040002815D0052078
:102030006249A1F89A005F48006850F480205D4929
:1020400008605C48006850F400105A4908605B481A
:10205000D0F8A8005949C1F8A4007CE05A492800EA
:1020600002F045F8060011200700222F06DAF05D85
:102070005249394481F83E007F1CF6E70B20514954
:10208000887568E05149280002F031F806001120F7
:102090000700222F06DAF05D4849394481F83E00F6
:1020A0007F1CF6E70C204749887554E04148D0F87A
:1020B0000100C0F30060002807D03E48D0F80100BE
:1020C00030F080703B49C1F8010044E000204049F5
:1020D00008703848006830F002003649086035481A
:1020E000D0F8010050F080703249C1F8010032E0B0
:1020F0000A20334981F826002E48C07950F00400A8
:102100002C49C87127E009202D4981F8260029486B
:10211000C07910F0FB002749C8711CE02548006811
:1021200030F00200234908602248D0F8010050F046
:1021300080702049C1F801000DE01E480068C0F31E
:10214000C000002805D01B48006830F0080019497D
:10215000086000E0FFE74FF400795FF0000A5246A4
:102160004946280001F0C6FEBDE8F387C09F00087D
:10217000691100209C1B00205400002008A00008CA
:10218000D31B0020B81B002010A0000818A00008D6
:10219000D21B002020A0000828A0000830A00008C2
:1021A00038A00008409F0008A49C0008A89F0008D1
:1021B00040A00008781B002048A00008001700205D
:1021C000DC190020281B00204C9F0008589F0008A5
:1021D000CD1B002070B54FF48061DFF8A00201F044
:1021E000DDFFDFF89C02407810F0F100DFF890127C
:1021F00048700020DFF88C12087000F02AF900F017
:1022000087F800F016F832219F4801F0A7FE01F090
:1022100057F8082400259D4E2A002100300001F0C7
:1022200069FE9B4802F020FA002801D001F0C3FCAF
:1022300070BD9348007850F00800914908709048AC
:10224000007850F080008E4908708D48007810F0BA
:10225000BF008B49087000208949487400208849D4
:1022600088740020864948608548407810F0FE0058
:1022700083494870FF208249887502208049C874CC
:1022800002207F49087500207D49487500207C495F
:10229000C8608048006850F001007E4908607D48B1
:1022A000006850F002007B4908607A48D0F80200CC
:1022B00030F000507749C1F802007648007A10F0FB
:1022C000FE00744908727348807950F00400714927
:1022D00088717048C07910F07F006E49C8716D48F0
:1022E000007A10F0FD006B4908726A48007A10F01D
:1022F000FB00684908726748007A10F0F7006549EA
:1023000008726448407A10F0FB00624948727047D6
:102310002DE9F0416048C07910F0C7005E49C871EE
:1023200000205D49C1F8AC0000205B49C1F8A00065
:1023300000205949C1F8A80000205749C1F8B80049
:1023400000205549C1F8B00000205349A1F8980079
:1023500000205149C1F8BC0000204F49C1F8C40019
:1023600000204D49C1F8C80000204B4948730020A7
:102370004949C1F8CC0000204749A1F894004FF426
:1023800080504549C1F8E40005204349A1F89A006E
:1023900008240125414E2A002100300001F0AAFD49
:1023A00001260027DFF8F8803A003100404601F0AE
:1023B000A1FDBDE8F08180B53A48006850F01000FA
:1023C000384908603748006810F010000090009805
:1023D0003448006850F00400324908603148006811
:1023E00010F00400009000984FF4805023490863D7
:1023F00001202249486301202049886303201F49A6
:10240000C8632949294802F02FFA00201D490870A5
:10241000FF201B49887500224FF48051234802F0A9
:1024200011FCC82002F038FC01224FF480511F48F3
:1024300002F008FC322002F02FFC4FF480511B48C0
:1024400002F06FFB0E48807D0E2801D000BFF9E737
:1024500001BD80B500224FF48051154802F0F2FB17
:1024600001221449144802F0BCFD002805D1094896
:10247000006850F480500749086001BDDC19002055
:10248000281B0020CD1B0020F01900208C1B0020F1
:102490001C1A0020781B002000170020941B00202D
:1024A000D11B0020181002400C1A0020001001401F
:1024B000000801404E1700209C1900202DE9F04330
:1024C00083B0040000250026DFF8080E0068C0F382
:1024D000C000002840F0628472B6DFF8FC0D01F005
:1024E000A6FDDFF8F81D886262B6DFF8F00D806A9D
:1024F000002800F05384DFF8E40D806A8079012819
:1025000038D0022800F02E84032800F02B84042801
:1025100000F02884062800F00481082800F01084C8
:10252000092800F032840A2800F02E840C2800F0DC
:1025300024830D2800F081830E2800F094820F2858
:1025400049D0102800F09D81142800F058811528EA
:1025500000F01382162800F08A80172800F0D1813D
:102560001C2800F05F821D280BD0282800F0AB83C8
:1025700000F014BCDFF8640D806A01F029F800F067
:102580000DBCDFF8580D806A407810F00F00DFF8BE
:10259000881D097860F30201DFF87C0D01700120CD
:1025A000DFF8181DDFF8342D926A527812F00F020E
:1025B00088540020DFF8641D4875DFF8600D40780E
:1025C00050F00100DFF8541D48700020DFF8481D6E
:1025D00081F8E800E2E3DFF8400DC079C0F3C20003
:1025E000C0B208280DDBDFF8340D407850F0010050
:1025F000DFF8281D48700420DFF81C1D81F8E80072
:10260000CCE3DFF8140DC07910F0C701083010F0EA
:1026100038000843DFF8001DC8710120DFF8001DF5
:10262000DFF8B82C926A527812F00F028854DFF863
:10263000AC0C806A407810F00F00DFF8DC1C0978E1
:1026400060F30201DFF8D00C01700020DFF8CC1C31
:102650004875DFF8C80C407850F00100DFF8BC1C6A
:1026600048700020DFF8B01C81F8E80096E3DFF83E
:10267000640CD0F8020030F00050DFF8581CC1F8AC
:1026800002000020DFF8901CC1F8CC00DFF8880CB5
:10269000007A10F0070004280DDBDFF8800C40788A
:1026A00050F00100DFF8741C48700420DFF8681C4B
:1026B00081F8E80072E3DFF8600C007A10F0F801AE
:1026C000401C10F007000843DFF84C1C0872012082
:1026D000DFF8501CDFF8042C926A527812F00F02D7
:1026E0008854DFF8F80B806A407810F00F00DFF8AC
:1026F000281CC97960F30201DFF81C0CC1710020AD
:10270000DFF8181C4875DFF8140C407850F0010011
:10271000DFF8081C48700020DFF8FC1B81F8E80097
:102720003CE301F031FADFF8F00BC07A012811D157
:10273000DFF8E40BD0F8C0000090DFF8DC0B436E4C
:10274000DFF8D40B026EDFF8F41CDFF8F40C01F0B4
:102750009BFB15E0DFF8C00BC07A002810D1DFF832
:10276000B80BD0F8C0000090DFF8AC0B436EDFF878
:10277000A80B026EDFF8CC1CDFF8C40C01F084FB60
:10278000DFF8BC0C01F09AFB80B201F01BFA0500E7
:10279000EDB2002D25D10020DFF87C1BC1F8CC0064
:1027A000DFF8300BD0F8020050F00050DFF8241BA7
:1027B000C1F80200DFF81C0B006850F00800DFF8D9
:1027C000141B0860DFF80C0BD0F8030050F0807089
:1027D000DFF8001BC1F803000620DFF8401B487536
:1027E0000CE00D20DFF8301B81F8E800DFF82C0B3F
:1027F000407850F00100DFF8241B4870CEE201F071
:10280000C3F9DFF8140BB0F88C30DFF80C0B8078CC
:1028100010F00702DFF8E81CDFF8240C01F034FBAD
:10282000DFF81C0C01F04AFB80B201F0CBF9050087
:10283000EDB2002D11D101F0A7F9DFF8DC0AB0F8F4
:102840008C20DFF8D40AD0F88810DFF8B80C02F03A
:1028500090FB002801D00F200500EDB2002D02D121
:10286000F6B2002E0CD0DFF8B40A407850F0010028
:10287000DFF8A81A48700D20DFF89C1A81F8E800EC
:102880008CE201F081F9DFF8900AC06E0090DFF869
:10289000880AD0F8C030DFF8800A026EDFF8681CC2
:1028A000DFF89C0B01F0F0FADFF8940B01F006FB67
:1028B00080B201F087F90500EDB2002D0DD0DFF8F0
:1028C0005C0A407850F00100DFF8501A48700D2083
:1028D000DFF8441A81F8E80012E01020DFF83C1A13
:1028E00048750020DFF8301AC1F8CC00DFF8E409A1
:1028F000D0F8020050F00050DFF8D819C1F80200FB
:102900004CE201F041F9DFF8100AC36EDFF8080A63
:10291000D0F8C020DFF88C1CDFF8240B01F0B4FAEB
:10292000DFF81C0B01F0CAFA80B201F04BF9050088
:10293000EDB2002D0DD0DFF8E409407850F0010031
:10294000DFF8D81948700D20DFF8CC1981F8E800BD
:1029500012E01720DFF8C41948750020DFF8B81915
:10296000C1F8CC00DFF86C09D0F8020050F000503C
:10297000DFF86019C1F8020010E2DFF8A409DFF8FF
:102980005C19896A497811F00F01405C002844D035
:1029900001F0FAF8DFF84409806A407810F00F027D
:1029A000DFF8041CDFF8980A01F06EFADFF8900AED
:1029B00001F084FA80B201F005F90500EDB2002DB6
:1029C0002FD10020DFF8501981F8E800DFF8040962
:1029D000006850F00800DFF8FC180860DFF8FC0819
:1029E000806A407810F00F00DFF82C19497960F305
:1029F0000301DFF824094171DFF82009407850F025
:102A00001000DFF818194870DFF81009007850F04E
:102A10000200DFF80819087003E0DFF8900B01F0FE
:102A2000ABFBBBE101F0B0F8DFF8841BDFF8100A64
:102A300001F02AFADFF8080A01F040FA80B201F04A
:102A4000C1F80500EDB2002D0CD10020DFF8C81848
:102A500081F8E800DFF87C08006850F00800DFF833
:102A6000741808609AE101F08FF8DFF8AC08B0F84C
:102A70008C30DFF8A408026FDFF8381BDFF8C009DC
:102A800001F002FADFF8B80901F018FA80B201F09B
:102A900099F80500EDB2002D0DD0DFF880084078E0
:102AA00050F00100DFF8741848700D20DFF8681846
:102AB00081F8E80060E000F00DFD0500EDB2002DAA
:102AC0000CD0DFF85808407850F00100DFF84C18BF
:102AD00048700D20DFF8401881F8E800DFF838086A
:102AE000B0F88C30DFF83008026FDFF8CC1ADFF86E
:102AF000500901F0C9F9DFF8480901F0DFF980B2A7
:102B000001F060F80500EDB2002D0CD0DFF80C08E4
:102B1000407850F00100DFF8041848700D20DFF80D
:102B2000F81781F8E80001F02FF8DFF8EC07B0F8AB
:102B30008C70DFF8E407D0F88880DFF804993A0059
:102B40004146484601F0DCFADFF8F40801F0B6F936
:102B500080B201F037F80500EDB2002D0CD0DFF89F
:102B6000BC07407850F00100DFF8B01748700D2026
:102B7000DFF8A41781F8E80010E101F005F8DFF8AC
:102B80009807006F002806D1DFF8301ADFF8B00888
:102B900001F07AF91FE0DFF88007006E002809D104
:102BA000DFF87407026FDFF8181ADFF8940801F0F5
:102BB0006BF910E0DFF86007D0F8C0000090DFF894
:102BC0005807036FDFF85007026EDFF8F819DFF8D7
:102BD000700801F059F9DFF8680801F06FF980B268
:102BE00000F0F0FF0500EDB2002D18D1DFF8E4068B
:102BF000006850F00050DFF8DC160860DFF8D406FB
:102C0000006850F48020DFF8CC160860DFF8C406B6
:102C1000006850F08050DFF8BC1608600CE0DFF868
:102C2000FC06407850F00100DFF8F01648700D20E7
:102C3000DFF8E41681F8E800B0E000F0A5FFDFF867
:102C4000D80690F9840010F1010F23D1DFF8C806EF
:102C500090F9850010F1010F1CD1DFF8BC06006F60
:102C6000002804D0DFF8B006406F002812D1DFF84A
:102C7000A806006F00280DD0DFF89C06406F0028E2
:102C800008D1DFF89406026FDFF83C19DFF8B007CF
:102C900001F0FAF8DFF8A80701F010F980B200F0AF
:102CA00091FF0500EDB2002D0CD0DFF870064078E2
:102CB00050F00100DFF8641648700D20DFF8581658
:102CC00081F8E8006AE000F05FFFDFF84C06D0F81A
:102CD000C0000090DFF84006036FDFF83C06026E8C
:102CE000DFF8E818DFF8580701F0CEF8DFF85007F2
:102CF00001F0E4F880B200F065FF0500EDB2002DB0
:102D000010D1DFF8D005006850F08060DFF8C415FE
:102D10000860DFF8C005006850F48020DFF8B415C3
:102D200008600CE0DFF8F405407850F00100DFF8AF
:102D3000EC1548700D20DFF8E01581F8E8002DE073
:102D4000DFF8D805407850F00100DFF8D015487062
:102D50000D20DFF8C41581F8E8000020DFF8BC156D
:102D600048751BE0DFF8B405407850F00100DFF84B
:102D7000AC1548700020DFF8A01581F8E8000020AD
:102D8000DFF89815487509E008E0DFF848050068A5
:102D900050F02000DFF83C150860FFE7DFF834054D
:102DA0000068C0F3C03000280FD0DFF828050068A5
:102DB00030F40040DFF81C150860DFF85C05D0F83F
:102DC000A00080B202F02CFE52E1DFF80805006896
:102DD000C0F38050002812D0DFF840050078C0F31F
:102DE000C000C0B200280AD0DFF8E804006830F460
:102DF0008000DFF8E014086002F05AFE38E1DFF8E6
:102E0000D404D0F80100C0F3007000282FD0DFF800
:102E1000C404D0F8010030F08050DFF8B814C1F8D5
:102E2000010002200190DFF8F004B0F89600009055
:102E3000DFF8E404D0F8B430DFF8582CDFF8D80419
:102E40004078C0F3C200010049B25FF0FF3003F0E8
:102E5000DEFA4FF400775FF00008DFF8389C424656
:102E60003900484601F046F800F04EFA00E1DFF87C
:102E70006404D0F80100C0F34070002834D0DFF8BB
:102E80005404D0F8010030F00050DFF84814C1F8C5
:102E9000010002200190DFF88004B0F89600009055
:102EA000DFF87404D0F8B430DFF8E82BDFF86804FA
:102EB0004078C0F3C200010049B2DFF85C0490F929
:102EC000030040F3020040B203F0A1FA4FF4007790
:102ED0005FF00008DFF8BC9B42463900484601F02D
:102EE00009F800F011FAC3E0DFF8E803D0F80100B8
:102EF000C00F00281CD0DFF82804DFF81C148979E3
:102F000011F00701405C002807D00221DFF8080417
:102F1000807910F0070000F0E7FDDFF8B803D0F883
:102F2000010020F00040DFF8AC13C1F801009FE081
:102F3000DFF8A003D0F80100C0F3807000281BD098
:102F40000221DFF8540B03F051FB0220DFF8CC1311
:102F5000C874DFF88003D0F8010030F08040DFF85B
:102F60007413C1F80100DFF86C03006830F008004A
:102F7000DFF8601308607BE0DFF85803D0F8020048
:102F8000C0F34060002835D0DFF84803D0F80200D5
:102F900030F00070DFF83C13C1F80200CD48006843
:102FA000C0F34070002804D0DFF8E80A03F01FFBEC
:102FB00012E0C8480068C0F38070002804D0DFF831
:102FC000D40A03F015FB07E0DFF84C03B0F89210C9
:102FD000DFF8C00A03F00DFB4FF400775FF0000844
:102FE000DFF8B09A42463900484600F083FF00F00F
:102FF0008BF93DE0B748D0F80200C0F380600028AC
:1030000019D0DFF8900A03F0F2FA4FF400775FF07E
:103010000008DFF8809A42463900484600F06AFF0F
:1030200000F072F9AB48D0F8020030F08060A94996
:10303000C1F802001CE0A7480068C0F34030002837
:1030400008D003F019FAA348006830F40050A149F1
:1030500008600DE09F480068C0F38030002807D06A
:1030600003F012FA9B48006830F4804099490860E8
:10307000AA48807D002800F09380012800F0978006
:10308000022800F09B80032800F09F80042800F0B5
:10309000A380052800F0A780062800F0B28007284A
:1030A00000F0B680082800F0BA8009284AD00A2823
:1030B00054D00B2858D00C285ED00D2800F09A80F0
:1030C0000E282BD00F2800F0F680102800F0AE80DC
:1030D000112800F0B980122800F0BD80132800F0FC
:1030E000C180142800F0E780152800F0A68016287B
:1030F00000F0BF80172800F0C380182800F0C780B8
:10310000192800F0CB801A2800F0CF801B283BD074
:103110001C283FD0FF2800F0CE80CCE07F484078CC
:10312000C0F34200C0B202280BD17C48407810F0B6
:10313000F101801C10F00E0008437849487003F03C
:1031400093F9B8E0DFF854090078002805D1012090
:10315000DFF84819087003F08BF9ACE003F04AFA85
:10316000FF206E498875A6E0DFF8340903F094F972
:10317000FF206A4988759EE0DFF8240903F09BF977
:10318000FF206649887596E003F035FAFF20634911
:10319000887590E003F02FFAFF20604988758AE077
:1031A000FF205E498875112003F096F983E0FF2027
:1031B0005A498875142003F08FF97CE0FF205749A5
:1031C0008875132003F088F975E0FF20534988754E
:1031D000152003F081F96EE0FF2050498875162014
:1031E00003F07AF967E0FF204C4988751B2003F053
:1031F00073F960E0FF20494988751C2003F06CF9E1
:1032000059E0FF2045498875172000F037FE52E04D
:10321000FF2042498875122000F030FE4BE0FF206D
:103220003E498875182000F029FE44E0FF203B4904
:1032300088751D2003F0E0F93DE0FF2037498875CF
:103240001E2003F0D9F936E0FF2034498875192093
:1032500003F0D2F92FE0FF20304988751A2003F0DF
:10326000CBF928E0FF202D498875062003F0C4F92A
:1032700021E0FF20294988751F2003F0BEF91AE0DC
:10328000FF2026498875202003F0B7F913E0FF20BE
:1032900022498875212003F0B0F90CE0FF201F4976
:1032A0008875222003F0A9F905E0FF201B498875E5
:1032B00003F0A4F9FFE7BDE8F7830000D01B00206E
:1032C0000020164988601548007850F00400134922
:1032D00008707047781B0020F0190020DC190020CE
:1032E00000200E4988600D48007810F0FB000B4963
:1032F000087001200949487470470848007810F0A8
:10330000F7000649087070470448007850F008003C
:10331000024908707047000000170020281B002099
:103320008C1B0020C61B002080B5DFF82408007825
:10333000C0F38000C0B2002809D0DFF8140800787C
:10334000C0F3C000C0B2002801D000F0E4F8DFF8FC
:103350005408D0F80200C0F3C060002811D0DFF894
:10336000440700F02DFF00280BD0DFF83808D0F814
:10337000020030F00060DFF82C18C1F80200FFF7FF
:1033800068F8DFF820080068C0F30010002819D0A2
:10339000DFF85007D0F8C800411CDFF84827C2F812
:1033A000C81040F26C7188420CD3DFF8F80700684F
:1033B00030F01000DFF8EC1708600020DFF8241769
:1033C000C1F8C800DFF8DC07D0F80200C0F30070D5
:1033D000002828D0DFF80C07D0F8C400411CDFF823
:1033E0000427C2F8C410B0F5FA6F1CD3DFF8B40795
:1033F0000068C0F3C010002808D0DFF8A8070068F4
:1034000050F08000DFF89C1708600AE0DFF89407AE
:103410000068C0F3C010002803D11B20DFF830176C
:10342000887500F02FFC01BDDFF87817096831F0CE
:103430000801DFF87027116070470000589A0008F3
:10344000700B0020709A000810B50400DFF85407D4
:10345000006830F48050DFF84C170860FFF740FF39
:1034600072B6DFF8DC16DFF83C0600F0BFFE62B68D
:10347000FFF726FFDFF82C0600F09AFE002811D097
:10348000DFF82007D0F8020050F00060DFF81417D2
:10349000C1F8020001224FF48051DFF8AC0601F0C0
:1034A000D1FB16E0DFF8FC060068C0F3C02000285E
:1034B0000FD10122DFF88816124801F092FD002892
:1034C00007D1DFF8E006006850F48050DFF8D4162A
:1034D000086010BDDFF87406407810F00100002885
:1034E00001D100BFF6E7DFF86406407810F0FE0077
:1034F000DFF858164870DFF8EC0590F8E8007047E0
:10350000F09B00089C190020E098000810B504000A
:1035100000F051FB10BD80B572B6DFF8880500F0F1
:1035200085FEDFF8C015C1F8800062B6DFF8B4058B
:10353000D0F88000002805D0DFF8A805D0F880007A
:10354000FCF70CFEDFF85C06D0F80100C0F3406029
:10355000002825D0DFF88C05D0F8AC00401CDFF83F
:103560008415C1F8AC00DFF87C05D0F8AC00332836
:1035700016D30020DFF86C15C1F8AC00DFF8240684
:10358000D0F8010030F00070DFF81816C1F8010023
:10359000DFF81006006830F00800DFF80816086051
:1035A00001BD0000889A0008089E0008A09A000843
:1035B000189E0008049C0008189C0008049F00083E
:1035C000289E0008B8970008389E0008FC9800085C
:1035D00010B504002078012865D0042874D005288F
:1035E00077D008287AD009287DD00A2800F080807A
:1035F0000B2800F082800C2800F084800F2800F057
:103600008680142800F08880162800F08A80172809
:1036100000F08C80182800F08E801A2800F090802E
:103620001B2800F092801F2800F09480202800F0D2
:103630009680232800F0CF80242800F0D58026280B
:1036400000F0D780282800F0E180292800F0EF80E2
:103650002A2800F0FD802B2800F0FF802C2800F0A5
:103660000181372800F003813A2800F03E813D288F
:1036700000F0AB813E2800F0C2813F2800F0D081ED
:10368000402800F04881422800F0F981432800F0EA
:10369000CC81442800F0D281452800F0DC81462806
:1036A00000F0E281F4E1FF20DFF8A014887500202B
:1036B000DFF8E8130870DFF82C04007A10F0E70058
:1036C000DFF820140872E3E10720DFF88014887522
:1036D000DEE10020DFF874148875D9E10120DFF8FD
:1036E0006C148875D4E10220DFF860148875CFE18E
:1036F0000320DFF858148875CAE10420DFF84C1461
:103700008875C5E10620DFF844148875C0E10820FB
:10371000DFF838148875BBE11120DFF830148875A4
:10372000B6E11220DFF824148875B1E11320DFF828
:103730001C148875ACE10920DFF810148875A7E126
:103740000A20DFF808148875A2E10520DFF8FC13D1
:1037500088759DE10D20DFF8F413887598E1DFF896
:10376000EC034078C0F34200C0B202280BDADFF865
:10377000DC03407810F0F101801C10F00E000843CB
:10378000DFF8C8134870DFF8C403007850F0100069
:10379000DFF8B81308700E20DFF8B0138875DFF873
:1037A00008040068C0F34010002813D0DFF8F803C5
:1037B000006830F02000DFF8F0130860DFF8E8035D
:1037C000006830F48070DFF8E01308601C20DFF838
:1037D0007C1388755CE1DFF8D003006830F400707A
:1037E000DFF8C413086053E11620DFF86013887512
:1037F0004EE1DFF85803007810F0EF00DFF84C13CB
:1038000008700F20DFF84413887541E10020DFF8CD
:103810008C120870DFF8CC02007A10F0E700DFF8B5
:10382000C41208721020DFF82413887530E10020DC
:10383000DFF868120870DFF8AC02007A10F0E700D9
:10384000DFF8A01208721520DFF8001388751FE159
:103850001720DFF8F81288751AE11820DFF8EC124B
:10386000887515E11920DFF8E412887510E1DFF89A
:1038700038030068C0F3405000280FD0DFF8280359
:10388000006830F40010DFF820130860DFF8180338
:10389000006830F48020DFF810130860607810F0C2
:1038A0000F00DFF84012097860F3C501DFF8340239
:1038B0000170DFF83C04DFF82C120978C1F3C20173
:1038C000C9B2405C00280FD0DFF8DC02006850F479
:1038D0008000DFF8D4120860DFF8CC02006850F0F6
:1038E0000800DFF8C4120860D2E0607810F00F0022
:1038F000DFF8F011897960F30201DFF8E8018171E6
:10390000DFF8A402D0F8010050F00040DFF8981270
:10391000C1F80100BCE0A088DFF8C811C1F8A80018
:10392000DFF88402006850F40020DFF87C120860A1
:10393000DFF87402006850F00800DFF86C120860CD
:10394000DFF808020078C0F34010C0B200281ED192
:10395000A07801280AD1DFF8500200684008400032
:10396000DFF84412086000F0B0F92DE0DFF838020B
:10397000006830F40020DFF830120860DFF8280219
:10398000006830F00800DFF8201208601CE0DFF863
:103990001802006850F48020DFF80C12086005203F
:1039A000DFF84011A1F89A00DFF8FC01006850F43C
:1039B0000010DFF8F4110860DFF82801D0F8A80043
:1039C000DFF82011C1F8A40062E0DFF89C03617801
:1039D000C9B20909C9B200EBC100617811F00F0149
:1039E00001224254DFF8C001006850F40050DFF8B3
:1039F000B81108600120DFF8A813087048E0DFF86C
:103A0000A801006850F48040DFF89C110860002095
:103A1000DFF8901308700020DFF88413087037E097
:103A20001A20DFF82811887532E0DFF87C01006881
:103A300050F48070DFF87011086029E0DFF8680149
:103A4000006830F48070DFF8601108601C20DFF837
:103A5000FC1088751CE0DFF85001006850F0800011
:103A6000DFF84411086013E0DFF83C01006830F033
:103A70008000DFF83411086000F0F4F808E0DFF8A7
:103A80002801006850F04000DFF81C110860FFE7D3
:103A900010BD0000700F002004170020CD1B002077
:103AA0004F170020DC19002038B504000D0000F08D
:103AB00051F80C48C0F8C0400A48C5661720214993
:103AC00081F8260072B61F48D0E9082311001A00B9
:103AD000DFF8680300F060FA62B6DFF8680300F010
:103AE000F7FA31BD0017002038B504000D0000F0D2
:103AF00031F8EDB2022D04D11520124981F82600CB
:103B000006E0EDB2012D03D123200E4981F82600F5
:103B10000C4890F8210064F303000A4981F8210061
:103B200072B60848D0E9082311001A00DFF80C0328
:103B300000F032FA62B6DFF80C0300F0C9FA31BDCA
:103B40004E170020DC19002000080140281B00202F
:103B5000281B0020DFF8F002007810F00100002898
:103B60000FD1DFF8E4020078C0F34000C0B20028B3
:103B700009D0DFF8D4024078C0F30010C0B20028AA
:103B800001D100BFE6E7704770B54FF480640025AF
:103B9000DFF8AC622A002100300000F0ABF970BD04
:103BA00000000000781B0020781B002080B500205A
:103BB00002F026FD01BD80B5002002F021FDFEF7D8
:103BC00048FC01BD10B50400DFF87C020078C0F3AA
:103BD0000010C0B2002809D1DFF86C020078C0F3F1
:103BE0008010C0B2002801D105203AE0DFF864025D
:103BF000006810F4C07F01D0102032E0DFF85402DA
:103C0000006850F40060DFF84C120860A4B2002C89
:103C100005D1DFF8440200F0AFFA1F2021E04FF495
:103C20007A73220092B2DFF81812DFF8300201F046
:103C30009EF8002803D0FFF7BEFF0F2011E0DFF849
:103C40001402006830F40060DFF808120860DFF842
:103C500004020068C0F30030002801D1FEF7F9FB30
:103C6000002010BDDFF8EC01D0F8020050F08050C9
:103C7000DFF8E011C1F802000020DFF8E411C1F81C
:103C8000C4007047DFF8CC01D0F8020030F080505B
:103C9000DFF8C011C1F802000020DFF8C411C1F83C
:103CA000C400704710B50024FFF76EFFDFF8B411B1
:103CB000DFF88C0100F0E8F8DFF8840100F0FEF88E
:103CC00080B2FFF77FFF040010BD10B50024FFF79E
:103CD0005BFFDFF89411DFF8680100F0D5F8DFF83A
:103CE000600100F0EBF880B2FFF76CFF040010BD3C
:103CF0008C1B002070B504000D000026FFF744FF68
:103D00002B00220059494E4800F0BEF84C4800F004
:103D1000D5F880B2FFF756FF0600F6B2002E02D1AA
:103D2000FFF7D8FB06003000C0B270BD70B50400CC
:103D30000D000026FFF728FF2B0022004C494048C9
:103D400000F0A2F83E4800F0B9F880B2FFF73AFF61
:103D50000600F6B2002E02D1FFF7BCFB06003000D1
:103D6000C0B270BD00000000681B002038B5040020
:103D70000025FFF709FF22003449314800F084F89C
:103D80002F4800F09BF880B2FFF71CFF0500EDB252
:103D9000002D02D1FFF79EFB05002800C0B232BD06
:103DA000CE1B0020CF1B002038B504000025FFF7F4
:103DB000EBFE22002649224800F066F8204800F079
:103DC0007DF880B2FFF7FEFE0500EDB2002D02D1B6
:103DD000FFF780FB05002800C0B232BD10B50024FB
:103DE000FFF7D2FE2349164800F04EF8144800F0C1
:103DF00065F880B2FFF7E6FE0400E4B2002C02D1C1
:103E0000FFF768FB04002000C0B210BD10B500240D
:103E1000FFF7BAFE18490A4800F036F8084800F0E3
:103E20004DF880B2FFF7CEFE0400E4B2002C02D1C0
:103E3000FFF750FB04002000C0B210BDF0190020B5
:103E4000700B0020FC190020281B00202C9C00086F
:103E5000D8970008781B0020F89700089C190020CC
:103E600000170020889F0008909F0008409C0008D1
:103E7000549C0008989F0008A09F000870470268A3
:103E8000531C0360117070470CB41CB5044604A8A1
:103E900001900A46009401AB6946074878441830FF
:103EA00002F0C0FB009A0021117000285CBF00984E
:103EB000001B16BC5DF80CFBC7FFFFFF00F1010300
:103EC000810704D010F8011B89B18107FAD102687B
:103ED000B2F10131914311F0803F04BF50F8042F3B
:103EE000F6E710F8011B11B110F8011BFBE7C01A2F
:103EF0007047010262F30F2262F31F42401810F074
:103F0000030308D0C91A1FD3DB0748BF00F8012DEF
:103F100028BF20F8022D130030B41446154610397E
:103F200028BF20E93C00FAD8490728BF20E90C0047
:103F300048BF40F8042D890028BF20F8022D48BF53
:103F400000F8012D30BC7047C91818BF00F8012DCA
:103F5000CB0728BF00F8012D7047200008231A0066
:103F600001FB02F38380002303800023C38000232E
:103F70004380554B836070478188C088B0EBD10F78
:103F800001D1012000E000207047C088002801D145
:103F9000012000E00020704776B504002000FFF704
:103FA000EBFF002842D16088C0080600A06800EB43
:103FB000C600BDF804108180A06800EBC6009DF823
:103FC00002108170A06800EBC6009DF80110A26885
:103FD00002EBC602527861F303024270A06800EB64
:103FE000C600A16801EBC601497811F00F019DF8E8
:103FF000012012F0F002114341709DF80000A16809
:1040000001F83600A06800EBC6009DF8061081712B
:10401000E088401CE080608808306080A08805004F
:10402000608890FBF5F105FB1100608073BD70B5F1
:1040300004002000FFF7A9FF002801D0002042E083
:104040002088C0080600A06800EBC60080881F49D1
:104050008880A06800EBC600407810F00F001B4974
:10406000497860F3030119484170A06800EBC6006D
:104070004078C0B200091549497811F00F0151EAA2
:10408000001012494870A06800EBC60080780F4904
:104090008870A06810F836000C490870A06800EB22
:1040A000C600807909498871208808302080E0881E
:1040B000401EE080A0880500208890FBF5F105FBFC
:1040C00011002080014870BD70150020841B002065
:1040D0000021818000218171417811F0F00151F0BF
:1040E000090141700921817063210170704738B561
:1040F00004000D002900200002F076FE32BD000011
:1041000062B38B0708D0521E11F8013B00F8013B47
:1041100000F024808B07F6D1830740F0208000BF99
:10412000103A07D330B4B1E83810103AA0E838108C
:10413000F9D230BC530724BFB1E80810A0E808103A
:1041400044BF51F8043B40F8043BD20724BF31F888
:10415000022B20F8022B44BF0B7803707047083AFB
:1041600007D3B1E80810083A40F8043B40F804CB04
:10417000F7D25307E4E700000EB400B582B003A9FC
:10418000009102466B460121034878440A3002F050
:1041900049FA06BC5DF810FB8159000081600022DD
:1041A00002600022C26000224260864A02617047BB
:1041B000C068B0F54E7F01DB012000E000207047B1
:1041C000C068C92801DA012000E000207047C068FB
:1041D000B0F5806F01D1012000E000207047C06879
:1041E000002801D1012000E000207047F8B504004C
:1041F0000D002000FFF7EBFF002816D1E068401CFF
:10420000E0606068411C61600126216901EB0007E4
:10421000320029003800FFF773FF60684FF48061B7
:1042200090FBF1F201FB12006060F1BD2DE9F84F47
:104230000400654805002000FFF7D1FF002801D0E9
:104240000020BCE04FF400760027DFF87C813A00C4
:1042500031004046FFF74EFE5C480068C0F38040E6
:10426000002800F08F80D4F804B0E068C82832DA63
:10427000E0685749A1F89800206883450CDB206866
:104280005349B1F89860216901EB00073200390009
:104290002800FFF735FF19E026682068D6F580670B
:1042A000216901EB00083A0041462800FFF728FF8A
:1042B0002068D4F81090404228444FF4806100EB0D
:1042C000010A5A4649465046FFF71AFF60682060C7
:1042D0000020E06072E02068834511DB2068C8267A
:1042E000216901EB0007320039002800FFF708FFC1
:1042F0002068C83020602068BBEB0000E0603CE034
:104300002068C830B0F5806F13DA2068C8262169AC
:1043100001EB0007320039002800FFF7F1FE2068AA
:10432000C83020602068D0F580601BEB0000E060A2
:1043300023E026682068D6F580610091216901EBB1
:104340000007009A39002800FFF7DAFE2068B6F56A
:104350004E78D4F81090404228444FF4806100EB2E
:10436000010A424649465046FFF7CAFEB6F54E706E
:1043700020602068BBEB0000E060C8201449A1F871
:1043800098001BE020680126216901EB000732003C
:1043900039002800FFF7B4FE2068401C2060E06868
:1043A000401EE06001200A49A1F8980020684FF4FF
:1043B000806190FBF1F201FB120020602800BDE853
:1043C000F28F00007007002070110020781B002081
:1043D0000017002010B4426803685B1A002B0FD44A
:1043E00003685B1A03600368934203DA0368D31A15
:1043F000C3600FE00368D3F58063D318C36009E09E
:104400000368D1F58064E31803600368D3F5806323
:10441000D318C36010BC704710F007024E4B1B68E6
:1044200019004FF6FF0319404C4B53EA022319437E
:10443000494B1960704748480068C0F30220704734
:10444000012110F01F029140454A40B2430942F851
:1044500023107047012110F01F029140414A40B2E1
:10446000430942F82310704710B440B2002808D521
:104470000A013D4B40B210F00F04234403F8042C12
:1044800003E00A01394B40B21A5410BC704770B4B3
:10449000030013F00704D4F10706052E01D304200E
:1044A00001E0D4F10700261D072E01D2002500E00F
:1044B000E51E012616FA00F0401E0840A840012122
:1044C000A940491E1140084370BC704710B5040054
:1044D000601EB0F1807F01D301200EE0601E2449F0
:1044E00008600F215FF0FF30FFF7BEFF0020214979
:1044F0000860072020490860002010BD10B50400A6
:104500002000FFF789FF10BDF8B504000D0016006C
:104510000027FFF790FF0700320029003800FFF75F
:10452000B6FF0100200040B2FFF79EFFF1BD10B5BD
:104530000400200040B2FFF783FF10BD10B5040057
:10454000200040B2FFF786FF10BD10B50400200028
:10455000FFF7BCFF10BD00000CED00E00000FA0505
:1045600000E100E080E100E018ED00E000E400E0A0
:1045700014E000E018E000E010E000E07047000008
:1045800038B502F048FC0446208880042ED56568C2
:1045900009E04A1B294602F087FC10F1010F18BF01
:1045A00000280CD00544E16894F903008D42F0D353
:1045B0000022002102F078FC10F1010F0DD160689B
:1045C000E0606061E062208840F400702080204656
:1045D00002F022FC4FF0FF3032BD6568E560656196
:1045E000E5624DF6FF71208808402080204602F0E9
:1045F00013FC002032BDF8B5A0B9C046C046002467
:104600000A4D08264FF0FF37286820B1FFF7B8FFA2
:10461000002848BF3C462D1D761EF5D1C046C04639
:104620002046F2BDBDE8F240AAE70000D400002019
:1046300010B50400002C01D1012014E094F83900D9
:10464000002805D1002084F83800200002F0CAFCC0
:10465000022084F83900211D206800F0CFF80120E5
:1046600084F83900002010BD01000868C06850F0CF
:1046700001000A68D0600868006850F001000A680C
:1046800010600020704710B50400206800698007A2
:104690001AD52068C068800716D57FF0020021680F
:1046A0000861012020762068806910F0030F03D094
:1046B000200002F0D5FC05E0200002F0D2FC200032
:1046C00002F0D0FC002020762068006940071AD54F
:1046D0002068C068400716D57FF004002168086193
:1046E000022020762068806910F4407F03D02000EB
:1046F00002F0B6FC05E0200002F0B3FC200002F05E
:10470000B1FC002020762068006900071AD52068D7
:10471000C068000716D57FF00800216808610420F2
:1047200020762068C06910F0030F03D0200002F04B
:1047300097FC05E0200002F094FC200002F092FCBF
:104740000020207620680069C0061AD52068C0685D
:10475000C00616D57FF01000216808610820207679
:104760002068C06910F4407F03D0200002F078FC7C
:1047700005E0200002F075FC200002F073FC002030
:10478000207620680069C0070AD52068C068C00785
:1047900006D57FF0010021680861200002F09AFC34
:1047A0002068006900060AD52068C068000606D5A2
:1047B0007FF0800021680861200002F0B1FC2068D1
:1047C000006940060AD52068C068400606D57FF01B
:1047D000400021680861200002F0A3FC2068006905
:1047E00080060AD52068C068800606D57FF02000C4
:1047F00021680861200002F095FC10BD00220368CA
:104800001A00164B984208D0B0F1804F05D0144BD7
:10481000984202D0134B984203D132F070024B6899
:104820001A430E4B984208D0B0F1804F05D00C4B84
:10483000984202D00B4B984203D132F44072CB68BD
:104840001A4302608B68C3620B688362034B984211
:1048500001D10B690363012343617047002C0140C0
:1048600000040040000800402DE9F8410023002426
:10487000002500265FF0000E5FF0000C6246102A53
:1048800080F04D815FF0010C1CFA02FC6346D1F808
:1048900000C013EA0C0C64469C4240F03E81D1F803
:1048A00004C0BCF1000F3DD0BCF1010F24D0BCF11D
:1048B000020F2BD0BCF1030F4CD0BCF1110F1FD055
:1048C000BCF1120F28D0DFF89083C4452AD0DFF85E
:1048D0008C83C44526D0DFF88883C44522D0DFF816
:1048E0008483C4451ED0DFF88083C4451AD0DFF826
:1048F0007C83C44516D031E0D1F80CC066462DE06B
:10490000D1F80CC01CF1040C664627E0D1F80CC0AD
:104910001CF1080C664621E0D1F80CC01CF10C0C0F
:1049200066461BE0D1F808C0BCF1000F03D15FF070
:10493000040C66460DE0D1F808C0BCF1010F04D1AB
:104940005FF0080C6646036103E05FF0080C664602
:10495000436103E05FF0000C6646FFE7FF2C01D8DF
:10496000070000E0071DFF2C02D85FEA820E03E07B
:10497000B2F1080C5FEA8C0ED7F800C05FF00F08A8
:1049800018FA0EF83CEA080C16FA0EF858EA0C0C65
:10499000C7F800C0D1F804C05FEACC0C40F1BD807C
:1049A000DFF8CCC2DCF800C05CF0010CDFF8C0829C
:1049B000C8F800C0DFF8B8C2DCF800C01CF001087D
:1049C000CDF80080DDF800C0DFF8A8C25FEA9208E9
:1049D0005CF828C065465FF00F0C12F003085FFA20
:1049E00088F85FEA88081CFA08FC35EA0C05DFF84D
:1049F00088C2604502D15FF0000C16E0DFF87CC28F
:104A0000604502D15FF0010C0FE0DFF874C2604531
:104A100002D15FF0020C08E0DFF868C2604502D105
:104A20005FF0030C01E05FF0040C12F003085FFA82
:104A300088F85FEA88081CFA08FC5CEA0505DFF8DC
:104A400034C25FEA92084CF82850D1F804C05FEAFB
:104A5000CC3C0AD5DFF830C2DCF800C054EA0C0CBC
:104A6000DFF82482C8F800C009E0DFF81CC2DCF8D7
:104A700000C03CEA040CDFF81082C8F800C0D1F88E
:104A800004C05FEA8C3C0AD5DFF800C2DCF800C045
:104A900054EA0C0CDFF8F481C8F800C009E0DFF834
:104AA000ECC1DCF800C03CEA040CDFF8E081C8F897
:104AB00000C0D1F804C05FEACC2C0AD5DFF8D0C121
:104AC000DCF800C054EA0C0CDFF8C481C8F800C060
:104AD00009E0DFF8BCC1DCF800C03CEA040CDFF8F8
:104AE000B081C8F800C0D1F804C05FEA8C2C0AD5A8
:104AF000DFF8A0C1DCF800C054EA0C0CDFF89481A8
:104B0000C8F800C009E0DFF88CC1DCF800C03CEA5E
:104B1000040CDFF88081C8F800C0521CAFE6BDE885
:104B2000F181F0B500220023002400260F00D740B9
:104B3000002F00F08680012797400F403B00002B9C
:104B40007DD0FF2B01D8050000E0051DFF2B01D80B
:104B5000960002E0B2F10806B6002F685FF00F0C75
:104B60001CFA06FC37EA0C075FF0040C1CFA06FC82
:104B70005CEA07072F60C7689F43C7603D4F5FEA45
:104B8000920C57F82C703C000F2712F0030C5FFAC0
:104B90008CFC5FEA8C0C17FA0CF73C40364FB8429D
:104BA00001D100270FE0354FB84201D101270AE0BB
:104BB000334FB84201D1022705E0324FB84201D14C
:104BC000032700E0042712F0030C5FFA8CFC5FEA75
:104BD0008C0C17FA0CF7BC4231D10F2712F0030CE2
:104BE0005FFA8CFC5FEA8C0C17FA0CF73C00214F43
:104BF0005FEA920C57F82C70A743DFF878C05FEAA1
:104C0000920E4CF82E70204F3F689F43DFF878C01B
:104C1000CCF800701D4F3F689F43DFF870C0CCF8A0
:104C200000701B4F3F689F43DFF864C0CCF80070F2
:104C3000184F3F689F43DFF85CC0CCF80070521CEF
:104C400074E7F0BDD2B2002A02D089B2016102E05D
:104C500089B20B04036170470000111000001210AC
:104C6000000021100000221000003110000032105E
:104C7000181002400800014000080140000C0140EB
:104C800000100140001401400004014004040140F0
:104C9000080401400C04014011B581B0002402F069
:104CA00043FA040002F040FA001B01998842F9D34C
:104CB00013BD000010B50400002C01D1012030E02C
:104CC000A0690028FFD194F83900002805D1002000
:104CD00084F83800200002F0FDF8022084F8390042
:104CE0002068C06830F400502168C860200000F0DF
:104CF00072FB2068006930F49040216808612068E8
:104D0000406930F02A00216848612068C06850F48A
:104D100000502168C8600020E063012084F8390059
:104D2000002010BD10B50400002C01D101201DE0B1
:104D3000022084F839002068C06830F400502168EF
:104D4000C86000202168C860002021680861002038
:104D500021684861200002F026F90020E06300206D
:104D600084F83900002084F83800002010BD2DE9B7
:104D7000F84304000D0016001F005FF0000994F8CE
:104D800039008146B9F1010F02D0B9F1220F69D182
:104D9000002D02D0B6B2002E01D1012063E094F8BC
:104DA0003800012801D102205DE0012084F838009C
:104DB0000020E06394F83900222803D1322084F8DF
:104DC000390002E0122084F83900A684E684E08CE1
:104DD00000282DD0E08C401EE084A068B0F5805FF4
:104DE00017D13B0000228021200000F0CBF90028E1
:104DF00001D0032037E0A846B8F80000C005C00D78
:104E0000216848602069002801D1AD1CDFE76D1CD6
:104E1000DDE73B0000228021200000F0B3F90028EC
:104E200001D003201FE02878216848606D1CCEE780
:104E30003B0000224021200000F0A4F9002801D00E
:104E4000032010E094F83900322803D1222084F89E
:104E5000390002E0012084F83900002084F838008D
:104E6000002000E00220BDE8F2832DE9F8430400B1
:104E70000D0016001F005FF0000994F8390081460C
:104E8000B9F1010F02D0B9F1120F6FD1002D02D08C
:104E9000B6B2002E01D1012069E094F83800012853
:104EA00001D1022063E0012084F838000020E06393
:104EB00094F83900122803D1322084F8390002E036
:104EC000222084F83900A685E685E08D00283DD0B3
:104ED000E08D401EE085A068B0F5805F1DD13B00ED
:104EE00000222021200000F04DF9002801D00320ED
:104EF0003DE0A8462069002807D120684068C00529
:104F0000C00DA8F80000AD1CDFE72068406800F085
:104F1000FF00A8F800006D1CD7E73B00002220210D
:104F2000200000F02FF9002801D003201FE02069A5
:104F3000002804D12068406828706D1CC5E72068EF
:104F4000406810F07F0028706D1CBEE794F83900AF
:104F5000322803D1122084F8390002E0012084F8BD
:104F60003900002084F83800002000E00220BDE86D
:104F7000F28330B40300002493F839000400012CBC
:104F800001D0222C2AD1002902D092B2002A01D1CC
:104F9000012024E093F83800012801D102201EE00E
:104FA000012083F8380019629A84DA840020D863DB
:104FB00093F83900222803D1322083F8390002E027
:104FC000122083F83900002083F838001868C06880
:104FD00050F080001D68E860002000E0022030BC36
:104FE000704730B40300002493F839000400012C0A
:104FF00001D0122C36D1002902D092B2002A01D160
:10500000012030E093F83800012801D102202AE085
:10501000012083F8380099629A85DA850020D863E8
:1050200093F83900122803D1322083F8390002E0C6
:10503000222083F83900002083F838001868C068FF
:1050400050F480701D68E8601868406950F00100F5
:105050001D6868611868C06850F020001D68E8602D
:10506000002000E0022030BC704770B582B0040020
:10507000002500262068006810F001000500206867
:10508000C06810F480700600002D05D0002E03D0FB
:10509000E06B50F00100E06320680068400810F009
:1050A000010005002068406910F001000600002D95
:1050B00005D0002E03D0E06B50F00400E0632068C0
:1050C0000068800810F001000500002D05D0002EBA
:1050D00003D0E06B50F00200E06320680068C00875
:1050E00010F001000500002D05D0002E03D0E06B6C
:1050F00050F00800E06320680068400910F00100EB
:1051000005002068C06810F020000600002D04D0C3
:10511000002E02D0200000F0FBF820680068C009D3
:1051200010F0010005002068C06810F08000060043
:10513000002D04D0002E02D0200000F094F820684A
:105140000068800910F0010005002068C06810F0B8
:1051500040000600002D04D0002E02D0200000F0F8
:10516000BFF8E06B00280CD0206800680090206831
:10517000406800900098012084F83900200001F078
:10518000B5FF73BD2DE9F04104000D0016001F00AE
:105190005FF0000801F0C8FF8046F6B2002E2FD164
:1051A000206800682840A8425AD017F1010FF7D0B4
:1051B000002F05D001F0B8FFB0EB08008742EFD216
:1051C0002068C06830F080002168C8602068C0682E
:1051D00030F020002168C8602068C06830F480701A
:1051E0002168C86020684069400840002168486123
:1051F000012084F83900002084F83800032030E0D2
:10520000206800682840A8422AD117F1010FF7D082
:10521000002F05D001F088FFB0EB08008742EFD2E5
:105220002068C06830F080002168C8602068C068CD
:1052300030F020002168C8602068C06830F48070B9
:105240002168C860206840694008400021684861C2
:10525000012084F83900002084F83800032000E0A1
:105260000020BDE8F08110B40100002391F839005E
:105270000300122B01D0322B2FD18868B0F5805F4C
:1052800011D1086A02001088C005C00D0C6860606A
:105290000869002803D1086A801C086209E0086ACE
:1052A000401C086205E0086A441C0C6200780C6827
:1052B0006060C88C401EC884C88C00280BD1086868
:1052C000C06830F080000C68E0600868C06850F08A
:1052D00040000C68E060002000E0022010BC704735
:1052E00010B504002068C06830F040002168C86034
:1052F00094F83900322803D1222084F8390002E0E2
:10530000012084F83900200001F0EAFE002010BDE1
:1053100070B50400002694F839000600222E01D052
:10532000322E56D1A068B0F5805F16D1A06A050074
:105330002069002808D120684068C005C00D288079
:10534000A06A801CA0621AE02068406800F0FF009C
:105350002880A06A401CA06211E02069002806D1C4
:10536000A06A411CA16221684968017007E0A06A37
:10537000411CA1622168496811F07F010170E08D34
:10538000401EE085E08D002821D12068C06830F003
:1053900020002168C86094F83900322803D1122017
:1053A00084F839000EE02068C06830F4807021680D
:1053B000C8602068406940084000216848610120B9
:1053C00084F83900200001F07FFE002002E0002078
:1053D00000E0022070BDF8B50400002520680069D7
:1053E00030F44050E168084321680861A0682169F1
:1053F00008436169084305002068C06839490840CE
:1054000028432168C8602068406930F44070A16971
:1054100008432168486120683349884230D102F04E
:105420009FFC070002F09CFC060002F099FC192189
:1054300001FB07F162689200B1FBF2F16422B1FB5B
:10544000F2F1192202FB06F263689B00B2FBF3F251
:105450001923584363689B00B0FBF3F06423B0FB4F
:10546000F3F0642303FB1020000132306422B0FB10
:10547000F2F010F00F0050EA0110216888602FE070
:1054800002F059FC070002F056FC060002F053FC43
:10549000192101FB07F162689200B1FBF2F164226D
:1054A000B1FBF2F1192202FB06F263689B00B2FB2A
:1054B000F3F21923584363689B00B0FBF3F06423B5
:1054C000B0FBF3F0642303FB1020000132306422B0
:1054D000B0FBF2F010F00F0050EA01102168886074
:1054E000F1BD0000F3E9FFFF0038014038B50400CA
:1054F0000025DFF8E007FEF73FFEDFF8DC07FEF7E8
:105500003BFEDFF8D807FEF737FEDFF8D407FEF7DB
:1055100033FEFCF75FFE012000F088FCFCF74BFF38
:10552000FEF75CFC0500EDB2002D02D02800C0B2F1
:1055300075E2616BDFF8AC07FEF7F8FB0500EDB232
:10554000002D02D02800C0B269E2FEF71DFBDFF893
:105550009817DFF89807FEF797FCDFF89007FEF73B
:10556000ADFC80B2FEF72EFB0500EDB2002D08D198
:10557000FDF7B0FF0500EDB2002D02D02800C0B24B
:105580004DE2FCF718FF0121DFF86407FEF7CEFBC0
:105590000500EDB2002D02D02800C0B23FE2206B22
:1055A00000280BD0216BDFF83C07FEF7BFFB05009E
:1055B000EDB2002D02D02800C0B230E20021DFF8A9
:1055C0003407FEF7B3FB0500EDB2002D02D0280032
:1055D000C0B224E22078002802D001281AD033E09B
:1055E0000021DFF81407FEF7A1FB0500EDB2002D46
:1055F00002D02800C0B212E2DFF80017DFF800077F
:10560000FEF778FB0500EDB2002D02D02800C0B2F5
:1056100005E219E00121DFF8E006FEF787FB05004F
:10562000EDB2002D02D02800C0B2F8E1DFF8D416A8
:10563000DFF8CC06FEF75EFB0500EDB2002D02D0D0
:105640002800C0B2EBE1FFE76078002803D0022811
:105650006FD025D3B6E00021DFF8AC06FEF766FB7D
:105660000500EDB2002D02D02800C0B2D7E1002124
:10567000DFF89806FEF75AFB0500EDB2002D02D0C8
:105680002800C0B2CBE10021DFF88406FEF74EFB14
:105690000500EDB2002D02D02800C0B2BFE191E0BC
:1056A0000121DFF86406FEF741FB0500EDB2002D95
:1056B00002D02800C0B2B2E10B21DFF85806FEF795
:1056C00035FB0500EDB2002D02D02800C0B2A6E1E6
:1056D0000021DFF84406FEF729FB0500EDB2002D9E
:1056E00002D02800C0B29AE10021DFF83006FEF7B0
:1056F0001DFB0500EDB2002D02D02800C0B28EE1E6
:105700000021DFF80806FEF711FB0500EDB2002DC1
:1057100002D02800C0B282E10021DFF8F405FEF7D4
:1057200005FB0500EDB2002D02D02800C0B276E1E5
:1057300048E00121DFF8D005FEF7F8FA0500EDB2E8
:10574000002D02D02800C0B269E10C21DFF8C405A9
:10575000FEF7ECFA0500EDB2002D02D02800C0B231
:105760005DE10A21DFF8B005FEF7E0FA0500EDB2D1
:10577000002D02D02800C0B251E10121DFF89C05C4
:10578000FEF7D4FA0500EDB2002D02D02800C0B219
:1057900045E10121DFF87405FEF7C8FA0500EDB216
:1057A000002D02D02800C0B239E10021DFF86005E9
:1057B000FEF7BCFA0500EDB2002D02D02800C0B201
:1057C0002DE1FFE7A078002803280FD8A078062154
:1057D00001FB00F1DFF84805FEF7A8FA0500EDB27D
:1057E000002D02D02800C0B219E1FFE7E0780028C0
:1057F00002280CD8E178DFF82C05FEF797FA0500AF
:10580000EDB2002D02D02800C0B208E1FFE76068C9
:1058100000280BD06168DFF81005FEF76BFA050071
:10582000EDB2002D02D02800C0B2F8E0A068002838
:105830000BD0A168DFF8F404FEF75CFA0500EDB2C6
:10584000002D02D02800C0B2E9E0E06800280BD0AB
:10585000E168DFF8DC04FEF74DFA0500EDB2002D3B
:1058600002D02800C0B2DAE0206900280BD02169FC
:10587000DFF8C004FEF73EFA0500EDB2002D02D0BD
:105880002800C0B2CBE0606900280BD06169DFF866
:10589000A804FEF72FFA0500EDB2002D02D0280073
:1058A000C0B2BCE0E06900280BD0E169DFF88C04ED
:1058B000FEF720FA0500EDB2002D02D02800C0B29C
:1058C000ADE0206A00280BD0216ADFF83C05FEF726
:1058D00011FA0500EDB2002D02D02800C0B29EE002
:1058E000606A00280FD0606A4FF47A7101FB00F102
:1058F000DFF81805FEF71AFA0500EDB2002D02D008
:105900002800C0B28BE0A06A00280BD0A16ADFF8A3
:105910000005FEF70BFA0500EDB2002D02D02800BD
:10592000C0B27CE094F82C0000280CD094F82C1025
:10593000DFF8E004FEF7FAF90500EDB2002D02D021
:105940002800C0B26BE0FEF71FF9227EDFF8C81412
:10595000DFF89803FEF798FADFF89003FEF7AEFA47
:1059600080B2FEF72FF90500EDB2002D08D1FDF74A
:10597000B1FD0500EDB2002D02D02800C0B24EE00E
:10598000FEF702F9DFF89414DFF86003FEF77CFA03
:10599000DFF85803FEF792FA80B2FEF713F905001C
:1059A000EDB2002D08D1FDF795FD0500EDB2002DFB
:1059B00002D02800C0B232E0FEF7E6F8DFF8281384
:1059C000DFF82803FEF760FADFF82003FEF776FA27
:1059D00080B2FEF7F7F80500EDB2002D08D1FDF713
:1059E00079FD0500EDB2002D02D02800C0B216E00E
:1059F000206B002804D0206B02F003FAFCF729FD8D
:105A0000FCF7D9FC002000F011FADFF81404FEF7CF
:105A1000B3FBDFF81404FEF7EEFD2800C0B232BD80
:105A200038B50400002500F049F9A4B22300DFF8DE
:105A3000F4030078C0F3C202D2B2DFF86014AB48BE
:105A4000FEF722FAA4B2DFF8DC03C0F8A440A748AE
:105A5000FEF734FA80B2FEF7B5F80500EDB2002D7E
:105A600023D1DFF8A0040068C0F3C000002807D1EC
:105A7000DFF89004006850F00800DFF88814086030
:105A80000520DFF8A013A1F89A00DFF87804006879
:105A900050F48020DFF86C140860DFF868040068B8
:105AA00050F40010DFF85C1408602800C0B232BD6A
:105AB00080B5FEF769F800F001F9DFF84404DFF87B
:105AC00064130978C1F3C201C9B2405C002821D037
:105AD000DFF830040068C0F3C000002807D1DFF809
