:020000040800F2
:100000000806002039B20008357C0008377C00085B
:10001000417C00084B7C0008557C00080000000073
:100020000000000000000000000000005F7C0008ED
:10003000697C000800000000737C0008897C0008CF
:1000400041B4000845B4000849B400084DB40008A4
:1000500051B4000855B4000859B400085DB4000854
:1000600061B4000865B4000869B400086DB4000804
:1000700071B4000875B4000879B400087DB40008B4
:1000800081B4000885B4000889B400088DB4000864
:1000900091B4000895B4000899B400089DB4000814
:1000A000A1B40008A5B40008A9B40008ADB40008C4
:1000B0007F7C0008757C0008B1B40008B5B4000866
:1000C000B9B40008BDB40008C1B40008C5B4000844
:1000D000C9B40008C57C0008CF7C0008CDB4000876
:1000E000D1B40008D5B40008D9B40008DDB40008C4
:1000F000E1B40008E5B40008E9B40008EDB4000874
:10010000F1B40008F5B40008F9B40008FDB4000823
:1001100001B5000805B5000809B500080DB50008CF
:1001200011B5000815B5000819B500081DB500087F
:1001300021B5000825B5000829B500082DB500082F
:1001400031B5000835B5000839B500083DB50008DF
:1001500041B5000845B5000849B500084DB500088F
:1001600051B5000855B5000859B500085DB500083F
:1001700061B5000865B5000869B500080000000019
:100180006DB5000871B500082DE9F04104000025A7
:1001900003F08EFDE4B222001349144803F044FF3B
:1001A000FF2013498875114803F058FF80B203F00F
:1001B0009DFD0500EDB2002D02D02800C0B210E078
:1001C00001260027DFF82C803A003100404603F07A
:1001D00061FF0748807D0E2801D000BFF9E72800A5
:1001E000C0B2BDE8F0810000ECB2000808080020B1
:1001F000742C00208A2C00202DE9F04F8BB00400D5
:1002000000250020029020780500DFF8D41B086844
:10021000C0F3804000280FD1EDB2002D0CD0DFF8E4
:10022000C40BDFF8C41B09684554DFF8BC0B006839
:10023000401CDFF8B41B0860DFF8B00B04F018F8BE
:10024000DFF8A00BDFF8A01B0968084410F8020CC7
:100250000D2840F05384DFF88C0BDFF88C1B096805
:10026000084410F8010C0A2840F04884DFF8701B9D
:100270000868C0F30070002840F04084DFF8F00DFB
:10028000007810F00100002840F03884DFF8E41D09
:10029000DFF8500B03F0FBFF00286FD003F0AEF83F
:1002A00072B6DFF8400B01F04BFD62B603F096F832
:1002B000DFF82C1BD1F80100C0F30060002810D13A
:1002C00072B6DFF8B40DD0E9082311001A00DFF888
:1002D000AC0D03F031FF62B6DFF8100B03F0C8FF7E
:1002E0001CE0DFF8FC1A0868C0F34000002815D1B4
:1002F000DFF8F80A03F0BCFFDFF8E41AD1F80100D8
:10030000DFF8DC1A30F08070C1F80100DFF8D01A95
:100310000868DFF8CC1A50F002000860DFF8C01A55
:10032000D1F80100C0F38060002809D1DFF8B01ACD
:10033000D1F80100DFF8A81A30F08070C1F8010090
:100340000020DFF8A41A0860DFF8941A0868C0F3E8
:100350004050002810D0DFF8881A0868C0F3C06049
:10036000002809D0DFF8781A0868DFF8741A30F02E
:100370000060086000F0B5BC01F0D1BCDFF8001EE1
:10038000DFF8600A03F083FF002800F0C981DFF87E
:10039000F41DDFF8500A03F07AFF060000282CD085
:1003A00030798DF8040070798DF805009DF804000F
:1003B0000A219DF8052001FB0020DFF8BC1C91F804
:1003C000211060F30301DFF8B00C80F821100F203A
:1003D000DFF8A41C81F8260072B6DFF89C0CD0E987
:1003E000082311001A00DFF8940C03F0A5FE62B692
:1003F000DFF8F80903F03CFF6AE1DFF8901DDFF851
:10040000E40903F044FF0600002800F0A980707A98
:100410008DF80000B07A8DF80100F07A8DF80200B6
:10042000307B8DF803009DF801000D2807D19DF861
:1004300000003038DFF8581DC1F8A00044E09DF8F6
:1004400002000D280DD19DF800000A219DF8012021
:1004500001FB0020B0F50470DFF8341DC1F8A000E6
:1004600032E09DF803000D2814D19DF800006421AE
:100470009DF801200A235A4301FB00209DF8021039
:1004800050FA81F0DFF80C1D0818DFF8041DC1F8E0
:10049000A00019E09DF800004FF47A719DF801204A
:1004A00064235A4301FB00209DF802100A2202FB3C
:1004B00001009DF8031050FA81F0DFF8DC1C0818E9
:1004C000DFF8CC1CC1F8A000DFF8C40CD0F8A00005
:1004D000002808D0DFF808190868DFF8041950F47C
:1004E00000400860F4E0DFF8A80CD0F8A000002875
:1004F00040F0EE80DFF8980CDFF8941C0978C1F327
:10050000C201C9B2084490F8E90000281FD0DFF802
:100510008C0CDFF87C1C0978C1F3C201C9B2405CC5
:10052000002808D00221DFF8680C0078C0F3C20070
:10053000C0B203F06FFBDFF8580CDFF8541C0978E9
:10054000C1F3C201C9B20844002180F8E910DFF804
:1005500090180868DFF8881830F008000860B7E0E5
:1005600015A1DFF8800803F092FE0600002825D0D0
:100570000320DFF8041B81F82600300003F06EFD35
:10058000B0F10B0716F10308DFF8149C3A0041465E
:10059000484603F085FE72B6DFF8DC2AD2E908018E
:1005A0000A000100DFF8D40A03F0C6FD62B6DFF8E6
:1005B0003C0803F05DFE8BE0203D2000DFF8B00A30
:1005C0000078C0F34000C0B2002864D0DFF8A00A71
:1005D0004078C0F30010C0B2002871D0DFF8B00B33
:1005E000C079C0F3C200C0B200280BD0DFF8A00B66
:1005F000C07910F0C701083810F038000843DFF860
:10060000901BC871DFF8680A007810F0FD00DFF871
:10061000601A08700020DFF8841BDFF8742B527911
:1006200012F00F028854DFF8680B407910F00F00C9
:10063000DFF85C1B0871DFF8380A407810F0EF0033
:10064000DFF82C1A48700220DFF8241AC874DFF88B
:1006500090078079C0F38000C0B200280AD0DFF88C
:100660008017D1F80100DFF8781750F08040C1F80A
:10067000010007E0DFF86807807950F00400DFF838
:1006800060178871DFF858170868DFF8541730F0E2
:100690000800086014E00220DFF8DC1981F8260069
:1006A00072B6DFF8D409D0E9082311001A00DFF888
:1006B000CC0903F041FD62B6DFF8300703F0D8FD46
:1006C000DFF8AC09007810F0FD00DFF8A41908701D
:1006D0000020DFF8141708604FF400775FF000087F
:1006E000DFF8009742463900484603F0D3FCDFF8B4
:1006F000F0160868C0F3405000280FD0DFF8E0166D
:100700000868C0F3C060002808D0DFF8D416086875
:10071000DFF8CC1630F000600860E2E201F0FFBACA
:10072000DFF8E01DDFF8BC0603F0B1FD002800F0A3
:10073000F180DFF8D41DDFF8AC0603F0A8FD002837
:1007400037D0DFF8C80D03F0E7FDDFF824090078A3
:1007500010F0FD00DFF818190870DFF81409407870
:1007600010F0EF00DFF808194870DFF874068079A0
:10077000C0F38000C0B2002807D1DFF8640680799A
:1007800050F00400DFF8581688710120DFF8001AD5
:10079000DFF8FC29527912F00F02114481F8E900C8
:1007A000DFF83C160868DFF8381630F008000860FB
:1007B00088E0DFF85C1DDFF82C0603F068FD0028F8
:1007C00007D1DFF8501DDFF81C0603F060FD00289C
:1007D00031D0DFF80C160868C0F3C040002871D093
:1007E000DFF8FC150868DFF8F81530F40020086021
:1007F000DFF8EC150868DFF8E81530F0080008604D
:10080000DFF8DC150868DFF8D81530F40010086050
:10081000DFF8CC150868DFF8C81530F480200860D0
:100820000020DFF86C19A1F896000020DFF86019AD
:10083000C1F8B40046E0DFF8E01CDFF8A80503F0DB
:1008400026FD002803D0DFF8D40C03F065FD082056
:10085000DFF8241881F8260072B6DFF81C08D0E90A
:10086000082311001A00DFF8140803F065FC62B6D3
:10087000DFF8780503F0FCFCDFF864150868C0F3C6
:10088000C000002807D0DFF858150868DFF85015B9
:1008900030F008000860DFF84815D1F80200C0F316
:1008A000407000280ED0DFF83815D1F80200DFF8CC
:1008B000301530F00050C1F802000020DFF8D018E9
:1008C000C1F8CC000020DFF8201508604FF4007755
:1008D0005FF00008DFF80C9542463900484603F007
:1008E000D9FBDFF8FC140868C0F3405000280FD093
:1008F000DFF8EC140868C0F3C060002808D0DFF807
:10090000E0140868DFF8D81430F000600860E8E10F
:1009100001F005BADFF8081CDFF8C80403F0B7FCE3
:1009200000285FD0DFF8FC1BDFF8B80403F0AFFC51
:100930000600002E04D00020DFF85418487203E0AF
:100940000120DFF84C1848726BA1DFF8980403F01F
:100950009EFC0600002E04D00020DFF834188872B8
:1009600003E00120DFF8281888720420DFF8081758
:1009700081F8260072B6DFF80007D0E908231100DD
:100980001A00DFF8F80603F0D7FB62B6DFF85C0464
:1009900003F06EFC0020DFF8501408604FF400777D
:1009A0005FF00008DFF83C9442463900484603F007
:1009B00071FBDFF82C140868C0F3405000280FD0FA
:1009C000DFF81C140868C0F3C060002808D0DFF806
:1009D00010140868DFF8081430F00060086080E147
:1009E00001F09DB9DFF8F8130868C0F34050002803
:1009F00043D0DFF8EC130868C0F3C06000283CD097
:100A0000DFF8DC13D1F80100C0F3C060002834D156
:100A1000DFF87C07B0F89800002814D072B6DFF831
:100A20007007B0F89810DFF8500603F0A3FD62B627
:100A3000DFF85C07B0F898705FF0000842463900B4
:100A4000200003F027FBDFF89813D1F80200DFF84D
:100A5000901350F08040C1F80200DFF8841308685A
:100A6000DFF87C1330F000600860DFF87C0300687A
:100A7000DFF81C17A1F89C001EE0DFF86403407A41
:100A8000C0F38000C0B2002816D0DFF85C0307680E
:100A90005FF00008DFF84C9342463900484603F007
:100AA000F9FA0020DFF840130860DFF83403407AD9
:100AB00010F0FB00CA494872DFF8B405007810F066
:100AC0000100002840F00D81DFF8A4050078C0F394
:100AD0004010C0B2002800F004810020C249086024
:100AE0004FF400775FF00008DFF8F89242463900D3
:100AF000484603F0CFFAF4E06F757400B848407AC6
:100B0000C0F38000C0B200282AD1DFF8EC1DB54840
:100B100003F0BDFB002823D0DFF8E01DB14803F04F
:100B2000B6FB00281AD01D2003F0D8FD03F0F6FD17
:100B3000AB48407A50F00400A9494872AA480768B7
:100B40005FF00008DFF89C9242463900484603F007
:100B5000A1FA0020A449086001F0E1B801F0DFB873
:100B60009F49D1F80300C0F30060002874D0DFF87B
:100B7000901D9C4803F08BFB002845D1DFF8841DB5
:100B8000984803F084FB00283ED1DFF87C1D95488F
:100B900003F07DFB002837D1DFF8701D914803F08A
:100BA00076FB002830D1DFF8681D8E4803F06FFB1C
:100BB000002829D1DFF85C1D8A4803F068FB002873
:100BC00022D1DFF8541D874803F061FB00281BD1B8
:100BD000DFF8481D834803F05AFB002814D1DFF8E2
:100BE000401D804803F053FB00280DD1DFF8341D71
:100BF0007C4803F04CFB002806D1DFF82C1D794817
:100C000003F045FB00286CD075490868744950F022
:100C10008050086072490868714950F4802008606B
:100C20006F49D1F803006E4930F08070C1F80300BD
:100C30000520DFF85C15A1F89A006949D1F8020097
:100C4000674930F00050C1F802000020DFF840157D
:100C5000C1F8CC0001F063B86248634909680844F0
:100C600010F8010C092816D15E485F49096808444C
:100C700010F8020C3A280ED15A485B49096808441A
:100C800010F8030C312806D155490868544950F032
:100C90000040086025E05248C079C0F38000C0B22F
:100CA00000280BD04F4850490968084410F8010C3F
:100CB000002816D100204C49086012E04A4800681C
:100CC000B0F5FF7F0DD90020474908604FF4007749
:100CD0005FF00008DFF80C9142463900484603F007
:100CE000D9F93F490868C0F38040002800F02D8101
:100CF0003B49D1F80200C0F38070002840F0258104
:100D0000DFF88C04B0F89800DFF88414A1F89C0098
:100D100035480068DFF87814B1F89C104018B0F539
:100D2000007F24D330480068DFF86414B1F89C10C9
:100D30004018A0F2FF1772B63900CF4803F01AFC32
:100D400062B65FF00008284800684042204400F284
:100D5000FF1942463900484603F09CF940F2FF1063
:100D600021490968401ADFF82814A1F89C00DFF82F
:100D70002004B0F89C70DFF8B48B1A481A4909684F
:100D800000EB01093A004146484603F089FA16484B
:100D90000068DFF8FC13B1F89C1040181249086095
:100DA00011480068012804D10E4800780D2800F091
:100DB000B687DFF83C1E0B4803F069FA002817D00D
:100DC00007490868064930F0006008600449D1F816
:100DD0000100034930F00060C1F80100B5E000BF38
:100DE000D82C0020082400201C2D0020442B00209B
:100DF0009F48007810F00100002840F0A680DFF83E
:100E0000F41D0868C0F30070002840F09E80DFF8F1
:100E1000E80D0078002800F09880DFF8DC0D0078FD
:100E20000D2840F09280DFF8D00D40780A2840F07D
:100E30008C80D748D0F8A400022800F08680DFF824
:100E4000B41DD1F80100DFF8AC1D50F00060C1F80E
:100E50000100CDA1DFF8A40D03F019FA0600002867
:100E600045D0DFF8940D301A871CDFF8941DDFF8A9
:100E70008C0D03F00CFA00280DD0C149DFF8780D75
:100E8000384403F004FA0600002E04D0DFF8680DA1
:100E9000301A801D0700DFF86C0D0068C01B0028A9
:100EA0001BD072B6DFF85C0D0068C11B724803F0FE
:100EB00061FB62B6DFF84C0D0068B0EB07085FF02D
:100EC0000009DFF8340D00EB070A4A464146504658
:100ED00003F0E0F8DFF82C0D0760DFF8181DD1F8FB
:100EE0000100DFF8101D30F00060C1F80100DFF8EC
:100EF000041D0868DFF8FC1C50F000600860DFF893
:100F0000040D006840F2FF1188421ED1DFF8E41C96
:100F1000D1F80100C0F3C060002816D0DFF8D41C5F
:100F2000D1F80100DFF8CC1C30F00060C1F80100FE
:100F3000DFF8C01C0868DFF8BC1C30F000600860F7
:100F400040F2FF109249A1F89C00DFF8A81C086845
:100F5000C0F3C060002840F0E782DFF8981C086802
:100F6000C0F34050002800F0DF824148007850F084
:100F700001003F4908708648D0F8B0008449B1F8B4
:100F80009C1040188249C1F8B000DFF8641CDFF8FB
:100F9000680C7F4AB2F89A201044401F03F077F99A
:100FA0000600002E00F0FE80DFF84C0CDFF8541C29
:100FB0000968084410F8020C0D2840F0F380DFF8AF
:100FC000380CDFF8401C0968084410F8010C0A28A6
:100FD00040F0E880DFF84C1DDFF81C0C03F057F9F7
:100FE000060000281DD0F07E00280FD0DFF8080C86
:100FF000371ADFF8100C006817F11B01B0EB01087D
:1010000072B641461C4803F0B5FA62B618484078FB
:1010100050F00100164948700D205D4981F8E80044
:101020004BE0DFF8E414DFF8D00B03F030F90600F2
:10103000002825D0F07D00280FD0DFF8BC0B371A30
:10104000DFF8C00B006817F11701B0EB010872B6AA
:101050004146094803F08EFA62B601204C494C4AD9
:10106000527912F00F02114481F8E90025E000BF27
:10107000742C002094B30008242B0020382B00206F
:10108000DFF8A41CDFF8700B03F001F9060000285C
:1010900013D0F07D002810D0DFF85C0B371ADFF892
:1010A000640B006817F11701B0EB010872B64146F6
:1010B000DFF8540E03F05EFA62B600203449C1F83E
:1010C000B00000203249C1F8A00000203049C1F82A
:1010D000A40005202E49A1F89A00DFF8181B086823
:1010E000DFF8101B30F400100860DFF8081B0868F8
:1010F000DFF8001B30F008000860DFF8F81A086815
:10110000DFF8F01A30F4802008600020DFF81C1CA3
:101110004860DFF8180C007810F0FE00DFF80C1CB7
:101120000870DFF8D01A0868C0F3C040002815D056
:10113000DFF8C01A0868DFF8BC1A30F40020086035
:1011400000201349C1F8A800DFF8A81A0868DFF8E2
:10115000A41A50F00100086002F040FEDFF8A40A73
:1011600007685FF00008DFF8909A42463900484669
:1011700002F090FF0020DFF88C1A086000F0CFBD6D
:101180009CB30008A4B300080D0A0000F8B20008E0
:101190009827002030EBFFFFB02FFFFFEC2C002042
:1011A000A6270020DFF85C0A0068062808D3002E76
:1011B00006D1DFF8500A0068DFF8781BA1F89A0022
:1011C000DFF8700BD0F8B000DFF8681BD1F8A4107E
:1011D0008842C0F02081DFF85C0BD0F8A400DFF873
:1011E000541BD1F8B010884225D2DFF8480BD0F854
:1011F000B000DFF8401BD1F8A410471A72B63900CE
:10120000DFF8040D03F0B6F962B65FF00008DFF80E
:10121000E809DFF8F0190968C91B00EB010942462B
:101220003900484602F036FFDFF8D8090068C01BD5
:10123000DFF8D0190860DFF8CC090068DFF8F41A8D
:10124000A1F89600DFF8EC0AD0F8A400DFF8E41A61
:10125000C1F8B400DFF8AC090768DFF89C89DFF853
:10126000D89A3A004146484603F01AF80020DFF8C1
:10127000941908600020DFF8BC1AC1F8B000002003
:10128000DFF8B01AC1F8A0000020DFF8A81AC1F8F2
:10129000A4000020DFF89C1AA1F89C000520DFF8CC
:1012A000941AA1F89A00DFF84C190868DFF844197D
:1012B00030F000600860DFF83C190868DFF8341986
:1012C00030F480200860DFF86C0AC07850F0070026
:1012D000DFF8601AC870DFF81C190868C0F3C04056
:1012E000002830D00020DFF84C1AC1F8A800DFF841
:1012F000440A407810F0C700DFF8381A4870DFF869
:101300002C0A4068002806D0DFF8200A4068401EFA
:10131000DFF8181A4860DFF8140A4068002809D17D
:10132000DFF8D0180868DFF8CC1850F0010008602A
:1013300002F054FDDFF8BC180868DFF8B81830F484
:10134000800008601CE0DFF8AC180868DFF8A4181B
:1013500050F480000860DFF8DC090078C0B2C008F3
:10136000DFF8D019497860F3C501DFF8C80941708A
:10137000DFF8B809007850F00200DFF8B019087003
:10138000DFF870180868DFF86C1830F40010086097
:10139000DFF89809007810F0FE00DFF89019087067
:1013A00002F039F8DFF84C180868C0F3C040002894
:1013B0001AD0DFF84018D1F80100DFF8381850F0E3
:1013C0000050C1F80100DFF82C180868DFF8241875
:1013D00030F008000860DFF81C180868DFF81418FF
:1013E00030F40020086009E0DFF80818D1F80100A7
:1013F000DFF8001850F08050C1F801004FF400777A
:101400005FF00008DFF8F09742463900484602F0E6
:1014100041FE00F084BCDFF8EC070068B0F5FF7F08
:101420006DD90520DFF80C19A1F89A00DFF804093E
:10143000D0F8A400DFF8FC18C1F8B40040F2FF10A7
:10144000DFF8F018A1F89600DFF8B8070768DFF8B2
:10145000A887DFF8E4983A004146484602F020FFAA
:101460000020DFF8A01708600520DFF8C818A1F8F1
:101470009A00DFF8C008C07850F00700DFF8B41811
:10148000C87001F0C8FF4FF400795FF0000ADFF880
:1014900068B752464946584602F0FCFDDFF854173B
:1014A0000868C0F3C040002812D0DFF888084078F0
:1014B00010F0C700DFF87C184870DFF83817D1F853
:1014C0000100DFF8301750F00050C1F8010016E0BD
:1014D000DFF860080078C0B2C008DFF85818497813
:1014E00060F3C501DFF84C084170DFF80817D1F848
:1014F0000100DFF8001750F08050C1F8010000F043
:101500000EBC00BFACB3000858AE000804A9000828
:10151000E4AA00084CAA0008B4B30008ECAB000829
:10152000BCB30008C4B30008DFF8C8160868C0F3ED
:101530000070002800F0FC81DFF8F007007850F020
:101540000100DFF8E8170870DFF8F017DFF8A806E9
:10155000DFF8E027B2F89A201044401F02F097FE0F
:101560000600002800F0AB80F079002823D0DFF8D7
:101570008806371ADFF88C060068B91DB0EB010841
:1015800072B64146DFF8800902F0F4FF62B65FF000
:101590000009DFF86406384410F1070A4A4641465C
:1015A000504602F077FDDFF85C060068B0EB0800FB
:1015B000DFF850160860DFF84C060068DFF8741793
:1015C000A1F89600DFF83C060768DFF82C86DFF804
:1015D00068973A004146484602F062FEDFF824066A
:1015E0000068DFF85017A1F89200DFF84007407854
:1015F00050F00100DFF834174870DFF8F81508687C
:10160000DFF8F01530F480200860DFF8E81508688E
:10161000DFF8E01530F08050086001F0FCFE00209B
:10162000DFF8101781F8E800DFF80007007810F005
:10163000FE00DFF8F8160870DFF8B8150868DFF864
:10164000B41530F000600860DFF8A8150868DFF80E
:10165000A41530F0080008600520DFF8D816A1F8BE
:101660009A00DFF8A005D0F800905FF0000ADFF8DC
:1016700088B552464946584602F00CFD0020DFF876
:1016800084150860DFF86C150868C0F34070002806
:101690000AD0DFF86015D1F80200DFF8581550F0D5
:1016A0008060C1F802009BE0DFF84815D1F8020025
:1016B000DFF8401550F00070C1F8020090E0DFF84C
:1016C000B81BDFF83405DFF86C26B2F89A20104416
:1016D000401F02F0DCFD0600002800F08180DFF8EA
:1016E00014150868DFF80C1530F480200860DFF866
:1016F0000805DFF810150968084410F8020C0D28D9
:101700006ED1DFF8F404DFF8FC140968084410F81F
:10171000010C0A2864D1DFF81406407850F001006B
:10172000DFF8081648700D20DFF8081681F8E80089
:10173000DFF8F805007810F0FE00DFF8F01508700B
:10174000DFF8B0140868DFF8AC1430F480200860CB
:10175000DFF8A0140868DFF89C1430F0006008601F
:101760000020DFF8A01408600520DFF8C815A1F8F4
:101770009A00DFF880140868DFF8781430F08050A1
:101780000860DFF870140868DFF8681430F00800AB
:1017900008604FF400775FF00008DFF85C94424681
:1017A0003900484602F076FCDFF848140868C0F3B8
:1017B000407000280AD0DFF83C14D1F80200DFF8AE
:1017C000341430F08060C1F8020009E0DFF824141E
:1017D000D1F80200DFF81C1430F00070C1F80200EC
:1017E000DFF820040068062801D3012000E0002073
:1017F000002E01D1012100E00021C0B2084206D034
:10180000DFF800040068DFF82C15A1F89A00DFF873
:10181000F403006840F2FF1188426CD1DFF8E40362
:1018200000680A90DFF8D0030990DFF80C750A9A77
:101830000999380002F034FD06200890DFF83C0AD0
:101840000790DFF83C7A089A0799380002F028FDE3
:101850000620069000200590DFF8207A059A069968
:10186000380002F017FC4FF4007004900020039041
:10187000DFF88473039A0499380002F00BFC062702
:10188000DFF8FC89DFF870933A004146484602F0E1
:1018900007FD5FF006095FF0000ADFF8E4B9524681
:1018A0004946584602F0F6FB0620D6490860052056
:1018B000DFF88014A1F89A0040F2F910DFF87414F0
:1018C000A1F8920001F0A7FDCA490868C0F3407072
:1018D000002808D0C749D1F80200C64950F08060FE
:1018E000C1F8020007E0C349D1F80200C14950F035
:1018F0000070C1F8020012E204B30008CCB3000883
:10190000D4B30008DCB3000858B00008E4B3000802
:101910006CB0000818B2000828B2000870AE0008C9
:10192000D0AC000880B0000888AE00080822002073
:10193000B0490868C0F3C060002840F08981AD4913
:101940000868C00F002800F08381AB48AD490968E2
:10195000084410F8020C0D2840F06581A648A949FA
:101960000968084410F8010C0A2840F05C81DFF88F
:10197000140902F010FFDFF8BC03407BDFF8B4135A
:10198000097B884280F0D880DFF8FC189A4802F082
:101990007EFC0600002E10D0B0798DF80000F079A2
:1019A0008DF801009DF800000A219DF8012001FB3F
:1019B00000201038DFF8D4180870DFF8D00800785D
:1019C000DFF8CC180968DB4A527B2C235A43885431
:1019D000DFF8C018884802F05AFC0600002E0FD02D
:1019E000F0798DF80000307A8DF801009DF8000044
:1019F0000A219DF8012001FB0020B0F5047002903F
:101A0000DFF88C080068CB49497B2C2251430844FD
:101A1000029949424160DFF88018774802F037FCAC
:101A20000600002E26D00720DFF870180870DFF8B7
:101A30006C080078305C27281CD0DFF85408006858
:101A4000BC49497B2C2251430844DFF850180978DF
:101A50000844DFF848180978715C4170DFF83C08E9
:101A60000078401CDFF834180870DFF83008007880
:101A70002328DCD1DFF828185F4802F008FC0600B4
:101A8000002E0BD0DFF808080068AA49497B2C22F9
:101A900051430844012180F826100AE0DFF8F007DE
:101AA0000068A449497B2C2251430844002180F856
:101AB0002610DFF8F017504802F0E9FB0600002E70
:101AC0000BD0DFF8CC0700689A49497B2C225143A0
:101AD0000844012180F827100AE0DFF8B407006805
:101AE0009449497B2C2251430844002180F8271057
:101AF000DFF8B417404802F0CAFB0600002E0BD0F6
:101B0000DFF88C0700688B49497B2C22514308443D
:101B1000012180F828100AE0DFF874070068854981
:101B2000497B2C2251430844002180F82810814829
:101B3000407B401C7F494873DFF83C172E4802F079
:101B4000A6FB0600002E24D04FF400775FF00008BB
:101B5000DFF8A49042463900484602F09BFA002084
:101B6000284908607148407850F001006F4948707A
:101B7000204908681F4920F0004008601D49086896
:101B80001C4930F4007008600D206A4981F8E800B3
:101B9000C5E0DFF81817184802F079FB002833D0A9
:101BA00014490868134930F4007008600020614946
:101BB00048730020134908605C48407850F00100E9
:101BC0005A4948700B4908680A4920F000400860EB
:101BD0000020584981F8E8004FF400775FF00008D2
:101BE000DFF8149042463900484602F053FA96E076
:101BF000ECB30008D82C0020082400200A24002080
:101C000010B300081C2D00200020DFF8A416086087
:101C10004FF400775FF00008DFF8989642463900ED
:101C2000484602F037FADFF888060068B0F5FF7F13
:101C30000ED90020DFF8781608604FF400775FF0C7
:101C40000008DFF8709642463900484602F022FA52
:101C5000DFF864160868C0F3C06000285FD1DFF8C1
:101C600058160868C0F38060002858D030A002F0F1
:101C700053FBDFF84816DFF83C0602F008FB0600CD
:101C8000002836D0DFF830160868DFF82C1630F45C
:101C900080200860DFF81C06DFF814160968084485
:101CA00010F8020C0D2824D1DFF80806DFF8001622
:101CB0000968084410F8010C0A281AD1DFF8000658
:101CC00002F02AFBDFF8F0150868DFF8EC1530F0B9
:101CD000806008600020DFF8D81508604FF40077B6
:101CE0005FF00008DFF8CC9542463900484602F024
:101CF000D1F9DFF8BC05006840F2FF1188420ED12F
:101D00000020DFF8AC1508604FF400775FF00008A2
:101D1000DFF8A09542463900484602F0BBF90BB007
:101D2000BDE8F08FECAC0008A0AE0008742C0020D9
:101D30002A00000098270020082000209CB30008FB
:101D40002DE9FC470400250026004FF0FF08002E77
:101D500000F09082DFF86C15280002F098FA060077
:101D6000002E00F0878270798DF80400B0798DF82C
:101D700005009DF805003A2804D19DF8040030388C
:101D800080460BE09DF804000A2110FB01F09DF84D
:101D9000051050FA81F0B0F5047080465A4880F87A
:101DA00020800120584981F826000FFA88F8404623
:101DB0000028032840F23882001F012840F2508298
:101DC000801E012840F23082801E012840F24882A5
:101DD000801E00F03882401E012840F24182801EA1
:101DE000012840F22182801E00F03A82401E032822
:101DF00040F21A82001F00F03382401E00F014826D
:101E0000401E012840F22C82C01E00F00D82401EB0
:101E1000012840F22582801E00F0A681801E00F07D
:101E20000382401E012840F21B82801E012840F2DE
:101E3000FB81801E012840F21382801E00F0F48195
:101E4000401E00F00D82401E00F0EE81401E04286E
:101E500040F20682401F012840F2E681001F05285B
:101E600040F2E281801F20D0801E00F0B581401E2C
:101E70002FD0401E00F01681401E00F03181401E20
:101E8000012840F29981C01E31D0801E00F0CC8123
:101E9000401E00F0B381401E00F0BB81001F00F027
:101EA0007781801E00F0C081DBE1DFF81C14280080
:101EB00002F0EDF9060070798DF800009DF8000041
:101EC000114991F8211060F303010F4880F82110A7
:101ED000C7E1B07D8DF800009DF800000A4991F837
:101EE000211060F30301084880F82110B9E1DFF800
:101EF000C813D1F80100C0F30060002806D0DFF855
:101F0000CC0302F009FAB5E1242B0020DFF8A81376
:101F1000D1F80100C0F34060002805D00020DFF8B0
:101F2000B013C1F8AC0011E0DFF88C130868DFF8DB
:101F3000881350F008000860DFF87C13D1F8010026
:101F4000DFF8741350F00070C1F80100DFF8781367
:101F5000280002F09CF90600002E00F0A2807079A3
:101F60008DF800009DF800003038DFF8681381F824
:101F70002200307A8DF80000707A8DF80100B07A76
:101F80008DF80200F07A8DF803009DF800003A28E1
:101F900006D1F0798DF80000307A8DF801002EE03E
:101FA0009DF801003A2809D1F0798DF80000307AC7
:101FB0008DF80100707A8DF8020020E09DF8020093
:101FC0003A280CD1F0798DF80000307A8DF80100B4
:101FD000707A8DF80200B07A8DF803000FE09DF85A
:101FE00003003A280BD1F0798DF80000307A8DF893
:101FF0000100707A8DF80200B07A8DF803009DF828
:1020000001003A2805D19DF800003038B149888494
:1020100042E09DF802003A280DD19DF800000A2107
:1020200010FB01F09DF8011050FA81F0B0F504703A
:10203000A849888430E09DF803003A2813D19DF820
:102040000000642110FB01F09DF801100A2211FB31
:1020500002009DF8021050FA81F041F2D041401A7E
:102060009C49888418E09DF800004FF47A7110FBB9
:1020700001F09DF80110642211FB02009DF802108E
:102080000A2211FB02009DF8031050FA81F000F5BE
:102090003C50B0308F4988848F484068401C8E493E
:1020A0004860DEE08C48007850F080008A49087073
:1020B0008948007810F0DF008749087000208649C1
:1020C00048607D4908687C4930F0020008607A4920
:1020D000D1F80100784950F08070C1F80100C0E0EB
:1020E0007D48007810F07F007B4908707A480078BE
:1020F00050F02000784908706F4908686E4930F048
:10210000020008606C49D1F801006B4950F0807002
:10211000C1F8010068490868C00708D56E48007812
:10212000C0B2C009C0B2002801D101F057FE624917
:102130000868C0F3C040002815D005206449A1F804
:102140009A005D4908685C4950F4802008605A494B
:102150000868594950F4001008605D48D0F8A8009C
:102160005B49C1F8A4007CE05C49280002F08FF8CC
:10217000060011200700222F06DAF05D5449394489
:1021800081F83E007F1CF6E70B205349887568E014
:102190005349280002F07BF8060011200700222F87
:1021A00006DAF05D4A49394481F83E007F1CF6E7C3
:1021B0000C204949887554E03F49D1F80100C0F32B
:1021C0000060002807D03C49D1F801003A4930F0BE
:1021D0008070C1F8010044E000204249087036498F
:1021E0000868354930F0020008603349D1F8010031
:1021F000314950F08070C1F8010032E00A203549C1
:1022000081F826002C48C07950F004002A49C87192
:1022100027E009202F4981F826002748C07910F0CF
:10222000FB002549C8711CE023490868224930F0A9
:10223000020008602049D1F801001F4950F0807069
:10224000C1F801000DE01C490868C0F3C000002877
:1022500005D019490868184930F00800086000E006
:10226000FFE74FF400795FF0000A52464946280024
:1022700001F010FFBDE8F387ACB300080122002095
:10228000FC2C002060000020F4B30008302D00205A
:10229000182D0020FCB3000804B400082F2D0020E6
:1022A0000CB4000814B400081CB4000824B40008DE
:1022B0001C2D002008240020D82C00201CB300086E
:1022C00094B0000894B300082CB4000834B400089B
:1022D00098270020242B0020742C002028B300080D
:1022E00034B300082B2D002070B54FF48061DFF867
:1022F000A80202F023F8DFF8A402407810F0F10001
:10230000DFF8981248700020DFF89412087000F08F
:102310002CF900F088F800F017F83221DFF8840279
:1023200001F0ECFE01F05AF8082400259E4E2A0028
:102330002100300001F0AEFE9C4802F065FA002852
:1023400001D001F0CCFC70BD9448007850F008003A
:10235000924908709148007850F080008F490870C9
:102360008E48007810F0BF008C49087000208B491F
:10237000487400208949887400208849486087484B
:10238000407810F0FE0085494870FF208349887529
:1023900002208249C87402208049087500207F49C4
:1023A000487500207D49C86081490868804950F01F
:1023B000010008607E4908687D4950F0020008600D
:1023C0007B49D1F802007A4930F00050C1F8020090
:1023D0007748007A10F0FE007549087274488079D9
:1023E00050F00400724988717148C07910F07F0084
:1023F0006F49C8716E48007A10F0FD006C49087290
:102400006B48007A10F0FB00694908726848007A4E
:1024100010F0F700664908726548407A10F0FB003A
:102420006349487270472DE9F0416248C07910F065
:10243000C7006049C87100205E49C1F8AC000020A7
:102440005C49C1F8A00000205A49C1F8A80000204A
:102450005849C1F8B80000205649C1F8B000002022
:102460005449A1F8980000205249C1F8BC0000204E
:102470005049C1F8C40000204E49C1F8C8000020EE
:102480004C49487300204B49C1F8CC000020494911
:10249000A1F894004FF480504649C1F8E4000520AB
:1024A0004449A1F89A0008240125434E2A0021003E
:1024B000300001F0EFFD4FF400660027DFF8FC80EC
:1024C0003A003100404601F0E5FDBDE8F08180B5FD
:1024D0003B48006850F004003949086038480068FB
:1024E00010F00400009000983548006850F001009A
:1024F000334908603248006810F0010000900098ED
:102500004FF4805024490863012023494863012087
:102510002149886303202049C8632A492A4802F0D8
:10252000B1FA00201E490870FF201C49887500225E
:102530004FF48051244802F041FCC82002F060FCB6
:1025400001224FF48051204802F038FC322002F082
:1025500057FC4FF480511C4802F08DFB0F48807DE2
:102560000E2801D000BFF9E701BD80B500224FF46D
:1025700080515FF0904002F021FC01221349144881
:1025800002F0D4FD002805D109490868084950F433
:102590008050086001BD0000242B0020742C002016
:1025A0002B2D0020382B0020EC2C0020682B002045
:1025B000D82C002098270020F42C002008100020A0
:1025C0004C100240542B002000080048E627002051
:1025D000842900202DE9F04383B004000025002663
:1025E000DFF80C1E0868C0F3C000002840F06484C7
:1025F00072B6DFF8000E01F0EAFDDFF8FC1D88621C
:1026000062B6DFF8F40D806A002800F05584DFF828
:10261000E80D806A8079012838D0022800F03084E3
:10262000032800F02D84042800F02A84062800F0F6
:102630000481082800F01284092800F034840A2854
:1026400000F030840C2800F026830D2800F08383EE
:102650000E2800F096820F2849D0102800F09F81A4
:10266000142800F05881152800F01582162800F073
:102670008A80172800F0D3811C2800F061821D2871
:102680000BD0282800F0AD8300F016BCDFF8680DF1
:10269000806A01F02BF800F00FBCDFF85C0D806A57
:1026A000407810F00F00DFF88C1D097860F302010C
:1026B000DFF8800D01700120DFF81C1DDFF8382DD8
:1026C000926A527812F00F0288540020DFF8681DD9
:1026D0004875DFF8640D407850F00100DFF8581DB0
:1026E00048700020DFF84C1D81F8E800E4E3DFF8D3
:1026F000440DC079C0F3C200C0B208280DDBDFF87A
:10270000380D407850F00100DFF82C1D487004208F
:10271000DFF8201D81F8E800CEE3DFF8180DC0795E
:1027200010F0C701083010F038000843DFF8041D2E
:10273000C8710120DFF8041DDFF8BC2C926A5278C2
:1027400012F00F028854DFF8B00C806A407810F065
:102750000F00DFF8E01C097860F30201DFF8D40C09
:1027600001700020DFF8D01C4875DFF8CC0C4078F1
:1027700050F00100DFF8C01C48700020DFF8B41CE6
:1027800081F8E80098E3DFF8681CD1F80200DFF870
:10279000601C30F00050C1F802000020DFF8941CEB
:1027A000C1F8CC00DFF88C0C007A10F00700042888
:1027B0000DDBDFF8840C407850F00100DFF8781C66
:1027C00048700420DFF86C1C81F8E80074E3DFF83F
:1027D000640C007A10F0F801401C10F00700084368
:1027E000DFF8501C08720120DFF8541CDFF8082CB9
:1027F000926A527812F00F028854DFF8FC0B806A5C
:10280000407810F00F00DFF82C1CC97960F302014A
:10281000DFF8200CC1710020DFF81C1C4875DFF8C0
:10282000180C407850F00100DFF80C1C48700020B4
:10283000DFF8001C81F8E8003EE301F039FADFF828
:10284000F40BC07A012811D1DFF8E80BD0F8C000F2
:102850000090DFF8E00B436EDFF8D80B026EDFF874
:10286000F81CDFF8F80C01F0DFFB15E0DFF8C40B13
:10287000C07A002810D1DFF8BC0BD0F8C00000905F
:10288000DFF8B00B436EDFF8AC0B026EDFF8D01C44
:10289000DFF8C80C01F0C8FBDFF8C00C01F0DEFB6C
:1028A00080B201F023FA0500EDB2002D25D1002001
:1028B000DFF8801BC1F8CC00DFF8341BD1F8020030
:1028C000DFF82C1B50F00050C1F80200DFF8201B8D
:1028D0000868DFF81C1B50F008000860DFF8101BC8
:1028E000D1F80300DFF8081B50F08070C1F8030036
:1028F0000620DFF8441B48750CE00D20DFF8341B80
:1029000081F8E800DFF8300B407850F00100DFF884
:10291000281B4870D0E201F0CBF9DFF8180BB0F8B3
:102920008C30DFF8100B807810F00702DFF8EC1C19
:10293000DFF8280C01F078FBDFF8200C01F08EFBAB
:1029400080B201F0D3F90500EDB2002D13D101F0F2
:10295000AFF972B6DFF8DC0AB0F88C20DFF8D40AE1
:10296000D0F88810DFF8B80C02F0B2FB002801D0D4
:102970000F20050062B6EDB2002D02D1F6B2002E96
:102980000CD0DFF8B40A407850F00100DFF8A81A44
:1029900048700D20DFF89C1A81F8E8008CE201F005
:1029A00087F9DFF8900AC06E0090DFF8880AD0F847
:1029B000C030DFF8800A026EDFF8681CDFF89C0B7D
:1029C00001F032FBDFF8940B01F048FB80B201F01C
:1029D0008DF90500EDB2002D0DD0DFF85C0A4078CE
:1029E00050F00100DFF8501A48700D20DFF8441A4B
:1029F00081F8E80012E01020DFF83C1A487500204A
:102A0000DFF8301AC1F8CC00DFF8E419D1F8020081
:102A1000DFF8DC1950F00050C1F802004CE201F080
:102A200047F9DFF8100AC36EDFF8080AD0F8C020B3
:102A3000DFF88C1CDFF8240B01F0F6FADFF81C0B32
:102A400001F00CFB80B201F051F90500EDB2002D50
:102A50000DD0DFF8E409407850F00100DFF8D81914
:102A600048700D20DFF8CC1981F8E80012E017203B
:102A7000DFF8C41948750020DFF8B819C1F8CC0098
:102A8000DFF86C19D1F80200DFF8641950F000503B
:102A9000C1F8020010E2DFF8A409DFF85C19896AC6
:102AA000497811F00F01405C002844D001F000F992
:102AB000DFF84409806A407810F00F02DFF8041C48
:102AC000DFF8980A01F0B0FADFF8900A01F0C6FAD0
:102AD00080B201F00BF90500EDB2002D2FD10020DE
:102AE000DFF8501981F8E800DFF804190868DFF80A
:102AF000001950F008000860DFF8FC08806A407890
:102B000010F00F00DFF82C19497960F30301DFF8AA
:102B100024094171DFF82009407850F01000DFF8F7
:102B200018194870DFF81009007850F00200DFF83B
:102B30000819087003E0DFF8900B01F0EDFBBBE132
:102B400001F0B6F8DFF8841BDFF8100A01F06CFA28
:102B5000DFF8080A01F082FA80B201F0C7F8050038
:102B6000EDB2002D0CD10020DFF8C81881F8E80084
:102B7000DFF87C180868DFF8781850F00800086063
:102B80009AE101F095F8DFF8AC08B0F88C30DFF886
:102B9000A408026FDFF8381BDFF8C00901F044FA1F
:102BA000DFF8B80901F05AFA80B201F09FF8050089
:102BB000EDB2002D0DD0DFF88008407850F0010014
:102BC000DFF8741848700D20DFF8681881F8E80005
:102BD00060E000F00DFD0500EDB2002D0CD0DFF837
:102BE0005808407850F00100DFF84C1848700D206C
:102BF000DFF8401881F8E800DFF83808B0F88C30CA
:102C0000DFF83008026FDFF8CC1ADFF8500901F066
:102C10000BFADFF8480901F021FA80B201F066F8FA
:102C20000500EDB2002D0CD0DFF80C08407850F014
:102C30000100DFF8041848700D20DFF8F81781F85C
:102C4000E80001F035F8DFF8EC07B0F88C70DFF839
:102C5000E407D0F88880DFF804993A0041464846F6
:102C600001F01EFBDFF8F40801F0F8F980B201F082
:102C70003DF80500EDB2002D0CD0DFF8BC07407820
:102C800050F00100DFF8B01748700D20DFF8A417EE
:102C900081F8E80010E101F00BF8DFF89807006F09
:102CA000002806D1DFF8301ADFF8B00801F0BCF9CF
:102CB0001FE0DFF88007006E002809D1DFF87407F5
:102CC000026FDFF8181ADFF8940801F0ADF910E090
:102CD000DFF86007D0F8C0000090DFF85807036FF6
:102CE000DFF85007026EDFF8F819DFF8700801F01E
:102CF0009BF9DFF8680801F0B1F980B200F0F6FF47
:102D00000500EDB2002D18D1DFF8E4160868DFF8F1
:102D1000E01650F000500860DFF8D4160868DFF8BD
:102D2000D01650F480200860DFF8C4160868DFF879
:102D3000C01650F0805008600CE0DFF8FC064078C8
:102D400050F00100DFF8F01648700D20DFF8E416AF
:102D500081F8E800B0E000F0ABFFDFF8D80690F9AA
:102D6000840010F1010F23D1DFF8C80690F9850027
:102D700010F1010F1CD1DFF8BC06006F002804D051
:102D8000DFF8B006406F002812D1DFF8A806006F08
:102D900000280DD0DFF89C06406F002808D1DFF82E
:102DA0009406026FDFF83C19DFF8B00701F03CF938
:102DB000DFF8A80701F052F980B200F097FF050094
:102DC000EDB2002D0CD0DFF87006407850F0010015
:102DD000DFF8641648700D20DFF8581681F8E80017
:102DE0006AE000F065FFDFF84C06D0F8C000009004
:102DF000DFF84006036FDFF83C06026EDFF8E818E4
:102E0000DFF8580701F010F9DFF8500701F026F954
:102E100080B200F06BFF0500EDB2002D10D1DFF89D
:102E2000D0150868DFF8C81550F080600860DFF83A
:102E3000C0150868DFF8B81550F4802008600CE071
:102E4000DFF8F405407850F00100DFF8EC15487029
:102E50000D20DFF8E01581F8E8002DE0DFF8D80557
:102E6000407850F00100DFF8D01548700D20DFF8F1
:102E7000C41581F8E8000020DFF8BC1548751BE098
:102E8000DFF8B405407850F00100DFF8AC15487069
:102E90000020DFF8A01581F8E8000020DFF8981581
:102EA000487509E008E0DFF848150868DFF84015C4
:102EB00050F020000860FFE7DFF834150868C0F321
:102EC000C03000280FD0DFF828150868DFF820157B
:102ED00030F400400860DFF85C05D0F8A00080B254
:102EE00003F0B0F852E1DFF808150868C0F380502D
:102EF000002812D0DFF840050078C0F3C000C0B24F
:102F000000280AD0DFF8E8140868DFF8E41430F489
:102F10008000086003F0DEF838E1DFF8D414D1F85F
:102F20000100C0F3007000282FD0DFF8C414D1F8DE
:102F30000100DFF8BC1430F08050C1F8010002201D
:102F40000190DFF8F004B0F896000090DFF8E40498
:102F5000D0F8B430DFF8582CDFF8D8044078C0F34C
:102F6000C200010049B25FF0FF3003F06FFA4FF486
:102F700000775FF00008DFF8389C42463900484689
:102F800001F088F800F04EFA00E1DFF86414D1F89F
:102F90000100C0F34070002834D0DFF85414D1F899
:102FA0000100DFF84C1430F00050C1F8010002209D
:102FB0000190DFF88004B0F896000090DFF8740408
:102FC000D0F8B430DFF8E82BDFF868044078C0F3BD
:102FD000C200010049B2DFF85C0490F9030040F33D
:102FE000020040B203F032FA4FF400775FF00008BD
:102FF000DFF8BC9B42463900484601F04BF800F030
:1030000011FAC3E0DFF8E813D1F80100C00F00287F
:103010001CD0DFF82804DFF81C14897911F00701AF
:10302000405C002807D00221DFF80804807910F006
:10303000070000F0EFFDDFF8B813D1F80100DFF86A
:10304000B01320F00040C1F801009FE0DFF8A013AA
:10305000D1F80100C0F3807000281BD00221DFF8F6
:10306000540B03F0F4F90220DFF8CC13C874DFF836
:103070008013D1F80100DFF8781330F08040C1F8F8
:103080000100DFF86C130868DFF8641330F0080003
:1030900008607BE0DFF85813D1F80200C0F340600D
:1030A000002835D0DFF84813D1F80200DFF84013CC
:1030B00030F00070C1F80200CD490868C0F34070DC
:1030C000002804D0DFF8E80A03F0C2F912E0C8498A
:1030D0000868C0F38070002804D0DFF8D40A03F039
:1030E000B8F907E0DFF84C03B0F89210DFF8C00A37
:1030F00003F059FC4FF400775FF00008DFF8B09A56
:1031000042463900484600F0C5FF00F08BF93DE02B
:10311000B749D1F80200C0F38060002819D0DFF869
:10312000900A03F095F94FF400775FF00008DFF89C
:10313000809A42463900484600F0ACFF00F072F930
:10314000AB49D1F80200AA4930F08060C1F8020012
:103150001CE0A7490868C0F34030002808D003F0FD
:10316000B1FCA3490868A24930F4005008600DE0A2
:103170009F490868C0F38030002807D003F0A3FC03
:103180009B4908689A4930F480400860AA48807DCD
:10319000002800F09380012800F09780022800F0BA
:1031A0009B80032800F09F80042800F0A38005285E
:1031B00000F0A780062800F0B280072800F0B68053
:1031C000082800F0BA8009284AD00A2854D00B28D1
:1031D00058D00C285ED00D2800F09A800E282BD0F5
:1031E0000F2800F0F680102800F0AE80112800F0C3
:1031F000B980122800F0BD80132800F0C180142887
:1032000000F0E780152800F0A680162800F0BF80A7
:10321000172800F0C380182800F0C780192800F094
:10322000CB801A2800F0CF801B283BD01C283FD031
:10323000FF2800F0CE80CCE07F484078C0F3420009
:10324000C0B202280BD17C48407810F0F101801CFC
:1032500010F00E0008437849487003F094FBB8E082
:10326000DFF8A0090078002805D10120DFF89419C3
:10327000087003F090FBACE003F026FCFF206E49E1
:103280008875A6E0DFF8800903F01FFCFF206A497B
:1032900088759EE0DFF8700903F018FCFF2066498E
:1032A000887596E003F013FCFF206349887590E071
:1032B00003F00DFCFF20604988758AE0FF205E491D
:1032C0008875112003F004FC83E0FF205A498875BB
:1032D000142003F0FDFB7CE0FF2057498875132084
:1032E00003F0F6FB75E0FF2053498875152003F0C5
:1032F000EFFB6EE0FF2050498875162003F0E8FBD5
:1033000067E0FF204C4988751B2003F0E1FB60E07B
:10331000FF20494988751C2003F0DAFB59E0FF20A3
:1033200045498875172000F079FE52E0FF20424998
:103330008875122000F072FE4BE0FF203E49887530
:10334000182000F06BFE44E0FF203B4988751D20EB
:1033500003F0BFFB3DE0FF20374988751E2003F0D6
:10336000B8FB36E0FF2034498875192003F0B1FB23
:103370002FE0FF20304988751A2003F0AAFB28E0CF
:10338000FF202D498875062003F0A3FB21E0FF20D4
:10339000294988751F2003F09DFB1AE0FF2026496C
:1033A0008875202003F096FB13E0FF2022498875E2
:1033B000212003F08FFB0CE0FF201F49887522209D
:1033C00003F088FB05E0FF201B49887503F083FBB1
:1033D000FFE7BDE8F78300002E2D002000201649EE
:1033E00088601548007850F0040013490870704751
:1033F000D82C0020382B0020242B002000200E4940
:1034000088600D48007810F0FB000B49087001201F
:103410000949487470470848007810F0F7000649D9
:10342000087070470448007850F00800024908709E
:103430007047000098270020742C0020EC2C0020FE
:10344000242D002080B5DFF830080078C0F380001C
:10345000C0B2002809D0DFF820080078C0F3C0000F
:10346000C0B2002801D000F0E4F8DFF86018D1F80D
:103470000200C0F3C060002811D0DFF8900700F010
:103480006FFF00280BD0DFF84418D1F80200DFF8F6
:103490003C1830F00060C1F80200FFF766F8DFF872
:1034A0002C180868C0F30010002819D0DFF8600756
:1034B000D0F8C800411CDFF85827C2F8C81040F205
:1034C0006C7188420CD3DFF804180868DFF8FC1729
:1034D00030F0100008600020DFF83417C1F8C80091
:1034E000DFF8E817D1F80200C0F30070002828D0F8
:1034F000DFF81C07D0F8C400411CDFF81427C2F81D
:10350000C410B0F5FA6F1CD3DFF8C0170868C0F319
:10351000C010002808D0DFF8B4170868DFF8AC172F
:1035200050F0800008600AE0DFF8A0170868C0F3D8
:10353000C010002803D11B20DFF83C17887500F06D
:103540003DFC01BDDFF884271168DFF8802731F0EA
:103550000801116070470000F8AD0008080800205D
:1035600010AE000810B50400DFF860170868DFF837
:103570005C1730F480500860FFF740FF72B6DFF848
:10358000EC16DFF8880600F001FF62B6FFF726FFB1
:10359000DFF8780600F0DCFE002811D0DFF82C17E9
:1035A000D1F80200DFF8241750F00060C1F80200E3
:1035B00001224FF480515FF0904001F0FFFB16E0D4
:1035C000DFF808170868C0F3C02000280FD10122D7
:1035D000DFF89816124801F0A9FD002807D1DFF89E
:1035E000EC160868DFF8E41650F48050086010BD4F
:1035F000DFF88006407810F00100002801D100BFFC
:10360000F6E7DFF87006407810F0FE00DFF8641689
:103610004870DFF8FC0590F8E8007047E0AF00085C
:103620008429002098AC000810B5040000F057FB76
:1036300010BD80B572B6DFF8D40500F0C7FEDFF824
:10364000D015C1F8800062B6DFF8C405D0F880005C
:10365000002805D0DFF8B805D0F88000FCF7CCFDD5
:10366000DFF86816D1F80100C0F34060002825D0CB
:10367000DFF89C05D0F8AC00401CDFF89415C1F8C9
:10368000AC00DFF88C05D0F8AC00332816D300204E
:10369000DFF87C15C1F8AC00DFF83016D1F8010076
:1036A000DFF8281630F00070C1F80100DFF81C16B2
:1036B0000868DFF8181630F00800086001BD000047
:1036C00028AE0008C8B1000840AE0008D8B1000814
:1036D000F4AF000808B00008E0B20008E8B1000844
:1036E0008CAB0008F8B10008B4AC000810B50400B9
:1036F0002078012865D0042874D0052877D00828C0
:103700007AD009287DD00A2800F080800B2800F0AC
:1037100082800C2800F084800F2800F08680142816
:1037200000F08880162800F08A80172800F08C802E
:10373000182800F08E801A2800F090801B2800F0D6
:1037400092801F2800F09480202800F09680232883
:1037500000F0CF80242800F0D580262800F0D78004
:10376000282800F0E180292800F0EF802A2800F0C6
:10377000FD802B2800F0FF802C2800F001813728E5
:1037800000F003813A2800F03E813D2800F0AB8133
:103790003E2800F0C2813F2800F0D081402800F090
:1037A0004881422800F0F981432800F0CC81442868
:1037B00000F0D281452800F0DC81462800F0E2814B
:1037C000F4E1FF20DFF8AC1488750020DFF8341432
:1037D0000870DFF83C04007A10F0E700DFF83014DE
:1037E0000872E3E10720DFF88C148875DEE1002021
:1037F000DFF880148875D9E10120DFF87814887526
:10380000D4E10220DFF86C148875CFE10320DFF8E3
:1038100064148875CAE10420DFF858148875C5E17E
:103820000620DFF850148875C0E10820DFF8441442
:103830008875BBE11120DFF83C148875B6E11220D1
:10384000DFF830148875B1E11320DFF8281488758B
:10385000ACE10920DFF81C148875A7E10A20DFF825
:1038600014148875A2E10520DFF8081488759DE11D
:103870000D20DFF80014887598E1DFF8F803407830
:10388000C0F34200C0B202280BDADFF8E803407848
:1038900010F0F101801C10F00E000843DFF8D41383
:1038A0004870DFF8D003007850F01000DFF8C41340
:1038B00008700E20DFF8BC138875DFF81414086850
:1038C000C0F34010002813D0DFF804140868DFF8B4
:1038D000001430F020000860DFF8F4130868DFF807
:1038E000F01330F4807008601C20DFF888138875AE
:1038F0005CE1DFF8DC130868DFF8D41330F4007003
:10390000086053E11620DFF86C1388754EE1DFF88C
:103910006403007810F0EF00DFF8581308700F20F0
:10392000DFF85013887541E10020DFF8D8120870E5
:10393000DFF8DC02007A10F0E700DFF8D41208723A
:103940001020DFF83013887530E10020DFF8B41262
:103950000870DFF8BC02007A10F0E700DFF8B01260
:1039600008721520DFF80C1388751FE11720DFF8A7
:10397000041388751AE11820DFF8F812887515E12C
:103980001920DFF8F012887510E1DFF84413086899
:10399000C0F3405000280FD0DFF834130868DFF878
:1039A000301330F400100860DFF824130868DFF8E3
:1039B000201330F480200860607810F00F00DFF8EA
:1039C0005012097860F3C501DFF844020170DFF896
:1039D0005804DFF83C120978C1F3C201C9B2405C57
:1039E00000280FD0DFF8E8120868DFF8E41250F47E
:1039F00080000860DFF8D8120868DFF8D41250F0B1
:103A000008000860D2E0607810F00F00DFF80012C4
:103A1000897960F30201DFF8F8018171DFF8B012F3
:103A2000D1F80100DFF8A81250F00040C1F8010001
:103A3000BCE0A088DFF8D811C1F8A800DFF8901228
:103A40000868DFF88C1250F400200860DFF880125C
:103A50000868DFF87C1250F008000860DFF81402F4
:103A60000078C0F34010C0B200281ED1A078012811
:103A70000AD1DFF85C120868DFF8541240084000F1
:103A8000086000F0BEF92DE0DFF844120868DFF8A6
:103A9000401230F400200860DFF834120868DFF8C4
:103AA000301230F0080008601CE0DFF824120868CB
:103AB000DFF81C1250F4802008600520DFF8501158
:103AC000A1F89A00DFF808120868DFF8041250F431
:103AD00000100860DFF83801D0F8A800DFF83011D6
:103AE000C1F8A40062E0DFF818046178C9B20909DE
:103AF000C9B200EBC100617811F00F0101224254FC
:103B0000DFF8CC110868DFF8C81150F400500860E5
:103B10000120DFF82414087048E0DFF8B4110868C9
:103B2000DFF8AC1150F4804008600020DFF80C147E
:103B300008700020DFF80014087037E01A20DFF862
:103B40003411887532E0DFF888110868DFF88011D9
:103B500050F48070086029E0DFF874110868DFF81D
:103B6000701130F4807008601C20DFF8081188752F
:103B70001CE0DFF85C110868DFF8541150F0800099
:103B8000086013E0DFF848110868DFF8441130F0EE
:103B90008000086000F002F908E0DFF834110868DE
:103BA000DFF82C1150F040000860FFE710BD000066
:103BB000082000209C270020F8B504000D00160006
:103BC0001F0000F05BF81248046611484566104873
:103BD000C0F8C0600E48C7720620254981F826004B
:103BE00072B62348D0E9082311001A00DFF8E80371
:103BF00000F0A2FA62B6DFF8E80300F039FBF1BD8D
:103C0000000000002B2D0020E7270020242B00209F
:103C10009827002038B504000D0000F02FF8EDB211
:103C2000022D04D11520124981F8260006E0EDB2DC
:103C3000012D03D123200E4981F826000C4890F86D
:103C4000210064F303000A4981F8210072B6084894
:103C5000D0E9082311001A00DFF87C0300F06CFAA9
:103C600062B6DFF87C0300F003FB31BDE6270020DD
:103C7000242B0020742C0020742C0020DFF8640317
:103C8000007810F0010000280FD1DFF85803007809
:103C9000C0F34000C0B2002809D0DFF848034078E4
:103CA000C0F30010C0B2002801D100BFE6E77047A2
:103CB00070B54FF400640025DFF820632A0021006E
:103CC000300000F0E7F970BD00000000D82C0020A3
:103CD000D82C002080B5002002F02DFF01BD80B55A
:103CE000002002F028FFFEF740FC01BD10B50400E3
:103CF000DFF8F0020078C0F30010C0B2002809D14C
:103D0000DFF8E0020078C0F38010C0B2002801D1D3
:103D1000052042E0DFF8DC120868C0F3002000282C
:103D200006D1DFF8D0120868C0F3C010002801D017
:103D3000102032E0DFF8BC120868DFF8B81250F447
:103D400000600860A4B2002C05D1DFF8AC0200F0DE
:103D5000E3FA1F2021E04FF47A73220092B2DFF8D9
:103D60007C12DFF8980201F0BEF8002803D0FFF7BC
:103D7000B6FF0F2011E0DFF87C120868DFF874123C
:103D800030F400600860DFF86C120868C0F300309F
:103D9000002801D1FEF7E9FB002010BDDFF8541226
:103DA000D1F80200DFF84C1250F08050C1F8020048
:103DB0000020DFF84C12C1F8C4007047DFF834125D
:103DC000D1F80200DFF82C1230F08050C1F8020068
:103DD0000020DFF82C12C1F8C400704710B5002491
:103DE000FFF766FFDFF81C12DFF8F00100F01CF9A6
:103DF000DFF8E80100F032F980B2FFF777FF040046
:103E000010BD10B50024FFF753FFDFF8FC11DFF8F9
:103E1000CC0100F009F9DFF8C40100F01FF980B20D
:103E2000FFF764FF040010BDEC2C00202DE9F047E3
:103E3000040088460026FFF73BFF2200DFF8A811A8
:103E4000664800F0F1F8654800F008F980B2FFF725
:103E50004DFF0600F6B2002E15D1FFF7C9FB060094
:103E60005C4800F0FBF805005A4F2A003900404634
:103E700000F016FA5FF00009DFF858A14A46290061
:103E8000504600F007F93000C0B2BDE8F08770B5C9
:103E900004000D000026FFF70BFF2B0022005B49FA
:103EA0004E4800F0C1F84D4800F0D8F880B2FFF756
:103EB0001DFF0600F6B2002E02D1FFF799FB0600A7
:103EC0003000C0B270BD70B504000D000026FFF7D1
:103ED000EFFE2B0022004E49404800F0A5F83F4875
:103EE00000F0BCF880B2FFF701FF0600F6B2002E2A
:103EF00002D1FFF77DFB06003000C0B270BD0000AC
:103F0000C82C002038B504000025FFF7D1FE2200A0
:103F10003649324800F088F8304800F09FF880B207
:103F2000FFF7E4FE0500EDB2002D02D1FFF760FBC4
:103F300005002800C0B232BD2C2D00202D2D002000
:103F400038B504000025FFF7B3FE220028492348B6
:103F500000F06AF8214800F081F880B2FFF7C6FE51
:103F60000500EDB2002D02D1FFF742FB050028004D
:103F7000C0B232BD10B50024FFF79AFE254917489C
:103F800000F052F8154800F069F880B2FFF7AEFE75
:103F90000400E4B2002C02D1FFF72AFB0400200049
:103FA000C0B210BD10B50024FFF782FE1A490B48BD
:103FB00000F03AF8094800F051F880B2FFF796FE99
:103FC0000400E4B2002C02D1FFF712FB0400200031
:103FD000C0B210BDA6270020382B00200808002002
:103FE000442B0020742C002008B200081CB00008EC
:103FF000ACAB0008D82C0020CCAB000884290020F2
:104000009827002074B300087CB3000830B0000883
:1040100044B0000884B300088CB3000870470268FD
:10402000531C0360117070470CB41CB5044604A8FF
:1040300001900A46009401AB69460748784418305D
:1040400002F090FD009A0021117000285CBF0098DA
:10405000001B16BC5DF80CFBC7FFFFFF00F101035E
:10406000810704D010F8011B89B18107FAD10268D9
:10407000B2F10131914311F0803F04BF50F8042F99
:10408000F6E710F8011B11B110F8011BFBE7C01A8D
:104090007047200062F30F2262F31F42401810F0B5
:1040A000030308D0C91A1FD3DB0748BF00F8012D4E
:1040B00028BF20F8022D130030B4144615461039DD
:1040C00028BF20E93C00FAD8490728BF20E90C00A6
:1040D00048BF40F8042D890028BF20F8022D48BFB2
:1040E00000F8012D30BC7047C91818BF00F8012D29
:1040F000CB0728BF00F8012D7047000008231A00E5
:1041000012FB01F38380002303800023C38000237C
:104110004380554B836070478188C088B0EBD10FD6
:1041200001D1012000E000207047C088002801D1A3
:10413000012000E00020704776B504002000FFF762
:10414000EBFF002842D16088C0080600A06800EBA1
:10415000C600BDF804108180A06800EBC6009DF881
:1041600002108170A06800EBC6009DF80110A268E3
:1041700002EBC602527861F303024270A06800EBC2
:10418000C600A16801EBC601497811F00F019DF846
:10419000012012F0F002114341709DF80000A16867
:1041A00001F83600A06800EBC6009DF8061081718A
:1041B000E088401CE080608808306080A0880500AE
:1041C000608890FBF5F105FB1100608073BD70B550
:1041D00004002000FFF7A9FF002801D0002042E0E2
:1041E0002088C0080600A06800EBC60080881F4930
:1041F0008880A06800EBC600407810F00F001B49D3
:10420000497860F3030119484170A06800EBC600CB
:104210004078C0B200091549497811F00F0151EA00
:10422000001012494870A06800EBC60080780F4962
:104230008870A06810F836000C490870A06800EB80
:10424000C600807909498871208808302080E0887C
:10425000401EE080A0880500208890FBF5F105FB5A
:1042600011002080014870BD08260020E42C0020A9
:104270000021818000218171417811F0F00151F01D
:10428000090141700921817063210170704738B5BF
:1042900004000D002900200003F03FFB32BD0000A8
:1042A00062B38B0708D0521E11F8013B00F8013BA6
:1042B00000F024808B07F6D1830740F0208000BFF8
:1042C000103A07D330B4B1E83810103AA0E83810EB
:1042D000F9D230BC530724BFB1E80810A0E8081099
:1042E00044BF51F8043B40F8043BD20724BF31F8E7
:1042F000022B20F8022B44BF0B7803707047083A5A
:1043000007D3B1E80810083A40F8043B40F804CB62
:10431000F7D25307E4E700000EB400B582B003A95A
:10432000009102466B460121034878440A3002F0AE
:1043300019FC06BC5DF810FB816B00008160002257
:1043400002600022C26000224260864A0261704719
:10435000C068B0F54E7F01DB012000E0002070470F
:10436000C068C92801DA012000E000207047C06859
:10437000B0F5806F01D1012000E000207047C068D7
:10438000002801D1012000E000207047F8B50400AA
:104390000D002000FFF7EBFF002816D1E068401C5D
:1043A000E0606068411C61600126216901EB000743
:1043B000320029003800FFF773FF60684FF4806116
:1043C00090FBF1F201FB12006060F1BD2DE9F84FA6
:1043D0000400654805002000FFF7D1FF002801D048
:1043E0000020BCE04FF400760027DFF87C813A0023
:1043F00031004046FFF74EFE5C490868C0F380403C
:10440000002800F08F80D4F804B0E068C82832DAC1
:10441000E0685749A1F89800206883450CDB2068C4
:104420005349B1F89860216901EB00073200390067
:104430002800FFF735FF19E026682068D6F5806769
:10444000216901EB00083A0041462800FFF728FFE8
:104450002068D4F81090404228444FF4806100EB6B
:10446000010A5A4649465046FFF71AFF6068206025
:104470000020E06072E02068834511DB2068C826D8
:10448000216901EB0007320039002800FFF708FF1F
:104490002068C83020602068BBEB0000E0603CE092
:1044A0002068C830B0F5806F13DA2068C82621690B
:1044B00001EB0007320039002800FFF7F1FE206809
:1044C000C83020602068D0F580601BEB0000E06001
:1044D00023E026682068D6F580610091216901EB10
:1044E0000007009A39002800FFF7DAFE2068B6F5C9
:1044F0004E78D4F81090404228444FF4806100EB8D
:10450000010A424649465046FFF7CAFEB6F54E70CC
:1045100020602068BBEB0000E060C8201449A1F8CF
:1045200098001BE020680126216901EB000732009A
:1045300039002800FFF7B4FE2068401C2060E068C6
:10454000401EE06001200A49A1F8980020684FF45D
:10455000806190FBF1F201FB120020602800BDE8B1
:10456000F28F0000081C002008220020D82C002018
:104570009827002010B4426803685B1A002B0FD400
:1045800003685B1A03600368934203DA0368D31A73
:10459000C3600FE00368D3F58063D318C36009E0FC
:1045A0000368D1F58064E31803600368D3F5806382
:1045B000D318C36010BC704710F007024E4B1B6845
:1045C00019004FF6FF0319404C4B53EA02231943DD
:1045D000494B1960704748480068C0F30220704793
:1045E000012110F01F029140454A40B2430942F8B0
:1045F00023107047012110F01F029140414A40B240
:10460000430942F82310704710B440B2002808D57F
:104610000A013D4B40B210F00F04234403F8042C70
:1046200003E00A01394B40B21A5410BC704770B411
:10463000030013F00704D4F10706052E01D304206C
:1046400001E0D4F10700261D072E01D2002500E06D
:10465000E51E012616FA00F0401E0840A840012180
:10466000A940491E1140084370BC704710B50400B2
:10467000601EB0F1807F01D301200EE0601E24494E
:1046800008600F215FF0FF30FFF7BEFF00202149D7
:104690000860072020490860002010BD10B5040004
:1046A0002000FFF789FF10BDF8B504000D001600CB
:1046B0000027FFF790FF0700320029003800FFF7BE
:1046C000B6FF0100200040B2FFF79EFFF1BD10B51C
:1046D0000400200040B2FFF783FF10BD10B50400B6
:1046E000200040B2FFF786FF10BD10B50400200087
:1046F000FFF7BCFF10BD00000CED00E00000FA0564
:1047000000E100E080E100E018ED00E000E400E0FE
:1047100014E000E018E000E010E000E07047000066
:1047200038B503F011F90446208880042ED5656859
:1047300009E04A1B294603F04FF910F1010F18BF99
:1047400000280CD00544E16894F903008D42F0D3B1
:104750000022002103F040F910F1010F0DD1606833
:10476000E0606061E062208840F4007020802046B4
:1047700003F0EBF84FF0FF3032BD6568E56065612E
:10478000E5624DF6FF71208808402080204603F046
:10479000DCF8002032BDF8B5A0B9C046C046002400
:1047A0000A4D08264FF0FF37286820B1FFF7B8FF01
:1047B000002848BF3C462D1D761EF5D1C046C04698
:1047C0002046F2BDBDE8F240AAE70000E00000206C
:1047D00010B50400002C01D1012014E094F8390038
:1047E000002805D1002084F83800200003F0D8F913
:1047F000022084F83900211D206800F0CFF8012044
:1048000084F83900002010BD01000868C06850F02D
:1048100001000A68D0600868006850F001000A686A
:1048200010600020704710B5040020680069800700
:104830001AD52068C068800716D57FF0020021686D
:104840000861012020762068806910F0030F03D0F2
:10485000200003F0EBF905E0200003F0E8F9200068
:1048600003F0E6F9002020762068006940071AD599
:104870002068C068400716D57FF0040021680861F1
:10488000022020762068806910F4407F03D0200049
:1048900003F0CCF905E0200003F0C9F9200003F093
:1048A000C7F9002020762068006900071AD5206823
:1048B000C068000716D57FF0080021680861042051
:1048C00020762068C06910F0030F03D0200003F0A9
:1048D000ADF905E0200003F0AAF9200003F0A8F9E3
:1048E0000020207620680069C0061AD52068C068BC
:1048F000C00616D57FF010002168086108202076D8
:104900002068C06910F4407F03D0200003F08EF9C6
:1049100005E0200003F08BF9200003F089F9002066
:10492000207620680069C0070AD52068C068C007E3
:1049300006D57FF0010021680861200003F0B0F97E
:104940002068006900060AD52068C068000606D500
:104950007FF0800021680861200003F0C7F920681B
:10496000006940060AD52068C068400606D57FF079
:10497000400021680861200003F0B9F9206800694F
:1049800080060AD52068C068800606D57FF0200022
:1049900021680861200003F0ABF910BD0022036814
:1049A0001A00DFF8C030984212D0B0F1804F0FD01B
:1049B000DFF8B43098420BD0DFF8B030984207D01F
:1049C000DFF8AC30984203D0DFF8A830984203D12A
:1049D00032F070024B681A43DFF8883098421ED0DC
:1049E000B0F1804F1BD0DFF88030984217D0DFF84D
:1049F0007C30984213D0DFF8783098420FD0DFF83F
:104A0000743098420BD0DFF87030984207D0DFF84E
:104A10006C30984203D0DFF86830984203D132F40A
:104A20004072CB681A4302608B68C3620B68836272
:104A3000DFF8303098420FD0DFF8383098420BD092
:104A4000DFF83430984207D0DFF83030984203D096
:104A5000DFF82C30984201D10B69036301234361D5
:104A600070470000002C0140000400400008004096
:104A7000000C00400034014000400140004401406F
:104A80000048014078B40022002300240D68D5407E
:104A9000002D00F0EE800D680126964035402B0079
:104AA000002B00F0E4804D68022D02D04D68122DDD
:104AB00016D1D50800EB85052D6A2C000F2512F0C4
:104AC0000706F6B2B600B540AC430D6912F0070612
:104AD000F6B2B600B5402C43D50800EB85052C6234
:104AE00005682C0003251600F6B27600B540AC43ED
:104AF0000D7915F003051600F6B27600B5402C438B
:104B000004604D68012D08D04D68022D05D04D6818
:104B1000112D02D04D68122D19D185682C00032566
:104B20001600F6B27600B540AC43CD681600F6B27A
:104B30007600B5402C43846045682C0001259540E3
:104B4000AC434D68C5F3001595402C4344600D7986
:104B500015F00305032D0AD1C56A2C0001259540E7
:104B6000AC434D68C5F3C00595402C43C462C5688D
:104B70002C0003251600F6B27600B540AC438D68D4
:104B80001600F6B27600B5402C43C4604D68ED00C7
:104B90006DD58F4D2D6855F001058D4E35608C4DCE
:104BA0002D6815F001050095009D8A4D960855F871
:104BB00026502C000F2512F00306F6B2B600B540C1
:104BC000AC43B0F1904F01D100251EE0824DA842C8
:104BD00001D1012519E0814DA84201D1022514E03F
:104BE0007F4DA84201D103250FE07E4DA84201D19F
:104BF00004250AE07C4DA84201D1052505E07B4D46
:104C0000A84201D1062500E0072512F00306F6B2FE
:104C1000B600B5402C436F4D960845F82640744DBC
:104C20002D682C009C434D68ED0300D51C43704D4E
:104C30002C60704D2D682C009C434D68AD0300D551
:104C40001C436C4D2C606C4D2D682C009C434D68B2
:104C5000ED0200D51C43684D2C60684D2D682C007A
:104C60009C434D68AD0200D51C43644D2C60521C22
:104C70000CE771BC7047F0B40022002300240D0043
:104C8000D540002D00F09880012595400D402B0067
:104C9000002B00F08F80056803261700FFB27F000D
:104CA000BE4035430560D50800EB8505D60800EB0E
:104CB0008606366A0F2712F0070C5FFA8CFC5FEA53
:104CC0008C0C17FA0CF7BE432E628568032617007A
:104CD000FFB27F00BE40B54385604568012696401F
:104CE000B5434560C56803261700FFB27F00BE408C
:104CF000B543C560C56A01269640B543C562354DCA
:104D0000960855F826502C000F2512F00306F6B22F
:104D1000B600B5402C40B0F1904F01D100251EE007
:104D20002D4DA84201D1012519E02C4DA84201D1F9
:104D3000022514E02A4DA84201D103250FE0294D98
:104D4000A84201D104250AE0274DA84201D105253A
:104D500005E0264DA84201D1062500E0072512F006
:104D60000306F6B2B600B540AC4223D10F2512F0CF
:104D70000306F6B2B600B5402C00164D960855F85D
:104D80002650A543134E970846F82750184D2D6816
:104D90009D43174E3560174D2D689D43154E356068
:104DA000154D2D689D43144E3560144D2D689D435F
:104DB000124E3560521C62E7F0BC7047D2B2002A36
:104DC00002D089B2816101E089B28162704700003E
:104DD000601002400800014000040048000800483C
:104DE000000C00480010004800140048001800485B
:104DF0000004014004040140080401400C04014087
:104E000038B50400002502F075FF050002F072FFBE
:104E1000401BA042FAD331BD10B50400002C01D1D3
:104E2000012037E0A0690028FFD194F8690000282C
:104E300005D1002084F86800200002F0E3FD242062
:104E400084F8690020680068400840002168086014
:104E5000200000F099FA012801D101201AE0606ACF
:104E6000002802D0200000F0C9FC2068406830F41F
:104E70009040216848602068806830F02A002168EE
:104E800088602068006850F00100216808602000F8
:104E900000F021FD10BD10B50400002C01D101204F
:104EA00020E0242084F86900206800684008400061
:104EB000216808600020216808600020216848609F
:104EC000002021688860200002F049FE0020E06692
:104ED000002084F86900002084F86A00002084F82B
:104EE0006800002010BD2DE9F84304000D001600F5
:104EF0001F005FF0000994F86900202857D1002DA9
:104F000002D0B6B2002E01D1012051E094F8680021
:104F1000012801D102204BE0012084F86800002024
:104F2000E066212084F8690002F0E4FE8146A4F8DE
:104F30005060A4F85260B4F85200002824D0B4F8AD
:104F40005200401EA4F8520000974B4600228021D8
:104F5000200000F0F7FC002801D0032028E0A06822
:104F6000B0F5805F0BD12069002808D1A846B8F8B9
:104F70000000C005C00D21680885AD1CDBE728785E
:104F8000216808856D1CD6E700974B46002240211A
:104F9000200000F0D7FC002801D0032008E02020EA
:104FA00084F86900002084F86800002000E00220F6
:104FB000BDE8F2832DE9F04782B004000D00160031
:104FC0001F005FF0000A94F86A0020287DD1002DB0
:104FD00002D0B6B2002E01D1012077E094F868002B
:104FE000012801D1022071E0012084F8680000202E
:104FF000E066222084F86A0002F07CFE8246A4F873
:105000005860A4F85A60A068B0F5805F0BD12069A1
:10501000002804D140F2FF10A4F85C001FE0FF203C
:10502000A4F85C001BE0A06800280AD120690028D1
:1050300003D1FF20A4F85C0011E07F20A4F85C00FD
:105040000DE0A068B0F1805F09D12069002803D18C
:105050007F20A4F85C0002E03F20A4F85C00B4F8D4
:105060005C008146B4F85A00002826D0B4F85A00F3
:10507000401EA4F85A000097534600222021200029
:1050800000F060FC002801D003201FE0A068B0F50C
:10509000805F0BD12069002808D1A8462068808C49
:1050A00019EA0000A8F80000AD1CDBE72068808C3E
:1050B00019EA000028706D1CD4E7202084F86A00EB
:1050C000002084F86800002000E00220BDE8F68798
:1050D00010B4030093F86900202824D1002902D0DD
:1050E00092B2002A01D101201EE093F86800012845
:1050F00001D1022018E0012083F86800D964A3F8E8
:105100005020A3F852200020D866212083F869009F
:10511000002083F868001868006850F080001C6860
:105120002060002000E0022010BC704710B4030093
:1051300093F86A0020285CD1002902D092B2002A9C
:1051400001D1012056E093F86800012801D1022026
:1051500050E0012083F868005965A3F85820A3F8AF
:105160005A209868B0F5805F0BD11869002804D1E7
:1051700040F2FF10A3F85C001FE0FF20A3F85C00E2
:105180001BE0986800280AD11869002803D1FF2085
:10519000A3F85C0011E07F20A3F85C000DE09868A4
:1051A000B0F1805F09D11869002803D17F20A3F8EE
:1051B0005C0002E03F20A3F85C000020D8662220BB
:1051C00083F86A00002083F868001868006850F4CB
:1051D00080701C6820601868806850F001001C68AE
:1051E000A0601868006850F020001C682060002053
:1051F00000E0022010BC70472DE9F0410400206857
:10520000C5692068066815F00F008046B8F1000FE8
:1052100012D1A80605D5B00603D5200000F02FFC5A
:10522000B0E0E80608D5F00606D51020216808622F
:10523000200002F065FDA5E0206880680700B8F155
:10524000000F7AD040F20110074276D015F001002D
:10525000C0B2002808D0F00506D5012021680862F8
:10526000E06E50F00100E066A8070BD517F00100D2
:10527000C0B2002806D0022021680862E06E50F01B
:105280000400E06668070BD517F00100C0B20028E3
:1052900006D0042021680862E06E50F00200E0664B
:1052A00028070DD5B00604D417F00100C0B20028BD
:1052B00006D0082021680862E06E50F00800E06621
:1052C000E06E002838D0A80604D5B00602D520002C
:1052D00000F0D5FBE06E000703D42068806840062C
:1052E00025D5200000F066FB2068806840061AD5AE
:1052F0002068806830F0400021688860606E002877
:105300000DD00FF2D160616E8863606E02F080FD97
:10531000002811D0606E616E896B88470CE0200018
:1053200002F0CAFC08E0200002F0C6FC04E0200005
:1053300002F0C2FC0020E06624E0206880680700DC
:10534000E8020FD578020DD55FF48010216808625D
:10535000202084F86900202084F86A00200002F0F0
:1053600086FD0FE0280605D5300603D5200000F0A5
:105370003EFB07E0680605D5700603D5200000F067
:105380006EFBFFE7BDE8F0812DE9F843040000273C
:10539000102500265FF000095FF000082068DFF8A4
:1053A00034148842FFD0A06821690843616908432A
:1053B000E1690843070020680068DFF81C14084012
:1053C0003843216808602068406830F44050E16844
:1053D000084321684860A06907002068DFF8F413DB
:1053E000884201D0206A07432068806830F430602A
:1053F0003843216888602068DFF8E01388421BD1B9
:10540000DFF8DC03006810F00300002805D0022854
:1054100006D008D3032809D00BE001200500B4E032
:1054200002200500B1E004200500AEE008200500E0
:10543000ABE010200500A8E02068DFF8A813884240
:105440001CD1DFF89C03006810F00C00002806D087
:1054500004280AD0082805D00C2809D00BE0002029
:10546000050092E0022005008FE0042005008CE09A
:105470000820050089E01020050086E02068DFF89C
:10548000681388421CD1DFF85803006810F0300020
:10549000002806D010280AD0202805D0302809D0AE
:1054A0000BE00020050070E0022005006DE0042004
:1054B00005006AE00820050067E01020050064E0B0
:1054C0002068CA4988421BD1C548006810F0C00056
:1054D000002806D040280AD0802805D0C02809D04E
:1054E0000BE00020050050E0022005004DE0042004
:1054F00005004AE00820050047E01020050044E0D0
:105500002068BB4988421ED1B548006810F440703D
:10551000002809D0B0F5807F0CD0B0F5007F06D010
:10552000B0F5407F09D00BE0002005002DE00220FF
:1055300005002AE00420050027E00820050024E0FB
:105540001020050021E02068A24988421DD1A4480E
:10555000006810F44060002809D0B0F5806F0CD0CE
:10556000B0F5006F06D0B0F5406F09D00BE0002019
:1055700005000AE00220050007E00420050004E021
:105580000820050001E010200500206891498842AC
:105590007DD100200700EDB22800002806D00228A7
:1055A00008D0042809D008280BD00EE003F028F911
:1055B00007000CE08F48070009E003F070F80700CF
:1055C00005E04FF40040070001E001208046002F75
:1055D00000F0FC80606803214843874205D360687F
:1055E0004FF480514843B84202D201208046EDE09A
:1055F000EDB22800002806D0022814D004281FD0BD
:1056000008282DD035E003F0FBF802004FF480733A
:10561000606840080021E3FB02016268002303F098
:105620007DF9070027E060684208002372480021E6
:10563000101859416268002303F070F907001AE05E
:1056400003F02DF802004FF48073606840080021D9
:10565000E3FB02016268002303F060F907000AE03F
:105660006068400810F500006168B0FBF1F00700C9
:1056700001E001208046B7F5407F05D3B7F5801FD4
:1056800002D22068C760A1E0012080469EE0E06968
:10569000B0F5004F4FD1EDB22800002808D0012806
:1056A00011D002281AD0042823D008282CD034E0A6
:1056B00003F0A6F86168490811EB40006168B0FB8F
:1056C000F1F081462BE003F0ABF86168490811EB7B
:1056D00040006168B0FBF1F0814620E0606840085E
:1056E00000F1F47010F590406168B0FBF1F0814674
:1056F00015E002F0D4FF6168490811EB40006168D1
:10570000B0FBF1F081460AE06068400810F5803097
:105710006168B0FBF1F0814601E0012080464FF660
:10572000F07010EA09000600C9F342000643B6B261
:105730002068C6604AE0EDB22800002808D00128A1
:1057400012D002281CD0042827D0082831D03BE0F2
:1057500003F056F8616810EB51006168B0FBF1F09E
:1057600080B22168C86031E003F05AF8616810EB3C
:1057700051006168B0FBF1F080B22168C86025E09B
:105780006068400800F5740010F510506168B0FBC7
:10579000F1F080B22168C86018E002F080FF616813
:1057A00010EB51006168B0FBF1F080B22168C86075
:1057B0000CE06068400810F500406168B0FBF1F053
:1057C00080B22168C86001E0012080464046C0B236
:1057D000BDE8F28300800040F369FFEF003801402C
:1057E000881002400044004000480040004C004047
:1057F000005000400024F400000024F490F824102D
:10580000C90707D50168496831F40031826A11433C
:105810000268516090F82410890707D5016849682B
:1058200031F48031C26A11430268516090F824104B
:10583000490707D50168496831F48021026B11439B
:105840000268516090F82410090707D5016849687B
:1058500031F40041426B11430268516090F824100A
:10586000C90607D50168896831F48051826B1143FC
:105870000268916090F82410890607D5016889684C
:1058800031F40051C26B11430268916090F824100A
:10589000490613D50168496831F48011026C11433F
:1058A00002685160016CB1F5801F07D10168496839
:1058B00031F4C001426C11430268516090F8241029
:1058C000090607D50168496831F40021826C11434B
:1058D00002685160704738B5040000250020E0667A
:1058E00002F008FA05002068006800070DD57FF077
:1058F0007E4000902B0000225FF40011200000F099
:1059000021F8002801D003201BE020680068400730
:105910000DD57FF07E4000902B0000225FF48001C7
:10592000200000F00FF8002801D0032009E020201B
:1059300084F86900202084F86A00002084F8680058
:10594000002032BD2DE9F04104000D0016001F00BB
:10595000DDF818802068C0692840A84201D10120E4
:1059600000E00020F6B2B04221D118F1010FF1D0D1
:10597000B8F1000F04D002F0BDF9C01B8045E9D298
:105980002068006830F4D070216808602068806862
:105990004008400021688860202084F869002020A9
:1059A00084F86A00002084F86800032000E00020EA
:1059B000BDE8F081202180F86A100168096831F49F
:1059C000907102681160016889684908490002689D
:1059D0009160704738B50400A56A0020A5F85A0008
:1059E0000020A5F85200280002F066F931BD010040
:1059F00091F86900212830D1B1F8520000280DD16A
:105A00000868006830F080000B681860086800685B
:105A100050F040000B68186000201FE08868B0F567
:105A2000805F0DD1086900280AD1C86C0200108877
:105A3000C005C00D0B681885C86C801CC86405E0E3
:105A4000C86C431CCB6400780B681885B1F8520011
:105A5000401EA1F85200002000E00220704710B55F
:105A600004002068006830F04000216808602020B1
:105A700084F86900200002F019F9002010BDF8B583
:105A80000400B4F85C6094F86A00222837D12068DA
:105A9000808C0700A068B0F5805F0BD120690028DA
:105AA00008D1606D050016EA07002880606D801C33
:105AB000606505E0606D411C616516EA07010170D3
:105AC000B4F85A00401EA4F85A00B4F85A0000284E
:105AD00013D12068006830F4907021680860206855
