:020000040800F2
:10000000200600204DE2000809B600080BB60008E3
:1000100015B600081FB6000829B600080000000049
:1000200000000000000000000000000033B60008DF
:100030003DB600080000000047B600085DB60008A5
:1000400025E4000829E400082DE4000831E4000854
:1000500035E4000839E400083DE4000841E4000804
:1000600045E4000849E400084DE4000851E40008B4
:10007000B7B60008B9B60008BBB60008E7B6000876
:1000800055E4000859E400085DE4000861E4000854
:1000900065E4000869E400086DE40008ADB60008F6
:1000A00071E4000875E4000879E400087DE40008C4
:1000B00053B6000849B6000881E4000885E400084A
:1000C00089E400088DE4000891E4000895E4000844
:1000D00099E4000895B600089FB600089DE4000862
:1000E000A1E40008A5E40008A9E40008ADE40008C4
:1000F000B1E40008B5E40008B9E40008BDE4000874
:10010000C1E40008C5E40008C9E40008CDE4000823
:10011000D1E40008D5E40008D9E40008DDE40008D3
:10012000E1E40008E5E40008E9E40008EDE4000883
:10013000F1E40008F5E40008F9E40008FDE4000833
:1001400001E5000805E5000809E500080DE50008DF
:1001500011E5000815E5000819E500081DE500088F
:1001600021E5000825E5000829E500082DE500083F
:1001700031E5000835E5000839E500080000000019
:100180003DE5000841E500082DE9F84F04000D00A9
:1001900016001F00A246B346002D01D0002F01D14A
:1001A000002027E0BD4201D2002023E0012F06D12C
:1001B0002A009BF80010200002F056FF1AE00AEB1C
:1001C0000500794208448146D046C14511D398F8CC
:1001D00000009BF80010884208D13A00594640467A
:1001E00002F06EFF002801D1404603E018F101083B
:1001F000EBE70020BDE8F28F2DE9F8430400DFF8BB
:10020000A818DFF8A8080068DFF8A428D2F8D020E2
:10021000104402F086FF050000281DD1DFF8941875
:10022000DFF888080068DFF88828D2F8D02010446A
:1002300002F077FF050000280ED1DFF87C18DFF808
:100240006C080068DFF86828D2F8D020104402F06B
:1002500068FF0500002818D0DFF850080068281A49
:10026000DFF84C18D1F8D010611888420DD2DFF8B1
:100270004018D1F8D010411A0C00DFF84018097A64
:1002800051F00401DFF834281172DFF8200800680B
:10029000DFF81C18D1F8D010084402F059FF06000E
:1002A000A64208D23400DFF81408007A50F00400A7
:1002B000DFF808180872DFF808080068001BDFF88C
:1002C00000180860DFF8E807D0F8D0002018DFF841
:1002D000E017C1F8D000DFF8D807D0F8D000B0F5AB
:1002E000006F23D3DFF8C807D0F8D400D0F500673B
:1002F0005FF00008DFF8CC07DFF8B417D1F8D410AE
:1003000000EB010942463900484602F041FF002057
:10031000DFF89C17C1F8D400DFF89407D0F8D000BC
:100320004005400DDFF88817C1F8D000DFF88007DE
:10033000D0F8D000002817D0DFF87407D0F8D0002C
:10034000DFF86C17D1F8D410471A5FF00008DFF817
:100350007407DFF85C17D1F8D41000EB01094246AE
:100360003900484602F014FFDFF84407D0F8D00007
:10037000DFF83C17C1F8D400BDE8F18370B5DFF8B1
:100380002C070068DFF82817D1F8D010405C00284F
:1003900031D000F007F9DFF81807D0F8D0000028B6
:1003A00029D0DFF80C07D0F8D000DFF80417D1F817
:1003B000D41088421FD0DFF8F806D0F8D000DFF85C
:1003C000F016D1F8D410441A0025DFF8E0060068D2
:1003D000DFF8DC16D1F8D41000EB01062A0021006A
:1003E000300002F0D5FEDFF8C806D0F8D000DFF804
:1003F000C016C1F8D40070BDDFF8B416D1F8D01023
:100400004118DFF8AC26C2F8D010DFF8A416D1F8F6
:10041000D010B1F5006F05D94FF40061DFF89026D8
:10042000C2F8D01070472DE9F0410500DFF88006D2
:10043000D0F8D000DFF8901609680818B0F5006F02
:100440004CD328000600DFF86806D0F8D000DFF8AB
:10045000781609680818B0F50064DFF85406D0F87B
:10046000D000D0F50060DFF860160860F6B230000A
:10047000002806D0012814D0042812D005281FD047
:100480002CE0DFF8480602F063FE0027DFF83C1698
:10049000001B01EB00083A002100404602F078FE04
:1004A0001CE00027DFF82406DFF81C160968084462
:1004B000B0F105083A002100404602F069FE0DE067
:1004C0000027DFF80806DFF80016096800EB0108CE
:1004D0003A002100404602F05BFEFFE7BDE8F081F4
:1004E00070B5DFF8CC05D0F8D000B0F5006F0AD0B9
:1004F000DFF8BC05D0F8D000DFF8CC150968081883
:10050000B0F5006F4BD1DFF8A805D0F8D000DFF8C8
:10051000B81509680818B0F5006F1FD1DFF890050D
:10052000D0F8D000D0F50060DFF8A4150860DFF83F
:10053000A0050468DFF874050068DFF87415D1F8C9
:10054000D01000EB0105DFF88C6522002900300097
:1005500002F052FE0120DFF880150870DFF8500528
:10056000D0F8D400D0F500640025DFF8400500681D
:10057000DFF83C15D1F8D41000EB01062A00210069
:10058000300002F005FE0020DFF82415C1F8D0008D
:100590000020DFF81C15C1F8D400012000E0002085
:1005A00070BD0000F0B583B0DFF81005C07950F0E1
:1005B0004000DFF80815C871DFF80005C079C0F306
:1005C0008010C0B2002800F05982DFF8E004006813
:1005D000DFF8DC14D1F8D010405C002800F04E8227
:1005E0004FF461750026DFF8E4743200290038000A
:1005F00002F0CEFD0020DFF8D0140860DFF8AC0474
:100600000068DFF8AC14D1F8D01008440400DFF81B
:10061000B8040090DFF8B43401AADFF8C014200059
:1006200002F026FE00284BD00020FFF7FCFEDFF88A
:100630007C040068DFF87814D1F8D0100844DFF8A3
:1006400088140968405C0A2815D1DFF87C0400682A
:10065000401CFFF7D1FEDFF874240199002000F060
:1006600047FADFF84C04D0F8D000B0F5006FA3D300
:10067000FFF736FFA0E7FFF733FF00289CD1DFF834
:100680004404DFF82C14D1F8D010084402F060FDC7
:100690000500DFF81C04D0F8D0002818B0F5006F72
:1006A00005D1DFF824040560FFF71AFF84E7DFF8BF
:1006B0000C04C07910F0BF00DFF80014C8717BE7AC
:1006C000DFF80434DFF80424DFF81414200002F00B
:1006D000CFFD00284FD00120FFF7A5FEDFF8CC03A7
:1006E0000068DFF8CC13D1F8D010DFF8DC231268F3
:1006F0005118405C0A2818D1DFF8CC030068401C70
:10070000FFF77AFEDFF8C423DFF8BC03016801209D
:1007100000F0EEF9DFF89803D0F8D000B0F5006FE4
:100720007FF44AAFFFF7DCFE46E7FFF7D9FE00286B
:100730007FF442AFDFF88C03DFF87413D1F8D010E8
:10074000084402F005FD0500DFF86403D0F8D0008E
:100750002818B0F5006F05D1DFF86C030560FFF7CE
:10076000BFFE29E7DFF85403C07910F0BF00DFF8BF
:100770004C13C87120E7DFF85033DFF85023DFF85F
:100780006413200002F074FD002876D00420FFF7E7
:100790004AFEDFF818030068DFF81413D1F8D01010
:1007A000DFF8242312685118405C0A2845D1DFF88D
:1007B0000C130868C0F38060002806D1DFF8FC1233
:1007C0000868C0F30070002806D022005FF0FF31F7
:1007D000052000F08DF9EFE6BB480068401CFFF7EC
:1007E0000BFEB0A1B94802F09CFC002806D0B74A25
:1007F0005FF0FF31022000F07BF914E0BA49B34802
:1008000002F08FFC002806D0B04A5FF0FF310320D1
:1008100000F06EF907E0AD4802F09AFC0100AB4A27
:10082000042000F065F9A248D0F8D000B0F5006FC0
:100830007FF4C2AEFFF754FEBEE6FFF751FE00287C
:100840007FF4BAAE9F489A49D1F8D010084402F01C
:100850007FFC05009648D0F8D0002818B0F5006F4E
:1008600004D199480560FFF73BFEA5E69348C0799F
:1008700010F0BF009149C8719EE6974800780128A2
:1008800012D18E48007AC0F38000C0B200280BD08D
:100890008A48007A50F00800884908728748007A30
:1008A00010F0FB008549087284490868C0F30070A5
:1008B000002840F0CA8081490868C0F34050C00752
:1008C00000F1C3807D48007AC0F38000C00700F1CA
:1008D000BC807D4B7D4A8549200002F0C9FC7348ED
:1008E00000687349D1F8D010405C0A2802D100207A
:1008F000754908600520FFF796FD6C4800686C4953
:10090000D1F8D010704A12685118405C0A2840F0A3
:1009100090806D480068401CFFF76EFD6E480078BF
:10092000002876D069496B4802F0B4FC694804009D
:1009300065480090654B01AA6849200002F098FCC8
:10094000002805D0614A0199002000F0D1F83DE06F
:100950005D4B5E4A6249200002F08AFC002806D006
:100960005A4A59480168012000F0C2F82EE0564B5F
:10097000564A5C49200002F07BFC002820D049A1A7
:10098000524802F0CEFB002806D0504A5FF0FF31FB
:10099000022000F0ADF819E053494C4802F0C1FBC9
:1009A000002806D0494A5FF0FF31032000F0A0F88C
:1009B0000CE0464A5FF0FF31042000F099F805E0B2
:1009C000444A41480168052000F092F84FF46175EF
:1009D0000026404F32002900380002F0D9FB0020E9
:1009E0003B49086000203C4908703448007AC0F355
:1009F000C000C0B2002812D03048007A50F0040085
:100A00002E4908722D48007A10F0F7002B49087221
:100A100005E02E4A2C480168052000F069F82448BA
:100A2000D0F8D000B0F5006F7FF4C6ADFFF758FDE9
:100A3000C2E5FFF755FD00287FF4BEAD1F48C07921
:100A400010F0BF001D49C871B6E51C48007AC0F31C
:100A50008000C0B200280AD01848007A10F0FB00CD
:100A60001649087216480068FFF7C6FBA4E5220085
:100A70005FF0FF31052000F03BF89DE50F48C0799D
:100A8000C0F38010C0B2002801D1012003E00B4860
:100A9000C079C0F380100949C97960F3861107480D
:100AA000C171F7BD4F4B0000C8E300082C000020C7
:100AB000B82C0020D0E30008D8E300085C32002006
:100AC000AC32002020100020A43200202020002082
:100AD000A8320020A4230020C4320020E0DF000858
:100AE000FCE100080CE20008E0E30008E8E300088D
:100AF0002DE9F34FA3B01400DFF8040D02F092FCCF
:100B000023988DF81500DFF8FC1C0868C0F300700E
:100B1000002841F05380DFF8EC1C0868C00F002863
:100B200041F04C80DFF8DC1C0868C0F3405000281E
:100B300041F04480DFF8CC1C0868C0F380600028D6
:100B400041F03C809DF8150000280AD0022800F0F2
:100B5000718176D3042800F0D680C0F0D28601F0EF
:100B60002CB804F01BFA72B62100249802F032F877
:100B700062B604F006FADFF88C1CD1F80100C0F36D
:100B80000060002810D172B6DFF87C0CD0E9082391
:100B900011001A00DFF8740C02F0A8FB62B6DFF84F
:100BA000600C02F03FFC1CE0DFF8581C0868C0F342
:100BB0004000002815D1DFF8480C02F033FCDFF8C4
:100BC000441CD1F80100DFF83C1C30F08070C1F803
:100BD0000100DFF8301C0868DFF8281C50F0020024
:100BE0000860DFF8201CD1F80100C0F38060002805
:100BF00009D1DFF8101CD1F80100DFF8081C30F033
:100C00008070C1F801000020DFF8041C0860DFF8E4
:100C1000F41B0868C0F34050002808D0DFF8E41B3C
:100C20000868DFF8E01B30F00060086007E0DFF8DC
:100C3000D40B407A10F00100002801F0BF8700F0CB
:100C4000F7BFDFF8CC0B006800280DD04FF400751B
:100C50000026DFF8387E32002900380002F098FACA
:100C60000020DFF8AC1B0860DFF8241EDFF81C0E44
:100C700004F022FF2100DFF81C0E04F01DFFDFF856
:100C8000900B006824990818DFF8841B0860DFF8CF
:100C9000741BD1F80300C0F30060002831D0DFF8E6
:100CA000641B0868DFF85C1B50F080500860DFF8B8
:100CB000541BD1F80300DFF84C1B30F08070C1F8F2
:100CC0000300DFF8401BD1F80200DFF8381B30F0DA
:100CD0000050C1F802000020DFF81C1EC1F8CC0053
:100CE0000020DFF82C1B0860DFF8A00D02F030FABE
:100CF00005000026DFF8947D32002900380002F05C
:100D000047FA00F095BF07AADFF8F01D200002F0B7
:100D1000AFFA002817D00798DFF8DC1D097B88425E
:100D200001DA079802E0DFF8D00D007BDFF8C81D7C
:100D30000873DFF8D01A0868DFF8C81A50F00040CE
:100D4000086001F03BBF08AB09AADFF8B41D200022
:100D500002F08EFA002849D00020DFF89C1DC1F86F
:100D6000B000DFF8A01A0868DFF8981A50F40010F5
:100D70000860DFF8840DD0F8D000002818D0DFF824
:100D8000780DD0F8D000DFF8701DD1F8D410451AD6
:100D90000026DFF8580E0068DFF85C1DD1F8D4108B
:100DA00000EB010732002900380002F0F1F914E0ED
:100DB000DFF8440DD0F8D400D0F580650026DFF8C8
:100DC0002C0E0068DFF8301DD1F8D41000EB0107BD
:100DD00032002900380002F0DBF9DFF81C0DD0F8F2
:100DE000D000DFF8141DC1F8D40021E0DFF8001EA8
:100DF000DFF8980CDFF8182A1268104404F05CFE43
:100E0000DFF80C0A0068401DDFF8041A08602100B2
:100E1000DFF8780CDFF8F8291268104404F04CFE73
:100E2000DFF8EC09006824990818DFF8E419086075
:100E300000F0FEBEDFF8BC1DDFF8500C02F071F9C7
:100E40008346002848D0DFF8BC19D1F80200DFF84B
:100E5000B41930F00050C1F802000020DFF8981CEF
:100E6000C1F8CC003A21DFF8240C04F047FE05005D
:100E700068788DF816009DF81600DFF88C1991F847
:100E8000211060F30301DFF8800980F821100F20A2
:100E9000DFF8741981F8260072B6DFF86C09D0E922
:100EA000082311001A00DFF8640902F01FFA62B685
:100EB000DFF84C0902F0B6FA4FF400760027DFF8AD
:100EC000CC8B3A003100404602F062F90020DFF896
:100ED0004019086000F0F6BCDFF81C1DDFF8AC0B11
:100EE00002F01FF9834600283FD0DFF81819D1F827
:100EF0000200DFF8101930F00050C1F802000020A5
:100F0000DFF8F41BC1F8CC00CAA1DFF8800B04F0B5
:100F1000FDFD0500C7A1002004F0F8FD05002878BC
:100F20008DF816009DF81600DFF8DC1891F82110F6
:100F300060F30301DFF8D00880F821101D20DFF8EE
:100F4000C81881F8260072B6DFF8BC08D0E908237B
:100F500011001A00DFF8B40802F0C8F962B6DFF831
:100F6000A00802F05FFA00F0ADBCDFF8901CDFF8DB
:100F70001C0B02F0D6F88346002800F0B180ADA12A
:100F8000DFF8080B04F0C2FD0500AAA1002004F060
:100F9000BDFD050028788DF8100068788DF81100E7
:100FA000A8788DF81200E8788DF813009DF81100EC
:100FB0000D2807D19DF810003038DFF83C1BC1F830
:100FC000A00044E09DF812000D280DD19DF81000FE
:100FD0000A219DF8112001FB0020B0F50470DFF814
:100FE000181BC1F8A00032E09DF813000D2814D1A1
:100FF0009DF8100064219DF811200A235A4301FB3B
:1010000000209DF8121050FA81F0DFF8F41B081848
:10101000DFF8E41AC1F8A00019E09DF810004FF4C1
:101020007A719DF8112064235A4301FB00209DF83A
:1010300012100A2202FB01009DF8131050FA81F0F1
:10104000DFF8C01B0818DFF8B01AC1F8A000DFF8FD
:10105000A80AD0F8A000002811D0DFF8A817086867
:10106000DFF8A01750F480300860DFF898170868A0
:10107000DFF8901750F40030086000F023BCDFF870
:10108000780AD0F8A000002840F01C84DFF8680A35
:10109000DFF8641A0978C1F3C201C9B2084490F8B4
:1010A000E90000280BD0DFF8500ADFF84C1A097865
:1010B000C1F3C201C9B20844002180F8E910DFF889
:1010C00044170868DFF83C1730F400300860DFF898
:1010D00034170868DFF82C1730F008000860F1E3D7
:1010E000D3A1DFF8A80902F01CF88346002800F01D
:1010F000A38050A1DFF8940904F008FD05004DA17C
:10110000002004F003FD050028788DF810006878B1
:101110008DF81100A8788DF81200E8788DF813008A
:101120009DF811000D2807D19DF810003038DFF828
:10113000C819C1F8A00044E09DF812000D280DD197
:101140009DF810000A219DF8112001FB0020B0F548
:101150000470DFF8A419C1F8A00032E09DF8130074
:101160000D2814D19DF8100064219DF811200A2348
:101170005A4301FB00209DF8121050FA81F0DFF86D
:10118000801A0818DFF87019C1F8A00019E09DF85E
:1011900010004FF47A719DF8112064235A4301FB2B
:1011A00000209DF812100A2202FB01009DF8131086
:1011B00050FA81F0DFF84C1A0818DFF83C19C1F832
:1011C000A000DFF83409D0F8A000002810D0DFF824
:1011D00034160868DFF82C1650F400400860DFF879
:1011E00024160868DFF81C1650F48010086015E01B
:1011F000DFF80409D0F8A00000280FD1DFF80416AA
:101200000868DFF8001630F480100860DFF8F41585
:101210000868DFF8F01530F0080008604FF4007639
:101220000027DFF868883A003100404601F0B0FF3F
:1012300001F0C4BC3A000000BDA1DFF8500801F085
:1012400070FF8346002800F0F580D8A1DFF83C0845
:1012500004F05CFC0500D5A1002004F057FC05005B
:1012600028788DF8100068788DF81100A8788DF82E
:101270001200E8788DF813009DF811000D2807D1B1
:101280009DF810003038DFF87018C1F8A00044E075
:101290009DF812000D280DD19DF810000A219DF82F
:1012A000112001FB0020B0F50470DFF84C18C1F8E4
:1012B000A00032E09DF813000D2814D19DF8100015
:1012C00064219DF811200A235A4301FB00209DF858
:1012D000121050FA81F0DFF828190818DFF81818F2
:1012E000C1F8A00019E09DF810004FF47A719DF844
:1012F000112064235A4301FB00209DF812100A229A
:1013000002FB01009DF8131050FA81F0DFF8F41889
:101310000818DFF8E417C1F8A000DFF8DC07D0F800
:10132000A000002810D0DFF8DC04807950F008001D
:10133000DFF8D0148871DFF8CC140868DFF8C41423
:1013400050F40020086064E0DFF8AC07D0F8A0009B
:1013500000285ED1DFF8B80406680027DFF82C8784
:101360003A003100404601F013FF0020DFF8A014DE
:101370000860DFF89004C079C0F3C000C0B2002854
:1013800037D0DFF87407DFF87017497811F00701DC
:10139000052251430844DFF860170978C1F3C20100
:1013A000C9B2084490F8F100002822D0DFF84807BD
:1013B0000078C0F3C200010049B2DFF83C07407872
:1013C00010F0070040B204F0C5F9DFF82C07DFF891
:1013D0002817497811F00701052251430844DFF826
:1013E00018170978C1F3C201C9B20844002180F876
:1013F000F110DFF810140868DFF8081430F400204A
:101400000860DFF800140868DFF8F81330F008000F
:1014100008604FF400760027DFF870863A0031004C
:10142000404601F0B5FE0020DFF8E413086049E211
:101430004B510000DFF81C1DDFF8500601F071FE73
:101440008346002846D0DFF8BC13D1F80200DFF84D
:10145000B41330F00050C1F802000020DFF89816F5
:10146000C1F8CC0051A1DFF8240604F04FFB0500C1
:101470004EA1002004F04AFB050028788DF81600E4
:101480009DF81600DFF8801391F8211060F3030136
:10149000DD4880F821101620DB4981F8260072B65D
:1014A000D948D0E9082311001A00D84801F01EFFDE
:1014B00062B6D34801F0B6FF4FF400760027DFF89C
:1014C000CC853A003100404601F062FE0020D04950
:1014D0000860F7E1DFF8FC1DDFF8B00501F021FE40
:1014E0008346002808D1DFF8F01DDFF8A00501F0E1
:1014F00018FE8346002839D0C0A1DFF8900504F01B
:1015000005FB0500BDA1002004F000FB0500BBA108
:10151000002004F0FBFA05002E00DFF8C07D3078D3
:101520000D2807D030783870761C7F1CF7E700BF95
:1015300044510000DFF8A80D407850F00100DFF8BA
:10154000A01D48700020DFF8B01581F8E8004FF4C6
:1015500000785FF00009DFF834A54A46414650465E
:1015600001F016FE0020AA490860ABE1DFF8741D07
:10157000DFF8180501F0D5FD00284FD00BA1DFF8EA
:101580000C0504F0C3FA050008A1002004F0BEFA1F
:10159000050006A1002004F0B9FA050028783038CB
:1015A000DFF85415487201A102E000BF3A000000C4
:1015B000002004F0ABFA050028783038DFF8381541
:1015C00088720420904981F8260072B68E48D0E9CE
:1015D000082311001A008D4801F088FE62B6884881
:1015E00001F020FF00208A4908604FF400760027B0
:1015F000DFF898843A003100404601F0C9FD814986
:101600000868C0F34050002806D07E4908687D492C
:1016100030F00060086055E101F0D0BADFF8C00C8E
:101620000078C0F34000C0B2002800F0F380DFF87B
:10163000B00C4078C0F30010C0B2002853D0DFF8DF
:10164000B804C079C0F3C200C0B200280BD0DFF8E4
:10165000A804C07910F0C701083810F0380008431A
:10166000DFF89414C871DFF8780C007810F0FD00F2
:10167000DFF86C1C08700020DFF86C1CDFF87824A1
:10168000527912F00F028854DFF86C04407910F0A0
:101690000F00DFF864140871DFF8440C407810F094
:1016A000EF00DFF83C1C4870DFF8400CDFF848140E
:1016B0000979405C002808D05249D1F8010051490D
:1016C00050F08040C1F80100DAE00120DFF81C1C76
:1016D000DFF82424127988544A490868494930F0CF
:1016E00008000860CCE0DFF8F80B4078C0F3801009
:1016F000C0B200282DD0DFF8E80B007810F0FD0014
:10170000DFF8DC1B08700020DFF8E41BDFF8E823BB
:10171000527912F00F028854DFF8DC03407910F0A0
:101720000F00DFF8D4130871DFF8B40B407810F025
:10173000BF00DFF8AC1B48700120DFF8A41BC874A1
:101740003049D1F801002F4950F08040C1F8010024
:1017500096E0DFF88C0B4078C0F34010C0B2002850
:1017600000F08E802748C079C0F30010C0B2002876
:101770001FD0002008280CDADFF8781BDE4A5279E7
:10178000C2F30212D2B201EBC20100220A54401C81
:10179000F0E7DFF8640BD8494979C1F30211C9B207
:1017A000002242541748C07910F0EF001549C87163
:1017B00014E0DFF8400BD0494979C1F30211C9B2F6
:1017C00000EBC100CC49497911F00F0100224254CD
:1017D0000C48C07910F0F7000A49C8710949086837
:1017E000084930F008000860DFF8F40A407810F08B
:1017F000DF00DFF8EC1A487042E000BF3D00000057
:10180000C83000205C320020A8300020BC3000200E
:10181000B0320020DFF80C0E407AC0F34000C0B2B6
:10182000002818D0DFF8B80A407850F00100DFF83F
:10183000B01A48700020B04981F8E8000020DFF8B5
:10184000A01A4875DFF8DC0D407A10F0FD00DFF8D3
:10185000D41D487214E00220DFF8CC1D81F8260068
:1018600072B6DFF8C40DD0E9082311001A00DFF8C2
:10187000BC0D01F03BFD62B6DFF8B40D01F0D2FD06
:10188000DFF85C0A007810F0FD00DFF8541A0870E9
:10189000DFF8901D0868C0F34020002812D0DFF860
:1018A000841D0868DFF87C1D30F40070086000209B
:1018B00091494873DFF86C1D0868DFF8681D20F057
:1018C000004008600020DFF8381E08604FF4007503
:1018D00000266E4F32002900380001F059FCDFF875
:1018E000441D0868C0F34050002808D0DFF8341DBC
:1018F0000868DFF8301D30F00060086098E101F002
:101900005DB9DFF8001E200001F00BFC002874D048
:10191000DFF8F41D5D4801F004FC8346002835D053
:10192000DFF8E80D04F018F9DFF8B409407810F09A
:10193000DF00DFF8AC194870DFF8A409007810F078
:10194000FD00DFF89C190870DFF8D80CC079C0F3EF
:10195000C000C0B2002810D0674867494979C1F378
:101960000211C9B20522514308446349497911F073
:101970000F010844012180F8F110DFF8A81C086865
:10198000DFF8A01C30F008000860F6E0DFF8840DF6
:1019900004F0E2F8DFF84809007810F0FD00DFF805
:1019A00040190870DFF83809407810F0EF00DFF8D0
:1019B00030194870DFF834094F49497911F00F01A7
:1019C000405C002807D10120DFF820194A4A5279EB
:1019D00012F00F02885401204749474A527912F009
:1019E0000F02114481F8E900DFF8381C0868DFF8BD
:1019F000341C30F008000860BFE0DFF8E4084078ED
:101A0000C0F34010C0B200282CD0DFF8141E200014
:101A100001F087FB002825D04FF4007500261B4FEE
:101A200032002900380001F0B3FB0020DFF8D01CA1
:101A30000860DFF8AC08407810F0DF00DFF8A0188D
:101A40004870DFF89C08007810F0FD00DFF890186F
:101A50000870DFF8D01B0868DFF8C81B30F00800FA
:101A60000860E5E0DFF8381E200001F05AFB00288E
:101A700012D02148B0F88C00DFF8281E0860DFF88B
:101A8000240E0068FEF7B8FB3CE000BF28290020C8
:101A9000D0E300082D290020DFF8880B407AC0F33E
:101AA0004000C0B200282DD0DFF8780B407A10F04B
:101AB000FD00DFF8701B4872DFF82408407850F012
:101AC0000100DFF81C1848700D200B4981F8E80070
:101AD0000020DFF80C1848750020DFF8241C08608F
:101AE0004FF400750026DFF8C07D32002900380071
:101AF00001F04EFB01F062B8B82C0020F4DF0008C2
:101B00001CE200080820DFF8201B81F8260072B6CE
:101B1000DFF8140BD0E9082311001A00DFF80C0BD2
:101B200001F0E4FB62B6DFF8080B01F07BFCDFF8A4
:101B3000F41A0868C0F3C000002807D0DFF8E41AE0
:101B40000868DFF8E01A30F008000860DFF8D41AFF
:101B5000D1F80200C0F3407000280ED0DFF8C41A9C
:101B6000D1F80200DFF8BC1A30F00050C1F80200D2
:101B70000020DFF8381DC1F8CC000020DFF8801B02
:101B800008604FF400750026DFF81C7D3200290044
:101B9000380001F0FDFADFF88C1A0868C0F34050F5
:101BA000002808D0DFF87C1A0868DFF8781A30F0CF
:101BB000006008603CE001F001B839E0DFF8640A39
:101BC000C079C0F38000C0B200281DD0DFF8D80C67
:101BD000DFF82C1B0968084410F8010C002827D1F5
:101BE0000020DFF81C1B086022E000BF2C00002052
:101BF000D8E3000824E300082CE2000830E30008E2
:101C000030EBFFFFB02FFFFFDFF8F40A0068B0F5FC
:101C1000FF7F0DD90020DFF8E81A08604FF4007547
:101C20000026DFF8847C32002900380001F0B0FA89
:101C3000DFF8F0190868C0F34050002800F08C82EB
:101C40000027DFF8680CD0F8B000DFF8601CD1F88E
:101C5000A410884280F0B287DFF81C0E0068DFF81D
:101C60004C1CD1F8D01008448346DFF8400CD0F863
:101C7000A400DFF8381CD1F8B010401A0500B5F503
:101C8000007F02D94FF4007700E02F00DFF81C0C32
:101C9000D0F8D000D0F500600500BD4200D22F0082
:101CA000DFF8080CB0F892003818B0F5007F06D9BC
:101CB000DFF8F80BB0F89200D0F50077FFE7DFF817
:101CC000BC0D406E00684068D0F50066DFF8DC0BA4
:101CD000D0F8D000864213D3DFF8D00BD0F8D00074
:101CE0003818B0420CD3DFF8C40BD0F8D000301A4B
:101CF000B84205D2DFF8B40BD0F8D000371AFFE7AE
:101D0000DFF87C0DDFF8A41BB1F8921000EB01089E
:101D10003A005946404601F06FFADFF8900BD0F8D0
:101D2000B0003818DFF8841BC1F8B000DFF87C0B76
:101D3000B0F892003818DFF8741BA1F89200DFF8B1
:101D40006C0BD0F8D0003818DFF8601BC1F8D00059
:101D5000DFF8580BD0F8D000DFF8501BD1F8D410C2
:101D6000B0EB01085FF00009DFF80C0D0068DFF848
:101D70003C1BD1F8D41000EB010A4A4641465046BC
:101D800001F006FADFF8240BD0F8D000DFF81C1BB6
:101D9000C1F8D400DFF8140BD0F8D000B0F5006F14
:101DA00009D10020DFF8041BC1F8D0000020DFF8C3
:101DB000FC1AC1F8D400DFF8F40AD0F8B000DFF85C
:101DC000EC1AD1F8A4108842C0F01081DFF8541842
:101DD0000868C0F3C040002832D0DFF84808807996
:101DE00050F08000DFF83C188871DFF83818086878
:101DF000DFF8301830F480000860DFF82808C07978
:101E000010F0FD00DFF81C18C871DFF8A00A007898
:101E1000C0B2C008DFF8941A497860F3C501DFF852
:101E20008C0A4170DFF8840A90F90100DFF87C1A0F
:101E300091F9031060F30201DFF8700AC17063E0EA
:101E4000DFF8E0170868C0F3005000282DD0DFF855
:101E5000D4170868DFF8CC1750F480000860DFF86A
:101E6000C407807910F07F00DFF8B8178871DFF8B9
:101E7000B407C07910F0FD00DFF8A817C871DFF8CB
:101E80002C0AC07850F00700DFF8201AC870DFF87D
:101E90001C0A0078C0B2C008DFF8101A497860F355
:101EA000C501DFF8080A41702EE0DFF878170868EE
:101EB000C0F34040002827D0DFF86807C07950F011
:101EC0000200DFF86017C871DFF85807807910F05A
:101ED0007F00DFF850178871DFF848170868DFF8CF
:101EE000441730F480000860DFF8C009407810F033
:101EF000C700DFF8B8194870DFF8B009C07850F0B3
:101F00000700DFF8A819C870DFF8D403007850F094
:101F10000200DFF8CC130870DFF808170868DFF854
:101F2000041730F400100860DFF8F8160868C0F3F2
:101F3000C040002806D1DFF8EC160868C0F3005056
:101F400000281DD002200190DFF86009B0F892004F
:101F50000090DFF85809D0F8A430DFF8242BDFF820
:101F60004C094078C0F3C200010049B2DFF83C09D7
:101F700090F9030040F3020040B203F0FFFD23E0BC
:101F8000DFF8A0160868C0F3404000281CD00120EC
:101F90000190DFF81809B0F892000090DFF80C0902
:101FA000D0F8A430DFF8D82ADFF800094078C0F371
:101FB000C200010049B2DFF8F40890F9030040F3D1
:101FC000020040B203F0DAFD0020DFF8E018A1F8CB
:101FD00092004FF400785FF00009DFF8A4AA4A46A7
:101FE0004146504601F0D4F800F0E8BDDFF8BC08E7
:101FF000B0F89200B0F5007F7FF423AEDFF8AC08B4
:102000000078C0B2C008DFF8A418497860F3C501B1
:10201000DFF898084170DFF80C160868C0F3C0407C
:10202000002828D0DFF8840890F90100DFF87C1838
:1020300091F9031060F30201DFF87008C17002200B
:1020400001904FF400700090DFF86008D0F8A430E1
:10205000DFF82C2ADFF854084078C0F3C2000100F2
:1020600049B2DFF8480890F9030040F3020040B29B
:1020700003F084FD5CE0DFF8AC150868C0F30050A5
:10208000002823D0DFF82408C07850F00700DFF8DC
:102090001C18C870022001904FF400700090DFF807
:1020A0000C08D0F8A430DFF8D829DFF80008407811
:1020B000C0F3C200010049B2DFF8F00790F9030055
:1020C00040F3020040B203F059FD31E0DFF854154F
:1020D0000868C0F3404000282AD0DFF8D007C07855
:1020E00050F00700DFF8C417C870DFF8C007407869
:1020F00010F0C700DFF8B4174870012001904FF4CA
:1021000000700090DFF8A407D0F8A430DFF8702941
:10211000DFF898074078C0F3C200010049B2DFF849
:102120008C0790F9030040F3020040B203F026FD53
:102130000020DFF87817A1F892004FF400785FF0E4
:102140000009DFF83CA94A464146504601F020F814
:1021500077E500BF3CE20008DFF8C8140868C0F368
:102160000070002800F05E83DFF8B804C079C0B2C8
:10217000C009C0B2002840F04983DFF80009406E72
:1021800000684068D0F500600190DFF83C0ADFF895
:102190001C17D1F8D010084400F0DAFF0500002D1C
:1021A00009D10198DFF80417D1F8D010884202D085
:1021B0000120050023E0DFF8F406D0F8D00028184D
:1021C000B0F5006F06D9DFF8E406D0F8D000D0F5FE
:1021D0000065FFE7B5F5007F02DB4FF40075FFE710
:1021E000DFF8C806B0F892002818B0F5007F06DDC9
:1021F000DFF8B806B0F89200D0F50075FFE7DFF819
:1022000078080068DFF8A416D1F8D01000EB0106BA
:10221000DFF86C08DFF89416B1F8921000EB0107B4
:102220002A003100380000F0E7FFDFF88006B0F840
:1022300092002818DFF87416A1F892000923DFF83D
:102240008C29DFF86806B0F89210DFF83408FDF743
:102250009BFF8346BBF1000F00F0FB80DFF87009A5
:1022600003F07AFCDFF81808BBEB00000090DFF801
:102270003C06B0F892000099461A0027DFF80008E3
:10228000009900EB01083A003100404600F080FF61
:102290000098DFF81816A1F89200DFF81006B0F8E1
:1022A0009200DFF80816B1F89410884226D2DFF8C1
:1022B000FC05B0F892000930DFF8F015B1F8941081
:1022C000401AFEF799F8D748007A50F00100D54936
:1022D00008721BE03CE3000848E30008C62C00201D
:1022E000F831002054E300087C32002084320020C2
:1022F000C23200204C320020B83200200098DFF8B3
:10230000AC15B1F89410401AFEF776F8DFF89C058A
:10231000D0F8D000DFF89415D1F8D410461A002771
:10232000DFF854070068DFF88415D1F8D41000EB0B
:1023300001083A003100404600F02AFFDFF86C0542
:10234000D0F8D000DFF86415C1F8D4000020009068
:10235000DFF85805D0F8D000B0F5006F09D10020A3
:10236000DFF84815C1F8D0000020DFF84015C1F8AB
:10237000D400AC490868C0F3807000280AD0DFF8A8
:10238000000703F0FCFBA7490868A64930F080402D
:10239000086018E0A3490868C0F3407000280AD01C
:1023A000DFF8DC0603F0ECFB9E4908689D4930F03D
:1023B0000050086007E0DFF8F404B0F89210DFF88E
:1023C000C00603F088FE0020DFF8E014A1F89200B8
:1023D0000020DFF8D814A1F894009248C07950F09A
:1023E00080009049C8718F4908688E4930F080504C
:1023F00008608C4908688B4930F0806008604FF4B1
:1024000000760027DFF878863A003100404600F079
:10241000BFFE8448007A10F00100002812D08148E5
:10242000007A10F0FE007F490872DFF8C80B407890
:1024300050F00100DFF8BC1B48700020DFF86C147E
:1024400081F8E80077490868764930F008000860AC
:102450008AE60B23DFF8A02BDFF85004B0F89210C7
:10246000DFF81C06FDF790FE8346BBF1000F00F07D
:10247000BB80DFF80C06BBEB0006A5A1DFF8000669
:10248000304400F04EFE8346002878D0DFF8F00597
:1024900003F062FBDFF8640B03F05EFBDFF8E0059E
:1024A000BBEB0000801C0600DFF80004B0F89400CD
:1024B000301AFDF7A1FFDFF83C0B407850F0010027
:1024C000DFF8301B48700D20DFF8E01381F8E800DA
:1024D00054490868534930F0805008605148C07929
:1024E00050F080004F49C871DFF8C003D0F8D00029
:1024F000DFF8B813D1F8D410471A5FF00008DFF8FE
:1025000078050068DFF8A413D1F8D41000EB0109B6
:1025100042463900484600F03BFEDFF89003D0F811
:10252000D000DFF88813C1F8D400DFF88003D0F8BA
:10253000D000B0F5006F08D10020DFF87013C1F8AB
:10254000D0000020D949C1F8D4004FF400775FF0E3
:102550000008DFF82C9542463900484600F018FE86
:102560000020D249A1F892000020D049A1F894009F
:102570002C4908682B4930F008000860F4E5280071
:10258000FDF73AFFC948D0F8D000C849D1F8D410B7
:10259000471A5FF00008DFF8E0040068C349D1F88B
:1025A000D41000EB010942463900484600F0F0FD26
:1025B000BE48D0F8D000BD49C1F8D400BB48B0F83F
:1025C0009200BA49A1F89400B848D0F8D000B0F50C
:1025D000006F7FF4C9AD0020B449C1F8D0000020DD
:1025E000B249C1F8D400BFE5B048B0F89200B0F5E8
:1025F000007F40F0D880AD48B0F89400B0F5FC7F83
:1026000018DC08260027DFF8F8893A003100404638
:1026100000F0BEFDA548B0F89400D0F5FC70FDF7C1
:10262000EBFE27E05C320020A8300020BC30002008
:10263000C83000200826DFF8C879DFF8C8893200E2
:102640003900404600F0D8FD2800FDF7D5FE5FF0C8
:1026500008085FF00009DFF8A8A94A46414650463D
:1026600000F096FDDFF8A009007A50F00200DFF8D4
:10267000981908728D48D0F8D0008C49D1F8D41040
:10268000461A0027DFF8F00300688849D1F8D41013
:1026900000EB01083A003100404600F079FD834824
:1026A000D0F8D0008149C1F8D4004FF4FC707F49C4
:1026B000A1F892007D48D0F8D000B0F5006F07D1A6
:1026C00000207A49C1F8D00000207849C1F8D40030
:1026D000DFF834190868C0F38070002804D0DFF8F0
:1026E000A00303F04CFA1DE0DFF81C190868C0F3E2
:1026F0004070002810D0E24803F042FA12E000BF18
:10270000B032002008E0000860E30008F8D70008B5
:102710000D0A000034D700086448B0F89210D84879
:1027200003F0D9FC00206149A1F8920000205F4924
:10273000A1F894004FF400760027DFF844833A00B4
:102740003100404600F024FDDFF8BC08007AC0F3F9
:102750004000C0B200283FF407AD0826DFF8A47897
:10276000DFF81C8332003900404600F045FD0820A8
:102770004E49A1F8920008204C49A1F894005FF05E
:102780000A085FF00009DFF87CA84A464146504637
:1027900000F0FEFCDFF87008007A10F0FD00DFF8B2
:1027A00068180872E0E42800FDF726FE3F48B0F8FC
:1027B00092003E49A1F894003C48D0F8D0003B4933
:1027C000D1F8D410461A0027AB4800683749D1F831
:1027D000D41000EB01083A003100404600F0D8FC6C
:1027E0003248D0F8D0003149C1F8D4002F48D0F891
:1027F000D000B0F5006F7FF4B7AC00202B49C1F8D2
:10280000D00000202949C1F8D400ADE4DFF8F80772
:10281000C07910F07F00DFF8F017C871CEE100BF7B
:1028200084DD0008DFF8E0170868C00F002800F01A
:10283000F280E4A1200000F074FC002838D0DFF81A
:10284000C8170868DFF8C01720F000400860DFF8FC
:10285000B8170868DFF8B01730F40070086000207F
:1028600012494873642500260AAF32002900380057
:1028700000F08EFC0220DFF8941781F8260072B673
:10288000DFF88807D0E9082311001A00DFF8800775
:1028900000F02CFD62B6DFF87C0700F0C3FDABE072
:1028A0009CDD0008AC32002028290020B82C002034
:1028B000DFF86407407BDFF86017097B884280F00F
:1028C0009B80DFF85407407B8DF81400DFF84C073D
:1028D0000390DFF84C0700689DF814102C22514338
:1028E000084408300290DFF8380700689DF814109B
:1028F0002C2251430844001D0190DFF82407006892
:102900009DF814102C225143084400900AAB05AAEC
:10291000DFF810070168200000F0AAFCDFF80817B4
:10292000DFF8F80600F0FDFB8346BBF1000F0CD08A
:10293000DFF8EC060068DFF8E016497B2C225143F3
:102940000844012180F826100BE0DFF8D406006867
:10295000DFF8C416497B2C2251430844002180F83B
:102960002610DFF8C816DFF8B40600F0DAFB83465D
:10297000BBF1000F0CD0DFF8A8060068DFF898164E
:10298000497B2C2251430844012180F827100BE099
:10299000DFF88C060068DFF88016497B2C22514353
:1029A0000844002180F82710DFF88416DFF86C0651
:1029B00000F0B7FB8346BBF1000F0CD0DFF86006D8
:1029C0000068DFF85416497B2C225143084401214A
:1029D00080F828100BE0DFF848060068DFF83816AA
:1029E000497B2C2251430844002180F828109DF88F
:1029F0001400DFF8241648730020DFF8381608604A
:102A00004FF400750026DFF81476320029003800F4
:102A100000F0BEFBD2E0DFF8F005407A10F00100D4
:102A2000002800F0CB80DFF8100603900025002678
:102A30000020069006A80290DFF800060190DFF85B
:102A400000060090DFF8FC35DFF8FC250399DFF87D
:102A5000FC0500F00DFCDFF8E8050068864280F216
:102A6000A280DFF8DC050068801BB0F5007F09DD7F
:102A70004FF400750AE000BF2C000020A42E0020B7
:102A800028270020DFF8B8050068851BDFF8BC05A3
:102A9000069908448346DFF8B8752A00594638007D
:102AA00000F0AAFBDFF87005A0F89250AE19DFF82D
:102AB0009005006886424DDBDFF894050190DFF851
:102AC0007C0500680090DFF8780503682A00DFF8CD
:102AD0007415DFF874050078C0B203F08BFBDFF8E3
:102AE0002805407A10F0FE00DFF81C15487200201F
:102AF000DFF82415A1F892004FF400775FF000088A
:102B0000DFF84C9542463900484600F041FBDFF8BB
:102B10000805D0F8D000DFF80015D1F8D410401A1D
:102B200000905FF00009DFF82C050068DFF8E8147A
:102B3000D1F8D41000EB010A4A460099504600F043
:102B400027FBDFF8D404D0F8D000DFF8CC14C1F8AC
:102B5000D40028E0B6F5007F7FF47DAFDFF8F00405
:102B60000190DFF8D80400680090DFF8D40403680F
:102B70004FF40072DFF8CC14DFF8CC040078C0B258
:102B800003F038FB0020DFF89014A1F892004FF416
:102B900000775FF00008DFF8B894424639004846F5
:102BA00000F0F6FA57E74FF461775FF00008DFF8BE
:102BB0009C9442463900484600F0EAFA25B0BDE848
:102BC000F08F00004F4B0D00201000206CE3000838
:102BD000D4DA00082DE9F04383B004000D004FF073
:102BE000FF0820008046DFF8240480F820800120C0
:102BF000DFF8181481F826000FFA88F840460028FC
:102C000000F0D881401E00F0E481401E012840F20F
:102C1000D181801E012840F2E981801E012840F206
:102C2000C981801E012840F2E181801E00F0D1811F
:102C3000401E012840F2DA81801E012840F2BA814C
:102C4000801E00F0D381401E032840F2B381001F94
:102C500000F0CC81401E00F0AD81401E012840F202
:102C6000C581C01E00F0A681401E012840F2BE8131
:102C7000801E00F0A980801E00F09C81401E01286B
:102C800040F2B481801E012840F29481801E012808
:102C900040F2AC81801E00F08D81401E00F0A681C4
:102CA000401E00F08781401E042840F29F81401F93
:102CB000012840F27F81001F052840F27B81801FA0
:102CC00031D0401E00F05281401E00F06381401E52
:102CD00067D0C01E00F09C80401E00F0BC80801EAB
:102CE00000F01C81801E00F06581401E00F02881EC
:102CF000401E00F03081001F78D0801E00F05A8105
:102D00000A3800F07381801E00F04E81401E00F0F2
:102D1000F280401E00F0C980401E00F0D980401EA5
:102D200000F0488163E1DFF83013280000F0F9F982
:102D3000060070793A2817D1B0798DF800009DF817
:102D40000000B24991F8211060F30301AF4880F808
:102D50002110AE4890F8210010F00F0050F09000C4
:102D6000AA4981F821001BE070798DF80000F07904
:102D70008DF80100A54890F8210010F00F009DF893
:102D8000001050EA0110A14981F821009DF80100CE
:102D90009E4991F8211060F303019C4880F82110AE
:102DA00025E1AE49280000F0BCF90600F0798DF865
:102DB00000009DF80000954991F8211060F303018F
:102DC000924880F8211012E113208146B9F1240FB6
:102DD00008DA15F809009049494481F83C0019F1D6
:102DE0000109F3E70B208349887500E1162081462D
:102DF000B9F1280F08DA15F809008749494481F824
:102E00003E0019F10109F3E70C207A498875EEE0DC
:102E10003A21280002F072FE0700787830387B49AA
:102E200091F8211060F30301784880F82110002008
:102E300038703A21280002F061FE070078783038B7
:102E4000724991F8211011F00F0151EA00106F49F9
:102E500081F82100CBE03A21280002F04FFE070064
:102E6000002038703A21280002F048FE07007878E8
:102E70003038664991F8211060F30301634880F807
:102E80002110002038703A21280002F037FE070098
:102E9000787830385D4991F8211011F00F0151EA2E
:102EA00000105A4981F82100A1E06B49280000F088
:102EB00038F9060070798DF800009DF8000053493C
:102EC00091F8211060F30301504880F821108EE042
:102ED0006249280000F025F90600F0798DF800001D
:102EE0009DF80000494991F8211060F3030147481B
:102EF00080F821107BE05949280000F012F9060003
:102F0000F0798DF800009DF80000404991F82110FB
:102F100060F303013D4880F8211068E0002050492B
:102F2000087039490868384930F0020008603649AD
:102F3000D1F80100344950F08070C1F8010056E02A
:102F40000A20324981F826002F48C07950F0040049
:102F50002D49C8714BE009202C4981F826002A48E8
:102F6000C07910F0FB002849C87140E01D2003F033
:102F7000D5F903F0F3F924490868234930F0020039
:102F800008602149D1F801001F4950F08070C1F854
:102F900001002CE001AA3349280000F069F90198EA
:102FA000284403F0DCF922E01748407A50F0010091
:102FB0001549487214490868134930F00200086046
:102FC0001149D1F80100104950F08070C1F801009A
:102FD0000DE00D490868C0F3C000002805D00A497B
:102FE0000868094930F00800086000E0FFE7BDE824
:102FF000F7830000F831002078E30008F0E30008D0
:1030000020290020683200205C320020A8300020F7
:10301000BC300020C8300020B82C00202829002017
:10302000A032002028000020F8E3000800E4000897
:1030300008E40008B032002028D80008340000203E
:1030400030000020142F00201D020020202000202E
:10305000282700202C00002010E4000818E40008B5
:10306000BF320020B8DB0008C9B2830706D0521E69
:1030700022D310F8013B9942F7D11FE0083A13D34D
:1030800002F1040241EA012141EA014150F8043B06
:10309000121F21BF4B40A3F1013C2CEA030C1CF092
:1030A000803FF3D0C9B2001F083210F8013B521E16
:1030B00028BF91EA030FF8D818BF0120401E7047BF
:1030C0000300002013F0030F09D0521E22BF13F893
:1030D000010B11F801CBB0EB0C00F3D07047121FBD
:1030E00022BF53F8040B51F804CB6045F7D0121DF2
:1030F0000AD200BA9CFA8CFCB0EB0C0038BF6FF01F
:10310000000088BF01207047521E22BF13F8010B38
:1031100011F801CBB0EB0C00F6D0521C08BF1046E2
:10312000704738B504000D002900200003F018F99D
:1031300032BD03681AB95A1E0260084670471978F2
:1031400000290FBF4FF0FF30591C016018787047FD
:1031500000F10103810704D010F8011B89B1810738
:10316000FAD10268B2F10131914311F0803F04BFFE
:1031700050F8042FF6E710F8011B11B110F8011BED
:10318000FBE7C01A70470268531C03601170704758
:1031900062F30F2262F31F42401810F0030308D0BD
:1031A000C91A1FD3DB0748BF00F8012D28BF20F83C
:1031B000022D130030B414461546103928BF20E9FB
:1031C0003C00FAD8490728BF20E90C0048BF40F866
:1031D000042D890028BF20F8022D48BF00F8012DDA
:1031E00030BC7047C91818BF00F8012DCB0728BFA5
:1031F00000F8012D7047200062B38B0708D0521EE3
:1032000011F8013B00F8013B00F024808B07F6D158
:10321000830740F0208000BF103A07D330B4B1E8F4
:103220003810103AA0E83810F9D230BC530724BF48
:10323000B1E80810A0E8081044BF51F8043B40F87A
:10324000043BD20724BF31F8022B20F8022B44BFE5
:103250000B7803707047083A07D3B1E80810083AB2
:1032600040F8043B40F804CBF7D25307E4E70000F2
:103270000DB400B582B004A800900A466B4603A9BD
:10328000034878440A3003F0A1F806BC5DF810FB4F
:10329000A3FEFFFF024600E0521C1378002BFBD177
:1032A00011F8013B137012F8013B002BF8D1704765
:1032B00008231A0012FB01F38380002303800023FC
:1032C000C38000234380554B836070478188C0884A
:1032D000B0EBD10F01D1012000E000207047C08881
:1032E000002801D1012000E00020704776B50400DD
:1032F0002000FFF7EBFF002842D16088C0080600DD
:10330000A06800EBC600BDF804108180A06800EB47
:10331000C6009DF802108170A06800EBC6009DF801
:103320000110A26802EBC602527861F303024270F8
:10333000A06800EBC600A16801EBC601497811F056
:103340000F019DF8012012F0F002114341709DF829
:103350000000A16801F83600A06800EBC6009DF8E7
:1033600006108171E088401CE08060880830608031
:10337000A0880500608890FBF5F105FB11006080D6
:1033800073BD70B504002000FFF7A9FF002801D02D
:10339000002042E02088C0080600A06800EBC600BC
:1033A00080881F498880A06800EBC600407810F034
:1033B0000F001B49497860F3030119484170A06868
:1033C00000EBC6004078C0B200091549497811F0F9
:1033D0000F0151EA001012494870A06800EBC600C6
:1033E00080780F498870A06810F836000C49087082
:1033F000A06800EBC60080790949887120880830F0
:103400002080E088401EE080A0880500208890FB96
:10341000F5F105FB11002080014870BD282B00202C
:10342000743200200021818000218171417811F0E7
:10343000F00151F00901417009218170632101708F
:103440007047000070B54FF48061DFF8D00203F0E0
:1034500063FDDFF8CC02407810F0F100DFF8C01215
:1034600048700020DFF8BC12087000F046F900F048
:1034700088F800F017F83221DFF8AC02FFF718FFE8
:1034800001F07FFD08240025A84E2A00210030000D
:10349000FFF77EFEA64803F067FD002801D002F08A
:1034A000B5F970BD9E48007850F008009C4908703E
:1034B0009B48007850F0800099490870984800783F
:1034C00010F0BF009649087000209549487400200C
:1034D000934988740020924948609148407810F0E0
:1034E000FE008F494870FF208D49887502208C4965
:1034F000C87402208A49087500208949487500204F
:103500008749C8608B4908688A4950F00100086003
:1035100088490868874950F0020008608549D1F859
:103520000200844930F00050C1F802008148007A5E
:1035300010F0FE007F4908727E48807950F0040048
:103540007C4988717B48C07910F07F007949C87147
:103550007848007A10F0FD00764908727548007AC4
:1035600010F0FB00734908727248007A10F0F700FF
:10357000704908726F48407A10F0FB006D4948723C
:1035800070472DE9F0416C48C07910F0C7006A49D6
:10359000C87100206849C1F8AC0000206649C1F834
:1035A000A00000206449C1F8A80000206249C1F8C9
:1035B000B80000206049C1F8B00000205E49A1F8C1
:1035C000980000205C49C1F8BC0000205A49C1F8AD
:1035D000C40000205849C1F8C8000020564948736B
:1035E00000205549C1F8CC0000205349A1F89400AF
:1035F0004FF480505049C1F8E4000A204E49A1F828
:103600009A00082401254D4E2A0021003000FFF7C2
:10361000BFFD4FF400660027DFF824813A00310037
:103620004046FFF7B5FDBDE8F08180B5454800682C
:1036300050F00200434908604248006810F0020060
:10364000009000983F48006850F001003D49086034
:103650003C48006810F00100009000984FF4807022
:103660002E49086301202D49486301202B498863B6
:1036700003202A49C86334495FF0904003F0B2FD4B
:10368000002028490870FF202549887500224FF442
:1036900080715FF0904003F041FFC82003F070FF9D
:1036A00001224FF480715FF0904003F037FF322029
:1036B00003F066FF4FF480715FF0904003F08BFEE3
:1036C0001748807D0E2801D000BFF9E701BD80B505
:1036D00000224FF480515FF0904003F01FFF012261
:1036E0001A491B4804F0B4F8002805D111490868AC
:1036F000104950F48050086001BD80B54FF400625D
:103700000F49134804F057F9002805D10949086802
:10371000084950F48050086001BD0000A830002026
:10372000F8310020BF320020BC3000207C32002065
:10373000EC3000205C320020B82C002084320020C5
:10374000201000204C100240D8300020062D002010
:10375000A42E00202DE9F04385B0040000250026AA
:10376000DFF8C01D0868C0F3C000002841F04E809B
:1037700072B6DFF8B40DFFF704FEDFF8B01D886203
:1037800062B6DFF8A80D806A002801F03F80DFF8FC
:103790009C0D806A8079012859D0022801F01A8096
:1037A000032801F01780042801F01480062800F097
:1037B000DC84072800F02781082800F0F987092811
:1037C00001F01B800A2801F017800C2800F0F58614
:1037D0000D2800F043870E2800F0AA860F2868D035
:1037E000102800F06F85132800F0E682142800F0FE
:1037F0002485152800F0D785162800F0A880172802
:1038000000F09E851A2800F051831B2800F08F835A
:103810001C2800F00F861D2820D01E2800F01984D7
:10382000212800F00683222800F0D083232800F00E
:103830004C84242800F0A181252800F07D812728D0
:1038400000F06482282800F0768700F0DFBFDFF800
:10385000DC0C806A01F002FC00F0D8BFDFF8CC0C71
:10386000806A407810F00F00DFF8E41D097860F3FB
:103870000201DFF8DC0D01700120DFF8D81DDFF850
:10388000AC2C926A527812F00F0288540020DFF8B4
:10389000C81D4875DFF8C00D407850F00100DFF812
:1038A000B81D48700020DFF8A81D81F8E80000F07E
:1038B000ADBFDFF89C0DC079C0F3C200C0B20828CC
:1038C0000EDBDFF8940D407850F00100DFF8881D22
:1038D00048700420DFF8781D81F8E80000F096BFFA
:1038E000DFF86C0DC07910F0C701083010F0380017
:1038F0000843DFF85C1DC8710120DFF8D41DDFF834
:103900002C2C926A527812F00F028854DFF81C0CAB
:10391000806A407810F00F00DFF8341D097860F3FA
:103920000201DFF82C0D01700020DFF82C1D487516
:10393000DFF8240D407850F00100DFF81C1D4870BE
:103940000020DFF80C1D81F8E80000F05FBFDFF811
:10395000D41BD1F80200DFF8CC1B30F00050C1F8C6
:1039600002000020DFF8E81CC1F8CC00DFF8E00C12
:10397000007A10F0070004280EDBDFF8DC0C40783A
:1039800050F00100DFF8D01C48700420DFF8C01CA4
:1039900081F8E80000F03ABFDFF8B40C007A10F0CC
:1039A000F801401C10F007000843DFF8A41C08725F
:1039B0000120DFF8201DDFF8742B926A527812F094
:1039C0000F028854DFF8640B806A407810F00F0013
:1039D000DFF87C1CC97960F30201DFF8740CC17157
:1039E0000020DFF8741C4875DFF86C0C407850F04C
:1039F0000100DFF8641C48700020DFF8541C81F8D7
:103A0000E80000F003BF01F0F0FEDFF8440CC07ADC
:103A1000012826D1DFF8380CD0F8C000002811D0DA
:103A2000DFF82C0C406E0090DFF8240CD0F8C0308A
:103A3000DFF81C0C026EDFF8A01CDFF8A00C04F00D
:103A40001DFD39E0DFF8080C406E00904523DFF8DB
:103A5000000C026EDFF8801CDFF8800C04F00EFD15
:103A60002AE0DFF8EC0BC07A002825D1DFF8E00B64
:103A7000D0F8C000002811D0DFF8D40B406E0090C1
:103A8000DFF8CC0BD0F8C030DFF8C40B026EDFF8E3
:103A9000501CDFF8480C04F0F1FC0DE0DFF8B00B2F
:103AA000406E00904523DFF8A80B026EDFF8301C53
:103AB000DFF8280C04F0E2FCDFF8200CFFF748FBED
:103AC00080B201F0A8FE0500EDB2002D25D1002046
:103AD000DFF87C1BC1F8CC00DFF8481AD1F80200EF
:103AE000DFF8401A50F00050C1F80200DFF8341A35
:103AF0000868DFF8301A50F008000860DFF8241A70
:103B0000D1F80300DFF81C1A50F08070C1F80300F0
:103B10000720DFF8441B48750CE00D20DFF8301B50
:103B200081F8E800DFF8300B407850F00100DFF852
:103B3000281B487000F06ABEDFF8F009806A407800
:103B400010F00F00DFF8081B097860F30201DFF8BE
:103B5000000B01700020DFF8001B4875DFF8F80A41
:103B6000407850F00100DFF8F01A48700020DFF8CC
:103B7000E01A81F8E80000F049BE01F036FEDFF8F7
:103B8000640B007801280ED0DFF8580B007802286B
:103B900009D0DFF8500B0078042804D0DFF8440B7C
:103BA0000078052867D1DFF83C0B0078012815D193
:103BB000DFF89C0AD0F8C030DFF8940A026EDFF814
:103BC000EC1DDFF8180B04F059FCDFF8100BFFF7C1
:103BD000BFFA80B201F01FFE05003BE0DFF8040BE6
:103BE0000078022811D1DFF8680A426EDFF8C01DA4
:103BF000DFF8E80A04F042FCDFF8E00AFFF7A8FA71
:103C000080B201F008FE050024E0DFF8D80A007851
:103C1000042811D1DFF8380A426EDFF8981DDFF86A
:103C2000BC0A04F02BFCDFF8B40AFFF791FA80B26B
:103C300001F0F1FD05000DE0DFF87C1DDFF89C0AC6
:103C400004F01CFCDFF8940AFFF782FA80B201F05E
:103C5000E2FD0500EDB2002D50D00D20DFF8F01987
:103C600081F8E800DFF8F009407850F00100DFF853
:103C7000E819487042E0DFF86C0A007803283DD16B
:103C8000DFF8CC09B0F88C30DFF8C409426EDFF8F9
:103C90002C1DDFF8480A04F0F1FBDFF8400AFFF7BB
:103CA00057FA80B201F0B7FD0500EDB2002D0DD03E
:103CB0000D20DFF89C1981F8E800DFF89C094078B6
:103CC00050F00100DFF89019487017E001F08DFD09
:103CD000DFF87C09B0F88C70DFF87409D0F88880C0
:103CE000DFF8F8993A0041464846FFF785FADFF8D1
:103CF0006009B0F88C0001F08EFD05000020DFF8AF
:103D0000E419087001F071FD00F080BD01F06DFD57
:103D1000DFF83C09B0F88C000390DFF83409D0F8E4
:103D200080000290DFF82809806E0190DFF82009FA
:103D3000406E0090DFF81809D0F8C030DFF81009A5
:103D4000026EDFF87C1CDFF8940904F097FBDFF8C3
:103D50008C09FFF7FDF980B201F05DFD0500EDB2C1
:103D6000002D0DD00D20DFF8E81881F8E800DFF80D
:103D7000E808407850F00100DFF8DC18487019E0DE
:103D800001F033FDDFF8C808B0F88C70DFF8C00828
:103D9000D0F88880DFF844993A0041464846FFF75A
:103DA0002BFA72B6DFF8A808B0F88C0001F033FDEA
:103DB000050062B600F02ABD01F017FDDFF8DC1D3A
:103DC000DFF8180904F05AFBDFF81009FFF7C0F913
:103DD00080B201F020FD0500EDB2002D0DD00D20C8
:103DE000DFF86C1881F8E800DFF86C08407850F0D4
:103DF0000100DFF86418487019E0DFF82817086838
:103E0000DFF8201750F008000860DFF81817D1F825
:103E10000300DFF8101750F08070C1F80300DFF8DE
:103E200004170868DFF8FC1650F08040086000F0C6
:103E3000EDBC01F0DAFCDFF8681DDFF8A00804F043
:103E40001DFBDFF89808FFF783F980B201F0E3FC6F
:103E50000500EDB2002D0DD00D20DFF8F41781F82C
:103E6000E800DFF8F407407850F00100DFF8E817C9
:103E7000487019E0DFF8AC160868DFF8A81650F0B3
:103E800008000860DFF89C16D1F80300DFF89416EC
:103E900050F08070C1F80300DFF888160868DFF87A
:103EA000841650F08040086000F0B0BC01F09DFC2A
:103EB000DFF8B41DDFF8240804F0E0FADFF81C088E
:103EC000FFF746F980B201F0A6FC0500EDB2002D27
:103ED00011D00D20DFF8781781F8E800DFF87807B7
:103EE000407850F00100DFF8701748700620DFF8C6
:103EF0006817487519E0DFF82C160868DFF82416F3
:103F000050F008000860DFF81C16D1F80300DFF855
:103F1000141650F08070C1F80300DFF80816086826
:103F2000DFF8001650F08040086000F06FBC01F030
:103F30005CFCDFF81C07B0F88C000090DFF810077D
:103F4000807810F00703DFF808078078C0F3C2021A
:103F5000D2B2DFF8841DDFF8840704F08FFADFF8AF
:103F60007C07FFF7F5F880B201F055FC0500EDB2D3
:103F7000002D16D101F039FCDFF8A8150868DFF82C
:103F8000A41550F008000860DFF8C406B0F88C20D3
:103F9000DFF8BC06D0F88810DFF8400D03F0BEFC57
:103FA0000600EDB2002D02D1F6B2002E0CD0DFF8E3
:103FB000A806407850F00100DFF89C1648700D20EC
:103FC000DFF88C1681F8E80000F020BC01F00DFC51
:103FD000DFF87C06B0F88C300022DFF8041DDFF833
:103FE000FC0604F04BFADFF8F406FFF7B1F880B2F4
:103FF00001F011FC0500EDB2002D16D101F0F5FB2A
:10400000DFF820150868DFF81C1550F0080008607C
:10401000DFF83C06B0F88C20DFF83406D0F88810C2
:10402000DFF8B80C03F07AFC0600EDB2002D02D1E7
:10403000F6B2002E0CD0DFF82006407850F00100D8
:10404000DFF8141648700D20DFF8041681F8E80038
:10405000DCE301F0CAFBDFF8F805D0F8C030DFF888
:10406000F005026EDFF8A01DDFF8700604F006FA16
:10407000DFF86806FFF76CF880B201F0CCFB0500B2
:10408000EDB2002D0DD0DFF8D005407850F00100E2
:10409000DFF8C41548700D20DFF8B41581F8E8008A
:1040A00012E01E20DFF8B01548750020DFF8A015DB
:1040B000C1F8CC00DFF86C14D1F80200DFF864140A
:1040C00050F00050C1F80200A0E3DFF88805DFF8E7
:1040D0005C14896A497811F00F01405C002843D0D4
:1040E00001F083FBDFF84404806A407810F00F028F
:1040F000DFF8181DDFF8E40504F0C0F9DFF8DC058F
:10410000FFF726F880B201F086FB0500EDB2002D26
:104110002AD10020DFF8381581F8E800DFF8041410
:104120000868DFF8001450F008000860DFF8FC03AE
:10413000806A407810F00F00DFF81415497960F3B9
:104140000301DFF80C054171DFF80C05407850F0F1
:104150004000DFF804154870DFF8FC04007850F0E8
:104160000200DFF8F414087050E301F03EFBDFF8C2
:10417000E004C07A012811D1DFF8D404D0F8C000DF
:104180000090DFF8CC04436EDFF8C404026EDFF861
:10419000801CDFF8480504F071F915E0DFF8B00481
:1041A000C07A002810D1DFF8A804D0F8C000009031
:1041B000DFF89C04436EDFF89804026EDFF8541CAD
:1041C000DFF8180504F05AF9DFF81005FEF7C0FF14
:1041D00080B201F020FB0500EDB2002D1FD10020C0
:1041E000DFF86C14C1F8CC00CE49D1F80200CD49FB
:1041F00050F00050C1F80200CA490868C94950F09F
:1042000008000860C749D1F80300C64950F0807023
:10421000C1F803000620DFF8401448750CE00D20BB
:10422000DFF82C1481F8E800DFF82C04407850F017
:104230000100DFF824144870E8E201F0D6FADFF854
:104240001004B0F88C30DFF80804807810F0070212
:10425000DFF8741DDFF8840404F010F9DFF87C0443
:10426000FEF776FF80B201F0D6FA0500EDB2002D20
:1042700014D101F0BAFAAB490868AA4950F0080015
:104280000860DFF8CC03B0F88C20DFF8C403D0F866
:104290008810DFF8480A03F041FB0600EDB2002D5C
:1042A00002D1F6B2002E0CD0DFF8AC03407850F00B
:1042B0000100DFF8A41348700D20DFF8941381F893
:1042C000E800A3E201F091FADFF88403C06E0090E9
:1042D000DFF87C03D0F8C030DFF87403026EDFF83B
:1042E000B81CDFF8F80304F0C9F8DFF8F003FEF7B4
:1042F0002FFF80B201F08FFA0500EDB2002D0DD036
:10430000DFF85403407850F00100DFF84C13487098
:104310000D20DFF83C1381F8E80010E01020DFF8F2
:10432000381348750020DFF82813C1F8CC007D4908
:10433000D1F802007B4950F00050C1F8020065E25C
:1043400001F053FAC248C36EC148D0F8C020DFF86C
:104350007C1CDFF8880304F091F8DFF88003FEF797
:10436000F7FE80B201F057FA0500EDB2002D0AD039
:10437000B948407850F00100B74948700D20B44961
:1043800081F8E8000EE01720B34948750020B049D5
:10439000C1F8CC006349D1F80200624950F00050E6
:1043A000C1F8020032E2DFF828036049896A4978DF
:1043B00011F00F01405C002837D001F016FA5B487D
:1043C000806A407810F00F02DFF8041CC34804F044
:1043D00055F8C248FEF7BCFE80B201F01CFA050099
:1043E000EDB2002D25D10020994981F8E8004D4912
:1043F00008684C4950F0080008604C48806A4078D2
:1044000010F00F009249497960F30301904841711F
:104410009148407850F010008F4948708E480078DD
:1044200050F002008C49087003E0DFF8B80B01F08F
:1044300093FBEBE101F0D9F9A6483C49896A497838
:10444000C9B20909C9B2405C00286AD03748806AFD
:10445000407810F00F00092816D03448806A407860
:1044600010F00F033148806A4078C0B20209D2B21E
:10447000DFF8741B994804F001F82A48C07950F01D
:1044800008002849C87116E026490868254950F0F7
:10449000080008602548806A4078C0B20209D2B29C
:1044A000DFF8701B8D4803F0E9FF1E48C07950F01B
:1044B00010001C49C8718948FEF74AFE80B201F01D
:1044C000AAF90500EDB2002D2BD10020604981F83A
:1044D000E80014490868134950F0080008601348C0
:1044E000806A4078C0B200095949497960F30611E1
:1044F000574841710D48806A407810F00F005449C8
:10450000497960F30301524841715348407850F0B3
:104510002000514948705048007850F002004E4940
:10452000087073E15C320020BC300020A83000200D
:1045300001F05BF94648B0F88C304548026FDFF86F
:10454000EC1A664803F09AFF6448FEF701FE80B259
:1045500001F061F90500EDB2002D0AD03E48407827
:1045600050F001003C4948700D20394981F8E800BD
:1045700022E001F03AF93648B0F88C703448D0F8AF
:104580008880DFF858913A0041464846FEF734FEED
:104590005248FEF7DDFD80B201F03DF90500EDB2B5
:1045A000002D09D02C48407850F001002A4948706D
:1045B0000D20274981F8E80028E101F016F9244888
:1045C000006F002805D1DFF8681A444803F056FF51
:1045D00018E01F48006E002807D11D48026FDFF861
:1045E000541A3E4803F04AFF0CE01948D0F8C000C6
:1045F00000901748036F1648026EDFF83C1A3748E0
:1046000003F03CFF3548FEF7A3FD80B201F003F94B
:104610000500EDB2002D10D1DFF8201A0868DFF890
:104620001C1A50F000500860DFF8101A0868DFF814
:104630000C1A50F08050086009E00748407850F0AC
:104640000100054948700D20014981F8E800DDE0CE
:10465000B82C0020C2320020F831002001F0C5F84B
:10466000DFF8AC0B90F9840010F1010F3CD1DFF8BA
:10467000A00B90F9850010F1010F35D1DFF8900BF8
:10468000006F002810D0DFF8880B406F00280BD097
:10469000DFF87C0B436FDFF8780B026FDFF8A019AF
:1046A0000E4803F0EBFE2DE0DFF8640B006F0028EE
:1046B00028D0DFF85C0B406F002823D1DFF8500BC7
:1046C000026FDFF88019054803F0D8FE1AE000BF3A
:1046D0007C320020B8320020F4DC000820080020E2
:1046E0000CDD0008C3320020DFF8240B90F9853080
:1046F000DFF81C0B90F98420DFF84C19DFF84C0927
:1047000003F0BCFEDFF84409FEF722FD80B201F0A1
:1047100082F80500EDB2002D0CD0DFF834094078A6
:1047200050F00100DFF8281948700D20DFF8E01A7A
:1047300081F8E8006AE001F058F8DFF8D40AD0F810
:10474000C0000090DFF8C80A036FDFF8C40A026EE9
:10475000DFF80019DFF8F40803F090FEDFF8EC084A
:10476000FEF7F6FC80B201F056F80500EDB2002D20
:1047700010D1DFF8C8180868DFF8C01850F0806062
:104780000860DFF8B8180868DFF8B01850F08050FB
:1047900008600CE0DFF8B808407850F00100DFF85E
:1047A000B01848700D20DFF8681A81F8E8002DE095
:1047B000DFF89C08407850F00100DFF8941848704A
:1047C0000D20DFF84C1A81F8E8000020DFF880188F
:1047D00048751BE0DFF87808407850F00100DFF8FA
:1047E000701848700020DFF8281A81F8E8000020CF
:1047F000DFF85C18487509E008E0DFF84018086841
:10480000DFF8381850F020000860FFE7DFF82C18B8
:104810000868C0F3C03000280FD0DFF820180868FF
:10482000DFF8181830F400400860DFF8E409D0F829
:10483000A00080B204F02BF965E2DFF800180868E8
:10484000C0F38050002812D0DFF804080078C0F3CD
:10485000C000C0B200280AD0DFF8E0170868DFF80F
:10486000DC1730F48000086004F0B9F94BE2DFF89F
:10487000CC078079C0F3C000C0B200280FD0DFF8A9
:10488000BC07807910F0F700DFF8B0178871DFF807
:104890008009D0F8A00080B204F02AF933E2DFF8F2
:1048A0009C078079C0B2C009C0B2002812D0DFF8DE
:1048B000A0070078C0F3C000C0B200280AD0DFF81B
:1048C0007C07807910F07F00DFF87017887104F0A2
:1048D000B5F918E2DFF86407C079C0F34000C0B250
:1048E000002812D0DFF868070078C0F3C000C0B21B
:1048F00000280AD0DFF84407C07910F0FD00DFF887
:104900003C17C87104F0D6F9FDE1DFF830170868EC
:10491000C0F3004000280FD0DFF820170868DFF848
:104920001C1730F480300860DFF8E408D0F8A000ED
:1049300080B204F01EF9E6E1DFF80017D1F80200BA
:10494000C0F30060002817D0DFF8F016D1F802009D
:10495000DFF8E81630F08070C1F802000121DFF8BE
:10496000B0088079C0F3C200C0B200F0BFFE0220E0
:10497000DFF8DC16C874C6E1DFF8C006007AC0F3C1
:104980000010C0B200281DD0DFF8B006007A10F089
:10499000EF00DFF8A8160872DFF87408C078C0F3DB
:1049A000C200C0B204F07AFBADE100BFF4D9000848
:1049B00004DF000824DD000818DF00083CDD0008E3
:1049C0004CD90008DFF87406007AC0F34010C0B27A
:1049D000002836D0DFF86406007A10F0DF00DFF838
:1049E0005C160872DFF870060190DFF82408D0F832
:1049F000B4000090DFF81808B0F89630DFF810081F
:104A0000D0F8A820DFF80808D0F88010DFF80008F8
:104A1000007810F0070001F0EDFBDFF820160868C1
:104A2000DFF8181630F0080008604FF400775FF0E8
:104A30000008DFF82496424639004846FEF7A8FBF6
:104A400061E1DFF8F815D1F80100C0F3007000282B
:104A50002FD0DFF8E815D1F80100DFF8E01530F0CD
:104A60008050C1F8010002200190DFF8A407B0F8DF
:104A700096000090DFF89807D0F8B430DFF8D8251A
:104A8000DFF88C074078C0F3C200010049B25FF044
:104A9000FF3001F073F84FF400775FF00008DFF8A3
:104AA000B895424639004846FEF772FB00F083FA9B
:104AB00029E1DFF88815D1F80100C0F34070002823
:104AC00034D0DFF87815D1F80100DFF8701530F038
:104AD0000050C1F8010002200190DFF83407B0F85F
:104AE00096000090DFF82807D0F8B430DFF868258A
:104AF000DFF81C074078C0F3C200010049B2DFF8BC
:104B0000100790F9030040F3020040B201F036F8BC
:104B10004FF400775FF00008DFF83C95424639001B
:104B20004846FEF735FB00F046FAECE0DFF80C15DE
:104B3000D1F80100C00F00281CD0DFF84C0BDFF8C3
:104B4000D016897911F00701405C002807D00221B6
:104B5000DFF8BC06807910F0070000F0C7FDDFF831
:104B6000DC14D1F80100DFF8D41420F00040C1F8C3
:104B70000100C8E0DFF8C414D1F80100C0F3807070
:104B8000002830D0DFF8C804C07C01280AD10121F8
:104B9000DFF8F80A04F083FA0EE000BFF4E2000840
:104BA0006CE10008DFF8A804C07C022804D10221CF
:104BB000DFF8D80A04F073FA0220DFF89414C874FE
:104BC000DFF87814D1F80100DFF8701430F080407D
:104BD000C1F80100DFF864140868DFF8601430F0F1
:104BE000080008608FE0DFF85414D1F80200C0F329
:104BF000406000283AD0DFF84414D1F80200DFF812
:104C00003C1430F00070C1F80200DFF8301408687E
:104C1000C0F34070002804D0DFF83C0400F0B0FF7F
:104C200013E0DFF818140868C0F38070002804D07F
:104C3000DFF8240400F0A3FF07E0DFF8D405B0F8A4
:104C40009210DFF8140401F046FA4FF400775FF099
:104C50000008DFF80494424639004846FEF798FA07
:104C600000F0A9F94FE000BF7CE10008DFF8CC13A9
:104C7000D1F80200C0F3806000281BD0DFF8D80311
:104C800000F07EFF4FF400775FF00008DFF8C89374
:104C9000424639004846FEF77BFA00F08CF9DFF80F
:104CA0009C13D1F80200DFF8941330F08060C1F853
:104CB000020028E0DFF884130868C0F340300028C1
:104CC00010D004F0EDF9DFF874130868DFF86C1306
:104CD00030F40050086016E054DD0008A42E0020D7
:104CE00064DB0008DFF854130868C0F38030002844
:104CF00009D004F0D6F9DFF844130868DFF83C1354
:104D000030F480400860DFF84803807D002800F020
:104D1000A380012800F0A880022800F0AD800328BD
:104D200000F0B280042800F0B780052800F0BC80B5
:104D3000062800F0C980072800F0CD80082800F080
:104D4000D18009284DD00A2857D00B2864D00C28D0
:104D50006BD00D2800F0B0800E282BD00F2800F06B
:104D60000D81102800F0C580112800F0D080122895
:104D700000F0D480132800F0D880142800F0FE80C2
:104D8000152800F0BD80162800F0D680172800F006
:104D9000DA80182800F0DE80192800F0E2801A2856
:104DA00000F0E6801B2849D01C284ED0FF2800F0D8
:104DB000E580E3E0DFF898024078C0F34200C0B23B
:104DC00002280DD1DFF88802407810F0F101801C34
:104DD00010F00E000843DFF87812487001F06BF90C
:104DE000CCE0DFF8F8080078002805D10120DFF8D2
:104DF000EC18087001F067F9C0E004F053F9FF20E7
:104E0000DFF84C128875B9E080DB00082CDF000861
:104E100014DA000834DA0008DFF8C40804F043F9B3
:104E2000FF20DFF82C128875A8E0DFF8B40804F042
:104E30003BF9FF20DFF8181288759FE004F035F980
:104E4000FF20DFF80C12887598E004F02EF9FF209F
:104E5000DFF8FC11887591E0FF20DFF8F411887508
:104E6000112004F023F989E0FF20DFF8E4118875B0
:104E7000142004F01BF981E0FF20DFF8D4118875BD
:104E8000132004F013F979E0FF20DFF8C4118875CE
:104E9000152004F00BF971E0FF20DFF8B4118875DC
:104EA000162004F003F969E0FF20DFF8A4118875EB
:104EB0001B2004F0FBF861E0FF20DFF894118875F7
:104EC0001C2004F0F3F859E0FF2061498875172091
:104ED00000F0F0FD52E0FF205D498875122000F0DF
:104EE000E9FD4BE0FF205A498875182000F0E2FDEB
:104EF00044E0FF20564988751D2004F0D8F83DE0B5
:104F0000FF20534988751E2004F0D1F836E0FF20B9
:104F10004F498875192004F0CAF82FE0FF204C494A
:104F200088751A2004F0C3F828E0FF2048498875E6
:104F3000062004F0BCF821E0FF20454988751F20B9
:104F400004F0B6F81AE0FF2041498875202004F0EB
:104F5000AFF813E0FF203E498875212004F0A8F83F
:104F60000CE0FF203A498875222004F0A1F805E002
:104F7000FF203749887504F09CF8FFE705B0BDE8CD
:104F8000F0830020324988603148007850F00400F6
:104F90002F490870704700009CDB000800202C4956
:104FA00088602B48007810F0FB0029490870012028
:104FB0002749487470472648007850F00800244973
:104FC000087070470000000040DF000854DF000850
:104FD0008CE10008194A1168184A31F00801116083
:104FE000704700006CDD000868DF00081848407852
:104FF00010F00100002801D100BFF7E71448407805
:1050000010F0FE0012494870DFF8D80690F8E8006A
:10501000704700009CE1000810B5040000F0F6FBAA
:1050200010BD10B50400FBF7A9F910BD7CDF000826
:1050300000E30008ACE1000854DA00085C3200200C
:1050400090DF0008BCE10008CCE100082008002047
:10505000F831002074DA00082827002010B5040079
:105060002078012872D0042800F07F80052800F005
:105070008180082800F08380092800F085800A28B4
:1050800000F087800B2800F089800C2800F08B80CE
:105090000F2800F08D80142800F08F80162800F073
:1050A0009180172800F09380182800F095801A2826
:1050B00000F0B0801B2800F0B2801F2800F0B48000
:1050C000202800F0B680232800F0EF80242800F08C
:1050D000F580262800F0F780282800F00181292893
:1050E00000F00F812A2800F01D812B2800F01F817D
:1050F0002C2800F02181372800F023813A2800F085
:1051000085813D2800F099813E2800F0B0813F283C
:1051100000F0C981402800F08F81422800F0F28120
:10512000432800F0C581442800F0CB81452800F0D9
:10513000D581462800F0DB81572800F02D825828C1
:1051400000F0E981592800F0118239E2FF20DFF8F0
:10515000001688750020DFF8841508702C48007A46
:1051600010F0E7002A4908722AE20720DFF8E0156C
:10517000887525E20020DFF8D815887520E2012027
:10518000DFF8CC1588751BE20220DFF8C41588759E
:1051900016E20320DFF8B815887511E20420DFF865
:1051A000B01588750CE20620DFF8A415887507E2B3
:1051B0000820DFF89C15887502E21120DFF89015B1
:1051C0008875FDE11220DFF888158875F8E1132055
:1051D000DFF87C158875F3E10D48007A10F0E701DF
:1051E000083010F018000843094908720848007A8E
:1051F000C0F3C100C0B2022809D10920DFF8501560
:1052000088750348007A10F0E70001490872D7E179
:10521000B82C00200A20DFF838158875D0E1052069
:10522000DFF82C158875CBE10D20DFF82415887583
:10523000C6E1DFF81C054078C0F34200C0B2022886
:105240000BDADFF80C05407810F0F101801C10F04B
:105250000E000843DFF8F8144870DFF8F404007813
:1052600050F01000DFF8E81408700E20DFF8E014AA
:105270008875DFF854170868C0F34010002813D071
:10528000DFF844170868DFF8401730F020000860A6
:10529000DFF834170868DFF8301730F480700860E2
:1052A0001C20DFF8AC1488758AE1DFF81C17086849
:1052B000DFF8141730F40070086081E11620DFF881
:1052C000901488757CE1DFF88804007810F0EF0016
:1052D000DFF87C1408700F20DFF8741488756FE114
:1052E0000020DFF8F8130870DFF8F803007A10F0F8
:1052F000E700DFF8F01308721020DFF85414887507
:105300005EE10020DFF8D4130870DFF8D803007ADC
:1053100010F0E700DFF8CC1308721520DFF8301426
:1053200088754DE11720DFF82814887548E11820AA
:10533000DFF81C14887543E11920DFF81414887510
:105340003EE1DFF884160868C0F34050002840F0C2
:1053500037816078C0B20009C0B2092825D16078D1
:1053600010F00F00DFF87C13097860F3C501DFF857
:1053700074030170C448DFF86C130978C1F3C201EB
:10538000C9B2405C002840D0DFF83C160868DFF85E
:10539000381650F480000860DFF82C160868DFF833
:1053A000281650F0080008602FE06078C0B20009AD
:1053B000DFF83013497860F30201DFF82803417009
:1053C000607810F00F00DFF81C13097860F3C50156
:1053D000DFF810030170DFF80C05DFF808134978D7
:1053E00011F00701405C00280FD0DFF8DC05807960
:1053F00050F08000DFF8D0158871DFF8CC15086810
:10540000DFF8C41550F008000860D9E0607810F0AB
:105410000F00DFF8D012897960F30201DFF8C402CF
:105420008171DFF8A415D1F80100DFF89C1550F068
:105430000040C1F80100C3E0C2E0DFF8AC046178CD
:10544000C9B20909C9B200EBC100617811F00F01BE
:1054500001224254DFF870150868DFF86C1550F42B
:10546000005008600120DFF8E8140870A8E06078B8
:1054700010F00F00010049B26078C0B2000940B2DC
:1054800000F068F9DFF840150868DFF83C1550F4C3
:10549000804008600020DFF8F41408700020DFF876
:1054A000B01408708CE01A20DFF8A412887587E029
:1054B000DFF814150868DFF8101550F480700860E4
:1054C0007EE0DFF804150868DFF8FC1430F4807023
:1054D00008601C20DFF87812887571E0DFF8E814A6
:1054E0000868DFF8E41450F08000086068E0DFF836
:1054F000D8140868DFF8D01430F08000086000F09D
:10550000E2F95DE0DFF8C0140868DFF8BC1450F081
:105510004000086054E0DFF8B0140868C0F3405061
:1055200000284DD1DFF8A0140868DFF89C1450F46F
:1055300000300860607810F00F00DFF8A8110978DB
:1055400060F3C501DFF89C010170DFF87C04C079CD
:1055500050F00200DFF87014C871DFF86C140868AE
:10556000DFF8641450F00800086029E0607810F05B
:105570000F00DFF87011897960F3C501DFF864016D
:105580008171DFF84414D1F80200DFF83C1450F0C8
:105590008070C1F8020013E0607810F00F00DFF8AF
:1055A0004411C97860F3C501DFF83801C170DFF834
:1055B0001804007A50F01000DFF80C140872FFE7AE
:1055C00010BD2DE9FE43002468460021002200237F
:1055D0000EC00C386E4600F008F9DFF88824DFF8BA
:1055E0008814DFF8940402F049FFDFF88C04FDF71B
:1055F000AFFD80B200F00FF90400E4B2002C1ED120
:10560000FFF7F4FC0400E4B2002C15D1DFF85C04D1
:10561000FDF79EFD0500DFF854742A0039003000C4
:10562000FDF7EAFD5FF00008DFF8409442462900EC
:105630004846FDF7ADFD02E02000C0B221E00127A1
:105640005FF00008B8451BDADFF8300450F8381076
:10565000DFF81C0403F02EFD00280ED1DFF81C0437
:1056600000EBC8004168300003F024FD002801D59C
:10567000022004002000C0B203E018F10108E1E7B5
:105680000020BDE8FE8300007C320020BC2C0020FE
:10569000F8B504000D0016001F0000F08CF811484A
:1056A0000466104845660F48C0F8C0600D48C772D0
:1056B00006200D4981F8260072B60B48D0E9082370
:1056C00011001A00DFF8AC03FDF710FE62B6DFF838
:1056D000B003FDF7A7FEF1BD00000000BF320020BF
:1056E000072D0020B82C0020A830002038B5040079
:1056F0000D0000F060F8EDB2022D05D11520DFF8A5
:10570000881381F8260007E0EDB2012D04D1232093
:10571000DFF8741381F82600DFF86C0390F821009D
:1057200064F30300DFF8601381F8210072B6DFF83C
:105730005803D0E9082311001A00DFF83803FDF7F9
:10574000D5FD62B6DFF83803FDF76CFE31BD000011
:10575000F831002038B504000D0000F02CF8DFF817
:10576000280390F8210010F00F0050EA0410DFF831
:10577000181381F82100DFF8100390F8210065F379
:105780000300DFF8041381F821001C20DFF8F81271
:1057900081F8260072B6DFF8F002D0E90823110084
:1057A0001A00DFF8D002FDF7A1FD62B6DFF8D002E3
:1057B000FDF738FE31BDDFF8D402007810F00100AB
:1057C00000280FD1DFF8C4020078C0F34000C0B257
:1057D000002809D0DFF8B4024078C0F30010C0B24E
:1057E000002801D100BFE6E7704770B54FF40064B0
:1057F0000025DFF884622A0021003000FDF7C8FC94
:1058000070BD80B5002003F0A6FC01BD80B500206E
:1058100003F0A1FC01BD10B50400DFF870020078B0
:10582000C0F30010C0B2002809D1DFF86002007890
:10583000C0F38010C0B2002801D1052042E0DFF89B
:105840005C120868C0F30020002806D1DFF84C1273
:105850000868C0F3C010002801D0102032E0DFF843
:105860003C120868DFF8341250F400600860A4B2FB
:10587000002C05D1DFF8280200F06EF91F2021E08E
:105880004FF47A73220092B2DFF8EC11DFF81402C1
:1058900001F0E9FE002803D0FFF7B8FF0F2011E068
:1058A000DFF8F8110868DFF8F41130F400600860E0
:1058B000DFF8E8110868C0F30030002801D1FDF7D7
:1058C00006FF002010BD4049D1F802003E4950F0CB
:1058D0008050C1F802000020DFF8A811C1F8C40010
:1058E00070470000B83200204C3200202DE9F0470C
:1058F000040088460026FFF778FF2200DFF89011A9
:105900005D4802F0BBFD5C48FDF722FC80B2FFF76A
:1059100082FF0600F6B2002E15D1FFF767FB0600E6
:105920005248FDF715FC0500504F2A00390040464B
:10593000FDF762FC5FF00009DFF830A14A4629005C
:105940005046FDF725FC3000C0B2BDE8F0870000EE
:10595000C032002070B504000D000026FFF745FF9F
:105960002B0022005049444802F088FD4248FDF7D0
:10597000EFFB80B2FFF74FFF0600F6B2002E02D118
:10598000FFF734FB06003000C0B270BDC13200200A
:1059900070B504000D000026FFF727FF2B00220042
:1059A0004249354802F06AFD3348FDF7D1FB80B229
:1059B000FFF731FF0600F6B2002E02D1FFF716FB0B
:1059C00006003000C0B270BD5C32002038B5040063
:1059D0000025FFF70AFF22002E49274802F04EFD5E
:1059E0002548FDF7B5FB80B2FFF715FF0500EDB2C6
:1059F000002D02D1FFF7FAFA05002800C0B232BD2F
:105A000038B504000025FFF7F0FE220022491A48AD
:105A100002F034FD1848FDF79BFB80B2FFF7FBFE58
:105A20000500EDB2002D02D1FFF7E0FA05002800D5
:105A3000C0B232BD10B50024FFF7D7FE1C490E4896
:105A400002F01CFD0C48FDF783FB80B2FFF7E3FE7C
:105A50000400E4B2002C02D1FFF7C8FA04002000D1
:105A6000C0B210BD0CE30008DCE10008C62C002029
:105A7000C0E30008BC3000202008002020000020E7
:105A8000C8300020B82C0020A8300020F8310020B9
:105A9000ECE10008A4DF000894DA00085C32002082
:105AA000B4DA0008A42E0020B8DF0008CCDF00081C
:105AB00018E30008704700005FEA000C830706D077
:105AC00011F8013B00F8013BB3B18307F8D10A6834
:105AD000B2F1013323EA020313F0803F02BF40F822
