:020000040800F2
:10000000600500200D420008DD0D0008DF0D00082E
:1000100000000000000000000000000000000000E0
:10002000000000000000000000000000E90D0008D2
:10003000F30D000800000000FD0D0008130E00087D
:10004000832000089F260008432800086B29000829
:10005000373200087F340008EB360008233C0008E4
:10006000EB3D0008AB3E00085B0E0008430E0008A5
:100070004B4100085B41000800000000FF0D000834
:10008000000000009F410008000000000000000088
:10009000090E0008000000005D4200085F420008F1
:1000A0006142000863420008654200082D0E000806
:1000B000370E000867420008694200086B420008DA
:1000C00010B50400002C01D1012033E0A069002804
:1000D000FFD16920205C002805D1002068216054F0
:1000E000200000F0D9FD02206921605420680068DA
:1000F0000121884321680860200000F0FDFA606A51
:10010000002802D0200000F0C7FC206840680A499F
:10011000014020684160206880682A218843216866
:100120008860206800680121014320680160200088
:1001300000F080FC10BD0000FFB7FFFF10B5040009
:10014000002C01D101201DE00220692160542068AB
:100150000068012188432168086000202168086048
:10016000002021684860002021688860200000F09D
:10017000F0FD0020E0660020692160540020682125
:100180006054002010BDF8B505000C0016001F00DB
:100190006920285C012803D06920285C222863D1CB
:1001A000002C02D0B6B2002E01D101205DE0682003
:1001B000285C012801D1022057E001206821685401
:1001C0000020E8666920285C222803D132206921BA
:1001D000685402E012206921685450202E525220A7
:1001E0002E525220285A002824D05220285A401E2D
:1001F000522168523B0000228021280000F0C4FCFC
:10020000002801D0032030E0A868802149018842FD
:100210000BD12869002808D1009400980088C005F7
:10022000C00D29688862A41CDBE7207829688862F1
:10023000641CD6E73B0000224021280000F0A4FC0B
:10024000002801D0032010E06920285C322803D167
:1002500022206921685402E00120692168540020AD
:1002600068216854002000E00220F2BDF8B582B099
:1002700004000D0016006920205C012804D06920CC
:10028000205C122800D08AE0002D02D0B6B2002EE9
:1002900001D1012084E06820205C012801D10220E6
:1002A0007EE00120682160540020E0666920205C27
:1002B000122803D132206921605402E022206921F2
:1002C0006054582026525A202652A06880214901A5
:1002D00088420AD12069002803D16B485C21605212
:1002E00020E0FF205C2160521CE0A06800280AD1B9
:1002F0002069002803D1FF205C21605212E07F209A
:100300005C2160520EE0A06880214905884209D135
:100310002069002803D17F205C21605202E03F2049
:100320005C2160525C20205A07005A20205A002885
:1003300025D05A20205A401E5A216052029B00228A
:100340002021200000F020FC002801D0032027E01D
:10035000A0688021490188420AD12069002807D17C
:1003600000952068406A384000990880AD1CDCE7A1
:100370002068406A3900014029706D1CD5E769206A
:10038000205C322803D112206921605402E0012050
:1003900069216054002068216054002000E00220A0
:1003A000FEBD10B503006920185C012803D0692048
:1003B000185C122866D1002902D092B2002A01D11D
:1003C000012060E06820185C012801D102205AE079
:1003D000012068241855596558201A525A201A527B
:1003E000986880246401A0420AD11869002803D1CA
:1003F00025485C24185320E0FF205C2418531CE09F
:10040000986800280AD11869002803D1FF205C24CD
:10041000185312E07F205C2418530EE09868802463
:100420006405A04209D11869002803D17F205C240B
:10043000185302E03F205C2418530020D86669203E
:10044000185C122803D132206924185502E02220BA
:1004500069241855186800688024640004431868EB
:1004600004601868806801240443186884600020D0
:10047000682418551868006820240443186804602C
:10048000002000E0022010BDFF01000010B50400B4
:100490002068C069C0070DD520680068C00509D56F
:1004A000012021680862E06E01210143E16601201C
:1004B000692160542068C06980070DD52068806874
:1004C000C00709D5022021680862E06E04210143BB
:1004D000E1660120692160542068C06940070DD59C
:1004E00020688068C00709D5042021680862E06E92
:1004F00002210143E1660120692160542068C0693E
:1005000000070DD520688068C00709D5082021683C
:100510000862E06E08210143E16601206921605410
:10052000E06E002802D0200000F07AFC2068C0694C
:10053000C0020DD520688068400209D580204003A4
:1005400021680862012069216054200000F09CFCB1
:100550002068C069800606D520680068800602D53C
:10056000200000F06DF82068C069000606D52068FC
:100570000068000602D5200000F00CF82068C06971
:10058000400606D520680068400602D5200000F02D
:100590003FF810BD00B501006920085C122803D0A7
:1005A0006920085C322831D15220085A00280DD128
:1005B00008680068802398430B6818600868006822
:1005C0004023034308680360002020E088688023FC
:1005D0005B0198420DD1086900280AD1C86C02005D
:1005E0001088C005C00D0B689862C86C801CC86478
:1005F00005E0C86C431CCB6400780B6898625220FD
:10060000085A401E5223C852002000E0022000BDBC
:1006100010B5040020680068402188432168086004
:100620006920205C322803D122206921605402E035
:10063000012069216054200000F0F1FB002010BD72
:1006400070B504005C20265A6920205C222803D063
:100650006920205C32284AD1A06880214901884263
:100660000CD12069002809D1606D05002068406A1E
:1006700030402880606D801C606507E0606D411C23
:1006800061652168496A32000A4002705A20205A86
:10069000401E5A2160525A20205A002825D1206835
:1006A000C0698006FBD42068006820218843216847
:1006B00008606920205C322803D11220692160542F
:1006C0000EE0206800680B49014020680160206846
:1006D0008068012188432168886001206921605475
:1006E000200000F09BFB002002E0002000E0022040
:1006F00070BD0000FFFEFFFFFEB504000020029069
:100700000025002600272068B7498842FFD0A0684E
:100710002169014360690843E1690143029120684E
:100720000068B249014002980843216808602068C7
:100730004068AF490140E068084321684860A0690B
:1007400002902068A849884203D00298216A014398
:10075000029120688068B3490140029808432168EB
:1007600088602068B049884218D1B0480068800786
:10077000800F002805D0022806D008D3032809D00E
:100780000BE0012005004BE00220050048E00420BA
:10079000050045E00820050042E041E02068A4494A
:1007A000884219D1A14800680C210140002906D0D7
:1007B00004290AD0082905D00C2909D00BE0002013
:1007C00005002DE0022005002AE00420050027E0B6
:1007D0000820050024E023E02068834988421FD1D7
:1007E00092480068C0210901014000290CD08020F6
:1007F000C00081420ED080200001814207D0C0207D
:100800000001814209D00BE00020050008E0022031
:10081000050005E00420050002E008200500FFE7D0
:1008200020687149884268D12800002806D0022833
:100830001CD004283AD0082850D05DE000F04DFFCD
:1008400000F07CFF0022904B00F088FF00900191A7
:10085000606800F073FF02000B000098019901F03E
:100860003FF801F09FF82168C860DAE08748006827
:10087000C0060DD5606800F061FF02000B0000208B
:10088000834901F02DF801F08DF82168C8600CE073
:10089000606800F053FF02000B0000207D4901F06A
:1008A0001FF801F07FF82168C860BAE000F098FEF8
:1008B00000F044FF0022744B00F050FF00900191C3
:1008C000606800F03BFF02000B000098019901F006
:1008D00007F801F067F82168C860A2E0606800F0DE
:1008E0002DFF02000B000020A34900F0F9FF01F0EA
:1008F00059F82168C86094E093E0E069802109021A
:1009000088424AD12800002808D001280FD00228A8
:1009100016D0042824D008282BD031E000F0DDFECA
:1009200002214843616801F054F8070028E000F014
:10093000E3FE02214843616801F04BF807001FE025
:1009400052480068C00605D58C48616801F041F83E
:10095000070004E08A48616801F03BF807000FE0F7
:1009600000F03EFE02214843616801F032F80700C2
:1009700006E080204002616801F02BF80700FFE7E5
:100980008048384006003807000FC0B24008C0B2A7
:100990000643B6B22068C66043E02800002808D0AD
:1009A00001280ED0022814D004282AD0082830D0DC
:1009B00037E000F092FE616801F00BF82168C86032
:1009C0002FE000F099FE616801F003F82168C8602B
:1009D00027E02E480068C0060CD5A248616800F0E8
:1009E000F8FF2168C8600BE000480040F369FFEFA2
:1009F000FFCFFFFF9C48616800F0EBFF2168C860F3
:100A00000FE000F0EDFD616800F0E3FF2168C860D1
:100A100007E080200002616800F0DBFF2168C86009
:100A2000FFE7F7BDFFF4FFFF003801404C10024024
:100A30000044004010B504002068006800070AD593
:100A40008A4B002280218903200000F09DF80028B5
:100A500001D0032017E02068006840070AD5834BC7
:100A600000228021C903200000F08EF8002801D068
:100A7000032008E00020682160540020E066012087
:100A800069216054002010BD000070400010024039
:100A90008084CE418084EE4100B52421415CC907A9
:100AA00007D501684968724A0A40816A11430268A1
:100AB00051602421415C890707D5016849686D4A66
:100AC0000A40C16A1143026851602421415C490710
:100AD00007D501684968684A0A40016B11430268FA
:100AE00051602421415C090707D501684968634AC0
:100AF0000A40416B1143026851602421415CC906E0
:100B000007D5016889685E4A0A40816B1143026813
:100B100091602421415C890607D501688968594A9A
:100B20000A40C16B1143026891602421415C49066F
:100B300014D501684968544A0A40016C114302689F
:100B40005160016C80225203914207D101684968CB
:100B50004E4A0A40416C1143026851602421415CB5
:100B6000090607D501684968494A0A40816C114362
:100B70000268516000BD00000000604100127A0070
:100B80000048E801F0FF0000F4B504000F001D006C
:100B9000002600F075FF06006846007800282FD177
:100BA0002068C0693840B8425AD00020C04385420E
:100BB000F6D0002D04D000F063FF801B8542EFD2F9
:100BC00020680068802188432168086020680068E8
:100BD0002021884321680860206800682D49014071
:100BE000206801602068806801218843216888604E
:100BF000012069216054002068216054032030E006
:100C00002068C0693840B8422AD10020C0438542DC
:100C1000F6D0002D04D000F033FF801B8542EFD2C8
:100C20002068006880218843216808602068006887
:100C30002021884321680860206800681549014028
:100C400020680160206880680121884321688860ED
:100C5000012069216054002068216054032000E0D5
:100C60000020F2BD00093D000024F400F055000012
:100C7000FFFFFDFFFFFFFEFFFFFFFBFFFF7FFFFF0B
:100C8000FFEFFFFFFFDFFFFFFFFFEFFFFFFF9FFF14
:100C9000FFFFF7FFFFFEFFFF10B586B004003E48E0
:100CA000844254D13D480068012101433B48016022
:100CB0003A4800680100C907C90F009100983748F9
:100CC0000068012101433548016034480068010093
:100CD000C907C90F00910098314800688021C901F7
:100CE00001432F4801602E480068012101432C4830
:100CF000016080208000019002200290002003907B
:100D0000042005900320049001A9A020C00500F054
:100D1000BDFE8020C00001900420059001A9A02004
:100D2000C00500F0B3FE8020400101900120039037
:100D30000420059001A9A020C00500F0A7FE002214
:100D400003211B2001F0B9F81B2001F0C0F806B008
:100D500010BD10B50400104884421BD11148006832
:100D60008021C90101430F4801600E4800680E4907
:100D700001400C48016080218900A020C00500F0DE
:100D80006EFF8021C900A020C00500F068FF1B2075
:100D900001F0A4F810BD00004C0900202C10024006
:100DA0003410024024100240FFBFFFFF0068410AD8
:100DB0000800C007C00F70470068410C0800C0075A
:100DC000C00F70474168802292000A43426070471A
:100DD0004168802292020A4342607047704780B5A2
:100DE000002001F097F8FBE780B5002001F092F8B1
:100DF00001BD80B5002001F08DF801BD704780B5C0
:100E00001C4801F09BF801BD80B51B4801F096F825
:100E100001BD80B501F036F901BD704770477047DC
:100E200010B50400200001F0E5FA10BD80B51348AC
:100E3000FFF72CFB01BD80B511480068FFF726FBCA
:100E400001BD80B50F48FFF7B7FF012804D10D4859
:100E5000FFF7BEFF01F026FA01BD80B50948FFF794
:100E6000A5FF012804D10748FFF7ACFF01F044FAC1
:100E700001BD0000D40A00200C0B00204C0900200A
:100E8000740B00200000024070470268531C03608E
:100E900011707047F8B5040000252078C00771D59F
:100EA0009A4800680C210140082909D09748006839
:100EB0000C2101400C290CD194480068C00308D5CE
:100EC0009348006880035DD5606800285AD10120EE
:100ED0009AE2606880214902884207D18C48006804
:100EE0008021490201438A4801602CE06068A0210A
:100EF000C902884214D186480068BD49014084482F
:100F00000160834800688021C90201438048016074
:100F10007F4800688021490201437D48016012E05A
:100F20007B480068B2490140794801607848006810
:100F30008021490208400090009875480068AD493A
:100F4000014073480160606800280DD000F098FDF2
:100F500005006F480068800314D400F091FD401B29
:100F60006528F6D303204FE200F08AFD05006848AB
:100F70000068800306D500F083FD401B6528F6D38A
:100F8000032041E2207880075BD5604800680C218F
:100F90000140042909D05D4800680C2101400C295A
:100FA00016D15A480068C00312D459480068400757
:100FB00004D5E068012801D0012025E2C14800687D
:100FC000C1490140206900020843BE49086038E079
:100FD000E06800281FD04E48006809218843E16876
:100FE00001434B48016000F04BFD05004848006894
:100FF000400706D400F044FD401B0328F6D303202D
:1010000002E2B0480068B04901402069000208438C
:10101000AC49086015E03E48006809218843E16852
:1010200001433B48016000F02BFD05003848006893
:10103000400706D500F024FD401B0328F6D303200B
:10104000E2E12078C00665D5304800680C210140F7
:1010500000291DD12E480068800504D5E0690028CC
:1010600001D10120D0E197480068AF490140606A92
:10107000084394490860934800680002000A216A06
:10108000090601438F480160032001F0F1FA41E0B5
:10109000E069002826D01E480068802149000143ED
:1010A0001B48016000F0ECFC050019480068800551
:1010B00006D400F0E5FC401B0328F6D30320A3E18F
:1010C0008048006898490140606A08437D4908608B
:1010D0007C4800680002000A216A09060143794839
:1010E000016017E00A480068BC49014008480160F7
:1010F00000F0C6FC05000648006880050AD500F02F
:10110000BFFC401B0328F6D303207DE10C100240F6
:1011100000100240207800072AD56069002813D00B
:10112000BA48006801210143B848016000F0A8FCFA
:101130000500B648006880071AD400F0A1FC401BE7
:101140000328F6D303205FE1B048006801218843FB
:10115000AE49086000F094FC0500AC4800688007C8
:1011600006D500F08DFC401B0328F6D303204BE18D
:101170002078800640D5A06900281FD0A4480068C8
:1011800001210143A2480160A248006801210143F6
:10119000A0480160A0480068A04901439E48016042
:1011A00000F06EFC05009A480068800724D400F027
:1011B00067FC401B0328F6D3032025E19448006810
:1011C000012188439249086093480068944901408E
:1011D0009148016000F054FC05008D4800688007CC
:1011E0000AD500F04DFC401B0328F6D303200BE189
:1011F000FFFFFEFFFFFFFBFF2078400700D4A7E0C2
:101200000027002687480068C00008D48548006889
:10121000802149050143834801600120070082487D
:101220000068C00516D48048006880214900014349
:101230007D4801600120060000F022FC05007A488C
:101240000068C00506D400F01BFC401B6528F6D3DF
:101250000320D9E0A06880214900884207D16B486B
:101260000068802149000143684801603AE0A068B5
:1012700000280CD165480068584901406348016066
:101280006248006869490140604801602AE0A0683E
:10129000A021C900884219D15C4800684F4901402B
:1012A0005A480160594800688021C90001435748E5
:1012B000016056480068802149000143534801609D
:1012C00010E000BF04100240FFE0FFFF4F4800683D
:1012D000424901404D4801604C4800685349014073
:1012E0004A480160A06800280ED000F0C9FB050044
:1012F00046480068800519D400F0C2FB401B4C49E9
:101300008842F5D303207FE000F0BAFB05003F4898
:10131000006880050AD500F0B3FB401B44498842B1
:10132000F5D3032070E000BFFF1FFFFFF6B2012ED0
:1013300005D13D480068294901403B480160FFB2A2
:10134000012F05D1374800689F49014035480160A9
:10135000A06A002857D09D4800680C2101400C2944
:101360004FD0A06A022834D19B48006898490140B8
:101370009948016000F084FB0500974800688001EF
:1013800006D500F07DFB401B0328F6D303203BE08D
:101390008E4800688F490140206B0843616B014310
:1013A000E06A0843894908608B4800688021490445
:1013B00001438948016000F063FB0500864800682E
:1013C000800120D400F05CFB401B0328F6D30320EF
:1013D0001AE0814800687E4902E000BFFFFEFFFF7F
:1013E00001407D48016000F04BFB05007A48006831
:1013F000800108D500F044FB401B0328F6D30320EE
:1014000002E0012000E00020F2BD00005010024088
:10141000081002403410024020000140012000006A
:10142000FEDFFFFF3810024000700040FFFBFFFFAF
:101430008913000070B505000C000026674800689D
:101440000100C907C90FA1420FD2644800680121F9
:101450008843204361490860604800680100C9076B
:10146000C90FA14201D00120ACE02878800707D540
:1014700056480068F0218843A96801435348016039
:101480002878C0076CD56868022805D152480068E2
:10149000800319D4012095E06868002805D14E48E2
:1014A0000068800510D401208CE06868032805D10D
:1014B00049480068800107D4012083E0464800685D
:1014C000400701D401207DE04048006803218843A3
:1014D000696801433D48016000F0D2FA060068687F
:1014E00002280DD1394800680C210140082937D065
:1014F00000F0C6FA801B7F498842F3D3032061E0E5
:10150000686803280DD1314800680C2101400C297E
:1015100026D000F0B5FA801B76498842F3D3032029
:1015200050E0686800280DD1284800680C2101406F
:10153000002915D000F0A4FA801B6E498842F3D32D
:1015400003203FE0214800680C210140042907D016
:1015500000F096FA801B67498842F3D3032031E0FC
:101560001E4800680100C907C90FA1420FD31B48DC
:101570000068012188432043184908601748006823
:101580000100C907C90FA14201D001201AE0287843
:10159000400707D50D4800685D490140E8680843E9
:1015A0000A4908602878000708D5084800685949A2
:1015B00001402869C000084304490860032001F085
:1015C00057F8002070BD0000FFFFFFEF0C10024035
:1015D000FFFFFFFEFFFF02FF00100240002002405D
:1015E000F8B50024002500200090002600274C4874
:1015F0000068400B4007400F0600474800680C2178
:101600000140002906D004290DD0082915D00C2945
:1016100016D048E001203100491C88408021090291
:101620004843070047E03D480068C00602D53D48F2
:10163000070001E03C4807003DE03C4807003AE075
:1016400035480068F021890301400C0032480068E9
:10165000C021090401400D003548A10C445CAD0DCA
:101660006D1C2D48006880214902084000900098B8
:10167000002811D129480068C00606D529486043D2
:10168000290000F0A6F907000CE027486043290074
:1016900000F09FF9070005E024486043290000F0AE
:1016A00098F9070007E001203100491C884080219B
:1016B0000902484307003800F2BD80B5FFF790FFEC
:1016C0001C49154A126812091207120F895CC8409A
:1016D000194908601848006802BD80B5FFF7EDFFA2
:1016E00014490D4A1268120A5207520F895CC84009
:1016F00002BD00008913000080B5FFF7DEFF0D4931
:10170000054A1268D20A5207520F895CC84002BDCE
:10171000FFF8FFFFFFC7FFFF0C1002400010024060
:101720000410024000093D000024F40000127A0079
:1017300034420008FC41000804000020010000BF02
:1017400042221201D21E004207D002D4521E0018BB
:10175000FCD5C10A4005120589187047F0B50E0086
:101760005E400125ED072E40B446AE0ADF184C1846
:10177000F44208D2F7420ED2640D01D07F0D12D18F
:1017800000206146F0BD05D1F74201D87F0D05D19B
:101790000020C143F0BDFBD1640DF9D00020C1434E
:1017A000490549088FE0E419C902DB0229432B43AC
:1017B000DB0A460DC00231438E4630B487B295B283
:1017C0007D432E0CADB2140C7C43A419260C2404CA
:1017D00025439CB27C43A419190C7943270CC919E1
:1017E000A4B20F043C43090C000C97B247432E0CE3
:1017F000BE193543ADB2170C4743360CBF19A6B21C
:10180000BF193E043543240C3E0C36199FB24743A2
:10181000BF19BCB23E0C89191F0C47437F183E0408
:101820003443390C704680B297B247432E0CBE1930
:101830003543ADB2170C4743360CBF19A6B2BF19DA
:101840003E043543240C3E0C36199FB24743BF1962
:10185000BCB23E0C89191F0C47437F183E04344329
:10186000390C77463F0C90B278432E0C8019060451
:10187000ADB22E43050CA0B22D18120C7A435019AC
:10188000020C80B2240CA4189AB27A4312191404E0
:101890002043120C89181B0C7B43C91830BCEF0A7B
:1018A000394203D1B61940414941641E6F12BF0D40
:1018B000E41B0BDBFF19BC4211DA240500274208A8
:1018C000AE417841614166463143F0BD641C05D1AB
:1018D000401C6141CF0201D34908F4E750E75DE7BE
:1018E000F0B40E005E400125ED072E40B446AE0A6E
:1018F000DF184C18F4423BD2F74241D2640D43D07A
:101900007F0D38D0E41BC902DB0229432B43CF0AE9
:10191000DB0A0600B61A9F4104D2641EB6197F4145
:10192000B6185F416812800D24180018844222DA2C
:10193000E80C0021B6197F41B61A9F4102D2B618B1
:101940005F413F1C40414941F4D3241C21DD240563
:10195000B6197F41B61A9F4105D33743C6073743AF
:101960000026012F7041614166463143F0BC70474B
:10197000FCD1F74205D20020C14349054908F3E7ED
:1019800004D00020C143F1E77F0DFAD0002061466A
:10199000ECE72442FAD1401C61410F03F6D300204A
:1019A000E2E720004A1812D2400DC9020843012183
:1019B000C9070843520D40210901521A521C06D48E
:1019C00052421F3201D4D0407047C01770470020E8
:1019D00070470022030A8B420BD203098B4219D2B3
:1019E00043088B422ED2411A00D201465241104682
:1019F0007047FF2209023FD012068B4205D3121214
:101A000009028B4201D31212090203098B4219D336
:101A100000E0090AC3098B4201D3CB01C01A52412D
:101A200083098B4201D38B01C01A524143098B4277
:101A300001D34B01C01A524103098B4201D30B0160
:101A4000C01A5241C3088B4201D3CB00C01A524185
:101A500083088B4201D38B00C01A524143088B424A
:101A600001D34B00C01A5241884200D3401A524160
:101A7000CFD201461046704708B500F00BFE08BDF6
:101A800001480068704700BF700B0020F0B50200ED
:101A90000023002400250868D840002800D1DDE09C
:101AA000086801269E4006403400002C00D1D3E097
:101AB0004868022802D0486812281BD1D80804269A
:101AC00070431018006A05000F201E007607760F7D
:101AD00004277E43B040854308691E007607760FD1
:101AE00004277E43B04028430500D80804267043ED
:101AF000101805624868012808D04868022805D0F7
:101B00004868112802D0486812281CD19068050046
:101B100003201E0002277E43B0408543C8681E0094
:101B200002277E43B04028430500956050680500B9
:101B300001209840854348680600F606F60F9E404F
:101B40002E43350055601068050003201E00022753
:101B50007E43B040854308798007800F1E0002272E
:101B60007E43B040284305001560D068050003207F
:101B70001E0002277E43B040854388681E0002276E
:101B80007E43B04028430500D5604868C00063D557
:101B90008B480068012606438948066089489E08EC
:101BA00004277E43805905000F201E00B607B60F9C
:101BB00004277E43B0408543A020C005824201D166
:101BC000002014E08048824201D101200FE07F48CC
:101BD000824201D102200AE07D48824201D10320E5
:101BE00005E07C48824201D1052000E006201E006D
:101BF000B607B60F04277E43B0402843050071485E
:101C00009E0804277E438551734800680500A5435C
:101C10004868C00300D525436F4805606F480068D9
:101C20000500A5434868800300D525436B4805603F
:101C30006B4800680500A5434868C00200D52543ED
:101C400067480560674800680500A543486880024A
:101C500000D52543634805605B1C1CE7F0BDF8B563
:101C60000022002300240D00D540002D00D19CE06F
:101C7000012595400D402B00002B00D193E0066814
:101C80000327BC46150002277D436746AF40BE438D
:101C90000660D5080426754345190095D508042625
:101CA000754345192F6A0F25AC4615006E07760F50
:101CB00004256E436546B540AF43009D2F6286689C
:101CC0000327BC46150002277D436746AF40BE434D
:101CD0008660456801269640B5434560C66803277F
:101CE000BC46150002277D436746AF40BE43C66031
:101CF000344D960804277E43AD592C000F2516005D
:101D0000B607B60F04277E43B54025402C00A0251A
:101D1000ED05A84201D1002514E02B4DA84201D1C8
:101D200001250FE0294DA84201D102250AE0284DE6
:101D3000A84201D1032505E0264DA84201D1052581
:101D400000E006251600B607B60F04277E43B5400F
:101D5000AC4228D10F251600B607B60F04277E43E4
:101D6000B5402C00174D960804277E43AE59A64374
:101D7000144FBC46950804277D4367467E51164D97
:101D80002D689D43144E3560144D2D689D43134EB0
:101D90003560134D2D689D43114E3560114D2D68F2
:101DA0009D43104E3560521C5DE7F1BD00B5D2B2C7
:101DB000002A02D089B2816101E089B2816200BD4E
:101DC0003410024008000140000400500008005098
:101DD000000C0050001C00500004014004040140AD
:101DE000080401400C0401400121C206D20E9140BA
:101DF000414A116070470121C206D20E91403F4A0C
:101E000011607047F0B540B2002821D53C4C40B27B
:101E10000207120F083A950804225543384A40B287
:101E200003071B0F083B9B0804267343D258FF236C
:101E30008607B60F08277E43B3409A438B01DBB277
:101E40008607B60F08277E43B340134363511AE059
:101E50002C4A40B2830804246343D258FF238407EA
:101E6000A40F08256C43A3409A438B01DBB284077F
:101E7000A40F08256C43A3401343224A40B28408B0
:101E800004256C431351F0BD10B50400601E802181
:101E90004904884201D301200EE0601E1A490860FF
:101EA00003210020C043FFF7ADFF00201749086061
:101EB000072017490860002010BD70B504000D0010
:101EC00016002900200040B2FFF79CFF70BD10B53E
:101ED0000400200040B2FFF787FF10BD10B50400DA
:101EE000200040B2FFF787FF10BD10B504002000AE
:101EF000FFF7CAFF10BD000000E100E080E100E054
:101F00001CED00E000E400E014E000E018E000E078
:101F100010E000E010B5040001220648E4B20221FE
:101F20006143415A0448E4B204236343C058FFF7B5
:101F30003DFF10BDA21900080000002010B50400EC
:101F40002068006980071BD52068C068800717D506
:101F50000220C04321680861012020752068806943
:101F60008007800F002803D0200000F094FB05E0DC
:101F7000200000F091FB200000F08FFB0020207576
:101F80002068006940071CD52068C068400718D544
:101F90000420C04321680861022020752068806900
:101FA000C02189000140002903D0200000F073FB0C
:101FB00005E0200000F070FB200000F06EFB002028
:101FC00020752068006900071BD52068C0680007DD
:101FD00017D50820C04321680861042020752068B7
:101FE000C0698007800F002803D0200000F053FB59
:101FF00005E0200000F050FB200000F04EFB002028
:10200000207520680069C0061CD52068C068C0061D
:1020100018D51020C0432168086108202075206869
:10202000C069C02189000140002903D0200000F0D0
:1020300032FB05E0200000F02FFB200000F02DFB1C
:102040000020207520680069C0070AD52068C06894
:10205000C00706D50120C043216808612000FEF7B3
:10206000DCFE2068006940060AD52068C06840068A
:1020700006D54020C04321680861200000F00EFB17
:1020800010BDFEE702480068401C01490860704727
:10209000700B0020B54A5218521E1278821812682E
:1020A00001231343B14A5218521E1278821813604A
:1020B000704710B4AD4B5B185B1E1B78C318AB4C5C
:1020C0006418641E247804196468240C24041443DE
:1020D0005C6010BC704730B5039C102C18D1A34D28
:1020E0006D186D1E2D784519ED68A04D6D186D1E8B
:1020F0002D784519EA609D4D6D186D1E2D78451996
:10210000AD689A4D6D186D1E2D784519AB6017E0BE
:10211000964D6D186D1E2D784519AD68934D6D184F
:102120006D1E2D784519AA60904D6D186D1E2D7885
:102130004519ED688D4D6D186D1E2D784519EB60B4
:1021400030BD8A4A5218521E127882181268022331
:102150001343864A5218521E127882181360704731
:1021600038B58348006801210143814801608048F7
:1021700000680100C907C90F0091009804207D493B
:10218000486000207B49886000207A49C8600020B0
:1021900078490861002077494861002075498861C5
:1021A00020207449C8618020400172490862724849
:1021B000704908606F4800F073FA002801D000F001
:1021C00029F9002200210B20FFF777FE0B20FFF7F3
:1021D0007EFE6A4D6A4C0020009023002A000521F3
:1021E0006C48FFF778FF012205216A48FFF761FF7D
:1021F00005216848FFF7A5FF05216648FFF74AFF5C
:102200005B48006801210143594801605848006853
:102210000100C907C90F009100980320594948607F
:1022200000205849886000205649C8600020554960
:1022300008610020534948610020524988612020EC
:102240005049C861802040014E4908624E484D49BE
:1022500008604C4800F024FA002801D000F0DAF8B9
:10226000002200210A20FFF728FE0A20FFF72FFE98
:1022700046480500464804000020009023002A003C
:1022800003214448FFF727FF012203214148FFF7BC
:1022900010FF03213F48FFF754FF03213D48FFF79C
:1022A000F9FE31BD00B501203F49087000203A49D0
:1022B000C86633483849C86401203849088001207D
:1022C0003749088037480078222803D13220354921
:1022D000087002E01220334908700020324908706B
:1022E0002D4800680068802101432B480068016088
:1022F00000202D49087000BD00B50120394909684A
:1023000068228854002037490968C8662048354942
:102310000968C864012033490968502288520120A5
:1023200030490968522288522E4800686921405C71
:10233000222805D132202B4909686922885404E0FB
:102340001220284909686922885400202549096813
:10235000682288542348006800680068802101438F
:10236000204800680068016000BD00004C42000881
:10237000301002405C0A0020580002402444004013
:102380007D0B0020980A00203000024024380140D4
:10239000AE070020000002404C0900209C090020EC
:1023A0009E090020B5090020B409002080B5002254
:1023B00080214901A020C005FFF7F8FC01220B494C
:1023C0000B48FDF7EEFF002809D1074800F02EFA70
:1023D0000549802252010243100000F033FA01BD8A
:1023E00000000000740B00205C0B0020AE070020F2
:1023F0004C09002010B5040000F011F810BD70B5B4
:1024000001240025384E2A002100300000F024FA73
:1024100070BD000080B50020FFF77CFD01BD80B5D8
:102420000020FFF777FD01BD10B504002D480078AE
:10243000C0B200090100C907C90F00290AD1294803
:102440000078C0B280090100C907C90F002901D175
:10245000052045E0274800F0E9F90100C905C90F4A
:10246000002907D1234800F0E1F901000906C90F4E
:10247000002901D0102033E01E4800F0D7F90200F7
:102480001C4980200001104300F0DCF9A4B2002CAC
:1024900004D1164800F008FA1F2021E0FA239B001F
:1024A000220092B210491248FDF76DFE002803D0B9
:1024B000FFF7B5FF0F2013E00E4800F0B7F9020058
:1024C0000C490D48104000F0BDF90A4800F0AEF983
:1024D0000100C904C90F002901D1FFF767FF0020DF
:1024E00010BD0000440B00207C0B002004410008BC
:1024F0004C0900205C0B0020FFF7FFFF70B50600C1
:102500000D000024FFF77BFF2B00320053490E48DB
:1025100000F0DCF90C4800F0F5F9FA239B0002000A
:1025200092B209494E48FDF72EFE002803D0FFF76E
:1025300076FF0F2005E0082000F064F8040020007A
:10254000C0B270BD000000007C0B0020F0B593B05D
:102550000025022640200290002703AC3A00029991
:10256000200000F079F90024FFF749FF3DA16846FB
:1025700000F0D0F93BA1684600F0D4F9694636482E
:1025800000F0A4F9344800F0BDF980B2FFF74CFF29
:102590000500EDB2002D31D133480078012809D073
:1025A000A4B2FA208000844204DA641C0A2000F0FD
:1025B000C7F9F1E7A4B2FA20800084421CDA96231E
:1025C0005B00182203A92648FDF750FE0600F6B26C
:1025D000002E06D0F6B2032E03D0FFF720FF0F2007
:1025E0000EE022A103A800F0B8F9002801D10D20C7
:1025F00006E00020050001E00F2001E02800C0B245
:1026000013B0F0BDF0B591B00500402600276C4630
:102610003A003100200000F01FF90024ADB2412D36
:1026200015DAFA239B002A0092B269460C48FDF79E
:102630001DFE002803D0FFF7F2FE0F2009E00BA1DA
:10264000684600F08AF9002801D10D2001E0200041
:10265000C0B211B0F0BD00007C0B0020D8410008D2
:102660004C09002041540D00B50900204F4B0000DB
:1026700010B50400FFF721F8FA218900FFF7A9F946
:10268000FFF733FC002221000020C043FFF715FCB8
:10269000002010BD70477047704770477047FEE7D5
:1026A00000B501000022002901D10120A0E0252071
:1026B000085C002802D100202423C85402202523CE
:1026C000C85408680068020010004A4A024010001E
:1026D0008A68CB6813430A691A434B6913438A69B2
:1026E0001A43CB6913430A6A1A430243086802601B
:1026F0000868414B98420CD1404800680F2398432A
:102700003E4B18603D4800684B6803433B480360FC
:102710006AE008683A4B98420DD138480068F023C7
:102720009843364B1860354800684B681B010343DB
:102730003248036058E00868324B98420DD12F4868
:102740000068314B03402D4803602C4800684B68FB
:102750001B0203432948036046E008682B4B98425C
:102760000DD1264800682A4B0340244803602348C3
:1027700000684B681B0303432048036034E008688B
:10278000244B98420DD11D480068234B03401B4841
:1027900003601A4800684B681B0403431748036032
:1027A00022E008681D4B98420DD1144800681C4B6C
:1027B000034012480360114800684B681B0503433F
:1027C0000E48036010E00868164B98420CD10B4885
:1027D0000068154B034009480360084800684B68CF
:1027E0001B0603430548036001202523C85400202D
:1027F00000BD00000FC0FFFF08000240A80002401B
:102800001C00024030000240FFF0FFFF4400024085
:10281000FF0FFFFF58000240FFFFF0FF6C00024077
:10282000FFFF0FFF80000240FFFFFFF0C3788278B8
:10283000417800781B021A4309021204084310432E
:102840007047FEE784460870000A4870000A8870E6
:10285000000AC870604670471206130A1A43130C28
:102860001A4300BF094205D0830705D00270401CFF
:10287000491EF9D170470000130030B41400150050
:10288000103902D310393CC0FCD2490700D30CC028
:1028900000D504C0890002D30280801C002900D525
:1028A000027030BC704700000EB400B582B003A9BE
:1028B00000916B4602000121034878440A3000F081
:1028C00055F8029906B00847C11800000CB41CB5B1
:1028D000040004A80190009401AB0A00694608486E
:1028E00078441C3000F042F80021009A1170002852
:1028F00001D40098001B02B0019910BC03B0084736
:102900008BE5FFFF010000E0491C0A78002AFBD19B
:10291000081A7047002300E05B1CCA5C002AC254FE
:10292000FAD17047020000E0521C1378002BFBD153
:102930000B781370002B02D0521C491CF8E770472B
:1029400011B581B00024FFF79BF80400FFF798F859
:10295000001B01998842F9D313BD38B505000C005E
:102960002100280000F022FC32BDFEE7F9B595B049
:1029700014004A487844FF3025300CC813A80CC016
:10298000099108AD0020E86101E0009824180020BA
:102990006946C88013AB0022D243210001A8801CE5
:1029A00000F020FC0090012805DA2078411E8941C2
:1029B000C943C90F00916846C0882528009F00D1EF
:1029C0007F1E012F0EDB260031780998159A90475B
:1029D0000990002800D1ECE0E869401CE861761C11
:1029E0007F1EF1D16846C088252804D100202861C7
:1029F0006861A86108E06846C0880028C5D1E86918
:102A0000D9E0010001200843641C21782029F8D076
:102A100023290ED02B2904D02D2907D030290BD003
:102A20000DE001000220084380B2EDE70100042020
:102A3000F9E701000820F6E701001020F3E72A2952
:102A400012D116990968169A11600A68091D169B19
:102A500019606A62002A05D55142696201000420AA
:102A6000084380B2641C12E0002169620AE06A6ACD
:102A70000B4B9A4205D093009A18520051183039E6
:102A80006962641C21780A00303A0A2AEFD321785F
:102A90002E2907D00021C943296225E0B81700007C
:102AA000FFFFFF7F641C21782A290AD11699096843
:102AB000169A11600A68091D169B19602A62641C27
:102AC00012E0002129620AE02A6AC34B9A4205D02B
:102AD00093009A185200511830392962641C2178E9
:102AE0000A00303A0A2AEFD328852678310000BF41
:102AF000BAA000F085FB002801D0641C00E000268D
:102B00002A202E54285C682806D12078682803D112
:102B100062202A216854641C02A8E8602678641C9C
:102B2000252E15D0582E55D0632E00D1B3E0642E3B
:102B300000D18EE0692E00D18BE06F2E4AD0702E2E
:102B40003BD0732E0AD0752E44D0782E42D0CAE0E6
:102B500001202861252069460872CFE02A20285CE0
:102B60006C28169800681699086017D00668001D32
:102B700016990860AE602F6A002F03D53000FFF76A
:102B8000C1FE09E03A000021300000F043FB0028BC
:102B900001D0801B00E038006861AFE00268001DD2
:102BA0001699086008A9159800F042F9002800D489
:102BB000A4E00020C04317B0F0BD16980068169935
:102BC00008600168001D169A1060089102A8A860AC
:102BD00078215CE02A20285C6C2801D1169810E04E
:102BE000712801D1169802E06A28169809D1026866
:102BF000D21D072082431698026003CA169B1A60F2
:102C000005E0016801600868091D169A11600890C6
:102C10002A20285C682802D1089880B203E0622844
:102C200002D10898C0B208902820285C000729D556
:102C30000898002826D020203043782822D12869FF
:102C4000302102AA1154401C411C296102A90E54D2
:102C500018E016992A20285C00F0C4F80890002893
:102C600002D528692D2109E0288D810702D5286920
:102C70002B2103E0C00705D52869202102AA1154A1
:102C8000401C286102A829694018A860310008A8E2
:102C900000F0F8F932E02A20285C6C280CD00120E2
:102CA000286116980068169908600168001D169A38
:102CB00010606846017221E0169800681699086055
:102CC0000168001D169A1060684601800020694660
:102CD0004880C04328626A4608A9159800F0A8F801
:102CE00000280BD565E70120286125206946087278
:102CF000300003D00220286102A84670686A296962
:102D0000401AA969401A6969401A00902820285C75
:102D1000400711D4202069460871009801280BDB78
:102D2000009E012301AA08A9159800F027FA00289F
:102D300000D03EE7761EF4D12F6902AE002F0DD0F1
:102D400031780998159A90470990002800D130E70A
:102D5000E869401CE861761C7F1EF1D1302069468D
:102D60000871AE69012E0ADB012301AA08A9159892
:102D700000F004FA002800D01BE7761EF4D1AE68FC
:102D80006F69002F0DD031780998159A90470990F6
:102D9000002800D10DE7E869401CE861761C7F1E21
:102DA000F1D12820285C400700D4F0E520206946B6
:102DB00008710098012800DAE9E5009E012301AAC4
:102DC00008A9159800F0DAF9002800D0F1E6761E7F
:102DD00000D1DCE5F2E700BFFFFFFF7F686C747A8B
:102DE0004C000000622815D068280CD06C2818D040
:102DF000742816D07A2814D10A680A601068121D47
:102E00000A60002170470A680A601068121D0A6093
:102E100000B20BE00A680A601068121D0A6040B236
:102E200004E00A680A601068121D0A60C117704742
:102E3000F4B59AB007000C00206A002800D58E482F
:102E4000039000F0F3F9616A081806908BA003C89C
:102E500007AA03C22820205C400702D40698412814
:102E600006D209A8029040200690002005900EE0AE
:102E700000F0E2F902900028F7D10020C043F8E00A
:102E80001A98801C1A9003980199401A039003988D
:102E9000012800DA93E007AA1A98018800A8401CCC
:102EA00000F026FA0190002800D59FE01A980088CB
:102EB000002804D10198401E019000D596E00398A7
:102EC000019988427BDB20690699019A8218914218
:102ED00064D2002161624142A069081A6169401A06
:102EE00004902820205C400710D4202069460870F8
:102EF000049801280ADB049D01236A46210038005A
:102F000000F03CF9002871D16D1EF5D12669029DB3
:102F1000002E0BD029786068B8476060002865D023
:102F2000E069401CE0616D1C761EF3D130206946DB
:102F30000870A569012D09DB01236A4621003800CC
:102F400000F01CF9002851D16D1EF5D1A568666905
:102F5000002E0BD029786068B8476060002845D003
:102F6000E069401CE0616D1C761EF3D12820205CD6
:102F7000400710D5202069460870049801280ADB14
:102F8000049D01236A462100380000F0F7F800286C
:102F90002CD16D1EF5D1002005902061019A00A969
:102FA000491C02982369C01800F0AEF92069019904
:102FB000401820611A980088002800D060E7059822
:102FC00000284FD1606A2169401AA169401A6169DD
:102FD000461A2820205C400711D4012E0FDB350053
:102FE00020216068B8476060002803D10020C043FA
:102FF000059037E0E069401CE0616D1EF0D1236967
:10300000029A2100380000F0B9F80028EED1A56935
:10301000012D0ADB30216068B84760600028E5D0E8
:10302000E069401CE0616D1EF4D16369A268210073
:10303000380000F0A3F80028D8D12820205C4007F1
:103040000DD5012E0BDB350020216068B84760608C
:103050000028CBD0E069401CE0616D1EF4D1002057
:1030600020616062029809A9884201D000F07AF9D3
:1030700005981BB0F0BD0000FFFFFF7F00000000BF
:1030800000000000F2B582B00400E06800906846DD
:10309000007A6F2801D1082506E020220243782A11
:1030A00001D00A2500E01025182721680E006428A9
:1030B00001D0692803D1002901D570420600002EF5
:1030C0000DD1206A00280AD1082D31D12820205C9A
:1030D00000072DD5172730200099C87528E07F1EDE
:1030E000019730002900FEF774FC3031C9B23A294B
:1030F00003DB6846007A513809180098C155300042
:103100002900FEF766FC060004D0A0680099C919E2
:103110008842E4D3082D0BD12820205C000707D576
:103120000098C05D302803D07F1E30200099C8551C
:103130001820C01B60610099C919A160216A8842EA
:1031400006DA081AA061208D0B490140218510E0A4
:1031500000290ED52821615C14220A40102A08D1CA
:10316000616A2269891AA269891A0F1A012F00DB84
:10317000A76103B0F0BD0000EFFF0000F1B50E0045
:1031800014000027002B0FD01D0021787068009AD2
:1031900090477060002806D0F069401CF061641C04
:1031A0006D1E01D0F1E7FF433800F2BD70B40A781C
:1031B000130008D114E05B1C1E78A6420AD001E07F
:1031C000002C0CD0401C04789442F9D1002806D081
:1031D00003000D006D1C2C782600ECD100E00020CF
:1031E00070BC7047F8B504000F0015001E0000F019
:1031F000FDF833002A003900200000F00BF9F2BD81
:10320000C9B200E0401C02788A4202D0002AF9D1FB
:1032100000207047C9B201E0401C521E002A03D0B2
:1032200003788B42F8D170470020704780B500F0DA
:10323000DDF8012002BDFEE770B505002C000F345B
:1032400007208443C046C046A54233D2082C04D28E
:10325000082402E0083000F085F8244802681100D4
:103260000CD1011D0A68002A20D01368A34212D293
:10327000111DF7E71D68A5420DD2191D0B68002B23
:10328000F8D11268011D00E0191D0B6893420DD0A2
:103290001D68A542F8D300290CD00D682A681300D8
:1032A000083BA3420AD26A680A600FE000F0D0F837
:1032B0000028CFD1C046C046002070BD2B190B603E
:1032C0006E685E60121B0B681A602C60096800292A
:1032D00004D04A68002A01D0091D00E000210160E5
:1032E000C046C0462800083070BD0000680B0020B2
:1032F00070B504000D00160000F078F832002900C7
:10330000200000F07DF870BD124207D08B0706D078
:103310000B78491C0370401C521EF7D87047830776
:1033200006D00B78491C0370401C521EF9D170471F
:1033300070B4103A03D378C9103A78C0FBD253075F
:1033400001D318C918C001D508C908C0D20704D3D1
:103350000B880380891C801C002A01D50B78037020
:1033600070BC7047002800D1704738B50838040099
:103370002068082836D3400734D1C046C0461A48D2
:103380004168002901D08C4203D26160446019E099
:1033900019004B68002B01D0A342F9D30B68CD185C
:1033A000AC421DD3A54204D122689A180A600C00D1
:1033B00008E04A68002A03D02368E3189A420FD332
:1033C00062604C60616800290AD02268A3188B42B1
:1033D00006D1002303600868101820604868606008
:1033E000C046C04631BD0000680B002080B50348D0
:1033F00000F044F8806902BD00000000F4000020E5
:10340000002804D10EA003C803C200207047017039
:1034100001207047002904D10BA003C803C300207A
:103420007047002A02D10120C0437047002801D014
:103430000A7802800978481E8041C043C00F704757
:10344000000000000000000000000000000000007C
:1034500007490868002801D0002070470548072266
:103460009043086004499143091A0160704700BF06
:10347000780B002067050020600700207047FEE7FA
:1034800010B582B000247D480068012101437B48CB
:1034900001607A4800680100C907C90F00910098CF
:1034A00000F00CF900F039F800F098F8E121490239
:1034B000734800F06EF8724800F018F97148FFF791
:1034C000F3F97148FFF7F0F97048FFF7EDF970482C
:1034D000FFF7EAF96F48FFF7E7F96B48FFF7E4F900
:1034E0006D48FFF7E1F96D48FFF7DEF9E120400292
:1034F00000F058F90400E4B2002C02D1FEF730FECF
:1035000002E06748FFF7D0F9FA20C000FFF718FA89
:103510006448FFF7C9F900BFFDE700B593B0624802
:1035200000688021490501435F4801605F480068E9
:103530005F4901408020000108435C490860022087
:103540000590012008901020099002200F90002083
:1035500010908020C00211908020C003129005A816
:10356000FDF798FC0F2000900120019000200290B0
:103570008020C00003900020049001216846FDF7E0
:1035800059FF4C480068012101434A48016013B0CB
:1035900000BD38B505000C00474828606C6000206D
:1035A000A8600020E860002028610020A8610C20AD
:1035B00068612800FCF7C2FD002801D0FEF72AFF51
:1035C0002800FCF77DFD002801D0FEF723FF2868C6
:1035D0008068402101432868816031BD00B587B013
:1035E00026480068012101432448016023480068FF
:1035F0000100C907C90F0091009820480068012107
:1036000001431E4801601D4800680100C907C90F39
:1036100000910098244800688021890201432248D3
:103620000160244800680121014322480160042010
:1036300001900220029001200390032004900420B6
:10364000059001A9A020C005FEF720FA08200190EE
:1036500000200290022002900420059001A9A020E1
:10366000C005FEF713FA012200211C20FEF725FCFD
:103670001C20FEF72CFC07B000BD00002C100240FF
:10368000DC080020AC3E00082C3F0008683F000822
:10369000A43F0008E03F0008EC3E0008B0410008ED
:1036A00094400008C44100083810024000700040F7
:1036B000FFE7FFFF341002400044004080B5094896
:1036C0000068402101430748016006480068022164
:1036D0008843044908600320FEF7CAFF00F004F89D
:1036E000002002BD002002407047FEE7014908604B
:1036F000704700BF740B002010B5040045484649D0
:1037000008604548446000204349886000204249E1
:10371000C86000204049086100203F4988610C20B2
:103720003D49486100203C49C8613B48FCF706FD23
:10373000002801D0FEF76EFE3748FCF7C1FC0028D8
:1037400001D0FEF767FE34480068806840210143DD
:1037500031480068816010BD10B586B0002468460D
:103760002F491822FFF7E4FD6846E4B204216143C3
:10377000405800280FD06846E4B204216143405805
:10378000FFF7BAFF0A20FFF7DBF8FEF7DFFE00289D
:1037900001D0641CE8E76846E4B204214C430059B8
:1037A00006B010BD70B504001E480078102101431A
:1037B0001C480170FFF7D0FF0600002E26D0210024
:1037C0001948FEF79BFE0500FEF719FE174913483E
:1037D000FFF77CF81148FFF795F880B2FEF724FE5A
:1037E0000500FEF70CFE12490C48FFF76FF80B4876
:1037F000FFF788F880B2FEF717FE0500EDB2002D46
:1038000002D12000FFF778FF002002E0FEF702FE61
:10381000012070BD003801404C0900207C0B0020C5
:1038200070410008440B0020EC4100081C420008D5
:1038300028420008F8B505000E001400287880071B
:103840003AD0280000F0A0F8002835D1002E02D090
:1038500003CE083E24180098012834D12888C004DB
:1038600016D52A003D32A969280000F0ADF80700FE
:103870006A6A002A00D12A69E968280000F0A4F8E1
:10388000E11B0C1AAA6AE968280000F09DF8241AC6
:10389000002C06D1009800280AD10020C0438442A1
:1038A0000AD0009A21000320285600F093F8040063
:1038B0000020C043844209D100F0B2F82321016006
:1038C0000020C043F2BD0228E4D1EAE72888C021E5
:1038D000890108420ED06868E8602861A8626861C2
:1038E0006868E86228003D30A86128002430E8615B
:1038F00000206862002E05D03000083003C82A007E
:10390000303203C228880249014029800020F2BDDC
:10391000FFCE000070B500F08BF804002088800412
:103920002DD565680026F64308E04A1B290000F003
:103930008FF8B0420DD000280BD02D180320205650
:10394000E1688D42F1D30022002100F081F8B042FD
:103950000DD16068E0606061E062208880218900AC
:1039600001432180200000F064F8300070BD6568DC
:10397000E5606561E56220881149014021802000F1
:1039800000F057F8002070BDF8B5002815D1C046EA
:10399000C04600240B4D08260027FF432868002856
:1039A00004D0FFF7B7FF002800D53C002D1D761E80
:1039B000F4D1C046C0462000F2BDFFF7ABFFF2BD18
:1039C000FFDF0000C8000020914201D2501A70476A
:1039D0000020704730B583B004000D00012A02D1E9
:1039E00000F08DF807E0022A07D100940020019032
:1039F00069460C20ABBE2D1801E0002A0CD10094C2
:103A0000019569460A20ABBE002805D1002221009D
:103A1000280000F052F801E00020C04303B030BDA0
:103A200080B50248FFF72AFD02BD0000E800002033
:103A30007047704701B50023DB4301226946034804
:103A40000068FCF7A0FB009802BD0000740B00208A
:103A5000F8B504000F001500012C04D0022C02D090
:103A60000020C04309E000200600AE4204D2B85D49
:103A7000FFF7E0FF761CF8E72800F2BD30B4002124
:103A800000242E4A13001D68854204D1E300D21899
:103A9000116051600FE0641C9D688542F6D0641C83
:103AA0001D698542F2D0641C9D698542EED0641C7C
:103AB0002033102CE7D330BC704770B400241F4B68
:103AC0001D002E688E4208D10100E4001B19012A56
:103AD00001D15A68891859600FE0641CAE688E42A3
:103AE000F2D0641C2E698E42EED0641CAE698E4208
:103AF000EAD0641C2035102CE3D370BC704710B49E
:103B000000220E490B001C68844203D1D000081823
:103B1000406810E0521C9C688442F7D0521C1C691B
:103B20008442F3D0521C9C698442EFD0521C203353
:103B3000102AE8D3002010BC704700005C08002069
:103B400038B50400E0686169884254D321882B4A63
:103B50000A40022A09D0080402D58020800001E032
:103B60008420C001084320803FE0C025ED012940AA
:103B7000A94207D1A168884204D32000FFF704FFBF
:103B8000002832D12088E90808421ED1606821004F
:103B90003D31884219D180208000FFF74DFB6060E5
:103BA000002806D120003D306060E060401CA0602D
:103BB0000BE0218840220A432280E06080218900B6
:103BC0004118A160A0626068E06260682061A0683E
:103BD0006061207840070BD502220021200000F010
:103BE0000FF80021C943884202D10020C04332BDF2
:103BF000208805432580002032BD00BF02900000D0
:103C000070B50D001600FFF713FF040033002A0003
:103C10000021FFF70FFE05002000FFF70AFF280034
:103C200070BDFEE710B500210278120626D50023EC
:103C3000214A1468844202D19B00D1501BE0012329
:103C400054688442F8D0022394688442F4D0032359
:103C5000D4688442F0D0042314698442ECD0052354
:103C600054698442E8D0062394698442E4D007234F
:103C7000D4698442E0D0FFF775FB10BD0180C943D1
:103C8000C17001003D31416001003D31C160010062
:103C90003D31016101003D31816201003D314161F1
:103CA00001003D31C16201003D31816101002431DB
:103CB000C16110BD00000000C80000201648006867
:103CC00080214900014314480160144800681449E8
:103CD00001401248016010480068124901400E4836
:103CE000016011480068012188430F4908600A48B3
:103CF00000680E49014008480160084800680C4906
:103D000001400648016000200A4908608020000543
:103D10000949086070470000001002400C10024082
:103D20000C40FF88F6FFF6FE08100240FFFFFBFF85
:103D3000FFFF02FF1010024008ED00E070B5040024
:103D40002078800703D003202056002809D5C046DC
:103D5000C0462000FFF766FFC046C0460026F64377
:103D600029E02000FFF710FE0600C046C04620787C
:103D7000400602D56068FFF7F5FA0025656003206C
:103D80002056022805D900F018F8002801D0002696
:103D9000F643A06B002809D000F01CF8002801D0E1
:103DA0000026F643A06BFFF7DDFAA5632000FFF7BE
:103DB00039FFC046C046300070BD10B582B0020069
:103DC000009269460220ABBE04001000FFF756FEC9
:103DD000200016BD00B583B00090FEF793FD019062
:103DE00069460E20ABBE03B000BDFEE710B5184C0F
:103DF0002068002801D0FFF7A1FF6068002801D0EB
:103E0000FFF79CFFA068002801D0FFF797FFE0684C
:103E1000002801D0FFF792FF2069002801D0FFF7AA
:103E20008DFF6069002801D0FFF788FFA069002896
:103E300001D0FFF783FFE069002801D0FFF77EFF84
:103E4000002200210020C043FFF702FE10BD00BF8A
:103E5000C800002038B504000800FFF7E9FD0500A0
:103E6000E8686969884204D32800FFF769FE0028E2
:103E700010D4E868411CE96004702888010504D466
:103E800040050DD5E4B20A2C0AD12800FFF77CFDCD
:103E9000002805D02800FFF7CCFD0020C04332BD2C
:103EA0002800FFF7C6FDE0B232BDFEE70D0A0A2F7B
:103EB0002A2A2A2A2A2A2A2A2A2A2A2A2A2A2A2A62
:103EC0002A2A2A2A2A2A2A2A2A2A2A2A2A2A2A2A52
:103ED0002A2A2A2A2A2A2A2A2A2A2A2A2A2A2A2A42
:103EE0002A2A2A2A2A2A2A2A0A0000000D202A2AF7
:103EF0002A2A2A2A2A2A2A2A2A2A2A2A2A2A2A2A22
:103F00002A2A2A2A2A2A2A2A2A2A2A2A2A2A2A2A11
:103F10002A2A2A2A2A2A2A2A2A2A2A2A2A2A2A2A01
:103F20002A2A2A2A2A2F0A0D0A0000000D202A20F8
:103F30002020202020202020202020202020202081
:103F40002020202020202020202020202020202071
:103F50002020202020202020202020202020202061
:103F600020202020202A0A000D202A20582D4355E9
:103F700042452D574946493120457870616E736935
:103F80006F6E20536F6674776172652076332E31C1
:103F90002E31202020202020202020202020202002
:103FA000202A0A000D202A20436F6E736F6C652053
:103FB0004170706C69636174696F6E2020202020ED
:103FC00020202020202020202020202020202020F1
:103FD000202020202020202020202020202A0A000D
:103FE0000D202A2053656E6420415420636F6D6D4F
:103FF000616E647320746F2053505746206D6F6458
:10400000756C65206469726563746C79202020206A
:104010002020202020202020202A0A0070B4012106
:10402000002213E00468001D0C4202D04D466D1EB4
:1040300064192260241D1B1F042BFAD225009E0741
:1040400001D52280AD1C0B4000D02A700368001DF2
:10405000002BE7D170BC704730B501684118446847
:1040600062088A188368E40701D54C461B199142FF
:1040700001D10C3030BD0C7864B2491C0D78491C5C
:104080001D705B1C002C02D5641CF9D1EFE7641E87
:10409000F4D5ECE70D4572726F7220696E20626193
:1040A00075642D72617465206175746F2D6465741B
:1040B000656374696F6E2E2E2E0D0A0010B50749C8
:1040C00079441831064C7C44163404E0081D0A6813
:1040D000891888470100A142F8D110BD08000000EE
:1040E0002400000039FFFFFF2004000060070020CB
:1040F0000000000065FFFFFF7401000002010000E6
:10410000000000204552524F5220696E2055534105
:1041100052545F5472616E736D69745F41545F43B2
:104120006D64210000F00BF8002801D0FFF7C6FFF6
:104130000020C046C046FFF7A3F900F002F80120B6
:10414000704780B500F002F801BDFEE70746FFF7B3
:104150004DFE384600F002F8FBE7FEE780B5C046AA
:10416000C046024A11001820ABBEFBE72600020041
:10417000C01200008025000000C2010000080700F6
:1041800000100E000000000038B505000C002000F3
:1041900000F006F8A04200D00025280032BDFEE75E
:1041A00080B50249FFF756FE02BD00BF480000205F
:1041B0000D506C6561736520776169742E2E2E0D2C
:1041C0000A0000000D436F6E736F6C6520526561CD
:1041D00064792E2E2E0D0A0041542B532E53434644
:1041E000473D25732C25640D00000000636F6E733E
:1041F0006F6C655F7370656564000000000000000F
:10420000010203040102030406070809014880476C
:1042100001480047BD3C00084142000841542B536F
:104220002E574346470D000041542B532E52455301
:1042300045540D00030406080C101820300000003F
:10424000C046C046C046C046FFF76CFF081C30445D
:10425000586C80000000000000000000FEE7FEE750
:10426000FEE7FEE7FEE7FEE7FEE7FEE7FD0024507F
:1042700080841E000104000045000020460000204C
:10428000450000204500002045000020450000209A
:104290002C000020E0001F020401010C0A00205C39
:1042A0000A00200C0A00200C0A00200C0A002085BD
:1042B0000000206C000020E0001F02080202BC0980
:1042C00000200C0A0020BC090020BC090020BC0909
:1042D0000020C5000020AC000020E0000B0800001A
:0D42E0002048000020880000208100F3002D
:04000005080042416C
:00000001FF
