:020000040800F2
:1000000080050020699F00081D7200081F7200080B
:1000100000000000000000000000000000000000E0
:10002000000000000000000000000000297200082D
:1000300033720008000000003D720008537200088F
:100040003F40000893440008D74A00081B7200088C
:10005000BB720008CB720008DB7D00080B7E000835
:10006000EB7E0008EF8000084B820008138A00082E
:100070003B8C00086B8C0008000000003F720008F9
:10008000000000001B9000080000000000000000BD
:100090004972000800000000639100081B9A0008E4
:1000A0002B9A0008D79B00085DA100088F720008FA
:1000B000997200085FA1000861A1000863A100080F
:1000C000F1B5002403F0C5FC6846027812491348D4
:1000D00003F074FEFF2012498875104803F08AFE71
:1000E00080B203F0CFFC0400E4B2002C02D0200068
:1000F000C0B20FE0012500260A4F32002900380067
:1001000003F080FE0648807D0E2801D000BFF9E78D
:100110002000C0B2F2BD000008A00008800F00203F
:10012000141E00202A1E0020F1B58EB00020694662
:100130008872002004900E98007869468872D5482D
:1001400003F088FE01004903C90F00290ED168465B
:10015000807A00280AD06846807ACF49CF4A126850
:100160008854CE480068401CCC490860CC4803F055
:100170004FFFC948C94909684018801E00780D28FA
:1001800001D000F029FCC448C44909684018401E49
:1001900000780A2801D000F01FFCBE4803F05AFE88
:1001A0000100C900C90F002901D000F015FCBD48AD
:1001B00000780100C907C90F002901D000F00CFC2C
:1001C000B949B54803F033FF00286BD003F006F8B7
:1001D00072B6B14801F0E8FC62B602F0F2FFDD4809
:1001E00003F038FE0100C901C90F00290CD172B615
:1001F000AB4803C80A000100D74803F05AFE62B6B4
:10020000A74803F005FF1CE0A24803F023FE01000D
:100210008907C90F002914D1A14803F0F9FECD4880
:1002200003F018FE0200CB49D448104003F008FF49
:10023000984803F00FFE020096490220104303F095
:10024000FFFEC44803F006FE01004901C90F002962
:1002500008D1C04803F0FEFD0200BE49C748104067
:1002600003F0EEFE00208D4908608A4803F0F2FD9D
:1002700001008902C90F002912D0864803F0EAFD67
:1002800001000901C90F00290AD0824803F0E2FDEC
:1002900002008049D848104003F0D2FE00F0BBFCB9
:1002A00001F04BFCD5497C4803F0C1FE002800D189
:1002B000B0E1D349784803F0BAFE0400002825D005
:1002C000684621790172607902A94870CD480178A9
:1002D000F02008406946097A0A22514302AA52785E
:1002E00089180907090F0143C64801700F20C64944
:1002F000087072B66A4803C80A000100964803F005
:10030000D8FD62B6664803F083FE4EE1BF496248FD
:1003100003F08DFE0400002800D197E06846617A62
:100320000170A07A69464870E07A69468870207B3F
:100330006946C870684640780D2805D1684600783F
:100340003038D34908603AE0684680780D280BD1F0
:10035000684600780A214843694649784018CD49E3
:100360004018CB4908602AE06846C0780D2810D1B3
:100370006846007864214843694649780A22514317
:100380004018694689784018C3494018C049086038
:1003900015E068460078FA218900484369464978A3
:1003A000642251434018694689780A225143401813
:1003B0006946C9784018D8494018B5490860B4481A
:1003C000006800280AD0334803F044FD0200314998
:1003D00080200002104303F033FEE6E0AC480068E2
:1003E000002800D0E1E0CD48CC490978C9B2C9085D
:1003F0004907490F4018E921405C00281DD0C84832
:10040000C6490978C9B2C9084907490F405C0028A4
:1004100008D00221C1480078C0B2C0084007400F90
:1004200003F0CEFABD48BD490978C9B2C9084907E9
:10043000490F4018E92100224254164803F00AFDF2
:1004400014490822904303F0FBFDAEE0B5A1124829
:1004500003F0EDFD0400002828D003206A4908704D
:10046000200003F0C7FC05000B3DE61CAE4F2A0040
:100470003100380003F0EEFD72B6094803C80A00E7
:100480000100354803F015FD62B6054803F0C0FDD4
:100490008BE000BF781E002080170020BC1E0020CB
:1004A000EC1C0020141E0020A8A000089F48007823
:1004B000C0B240080100C907C90F002960D09B489D
:1004C0004078C0B200090100C907C90F002966D0F1
:1004D0009248C079C0B2C0084007400F002809D038
:1004E0008E48C079C72101400838382202400A43AB
:1004F0008A48C2718D480078FD2101408B48017007
:1005000000208749854A52791207120F8854834880
:1005100040790007000F8149087184484078EF2135
:1005200001408248417002208049C874C2488079E5
:10053000C0B280080100C907C90F00290ED00548C4
:1005400003F088FC020003498020C005104303F03B
:1005500077FD09E0791E0020E01C0020B648807974
:1005600004210143B4488171B34803F073FCB249DC
:100570000822904303F064FD11E000BFFFFFFFFE7F
:1005800002202149087072B6C84803C80A00010059
:10059000C74803F08EFC62B6C44803F039FD6348D7
:1005A0000078FD210140614801700020C1490860C8
:1005B0008025AD000026C04F32002900380003F02E
:1005C00021FC9D4803F046FC01008902C90F002967
:1005D0001ED0994803F03EFC01000901C90F002913
:1005E00016D0954803F036FC0200934902481040AB
:1005F00003F026FD0FE300BFFFFFFFF7B0A00008E8
:10060000B8A00008ED1C0020F21C002014A0000877
:1006100001F093FACC49A84803F009FD002800D165
:10062000EAE0CA49A44803F002FD002836D0C848D1
:1006300003F03EFD3D480078FD2101403B4801703C
:100640003A484078EF210140384841707A48807933
:10065000C0B280080100C907C90F002905D176483A
:100660008079042101437448817101202B492B4A70
:1006700052791207120F8918E92288546E4803F044
:10068000E9FB6D490822904303F0DAFC8CE000BFDF
:10069000201A0020F0FDFFFF30EBFFFFCA4986481B
:1006A00003F0C5FC002805D1C849834803F0BFFC0E
:1006B00000283DD0604803F0CDFB01000903C90FBD
:1006C000002971D05C4803F0C5FB02005A49C048BC
:1006D000104003F0B5FC584803F0BCFB5649082213
:1006E000904303F0ADFC544803F0B4FB02005249C0
:1006F000B848104003F0A4FC4F4803F0ABFB0200E5
:100700004D49CC48104003F09BFC0020CA490880AA
:100710000020CA49086047E0B02FFFFF8019002081
:100720008C1E0020203D20008E190020141E002069
:10073000C349614803F07BFC002802D0C14803F0A4
:10074000B7FC0820C049087072B6584803C80A00B0
:100750000100574803F0ADFB62B6544803F058FC63
:10076000354803F077FB01000907C90F002907D0BE
:10077000314803F06FFB30490822904303F060FCDE
:10078000B24803F067FB01008900C90F00290BD0B4
:10079000AE4803F05FFB0200AC49AD48104003F0E7
:1007A0004FFC0020AB4908600020424908608025CA
:1007B000AD000026404F32002900380003F022FB34
:1007C0001D4803F047FB01008902C90F002911D021
:1007D000194803F03FFB01000901C90F002909D0A6
:1007E000154803F037FB020013499B48104003F003
:1007F00027FC10E201F0A1F998492F4803F017FCFB
:1008000000285DD096492C4803F011FC0400002C10
:1008100003D000209349487202E0012091494872B8
:1008200091A1254803F003FC0400002C06D0002011
:100830008C49887205E000BF781E0020012089499C
:10084000887204208049087072B6184803C80A00EC
:100850000100174803F02DFB62B6144803F0D8FBE3
:100860000020144908608025AD000026124F320098
:100870002900380003F0C6FA7C4803F0EBFA0100C7
:100880008902C90F002919D0784803F0E3FA010062
:100890000901C90F002911D0744803F0DBFA0200E6
:1008A00072496D48104003F0CBFBB4E1EC1C002012
:1008B000E01C0020BC1E00208017002001F03DF944
:1008C0006A4803F0C7FA01008902C90F002941D024
:1008D000664803F0BFFA01000901C90F002939D0A9
:1008E000BD4803F0B7FA01000901C90F002931D151
:1008F000BA48008800280FD072B6B8480188B848B6
:1009000003F00CFD62B6B548058800260E9F320044
:100910002900380003F076FA4C4803F09BFA0200F5
:100920004A498020C005104303F08AFB4F4803F07A
:1009300091FA02004D494848104003F081FBA94854
:100940000068A949088020E0C0A00008489B000872
:10095000449600084548407AC0B280080100C907A3
:10096000C90F002911D09F48056800269F4F32000B
:100970002900380003F046FA00209A4908603B48F5
:10098000407AFB21014039484172994800780100C2
:10099000C907C90F002900D03DE195480078C0B2D1
:1009A00040090100C907C90F002900D133E1002027
:1009B0008C4908608025AD0000268C4F320029004C
:1009C000380003F01FFA26E1F49700085C9700084E
:1009D000FFFFF7FFFFFFDFFF2448407AC0B2800827
:1009E0000100C907C90F002944D1C5497F4803F058
:1009F0001EFB00283ED0C3497C4803F018FB0028AA
:100A000036D00F2003F028FD03F042FD1748407A4E
:100A10000421014315484172724805680026734F4E
:100A200032002900380003F0EDF900206D4908601C
:100A300001F083F8FFFFFBFF161A0020341A002094
:100A4000C8A00008D8980008F21C00207A1E0020D8
:100A5000FFFFFFDF4C1A0020FFFFFFF7D0A00008C8
:100A6000D8A00008801900206F757400781E00203F
:100A700001F063F8A44803F0EDF90100C901C90FC2
:100A8000002970D0A149594803F0D1FA00283CD17F
:100A90009F49564803F0CBFA002836D19D49534868
:100AA00003F0C5FA002830D19B49504803F0BFFA43
:100AB00000282AD199494D4803F0B9FA002824D1D9
:100AC00097494A4803F0B3FA00281ED19549474890
:100AD00003F0ADFA002818D19349444803F0A7FA6F
:100AE000002812D19149414803F0A1FA00280CD105
:100AF0008F493E4803F09BFA002806D18D493B48B8
:100B000003F095FA002800D185E08B4803F0A2F9A4
:100B10000200894980204005104303F091FA86487D
:100B200003F098F9020084498020C002104303F0CA
:100B300087FA754803F08EF9020073497F48104028
:100B400003F07EFA05207E4908807E4803F082F992
:100B500002007C497C48104003F072FA00207B4977
:100B6000086000F0EAFF21481E4909684018401E4D
:100B7000007809281AD11D481A4909684018801EB2
:100B800000783A2812D11948164909684018C01E41
:100B9000007831280AD1684803F05CF90200664900
:100BA00080200006104303F04BFA34E06248C0791D
:100BB000C0B280080100C907C90F00291AD00B482C
:100BC000084909684018401E0078002823D10020F9
:100BD000044908601FE000BF791E0020181A002099
:100BE000CC1C0020BC1E00201C1A002080170020F6
:100BF000141E0020D1480068D14988420BD3002040
:100C0000CE4908608025AD000026CE4F3200290075
:100C1000380003F0F7F8484803F01CF901004903D5
:100C2000C90F002900D12BE1464803F013F9010058
:100C30004900C90F002900D022E1D4480088D449D6
:100C40000880BE480068D249098840188021890080
:100C500088421FD3B9480068CD4909884018CD495A
:100C6000451872B62900CC4803F058FB62B600263E
:100C70000E98B24909684A428018B14947183200B3
:100C80002900380003F0BEF8AD48AC490968401AA5
:100C9000BF490880BE480588C04EAA48A7490968D0
:100CA00047182A003100380003F0D4F9A34800683F
:100CB000B74909884018A1490860A0480068012880
:100CC00005D1A04800780D2801D100F036FFB449C5
:100CD0009C4803F0ACF900283AD0174803F0BAF862
:100CE00002001549AF48104003F0AAF9AE4803F0DE
:100CF000B1F80200AC49AB48104003F0A1F9BFE0E5
:100D000020A00008E0A000087B1E0020E8A000084A
:100D1000F0A00008649D0008F8A00008789D000875
:100D2000489F0008589F0008609B0008BC99000875
:100D30008C9D0008789B0008781E0020FFFFFFFEB6
:100D40001A1A00207A1E0020FFFFFFDF4C1A002035
:100D5000D04800780100C907C90F002900D08FE0F2
:100D6000CD4803F077F80100C900C90F002900D071
:100D700086E074480078002800D181E0714800784E
:100D80000D287DD16F4840780A2879D1C348006882
:100D9000022875D0844803F05DF802008249802063
:100DA0000005104303F04CF9BDA1BE4803F03FF924
:100DB0000400002838D06348251AAD1CBA49B94848
:100DC00003F035F900280BD0B8495E48401903F00C
:100DD0002EF90400002C03D05A48201A801D05006B
:100DE00056480068401B002815D072B6534800686A
:100DF000411B694803F092FA62B650480068401BF4
:100E0000019000264F48471932000199380002F03E
:100E1000F9FF4A480560644803F01CF80200624983
:100E20006048104003F00CF99B4803F013F80200EF
:100E3000994980200005104303F002F93F480068FB
:100E40003F4988421CD1584803F004F801000901C9
:100E5000C90F002914D0544802F0FCFF0200524987
:100E60005048104003F0ECF88B4802F0F3FF02000A
:100E700089494C48104003F0E3F831484449088060
:100E8000854802F0E7FF01000901C90F002900D0E1
:100E9000A0E2814802F0DEFF01008902C90F0029AB
:100EA00000D197E27B480078012101437948017025
:100EB000CF480068364909884018CD49086038494C
:100EC0002048CC4A12888018401F03F0B0F8040074
:100ED000002C00D1ECE01B48184909684018801E1E
:100EE00000780D2800D0E3E016481449096840183E
:100EF000401E00780A2800D0DAE0BF49114803F00C
:100F000096F8040000281FD0E07E00280CD00D4881
:100F1000251A0A48016828001B300E1A72B63100E3
:100F20001D4803F0FBF962B65A484078012101439D
:100F3000584841700D20D94908704EE0BC1E002071
:100F4000FF01000080170020D549D64803F06FF854
:100F5000040000282AD0E07D00280CD0D148251AB2
:100F6000DC480168280017300E1A72B631000A48B2
:100F700003F0D4F962B60120D749D74A5279120753
:100F8000120F8918E922885427E000BF181A0020A0
:100F90001C1A002001FEFFFFCC1C00208015002041
:100FA00000A10008FFFFFFF7791E0020CB49BD48D4
:100FB00003F03DF8040000280FD0E07D00280CD09D
:100FC000B848251AC3480168280017300E1A72B6AF
:100FD0003100C34803F0A2F962B6002084490860DA
:100FE0000020C049086000202C4908600520814984
:100FF0000880294802F02EFF02002749BA48104015
:1010000003F01EF8244802F025FF234908229043EC
:1010100003F016F8204802F01DFF02001E49B348F5
:10102000104003F00DF800201A4948601948007874
:10103000FE21014017480170174802F00BFF010024
:101040000903C90F002916D0134802F003FF02005C
:101050001149D748104002F0F3FF0020D54908603D
:101060000D4802F0F7FE02000B490120104302F088
:10107000E7FF02F085FD974805680026894F32009A
:101080002900380002F0BEFE00209249086000F0FE
:1010900054FD00BF141E0020781E0020241A0020DA
:1010A0000D0A0000821700202CA00008B0A0000844
:1010B00088480068062805D3002C03D185480068BD
:1010C0004C4908804A480068BB490968884200D2F8
:1010D0000EE1B94800684649096888421AD2444876
:1010E0000068B5490968451A72B629007C4803F0C2
:1010F00015F962B600266B4876490968491B4718FE
:1011000032002900380002F07DFE72480068401B62
:10111000704908606F480068A8490880A6480068C0
:10112000A74908606B4805685E4EA64F2A0031004B
:10113000380002F08FFF00206649086000202C492B
:10114000086000206749086000209B490860002073
:101150009D4908800520274908809C4802F07AFEB6
:1011600002009A499A48104002F06AFF974802F03C
:1011700071FE020095495D48104002F061FF56483B
:10118000C078072101435448C170904802F062FEC4
:1011900001000903C90F002930D0002085490860EB
:1011A0004D484078C72101404B484170E2484068B3
:1011B000002804D0E0484068401EDF494860DE480F
:1011C000406800280AD1814802F044FE02007F49AD
:1011D0000120104302F034FF02F0D2FC7B4802F001
:1011E00039FE02007949D548104002F029FF20E07D
:1011F000301A00201A1A0020D8990008734802F00B
:1012000029FE020071498020C003104302F018FF3C
:1012100031484078C72101402F48007838220240E9
:101220000A432D484270C448007802210143C24855
:101230000170664802F00EFE020064492A48104020
:1012400002F0FEFEBC480078FE210140BA48017061
:1012500001F0D1FF5D4802F0FDFD01000903C90F57
:10126000002921D0B64802F0F5FD0200B4498020E3
:101270008005104302F0E4FE544802F0EBFD5349B0
:101280000822904302F0DCFE504802F0E3FD020029
:101290004E494748104002F0D3FE0FE0681A002084
:1012A000489B000880170020A54802F0D3FD0200EB
:1012B000A34980204005104302F0C2FE8025AD0006
:1012C0000026A04F32002900380002F09BFD00F0FC
:1012D00034FC00BFBC1E002080190020909B000839
:1012E000CC1C0020201A0020FFFFDFFFFFFFFBFFC8
:1012F000D8480068D849884259D30520D749088082
:101300002D4800682E490860D3482C490880D148F0
:10131000006801908B4803902A4D019A0399280098
:1013200002F098FE0020CB4908600520CB490880D8
:10133000CB48C07807210143C948C17001F05BFF69
:101340008025AD0000267F4F32002900380002F0D2
:1013500059FD1E4802F07EFD01000903C90F002956
:1013600010D0BF484078C7210140BD484170744843
:1013700002F070FD0200724980208005104302F0E7
:101380005FFE14E0B6484078C7210140B4480078B9
:10139000382202400A43B2484270694802F05AFDBE
:1013A0000200674980204005104302F049FEC4E373
:1013B000FFFFF7FF281A0020241A0020161A002029
:1013C000341A0020801300201C1A0020781E0020F0
:1013D000FFFFFFF7A34802F03DFD0100C900C90F60
:1013E000002900D1D2E1544800780121014352483C
:1013F00001709D495348994A12888018401F02F095
:1014000016FE0400002800D19EE0E07900281ED0DE
:101410004C48251A8F4801682800801D081A019041
:1014200072B60199CD4802F079FF62B60198039037
:10143000002644484019C71D32000399380002F0C5
:10144000E1FC844800680199401A8249086081489B
:101450000068C34908807F480068019039480390BC
:10146000C04D019A0399280002F0F4FD7948006804
:10147000BD49088030484078012101432E48417021
:10148000784802F0E7FC02007649B848104002F0C4
:10149000D7FD744802F0DEFC02007249B4481040E7
:1014A00002F0CEFD01F0A7FE0020B24908702248EC
:1014B0000078FE210140204801706A4802F0CAFC11
:1014C00002006849AC48104002F0BAFD654802F0DD
:1014D000C1FC64490822904302F0B2FD05205F4937
:1014E00008805C4805680026164F32002900380045
:1014F00002F088FC0020574908605A4802F0AAFC14
:1015000001008900C90F00290AD09C4802F0A2FC02
:1015100002009A498020C004104302F091FD93E03C
:10152000964802F097FC0200944980208004104302
:1015300002F086FD88E000BF141E0020FFFFBFFF01
:10154000791E0020801700208D498E48434A12885A
:101550008018401F02F06BFD0400002874D0414841
:1015600002F078FC02003F498048104002F068FD1C
:101570008448384909684018801E00780D2863D1D6
:101580008048344909684018401E00780A285BD119
:101590007D484078012101437B4841700D20754909
:1015A000087079480078FE210140774801702D4885
:1015B00002F050FC02002B496C48104002F040FD44
:1015C000284802F047FC020026496B48104002F010
:1015D00037FD00201F490860052020490880214868
:1015E00002F038FC02001F496148104002F028FD5B
:1015F0001C4802F02FFC1B490822904302F020FDFA
:101600008025AD0000265F4F32002900380002F02F
:10161000F9FB144802F01EFC01008900C90F0029E3
:1016200009D0564802F016FC02005449C648104042
:1016300002F006FD08E0514802F00CFC02004F49A0
:10164000C248104002F0FCFC0248006806280DD396
:1016500001200CE0BC1E0020FF0100001A1A00202F
:1016600080190020781E0020B0A000080020002C67
:1016700001D1012100E00021C0B2084203D0D348CB
:101680000068D3490880D1480068D249884264D1B3
:10169000CE48006801903B480390324D019A03996F
:1016A000280002F0D7FC06200C90CB480B90CB4DC5
:1016B0000C9A0B99280002F0CDFC06200A9000201D
:1016C0000990C54D099A0A99280002F09BFB8020D9
:1016D00080000890002007902A4D079A089928005A
:1016E00002F090FB06200690BC480590254D069A16
:1016F0000599280002F0AEFC06260025B74F2A0007
:101700003100380002F07EFB0620B0490860052059
:10171000AF490880FF20FA301349088001F06BFDC3
:10172000AF4802F097FB01008900C90F00290AD0D9
:10173000124802F08FFB020010498020C0041043C1
:1017400002F07EFC09E00D4802F084FB02000B4928
:1017500080208004104302F073FCEEE1CC1C0020DA
:10176000161A002080130020121A0020FFFFFBFF32
:10177000FFFFFFEF681A0020FFFFFFF77A1E00202F
:10178000C0A0000880170020141E0020944802F01A
:1017900061FB01000901C90F002900D071E19048E7
:1017A00002F058FBC00F002800D16AE18D4887493C
:1017B00009684018801E00780D2800D050E1894843
:1017C000824909684018401E00780A2800D047E185
:1017D000DB4802F099FEDB48407BDA49097B88420E
:1017E00000D3C4E0D8497F4802F021FC0400002C5B
:1017F0000FD06846A1790170E07969464870684663
:1018000000780A2148436946497840181038CF4982
:101810000870CE480078CE490968CA4A527B2C230A
:101820005A438854CB496F4802F001FC0400002C55
:101830000FD06846E1790170207A694648706846A1
:1018400000780A214843694649784018C24940183F
:101850000490BF480068BB49497B2C225143401883
:1018600004994A424260BD495E4802F0E0FB040030
:10187000002C1ED00720BA490870B9480078205CB7
:10188000272816D0B2480068AE49497B2C22514324
:101890004018B34909784018B1490978615C417032
:1018A000AF480078401CAE490870AD480078232846
:1018B000E3D1AC494B4802F0BAFB0400002C0AD03B
:1018C000A34800689F49497B2C2251434018262198
:1018D0000122425409E09E4800689A49497B2C2223
:1018E000514340182621002242549F493D4802F0AE
:1018F0009EFB0400002C0AD0954800689149497B62
:101900002C225143401827210122425409E09048DB
:1019100000688C49497B2C22514340182721002222
:10192000425492492F4802F082FB0400002C0FD051
:10193000874800688349497B2C225143401828215D
:10194000012242540EE000BFFFFFFFFBFFFFFFFD3F
:101950007F4800687B49497B2C225143401828214D
:10196000002242547748407B401C764948738049A6
:101970001C4802F05CFB0400002C35D08025AD0033
:101980000026184F32002900380002F03BFA0020F0
:101990000E4908607748407801210143754841703D
:1019A0000F4802F057FA0E494000400802F048FB89
:1019B0000B4802F04FFA020009496F48104002F04C
:1019C0003FFB0D206D490870B7E000BFBC1E002032
:1019D0001A1A0020FF010000791500209C1E00202B
:1019E000781E0020801700206549664802F01FFB22
:1019F000002829D0644802F02DFA020062495E48AE
:101A0000104002F01DFB00204E49487300205F4942
:101A100008605848407801210143564841705A48AF
:101A200002F018FA58494000400802F009FB002073
:101A3000524908708025AD000026524F320029001F
:101A4000380002F0DFF978E0002050490860802576
:101A5000AD0000264B4F32002900380002F0D2F9C9
:101A60004A4800684A4988420BD300204749086029
:101A70008025AD000026434F32002900380002F0D7
:101A8000C1F9414802F0E6F901000901C90F002936
:101A900053D13D4802F0DEF901004901C90F002988
:101AA0004BD03CA002F004FB3B49364802F0BFFAA1
:101AB0000400002830D0344802F0CCF9020032494A
:101AC0003648104002F0BCFA2E48304909684018E8
:101AD000801E00780D281FD12A482C49096840181B
:101AE000401E00780A2817D12D4802F0E1FA264856
:101AF00002F0B0F9020024492A48104002F0A0FA8E
:101B00000020224908608025AD0000261D4F3200CC
:101B10002900380002F076F91C4800681C49884208
:101B20000BD10020194908608025AD000026154F13
:101B300032002900380002F065F90FB0F0BD00BF97
:101B4000600000208019002008A10008D11E00209C
:101B5000B81E002010A10008F0FDFFFF18A100082A
:101B6000D01E002020A1000828A1000830A10008F4
:101B7000C0A00008141E0020FFFDFFFF681A00200F
:101B800038A1000880170020781E0020BC1E00200D
:101B9000FF0100002A00000038A00008FFFFFBFF43
:101BA000A09D0008FFFFFFFBF1B584B0049E049DDB
:101BB000FF27002D00D1AEE2BD49300002F037FA18
:101BC0000500002D00D1A6E2684669790171A87967
:101BD00001A9487001A840783A2804D168460079E4
:101BE000303807000AE0684600790A21414301A81D
:101BF0004078081884218900401A07003800AD4950
:101C000008700120AC4908703FB238000028032852
:101C100000D851E2001F012800D871E2801E01287F
:101C200000D849E2801E012800D869E2801E00D158
:101C300055E2401E012800D862E2801E012800D82B
:101C40003AE2801E00D15BE2401E032800D833E256
:101C5000001F00D154E2401E00D12DE2401E012899
:101C600000D84DE2C01E00D126E2401E012800D857
:101C700046E2801E00D1AFE1801E00D11CE2401E72
:101C8000012800D83CE2801E012800D814E2801E02
:101C9000012800D834E2801E00D10DE2401E00D1A0
:101CA0002EE2401E00D107E2401E042800D827E2A1
:101CB000401F012800D8FFE1001F052800D8FBE1E4
:101CC000801F20D0801E00D1CCE1401E2FD0401EAE
:101CD00000D10FE1401E00D12EE1401E012800D8A6
:101CE000A2E1C01E32D0801E00D1E5E1401E00D12D
:101CF000CEE1401E00D1D5E1001F00D180E1801E61
:101D000000D1D9E1FDE1D149300002F090F90500A0
:101D1000684669790170CE480178F020084069462C
:101D200009780907090F0143C9480170E9E16846CC
:101D3000A97D0170C6480178F020084069460978FD
:101D40000907090F0143C2480170DAE1C14802F0F6
:101D500081F80100C901C90F002903D0BE4802F073
:101D6000A7F9D8E1BB4802F075F801008901C90F55
:101D7000002903D00020B949086012E0B84802F0F9
:101D800069F80200B6490820104302F059F9B14839
:101D900002F060F80200AF4980208004104302F096
:101DA0004FF9AA49300002F042F90500002D00D198
:101DB0009FE0684669790170684600783038D749F5
:101DC00008706846297A0170687A69464870A87A6E
:101DD00069468870E87A6946C870684600783A288B
:101DE00006D16846E9790170287A694648702EE084
:101DF000684640783A2809D16846E9790170287A1E
:101E000069464870687A6946887020E0684680783C
:101E10003A280CD16846E9790170287A69464870F9
:101E2000687A69468870A87A6946C8700FE0684683
:101E3000C0783A280BD16846E9790170287A69465A
:101E40004870687A69468870A87A6946C87068469A
:101E500040783A2805D1684600783038B0498884FF
:101E600042E0684680783A280CD1684600780A211A
:101E7000414368464078081884218900401AA849DF
:101E8000888431E06846C0783A2817D168460178DE
:101E900064204843694649780A224A4380186946C3
:101EA000897840189F49401A9D4988841CE000BFEA
:101EB000A8A00008EC1C0020F21C00206846017855
:101EC000FA20800048436946497864224A438018D2
:101ED000694689780A224A4380186946C9784018B9
:101EE000914940188E49888490484068401C8F4929
:101EF000486006E18D480078802101438B480170DD
:101F00008A480078DF210140884801700020874915
:101F10004860534801F09EFF51490222904302F06D
:101F20008FF84C4801F096FF02004A498020400497
:101F3000104302F085F8E4E07C4800784006400E4B
:101F40007A49087079480078202101437748017068
:101F5000434801F07FFF42490222904302F070F8AB
:101F60003C4801F077FF02003A49802040041043CA
:101F700002F066F83A4801F06DFFC00708D56B48DB
:101F80000078C0B2C009C0B2002801D101F0F8FD4C
:101F9000334801F05FFF01000903C90F00291AD07F
:101FA0000520634908802E4801F054FF02002C49A7
:101FB0008020C002104302F043F8294801F04AFF94
:101FC0000200274980208003104302F039F8594865
:101FD00000685949086094E05849300002F027F839
:101FE000050011200400222C06DA285D5449091945
:101FF0003E228854641CF6E70B204C49887580E02B
:102000005049300002F013F8050011200400222C82
:1020100006DA285D4A4909193E228854641CF6E70D
:102020000C20424988756CE00A4801F013FF01005A
:10203000C901C90F002908D0064801F00BFF0200B2
:1020400004494148104001F0FBFF5AE040A100085C
:10205000ED1C0020791E002048A100082C1A002049
:10206000781E0020002039490870394801F0F2FE3E
:1020700037490222904301F0E3FF364801F0EAFEBF
:102080000200344980204004104301F0D9FF38E0B9
:102090000A20314908702E48C079042101432C4898
:1020A000C1712EE009202C4908702948C079FB2114
:1020B00001402748C17124E0254801F0CBFE2449A6
:1020C0000222904301F0BCFF224801F0C3FE02004F
:1020D000204980204004104301F0B2FF11E01C4869
:1020E00001F0B8FE01000907C90F002907D0184800
:1020F00001F0B0FE16490822904301F0A1FF00E074
:10210000FFE780208000039000200290029A03994C
:10211000300001F077FE05B0F0BD00BFEE1C0020DE
:10212000CC1C0020D0140000B02F0000141E002092
:102130001A1A0020281A0020241A002044A000089F
:102140008019002050A00008FFFFFFFECB1E0020DA
:10215000781E0020791E0020F21C002070B580211E
:10216000C900714801F0B6FF70484078F121014084
:102170006E48417000206E49087000F02EF900F0A2
:102180008FF800F016F80A216A4801F06FFE01F09E
:1021900018F808250024684E22002900300001F0BC
:1021A00031FE9D4802F0ECF9002801D001F063FCFB
:1021B00070BD00B55D480078082101435B4801709F
:1021C0005A480078802101435848017057480078E8
:1021D000BF21014055480170002054494874002037
:1021E0005249887400205149486050484078FE2187
:1021F00001404E484170FF204C49887502204B49F0
:10220000C8740220494908750020484948750020D3
:102210004649C860814801F01DFE80490122024301
:10222000100001F00DFF7D4801F014FE7B490222F1
:102230000243100001F004FF754801F00BFE7449E1
:10224000744A0240100001F0FBFE7448007AFE213F
:1022500001407248017271488079042101436F483E
:1022600081716E48C0794006400E6C49C8716B4858
:10227000007AFD210140694801726848007AFB211B
:102280000140664801726548007AF72101406348C1
:1022900001726248407AFB2101406048417200BDF2
:1022A000F8B55F48C079C72101405D48C171002081
:1022B0005C49086000205C49086000205B490860B8
:1022C00000205B49086000205A49086000205A49F4
:1022D0000880002059490860002059490860002002
:1022E0005849086000204E4948730020564908604C
:1022F000002056490880802040015549086005208B
:1023000054490880082000900124534D2200009970
:10231000280001F077FD01250026504F32002900EA
:10232000380001F06FFDF1BDCC1C0020141E002010
:10233000CB1E0020E01C00208C1E002080B54848E9
:1023400000680421014346480160454800680421B3
:10235000084000900098424800680121014340482D
:1023600001603F4800680100C907C90F009100984B
:10237000802040013B49086301203A49486301201D
:102380003849886303203749C8633749374802F022
:10239000E7F9002036490870FF2036498875002289
:1023A00080214901314802F06BFBC82002F086FB16
:1023B0000122802149012D4802F062FB322002F007
:1023C0007DFB80214901294802F0B3FA2948807D2C
:1023D0000E2801D000BFF9E701BD80B500228021A1
:1023E0004901A020C00502F04BFB012222492348ED
:1023F00002F023FD002809D1084801F02BFD074910
:10240000802252010243100001F01AFE01BD0000BB
:102410007A1E0020FFFFFFDF481D0020781E0020ED
:10242000801900202C1A0020201A0020281A0020D1
:10243000381A0020301A0020181A00203C1A0020F8
:10244000441A0020481A00204C1A0020141A0020B8
:10245000641A00201A1A0020941E0020CF1E0020AB
:102460002C100240CC1C0020FC1C00200008005056
:10247000CB1E0020141E0020CE1900206C1B002053
:10248000F1B584B00024002069460872AA4801F022
:10249000E1FC01000907C90F002900D0DAE372B698
:1024A000A64801F05BFDA649886262B6A448806A2E
:1024B000002800D1CEE3A248806A8079401E31D046
:1024C000401E022800D8A2E3001F00D1DAE0801EDF
:1024D00000D18FE3401E00D1ABE3401E00D1A7E343
:1024E000801E00D1B0E2401E00D10FE3401E00D19B
:1024F0003FE2401E3ED0401E00D159E1001F00D1F6
:1025000020E1401E00D1BDE1401E72D0401E00D12E
:1025100080E1401F00D10FE2401E08D00B3800D1EF
:102520002EE397E38648806A00F0BAFF92E384487E
:10253000806A40780007000FCE490978F8220A40E7
:102540004007400F1043CB4908700120CA497C4A1C
:10255000926A52781207120F88540020C7494875B2
:10256000C648407801210143C44841700020C44955
:1025700008706FE3BF48C079C0B2C0084007400F81
:10258000082809DBBD48407801210143BB48417060
:102590000420BB4908705DE3B648C079C7210140FB
:1025A0000830382202400A43B248C2710120DA4999
:1025B000634A926A52781207120F88546048806A00
:1025C00040780007000FAB490978F8220A4040071D
:1025D000400F1043A74908700020A8494875A74834
:1025E000407801210143A54841700020A4490870AA
:1025F00030E3CA4801F02EFC0200C849C848104028
:1026000001F01EFD0020C74908609A48007A400783
:10261000400F042809DB994840780121014397487D
:10262000417004209649087014E39248007AF8211A
:102630000140401C4007400F08438E4908720120AA
:10264000B9493F4A926A52781207120F88543C489F
:10265000806A40780007000F8649C979F8220A404D
:102660004007400F10438349C871002083494875D3
:102670008248407801210143804841700020804910
:102680000870E7E201F0E5F97A48C07A01280BD139
:10269000A648006800907748436E7648026EA449C9
:1026A000A44801F08BFB0EE07248C07A00280AD1E2
:1026B0009E48006800906F48436E6E48026EE14984
:1026C0009C4801F07BFB9B4801F094FB80B201F039
:1026D000D9F90400E4B2002C23D10020914908600C
:1026E0008E4801F0B7FB02008C4980208005104322
:1026F00001F0A6FC104801F0ADFB02000E490820D5
:10270000104301F09DFCDB4801F0A4FB0200D94915
:1027100080204004104301F093FC0620574948757F
:1027200008E00D20564908705448407801210143C3
:10273000524841708EE200BF781E0020E01C00204D
:10274000CC1C002001F085F9CB48038849488078EB
:102750004207520FC949774801F030FB754801F034
:1027600049FB80B201F08EF90400E4B2002C0ED1D6
:1027700001F06FF972B6C0480288C1480168C148CB
:1027800002F01BFB002801D00F20040062B6E4B267
:10279000002C03D16846007A002808D037484078DA
:1027A00001210143354841700D203549087051E23F
:1027B00001F04FF92F48C06E00905C4803682D4827
:1027C000026ECB495B4801F0F9FA5A4801F012FB5E
:1027D00080B201F057F90400E4B2002C09D0274878
:1027E000407801210143254841700D20244908709B
:1027F0000FE010202149487500204A4908604748E9
:1028000001F028FB0200454980208005104301F0BB
:1028100017FC1FE201F01DF91648C36E4348026819
:10282000B449444801F0CAFA424801F0E3FA80B2E0
:1028300001F028F90400E4B2002C09D00F484078D8
:10284000012101430D4841700D200D4908700FE032
:1028500017200A4948750020324908602F4801F0C6
:10286000F9FA02002D4980208005104301F0E8FBB1
:10287000F0E100BF80190020CE1E0020141E0020B1
:10288000681A00202448D949896A49780907090F3C
:10289000405C00283BD001F0DCF8D448806A4078E6
:1028A0000207120FD249234801F088FA214801F0AB
:1028B000A1FA80B201F0E6F80400E4B2002C29D1BC
:1028C0000020D9490870D94801F0C4FA0200D7495C
:1028D0000820104301F0B4FBC448806A4078000728
:1028E000000FD9494979F0220A400007000F104330
:1028F000D5494871D548407810210143D3484170EB
:10290000D248007802210143D048017002E0D0484B
:1029100001F0CEFB9EE100BF8C1E00207A1E00203D
:10292000FFFFFFDF4C1A0020C41E0020401A0020C9
:10293000E89A0008800F002001F08BF8D149D248B6
:1029400001F03CFAD04801F055FA80B201F09AF853
:102950000400E4B2002C0BD10020B3490870B34846
:1029600001F078FA0200B1490820104301F068FB39
:1029700070E101F06EF840480388B348026FD24915
:10298000C14801F01BFAC04801F034FA80B201F0EE
:1029900079F80400E4B2002C09D0AC484078012159
:1029A0000143AA4841700D209F49087048E000F09B
:1029B00007FD0400E4B2002C08D0A44840780121AF
:1029C0000143A24841700D20974908702A480388A6
:1029D0009D48026FBD49AC4801F0F0F9AA4801F0EA
:1029E00009FA80B201F04EF80400E4B2002C08D0DD
:1029F0009648407801210143944841700D208A494E
:102A0000087001F026F81C4806881D4805689E4F8E
:102A100032002900380001F01DFB9B4801F0EAF963
:102A200080B201F02FF80400E4B2002C08D08748EF
:102A3000407801210143854841700D207A49087092
:102A400008E100BF009B000801F003F87E48006F1A
:102A5000002804D19E498C4801F0B0F91FE07A4863
:102A6000006E002810D17848026F9A49864801F01C
:102A7000A5F914E07B1E00200C1A0020EC9C000835
:102A8000081A00206C1B00209348006800906E48D4
:102A9000036F6D48026E91497B4801F08FF97A48C7
:102AA00001F0A8F980B200F0EDFF0400E4B2002CC0
:102AB00022D15E4801F0CEF902005C4980208005F9
:102AC000104301F0BDFA594801F0C4F9020057491A
:102AD0008020C002104301F0B3FA544801F0BAF963
:102AE0000200524980204005104301F0A9FA0CE091
:102AF00084990008189B000854484078012101433C
:102B0000524841700D2048490870A3E000F0A1FF31
:102B10004D48842140560021C94388421CD14A486F
:102B2000852140560021C943884215D14648006F8F
:102B3000002803D04448406F00280DD14248006F60
:102B4000002809D04048406F002805D13E48026F58
:102B5000D2494D4801F032F94B4801F04BF980B2AF
:102B600000F090FF0400E4B2002C08D03748407811
:102B700001210143354841700D202B49087069E05F
:102B800000F067FF5448006800902F48036F2E48FC
:102B9000026ED3493C4801F011F93B4801F02AF993
:102BA00080B200F06FFF0400E4B2002C14D11F4883
:102BB00001F050F902001D498020C004104301F0CB
:102BC0003FFA1A4801F046F9020018498020C00275
:102BD000104301F035FA08E01C4840780121014318
:102BE0001A4841700D201049087033E0CC1C0020B9
:102BF000F89E0008154840780121014313484170B0
:102C00000D200949087000201049487522E00F483E
:102C10004078012101430D484170002002490870AD
:102C200000200A49487515E0681A0020781E002027
:102C300010E0B64801F00EF90200B449202010431C
:102C400001F0FEF906E000BF80190020141E0020EC
:102C5000309B0008AD4801F0FDF801000904C90FE0
:102C6000002913D0A94801F0F5F80200A749A848A7
:102C7000104001F0E5F9A748006880B202F0DAFFE1
:102C80006DE100BF089F0008800F00209F4801F001
:102C9000E1F801004902C90F002921D09E480078BF
:102CA000C0B2C0080100C907C90F002918D0974851
:102CB00001F0D0F8020095499848104001F0C0F9A1
:102CC00003F002F84BE100BF009D0008149D0008CE
:102CD000FC9F0008189F0008401A00207898000800
:102CE0008F4801F0B7F80100C900C90F002928D0AA
:102CF0008B4801F0AFF8020089498A48104001F082
:102D00009FF9022001908848008800908748036856
:102D1000874A88484078C0B2C0084007400F010089
:102D200049B20020C04303F04BF98026B6000025CD
:102D30007F4F2A003100380001F064F800F064FA97
:102D40000DE1774801F086F801008900C90F0029DC
:102D50002BD0734801F07EF802007149BA48104048
:102D600001F06EF9022001906F48008800906F48D2
:102D700003686F4A6F484078C0B2C0084007400FF0
:102D8000010049B26B48C0784007401740B203F0D9
:102D900017F98026B6000025654F2A00310038005B
:102DA00001F030F800F030FAD9E05D4801F052F857
:102DB000C00F002817D0A5485E4989794907490FF7
:102DC000405C002806D002215A4880794007400F15
:102DD00000F0F6FD524801F03DF85149400040082E
:102DE00001F02EF9BBE04E4801F034F80100490033
:102DF000C90F002918D00221954803F0E2F80220FB
:102E00004549C874464801F025F8020044499148F4
:102E1000104001F015F93D4801F01CF83B4908222B
:102E2000904301F00DF99AE08B4801F013F801008E
:102E30008901C90F002933D0874801F00BF802003F
:102E400085498648104001F0FBF8854801F002F8FA
:102E500001008900C90F002903D0354803F0B2F8FA
:102E600010E07F4800F0F6FF01004900C90F00297B
:102E700003D02F4803F0A7F804E07A4801882C48D3
:102E800003F05EFB8026B6000025294F2A003100A2
:102E9000380000F0B7FF00F0B7F960E0289F0008A5
:102EA0006D4800F0D7FF01004901C90F002919D072
:102EB0001F4803F087F88026B60000251C4F2A0023
:102EC0003100380000F09EFF00F09EF9624800F0EB
:102ED000C1FF02006049C048104001F0B1F83EE077
:102EE000A09900085E4800F0B5FF01008904C90FF1
:102EF000002921D003F080FB594800F0ABFF02000D
:102F00005749C048104001F09BF828E0781E002087
:102F1000FF7FFFFF201A0020141E0020FFFFBFFFCD
:102F2000791E0020FFFFFFEF161A0020341A002040
:102F30008013002080190020494800F08BFF010019
:102F40004904C90F00290AD003F057FB444800F098
:102F500081FF02004249B048104001F071F8AF48CB
:102F6000807D002800D19FE0012800D1A3E0022845
:102F700000D1A7E0032800D1ABE0042800D1AFE0E6
:102F8000052800D1B3E0062800D1BEE0072800D113
:102F9000C2E0082800D1C6E009284BD00A2863D037
:102FA0000B2867D00C286CD00D2800D1A6E00E2885
:102FB0002BD00F2800D102E1102800D1BAE011284F
:102FC00000D1C5E0122800D1C9E0132800D1CDE01E
:102FD000142800D1F3E0152800D1B2E0162800D162
:102FE000CBE0172800D1CFE0182800D1D3E0192872
:102FF00000D1D7E01A2800D1DBE01B2848D01C28DC
:103000004CD0FF2800D1DAE0D9E084484078C0B243
:1030100040084007400F02280BD180484078F1213A
:103020000140801C0E2202400A437C48427003F09B
:1030300072FAC4E0BD480078002804D10120BB49E1
:10304000087003F070FABAE0FFFFFFDF8C1E00206B
:1030500084190020FFFFFFBF7A1E0020FFFFFFFD45
:10306000781E0020121A002003F0C8FAFF206B49D6
:103070008875A4E0AE4803F0C2FAFF20674988755E
:103080009DE0AB4803F0BCFAFF206449887596E0E8
:1030900003F0B7FAFF206149887590E003F0B1FAB8
:1030A000FF205E4988758AE0FF205C498875112001
:1030B00003F0A8FA83E0FF2058498875142003F034
:1030C000A1FA7CE0FF2055498875132003F09AFA95
:1030D00075E0FF2051498875152003F093FA6EE0E2
:1030E000FF204E498875162003F08CFA67E0FF2018
:1030F0004A4988751B2003F085FA60E0FF204749A4
:1031000088751C2003F07EFA59E0FF20434988753A
:10311000172000F04DFE52E0FF2040498875122034
:1031200000F046FE4BE0FF203C498875182000F077
:103130003FFE44E0FF20394988751D2003F063FA03
:103140003DE0FF20354988751E2003F05CFA36E02B
:10315000FF2032498875192003F055FA2FE0FF202F
:103160002E4988751A2003F04EFA28E0FF202B49DB
:103170008875062003F047FA21E0FF20274988756B
:103180001F2003F041FA1AE0FF202449887520200F
:1031900003F03AFA13E0FF2020498875212003F05C
:1031A00033FA0CE0FF201D498875222003F02CFA29
:1031B00005E0FF201949887503F027FAFFE705B0FD
:1031C000F0BD0020154988601448007804210143AF
:1031D0001248017070470000FFFFFFFB00200F49FD
:1031E00088600E480078FB2101400C4801700120E6
:1031F0000A494874704709480078F7210140074898
:1032000001707047FFDFFFFF044800780821014389
:103210000248017070470000FFBFFFFF141E00202E
:1032200080B58F480078C0B280080100C907C90F77
:1032300000290AD08A480078C0B2C0080100C90736
:10324000C90F002901D000F0D3F8864800F002FE33
:1032500001000901C90F00290FD0834800F04EFF7B
:1032600000280AD07F4800F0F5FD7E497F4A0240E1
:10327000100000F0E5FEFFF7B0F87D4800F0EAFD31
:103280000100C906C90F002913D07A48006801005F
:10329000491C784A1160784988420AD3744800F082
:1032A000D9FD73491022904300F0CAFE00207149F5
:1032B00008606C4800F0CEFD0100C900C90F00296C
:1032C00028D06E4800680100491C6C4A1160FA2140
:1032D000C90088421ED3664800F0BCFD0100090603
:1032E000C90F002909D0624800F0B4FD604980226E
:1032F0000243100000F0A4FE0AE05D4800F0AAFDC1
:1033000001000906C90F002902D11B205449887504
:1033100000F024FC01BD10B50400554800F09AFDF2
:1033200053490822904300F08BFE10BDCB1E0020B5
:10333000CF19002010B504004D4800F08BFD4C491A
:103340004F4A0240100000F07BFEFFF747FF72B6C5
:103350004C49454800F0ECFE62B6FFF732FF4248A8
:1033600000F0C2FE002811D03E4800F073FD0200BC
:103370003C4980200005104300F062FE01228021BC
:103380004901A020C00501F07BFB18E0384800F09F
:1033900061FD01000905C90F002910D10122394939
:1033A000394801F04AFD002809D1314800F052FDAA
:1033B00002002F4980204001104300F041FE10BD63
:1033C00000B5274840780100C907C90F002901D17D
:1033D00000BFF6E722484078FE21014020484170B6
:1033E0002A48007800BD10B5040000F044FB10BD71
:1033F00080B572B61C4800F0B9FE2549086062B677
:1034000023480068002803D021480068FCF78CFEA0
:10341000204800F01FFD01008901C90F00291CD0C0
:103420001D480068401C1C4908601B480068332880
:1034300013D3002018490860164800F00BFD154909
:10344000164A0240100000F0FBFD094800F002FDA2
:1034500007490822904300F0F3FD01BD0000000081
:10346000141E00207A1E0020CC1C0020FFFFFFF756
:10347000781E0020481A00206C070000441A002023
:10348000FFEFFFFFCE1900206C1B0020681A002000
:10349000001A0020791E00202C1A0020FFFFFFFDDB
:1034A00010B50400207801285ED0042869D00528D2
:1034B0006BD008286DD009286FD00A2871D00B284E
:1034C00073D00C2875D00F2877D0142879D01628FF
:1034D0007BD017287DD0182800D17EE01A2800D193
:1034E0007FE01B2800D180E01F2800D181E0202848
:1034F00000D182E0232800D1B7E0242800D1BEE02B
:10350000262800D1BFE0282800D1C6E0292800D114
:10351000D0E02A2800D1DAE02B2800D1DBE02C28EB
:1035200000D1DCE0372800D1DDE03A2800D11FE1EE
:103530003D2800D18EE13E2800D1A6E13F2800D1F0
:10354000BAE1402800D12AE1422800D1E5E1432830
:1035500000D1B5E1442800D1BDE1452800D1C7E143
:10356000462800D1CEE1E2E1FF20D0498875002055
:10357000CF490870CF48007AE7210140CD48017259
:10358000D5E10720C9498875D1E10020C749887570
:10359000CDE10120C5498875C9E10220C34988757C
:1035A000C5E10320C1498875C1E10420BF49887580
:1035B000BDE10620BD498875B9E10820BB49887581
:1035C000B5E11120B9498875B1E11220B749887574
:1035D000ADE11320B5498875A9E10920B349887583
:1035E000A5E10A20B1498875A1E10520AF49887598
:1035F0009DE10D20AD49887599E1AC484078C0B295
:1036000040084007400F022809DAA8484078F12115
:103610000140801C0E2202400A43A4484270A34885
:10362000007810210143A14801700E209F49887540
:10363000BF4800F00FFC01008906C90F002913D014
:10364000BB4800F007FCBA492022904300F0F8FC88
:10365000B74800F0FFFB0200B549B648104000F043
:10366000EFFC1C209149887561E1B14800F0F2FB44
:103670000200AF49B048104000F0E2FC57E11620CC
:103680008A49887553E189480078EF2101408748CD
:1036900001700F208549887549E100208449087030
:1036A0008448007AE72101408248017210207F4956
:1036B00088753CE100207E4908707E48007AE72149
:1036C00001407C4801721520784988752FE1172048
:1036D000764988752BE118207449887527E11920EF
:1036E0007249887523E1924800F0B4FB0100890219
:1036F000C90F002911D08E4800F0ACFB02008C49A4
:103700008E48104000F09CFC894800F0A3FB0200AA
:1037100087498B48104000F093FC60780007000F49
:1037200064490978C7220A40C0003821014011438A
:103730006048017083485F490978C9B2C9084907E0
:10374000490F405C002812D0794800F083FB02004A
:1037500077498020C003104300F072FC744800F0E9
:1037600079FB020072490820104300F069FCDEE09A
:1037700060780007000F4F498979F8220A40400716
:10378000400F10434B4988716F4800F063FB020003
:103790006D4980200006104300F052FCC7E0A0886D
:1037A0006A490860624800F055FB020060498020C9
:1037B0000003104300F044FC5D4800F04BFB0200A6
:1037C0005B490820104300F03BFC38480078C0B249
:1037D00040090100C907C90F00291FD1A07801289D
:1037E0000AD1534800F036FB51490122904300F0C2
:1037F00027FC00F0D5F92CE04D4800F02BFB02002F
:103800004B495348104000F01BFC494800F022FB94
:1038100047490822904300F013FC1AE0444800F0A6
:1038200019FB020042498020C002104300F008FC4E
:103830000520484908803E4800F00CFB02003C4946
:1038400080208003104300F0FBFB404800684249A1
:1038500008606CE041486178C9B20909C9B2082220
:103860005143401861780907090F0122425430483A
:1038700000F0F0FA02002E4980208001104300F091
:10388000DFFB01203649087051E0294800F0E2FAD8
:10389000020027498020C001104300F0D1FB002026
:1038A0003049087000202E49087040E0141E0020A6
:1038B000CB1E0020801900201A202B49887536E085
:1038C0001B4800F0C7FA020019498020400010434D
:1038D00000F0B6FB2BE0164800F0BCFA02001449D9
:1038E0001448104000F0ACFB1C201F4988751EE0F6
:1038F0000F4800F0AFFA02000D498020104300F09D
:103900009FFB14E00A4800F0A5FA09498022904381
:1039100000F096FB00F013F909E0054800F09AFA70
:10392000020003494020104300F08AFBFFE710BD6E
:10393000781E0020FFFEFFFFFFFDFFFFFFFFDFFF00
:10394000FFFFFBFF8C1E0020791E0020281A00209C
:10395000FFFFF7FF1A1A0020241A0020681E00201B
:10396000CC1E0020CD1E0020141E0020F8B506003D
:103970000D0014001F0000F04FF80C4806660B48BD
:1039800045660B4804600948C7720620094908705B
:1039900072B60A4803C80A000100074800F089FA15
:1039A00062B6064800F034FBF1BD0000801900202B
:1039B000401A0020F21C0020E01C0020EC1C00201B
:1039C00038B505000C0000F027F8E4B2022C03D152
:1039D00015200F49087005E0E4B2012C02D1232024
:1039E0000B49087020480078F02101402807000F9B
:1039F00008431D49087072B6604803C80A000100F8
:103A0000044800F056FA62B65C4800F001FB31BD94
:103A1000F21C0020E01C002000B56948007801007D
:103A2000C907C90F002911D165480078C0B2400804
:103A30000100C907C90F00290AD061484078C0B207
:103A400000090100C907C90F002901D100BFE4E73F
:103A500000BD70B58024E40000255A4E2A002100E4
:103A6000300000F0CFF970BDED1C002080B50020C3
:103A700002F0FFFD01BD80B5002002F0FAFDFEF767
:103A8000ACFC01BD10B504004D480078C0B200097F
:103A90000100C907C90F00290AD149480078C0B2FE
:103AA00080090100C907C90F002901D1052045E09F
:103AB000AF4800F0CFF90100C905C90F002907D1AF
:103AC000AB4800F0C7F901000906C90F002901D071
:103AD000102033E0A64800F0BDF90200A449802080
:103AE0000001104300F0ACFAA4B2002C04D19248BB
:103AF00000F0DEFA1F2021E0FA239B00220092B2A0
:103B000030498E4801F04BF8002803D0FFF7B3FF8F
:103B10000F2013E0964800F09DF902009449954863
:103B2000104000F08DFA924800F094F90100C904A9
:103B3000C90F002901D1FEF750FC002010BD00B5CF
:103B40008D4800F087F98C4980225205024310000D
:103B500000F076FA00208C49086000BD00B5864868
:103B600000F078F98449854A0240100000F068FAB4
:103B700000208549086000BD00000000EC1C00200A
:103B800010B50024FFF765FF7D49804800F016F965
:103B90007E4800F02FF980B2FFF774FF040010BDDB
:103BA00010B50024FFF755FF7649784800F006F974
:103BB000764800F01FF980B2FFF764FF040010BDE3
:103BC000141E0020800F0020F3B583B00024FFF7FF
:103BD00040FF039A6E496D4800F0F0F86B4800F022
:103BE00009F980B2FFF74EFF0400E4B2002C18D1AF
:103BF000FFF7E6FB04001B4800F0FCF8009000987B
:103C00000290184D049E029A2900300000F022FA1A
:103C1000009801900026134F32000199380000F0FF
:103C2000F1F82000C0B205B0F0BD000070B506008C
:103C30000D000024FFF70DFF2B00320055495648B8
:103C400000F0BCF8544800F0D5F880B2FFF71AFF36
:103C50000400E4B2002C02D1FFF7B2FB0400200004
:103C6000C0B270BD8E19002070B506000D00002492
:103C7000FFF7EFFE2B0032004849474800F09EF85E
:103C8000454800F0B7F880B2FFF7FCFE0400E4B24C
:103C9000002C02D1FFF794FB04002000C0B270BDDD
:103CA00038B505000024FFF7D4FE2A003C493A4805
:103CB00000F084F8384800F09DF880B2FFF7E2FE8B
:103CC0000400E4B2002C02D1FFF77AFB04002000CC
:103CD000C0B232BD38B505000024FFF7BAFE2A0095
:103CE00030492D4800F06AF82B4800F083F880B284
:103CF000FFF7C8FE0400E4B2002C02D1FFF760FB1E
:103D000004002000C0B232BD10B50024FFF7A1FEB0
:103D10002549214800F052F81F4800F06BF880B2A6
:103D2000FFF7B0FE0400E4B2002C02D1FFF748FB1D
:103D300004002000C0B210BDB89800086C1B002021
:103D400010B50024FFF785FE1849134800F036F837
:103D5000114800F04FF880B2FFF794FE0400E4B27F
:103D6000002C02D1FFF72CFB04002000C0B210BDD4
:103D7000781E0020FFF7FFFF7A1E0020FFFFFFEFF5
:103D800088A0000890A00008441A0020800F00209E
:103D9000389F00083C9D0008800F0020509D0008BF
:103DA000289D00089898000898A00008A0A0000886
:103DB00070470268531C0360117070470CB41CB547
:103DC000040004A80190009401AB0A006946084869
:103DD00078441C3002F064FC0021009A1170002825
:103DE00001D40098001B02B0019910BC03B0084731
:103DF000C3FFFFFF010000E0491C0A78002AFBD145
:103E0000081A70471206130A1A43130C1A4300BF0C
:103E1000094205D0830705D00270401C491EF9D124
:103E200070470000130030B414001500103902D39D
:103E300010393CC0FCD2490700D30CC000D504C0E7
:103E4000890002D30280801C002900D5027030BC9A
:103E500070470000C3788278417800781B021A43CB
:103E600009021204084310437047200010B40823CD
:103E70001A0013000C006343838000230380002397
:103E8000C38000234380604B836010BC704700B543
:103E90008188C088C908884201D1012000E0002043
:103EA00000BD00B5C088002801D1012000E000203D
:103EB00000BD76B504002000FFF7E9FF00284CD1D3
:103EC0006088C0080500A068082169434018694659
:103ED00089888180A06808216943401869468978EB
:103EE0008170A068082169434018A16808226A43CC
:103EF00089184A78F02111406A4652781207120F49
:103F00000A434270A068082169434018A16808224A
:103F10006A43891849780907090F6A465278F023DD
:103F200013400B43437068460078A16808226A4337
:103F30008854A068082169434018694689798171CD
:103F4000E088401CE080608808306080A08806001F
:103F50006088310002F0DAFF618073BD70B5040043
:103F60002000FFF79EFF002801D000204AE02088B3
:103F7000C0080500A06808216943401880882349CB
:103F80008880A06808216943401840780007000F26
:103F90001E494978F0220A400007000F10431B49D0
:103FA0004870A0680821694340184078C0B20009F1
:103FB000164949780907090F000108431349487059
:103FC000A068082169434018807810498870A0686B
:103FD00008216943405C0D490870A06808216943C5
:103FE0004018807909498871208808302080E0884D
:103FF000401EE080A08806002088310002F086FF85
:104000002180024870BD0000DC1B0020841E0020BF
:1040100000218180002181714178F0220A4009212C
:10402000114341700921817063210170704738B5D7
:1040300005000C002100280002F0C2FF32BDFEE79F
:1040400084460870000A4870000A8870000AC87028
:1040500060467047124207D08B0706D00B78491C88
:104060000370401C521EF7D87047830706D00B78A8
:10407000491C0370401C521EF9D1704770B4103AAD
:1040800003D378C9103A78C0FBD2530701D318C9BB
:1040900018C001D508C908C0D20704D30B88038013
:1040A000891C801C002A01D50B78037070BC7047F6
:1040B0000EB400B582B003A900916B460200012145
:1040C000034878440A3002F0EBFA029906B0084738
:1040D000F15A00008160002202600022C2600022CA
:1040E0004260894A0261704700B5C068CE218900EC
:1040F000884201DB012000E0002000BD00B5C0685F
:10410000C92801DA012000E0002000BD00B5C06828
:104110008021C900884201D1012000E0002000BDBB
:1041200000B5C068002801D1012000E0002000BDDA
:10413000F8B504000D002000FFF7E8FF002814D1B7
:10414000E068401CE06060680100491C6160012675
:1041500021690F18320029003800FFF77BFF6068E3
:104160008021C90002F0D2FE6160F1BDF0B585B0DA
:104170000400664800902000FFF7D2FF002801D01D
:104180000020BEE08025AD000026604F32002900EF
:104190003800FFF737FE5E48FFF75CFE0100490379
:1041A000C90F002900D192E06768E068C82834DAB6
:1041B000E06858490880206887420CDB2068554930
:1041C0000988019121690D18009E019A290030008B
:1041D000FFF740FF1CE0256820688021C900491BCB
:1041E0000191216908180290009E019A02993000FD
:1041F000FFF730FF20682169039100994242881837
:104200008021C90046183A0003993000FFF722FFC9
:10421000606820600020E06072E02068874211DB67
:104220002068C825216908180190009E2A0001997C
:104230003000FFF70FFF2068C83020602068381A70
:10424000E06040E02068C8308021C900884214DA6C
:104250002068C825216908180190009E2A0001994C
:104260003000FFF7F7FE2068C83020608020C000D3
:104270002168401AC019E06025E025682068802187
:10428000C900491B0191216908180390009E019AF9
:1042900003993000FFF7DEFE20681F49491902919B
:1042A000216904910099424288188021C90046186A
:1042B000029A04993000FFF7CDFE1748401920609C
:1042C0002068381AE060C8201249088018E0206889
:1042D000012521690E18009F2A0031003800FFF7E0
:1042E000B9FE2068401C2060E068401EE0600120AC
:1042F0000849088020688021C90002F007FE21607B
:10430000009805B0F0BD0000800B00208015002053
:10431000781E0020181A0020C8FCFFFF10B5426864
:1043200003685B1A002B10D403685B1A03600368F0
:10433000934203DA0368D31AC36012E08023DB00E0
:1043400004681B1B9B18C3600BE003688024E40017
:10435000641A1B1903608023DB0004681B1B9B1875
:10436000C36010BD0121C206D20E9140414A1160C6
:1043700070470121C206D20E91403F4A116070473A
:10438000F0B540B2002821D53C4C40B20207120FD4
:10439000083A950804225543384A40B203071B0FD8
:1043A000083B9B0804267343D258FF238607B60FA9
:1043B00008277E43B3409A438B01DBB28607B60FD2
:1043C00008277E43B340134363511AE02C4A40B29E
:1043D000830804246343D258FF238407A40F0825CD
:1043E0006C43A3409A438B01DBB28407A40F0825DA
:1043F0006C43A3401343224A40B2840804256C4313
:104400001351F0BD10B50400601E8021490488429C
:1044100001D301200EE0601E1A490860032100202C
:10442000C043FFF7ADFF0020174908600720174978
:104430000860002010BD70B504000D0016002900B2
:10444000200040B2FFF79CFF70BD10B504002000B3
:1044500040B2FFF787FF10BD10B50400200040B246
:10446000FFF787FF10BD10B504002000FFF7CAFF5B
:1044700010BD000000E100E080E100E01CED00E084
:1044800000E400E014E000E018E000E010E000E0EC
:104490007047FEE770B502F0AFFD0400208880048D
:1044A0002DD565680026F64308E04A1B290002F076
:1044B000EBFDB0420DD000280BD02D180320205664
:1044C000E1688D42F1D30022002102F0DDFDB0420F
:1044D0000DD16068E0606061E06220888021890021
:1044E00001432180200002F088FD300070BD656826
:1044F000E5606561E5622088114901402180200066
:1045000002F07BFD002070BDF8B5002815D1C04633
:10451000C04600240B4D08260027FF4328680028CA
:1045200004D0FFF7B7FF002800D53C002D1D761EF4
:10453000F4D1C046C0462000F2BDFFF7ABFFF2BD8C
:10454000FFDF0000E000002010B50400002C01D1C6
:10455000012014E03520205C002805D10020342102
:104560006054200002F025FE022035216054211DF8
:10457000206800F0B7F8012035216054002010BDFC
:1045800001000868C068012202430868C260086828
:10459000006801220243086802600020704710B5DD
:1045A00004002068006980071BD52068C068800768
:1045B00017D50220C04321680861012020752068BA
:1045C00080698007800F002803D0200002F022FEBF
:1045D00005E0200002F01FFE200002F01DFE00207A
:1045E00020752068006940071CD52068C068400716
:1045F00018D50420C0432168086102202075206876
:104600008069C02189000140002903D0200002F008
:1046100001FE05E0200002F0FEFD200002F0FCFD9E
:10462000002020752068006900071BD52068C0683D
:10463000000717D50820C0432168086104202075B1
:104640002068C0698007800F002803D0200002F096
:10465000E1FD05E0200002F0DEFD200002F0DCFDBF
:104660000020207520680069C0061CD52068C0683D
:10467000C00618D51020C0432168086108202075A5
:104680002068C069C02189000140002903D02000B2
:1046900002F0C0FD05E0200002F0BDFD200002F0A8
:1046A000BBFD0020207520680069C0070AD520687E
:1046B000C068C00706D50120C043216808612000FA
:1046C00002F0D3FD2068006940060AD52068C06862
:1046D000400606D54020C04321680861200002F052
:1046E000EBFD10BD00B5002203681A008023DB0536
:1046F000984205D0174B984202D0174B984201D1EF
:10470000012300E00023DBB2002B04D070239A4386
:1047100013004A681A438023DB05984205D00D4BED
:10472000984202D00C4B984201D1012300E00023B3
:10473000DBB2002B05D01300084A1A401300CA68E8
:104740001A4302608B68C3620B6883620123436172
:1047500000BD00000008014000140140FFFCFFFF05
:10476000F0B502000023002400250868D840002886
:1047700000D1DDE0086801269E4006403400002C90
:1047800000D1D3E04868022802D0486812281BD123
:10479000D808042670431018006A05000F201E0078
:1047A0007607760F04277E43B040854308691E00D4
:1047B0007607760F04277E43B04028430500D808CB
:1047C00004267043101805624868012808D048681C
:1047D000022805D04868112802D0486812281CD148
:1047E0009068050003201E0002277E43B0408543E9
:1047F000C8681E0002277E43B0402843050095602C
:104800005068050001209840854348680600F60678
:10481000F60F9E402E4335005560106805000320BA
:104820001E0002277E43B040854308798007800F31
:104830001E0002277E43B040284305001560D06863
:10484000050003201E0002277E43B0408543886890
:104850001E0002277E43B04028430500D56048680B
:10486000C00063D58B48006801260643894806606E
:1048700089489E0804277E43805905000F201E00AA
:10488000B607B60F04277E43B0408543A020C0057D
:10489000824201D1002014E08048824201D10120EF
:1048A0000FE07F48824201D102200AE07D48824227
:1048B00001D1032005E07C48824201D1052000E0BF
:1048C00006201E00B607B60F04277E43B0402843DB
:1048D000050071489E0804277E438551734800688F
:1048E0000500A5434868C00300D525436F4805600F
:1048F0006F4800680500A5434868800300D525433C
:104900006B4805606B4800680500A5434868C00215
:1049100000D5254367480560674800680500A54342
:104920004868800200D52543634805605B1C1CE78E
:10493000F0BDF8B50022002300240D00D540002D65
:1049400000D19CE0012595400D402B00002B00D1AB
:1049500093E006680327BC46150002277D4367469F
:10496000AF40BE430660D50804267543451900953F
:10497000D5080426754345192F6A0F25AC46150046
:104980006E07760F04256E436546B540AF43009D24
:104990002F6286680327BC46150002277D436746C1
:1049A000AF40BE438660456801269640B5434560EA
:1049B000C6680327BC46150002277D436746AF4003
:1049C000BE43C660344D960804277E43AD592C0083
:1049D0000F251600B607B60F04277E43B5402540C5
:1049E0002C00A025ED05A84201D1002514E02B4D97
:1049F000A84201D101250FE0294DA84201D102258D
:104A00000AE0284DA84201D1032505E0264DA84221
:104A100001D1052500E006251600B607B60F0427CC
:104A20007E43B540AC4228D10F251600B607B60F1D
:104A300004277E43B5402C00174D960804277E437B
:104A4000AE59A643144FBC46950804277D436746DC
:104A50007E51164D2D689D43144E3560144D2D68C2
:104A60009D43134E3560134D2D689D43114E3560A7
:104A7000114D2D689D43104E3560521C5DE7F1BD10
:104A800000B5D2B2002A02D089B2816101E089B2B8
:104A9000816200BD34100240080001400004005053
:104AA00000080050000C0050001C005000040140A1
:104AB00004040140080401400C04014011B581B018
:104AC000002402F0FBFB040002F0F8FB001B01993C
:104AD0008842F9D313BDFEE710B50400002C01D1C4
:104AE000012033E0A0690028FFD16920205C002864
:104AF00005D1002068216054200002F0DBFA02207A
:104B00006921605420680068012188432168086099
:104B1000200000F03DFB606A002802D0200000F079
:104B200007FD206840680A4901402068416020680C
:104B300080682A21884321688860206800680121F4
:104B4000014320680160200000F0C0FC10BD00009F
:104B5000FFB7FFFF10B50400002C01D101201DE0BC
:104B6000022069216054206800680121884321687F
:104B7000086000202168086000202168486000204B
:104B800021688860200002F0F2FA0020E066002030
:104B900069216054002068216054002010BDF8B5E0
:104BA00005000C0016001F006920285C012803D0B6
:104BB0006920285C222863D1002C02D0B6B2002ED6
:104BC00001D101205DE06820285C012801D102208C
:104BD00057E00120682168540020E8666920285CBD
:104BE000222803D132206921685402E01220692171
:104BF000685450202E5252202E525220285A0028FB
:104C000024D05220285A401E522168523B000022D4
:104C10008021280000F004FD002801D0032030E0AE
:104C2000A8688021490188420BD12869002808D151
:104C3000009400980088C005C00D29688862A41CF3
:104C4000DBE7207829688862641CD6E73B000022F5
:104C50004021280000F0E4FC002801D0032010E0EF
:104C60006920285C322803D122206921685402E09F
:104C7000012069216854002068216854002000E068
:104C80000220F2BDF8B582B004000D0016006920C4
:104C9000205C012804D06920205C122800D08AE022
:104CA000002D02D0B6B2002E01D1012084E0682090
:104CB000205C012801D102207EE00120682160549F
:104CC0000020E0666920205C122803D1322069218F
:104CD000605402E0222069216054582026525A2054
:104CE0002652A0688021490188420AD12069002803
:104CF00003D18B485C21605220E0FF205C21605290
:104D00001CE0A06800280AD12069002803D1FF20F8
:104D10005C21605212E07F205C2160520EE0A068AE
:104D200080214905884209D12069002803D17F20CC
:104D30005C21605202E03F205C2160525C20205ADE
:104D400007005A20205A002825D05A20205A401EF9
:104D50005A216052029B00222021200000F060FCBA
:104D6000002801D0032027E0A06880214901884263
:104D70000AD12069002807D100952068406A384090
:104D800000990880AD1CDCE72068406A39000140CA
:104D900029706D1CD5E76920205C322803D11220D0
:104DA0006921605402E001206921605400206821DB
:104DB0006054002000E00220FEBD10B50300692011
:104DC000185C012803D06920185C222833D10029FF
:104DD00002D092B2002A01D101202DE06820185C97
:104DE000012801D1022027E0012068241855D96448
:104DF00050201A5252201A520020D8666920185C9E
:104E0000222803D132206924185502E01220692497
:104E1000185518680068802464000443186804600A
:104E20000020682418551868006880240443186816
:104E30000460002000E0022010BD10B503006920CE
:104E4000185C012803D06920185C122866D100295B
:104E500002D092B2002A01D1012060E06820185CE3
:104E6000012801D102205AE0012068241855596513
:104E700058201A525A201A52986880246401A0427D
:104E80000AD11869002803D125485C24185320E072
:104E9000FF205C2418531CE0986800280AD1186988
:104EA000002803D1FF205C24185312E07F205C24EB
:104EB00018530EE0986880246405A04209D118694F
:104EC000002803D17F205C24185302E03F205C249B
:104ED00018530020D8666920185C122803D13220AC
:104EE0006924185502E022206924185518680068C2
:104EF00080246400044318680460186880680124F2
:104F000004431868846000206824185518680068F5
:104F10002024044318680460002000E0022010BD33
:104F2000FF01000010B504002068C069C0070DD55E
:104F300020680068C00509D5012021680862E06E7C
:104F400001210143E1660120692160542068C069A4
:104F500080070DD520688068C00709D50220216828
:104F60000862E06E04210143E1660120692160547A
:104F70002068C06940070DD520688068C00709D542
:104F8000042021680862E06E02210143E1660120ED
:104F9000692160542068C06900070DD520688068C9
:104FA000C00709D5082021680862E06E0821014386
:104FB000E166012069216054E06E002802D02000E3
:104FC00002F05FF92068C069C0020DD520688068D2
:104FD000400209D580204003216808620120692130
:104FE0006054200002F070F92068C069800606D580
:104FF00020680068800602D5200000F06DF8206867
:10500000C069000606D520680068000602D52000A9
:1050100000F00CF82068C069400606D520680068DA
:10502000400602D5200000F03FF810BD00B5010099
:105030006920085C122803D06920085C322831D12D
:105040005220085A00280DD1086800688023984330
:105050000B68186008680068402303430868036011
:10506000002020E0886880235B0198420DD1086908
:1050700000280AD1C86C02001088C005C00D0B685A
:105080009862C86C801CC86405E0C86C431CCB6483
:1050900000780B6898625220085A401E5223C8526A
:1050A000002000E0022000BD10B504002068006868
:1050B00040218843216808606920205C322803D1A0
:1050C00022206921605402E00120692160542000FF
:1050D00002F0D1F8002010BD70B504005C20265A03
:1050E0006920205C222803D06920205C32284AD124
:1050F000A0688021490188420CD12069002809D18B
:10510000606D05002068406A30402880606D801C1A
:10511000606507E0606D411C61652168496A320085
:105120000A4002705A20205A401E5A2160525A20CA
:10513000205A002825D12068C0698006FBD4206849
:10514000006820218843216808606920205C32289B
:1051500003D11220692160540EE0206800680B49D9
:10516000014020680160206880680121884321682F
:105170008860012069216054200002F070F800204E
:1051800002E0002000E0022070BD0000FFFEFFFFF3
:10519000FEB50400002002900025002600272068AC
:1051A000B7498842FFD0A06821690143606908437C
:1051B000E1690143029120680068B2490140029808
:1051C00008432168086020684068AF490140E068F2
:1051D000084321684860A06902902068A849884275
:1051E00003D00298216A0143029120688068B34984
:1051F000014002980843216888602068B0498842CD
:1052000018D1B04800688007800F002805D0022818
:1052100006D008D3032809D00BE0012005004BE09D
:105220000220050048E00420050045E008200500B4
:1052300042E041E02068A449884219D1A1480068B1
:105240000C210140002906D004290AD0082905D0E4
:105250000C2909D00BE0002005002DE002200500FC
:105260002AE00420050027E00820050024E023E0D0
:105270002068834988421FD192480068C0210901F3
:10528000014000290CD08020C00081420ED0802037
:105290000001814207D0C0200001814209D00BE00B
:1052A0000020050008E00220050005E004200500BC
:1052B00002E008200500FFE720687149884268D1B4
:1052C0002800002806D002281CD004283AD008283C
:1052D00050D05DE002F01DFC02F04CFC0022904B2F
:1052E00002F058FC00900191606802F043FC02005B
:1052F0000B000098019902F00FFD02F06FFD21688C
:10530000C860DAE087480068C0060DD5606802F022
:1053100031FC02000B000020834902F0FDFC02F08A
:105320005DFD2168C8600CE0606802F023FC0200AB
:105330000B0000207D4902F0EFFC02F04FFD2168D8
:10534000C860BAE002F068FB02F014FC0022744B63
:1053500002F020FC00900191606802F00BFC02005A
:105360000B000098019902F0D7FC02F037FD21688C
:10537000C860A2E0606802F0FDFB02000B000020A4
:10538000A34902F0C9FC02F029FD2168C86094E03D
:1053900093E0E0698021090288424AD12800002870
:1053A00008D001280FD0022816D0042824D00828BD
:1053B0002BD031E002F0ADFB02214843616801F0DF
:1053C000A8FD070028E002F0B3FB02214843616812
:1053D00001F09FFD07001FE052480068C00605D598
:1053E0008C48616801F095FD070004E08A48616817
:1053F00001F08FFD07000FE002F00EFB0221484391
:10540000616801F086FD070006E0802040026168C7
:1054100001F07FFD0700FFE78048384006003807AD
:10542000000FC0B24008C0B20643B6B22068C660E2
:1054300043E02800002808D001280ED0022814D00C
:1054400004282AD0082830D037E002F062FB6168D7
:1054500001F05FFD2168C8602FE002F069FB616820
:1054600001F057FD2168C86027E02E480068C0069B
:105470000CD5A248616801F04CFD2168C8600BE0C2
:1054800000480040F369FFEFFFCFFFFF9C486168D1
:1054900001F03FFD2168C8600FE002F0BDFA6168CD
:1054A00001F037FD2168C86007E0802000026168D4
:1054B00001F02FFD2168C860FFE7F7BDFFF4FFFF93
:1054C000003801404C1002400044004010B5040078
:1054D0002068006800070AD58A4B002280218903D2
:1054E000200000F09DF8002801D0032017E020687C
:1054F000006840070AD5834B00228021C9032000A1
:1055000000F08EF8002801D0032008E00020682178
:1055100060540020E066012069216054002010BD25
:1055200000007040001002408084CE418084EE4133
:1055300000B52421415CC90707D501684968724A52
:105540000A40816A1143026851602421415C890745
:1055500007D5016849686D4A0A40C16A114302686B
:1055600051602421415C490707D501684968684AB0
:105570000A40016B1143026851602421415C090714
:1055800007D501684968634A0A40416B11430268C4
:1055900051602421415CC90607D5016889685E4ACB
:1055A0000A40816B1143026891602421415C8906A5
:1055B00007D501688968594A0A40C16B11430268DE
:1055C00091602421415C490614D501684968544A18
:1055D0000A40016C114302685160016C8022520341
:1055E000914207D1016849684E4A0A40416C114313
:1055F000026851602421415C090607D501684968A9
:10560000494A0A40816C11430268516000BD0000A4
:105610000000604100127A000048E801F0FF00003D
:10562000F4B504000F001D00002601F047FE06003F
:105630006846007800282FD12068C0693840B842F9
:105640005AD00020C0438542F6D0002D04D001F08E
:1056500035FE801B8542EFD2206800688021884398
:10566000216808602068006820218843216808605C
:10567000206800682D49014020680160206880682A
:10568000012188432168886001206921605400203D
:1056900068216054032030E02068C0693840B84277
:1056A0002AD10020C0438542F6D0002D04D001F05D
:1056B00005FE801B8542EFD2206800688021884368
:1056C00021680860206800682021884321680860FC
:1056D00020680068154901402068016020688068E2
:1056E00001218843216888600120692160540020DD
:1056F00068216054032000E00020F2BD00093D0055
:105700000024F400F0550000FFFFFDFFFFFFFEFF47
:10571000FFFFFBFFFF7FFFFFFFEFFFFFFFDFFFFF4D
:10572000FFFFEFFFFFFF9FFFFFFFF7FFFFFEFFFF02
:1057300038B505000024B048FEF7BAFCAF48FEF7C4
:10574000B7FCAF48FEF7B4FCAE48FEF7B1FCFCF77F
:1057500005FD012000F0C2FBFCF7F0FDFEF7D4FAD6
:105760000400E4B2002C02D02000C0B23DE20121CE
:10577000A548FEF779FA0400E4B2002C02D020001C
:10578000C0B232E2286B00280AD0296BAD48FEF780
:105790006BFA0400E4B2002C02D02000C0B224E274
:1057A0000021A948FEF760FA0400E4B2002C02D000
:1057B0002000C0B219E22878002802D0012817D0B2
:1057C0002DE00021AF48FEF74FFA0400E4B2002CB0
:1057D00002D02000C0B208E2AB49AC48FEF726FA7E
:1057E0000400E4B2002C02D02000C0B2FDE116E0BB
:1057F0000121A448FEF738FA0400E4B2002C02D0DC
:105800002000C0B2F1E1B249A048FEF70FFA04004F
:10581000E4B2002C02D02000C0B2E6E1FFE76878D5
:10582000002803D0022866D022D3A7E00021A9488F
:10583000FEF71AFA0400E4B2002C02D02000C0B235
:10584000D3E10021B348FEF70FFA0400E4B2002CC4
:1058500002D02000C0B2C8E10021AF48FEF704FA30
:105860000400E4B2002C02D02000C0B2BDE185E00B
:1058700001219848FEF7F8F90400E4B2002C02D0A8
:105880002000C0B2B1E10B21A448FEF7EDF90400FD
:10589000E4B2002C02D02000C0B2A6E10021A04852
:1058A000FEF7E2F90400E4B2002C02D02000C0B2FE
:1058B0009BE100219B48FEF7D7F90400E4B2002CDD
:1058C00002D02000C0B290E100219248FEF7CCF94E
:1058D0000400E4B2002C02D02000C0B285E1002117
:1058E0008D48FEF7C1F90400E4B2002C02D020007C
:1058F000C0B27AE142E001217648FEF7B5F9040032
:10590000E4B2002C02D02000C0B26EE10C2183482A
:10591000FEF7AAF90400E4B2002C02D02000C0B2C5
:1059200063E10A217E48FEF79FF90400E4B2002CEF
:1059300002D02000C0B258E101217A48FEF794F964
:105940000400E4B2002C02D02000C0B24DE10121DD
:105950007048FEF789F90400E4B2002C02D0200060
:10596000C0B242E100216C48FEF77EF90400E4B2C7
:10597000002C02D02000C0B237E1FFE7A878002851
:1059800003280DD8A978062041439848FEF76CF902
:105990000400E4B2002C02D02000C0B225E1FFE7F1
:1059A000E878002802280BD8E9789148FEF75CF9DE
:1059B0000400E4B2002C02D02000C0B215E1FFE7E1
:1059C000686800280AD069688A48FEF72FF9040041
:1059D000E4B2002C02D02000C0B206E1A868002882
:1059E00014D0A9688448FEF721F90400E4B2002C21
:1059F0000CD02000C0B2F8E0A09A0008149900086A
:105A000058980008889C0008189E0008E86800283C
:105A10000AD0E9687948FEF709F90400E4B2002CDD
:105A200002D02000C0B2E0E0286900280ED0296929
:105A30007348FEF7FBF80400E4B2002C06D0200007
:105A4000C0B2D2E0289E0008A89F0008686900281C
:105A50000AD069696B48FEF7E9F80400E4B2002C4B
:105A600002D02000C0B2C0E0E869002810D0E96987
:105A70006548FEF7DBF80400E4B2002C08D02000F3
:105A8000C0B2B2E0389E0008B49F00089C9C000899
:105A9000286A00280AD0296A5C48FEF7C7F8040083
:105AA000E4B2002C02D02000C0B29EE0686A002858
:105AB00012D0696AFA20800041435548FEF7D4F8B5
:105AC0000400E4B2002C07D02000C0B28DE000BF7B
:105AD000C09F0008489E0008A86A00280AD0A96A4A
