:020000040800F2
:1000000080050020F59D0008F96F0008FB6F0008CF
:10001000057000080F70000819700008000000004B
:100020000000000000000000000000002370000835
:100030002D70000800000000377000084D700008A7
:10004000F59F0008F99F0008FD9F000801A0000827
:1000500005A0000809A000080DA0000811A00008D4
:1000600015A0000819A000081DA0000821A0000884
:1000700025A0000829A000082DA0000831A0000834
:1000800035A0000839A000083DA0000841A00008E4
:1000900045A0000849A000084DA0000851A0000894
:1000A00055A0000859A000085DA0000861A0000844
:1000B000437000083970000865A0000869A00008B6
:1000C0006DA0000871A0000875A0000879A00008C4
:1000D0007DA00008897000089370000881A00008C6
:1000E00085A0000889A000088DA000082DE9F04136
:1000F0000400002503F050FDE4B222001349144827
:1001000003F0FEFEFF2013498875114803F012FF2B
:1001100080B203F05FFD0500EDB2002D02D0280093
:10012000C0B210E001260027DFF82C803A00310031
:10013000404603F01BFF0748807D0E2801D000BF1A
:10014000F9E72800C0B2BDE8F0810000A89E0008D1
:10015000800F0020F81E00200E1F00202DE9F04F18
:100160008BB0040000250020029020780500DFF805
:10017000080E0068C0F3804000280FD1EDB2002DBA
:100180000CD0DFF8F80DDFF8F81D09684554DFF8EA
:10019000F00D0068401CDFF8E81D0860DFF8E40D92
:1001A00003F0D2FFDFF8D40DDFF8D41D096808444E
:1001B00010F8020C0D2840F03384DFF8C00DDFF892
:1001C000C01D0968084410F8010C0A2840F0288472
:1001D000DFF8A40D0068C0F30070002840F0208410
:1001E000DFF8A40D007810F00100002840F018841A
:1001F000DFF8981DDFF8840D03F0B5FF002867D005
:1002000003F06EF8DFF8740D01F01CFD03F058F8F0
:10021000DFF8640DD0F80100C0F30060002810D1B1
:1002200072B6DFF86C0DD0E9082311001A00DFF870
:10023000640D03F0EDFE62B6DFF8480D03F084FFB5
:100240001CE0DFF8340D0068C0F34000002815D131
:10025000DFF8300D03F078FFDFF81C0DD0F8010057
:1002600030F08070DFF8101DC1F80100DFF8080DD4
:10027000006850F00200DFF8001D0860DFF8F80C9D
:10028000D0F80100C0F38060002809D1DFF8E80C45
:10029000D0F8010030F08070DFF8DC1CC1F80100FC
:1002A0000020DFF8DC1C0860DFF8CC0C006810F0E0
:1002B0000260B0F1026F09D1DFF8BC0C006830F0C9
:1002C0000060DFF8B41C086000F0C8BC01F0A3BCFB
:1002D000DFF8C81DDFF8A40C03F045FF002800F08C
:1002E000C181DFF8BC1DDFF8940C03F03CFF060071
:1002F00000282CD030798DF8040070798DF8050035
:100300009DF804000A219DF8052001FB0020DFF87C
:10031000801C91F8211060F30301DFF8740C80F861
:1003200021100F20DFF8681C81F8260072B6DFF874
:10033000600CD0E9082311001A00DFF8580C03F014
:1003400067FE62B6DFF83C0C03F0FEFE68E1DFF802
:10035000541DDFF8280C03F006FF0600002800F00B
:10036000A780707A8DF80000B07A8DF80100F07ADD
:100370008DF80200307B8DF803009DF801000D28F8
:1003800007D19DF800003038DFF81C1DC1F8A0002F
:1003900042E09DF802000D280DD19DF800000A21D1
:1003A0009DF8012001FB0020B0F50470DFF8F81C77
:1003B000C1F8A00030E09DF803000D2813D19DF88E
:1003C000000064219DF801200A235A4301FB00200C
:1003D0009DF802100818DFF8D41C0818DFF8C81CB4
:1003E000C1F8A00018E09DF800004FF47A719DF864
:1003F000012064235A4301FB00209DF802100A22C9
:1004000002FB01009DF803100818DFF8A41C08186F
:10041000DFF8941CC1F8A000DFF88C0CD0F8A00025
:10042000002808D0DFF8500B006850F40040DFF8D7
:10043000481B0860F4E0DFF8700CD0F8A00000283A
:1004400040F0EE80DFF8600CDFF85C1C0978C1F347
:10045000C201C9B2084490F8E90000281FD0DFF8B3
:10046000540CDFF8441C0978C1F3C201C9B2405CE6
:10047000002808D00221DFF8300C0078C0F3C20059
:10048000C0B203F039FBDFF8200CDFF81C1C097840
:10049000C1F3C201C9B20844002180F8E910DFF8B5
:1004A000D80A006830F00800DFF8CC1A0860B7E01E
:1004B00015A1DFF8C80A03F056FE0600002825D073
:1004C0000320DFF8CC1A81F82600300003F032FD5B
:1004D000B0F10B0716F10308DFF8DC9B3A00414648
:1004E000484603F049FE72B6DFF8A42AD2E90801B3
:1004F0000A000100DFF89C0A03F08AFD62B6DFF80B
:10050000840A03F021FE8BE0203D2000DFF8780A0A
:100510000078C0F34000C0B2002864D0DFF8680A59
:100520004078C0F30010C0B2002871D0DFF8780B1B
:10053000C079C0F3C200C0B200280BD0DFF8680B4E
:10054000C07910F0C701083810F038000843DFF810
:10055000581BC871DFF8300A007810F0FD00DFF892
:10056000281A08700020DFF84C1BDFF83C2B52796A
:1005700012F00F028854DFF8300B407910F00F00B2
:10058000DFF8241B0871DFF8000A407810F0EF0054
:10059000DFF8F41948700220DFF8EC19C874DFF8AE
:1005A000D8098079C0F38000C0B200280AD0DFF8F3
:1005B000C809D0F8010050F08040DFF8BC19C1F83C
:1005C000010007E0DFF8B009807950F00400DFF89F
:1005D000A8198871DFF8A009006830F00800DFF87A
:1005E0009819086014E00220DFF8A41981F82600A9
:1005F00072B6DFF89C09D0E9082311001A00DFF871
:10060000940903F005FD62B6DFF8780903F09CFD5C
:10061000DFF87409007810F0FD00DFF86C1908703D
:100620000020DFF85C1908604FF400775FF00008E5
:10063000DFF8489942463900484603F097FCDFF856
:100640003809006810F00260B0F1026F08D1DFF8DD
:100650002809006830F00060DFF81C190860FDE22E
:1006600001F0D9BADFF8B41DDFF8100903F07BFD03
:10067000002800F0EB80DFF8A81DDFF8000903F088
:1006800072FD002837D0DFF89C0D03F0B1FDDFF8D4
:10069000F808007810F0FD00DFF8EC180870DFF8BB
:1006A000E808407810F0EF00DFF8DC184870DFF859
:1006B000C8088079C0F38000C0B2002807D1DFF8F5
:1006C000B808807950F00400DFF8AC188871012078
:1006D000DFF8D419DFF8D029527912F00F02114453
:1006E00081F8E900DFF89008006830F00800DFF8D2
:1006F0008818086088E0DFF8301DDFF8800803F014
:1007000032FD002807D1DFF8241DDFF8700803F060
:100710002AFD002831D0DFF860080068C0F3C0402F
:10072000002871D0DFF85008006830F40020DFF8AE
:1007300048180860DFF84008006830F00800DFF86B
:1007400038180860DFF83008006830F40010DFF86F
:1007500028180860DFF82008006830F48020DFF8EF
:10076000181808600020DFF84019A1F89600002052
:10077000DFF83419C1F8B40046E0DFF8B41CDFF844
:10078000FC0703F0F0FC002803D0DFF8A80C03F00E
:100790002FFD0820DFF8F81781F8260072B6DFF881
:1007A000F007D0E9082311001A00DFF8E80703F08A
:1007B0002FFC62B6DFF8CC0703F0C6FCDFF8B80701
:1007C0000068C0F3C000002807D0DFF8AC0700685D
:1007D00030F00800DFF8A0170860DFF89C07D0F8B9
:1007E0000200C0F3407000280ED0DFF88C07D0F86C
:1007F000020030F00050DFF88017C1F8020000203E
:10080000DFF8A418C1F8CC000020DFF874170860E6
:100810004FF400775FF00008DFF860974246390038
:10082000484603F0A3FBDFF85007006810F00260B1
:10083000B0F1026F08D1DFF84007006830F00060C7
:10084000DFF83417086009E201F0E5B9DFF8E81BCA
:10085000DFF8280703F087FC002859D0DFF8DC1BFD
:10086000DFF8180703F07FFC0600002E04D00020FC
:10087000DFF83418487203E00120DFF82C184872C2
:1008800066A1DFF8F80603F06EFC0600002E04D027
:100890000020DFF81418887203E00120DFF8081840
:1008A00088720420DFF8E81681F8260072B6DFF8B7
:1008B000E006D0E9082311001A00DFF8D80603F09B
:1008C000A7FB62B6DFF8BC0603F03EFC0020DFF8B1
:1008D000B01608604FF400775FF00008DFF89C96D0
:1008E00042463900484603F041FBDFF88C060068B9
:1008F00010F00260B0F1026F08D1DFF87C060068EA
:1009000030F00060DFF870160860A7E101F083B9ED
:10091000DFF86406006810F00260B0F1026F3CD1AD
:10092000DFF85406D0F80100C0F3C060002834D1CD
:10093000DFF87407B0F89800002814D072B6DFF81A
:100940006807B0F89810DFF8480603F07FFD62B63C
:10095000DFF85407B0F898705FF00008424639009D
:10096000200003F003FBDFF81006D0F8020050F07F
:100970008040DFF80416C1F80200DFF8FC050068CB
:1009800030F00060DFF8F0150860DFF8F40500686B
:10099000DFF81417A1F89C001FE0DFF8DC05407AAF
:1009A000C0F38000C0B2002817D0DFF8D405076874
:1009B0005FF00008DFF8C49542463900484603F06E
:1009C000D5FA0020DFF8B8150860DFF8AC05407AEA
:1009D00010F0FB00DFF8A0154872DFF8AC050078D6
:1009E00010F00100002840F03981DFF89C05007804
:1009F000C0F34010C0B2002800F030810020DFF8C2
:100A0000801508604FF400775FF00008DFF86C9500
:100A100042463900484603F0A9FA1FE16F75740099
:100A2000DFF85405407AC0F38000C0B2002830D10E
:100A3000DFF8E81DDFF8440503F095FB002828D017
:100A4000DFF8DC1DDFF8340503F08DFB00281ED035
:100A50001D2003F0AFFD03F0CDFDDFF81C05407A4B
:100A600050F00400DFF810154872DFF8140507682D
:100A70005FF00008DFF8049542463900484603F06D
:100A800075FA0020DFF8F814086001F0C4B801F02E
:100A9000C2B8DFF8E404D0F80300C0F30060002817
:100AA00000F08980DFF87C1DDFF8D00403F05BFBE9
:100AB000002850D1DFF8701DDFF8C00403F053FBAD
:100AC000002848D1DFF8641DDFF8B00403F04BFBC9
:100AD000002840D1DFF8581DDFF8A00403F043FBE5
:100AE000002838D1DFF84C1DDFF8900403F03BFB01
:100AF000002830D1DFF8401DDFF8800403F033FB1D
:100B0000002828D1DFF8341DDFF8700403F02BFB38
:100B1000002820D1DFF8281DDFF8600403F023FB54
:100B2000002818D1DFF81C1DDFF8500403F01BFB70
:100B3000002810D1DFF8101DDFF8400403F013FB8C
:100B4000002808D1DFF8041DDFF8300403F00BFBA8
:100B5000002800F08380DFF82004006850F0805007
:100B6000DFF814140860DFF81004006850F48020E7
:100B7000DFF804140860DFF80004D0F8030030F058
:100B80008070DFF8F413C1F803000520DFF81815B2
:100B9000A1F89A00DFF8E003D0F8020030F000502E
:100BA000DFF8D413C1F802000020DFF8FC14C1F80C
:100BB000CC0001F030B8DFF8C403DFF8C4130968D3
:100BC000084410F8010C09281CD1DFF8B003DFF845
:100BD000B0130968084410F8020C3A2812D1DFF863
:100BE0009C03DFF89C130968084410F8030C3128B3
:100BF00008D1DFF88403006850F00040DFF8781374
:100C000008602BE0DFF87003C079C0F38000C0B249
:100C100000280ED0DFF86403DFF864130968084485
:100C200010F8010C002819D10020DFF854130860D7
:100C300014E0DFF84C030068B0F5FF7F0ED9002008
:100C4000DFF83C1308604FF400775FF00008DFF82E
:100C50002C9342463900484603F088F9C64800689C
:100C6000C0F38040C00740F10781C348D0F80200BC
:100C7000C0F38070C00700F1FF80DFF82C04B0F8EB
:100C80009800DFF82414A1F89C00BD480068DFF844
:100C90001814B1F89C100818B0F5007F24D3B84898
:100CA0000068DFF80414B1F89C100818A0F2FF17D0
:100CB00072B63900B64803F0C9FB62B65FF00008AF
:100CC000AF4800684042204400F2FF194246390014
:100CD000484603F04BF940F2FF10A9490968401A51
:100CE000DFF8C413A1F89C00DFF8BC03B0F89C70D7
:100CF000DFF85C8BA148A249096800EB01093A00C2
:100D00004146484603F038FA9D480068DFF89813DA
:100D1000B1F89C1008189A490860994800680128A1
:100D200004D1964800780D2800F07587DFF8F01D93
:100D3000924803F018FA00280ED08F48006830F06F
:100D400000608D4908608C48D0F8010030F00060E8
:100D50008949C1F801008FE08B480078C00700F195
:100D60008B8085480068C0F30070C00700F1848064
:100D700082480078002800F07F80804800780D28A5
:100D80007AD17E4840780A2876D1C748D0F8A400A6
:100D9000022871D07848D0F8010050F00060764900
:100DA000C1F80100BCA1DFF87C0D03F0DCF90600FE
:100DB00000283BD07148301A871CDFF86C1DDFF823
:100DC000640D03F0D0F900280BD0B4496B483844C7
:100DD00003F0C9F90600002E03D06848301A801DC0
:100DE000070067480068C01B002817D072B6644827
:100DF0000068C11B664803F029FB62B660480068C2
:100E0000B0EB07085FF000095C4800EB070A4A46B0
:100E10004146504603F0AAF8594807605648D0F8B2
:100E2000010030F000605449C1F8010052480068E8
:100E300050F00060504908605148006840F2FF11CE
:100E4000884219D14C48D0F80100C0F3C060002896
:100E500012D04948D0F8010030F000604649C1F88E
:100E600001004548006830F000604349086040F2E6
:100E7000FF108D49A1F89C003F48006810F0026007
:100E8000B0F5001F40F0DC823F48007850F00100D0
:100E90003D4908708448D0F8B0008349B1F89C10EF
:100EA00008188149C1F8B000DFF8741C33487E4A45
:100EB000B2F89A201044401F03F055F90600002EA6
:100EC00000F0FC802D482E490968084410F8020CF7
:100ED0000D2840F0F380294829490968084410F892
:100EE000010C0A2840F0EA80DFF8301D234803F0A7
:100EF0003AF9060000281BD0F07E00280DD01F48CC
:100F0000371A1F48006817F11B01B0EB010872B6D1
:100F100041461F4803F09AFA62B61B48407850F0E9
:100F20000100194948700D205F4981F8E80050E040
:100F3000DFF8EC14114803F016F9060000282BD056
:100F4000F07D00280DD00D48371A0D48006817F1C4
:100F50001701B0EB010872B641460D4803F076FA6E
:100F600062B601205049504A527912F00F021144E2
:100F700081F8E9002DE000BF5C1F002080170020F1
:100F8000A01F0020CC1D0020F81E0020489F000854
:100F9000AC1D0020C01D0020DFF8841CDFF8840C8D
:100FA00003F0E1F80600002813D0F07D002810D0EF
:100FB000DFF8700C371ADFF8700C006817F11701B2
:100FC000B0EB010872B64146DFF83C0E03F03EFA82
:100FD00062B600203449C1F8B00000203249C1F89F
:100FE000A00000203049C1F8A40005202E49A1F836
:100FF0009A00DFF8380C006830F40010DFF82C1C81
:101000000860DFF8280C006830F00800DFF81C1CCE
:101010000860DFF8180C006830F48020DFF80C1C42
:1010200008600020DFF8081C4860DFF8040C007836
:1010300010F0FE00DFF8F81B0870DFF8F00B006816
:10104000C0F3C040002815D0DFF8E00B006830F492
:101050000020DFF8D81B086000201349C1F8A80061
:10106000DFF8C80B006850F00100DFF8C01B086013
:1010700002F020FEDFF8B00B07685FF00008DFF831
:10108000A49B42463900484602F070FF0020DFF87A
:10109000981B086000F0BFBD0D0A0000509F0008BB
:1010A000589F0008B49E0008101B002030EBFFFF83
:1010B000B02FFFFF701F00201E1B0020DFF8680B01
:1010C0000068062808D3002E06D1DFF85C0B006804
:1010D000DFF8641BA1F89A00DFF85C0BD0F8B000D1
:1010E000DFF8541BD1F8A4108842C0F02081DFF84B
:1010F000480BD0F8A400DFF8401BD1F8B0108842AC
:1011000025D2DFF8340BD0F8B000DFF82C1BD1F873
:10111000A410471A72B63900DFF8EC0C03F096F908
:1011200062B65FF00008DFF8FC0ADFF8FC1A096815
:10113000C91B00EB010942463900484602F016FF80
:10114000DFF8E40A0068C01BDFF8DC1A0860DFF88B
:10115000D80A0068DFF8E01AA1F89600DFF8D80A8C
:10116000D0F8A400DFF8D01AC1F8B400DFF8B80A4C
:101170000768DFF8B08ADFF8C49A3A00414648466B
:1011800002F0FAFF0020DFF8A01A08600020DFF864
:10119000A81AC1F8B0000020DFF89C1AC1F8A0001E
:1011A0000020DFF8941AC1F8A4000020DFF8881AA4
:1011B000A1F89C000520DFF8801AA1F89A00DFF85A
:1011C0006C0A006830F00060DFF8601A0860DFF831
:1011D0005C0A006830F48020DFF8501A0860DFF8FD
:1011E000580AC07850F00700DFF84C1AC870DFF8D2
:1011F0003C0A0068C0F3C040002830D00020DFF86F
:10120000381AC1F8A800DFF8300A407810F0C7009B
:10121000DFF8241A4870DFF8180A4068002806D062
:10122000DFF80C0A4068401EDFF8041A4860DFF857
:10123000000A4068002809D1DFF8F009006850F082
:101240000100DFF8E819086002F034FDDFF8DC097E
:10125000006830F48000DFF8D41908601CE0DFF883
:10126000CC09006850F48000DFF8C0190860DFF88E
:10127000C8090078C0B2C008DFF8BC19497860F32B
:10128000C501DFF8B4094170DFF8A409007850F017
:101290000200DFF89C190870DFF89009006830F44C
:1012A0000010DFF888190860DFF88409007810F072
:1012B000FE00DFF87C19087002F01FF8DFF86C09F7
:1012C0000068C0F3C04000281AD0DFF86009D0F8E9
:1012D000010050F00050DFF85419C1F80100DFF8A8
:1012E0004C09006830F00800DFF840190860DFF8AA
:1012F0003C09006830F40020DFF83019086009E08C
:10130000DFF82809D0F8010050F08050DFF81C19F0
:10131000C1F801004FF400775FF00008DFF804998E
:1013200042463900484602F021FE00F074BCDFF866
:10133000F8080068B0F5FF7F6DD90520DFF8F818D0
:10134000A1F89A00DFF8F008D0F8A400DFF8E81858
:10135000C1F8B40040F2FF10DFF8DC18A1F89600E5
:10136000DFF8C4080768DFF8BC88DFF8D0983A00D7
:101370004146484602F000FF0020DFF8AC18086044
:101380000520DFF8B418A1F89A00DFF8AC08C0789F
:1013900050F00700DFF8A018C87001F0AEFF4FF45E
:1013A00000795FF0000ADFF87CB85246494658469B
:1013B00002F0DCFDDFF874080068C0F3C0400028CC
:1013C00012D0DFF87408407810F0C700DFF8681812
:1013D0004870DFF85808D0F8010050F00050DFF8EE
:1013E0004C18C1F8010016E0DFF84C080078C0B2D4
:1013F000C008DFF84418497860F3C501DFF8380801
:101400004170DFF82808D0F8010050F08050DFF874
:101410001C18C1F8010000F0FEBB00BF609F00086F
:10142000F4990008F4940008A49600080C960008AB
:10143000689F000888970008709F0008789F000840
:10144000DFF8E8070068C0F30070002800F00282AF
:10145000DFF8DC07007850F00100DFF8D4170870DF
:10146000DFF8DC17DFF8BC07DFF8CC27B2F89A20EA
:101470001044401F02F077FE0600002800F0AB8009
:10148000F079002823D0DFF89C07371ADFF8980797
:101490000068B91DB0EB010872B64146DFF8680973
:1014A00002F0D4FF62B65FF00009DFF87807384435
:1014B00010F1070A4A464146504602F057FDDFF850
:1014C00068070068B0EB0800DFF85C170860DFF819
:1014D00058070068DFF86017A1F89600DFF84807A2
:1014E0000768DFF84087DFF854973A0041464846DE
:1014F00002F042FEDFF830070068DFF83C17A1F881
:101500009200DFF82C07407850F00100DFF8201738
:101510004870DFF81807006830F48020DFF80C17F7
:101520000860DFF80807006830F08050DFF8FC162C
:10153000086001F0E2FE0020DFF8FC1681F8E80008
:10154000DFF8EC06007810F0FE00DFF8E416087013
:10155000DFF8D806006830F00060DFF8D0160860C9
:10156000DFF8C806006830F00800DFF8C016086031
:101570000520DFF8C416A1F89A00DFF8AC06D0F811
:1015800000905FF0000ADFF89CB652464946584684
:1015900002F0ECFC0020DFF890160860DFF88C0603
:1015A0000068C0F3407000280AD0DFF88006D0F849
:1015B000020050F08060DFF87416C1F802009BE072
:1015C000DFF86806D0F8020050F00070DFF85C1613
:1015D000C1F8020090E0DFF8941BDFF84806DFF85E
:1015E0005826B2F89A201044401F02F0BCFD0600B5
:1015F000002800F08180DFF83406006830F4802095
:10160000DFF828160860DFF81C06DFF81C160968EA
:10161000084410F8020C0D286ED1DFF80806DFF838
:1016200008160968084410F8010C0A2864D1DFF88C
:101630000006407850F00100DFF8F41548700D20E6
:10164000DFF8F41581F8E800DFF8E405007810F021
:10165000FE00DFF8DC150870DFF8D005006830F414
:101660008020DFF8C8150860DFF8C005006830F09A
:101670000060DFF8B81508600020DFF8AC150860DE
:101680000520DFF8B415A1F89A00DFF8A00500687E
:1016900030F08050DFF894150860DFF8900500689E
:1016A00030F00800DFF8841508604FF400775FF031
:1016B0000008DFF8709542463900484602F056FCB3
:1016C000DFF868050068C0F3407000280AD0DFF832
:1016D0005C05D0F8020030F08060DFF85015C1F8EA
:1016E000020009E0DFF84405D0F8020030F0007095
:1016F000DFF83815C1F80200DFF82C05006806286D
:1017000001D3012000E00020002E01D1012100E0E2
:101710000021C0B2084206D0DFF80C050068DFF8EF
:101720001815A1F89A00DFF80005006840F2FF11D3
:10173000884272D1DFF8F00400680A90DFF8E40410
:101740000990DFF8F8740A9A0999380002F014FD3C
:1017500006200890DFF8180A0790DFF8187A089A30
:101760000799380002F008FD062006900020059039
:10177000DFF8FC79059A0699380002F0F7FB4FF480
:101780000070049000200390DFF89874039A049985
:10179000380002F0EBFB0627DFF8D889DFF88494E5
:1017A0003A004146484602F0E7FC5FF006095FF068
:1017B000000ADFF8C0B952464946584602F0D6FB47
:1017C0000620DFF8641408600520DFF86C14A1F827
:1017D0009A0040F2F910DFF86014A1F8920001F0CD
:1017E0008CFDDFF848040068C0F3407000280AD080
:1017F000DFF83804D0F8020050F08060DFF82C14D5
:10180000C1F8020009E0DFF82404D0F8020050F02B
:101810000070DFF81814C1F80200FCE1C09E000857
:10182000809F0008889F0008909F0008F49B000894
:10183000989F0008089C0008D49D0008E49D0008BB
:101840000C9A00086C9800081C9C0008249A000858
:1018500080150020DFF8D4030068C0F3C060C00723
:1018600000F18581DFF8C4030068002840F17F8122
:10187000DFF8B003DFF8B0130968084410F8020C71
:101880000D2840F06181DFF89C03DFF89C130968A4
:10189000084410F8010C0A2840F05681DFF8D808F7
:1018A00002F0E5FEDFF89003407BDFF88C13097B44
:1018B000884280F0D980DFF8C418DFF8680302F0AE
:1018C00052FC0600002E10D0B0798DF80000F0799F
:1018D0008DF801009DF800000A219DF8012001FB10
:1018E00000201038DFF898180870DFF894080078A6
:1018F000DFF890180968D04A527B2C235A43885449
:10190000DFF88418C74802F02EFC0600002E0FD026
:10191000F0798DF80000307A8DF801009DF8000014
:101920000A219DF8012001FB0020B0F5047002900F
:10193000DFF850080068C049497B2C225143084415
:10194000029949424160DFF84418B64802F00BFCA6
:101950000600002E26D00720DFF834180870DFF8C4
:1019600030080078305C27281CD0DFF818080068A1
:10197000B149497B2C2251430844DFF814180978F7
:101980000844DFF80C180978715C4170DFF8000832
:101990000078401CDFF8F8170870DFF8F4070078CB
:1019A0002328DCD1DFF8EC179E4802F0DCFB0600B0
:1019B000002E0BD0DFF8CC0700689F49497B2C2212
:1019C00051430844012180F826100AE0DFF8B407EB
:1019D00000689949497B2C2251430844002180F832
:1019E0002610DFF8B4178F4802F0BDFB0600002E6A
:1019F0000BD0DFF8900700688F49497B2C225143B8
:101A00000844012180F827100AE0DFF87807006811
:101A10008949497B2C2251430844002180F8271032
:101A2000DFF878177F4802F09EFB0600002E0BD0EF
:101A3000DFF8500700688049497B2C225143084455
:101A4000012180F828100AE0DFF8380700687A4999
:101A5000497B2C2251430844002180F82810764805
:101A6000407B401C74494873DFF800176D4802F052
:101A70007AFB0600002E24D04FF400775FF00008B8
:101A8000DFF8A09142463900484602F06FFA002084
:101A9000654908606648407850F001006449487024
:101AA0006248006820F00040604908605F480068B4
:101AB00030F400705D4908600D205F4981F8E8004E
:101AC000A9E0DFF8DC16574802F04DFB00282DD0C6
:101AD0005648006830F400705449086000205649A8
:101AE00048730020504908605148407850F0010088
:101AF0004F4948704D48006820F000404B4908604D
:101B000000204D4981F8E8004FF400775FF00008AD
:101B1000DFF8109142463900484602F027FA7AE091
:101B2000A09F000882170020CC9E000800203E499C
:101B300008604FF400775FF00008DFF8E890424655
:101B40003900484602F012FA37480068B0F5FF7FC6
:101B50000DD90020344908604FF400775FF0000889
:101B6000DFF8C09042463900484602F0FFF92F489E
:101B7000006810F04060B0F1806F4CD12DA002F0F1
:101B800037FBDFF82016274802F0EDFA06000028A0
:101B90002DD02648006830F4802024490860214870
:101BA00021490968084410F8020C0D281FD11D486E
:101BB0001D490968084410F8010C0A2817D1DFF8FC
:101BC000E80502F015FB1948006830F080601749FD
:101BD00008600020144908604FF400775FF00008A7
:101BE000DFF8409042463900484602F0BFF90E48FF
:101BF000006840F2FF1188420DD100200A490860B8
:101C00004FF400775FF00008DFF818904246390083
:101C1000484602F0ABF90BB0BDE8F08F8898000899
:101C20003C9A000880170020A01F00205C1F0020A5
:101C3000F81E00202A000000101B00208013002046
:101C4000509F00082DE9FC470400250026004FF0B6
:101C5000FF08002E00F08882DFF85015280002F0FF
:101C600082FA0600002E00F07F8270798DF8040061
:101C7000B0798DF805009DF805003A2804D19DF84B
:101C800004003038804609E09DF804000A219DF8E0
:101C9000052001FB0020B0F5047080465A4880F80A
:101CA00020800120584981F826000FFA88F8404624
:101CB0000028032840F23282001F012840F24A82A5
:101CC000801E012840F22A82801E012840F24282B2
:101CD000801E00F03282401E012840F23B82801EAE
:101CE000012840F21B82801E00F03482401E03282F
:101CF00040F21482001F00F02D82401E00F00E8280
:101D0000401E012840F22682C01E00F00782401EBD
:101D1000012840F21F82801E00F0A081801E00F08A
:101D2000FD81401E012840F21582801E012840F2EC
:101D3000F581801E012840F20D82801E00F0EE81A8
:101D4000401E00F00782401E00F0E881401E04287B
:101D500040F20082401F012840F2E081001F052868
:101D600040F2DC81801F20D0801E00F0AF81401E39
:101D70002FD0401E00F01081401E00F02B81401E2D
:101D8000012840F29381C01E31D0801E00F0C68130
:101D9000401E00F0AD81401E00F0B581001F00F034
:101DA0007181801E00F0BA81D5E1DFF804142800AB
:101DB00002F0D9F9060070798DF800009DF8000056
:101DC000114991F8211060F303010F4880F82110A8
:101DD000C1E1B07D8DF800009DF800000A4991F83E
:101DE000211060F30301084880F82110B3E1DFF807
:101DF000C403D0F80100C0F30060002806D0DFF86B
:101E0000B80302F0F5F9AFE1AC1D0020DFF8A40340
:101E1000D0F80100C0F34060002805D00020DFF8B2
:101E20009C13C1F8AC0011E0DFF88803006850F0A3
:101E30000800DFF880130860DFF87803D0F80100AD
:101E400050F00070DFF86C13C1F80100DFF8601388
:101E5000280002F088F90600002E00F09C807079BE
:101E60008DF800009DF800003038DFF8541381F839
:101E70002200307A8DF80000707A8DF80100B07A77
:101E80008DF80200F07A8DF803009DF800003A28E2
:101E900006D1F0798DF80000307A8DF801002EE03F
:101EA0009DF801003A2809D1F0798DF80000307AC8
:101EB0008DF80100707A8DF8020020E09DF8020094
:101EC0003A280CD1F0798DF80000307A8DF80100B5
:101ED000707A8DF80200B07A8DF803000FE09DF85B
:101EE00003003A280BD1F0798DF80000307A8DF894
:101EF0000100707A8DF80200B07A8DF803009DF829
:101F000001003A2805D19DF800003038AC4988849A
:101F10003CE09DF802003A280BD19DF800000A2110
:101F20009DF8012001FB0020B0F50470A4498884CD
:101F30002CE09DF803003A2811D19DF8000064219F
:101F40009DF801200A235A4301FB00209DF802104E
:101F5000081841F2D041401A9949888416E09DF84A
:101F600000004FF47A719DF8012064235A4301FB6D
:101F700000209DF802100A2202FB01009DF80310C8
:101F8000081800F53C50B0308D4988848D48406871
:101F9000401C8C494860DEE08A48007850F08000A0
:101FA000884908708748007810F0DF00854908707C
:101FB0000020844948607F48006830F002007D4975
:101FC00008607C48D0F8010050F080707949C1F871
:101FD0000100C0E07B48007810F07F00794908706C
:101FE0007848007850F02000764908707148006801
:101FF00030F002006F4908606E48D0F8010050F0E0
:1020000080706C49C1F801006A480078C00708D5A3
:102010006C480078C0B2C009C0B2002801D101F0FC
:1020200049FE64480068C0F3C040002815D0052070
:102030006249A1F89A005F48006850F480205D4929
:1020400008605C48006850F400105A4908605B481A
:10205000D0F8A8005949C1F8A4007CE05A492800EA
:1020600002F081F8060011200700222F06DAF05D49
:102070005249394481F83E007F1CF6E70B20514954
:10208000887568E05149280002F06DF806001120BB
:102090000700222F06DAF05D4849394481F83E00F6
:1020A0007F1CF6E70C204749887554E04148D0F87A
:1020B0000100C0F30060002807D03E48D0F80100BE
:1020C00030F080703B49C1F8010044E000204049F5
:1020D00008703848006830F002003649086035481A
:1020E000D0F8010050F080703249C1F8010032E0B0
:1020F0000A20334981F826002E48C07950F00400A8
:102100002C49C87127E009202D4981F8260029486B
:10211000C07910F0FB002749C8711CE02548006811
:1021200030F00200234908602248D0F8010050F046
:1021300080702049C1F801000DE01E480068C0F31E
:10214000C000002805D01B48006830F0080019497D
:10215000086000E0FFE74FF400795FF0000A5246A4
:102160004946280001F002FFBDE8F387609F0008A0
:1021700079150020801F002060000020A89F000823
:10218000B51F00209C1F0020B09F0008B89F0008CA
:10219000B41F0020C09F0008C89F0008D09F0008FF
:1021A000D89F0008D89E0008309C0008489F00086F
:1021B000E09F00085C1F0020E89F0008101B002023
:1021C000AC1D0020F81E0020E49E0008F09E0008D0
:1021D000AF1F002070B54FF48061DFF8A00202F05D
:1021E00019F8DFF89C02407810F0F100DFF8901247
:1021F00048700020DFF88C12087000F02AF900F017
:1022000087F800F016F832219F4801F0E3FE01F054
:1022100057F8082400259D4E2A002100300001F0C7
:10222000A5FE9B4802F05CFA002801D001F0CBFC2F
:1022300070BD9348007850F00800914908709048AC
:10224000007850F080008E4908708D48007810F0BA
:10225000BF008B49087000208949487400208849D4
:1022600088740020864948608548407810F0FE0058
:1022700083494870FF208249887502208049C874CC
:1022800002207F49087500207D49487500207C495F
:10229000C8608048006850F001007E4908607D48B1
:1022A000006850F002007B4908607A48D0F80200CC
:1022B00030F000507749C1F802007648007A10F0FB
:1022C000FE00744908727348807950F00400714927
:1022D00088717048C07910F07F006E49C8716D48F0
:1022E000007A10F0FD006B4908726A48007A10F01D
:1022F000FB00684908726748007A10F0F7006549EA
:1023000008726448407A10F0FB00624948727047D6
:102310002DE9F0416048C07910F0C7005E49C871EE
:1023200000205D49C1F8AC0000205B49C1F8A00065
:1023300000205949C1F8A80000205749C1F8B80049
:1023400000205549C1F8B00000205349A1F8980079
:1023500000205149C1F8BC0000204F49C1F8C40019
:1023600000204D49C1F8C80000204B4948730020A7
:102370004949C1F8CC0000204749A1F894004FF426
:1023800080504549C1F8E40005204349A1F89A006E
:1023900008240125414E2A002100300001F0E6FD0D
:1023A00001260027DFF8F8803A003100404601F0AE
:1023B000DDFDBDE8F08180B53A48006850F01000BE
:1023C000384908603748006810F010000090009805
:1023D0003448006850F00400324908603148006811
:1023E00010F00400009000984FF4805023490863D7
:1023F00001202249486301202049886303201F49A6
:10240000C8632949294802F06BFA00201D49087069
:10241000FF201B49887500224FF48051234802F0A9
:102420004DFCC82002F074FC01224FF480511F487B
:1024300002F044FC322002F06BFC4FF480511B4848
:1024400002F0ABFB0E48807D0E2801D000BFF9E7FB
:1024500001BD80B500224FF48051154802F02EFCDA
:1024600001221449144802F0F8FD002805D109485A
:10247000006850F480500749086001BDAC1D002081
:10248000F81E0020AF1F0020C01D0020701F00207C
:10249000EC1D00205C1F0020101B0020781F002076
:1024A000B31F002018100240DC1D00200010014066
:1024B000000801405E1B00206C1D00202DE9F04348
:1024C00083B0040000250026DFF8080E0068C0F382
:1024D000C000002840F0628472B6DFF8FC0D01F005
:1024E000E2FDDFF8F81D886262B6DFF8F00D806A61
:1024F000002800F05384DFF8E40D806A8079012819
:1025000038D0022800F02E84032800F02B84042801
:1025100000F02884062800F00481082800F01084C8
:10252000092800F032840A2800F02E840C2800F0DC
:1025300024830D2800F081830E2800F094820F2858
:1025400049D0102800F09D81142800F058811528EA
:1025500000F01382162800F08A80172800F0D1813D
:102560001C2800F05F821D280BD0282800F0AB83C8
:1025700000F014BCDFF8640D806A01F029F800F067
:102580000DBCDFF8580D806A407810F00F00DFF8BE
:10259000881D097860F30201DFF87C0D01700120CD
:1025A000DFF8181DDFF8342D926A527812F00F020E
:1025B00088540020DFF8641D4875DFF8600D40780E
:1025C00050F00100DFF8541D48700020DFF8481D6E
:1025D00081F8E800E2E3DFF8400DC079C0F3C20003
:1025E000C0B208280DDBDFF8340D407850F0010050
:1025F000DFF8281D48700420DFF81C1D81F8E80072
:10260000CCE3DFF8140DC07910F0C701083010F0EA
:1026100038000843DFF8001DC8710120DFF8001DF5
:10262000DFF8B82C926A527812F00F028854DFF863
:10263000AC0C806A407810F00F00DFF8DC1C0978E1
:1026400060F30201DFF8D00C01700020DFF8CC1C31
:102650004875DFF8C80C407850F00100DFF8BC1C6A
:1026600048700020DFF8B01C81F8E80096E3DFF83E
:10267000640CD0F8020030F00050DFF8581CC1F8AC
:1026800002000020DFF8901CC1F8CC00DFF8880CB5
:10269000007A10F0070004280DDBDFF8800C40788A
:1026A00050F00100DFF8741C48700420DFF8681C4B
:1026B00081F8E80072E3DFF8600C007A10F0F801AE
:1026C000401C10F007000843DFF84C1C0872012082
:1026D000DFF8501CDFF8042C926A527812F00F02D7
:1026E0008854DFF8F80B806A407810F00F00DFF8AC
:1026F000281CC97960F30201DFF81C0CC1710020AD
:10270000DFF8181C4875DFF8140C407850F0010011
:10271000DFF8081C48700020DFF8FC1B81F8E80097
:102720003CE301F039FADFF8F00BC07A012811D14F
:10273000DFF8E40BD0F8C0000090DFF8DC0B436E4C
:10274000DFF8D40B026EDFF8F41CDFF8F40C01F0B4
:10275000D7FB15E0DFF8C00BC07A002810D1DFF8F6
:10276000B80BD0F8C0000090DFF8AC0B436EDFF878
:10277000A80B026EDFF8CC1CDFF8C40C01F0C0FB24
:10278000DFF8BC0C01F0D6FB80B201F023FA0500A3
:10279000EDB2002D25D10020DFF87C1BC1F8CC0064
:1027A000DFF8300BD0F8020050F00050DFF8241BA7
:1027B000C1F80200DFF81C0B006850F00800DFF8D9
:1027C000141B0860DFF80C0BD0F8030050F0807089
:1027D000DFF8001BC1F803000620DFF8401B487536
:1027E0000CE00D20DFF8301B81F8E800DFF82C0B3F
:1027F000407850F00100DFF8241B4870CEE201F071
:10280000CBF9DFF8140BB0F88C30DFF80C0B8078C4
:1028100010F00702DFF8E81CDFF8240C01F070FB71
:10282000DFF81C0C01F086FB80B201F0D3F9050043
:10283000EDB2002D11D101F0AFF9DFF8DC0AB0F8EC
:102840008C20DFF8D40AD0F88810DFF8B80C02F03A
:10285000CCFB002801D00F200500EDB2002D02D1E5
:10286000F6B2002E0CD0DFF8B40A407850F0010028
:10287000DFF8A81A48700D20DFF89C1A81F8E800EC
:102880008CE201F089F9DFF8900AC06E0090DFF861
:10289000880AD0F8C030DFF8800A026EDFF8681CC2
:1028A000DFF89C0B01F02CFBDFF8940B01F042FBEE
:1028B00080B201F08FF90500EDB2002D0DD0DFF8E8
:1028C0005C0A407850F00100DFF8501A48700D2083
:1028D000DFF8441A81F8E80012E01020DFF83C1A13
:1028E00048750020DFF8301AC1F8CC00DFF8E409A1
:1028F000D0F8020050F00050DFF8D819C1F80200FB
:102900004CE201F049F9DFF8100AC36EDFF8080A5B
:10291000D0F8C020DFF88C1CDFF8240B01F0F0FAAF
:10292000DFF81C0B01F006FB80B201F053F9050043
:10293000EDB2002D0DD0DFF8E409407850F0010031
:10294000DFF8D81948700D20DFF8CC1981F8E800BD
:1029500012E01720DFF8C41948750020DFF8B81915
:10296000C1F8CC00DFF86C09D0F8020050F000503C
:10297000DFF86019C1F8020010E2DFF8A409DFF8FF
:102980005C19896A497811F00F01405C002844D035
:1029900001F002F9DFF84409806A407810F00F0274
:1029A000DFF8041CDFF8980A01F0AAFADFF8900AB1
:1029B00001F0C0FA80B201F00DF90500EDB2002D72
:1029C0002FD10020DFF8501981F8E800DFF8040962
:1029D000006850F00800DFF8FC180860DFF8FC0819
:1029E000806A407810F00F00DFF82C19497960F305
:1029F0000301DFF824094171DFF82009407850F025
:102A00001000DFF818194870DFF81009007850F04E
:102A10000200DFF80819087003E0DFF8900B01F0FE
:102A2000E7FBBBE101F0B8F8DFF8841BDFF8100A20
:102A300001F066FADFF8080A01F07CFA80B201F0D2
:102A4000C9F80500EDB2002D0CD10020DFF8C81840
:102A500081F8E800DFF87C08006850F00800DFF833
:102A6000741808609AE101F097F8DFF8AC08B0F844
:102A70008C30DFF8A408026FDFF8381BDFF8C009DC
:102A800001F03EFADFF8B80901F054FA80B201F023
:102A9000A1F80500EDB2002D0DD0DFF880084078D8
:102AA00050F00100DFF8741848700D20DFF8681846
:102AB00081F8E80060E000F00DFD0500EDB2002DAA
:102AC0000CD0DFF85808407850F00100DFF84C18BF
:102AD00048700D20DFF8401881F8E800DFF838086A
:102AE000B0F88C30DFF83008026FDFF8CC1ADFF86E
:102AF000500901F005FADFF8480901F01BFA80B22D
:102B000001F068F80500EDB2002D0CD0DFF80C08DC
:102B1000407850F00100DFF8041848700D20DFF80D
:102B2000F81781F8E80001F037F8DFF8EC07B0F8A3
:102B30008C70DFF8E407D0F88880DFF804993A0059
:102B40004146484601F018FBDFF8F40801F0F2F9BD
:102B500080B201F03FF80500EDB2002D0CD0DFF897
:102B6000BC07407850F00100DFF8B01748700D2026
:102B7000DFF8A41781F8E80010E101F00DF8DFF8A4
:102B80009807006F002806D1DFF8301ADFF8B00888
:102B900001F0B6F91FE0DFF88007006E002809D1C8
:102BA000DFF87407026FDFF8181ADFF8940801F0F5
:102BB000A7F910E0DFF86007D0F8C0000090DFF858
:102BC0005807036FDFF85007026EDFF8F819DFF8D7
:102BD000700801F095F9DFF8680801F0ABF980B2F0
:102BE00000F0F8FF0500EDB2002D18D1DFF8E40683
:102BF000006850F00050DFF8DC160860DFF8D406FB
:102C0000006850F48020DFF8CC160860DFF8C406B6
:102C1000006850F08050DFF8BC1608600CE0DFF868
:102C2000FC06407850F00100DFF8F01648700D20E7
:102C3000DFF8E41681F8E800B0E000F0ADFFDFF85F
:102C4000D80690F9840010F1010F23D1DFF8C806EF
:102C500090F9850010F1010F1CD1DFF8BC06006F60
:102C6000002804D0DFF8B006406F002812D1DFF84A
:102C7000A806006F00280DD0DFF89C06406F0028E2
:102C800008D1DFF89406026FDFF83C19DFF8B007CF
:102C900001F036F9DFF8A80701F04CF980B200F036
:102CA00099FF0500EDB2002D0CD0DFF870064078DA
:102CB00050F00100DFF8641648700D20DFF8581658
:102CC00081F8E8006AE000F067FFDFF84C06D0F812
:102CD000C0000090DFF84006036FDFF83C06026E8C
:102CE000DFF8E818DFF8580701F00AF9DFF85007B5
:102CF00001F020F980B200F06DFF0500EDB2002D6B
:102D000010D1DFF8D005006850F08060DFF8C415FE
:102D10000860DFF8C005006850F48020DFF8B415C3
:102D200008600CE0DFF8F405407850F00100DFF8AF
:102D3000EC1548700D20DFF8E01581F8E8002DE073
:102D4000DFF8D805407850F00100DFF8D015487062
:102D50000D20DFF8C41581F8E8000020DFF8BC156D
:102D600048751BE0DFF8B405407850F00100DFF84B
:102D7000AC1548700020DFF8A01581F8E8000020AD
:102D8000DFF89815487509E008E0DFF848050068A5
:102D900050F02000DFF83C150860FFE7DFF834054D
:102DA0000068C0F3C03000280FD0DFF828050068A5
:102DB00030F40040DFF81C150860DFF85C05D0F83F
:102DC000A00080B202F068FE52E1DFF8080500685A
:102DD000C0F38050002812D0DFF840050078C0F31F
:102DE000C000C0B200280AD0DFF8E804006830F460
:102DF0008000DFF8E014086002F096FE38E1DFF8AA
:102E0000D404D0F80100C0F3007000282FD0DFF800
:102E1000C404D0F8010030F08050DFF8B814C1F8D5
:102E2000010002200190DFF8F004B0F89600009055
:102E3000DFF8E404D0F8B430DFF8582CDFF8D80419
:102E40004078C0F3C200010049B25FF0FF3003F0E8
:102E500027F84FF400775FF00008DFF8389C42460F
:102E60003900484601F082F800F04EFA00E1DFF840
:102E70006404D0F80100C0F34070002834D0DFF8BB
:102E80005404D0F8010030F00050DFF84814C1F8C5
:102E9000010002200190DFF88004B0F89600009055
:102EA000DFF87404D0F8B430DFF8E82BDFF86804FA
:102EB0004078C0F3C200010049B2DFF85C0490F929
:102EC000030040F3020040B202F0EAFF4FF4007743
:102ED0005FF00008DFF8BC9B42463900484601F02D
:102EE00045F800F011FAC3E0DFF8E803D0F801007C
:102EF000C00F00281CD0DFF82804DFF81C148979E3
:102F000011F00701405C002807D00221DFF8080417
:102F1000807910F0070000F0EFFDDFF8B803D0F87B
:102F2000010020F00040DFF8AC13C1F801009FE081
:102F3000DFF8A003D0F80100C0F3807000281BD098
:102F40000221DFF8540B02F0ACFF0220DFF8CC13B3
:102F5000C874DFF88003D0F8010030F08040DFF85B
:102F60007413C1F80100DFF86C03006830F008004A
:102F7000DFF8601308607BE0DFF85803D0F8020048
:102F8000C0F34060002835D0DFF84803D0F80200D5
:102F900030F00070DFF83C13C1F80200CD48006843
:102FA000C0F34070002804D0DFF8E80A02F07AFF8E
:102FB00012E0C8480068C0F38070002804D0DFF831
:102FC000D40A02F070FF07E0DFF84C03B0F892106B
:102FD000DFF8C00A03F00FFA4FF400775FF0000843
:102FE000DFF8B09A42463900484600F0BFFF00F0D3
:102FF0008BF93DE0B748D0F80200C0F380600028AC
:1030000019D0DFF8900A02F04DFF4FF400775FF01F
:103010000008DFF8809A42463900484600F0A6FFD3
:1030200000F072F9AB48D0F8020030F08060A94996
:10303000C1F802001CE0A7480068C0F34030002837
:1030400008D003F067FAA348006830F40050A149A3
:1030500008600DE09F480068C0F38030002807D06A
:1030600003F059FA9B48006830F4804099490860A1
:10307000AA48807D002800F09380012800F0978006
:10308000022800F09B80032800F09F80042800F0B5
:10309000A380052800F0A780062800F0B28007284A
:1030A00000F0B680082800F0BA8009284AD00A2823
:1030B00054D00B2858D00C285ED00D2800F09A80F0
:1030C0000E282BD00F2800F0F680102800F0AE80DC
:1030D000112800F0B980122800F0BD80132800F0FC
:1030E000C180142800F0E780152800F0A68016287B
:1030F00000F0BF80172800F0C380182800F0C780B8
:10310000192800F0CB801A2800F0CF801B283BD074
:103110001C283FD0FF2800F0CE80CCE07F484078CC
:10312000C0F34200C0B202280BD17C48407810F0B6
:10313000F101801C10F00E0008437849487003F03C
:103140004AF9B8E0DFF8A0090078002805D101208D
:10315000DFF89419087003F046F9ACE003F0DCF9ED
:10316000FF206E498875A6E0DFF8800903F0D5F9E5
:10317000FF206A4988759EE0DFF8700903F0CEF9F8
:10318000FF206649887596E003F0C9F9FF2063497E
:10319000887590E003F0C3F9FF20604988758AE0E4
:1031A000FF205E498875112003F0BAF983E0FF2003
:1031B0005A498875142003F0B3F97CE0FF20574981
:1031C0008875132003F0ACF975E0FF20534988752A
:1031D000152003F0A5F96EE0FF20504988751620F0
:1031E00003F09EF967E0FF204C4988751B2003F02F
:1031F00097F960E0FF20494988751C2003F090F999
:1032000059E0FF2045498875172000F073FE52E011
:10321000FF2042498875122000F06CFE4BE0FF2031
:103220003E498875182000F065FE44E0FF203B49C8
:1032300088751D2003F075F93DE0FF20374988753A
:103240001E2003F06EF936E0FF20344988751920FE
:1032500003F067F92FE0FF20304988751A2003F04A
:1032600060F928E0FF202D498875062003F059F900
:1032700021E0FF20294988751F2003F053F91AE047
:10328000FF2026498875202003F04CF913E0FF2029
:1032900022498875212003F045F90CE0FF201F49E1
:1032A0008875222003F03EF905E0FF201B49887550
:1032B00003F039F9FFE7BDE8F7830000B21F0020F3
:1032C0000020164988601548007850F00400134922
:1032D000087070475C1F0020C01D0020AC1D00203E
:1032E00000200E4988600D48007810F0FB000B4963
:1032F000087001200949487470470848007810F0A8
:10330000F7000649087070470448007850F008003C
:103310000249087070470000101B0020F81E0020B2
:10332000701F0020A81F002080B5DFF83408007847
:10333000C0F38000C0B2002809D0DFF8240800786C
:10334000C0F3C000C0B2002801D000F0E4F8DFF8FC
:103350006408D0F80200C0F3C060002811D0DFF884
:10336000900700F069FF00280BD0DFF84808D0F87C
:10337000020030F00060DFF83C18C1F80200FFF7EF
:1033800068F8DFF830080068C0F30010002819D092
:10339000DFF86007D0F8C800411CDFF85827C2F8F2
:1033A000C81040F26C7188420CD3DFF8080800683E
:1033B00030F01000DFF8FC1708600020DFF8341749
:1033C000C1F8C800DFF8EC07D0F80200C0F30070C5
:1033D000002828D0DFF81C07D0F8C400411CDFF813
:1033E0001427C2F8C410B0F5FA6F1CD3DFF8C40775
:1033F0000068C0F3C010002808D0DFF8B8070068E4
:1034000050F08000DFF8AC1708600AE0DFF8A4078E
:103410000068C0F3C010002803D11B20DFF840175C
:10342000887500F037FC01BDDFF88817096831F0B6
:103430000801DFF8802711607047000094990008A8
:10344000800F0020AC99000810B50400DFF8640775
:10345000006830F48050DFF85C170860FFF740FF29
:1034600072B6DFF8EC16DFF8880600F0FBFE62B6F5
:10347000FFF726FFDFF8780600F0D6FE002811D00F
:10348000DFF83007D0F8020050F00060DFF82417B2
:10349000C1F8020001224FF48051DFF8BC0601F0B0
:1034A0000DFC16E0DFF80C070068C0F3C020002810
:1034B0000FD10122DFF89816124801F0CEFD002846
:1034C00007D1DFF8F006006850F48050DFF8E4160A
:1034D000086010BDDFF88406407810F00100002875
:1034E00001D100BFF6E7DFF87406407810F0FE0067
:1034F000DFF868164870DFF8FC0590F8E8007047C0
:103500007C9B00086C1D00203498000810B5040056
:1035100000F059FB10BD80B572B6DFF8D40500F09D
:10352000C1FEDFF8D015C1F8800062B6DFF8C4052F
:10353000D0F88000002805D0DFF8B805D0F880006A
:10354000FCF70CFEDFF86C06D0F80100C0F3406019
:10355000002825D0DFF89C05D0F8AC00401CDFF82F
:103560009415C1F8AC00DFF88C05D0F8AC00332816
:1035700016D30020DFF87C15C1F8AC00DFF8340664
:10358000D0F8010030F00070DFF82816C1F8010013
:10359000DFF82006006830F00800DFF81816086031
:1035A00001BD0000C4990008849D0008DC99000852
:1035B000949D0008909B0008A49B00089C9E000816
:1035C000A49D000828970008B49D000850980008A2
:1035D00010B504002078012865D0042874D005288F
:1035E00077D008287AD009287DD00A2800F080807A
:1035F0000B2800F082800C2800F084800F2800F057
:103600008680142800F08880162800F08A80172809
:1036100000F08C80182800F08E801A2800F090802E
:103620001B2800F092801F2800F09480202800F0D2
:103630009680232800F0CF80242800F0D58026280B
:1036400000F0D780282800F0E180292800F0EF80E2
:103650002A2800F0FD802B2800F0FF802C2800F0A5
:103660000181372800F003813A2800F03E813D288F
:1036700000F0AB813E2800F0C2813F2800F0D081ED
:10368000402800F04881422800F0F981432800F0EA
:10369000CC81442800F0D281452800F0DC81462806
:1036A00000F0E281F4E1FF20DFF8B014887500201B
:1036B000DFF834140870DFF83C04007A10F0E700FB
:1036C000DFF830140872E3E10720DFF89014887502
:1036D000DEE10020DFF884148875D9E10120DFF8ED
:1036E0007C148875D4E10220DFF870148875CFE16E
:1036F0000320DFF868148875CAE10420DFF85C1441
:103700008875C5E10620DFF854148875C0E10820EB
:10371000DFF848148875BBE11120DFF84014887584
:10372000B6E11220DFF834148875B1E11320DFF818
:103730002C148875ACE10920DFF820148875A7E106
:103740000A20DFF818148875A2E10520DFF80C14B0
:1037500088759DE10D20DFF80414887598E1DFF885
:10376000FC034078C0F34200C0B202280BDADFF855
:10377000EC03407810F0F101801C10F00E000843BB
:10378000DFF8D8134870DFF8D403007850F0100049
:10379000DFF8C81308700E20DFF8C0138875DFF853
:1037A00018040068C0F34010002813D0DFF80804A4
:1037B000006830F02000DFF800140860DFF8F8033C
:1037C000006830F48070DFF8F01308601C20DFF828
:1037D0008C1388755CE1DFF8E003006830F400705A
:1037E000DFF8D413086053E11620DFF870138875F2
:1037F0004EE1DFF86803007810F0EF00DFF85C13AB
:1038000008700F20DFF85413887541E10020DFF8BD
:10381000D8120870DFF8DC02007A10F0E700DFF859
:10382000D41208721020DFF83413887530E10020BC
:10383000DFF8B4120870DFF8BC02007A10F0E7007D
:10384000DFF8B01208721520DFF8101388751FE139
:103850001720DFF8081388751AE11820DFF8FC122A
:10386000887515E11920DFF8F412887510E1DFF88A
:1038700048030068C0F3405000280FD0DFF8380339
:10388000006830F40010DFF830130860DFF8280318
:10389000006830F48020DFF820130860607810F0B2
:1038A0000F00DFF85012097860F3C501DFF8440219
:1038B0000170DFF84C04DFF83C120978C1F3C20153
:1038C000C9B2405C00280FD0DFF8EC02006850F469
:1038D0008000DFF8E4120860DFF8DC02006850F0D6
:1038E0000800DFF8D4120860D2E0607810F00F0012
:1038F000DFF80012897960F30201DFF8F8018171C5
:10390000DFF8B402D0F8010050F00040DFF8A81250
:10391000C1F80100BCE0A088DFF8D811C1F8A80008
:10392000DFF89402006850F40020DFF88C12086081
:10393000DFF88402006850F00800DFF87C120860AD
:10394000DFF818020078C0F34010C0B200281ED182
:10395000A07801280AD1DFF8600200684008400022
:10396000DFF85412086000F0B8F92DE0DFF84802E3
:10397000006830F40020DFF840120860DFF83802F9
:10398000006830F00800DFF8301208601CE0DFF853
:103990002802006850F48020DFF81C12086005201F
:1039A000DFF85011A1F89A00DFF80C02006850F41B
:1039B0000010DFF804120860DFF83801D0F8A80022
:1039C000DFF83011C1F8A40062E0DFF80C04617880
:1039D000C9B20909C9B200EBC100617811F00F0149
:1039E00001224254DFF8D001006850F40050DFF8A3
:1039F000C81108600120DFF81814087048E0DFF8EB
:103A0000B801006850F48040DFF8AC110860002075
:103A1000DFF8001408700020DFF8F413087037E0B6
:103A20001A20DFF83811887532E0DFF88C01006861
:103A300050F48070DFF88011086029E0DFF8780129
:103A4000006830F48070DFF8701108601C20DFF827
:103A50000C1188751CE0DFF86001006850F08000F0
:103A6000DFF85411086013E0DFF84C01006830F013
:103A70008000DFF84411086000F0FCF808E0DFF88F
:103A80003801006850F04000DFF82C110860FFE7B3
:103A900010BD000080130020141B0020F8B50400A6
:103AA0000D0016001F0000F05DF812480466114872
:103AB00045661048C0F8C0600E48C7720620254908
:103AC00081F8260072B62348D0E9082311001A00B5
:103AD000DFF8DC0300F09CFA62B6DFF8DC0300F0EC
:103AE00033FBF1BD00000000AF1F00205F1B002072
:103AF000AC1D0020101B002038B504000D0000F0A4
:103B000031F8EDB2022D04D11520124981F82600BA
:103B100006E0EDB2012D03D123200E4981F82600E5
:103B20000C4890F8210064F303000A4981F8210051
:103B300072B60848D0E9082311001A00DFF87003B4
:103B400000F066FA62B6DFF8700300F0FDFA31BDEE
:103B50005E1B0020AC1D002000080140F81E002064
:103B6000F81E0020DFF85403007810F00100002850
:103B70000FD1DFF848030078C0F34000C0B200283E
:103B800009D0DFF838034078C0F30010C0B2002835
:103B900001D100BFE6E7704770B54FF4806400259F
:103BA000DFF810632A002100300000F0DFF970BD5B
:103BB000000000005C1F00205C1F002080B500207A
:103BC00002F0E4FC01BD80B5002002F0DFFCFEF74E
:103BD00040FC01BD10B50400DFF8E0020078C0F33E
:103BE0000010C0B2002809D1DFF8D0020078C0F37D
:103BF0008010C0B2002801D105203AE0DFF8CC02E5
:103C0000006810F4C07F01D0102032E0DFF8BC0261
:103C1000006850F40060DFF8B4120860A4B2002C11
:103C200005D1DFF8AC0200F0E3FA1F2021E04FF4E9
:103C30007A73220092B2DFF87C12DFF8980201F06A
:103C4000D2F8002803D0FFF7BEFF0F2011E0DFF805
:103C50007C02006830F40060DFF870120860DFF862
:103C60006C020068C0F30030002801D1FEF7F1FBC0
:103C7000002010BDDFF85402D0F8020050F0805050
:103C8000DFF84812C1F802000020DFF84C12C1F83A
:103C9000C4007047DFF83402D0F8020030F08050E2
:103CA000DFF82812C1F802000020DFF82C12C1F85A
:103CB000C400704710B50024FFF76EFFDFF81C1238
:103CC000DFF8F00100F01CF9DFF8E80100F032F94C
:103CD00080B2FFF77FFF040010BD10B50024FFF78E
:103CE0005BFFDFF8FC11DFF8CC0100F009F9DFF829
:103CF000C40100F01FF980B2FFF76CFF040010BD93
:103D0000701F00202DE9F047040088460026FFF7C9
:103D100043FF2200DFF8A811664800F0F1F865487B
:103D200000F008F980B2FFF755FF0600F6B2002E4A
:103D300015D1FFF7CFFB06005C4800F0FBF805004B
:103D40005A4F2A003900404600F016FA5FF0000989
:103D5000DFF858A14A462900504600F007F9300024
:103D6000C0B2BDE8F08770B504000D000026FFF773
:103D700013FF2B0022005B494E4800F0C1F84D486C
:103D800000F0D8F880B2FFF725FF0600F6B2002E4B
:103D900002D1FFF79FFB06003000C0B270BD70B5C6
:103DA00004000D000026FFF7F7FE2B0022004E490D
:103DB000404800F0A5F83F4800F0BCF880B2FFF79B
:103DC00009FF0600F6B2002E02D1FFF783FB0600C2
:103DD0003000C0B270BD00004C1F002038B5040098
:103DE0000025FFF7D9FE22003649324800F088F856
:103DF000304800F09FF880B2FFF7ECFE0500EDB20E
:103E0000002D02D1FFF766FB05002800C0B232BDCD
:103E1000B01F0020B11F002038B504000025FFF7B7
:103E2000BBFE22002849234800F06AF8214800F030
:103E300081F880B2FFF7CEFE0500EDB2002D02D171
:103E4000FFF748FB05002800C0B232BD10B50024C2
:103E5000FFF7A2FE2549174800F052F8154800F078
:103E600069F880B2FFF7B6FE0400E4B2002C02D17C
:103E7000FFF730FB04002000C0B210BD10B50024D5
:103E8000FFF78AFE1A490B4800F03AF8094800F09B
:103E900051F880B2FFF79EFE0400E4B2002C02D17C
:103EA000FFF718FB04002000C0B210BD1E1B00204D
:103EB000C01D0020800F0020CC1D0020F81E002017
:103EC000C49D0008B89B0008489700085C1F0020AC
:103ED000689700086C1D0020101B0020289F000818
:103EE000309F0008CC9B0008E09B0008389F00082A
:103EF000409F000870470268531C036011707047B0
:103F00000CB41CB5044604A801900A46009401AB09
:103F1000694607487844183002F04CFB009A0021AB
:103F2000117000285CBF0098001B16BC5DF80CFBEC
:103F3000C7FFFFFF00F10103810704D010F8011B48
:103F400089B18107FAD10268B2F10131914311F0D0
:103F5000803F04BF50F8042FF6E710F8011B11B1A1
:103F600010F8011BFBE7C01A7047010262F30F2231
:103F700062F31F42401810F0030308D0C91A1FD380
:103F8000DB0748BF00F8012D28BF20F8022D1300E1
:103F900030B414461546103928BF20E93C00FAD841
:103FA000490728BF20E90C0048BF40F8042D8900CC
:103FB00028BF20F8022D48BF00F8012D30BC704703
:103FC000C91818BF00F8012DCB0728BF00F8012D34
:103FD0007047200008231A0001FB02F383800023AE
:103FE00003800023C38000234380554B83607047C8
:103FF0008188C088B0EBD10F01D1012000E0002002
:104000007047C088002801D1012000E000207047DF
:1040100076B504002000FFF7EBFF002842D160884E
:10402000C0080600A06800EBC600BDF8041081803F
:10403000A06800EBC6009DF802108170A06800EB3C
:10404000C6009DF80110A26802EBC602527861F327
:1040500003024270A06800EBC600A16801EBC60134
:10406000497811F00F019DF8012012F0F002114380
:1040700041709DF80000A16801F83600A06800EBCF
:10408000C6009DF806108171E088401CE0806088C1
:1040900008306080A0880500608890FBF5F105FB82
:1040A0001100608073BD70B504002000FFF7A9FF08
:1040B000002801D0002042E02088C0080600A06847
:1040C00000EBC60080881F498880A06800EBC6000E
:1040D000407810F00F001B49497860F3030119483C
:1040E0004170A06800EBC6004078C0B200091549D5
:1040F000497811F00F0151EA001012494870A06888
:1041000000EBC60080780F498870A06810F8360070
:104110000C490870A06800EBC600807909498871D5
:10412000208808302080E088401EE080A0880500BC
:10413000208890FBF5F105FB11002080014870BD3F
:1041400080190020681F00200021818000218171DA
:10415000417811F0F00151F009014170092181709D
:1041600063210170704738B504000D00290020005C
:1041700002F002FE32BD000062B38B0708D0521E6F
:1041800011F8013B00F8013B00F024808B07F6D1C9
:10419000830740F0208000BF103A07D330B4B1E865
:1041A0003810103AA0E83810F9D230BC530724BFB9
:1041B000B1E80810A0E8081044BF51F8043B40F8EB
:1041C000043BD20724BF31F8022B20F8022B44BF56
:1041D0000B7803707047083A07D3B1E80810083A23
:1041E00040F8043B40F804CBF7D25307E4E7000063
:1041F0000EB400B582B003A9009102466B460121BE
:10420000034878440A3002F0D5F906BC5DF810FB8B
:10421000455800008160002202600022C260002236
:104220004260864A02617047C068B0F54E7F01DB8C
:10423000012000E000207047C068C92801DA012091
:1042400000E000207047C068B0F5806F01D1012008
:1042500000E000207047C068002801D1012000E084
:1042600000207047F8B504000D002000FFF7EBFFB9
:10427000002816D1E068401CE0606068411C616065
:104280000126216901EB0007320029003800FFF701
:1042900073FF60684FF4806190FBF1F201FB120044
:1042A0006060F1BD2DE9F84F04006548050020006D
:1042B000FFF7D1FF002801D00020BCE04FF40076CA
:1042C0000027DFF87C813A0031004046FFF74EFEC0
:1042D0005C480068C0F38040002800F08F80D4F86C
:1042E00004B0E068C82832DAE0685749A1F89800BD
:1042F000206883450CDB20685349B1F89860216938
:1043000001EB0007320039002800FFF735FF19E004
:1043100026682068D6F58067216901EB00083A001D
:1043200041462800FFF728FF2068D4F8109040424B
:1043300028444FF4806100EB010A5A464946504632
:10434000FFF71AFF606820600020E06072E02068DC
:10435000834511DB2068C826216901EB0007320084
:1043600039002800FFF708FF2068C8302060206867
:10437000BBEB0000E0603CE02068C830B0F5806F27
:1043800013DA2068C826216901EB000732003900E2
:104390002800FFF7F1FE2068C83020602068D0F5C3
:1043A00080601BEB0000E06023E026682068D6F503
:1043B00080610091216901EB0007009A3900280013
:1043C000FFF7DAFE2068B6F54E78D4F81090404238
:1043D00028444FF4806100EB010A424649465046AA
:1043E000FFF7CAFEB6F54E7020602068BBEB0000F8
:1043F000E060C8201449A1F898001BE0206801265D
:10440000216901EB0007320039002800FFF7B4FEF4
:104410002068401C2060E068401EE06001200A49DE
:10442000A1F8980020684FF4806190FBF1F201FB45
:10443000120020602800BDE8F28F0000800B0020F1
:10444000801500205C1F0020101B002010B4426863
:1044500003685B1A002B0FD403685B1A03600368C0
:10446000934203DA0368D31AC3600FE00368D3F5FD
:104470008063D318C36009E00368D1F58064E31852
:1044800003600368D3F58063D318C36010BC704722
:1044900010F007024E4B1B6819004FF6FF0319403E
:1044A0004C4B53EA02231943494B19607047484863
:1044B0000068C0F302207047012110F01F029140F4
:1044C000454A40B2430942F823107047012110F0D9
:1044D0001F029140414A40B2430942F823107047FD
:1044E00010B440B2002808D50A013D4B40B210F08C
:1044F0000F04234403F8042C03E00A01394B40B2B3
:104500001A5410BC704770B4030013F00704D4F1C0
:104510000706052E01D3042001E0D4F10700261D73
:10452000072E01D2002500E0E51E012616FA00F054
:10453000401E0840A8400121A940491E11400843DF
:1045400070BC704710B50400601EB0F1807F01D3CD
:1045500001200EE0601E244908600F215FF0FF304B
:10456000FFF7BEFF002021490860072020490860AE
:10457000002010BD10B504002000FFF789FF10BD1A
:10458000F8B504000D0016000027FFF790FF0700A4
:10459000320029003800FFF7B6FF0100200040B2CA
:1045A000FFF79EFFF1BD10B50400200040B2FFF7F9
:1045B00083FF10BD10B50400200040B2FFF786FF56
:1045C00010BD10B504002000FFF7BCFF10BD0000B7
:1045D0000CED00E00000FA0500E100E080E100E001
:1045E00018ED00E000E400E014E000E018E000E076
:1045F00010E000E07047000038B502F0D4FB04463C
:10460000208880042ED5656809E04A1B294602F0FF
:1046100013FC10F1010F18BF00280CD00544E1680D
:1046200094F903008D42F0D30022002102F004FC33
:1046300010F1010F0DD16068E0606061E0622088D8
:1046400040F400702080204602F0AEFB4FF0FF30B7
:1046500032BD6568E5606561E5624DF6FF712088F1
:1046600008402080204602F09FFB002032BDF8B5B4
:10467000A0B9C046C04600240A4D08264FF0FF37B7
:10468000286820B1FFF7B8FF002848BF3C462D1D21
:10469000761EF5D1C046C0462046F2BDBDE8F240C8
:1046A000AAE70000E000002010B50400002C01D1B2
:1046B000012014E094F83900002805D1002084F886
:1046C0003800200002F056FC022084F83900211D39
:1046D000206800F0CFF8012084F83900002010BDD8
:1046E00001000868C06850F001000A68D0600868DE
:1046F000006850F001000A6810600020704710B593
:1047000004002068006980071AD52068C068800707
:1047100016D57FF00200216808610120207620680C
:10472000806910F0030F03D0200002F061FC05E067
:10473000200002F05EFC200002F05CFC00202076ED
:104740002068006940071AD52068C068400716D560
:104750007FF00400216808610220207620688069CB
:1047600010F4407F03D0200002F042FC05E020005E
:1047700002F03FFC200002F03DFC00202076206883
:10478000006900071AD52068C068000716D57FF0B9
:10479000080021680861042020762068C06910F0B4
:1047A000030F03D0200002F023FC05E0200002F0FC
:1047B00020FC200002F01EFC00202076206800690A
:1047C000C0061AD52068C068C00616D57FF0100054
:1047D00021680861082020762068C06910F4407FB5
:1047E00003D0200002F004FC05E0200002F001FCF0
:1047F000200002F0FFFB0020207620680069C0073F
:104800000AD52068C068C00706D57FF0010021687E
:104810000861200002F026FC2068006900060AD525
:104820002068C068000606D57FF080002168086116
:10483000200002F03DFC2068006940060AD520688F
:10484000C068400606D57FF040002168086120005E
:1048500002F02FFC2068006980060AD52068C06835
:10486000800606D57FF0200021680861200002F054
:1048700021FC10BD002203681A00164B984208D094
:10488000B0F1804F05D0144B984202D0134B9842A0
:1048900003D132F070024B681A430E4B984208D095
:1048A000B0F1804F05D00C4B984202D00B4B984290
:1048B00003D132F44072CB681A4302608B68C36242
:1048C0000B688362034B984201D10B690363012398
:1048D00043617047002C0140000400400008004084
:1048E0002DE9F84100230024002500265FF0000E8A
:1048F0005FF0000C6246102A80F04D815FF0010CE1
:104900001CFA02FC6346D1F800C013EA0C0C6446A2
:104910009C4240F03E81D1F804C0BCF1000F3DD074
:10492000BCF1010F24D0BCF1020F2BD0BCF1030F5E
:104930004CD0BCF1110F1FD0BCF1120F28D0DFF802
:104940009083C4452AD0DFF88C83C44526D0DFF895
:104950008883C44522D0DFF88483C4451ED0DFF8A5
:104960008083C4451AD0DFF87C83C44516D031E07B
:10497000D1F80CC066462DE0D1F80CC01CF1040C37
:10498000664627E0D1F80CC01CF1080C664621E011
:10499000D1F80CC01CF10C0C66461BE0D1F808C025
:1049A000BCF1000F03D15FF0040C66460DE0D1F8B6
:1049B00008C0BCF1010F04D15FF0080C664603612A
:1049C00003E05FF0080C6646436103E05FF0000C13
:1049D0006646FFE7FF2C01D8070000E0071DFF2C0B
:1049E00002D85FEA820E03E0B2F1080C5FEA8C0E97
:1049F000D7F800C05FF00F0818FA0EF83CEA080C70
:104A000016FA0EF858EA0C0CC7F800C0D1F804C02A
:104A10005FEACC0C40F1BD80DFF8CCC2DCF800C00E
:104A20005CF0010CDFF8C082C8F800C0DFF8B8C243
:104A3000DCF800C01CF00108CDF80080DDF800C0F3
:104A4000DFF8A8C25FEA92085CF828C065465FF00C
:104A50000F0C12F003085FFA88F85FEA88081CFA66
:104A600008FC35EA0C05DFF888C2604502D15FF02A
:104A7000000C16E0DFF87CC2604502D15FF0010C4B
:104A80000FE0DFF874C2604502D15FF0020C08E06D
:104A9000DFF868C2604502D15FF0030C01E05FF00F
:104AA000040C12F003085FFA88F85FEA88081CFA21
:104AB00008FC5CEA0505DFF834C25FEA92084CF8AE
:104AC0002850D1F804C05FEACC3C0AD5DFF830C2E8
:104AD000DCF800C054EA0C0CDFF82482C8F800C0EF
:104AE00009E0DFF81CC2DCF800C03CEA040CDFF887
:104AF0001082C8F800C0D1F804C05FEA8C3C0AD527
:104B0000DFF800C2DCF800C054EA0C0CDFF8F481D6
:104B1000C8F800C009E0DFF8ECC1DCF800C03CEAEE
:104B2000040CDFF8E081C8F800C0D1F804C05FEAE7
:104B3000CC2C0AD5DFF8D0C1DCF800C054EA0C0C4C
:104B4000DFF8C481C8F800C009E0DFF8BCC1DCF8B8
:104B500000C03CEA040CDFF8B081C8F800C0D1F80E
:104B600004C05FEA8C2C0AD5DFF8A0C1DCF800C0D5
:104B700054EA0C0CDFF89481C8F800C009E0DFF8B3
:104B80008CC1DCF800C03CEA040CDFF88081C8F876
:104B900000C0521CAFE6BDE8F181F0B50022002351
:104BA000002400260F00D740002F00F08680012748
:104BB00097400F403B00002B7DD0FF2B01D8050014
:104BC00000E0051DFF2B01D8960002E0B2F10806B7
:104BD000B6002F685FF00F0C1CFA06FC37EA0C07D2
:104BE0005FF0040C1CFA06FC5CEA07072F60C7683C
:104BF0009F43C7603D4F5FEA920C57F82C703C0012
:104C00000F2712F0030C5FFA8CFC5FEA8C0C17FA8A
:104C10000CF73C40364FB84201D100270FE0354F2A
:104C2000B84201D101270AE0334FB84201D102272F
:104C300005E0324FB84201D1032700E0042712F00B
:104C4000030C5FFA8CFC5FEA8C0C17FA0CF7BC4281
:104C500031D10F2712F0030C5FFA8CFC5FEA8C0C49
:104C600017FA0CF73C00214F5FEA920C57F82C70B2
:104C7000A743DFF878C05FEA920E4CF82E70204F01
:104C80003F689F43DFF878C0CCF800701D4F3F6845
:104C90009F43DFF870C0CCF800701B4F3F689F4304
:104CA000DFF864C0CCF80070184F3F689F43DFF80E
:104CB0005CC0CCF80070521C74E7F0BDD2B2002A80
:104CC00002D089B2016102E089B20B04036170472E
:104CD000000011100000121000002110000022102E
:104CE000000031100000321018100240080001408E
:104CF00000080140000C0140001001400014014078
:104D00000004014004040140080401400C04014077
:104D100011B581B0002402F0CFF9040002F0CCF903
:104D2000001B01998842F9D313BD000010B504009F
:104D3000002C01D1012030E0A0690028FFD194F8B7
:104D40003900002805D1002084F83800200002F046
:104D500089F8022084F839002068C06830F40050D7
:104D60002168C860200000F072FB2068006930F400
:104D70009040216808612068406930F02A0021686D
:104D800048612068C06850F400502168C860002065
:104D9000E063012084F83900002010BD10B5040044
:104DA000002C01D101201DE0022084F83900206888
:104DB000C06830F400502168C86000202168C860D5
:104DC000002021680861002021684861200002F06D
:104DD000B2F80020E063002084F83900002084F855
:104DE0003800002010BD2DE9F84304000D00160026
:104DF0001F005FF0000994F839008146B9F1010FF6
:104E000002D0B9F1220F69D1002D02D0B6B2002E26
:104E100001D1012063E094F83800012801D102207B
:104E20005DE0012084F838000020E06394F8390048
:104E3000222803D1322084F8390002E0122084F8BD
:104E40003900A684E684E08C00282DD0E08C401E3A
:104E5000E084A068B0F5805F17D13B00002280217C
:104E6000200000F0CBF9002801D0032037E0A8464D
:104E7000B8F80000C005C00D21684860206900280E
:104E800001D1AD1CDFE76D1CDDE73B000022802176
:104E9000200000F0B3F9002801D003201FE028789B
:104EA000216848606D1CCEE73B00002240212000B5
:104EB00000F0A4F9002801D0032010E094F8390094
:104EC000322803D1222084F8390002E0012084F83E
:104ED0003900002084F83800002000E00220BDE8FE
:104EE000F2832DE9F84304000D0016001F005FF067
:104EF000000994F839008146B9F1010F02D0B9F1E7
:104F0000120F6FD1002D02D0B6B2002E01D10120B8
:104F100069E094F83800012801D1022063E0012003
:104F200084F838000020E06394F83900122803D197
:104F3000322084F8390002E0222084F83900A68566
:104F4000E685E08D00283DD0E08D401EE085A0681C
:104F5000B0F5805F1DD13B0000222021200000F031
:104F60004DF9002801D003203DE0A8462069002823
:104F700007D120684068C005C00DA8F80000AD1C2E
:104F8000DFE72068406800F0FF00A8F800006D1C13
:104F9000D7E73B0000222021200000F02FF9002855
:104FA00001D003201FE02069002804D12068406858
:104FB00028706D1CC5E72068406810F07F002870DD
:104FC0006D1CBEE794F83900322803D1122084F812
:104FD000390002E0012084F83900002084F838000C
:104FE000002000E00220BDE8F28330B4030000247A
:104FF00093F839000400012C01D0222C2AD1002979
:1050000002D092B2002A01D1012024E093F83800A6
:10501000012801D102201EE0012083F83800196226
:105020009A84DA840020D86393F83900222803D1C7
:10503000322083F8390002E0122083F83900002082
:1050400083F838001868C06850F080001D68E86078
:10505000002000E0022030BC704730B40300002480
:1050600093F839000400012C01D0122C36D100290C
:1050700002D092B2002A01D1012030E093F838002A
:10508000012801D102202AE0012083F8380099622A
:105090009A85DA850020D86393F83900122803D165
:1050A000322083F8390002E0222083F83900002002
:1050B00083F838001868C06850F480701D68E86094
:1050C0001868406950F001001D6868611868C06880
:1050D00050F020001D68E860002000E0022030BC95
:1050E000704770B582B00400002500262068006873
:1050F00010F0010005002068C06810F48070060000
:10510000002D05D0002E03D0E06B50F00100E063CD
:1051100020680068400810F0010005002068406920
:1051200010F001000600002D05D0002E03D0E06B2A
:1051300050F00400E06320680068800810F001006F
:105140000500002D05D0002E03D0E06B50F00200CA
:10515000E06320680068C00810F001000500002D21
:1051600005D0002E03D0E06B50F00800E06320680B
:105170000068400910F0010005002068C06810F0C8
:1051800020000600002D04D0002E02D0200000F0E8
:10519000FBF820680068C00910F0010005002068D5
:1051A000C06810F080000600002D04D0002E02D050
:1051B000200000F094F820680068800910F00100D9
:1051C00005002068C06810F040000600002D04D0E3
:1051D000002E02D0200000F0BFF8E06B00280CD0B9
:1051E00020680068009020684068009000980120C6
:1051F00084F83900200001F041FF73BD2DE9F04132
:1052000004000D0016001F005FF0000801F054FFBD
:105210008046F6B2002E2FD1206800682840A842B0
:105220005AD017F1010FF7D0002F05D001F044FF3D
:10523000B0EB08008742EFD22068C06830F08000F1
:105240002168C8602068C06830F020002168C8600C
:105250002068C06830F480702168C86020684069A8
:105260004008400021684861012084F8390000208E
:1052700084F83800032030E0206800682840A84205
:105280002AD117F1010FF7D0002F05D001F014FF3C
:10529000B0EB08008742EFD22068C06830F0800091
:1052A0002168C8602068C06830F020002168C860AC
:1052B0002068C06830F480702168C8602068406948
:1052C0004008400021684861012084F8390000202E
:1052D00084F83800032000E00020BDE8F08110B41D
:1052E0000100002391F839000300122B01D0322B6A
:1052F0002FD18868B0F5805F11D1086A020010884C
:10530000C005C00D0C6860600869002803D1086AF8
:10531000801C086209E0086A401C086205E0086A0F
:10532000441C0C6200780C686060C88C401EC88405
:10533000C88C00280BD10868C06830F080000C6869
:10534000E0600868C06850F040000C68E060002031
:1053500000E0022010BC704710B504002068C0684F
:1053600030F040002168C86094F83900322803D139
:10537000222084F8390002E0012084F8390020005E
:1053800001F076FE002010BD70B50400002694F8F0
:1053900039000600222E01D0322E56D1A068B0F579
:1053A000805F16D1A06A05002069002808D1206816
:1053B0004068C005C00D2880A06A801CA0621AE069
:1053C0002068406800F0FF002880A06A401CA062AE
:1053D00011E02069002806D1A06A411CA162216861
:1053E0004968017007E0A06A411CA1622168496810
:1053F00011F07F010170E08D401EE085E08D0028F6
:1054000021D12068C06830F020002168C86094F87D
:105410003900322803D1122084F839000EE02068C8
:10542000C06830F480702168C86020684069400816
:10543000400021684861012084F83900200001F013
:105440000BFE002002E0002000E0022070BDF8B555
:10545000040000252068006930F44050E1680843EA
:1054600021680861A0682169084361690843050053
:105470002068C0683949084028432168C86020680E
:10548000406930F44070A169084321684861206890
:105490003349884230D102F02BFC070002F028FC8F
:1054A000060002F025FC192101FB07F16268920059
:1054B000B1FBF2F16422B1FBF2F1192202FB06F218
:1054C00063689B00B2FBF3F21923584363689B00A7
:1054D000B0FBF3F06423B0FBF3F0642303FB102074
:1054E000000132306422B0FBF2F010F00F0050EAFD
:1054F0000110216888602FE002F0E5FB070002F050
:10550000E2FB060002F0DFFB192101FB07F16268F4
:105510009200B1FBF2F16422B1FBF2F1192202FB1D
:1055200006F263689B00B2FBF3F2192358436368E9
:105530009B00B0FBF3F06423B0FBF3F0642303FBA8
:105540001020000132306422B0FBF2F010F00F00A6
:1055500050EA011021688860F1BD0000F3E9FFFF07
:105560000038014038B504000025DFF83C06FEF79E
:105570003FFEDFF83806FEF73BFEDFF83406FEF7A5
:1055800037FEDFF83006FEF733FEFCF723FE01207E
:1055900000F002FCFCF70FFFFEF758FC0500EDB22F
:1055A000002D02D02800C0B275E2616BDFF808065A
:1055B000FEF7F5FB0500EDB2002D02D02800C0B2C9
:1055C00069E2FEF7E9FADFF8F415DFF8F405FEF713
:1055D00097FCDFF8EC05FEF7ADFC80B2FEF7FAFAB7
:1055E0000500EDB2002D08D1FDF774FF0500EDB206
:1055F000002D02D02800C0B24DE2FCF7DCFE0121F4
:10560000DFF8C005FEF7CBFB0500EDB2002D02D0A0
:105610002800C0B23FE2206B00280BD0216BDFF8DE
:105620009805FEF7BCFB0500EDB2002D02D0280066
:10563000C0B230E20021DFF89005FEF7B0FB0500B4
:10564000EDB2002D02D02800C0B224E2207800285C
:1056500002D001281AD033E00021DFF87005FEF7F0
:105660009EFB0500EDB2002D02D02800C0B212E270
:10567000DFF85C15DFF85C05FEF775FB0500EDB2A1
:10568000002D02D02800C0B205E219E00121DFF8A8
:105690003C05FEF784FB0500EDB2002D02D028008A
:1056A000C0B2F8E1DFF83015DFF82805FEF75BFB44
:1056B0000500EDB2002D02D02800C0B2EBE1FFE7FB
:1056C0006078002803D002286FD025D3B6E00021EF
:1056D000DFF80805FEF763FB0500EDB2002D02D0F0
:1056E0002800C0B2D7E10021DFF8F404FEF757FB31
:1056F0000500EDB2002D02D02800C0B2CBE10021A0
:10570000DFF82C05FEF74BFB0500EDB2002D02D0B3
:105710002800C0B2BFE191E00121DFF8C004FEF72C
:105720003EFB0500EDB2002D02D02800C0B2B2E170
:105730000B21DFF80005FEF732FB0500EDB2002D6E
:1057400002D02800C0B2A6E10021DFF83805FEF73C
:1057500026FB0500EDB2002D02D02800C0B29AE170
:105760000021DFF82405FEF71AFB0500EDB2002D3D
:1057700002D02800C0B28EE10021DFF86404FEF7F9
:105780000EFB0500EDB2002D02D02800C0B282E170
:105790000021DFF89C04FEF702FB0500EDB2002DAE
:1057A00002D02800C0B276E148E00121DFF82C04E5
:1057B000FEF7F5FA0500EDB2002D02D02800C0B2C8
:1057C00069E10C21DFF86C04FEF7E9FA0500EDB29F
:1057D000002D02D02800C0B25DE10A21DFF8A40448
:1057E000FEF7DDFA0500EDB2002D02D02800C0B2B0
:1057F00051E10121DFF89004FEF7D1FA0500EDB286
:10580000002D02D02800C0B245E10121DFF8D0030D
:10581000FEF7C5FA0500EDB2002D02D02800C0B297
:1058200039E10021DFF80804FEF7B9FA0500EDB20E
:10583000002D02D02800C0B22DE1FFE7A07800289B
:1058400003280FD8A078062101FB00F1DFF83C0403
:10585000FEF7A5FA0500EDB2002D02D02800C0B277
:1058600019E1FFE7E078002802280CD8E178DFF89A
:105870002004FEF794FA0500EDB2002D02D02800B6
:10588000C0B208E1FFE7606800280BD06168DFF86C
:105890000404FEF768FA0500EDB2002D02D02800DE
:1058A000C0B2F8E0A06800280BD0A168DFF8E803D8
:1058B000FEF759FA0500EDB2002D02D02800C0B263
:1058C000E9E0E06800280BD0E168DFF8D003FEF7DC
:1058D0004AFA0500EDB2002D02D02800C0B2DAE08D
:1058E000206900280BD02169DFF8B403FEF73BFAEA
:1058F0000500EDB2002D02D02800C0B2CBE06069F7
:1059000000280BD06169DFF89C03FEF72CFA050034
:10591000EDB2002D02D02800C0B2BCE0E069002842
:105920000BD0E169DFF88003FEF71DFA0500EDB248
:10593000002D02D02800C0B2ADE0206A00280BD0B4
:10594000216ADFF86803FEF70EFA0500EDB2002DBC
:1059500002D02800C0B29EE0606A00280FD0606AC2
:105960004FF47A7101FB00F1DFF84403FEF717FAF8
:105970000500EDB2002D02D02800C0B28BE0A06A75
:1059800000280BD0A16ADFF82C03FEF708FA050007
:10599000EDB2002D02D02800C0B27CE094F82C00BB
:1059A00000280CD094F82C10DFF80C03FEF7F7F960
:1059B0000500EDB2002D02D02800C0B26BE0FEF76A
:1059C000EBF8227EDFF8F412DFF8F401FEF798FA24
:1059D000DFF8EC01FEF7AEFA80B2FEF7FBF8050047
:1059E000EDB2002D08D1FDF775FD0500EDB2002DDB
:1059F00002D02800C0B24EE0FEF7CEF8DFF8C012A9
:105A0000DFF8BC01FEF77CFADFF8B401FEF792FA8A
:105A100080B2FEF7DFF80500EDB2002D08D1FDF7EA
:105A200059FD0500EDB2002D02D02800C0B232E0D1
:105A3000FEF7B2F8DFF88411DFF88401FEF760FAB0
:105A4000DFF87C01FEF776FA80B2FEF7C3F80500B6
:105A5000EDB2002D08D1FDF73DFD0500EDB2002DA2
:105A600002D02800C0B216E0206B002804D0206BC2
:105A700002F08FF9FCF7EDFCFCF79DFC002000F034
:105A80008BF9DFF80803FEF7B3FBDFF80803FEF736
:105A9000EEFD2800C0B232BD38B50400002500F08C
:105AA00076F8A4B22300DFF8E8020078C0F3C2025F
:105AB000D2B2DFF854134248FEF722FAA4B2DFF85C
:105AC000D002C0F8A4403E48FEF734FA80B2FEF798
:105AD00081F80500EDB2002D23D1DFF894030068B2
