:020000040800F2
:1000000000000220F91C0008751C0008771C00087D
:10001000791C00087B1C00087D1C00080000000003
:100020000000000000000000000000007F1C00082D
:10003000811C000800000000831C0008851C0008CB
:10004000491D0008491D0008491D0008491D0008F8
:10005000491D0008491D0008491D0008491D0008E8
:10006000491D0008491D0008491D0008491D0008D8
:10007000491D0008491D0008491D0008491D0008C8
:10008000491D0008491D0008491D0008A91C000859
:10009000A51C0008A11C0008951C0008491D0008AB
:1000A000491D0008491D0008491D0008491D000898
:1000B000491D0008491D0008491D0008491D000888
:1000C000491D0008491D0008491D0008491D000878
:1000D000491D0008491D0008491D0008491D000868
:1000E000491D0008491D0008491D0008491D000858
:1000F000491D0008491D0008491D0008491D000848
:10010000491D0008491D0008491D0008491D000837
:10011000491D0008491D0008491D0008491D000827
:10012000491D0008491D0008491D0008491D000817
:10013000491D00080000000000000000491D0008E3
:10014000491D0008491D0008491D0008491D0008F7
:10015000491D0008491D0008491D0008491D0008E7
:10016000491D0008491D0008491D0008491D0008D7
:10017000491D0008491D0008491D00080000000035
:1001800000000000491D0008000000000000000001
:10019000491D00080000000000000000491D000883
:1001A000000000000000000000000000491D0008E1
:1001B000491D0008491D0008491D0008491D000887
:0401C000491D0008CD
:1001C40010B5054C237833B9044B13B10448AFF38D
:1001D40000800123237010BD0C00002000000000EB
:1001E400941D000808B5034B1BB103490348AFF342
:1001F400008008BD0000000010000020941D0008CD
:10020400034613F8012B002AFBD1181A0138704752
:1002140053B94AB9002908BF00281CBF4FF0FF3169
:100224004FF0FF3000F07AB9ADF1080C6DE904CE5F
:1002340000F006F8DDF804E0DDE9022304B07047BD
:100244002DE9F0478C460D460446089E002B51D1FB
:100254008A4217466DD9B2FA82FEBEF1000F0BD066
:10026400CEF1200C01FA0EF520FA0CFC02FA0EF77E
:100274004CEA050C00FA0EF44FEA174A250CBCFBB5
:10028400FAF81FFA87F90AFB18CC45EA0C4508FB73
:1002940009F3AB420AD9ED1908F1FF3280F023814A
:1002A400AB4240F22081A8F102083D44ED1AA4B209
:1002B400B5FBFAF00AFB105544EA054400FB09F9C2
:1002C400A14509D9E41900F1FF3380F00A81A14561
:1002D40040F2078102383C44A4EB090440EA084098
:1002E4000021002E61D024FA0EF4002334607360E0
:1002F400BDE8F0878B4207D9002E54D0002186E850
:1003040021000846BDE8F087B3FA83F1002940F0E4
:100314008E80AB4202D3824200F2FA80841A65EBEB
:1003240003050120AC46002E3FD086E81010BDE83E
:10033400F08712B90127B7FBF2F7B7FA87FEBEF1CF
:10034400000F34D1EB1B3A0C1FFA87FC0121B3FBDD
:10035400F2F8250C02FB183345EA03450CFB08F3BD
:10036400AB4207D9ED1908F1FF3002D2AB4200F2DB
:10037400D1808046ED1AA3B2B5FBF2F002FB105512
:1003840043EA05440CFB00FCA44507D9E41900F139
:10039400FF3302D2A44500F2B8801846A4EB0C0443
:1003A40040EA08409DE731463046BDE8F087CEF18B
:1003B400200405FA0EF307FA0EF720FA04F83A0CB3
:1003C40025FA04F448EA0308B4FBF2F14FEA1845AD
:1003D40002FB11441FFA87FC45EA044501FB0CF3B8
:1003E400AB4200FA0EF409D9ED1901F1FF3080F0A7
:1003F4008A80AB4240F2878002393D44EB1A1FFAEF
:1004040088F5B3FBF2F002FB103345EA034500FB29
:100414000CF3AB4207D9ED1900F1FF386FD2AB42B0
:100424006DD902383D44EB1A40EA01418FE7C1F12E
:10043400200722FA07F88B4005FA01F448EA03037F
:1004440020FA07FE4FEA134CFD404EEA040EB5FBBA
:10045400FCF94FEA1E440CFB19551FFA83F844EAD1
:10046400054509FB08F4AC4202FA01F200FA01FA6C
:1004740008D9ED1809F1FF3043D2AC4241D9A9F1B2
:1004840002091D442D1B1FFA8EFEB5FBFCF00CFB6C
:1004940010554EEA054400FB08F8A04507D9E418B6
:1004A40000F1FF3529D2A04527D902381C4440EA7F
:1004B4000940A4EB0804A0FB02894C45C6464D46FE
:1004C40015D312D056B1BAEB0E0364EB050404FA4B
:1004D40007F7CB401F43CC40376074600021BDE870
:1004E400F0871846F8E69046E0E6C245EAD2B8EB53
:1004F400020E69EB03050138E4E72846D7E74046D6
:1005040091E78146BEE7014678E702383C4445E777
:10051400084608E7A8F102083D442BE7704700BFEE
:1005240038B50E4A0E4B054618784FF47A73B3FB70
:10053400F0F31068B0FBF3F000F0C6FB044658B9C2
:100544000F2D09D8024629464FF0FF3000F07CFBFE
:10055400044B20461D6038BD012038BD0800002032
:10056400000000200400002008B50B4B1A6842F478
:1005740000721A601A6842F480621A601A6842F4BF
:1005840080721A60032000F04DFB0020FFF7C8FFC3
:1005940001F0B6FA002008BD003C0240034A044BB7
:1005A40011681B780B441360704700BF28000020BB
:1005B40000000020014B1868704700BF280000208D
:1005C40038B50446FFF7F6FF631C1CBF054B1B78C8
:1005D400054618BFE418FFF7EDFF401B8442FAD824
:1005E40038BD00BF0000002038B5044600286ED096
:1005F40090F820300BB901F0CBFA2268136823F08D
:1006040002031360FFF7D6FF054623685A68910773
:1006140051D41A6842F001021A60FFF7CBFF054675
:1006240023685A68D20754D5227E012A1A680CBF5F
:1006340042F0800222F080021A60627E012A1A6867
:100644000CBF42F0400222F040021A60A27E012A4E
:100654001A680CBF42F0200222F020021A60E27EE7
:10066400012A1A680CBF22F0100242F010021A602C
:10067400227F012A1A680CBF42F0080222F0080205
:100684001A60627F012A1A680CBF42F0040222F049
:1006940004021A60E168A2680A4321690A43616995
:1006A4000A43616801390A43DA6100200123606268
:1006B40084F8203038BDFFF77DFF401B0A28A4D9F9
:1006C400636A43F400336362052384F82030012015
:1006D40038BDFFF76FFF401B0A28A1D9F0E70000DF
:1006E40090F82030012B30B503D090F82030022B45
:1006F40077D13F4BD3F8002242F00102C3F8002225
:10070400D3F8002222F47C52C3F80022D3F800224A
:10071400486A42EA0022C3F800224869D3F81C520E
:1007240001248440E2431540C3F81C52CD69002DD6
:1007340036D1D3F80C521540C3F80C52C000CD6822
:100744008B8800F1804000F5C84043EA0543C0F8B7
:1007540040328D680B8843EA0543C0F84432886907
:10076400234B002835D1D3F804021040C3F8040207
:10077400086990BBD3F814020240C3F814220B6A30
:100784001B4A012B02BFD2F81C322343C2F81C328D
:10079400D2F8003223F00103C2F80032002030BD49
:1007A400012DDCD1D3F80C522543C3F80C520B684D
:1007B4008D8845EA0345C30003F1804303F5C8432C
:1007C4008889C3F840528D6840EA0540C3F8440262
:1007D400C5E7D3F804022043C8E7D3F81422224320
:1007E400CBE7436A43F480234362012030BD00BF5A
:1007F4000064004038B590F82030012B04461FD126
:100804000268022380F82030136823F00103136088
:10081400FFF7D0FE05462368586810F0010001D1A7
:10082400606238BDFFF7C6FE401B0A28F3D9636A2D
:1008340043F400336362052384F82030012038BD7B
:10084400436A43F400234362F8E7F0B590F820408C
:10085400012C03D090F82040022C41D10468A568F3
:100864006F0105D4A5682E0102D4A568ED0031D529
:10087400A0680125C0F3016085401D608D68CF68C4
:1008840000F118030DBB0D6847EA45551B01000133
:10089400E55023180D69097DC3F88451012902BF6D
:1008A400D3F8841141F48071C3F88411044451686D
:1008B400C4F88C111268C4F88821D3F8802142F05E
:1008C4000102C3F880210020F0BD4E683D4345EA93
:1008D400C605DBE7436A43F4001343620120F0BD1D
:1008E400436A43F48023F8E7F0B590F82040012CE4
:1008F40003D090F82040022C70D1066841B9F46806
:10090400A40709D1436A43F4001343620120F0BDF4
:10091400012901D13469F3E70C013519D5F8B07117
:1009240007F004079760002F4BD1D5F8B0717F0D05
:100934001760D5F8B071C7F34007D760D5F8B47124
:1009440007F00F071761D5F8B471D5F8B4512644F0
:10095400C7F307272D0C97615561D6F8B8211A7093
:1009640002682244D2F8B821120A5A70026822445A
:10097400D2F8B821120C9A7002682244D2F8B82135
:10098400120EDA7002682244D2F8BC211A7102688D
:100994002244D2F8BC21120A5A7102682244D2F8C5
:1009A400BC21120C9A7102681444D4F8BC21120EB2
:1009B400DA7159B90268D36843F02003D360002088
:1009C400F0BDD5F8B071FF085760B2E70129F6D140
:1009D4000268136943F020031361F0E7436A43F4A8
:1009E400802392E790F82030012B03D090F8203038
:1009F400022B05D1026853691943516100207047E5
:100A0400436A43F480234362012070477047704770
:100A1400704770477047704770477047704770471A
:100A240070472DE9F84F03685E69D3F804909F6816
:100A3400D3F80CB0D3F810A0D3F8188016F0010442
:100A4400054622D017F0010407D00122B9079A60A5
:100A540040F1A380FFF7DAFF0024FB0509D52B68DA
:100A64004FF48072B8059A6040F1A5802846FFF7DC
:100A7400CEFFFB0309D52B684FF48032B8039A608C
:100A840040F1A7802846FFF7C3FF330707D51BF0C3
:100A9400100F1FBF2B68102244F40074DA6077072C
:100AA40008D51BF0080F05D02B680822DA60284609
:100AB400FFF7B2FFB00706D52B68DB68990702D0B1
:100AC400284600F0DDFE720607D51AF0100F1FBF8E
:100AD4002B68102244F480641A61B30608D51AF016
:100AE400080F05D02B6808221A612846FFF796FFE5
:100AF400F70606D52B681B69980702D02846FFF72E
:100B04008CFFB10308D519F0100F05D02B68102203
:100B14005A602846FFF783FFF20308D519F0080F3F
:100B240005D02B6808225A602846FFF779FF330462
:100B34002AD519F0040F2A6824D0F70504D518F033
:100B4400010F18BF44F00104B00504D518F0020FDA
:100B540018BF44F00204710504D518F0040F18BF3F
:100B640044F0040433050DD518F070030AD0302B7B
:100B74004CD03CD8102B43D0202B44D0936923F085
:100B840070039361042353602CB16B6A1C436C6241
:100B9400284600F09FFEBDE8F88F7A0705D417F0C9
:100BA400080405D1FFF735FF57E74FF4006454E715
:100BB4004FF4805451E7790502D544F4005458E7C2
:100BC4003A0502D544F4804453E72846FFF722FF50
:100BD4004FE7790302D544F4004456E73A0302D5BB
:100BE40044F4803451E72846FFF715FF4DE7502BB6
:100BF4000FD0602B10D0402BC0D144F04004BDE78F
:100C040044F00804BAE744F01004B7E744F02004C1
:100C1400B4E744F08004B1E744F48074AEE7406A7A
:100C240070470000074AD36823F4E0631B041B0CDD
:100C340043F0BF63000243F4003300F4E060034375
:100C4400D360704700ED00E0174B30B5DC68C4F3A7
:100C54000224C4F10703251D042B28BF0423062DF9
:100C64004FF0010505FA03F303F1FF338CBF033C96
:100C740000241940A14005FA04F4013C2240002854
:100C840042EA01024FEA0212AFBF00F1604000F0F5
:100C94000F00064BD2B2A5BF00F56140D2B21A5480
:100CA40080F8002330BD00BF00ED00E014ED00E04B
:100CB4004209012300F01F0003FA00F0014B43F83E
:100CC4002200704700E100E00138B0F1807F0AD2D1
:100CD400064B074A5860F02182F8231000200722AF
:100CE40098601A6070470120704700BF10E000E070
:100CF40000ED00E0044B1A6804280CBF42F0040223
:100D040022F004021A60704710E000E0704708B552
:100D1400FFF7FCFF08BD00002DE9F04F85B00B681C
:100D2400DFF8A081654ADFF8A091019300234FF01A
:100D3400010E019C0EFA03FE0EEA0406B64540F0CD
:100D4400AA804C6824F01007022F16D14FEAD30A68
:100D540000EB8A0A03F0070BDAF820504FEA8B0BFA
:100D64004FF00F0C0CFA0BFC25EA0C0C0D6905FA7C
:100D74000BF545EA0C05CAF820504FEA430A03254F
:100D8400D0F800B005FA0AF5ED4304F0030C0BEAC1
:100D9400050B0CFA0AFC013F4CEA0B0C012FC0F8BE
:100DA40000C011D8876807EA050BCF6807FA0AFC68
:100DB4004CEA0B078760476827EA0E0EC4F3001756
:100DC4009F4047EA0E074760C7683D408F6807FAAF
:100DD4000AF73D43C560E5005DD54FF0000BCDF843
:100DE4000CB0D8F84470364D47F48047C8F84470C6
:100DF400D8F8447007F480470397039F23F0030750
:100E040007F1804707F59C3703F0030CD7F808A0D7
:100E14004FEA8C0C4FF00F0E0EFA0CFEA8422AEA91
:100E24000E0E3FD005F58065A8423DD005F58065DE
:100E3400A8423BD005F58065A84239D005F5806508
:100E4400A84237D0484537D005F50065A84214BFFD
:100E54000725062505FA0CF545EA0E05BD6015685B
:100E6400F74314F4803F0CBF3D403543156055688B
:100E740014F4003F0CBF3D4035435560956814F4AD
:100E8400801F0CBF3D4035439560D568A40254BF14
:100E94003D403543D5600133102B7FF448AF05B096
:100EA400BDE8F08F5D46D5E70125D3E70225D1E7FC
:100EB4000325CFE70425CDE70525CBE7003C01401A
:100EC4000000024000380240001402400AB181616F
:100ED40070470904FBE743695940416170470000CA
:100EE4002DE9F0410D46044610B90120BDE8F0811A
:100EF400444B1A6802F00F028A4228D321688F07F4
:100F04002DD4C80740D43F4B1A6802F00F02954213
:100F140066D3226851076CD4130707D53A4A21696E
:100F2400936823F4604343EAC103936000F098F8A4
:100F3400354B364A9B68C3F30313D35CD840344B18
:100F440018600020FFF7ECFA0020BDE8F081CAB277
:100F54001A701B6803F00F039942C6D1CEE72A4BDF
:100F640011F0040F1EBF9A6842F4E0529A600E0713
:100F740042BF9A6842F460429A609A68A06822F07C
:100F8400F00202439A60BCE762681F4B012A1DD13C
:100F94001B6813F4003FA8D01B4EB36823F003036F
:100FA4001343B360FFF706FB41F288380746B36882
:100FB400626803F00C03B3EB820FA4D0FFF7FAFAD4
:100FC400C01B4045F3D90320BDE8F081911E0129DF
:100FD4001B6802D813F0007FDDE713F0020FDAE795
:100FE400EAB21A701B6803F00F039D427FF47DAFD1
:100FF4008FE70549E0688B6823F4E05303438B6073
:101004008AE700BF003C024000380240741E00081A
:1010140008000020014B1868704700BF080000203A
:10102400044B054A9B68C3F38223D35C034A1068CC
:10103400D840704700380240841E00080800002091
:10104400044B054A9B68C3F34233D35C034A1068DC
:10105400D840704700380240841E00080800002071
:10106400204908B58B6803F00C03082B07D00C2B20
:1010740020D01D4A1D48042B18BF104608BD4A68DD
:101084004B68496813F4800314BF18481648C1F329
:10109400881118BF002302F03F02A1FB0001FFF7F3
:1010A400B7F8104B5B68C3F3014301335B00B0FB3B
:1010B400F3F008BD4A684B68496813F4800314BF11
:1010C4000A480948C1F3881118BF002302F03F02FF
:1010D400A1FB0001FFF79CF8024B5B68C3F30273AA
:1010E400E5E700BF003802400024F40000127A0053
:1010F40003682DE9F341DF07044610D423689E07F3
:1011040067D423681A0700F1B28023685B0700F1F3
:10111400D080A269002A40F0398100201EE0974B5C
:101124009A6802F00C02042A10D09A6802F00C02A9
:10113400082A02D15B685D0208D4904B9A6802F0D9
:101144000C020C2A0DD15A6850020AD58B4B1B682D
:101154009903D3D56368002BD0D1012002B0BDE838
:10116400F0816268B2F5803F11D11A6842F480328E
:101174001A60FFF71FFA814D06462B689A03BDD407
:10118400FFF718FA801B6428F7D90320E6E77B4DA4
:10119400B2F5A02F2B6807D143F480232B602B6872
:1011A40043F480332B60E4E723F480332B602B6813
:1011B40023F480232B60002ADBD1FFF7FBF90646DA
:1011C4002B689B039AD5FFF7F5F9801B6428F7D9A0
:1011D400DBE76A4B9A6812F00C0F10D09A6802F0A1
:1011E4000C02082A02D15B685F0208D5634A93683F
:1011F40003F00C030C2B11D153685E020ED45F4B29
:101204001A68950702D5E268012AA6D11A682169ED
:1012140022F0F80242EAC1021A6072E7E268584B0F
:10122400B2B101221A60FFF7C5F9544D06462B6886
:10123400980707D52B68226923F0F80343EAC20311
:101244002B605EE7FFF7B6F9801B0228EFD99CE715
:101254001A60FFF7AFF9494D06462B6899077FF5E9
:1012640050AFFFF7A7F9801B0228F6D98DE7626912
:10127400444B7AB101221A60FFF79CF93F4D0646B0
:101284006B6F9F073FF541AFFFF794F9801B02286E
:10129400F6D97AE71A60FFF78DF9384D06466B6F79
:1012A40098077FF532AFFFF785F9801B0228F6D93E
:1012B4006BE7324B1A6C12F0805228D101921A6CEF
:1012C40042F080521A641B6C03F080530193019B1B
:1012D40001262D4D2B68D9051BD5A368274D012B5D
:1012E40027D12B6F43F001032B67FFF763F9234DDD
:1012F400074641F288382B6F9B0739D5002E3FF4FF
:1013040008AF1E4A136C23F08053136401E70026D0
:10131400DFE72B6843F480732B60FFF74BF9074634
:101324002B68DA05D9D4FFF745F9C01B0228F7D991
:101334002BE7052B04D12B6F43F004032B67D0E775
:101344002A6F22F001022A672A6F22F004022A6718
:10135400002BCAD1FFF72EF941F2883807462B6FCC
:101364009807CBD5FFF726F9C01B4045F7D90CE702
:10137400FFF720F9C01B4045BDD906E700380240FD
:1013840000004742800E474200700040234DAB6886
:1013940003F00C03082B3FF4E0AE214E0023022A95
:1013A40033602DD1FFF706F907462B68990121D444
:1013B400226AE3691343626A43EA8213E26A43EAF4
:1013C4000263226B43EA0273A26A144C5208013A84
:1013D40043EA02436B6001233360FFF7EBF80546F1
:1013E40023689A013FF599AEFFF7E4F8401B022801
:1013F400F6D9CAE6FFF7DEF8C01B0228D5D9C4E641
:10140400FFF7D8F804462B689B017FF586AEFFF7FB
:10141400D1F8001B0228F6D9B7E600BF0038024015
:10142400600047422DE9F0470668C2683369C16924
:1014340023F4405313433361044683680069F2681C
:101444000343606922F41642034322F00C020B4367
:101454001343F3607369A26923F440731343B1F532
:10146400004F73617A4B7CD19E4203D003F58063B5
:101474009E4244D1FFF7E4FD192505FB00F36068A3
:101484004FF064094000B3FBF0F3B3FBF9F34FEA08
:101494000318FFF7D5FD636868435B00B0FBF3F7FF
:1014A400FFF7CEFD636868435B00B0FBF3F3B3FB67
:1014B400F9F309FB1373DB003233B3FBF9F35B007D
:1014C40003F4F877FFF7BCFD626868435200B0FB91
:1014D400F2FAFFF7B5FD636868435B00B0FBF3F312
:1014E400B3FBF9F309FB13A3DB003233B3FBF9F3CA
:1014F40003F0070343443B44B360BDE8F087FFF7C0
:101504008FFD192505FB00F360684FF06409400066
:10151400B3FBF0F3B3FBF9F34FEA0318FFF780FDD5
:10152400636868435B00B0FBF3F7FFF779FD63681A
:1015340068435B00B0FBF3F3B3FBF9F309FB1373EC
:10154400DB003233B3FBF9F35B0003F4F877FFF706
:1015540067FD626868435200B0FBF2FAFFF760FD72
:10156400B9E79E4202D03B4B9E4240D1FFF768FD53
:10157400676819254FF0640905FB00F3BF00B3FB4E
:10158400F7F3B3FBF9F31F01FFF75AFD63686843F0
:101594009B00B0FBF3F8FFF753FD636868439B00BF
:1015A400B0FBF3F3B3FBF9F309FB13831B013233F1
:1015B400B3FBF9F303F0F008FFF742FD62686843F8
:1015C4009200B0FBF2FAFFF73BFD636868439B00AF
:1015D400B0FBF3F3B3FBF9F309FB13A31B013233A1
:1015E400B3FBF9F303F00F0343EA080383E7FFF7C0
:1015F40017FD676819254FF0640905FB00F3BF0068
:10160400B3FBF7F3B3FBF9F31F01FFF709FD6368BD
:1016140068439B00B0FBF3F8FFF702FD636868437F
:101624009B00B0FBF3F3B3FBF9F309FB13831B013A
:101634003233B3FBF9F303F0F008FFF7F1FC62680F
:1016440068439200B0FBF2FAFFF7EAFCBDE700BF83
:101654000010014000140140F8B504460E46174638
:101664001D4621680B6836EA030301D10020F8BD4A
:101674006B1CF7D095B92368DA6822F4D072DA606B
:101684005A6922F001025A61202384F8393084F81F
:101694003A30002384F838300320F8BDFEF78AFF7F
:1016A400C01B8542DDD2E6E710B5044640B390F88E
:1016B400393003F0FF021BB980F8382000F0B0FA8B
:1016C4002268242384F83930D36823F40053D36088
:1016D4002046FFF7A7FE23681A6922F490421A6194
:1016E4005A6922F02A025A61DA6842F40052DA6036
:1016F40000202023E06384F8393084F83A3010BDA8
:10170400012010BD2DE9F0411F4690F83930202BFF
:1017140004460D4690464FD100294AD0002A48D0AD
:1017240090F83830012B47D0012380F8383000235B
:10173400C363212380F83930FEF73CFFA4F82480EA
:101744000646A4F82680E38C9BB26BB93B4632462E
:1017540040212046FFF780FFB0B9202384F83930B8
:1017640084F83800BDE8F081E38C013B9BB2E3844C
:10177400A368B3F5805F32463B464FF080012046B4
:101784000ED1FFF769FF10B10320BDE8F0812B886B
:101794002268C3F308035360236943B90235D2E7CF
:1017A400FFF75AFF0028EFD123682A785A600135E1
:1017B400C9E70120BDE8F0810220BDE8F081000006
:1017C400032910B512D80A4B18600A48196100237E
:1017D4008B4207D1084B074A05490848FFF735F8FB
:1017E400012010BDD45C1C540133F1E7002010BD6E
:1017F400A80000202C0000203400002080000020DD
:1018040030B5144D8BB00123002469460793089327
:1018140028460E2309930594069400940194029497
:1018240003940494FEF75CFF2846FEF7E3FF0221CD
:101834002846FFF7D7F8084B08221A605A6002229C
:101844001A61DC609C601C75044B1A7004225A7087
:101854000BB030BD80000020A80000202C00002028
:1018640010B50446FEF7CCFC214682B24FF47A73DD
:101874000248BDE81040FFF745BF00BF400000200C
:1018840010B50E4C0E4B22460021FFF72DF82368AD
:10189400022B0DD002D8012B05D010BD102B09D07E
:1018A400112B09D010BD0748BDE81040FFF7D8BF81
:1018B4000548F9E70548F7E70548F5E7C0000020C3
:1018C40038000020FD1D0008161E00082B1E00080D
:1018D400511E000808B5FFF7A2F9042812D005D854
:1018E40001280DD002280FD0094805E020280DD08A
:1018F400B0F5001FF8D10748BDE80840FFF7B0BFB6
:101904000548F9E70548F7E70548F5E70548F3E72B
:10191400EE1D0008AC1D0008BA1D0008CA1D000811
:10192400D31D0008E21D000830B595B00022274BF6
:101934000092196C41F0805119641B6C244903F026
:1019440080530093009B01920B6823F4404343F4BB
:1019540080430B600B680E9203F440430193019B98
:1019640001230A93102302240B930F9304254FF4AD
:10197400A87307A807940D941093119512941394C7
:10198400FFF7B6FB00B1FEE70F23029304904FF478
:1019940080530690214602A803940593FFF7A0FA0A
:1019A400044600B1FEE7FFF735FB4FF47A73B0FB52
:1019B400F3F0FFF789F92846FFF79CF92246214600
:1019C4004FF0FF30FFF740F915B030BD003802404A
:1019D4000070004000B58BB00024FEF7C5FDFFF792
:1019E400A3FF3E4B01941A6B3D4842F004021A6374
:1019F4001A6B02F004020192019A02941A6B42F0EB
:101A040080021A631A6B02F080020292029A039413
:101A14001A6B42F001021A631A6B02F0010203927C
:101A2400039A04941A6B42F002021A631B6B03F0CC
:101A34000203224604932021049BFFF747FA4FF444
:101A44000053059305A9274B274806930794FFF7EE
:101A540063F92023059322480794012305A90693DB
:101A64000894FFF759F92148214B84604FF4E1357C
:101A740080E828000C23C460046143618461C4616C
:101A8400FFF712FE00B1FEE71A4B1B4998601C22B7
:101A940083E806004FF46022D8601A6118764FF488
:101AA400801258769876D8761877587718465A61FF
:101AB400FEF79AFD00B1FEE7FFF7A2FE084D0F4CBA
:101AC40028462021FFF707FA224602210820FFF7C3
:101AD40077FE4FF4FA70FEF773FDF1E70038024029
:101AE40000000240000021100008024040000020D5
:101AF4000044004080000020006400402C000020CE
:101B040013B5224B002400945A6C42F480425A6468
:101B14005A6C02F480420092009A01941A6C42F0CA
:101B240080521A641B6C03F0805301930720019BBD
:101B3400FFF778F8224621466FF00B00FFF784F890
:101B4400224621466FF00A00FFF77EF8224621461E
:101B54006FF00900FFF778F8224621466FF0040081
:101B6400FFF772F8224621466FF00300FFF76CF886
:101B7400224621466FF00100FFF766F8224621460F
:101B84004FF0FF30FFF760F802B010BD003802409C
:101B940010B50268204B9A4286B03AD1002403F56E
:101BA400EA3300941A6C1D4842F000721A641B6CEC
:101BB400039403F000730093009B4FF4C05301930C
:101BC400022302930323049301A909230593FFF736
:101BD400A3F8224621461320FFF736F81320FFF717
:101BE40067F8224621461420FFF72EF81420FFF749
:101BF4005FF8224621461520FFF726F81520FFF747
:101C040057F8162022462146FFF71EF81620FFF744
:101C14004FF806B010BD00BF006400400000024051
:101C24007FB502680F4B9A4219D1002300930E4BE3
:101C34000E481A6C42F400321A641B6C03F400332D
:101C44000093009B0C23019302230293012303932B
:101C54000323049301A907230593FFF75DF807B055
:101C64005DF804FB004400400038024000000240DC
:101C74007047FEE7FEE7FEE7FEE7704770477047F0
:101C840008B5FEF78BFCBDE80840FFF740B800003C
:101C94000148FEF7C6BE00BF80000020FFF7F8BF72
:101CA400FFF7F6BFFFF7F4BF0F49D1F8883043F4CC
:101CB4007003C1F888300D4B1A68002042F001020D
:101CC4001A6098601A6822F0847222F480321A60D2
:101CD400074A5A601A6822F480221A60D8604FF0CA
:101CE40000638B60704700BF00ED00E000380240E5
:101CF40010300024DFF834D0002103E00C4B5B5893
:101D0400435004310B480C4B42189A42F6D30B4A09
:101D140002E0002342F8043B094B9A42F9D3FFF74F
:101D2400C3FF00F011F8FFF755FE704700000220D2
:101D34009C1E0008000000200C0000200C00002065
:101D4400DC000020FEE7000070B50D4E0D4CA41B16
:101D5400A4100025A54209D10B4E0C4C00F018F834
:101D6400A41BA4100025A54205D170BD56F825304A
:101D740098470135EEE756F8253098470135F2E7E4
:101D8400941E0008941E0008941E0008981E000863
:101D9400F8B500BFF8BC08BC9E467047F8B500BF54
:081DA400F8BC08BC9E46704724
:101DAC0065727265757220706172616D0A00707275
:101DBC006F746F636F6C206572726F720A0062755C
:101DCC0073206F66660A00706173736976652065AF
:101DDC0072726F720A006572726575722061636B44
:101DEC000A00617574726573206572726575727321
:101DFC0000726563657074696F6E206465206C2772
:101E0C00E974617420636D640A00706173736167B7
:101E1C0065206D6F6465206D616E75656C0A00726E
:101E2C006563657074696F6E206465206C612076E3
:101E3C00616C65757220636F7572616E7420706F62
:101E4C006D70650A00726563657074696F6E2064ED
:101E5C0065206C612076616C657572206E697665A3
:101E6C006175206561750A0000000000000000002B
:101E7C000102030406070809000000000102030424
:081E8C00B8E3FF7F0100000034
:041E9400E901000858
:041E9800C501000878
:0C1E9C0001000000100000000024F40011
:0400000508001CF9DA
:00000001FF
