:020000040800F2
:1000000000000220392F0008352500083725000898
:10001000392500083B2500083D25000800000000A8
:100020000000000000000000000000003F25000864
:100030004125000800000000432500084525000870
:10004000892F0008892F0008892F0008892F0008B0
:10005000892F0008892F0008892F0008892F0008A0
:10006000892F0008892F0008892F0008892F000890
:10007000892F0008892F0008892F0008892F000880
:10008000892F0008892F0008892F0008692500089A
:10009000652500086125000855250008892F0008FE
:1000A000892F0008892F0008892F0008892F000850
:1000B000892F0008892F0008892F0008892F000840
:1000C000892F0008892F0008892F0008892F000830
:1000D000892F0008892F0008892F0008892F000820
:1000E000892F0008892F0008892F0008892F000810
:1000F000892F0008892F0008892F0008892F000800
:10010000892F0008892F0008892F0008892F0008EF
:10011000892F0008892F0008892F0008892F0008DF
:10012000892F0008892F0008892F0008892F0008CF
:10013000892F00080000000000000000892F00083F
:10014000892F0008892F0008892F0008892F0008AF
:10015000892F0008892F0008892F0008892F00089F
:10016000892F0008892F0008892F0008892F00088F
:10017000892F0008892F0008892F0008000000003F
:1001800000000000892F00080000000000000000AF
:10019000892F00080000000000000000892F0008DF
:1001A000000000000000000000000000892F00088F
:1001B000892F0008892F0008892F0008892F00083F
:0401C000892F00087B
:1001D00010B5054C237833B9044B13B10448AFF381
:1001E00000800123237010BDEC01002000000000FE
:1001F000704E000808B5034B1BB103490348AFF329
:10020000008008BD00000000F0010020704E0008D2
:1002100001F0FF01102A2BDB10F0070F08D010F8B7
:10022000013B013A8B422DD010F0070F42B3F6D1BB
:10023000F0B441EA012141EA014122F007047FF0D4
:1002400000070023F0E80256083C85EA010586EA2B
:10025000010685FA47F5A3FA87F586FA47F6A5FA67
:1002600087F68EB9EED1F0BC01F0FF0102F0070273
:1002700032B110F8013B013A83EA010313B1F8D11E
:100280000020704701387047002D06BF35460338FF
:10029000073815F0010F07D1013015F4807F02BF38
:1002A000013015F4C03F0130F0BC0138704700BF89
:1002B00010F8012B11F8013B012A28BF9A42F7D010
:1002C000D01A7047034613F8012B002AFBD1181AE5
:1002D0000138704753B94AB9002908BF00281CBF2C
:1002E0004FF0FF314FF0FF3000F07AB9ADF1080C5C
:1002F0006DE904CE00F006F8DDF804E0DDE9022344
:1003000004B070472DE9F0478C460D460446089E20
:10031000002B51D18A4217466DD9B2FA82FEBEF146
:10032000000F0BD0CEF1200C01FA0EF520FA0CFCD8
:1003300002FA0EF74CEA050C00FA0EF44FEA174ADF
:10034000250CBCFBFAF81FFA87F90AFB18CC45EA22
:100350000C4508FB09F3AB420AD9ED1908F1FF324D
:1003600080F02381AB4240F22081A8F102083D4495
:10037000ED1AA4B2B5FBFAF00AFB105544EA0544A5
:1003800000FB09F9A14509D9E41900F1FF3380F018
:100390000A81A14540F2078102383C44A4EB0904DC
:1003A00040EA08400021002E61D024FA0EF4002318
:1003B00034607360BDE8F0878B4207D9002E54D0BB
:1003C000002186E821000846BDE8F087B3FA83F1F2
:1003D000002940F08E80AB4202D3824200F2FA80C4
:1003E000841A65EB03050120AC46002E3FD086E859
:1003F0001010BDE8F08712B90127B7FBF2F7B7FA82
:1004000087FEBEF1000F34D1EB1B3A0C1FFA87FCBC
:100410000121B3FBF2F8250C02FB183345EA034532
:100420000CFB08F3AB4207D9ED1908F1FF3002D2FB
:10043000AB4200F2D1808046ED1AA3B2B5FBF2F0D8
:1004400002FB105543EA05440CFB00FCA44507D908
:10045000E41900F1FF3302D2A44500F2B880184637
:10046000A4EB0C0440EA08409DE731463046BDE865
:10047000F087CEF1200405FA0EF307FA0EF720FA02
:1004800004F83A0C25FA04F448EA0308B4FBF2F144
:100490004FEA184502FB11441FFA87FC45EA044560
:1004A00001FB0CF3AB4200FA0EF409D9ED1901F18E
:1004B000FF3080F08A80AB4240F2878002393D44B1
:1004C000EB1A1FFA88F5B3FBF2F002FB103345EA92
:1004D000034500FB0CF3AB4207D9ED1900F1FF38DF
:1004E0006FD2AB426DD902383D44EB1A40EA01416C
:1004F0008FE7C1F1200722FA07F88B4005FA01F4D3
:1005000048EA030320FA07FE4FEA134CFD404EEA87
:10051000040EB5FBFCF94FEA1E440CFB19551FFAFB
:1005200083F844EA054509FB08F4AC4202FA01F2FB
:1005300000FA01FA08D9ED1809F1FF3043D2AC42B4
:1005400041D9A9F102091D442D1B1FFA8EFEB5FBEE
:10055000FCF00CFB10554EEA054400FB08F8A045E2
:1005600007D9E41800F1FF3529D2A04527D9023870
:100570001C4440EA0940A4EB0804A0FB02894C4556
:10058000C6464D4615D312D056B1BAEB0E0364EBF6
:10059000050404FA07F7CB401F43CC403760746072
:1005A0000021BDE8F0871846F8E69046E0E6C2452F
:1005B000EAD2B8EB020E69EB03050138E4E72846FE
:1005C000D7E7404691E78146BEE7014678E7023823
:1005D0003C4445E7084608E7A8F102083D442BE7FC
:1005E000704700BF38B50E4A0E4B054618784FF4D9
:1005F0007A73B3FBF0F31068B0FBF3F000F084FB08
:10060000044658B90F2D09D8024629464FF0FF304D
:1006100000F02CFB044B20461D6038BD012038BD86
:1006200010000020000000200400002008B50B4B43
:100630001A6842F400721A601A6842F480621A6002
:100640001A6842F480721A60032000F0FDFA00205C
:10065000FFF7C8FF01F064FD002008BD003C024028
:10066000034A044B11681B780B441360704700BFAA
:10067000AC07002000000020014B1868704700BF45
:10068000AC07002038B50446FFF7F6FF631C1CBF1B
:10069000054B1B78054618BFE418FFF7EDFF401B1C
:1006A0008442FAD838BD00BF0000002038B50446A7
:1006B00000286ED090F820300BB901F079FD226847
:1006C000136823F002031360FFF7D6FF0546236883
:1006D0005A68910751D41A6842F001021A60FFF774
:1006E000CBFF054623685A68D20754D5227E012ADB
:1006F0001A680CBF42F0800222F080021A60627E0B
:10070000012A1A680CBF42F0400222F040021A602F
:10071000A27E012A1A680CBF42F0200222F02002B9
:100720001A60E27E012A1A680CBF22F0100242F021
:1007300010021A60227F012A1A680CBF42F00802D8
:1007400022F008021A60627F012A1A680CBF42F088
:10075000040222F004021A60E168A2680A432169D7
:100760000A4361690A43616801390A43DA6100207A
:100770000123606284F8203038BDFFF77DFF401B05
:100780000A28A4D9636A43F400336362052384F81A
:100790002030012038BDFFF76FFF401B0A28A1D988
:1007A000F0E7000090F82030012B30B503D090F82E
:1007B0002030022B77D13F4BD3F8002242F00102C8
:1007C000C3F80022D3F8002222F47C52C3F800229E
:1007D000D3F80022486A42EA0022C3F8002248699E
:1007E000D3F81C5201248440E2431540C3F81C5244
:1007F000CD69002D36D1D3F80C521540C3F80C52F8
:10080000C000CD688B8800F1804000F5C84043EA05
:100810000543C0F840328D680B8843EA0543C0F8B1
:1008200044328869234B002835D1D3F804021040A4
:10083000C3F80402086990BBD3F814020240C3F85D
:1008400014220B6A1B4A012B02BFD2F81C3223432D
:10085000C2F81C32D2F8003223F00103C2F8003291
:10086000002030BD012DDCD1D3F80C522543C3F854
:100870000C520B688D8845EA0345C30003F18043A1
:1008800003F5C8438889C3F840528D6840EA0540A3
:10089000C3F84402C5E7D3F804022043C8E7D3F8FD
:1008A00014222243CBE7436A43F4802343620120AE
:1008B00030BD00BF0064004038B590F82030012BF7
:1008C00004461FD10268022380F82030136823F009
:1008D00001031360FFF7D0FE05462368586810F047
:1008E000010001D1606238BDFFF7C6FE401B0A2837
:1008F000F3D9636A43F400336362052384F820303C
:10090000012038BD436A43F400234362F8E7F0B5A1
:1009100090F82040012C03D090F82040022C70D198
:10092000066841B9F468A40709D1436A43F4001387
:1009300043620120F0BD012901D13469F3E70C01C4
:100940003519D5F8B07107F004079760002F4BD127
:10095000D5F8B0717F0D1760D5F8B071C7F34007B7
:10096000D760D5F8B47107F00F071761D5F8B471E7
:10097000D5F8B4512644C7F307272D0C976155616C
:10098000D6F8B8211A7002682244D2F8B821120AA7
:100990005A7002682244D2F8B821120C9A70026888
:1009A0002244D2F8B821120EDA7002682244D2F83A
:1009B000BC211A7102682244D2F8BC21120A5A7171
:1009C00002682244D2F8BC21120C9A7102681444C5
:1009D000D4F8BC21120EDA7159B90268D36843F019
:1009E0002003D3600020F0BDD5F8B071FF08576038
:1009F000B2E70129F6D10268136943F020031361BD
:100A0000F0E7436A43F4802392E790F82030012B0B
:100A100003D090F82030022B05D1026853691943A6
:100A2000516100207047436A43F4802343620120F0
:100A300070477047704770477047704770477047FE
:100A400070477047704770472DE9F84F03685E693B
:100A5000D3F804909F68D3F80CB0D3F810A0D3F863
:100A6000188016F00104054622D017F0010407D0C3
:100A70000122B9079A6040F1A380FFF7DAFF002452
:100A8000FB0509D52B684FF48072B8059A6040F1D8
:100A9000A5802846FFF7CEFFFB0309D52B684FF44E
:100AA0008032B8039A6040F1A7802846FFF7C3FF61
:100AB000330707D51BF0100F1FBF2B68102244F41B
:100AC0000074DA60770708D51BF0080F05D02B6893
:100AD0000822DA602846FFF7B2FFB00706D52B6878
:100AE000DB68990702D0284601F00AF8720607D59C
:100AF0001AF0100F1FBF2B68102244F480641A6193
:100B0000B30608D51AF0080F05D02B6808221A6121
:100B10002846FFF796FFF70606D52B681B6998074E
:100B200002D02846FFF78CFFB10308D519F0100F4B
:100B300005D02B6810225A602846FFF783FFF20386
:100B400008D519F0080F05D02B6808225A602846EE
:100B5000FFF779FF33042AD519F0040F2A6824D04F
:100B6000F70504D518F0010F18BF44F00104B005D3
:100B700004D518F0020F18BF44F00204710504D523
:100B800018F0040F18BF44F0040433050DD518F015
:100B900070030AD0302B4CD03CD8102B43D0202BE4
:100BA00044D0936923F070039361042353602CB104
:100BB0006B6A1C436C62284600F0CCFFBDE8F88FDE
:100BC0007A0705D417F0080405D1FFF735FF57E77A
:100BD0004FF4006454E74FF4805451E7790502D58F
:100BE00044F4005458E73A0502D544F4804453E7EE
:100BF0002846FFF722FF4FE7790302D544F400446B
:100C000056E73A0302D544F4803451E72846FFF70B
:100C100015FF4DE7502B0FD0602B10D0402BC0D1CB
:100C200044F04004BDE744F00804BAE744F010047F
:100C3000B7E744F02004B4E744F08004B1E744F49B
:100C40008074AEE7406A7047074AD36823F4E063D4
:100C50001B041B0C43F0BF63000243F4003300F499
:100C6000E0600343D360704700ED00E0174B30B500
:100C7000DC68C4F30224C4F10703251D042B28BF3C
:100C80000423062D4FF0010505FA03F303F1FF33AA
:100C90008CBF033C00241940A14005FA04F4013C38
:100CA0002240002842EA01024FEA0212AFBF00F1DF
:100CB000604000F00F00064BD2B2A5BF00F56140C6
:100CC000D2B21A5480F8002330BD00BF00ED00E01E
:100CD00014ED00E04209012300F01F0003FA00F0C8
:100CE000014B43F82200704700E100E04309012274
:100CF00000F01F0002FA00F02033024A42F82300FD
:100D0000704700BF00E100E00138B0F1807F0AD2F7
:100D1000064B074A5860F02182F823100020072272
:100D200098601A6070470120704700BF10E000E033
:100D300000ED00E04309012200F01F0002FA00F07C
:100D40006033024A42F82300704700BF00E100E030
:100D5000044B1A6804280CBF42F0040222F004027B
:100D60001A60704710E000E0704708B5FFF7FCFF1D
:100D700008BD00002DE9F04F85B00B68DFF8A081B9
:100D8000654ADFF8A091019300234FF0010E019C0A
:100D90000EFA03FE0EEA0406B64540F0AA804C683F
:100DA00024F01007022F16D14FEAD30A00EB8A0A6B
:100DB00003F0070BDAF820504FEA8B0B4FF00F0CC3
:100DC0000CFA0BFC25EA0C0C0D6905FA0BF545EA4B
:100DD0000C05CAF820504FEA430A0325D0F800B0AA
:100DE00005FA0AF5ED4304F0030C0BEA050B0CFAC7
:100DF0000AFC013F4CEA0B0C012FC0F800C011D8CF
:100E0000876807EA050BCF6807FA0AFC4CEA0B076C
:100E10008760476827EA0E0EC4F300179F4047EA31
:100E20000E074760C7683D408F6807FA0AF73D43E1
:100E3000C560E5005DD54FF0000BCDF80CB0D8F8DB
:100E40004470364D47F48047C8F84470D8F8447071
:100E500007F480470397039F23F0030707F18047B8
:100E600007F59C3703F0030CD7F808A04FEA8C0C69
:100E70004FF00F0E0EFA0CFEA8422AEA0E0E3FD0DB
:100E800005F58065A8423DD005F58065A8423BD0B8
:100E900005F58065A84239D005F58065A84237D0B0
:100EA000484537D005F50065A84214BF072506253B
:100EB00005FA0CF545EA0E05BD601568F74314F414
:100EC000803F0CBF3D4035431560556814F4003F2A
:100ED0000CBF3D4035435560956814F4801F0CBF2E
:100EE0003D4035439560D568A40254BF3D4035432D
:100EF000D5600133102B7FF448AF05B0BDE8F08F0B
:100F00005D46D5E70125D3E70225D1E70325CFE7E5
:100F10000425CDE70525CBE7003C01400000024059
:100F200000380240001402402DE9F04F434EDFF834
:100F30001491DFF814A1DFF814B100244FF0010878
:100F400008FA04F232EA010366D103236500076858
:100F500003FA05F5ED4324FA03FC2F4000EB8C0C5B
:100F60000760DCF8207004F0070E3B464FEA8E0E57
:100F70000F2707FA0EFE23EA0E0ECCF820E0D0F879
:100F800008E02F4B05EA0E0EC0F808E0D0F804E0A8
:100F9000D24302EA0E0EC0F804E0D0F80CE005EAF5
:100FA0000E05C56024F0030505F1804505F59C3567
:100FB00004F0030ED5F808C04FEA8E0E07FA0EF7BC
:100FC00098420CEA070C2CD003F5806398422AD093
:100FD00003F58063984228D003F58063984226D0B9
:100FE000484526D0504526D058450CBF0623072338
:100FF00003FA0EF39C450FD1AB6823EA0707AF60F5
:10100000336813403360736813407360B3681340F0
:10101000B360F3681A40F2600134102C90D1BDE83F
:10102000F08F0023E4E70123E2E70223E0E7032354
:10103000DEE70423DCE70523DAE700BF003C0140DC
:10104000000002400010024000140240001802405C
:101050000369194214BF0120002070470AB1816161
:1010600070470904FBE700002DE9F0410D460446F6
:1010700010B90120BDE8F081444B1A6802F00F025C
:101080008A4228D321688F072DD4C80740D43F4B0C
:101090001A6802F00F02954266D3226851076CD499
:1010A000130707D53A4A2169936823F4604343EA5A
:1010B000C103936000F098F8354B364A9B68C3F340
:1010C0000313D35CD840344B18600020FFF78AFA32
:1010D0000020BDE8F081CAB21A701B6803F00F034C
:1010E0009942C6D1CEE72A4B11F0040F1EBF9A6871
:1010F00042F4E0529A600E0742BF9A6842F460429E
:101100009A609A68A06822F0F00202439A60BCE7F5
:1011100062681F4B012A1DD11B6813F4003FA8D041
:101120001B4EB36823F003031343B360FFF7A4FA25
:1011300041F288380746B368626803F00C03B3EBEA
:10114000820FA4D0FFF798FAC01B4045F3D90320C3
:10115000BDE8F081911E01291B6802D813F0007FC1
:10116000DDE713F0020FDAE7EAB21A701B6803F04A
:101170000F039D427FF47DAF8FE70549E0688B68E0
:1011800023F4E05303438B608AE700BF003C024036
:10119000003802400667000810000020014B186864
:1011A000704700BF10000020044B054A9B68C3F342
:1011B0008223D35C034A1068D8407047003802404D
:1011C0001667000810000020044B054A9B68C3F313
:1011D0004233D35C034A1068D8407047003802405D
:1011E0001667000810000020204908B58B6803F03E
:1011F0000C03082B07D00C2B20D01D4A1D48042BB4
:1012000018BF104608BD4A684B68496813F480034C
:1012100014BF18481648C1F3881118BF002302F004
:101220003F02A1FB0001FFF755F8104B5B68C3F3C9
:10123000014301335B00B0FBF3F008BD4A684B6823
:10124000496813F4800314BF0A480948C1F38811A0
:1012500018BF002302F03F02A1FB0001FFF73AF89C
:10126000024B5B68C3F30273E5E700BF003802403E
:101270000024F40000127A0003682DE9F341DF072F
:10128000044610D423689E0767D423681A0700F128
:10129000B28023685B0700F1D080A269002A40F089
:1012A000398100201EE0974B9A6802F00C02042A54
:1012B00010D09A6802F00C02082A02D15B685D0225
:1012C00008D4904B9A6802F00C020C2A0DD15A688F
:1012D00050020AD58B4B1B689903D3D56368002B4A
:1012E000D0D1012002B0BDE8F0816268B2F5803F44
:1012F00011D11A6842F480321A60FFF7BDF9814DAE
:1013000006462B689A03BDD4FFF7B6F9801B642804
:10131000F7D90320E6E77B4DB2F5A02F2B6807D164
:1013200043F480232B602B6843F480332B60E4E785
:1013300023F480332B602B6823F480232B60002A56
:10134000DBD1FFF799F906462B689B039AD5FFF787
:1013500093F9801B6428F7D9DBE76A4B9A6812F08F
:101360000C0F10D09A6802F00C02082A02D15B68B8
:101370005F0208D5634A936803F00C030C2B11D16C
:1013800053685E020ED45F4B1A68950702D5E26877
:10139000012AA6D11A68216922F0F80242EAC102A4
:1013A0001A6072E7E268584BB2B101221A60FFF787
:1013B00063F9544D06462B68980707D52B682269B8
:1013C00023F0F80343EAC2032B605EE7FFF754F90A
:1013D000801B0228EFD99CE71A60FFF74DF9494DB1
:1013E00006462B6899077FF550AFFFF745F9801B3C
:1013F0000228F6D98DE76269444B7AB101221A605E
:10140000FFF73AF93F4D06466B6F9F073FF541AF37
:10141000FFF732F9801B0228F6D97AE71A60FFF746
:101420002BF9384D06466B6F98077FF532AFFFF703
:1014300023F9801B0228F6D96BE7324B1A6C12F0A5
:10144000805228D101921A6C42F080521A641B6CAF
:1014500003F080530193019B01262D4D2B68D90584
:101460001BD5A368274D012B27D12B6F43F0010318
:101470002B67FFF701F9234D074641F288382B6FA0
:101480009B0739D5002E3FF408AF1E4A136C23F09A
:101490008053136401E70026DFE72B6843F4807371
:1014A0002B60FFF7E9F807462B68DA05D9D4FFF778
:1014B000E3F8C01B0228F7D92BE7052B04D12B6FCB
:1014C00043F004032B67D0E72A6F22F001022A675A
:1014D0002A6F22F004022A67002BCAD1FFF7CCF84A
:1014E00041F2883807462B6F9807CBD5FFF7C4F831
:1014F000C01B4045F7D90CE7FFF7BEF8C01B4045BD
:10150000BDD906E70038024000004742800E47423E
:1015100000700040234DAB6803F00C03082B3FF430
:10152000E0AE214E0023022A33602DD1FFF7A4F84C
:1015300007462B68990121D4226AE3691343626A42
:1015400043EA8213E26A43EA0263226B43EA0273CC
:10155000A26A144C5208013A43EA02436B60012329
:101560003360FFF789F8054623689A013FF599AE85
:10157000FFF782F8401B0228F6D9CAE6FFF77CF88D
:10158000C01B0228D5D9C4E6FFF776F804462B68BD
:101590009B017FF586AEFFF76FF8001B0228F6D996
:1015A000B7E600BF0038024060004742704703685A
:1015B000DA6842F00102DA601A6842F001021A6049
:1015C000002070472E4A0368904212D0B0F1804F3D
:1015D0000FD0A2F57C4290420BD002F5806290427F
:1015E00007D002F58062904203D002F57842904223
:1015F0001DD14A6823F070031343214A904204D15D
:10160000CA6823F44073134328E0B0F1804FF7D049
:101610001C4A9042F4D002F580629042F0D002F56C
:1016200080629042ECD002F578429042E8D0164AAF
:101630009042E5D002F580629042E1D002F58062EE
:101640009042DDD0A2F598329042D9D002F5806266
:101650009042D5D002F580629042D1D003608B6871
:10166000C3620B688362064B984206D003F5806321
:10167000984202D00123436170470B690363F9E785
:1016800000000140000400400040014010B5044645
:10169000A0B190F8393003F0FF021BB980F8382070
:1016A000FFF784FF022384F839302068211DFFF7FB
:1016B00089FF012384F83930002010BD012010BDBE
:1016C0002DE9F0470668C2683369C16923F44053C5
:1016D00013433361044683680069F2680343606919
:1016E00022F41642034322F00C020B431343F3602F
:1016F0007369A26923F440731343B1F5004F73611A
:101700007A4B7CD19E4203D003F580639E4244D144
:10171000FFF75AFD192505FB00F360684FF06409D7
:101720004000B3FBF0F3B3FBF9F34FEA0318FFF704
:101730004BFD636868435B00B0FBF3F7FFF744FDC4
:10174000636868435B00B0FBF3F3B3FBF9F309FB99
:101750001373DB003233B3FBF9F35B0003F4F87768
:10176000FFF732FD626868435200B0FBF2FAFFF700
:101770002BFD636868435B00B0FBF3F3B3FBF9F345
:1017800009FB13A3DB003233B3FBF9F303F00703C8
:1017900043443B44B360BDE8F087FFF705FD1925DE
:1017A00005FB00F360684FF064094000B3FBF0F301
:1017B000B3FBF9F34FEA0318FFF7F6FC63686843DD
:1017C0005B00B0FBF3F7FFF7EFFC636868435B0077
:1017D000B0FBF3F3B3FBF9F309FB1373DB00323314
:1017E000B3FBF9F35B0003F4F877FFF7DDFC626805
:1017F00068435200B0FBF2FAFFF7D6FCB9E79E420D
:1018000002D03B4B9E4240D1FFF7DEFC67681925B2
:101810004FF0640905FB00F3BF00B3FBF7F3B3FB24
:10182000F9F31F01FFF7D0FC636868439B00B0FB2E
:10183000F3F8FFF7C9FC636868439B00B0FBF3F360
:10184000B3FBF9F309FB13831B013233B3FBF9F349
:1018500003F0F008FFF7B8FC626868439200B0FB41
:10186000F2FAFFF7B1FC636868439B00B0FBF3F347
:10187000B3FBF9F309FB13A31B013233B3FBF9F3F9
:1018800003F00F0343EA080383E7FFF78DFC676863
:1018900019254FF0640905FB00F3BF00B3FBF7F314
:1018A000B3FBF9F31F01FFF77FFC636868439B00FC
:1018B000B0FBF3F8FFF778FC636868439B00B0FB6C
:1018C000F3F3B3FBF9F309FB13831B013233B3FBCF
:1018D000F9F303F0F008FFF767FC626868439200D1
:1018E000B0FBF2FAFFF760FCBDE700BF001001405B
:1018F00000140140F8B504460E4617461D462168FF
:101900000B6836EA030301D10020F8BD6B1CF7D049
:1019100095B92368DA6822F4D072DA605A6922F045
:1019200001025A61202384F8393084F83A300023C8
:1019300084F838300320F8BDFEF79EFEC01B8542B8
:10194000DDD2E6E710B5044640B390F8393003F035
:10195000FF021BB980F8382000F072FC22682423B3
:1019600084F83930D36823F40053D3602046FFF75E
:10197000A7FE23681A6922F490421A615A6922F07C
:101980002A025A61DA6842F40052DA600020202309
:10199000E06384F8393084F83A3010BD012010BD7E
:1019A00010B5044668B1242380F8393000F070FC8B
:1019B0000020E06384F8380084F8390084F83A00A5
:1019C00010BD012010BD2DE9F0411F4690F83930BF
:1019D000202B04460D4690464FD100294AD0002ABC
:1019E00048D090F83830012B47D0012380F83830A8
:1019F0000023C363212380F83930FEF73DFEA4F8AD
:101A000024800646A4F82680E38C9BB26BB93B4643
:101A1000324640212046FFF76DFFB0B9202384F8FD
:101A2000393084F83800BDE8F081E38C013B9BB28B
:101A3000E384A368B3F5805F32463B464FF08001F4
:101A400020460ED1FFF756FF10B10320BDE8F0810C
:101A50002B882268C3F308035360236943B9023516
:101A6000D2E7FFF747FF0028EFD123682A785A60B2
:101A70000135C9E70120BDE8F0810220BDE8F08111
:101A800030B5144D8BB001230024694607930893A9
:101A900028460E2309930594069400940194029419
:101AA00003940494FEF77EFE2846FEF705FF02210C
:101AB0002846FEF7AAFF084B08221A605A60022245
:101AC0001A61DC609C601C75044B1A7004225A7009
:101AD0000BB030BD040800202C080020B007002007
:101AE00010B50446FEF7EEFB214682B24FF47A733E
:101AF0000248BDE81040FFF766BF00BFC4070020E2
:101B000010B50E4C0E4B22460021FEF700FF236855
:101B1000022B0DD002D8012B05D010BD102B09D0FF
:101B2000112B09D010BD0748BDE81040FFF7D8BF02
:101B30000548F9E70548F7E70548F5E744080020B8
:101B4000BC070020E54E0008FE4E0008134F0008B9
:101B5000394F000808B5FFF775F8042812D005D8EA
:101B600001280DD002280FD0094805E020280DD00B
:101B7000B0F5001FF8D10748BDE80840FFF7B0BF37
:101B80000548F9E70548F7E70548F5E70548F3E7AD
:101B9000D64E0008944E0008A24E0008B24E00082F
:101BA000BB4E0008CA4E0008C900002389B28180DC
:101BB0000380C3804380014B83607047080200208C
:101BC00030B595B00022274B0092196C41F080513E
:101BD00019641B6C244903F080530093009B01920D
:101BE0000B6823F4404343F480430B600B680E9270
:101BF00003F440430193019B01230A931023022421
:101C00000B930F9304254FF4A87307A807940D9422
:101C10001093119512941394FFF72EFB00B1FEE779
:101C20000F23029304904FF480530690214602A89C
:101C300003940593FFF718FA044600B1FEE7FFF797
:101C4000ADFA4FF47A73B0FBF3F0FFF75DF8284676
:101C5000FFF77EF8224621464FF0FF30FFF706F8E7
:101C600015B030BD00380240007000402DE9F04151
:101C70008AB0534C00250095236B43F00103236386
:101C8000236B03F001030093009BFEF7CFFCFFF7EB
:101C900097FF00F09BFC00F0A1F90195236B4948E8
:101CA00043F004032363236B03F004030193019BBC
:101CB0000295236B43F080032363236B03F08003BF
:101CC0000293029B0395236B43F001032363236B71
:101CD00003F001030393039B0495236B43F002037A
:101CE0002363236B03F002032A4604932021049B01
:101CF000FFF7B4F94FF40053059305A9324B33486D
:101D0000069307950127FFF735F820232D48059303
:101D100005A9069707950895FFF72CF82C482D4B39
:101D200085604FF4E13680E848000C23C56005610A
:101D300043618561C561FFF705FE00B1FEE7264BF3
:101D40002649D86030224FF0804483E816004FF4D3
:101D500020221A6118764FF4801258769876D87639
:101D60001877587718465A61FEF7A0FC054600B16F
:101D7000FEE7DFF884801A4CFFF782FED8F80000F7
:101D800000F054F9D8F800306363164B16486570BC
:101D90000226A670E7701E7001F06EFB204600F070
:101DA0004DFD28B932461149114800F049FCFEE7C3
:101DB000104801F061FB28460AB0BDE8F08100BF81
:101DC00000380240000002400000211000080240DC
:101DD000C4070020004400400408002000640040C4
:101DE000B8080020740800205C4F00088F4F0008DE
:101DF000984F00087F4F000808000020FEE7000011
:101E0000002381600360C3604360014B036170473E
:101E1000980300202DE9F74F2E4C05460E469146BB
:101E20000021802220461F4601F071FA0223237010
:101E3000A370294B142202FB05356B7CE370002E46
:101E400043D03046254901F0A1FC4FF0000806467A
:101E50000525C246C6B9B9F1000F02D0002FC8BF90
:101E6000ED19EB1E1A126270A37084F804800C99AD
:101E7000B9F1000F2BD0002F29DDE81B01F034F859
:101E8000002003B0BDE8F08F3046FEF71BFA14497E
:101E90000190304601F05FFC08F1010805F1010BEB
:101EA000019A70B96255D5B22A46314604EB0B004F
:101EB00001F022FA5D440949002001F067FC064662
:101EC000C8E704F805A05D46F5E70525CFE72846F5
:101ED000D4E700BF680C0020A84F0008806200080B
:101EE000A04F0008F8B50C4D07460024142606FB49
:101EF00004F3EA18D26832B9084801F0BDFA4FF08D
:101F0000FF342046F8BD40223946585901F0E9FB1C
:101F10000028F6D00134EAE7A84F000884550008ED
:101F200038B50A4B00241D46DA68194632B908480C
:101F300001F0A2FA14235C43285938BD4A7C82423E
:101F400003F11403F6D00134EEE700BFA84F0008F8
:101F500084550008F0B50F4685B03D21064601F0D6
:101F6000AAFB20210446304601F0A5FB00230546CC
:101F700003930CB104F8013B65B1002305F8013B64
:101F80002C21204601F0D4FBB0B103AA1049013046
:101F900001F022FB3046FFF7A5FF061E09DB0D4AC4
:101FA0000097142303FB06232146DF68039B2A4680
:101FB000B847304605B0F0BD0749304601F0CBFBCD
:101FC0000028E7D0204600F0E0FF0390E2E700BFE2
:101FD000AE690008A84F00089D55000808B50E4BD3
:101FE0000E481B6842F21072B3FBF2F30C4A013B3D
:101FF00013600C4A0260436063220023C2600361E5
:102000008360FFF743FB28B187210748BDE80840FC
:10201000FFF7F4BE08BD00BF10000020D01F002055
:102020009807002000040040ED66000808B50F4B3B
:102030000F4A1A60586000220C2118469A60DA6034
:102040001A619A615961DA61FFF7AAFC18B1D021CF
:102050000848FFF7D3FE0548FFF774FC28B1D421E8
:102060000448BDE80840FFF7C9BE08BD200B0020AA
:1020700000100140ED660008104B4FF4007210B5DF
:102080004FF4827E82610722044680E80840C262E3
:10209000002318228360C3600361436103624362CB
:1020A000C261836200F060F923685A6842F003025B
:1020B0005A601A6842F040021A6010BD00300140B8
:1020C00008B5054B80225A611720FEF733FE172012
:1020D000BDE80840FEF7FEBD003C01401720FEF7BA
:1020E00005BE000010B5002202210548044CFEF791
:1020F000B5FF02212046FEF7ABFF0028F9D110BD45
:1021000000080240044B1A6893681B06FCD40122A5
:1021100002210248FEF7A2BF300D00200008024055
:1021200013B5224B002400945A6C42F480425A6446
:102130005A6C02F480420092009A01941A6C42F0A8
:1021400080521A641B6C03F0805301930720019B9B
:10215000FEF77AFD224621466FF00B00FEF786FD62
:10216000224621466FF00A00FEF780FD22462146F6
:102170006FF00900FEF77AFD224621466FF0040059
:10218000FEF774FD224621466FF00300FEF76EFD58
:10219000224621466FF00100FEF768FD22462146E7
:1021A0004FF0FF30FEF762FD02B010BD0038024074
:1021B00010B50268204B9A4286B03AD1002403F54C
:1021C000EA3300941A6C1D4842F000721A641B6CCA
:1021D000039403F000730093009B4FF4C0530193EA
:1021E000022302930323049301A909230593FEF715
:1021F000C1FD224621461320FEF738FD1320FEF7CD
:1022000069FD224621461420FEF730FD1420FEF71A
:1022100061FD224621461520FEF728FD1520FEF718
:1022200059FD162022462146FEF720FD1620FEF716
:1022300051FD06B010BD00BF006400400000024028
:102240007FB502680F4B9A4219D1002300930E4BC1
:102250000E481A6C42F400321A641B6C03F400330B
:102260000093009B0C230193022302930123039309
:102270000323049301A907230593FEF77BFD07B011
:102280005DF804FB004400400038024000000240BA
:102290000268064B9A4208D1054A0648136C23F49B
:1022A000003313640C21FEF73FBE7047004400402A
:1022B00000380240000002402DE9F041069E04462D
:1022C000884617461D462268936838EA03030CBF08
:1022D000012300239F4202D10020BDE8F0816B1C46
:1022E000F2D055BB23685A6822F0E0025A60626857
:1022F000B2F5827F0AD1A268B2F5004F02D0B2F5E2
:10230000806F03D11A6822F040021A60A26AB2F507
:10231000005F09D11A6822F400521204120C1A60EC
:102320001A6842F400521A60012384F851300023E5
:1023300084F850300320BDE8F081FEF79DF9801B42
:102340008542C0D8CEE713B50B460092802100220B
:102350000446FFF7B1FF20B1636D43F020036365CE
:10236000032002B010BD704710B50446002836D0D7
:102370000023836290F8513003F0FF021BB980F80C
:102380005020FFF7F0FF2168A068A269022384F8BB
:1023900051300B6823F040030B6063680343E0682F
:1023A00003432069034360690343E0690343206AF0
:1023B0000343A06A034302F4007003430B60120C52
:1023C000636A02F004021A434A60CB6923F4006393
:1023D000CB6100200123606584F8513010BD0120DD
:1023E00010BD2DE9FF411E4690F85030012B0446E8
:1023F0000D46904600F09C80012380F85030FEF797
:102400003BF9074694F85100C0B2012840F08E8095
:10241000002D4ED0B8F1000F4BD0032384F851307B
:1024200000236365A363A4F83680A387E38763640E
:102430002364A3682563B3F5004F2368A4F83480B0
:1024400002BF1A6842F480421A601A6852065EBFE0
:102450001A6842F040021A60E268B2F5006F6268E2
:1024600038D11AB1E28E92B2012A06D135F8022B88
:10247000DA60E38E013B9BB2E386E38E9BB293B9B5
:1024800000973346012202212046FFF715FF78B955
:102490003A4631462046FFF756FF002838D0202321
:1024A0006365012005E023689A689007DED44EB981
:1024B0000320012384F85130002384F8503004B005
:1024C000BDE8F081711CD8D0FEF7D6F8C01B86425B
:1024D000D3D8EDE71AB1E28E92B2012A06D115F8EF
:1024E000012B1A73E38E013B9BB2E386E38E9BB212
:1024F000002BC5D023689A689207F0D4002ED7D05D
:10250000731CF3D0FEF7B8F8C01B8642EED8CFE7B5
:10251000A36833B903932368DA6803929B68039333
:10252000039B606D003018BF0120C2E70220C0E7A6
:102530000220C4E77047FEE7FEE7FEE7FEE77047CC
:102540007047704708B5FEF78BF8BDE80840FEF706
:102550000CBC00000148FEF777BA00BF0408002059
:10256000FFF7F8BFFFF7F6BFFFF7F4BF034B0122F9
:10257000202153F82000FEF771BD00BF0C000020A1
:102580000F49D1F8883043F47003C1F888300D4BFF
:102590001A68002042F001021A6098601A6822F05E
:1025A000847222F480321A60074A5A601A6822F450
:1025B00080221A60D8604FF000638B60704700BFC4
:1025C00000ED00E00038024010300024174A18499E
:1025D000936803F00C03042B10B50DD0082B0DD01D
:1025E000144B0B60114B144A9B68C3F30313D25C6A
:1025F0000B68D3400B6010BD104BF2E75468506875
:1026000052686302C2F3881200F03F004CBF0B4BCC
:10261000084BB3FBF0F35343044A5268C2F3014240
:1026200001325200B3FBF2F3DBE700BF0038024097
:10263000100000200024F4000667000800127A0051
:102640002DE9F04106460F4690460A460146554898
:10265000554D00F011FF554800F00EFF534800F0B3
:102660000BFF524800F008FF00F06EFA00225049BC
:10267000504800F08DFF02214E48FFF76BFC6B784D
:1026800013F0040F2C4642D14B4800F0F5FE4A48A7
:1026900000F0F2FE484800F0EFFE6B78474843F048
:1026A00004036B7000F0E8FE444800F0E5FE434888
:1026B00000F0E2FE002F36D1414800F0DDFE404838
:1026C00000F0DAFE3E4800F0D7FE3D4800F0D4FEB0
:1026D000002E39D03A4800F0CFFE394800F0CCFE49
:1026E000374800F0C9FE364800F0C6FE304600F01C
:1026F00003FB054658B3334800F0BEFE314800F0F6
:10270000BBFE304800F0B8FE0820BDE8F0812E483E
:1027100000F0B2FE2C4800F0AFFE2B4800F0ACFEFB
:102720000720BDE8F081384600F012FB0028C3D036
:10273000264800F0A1FE254800F09EFE234800F048
:102740009BFE0920BDE8F081214B5868CFE7214866
:1027500000F092FE4146204800F0B6FA00BB1F4848
:1027600000F08AFE01211E4800F0AEFAC0B91D48F3
:1027700000F082FE00F0E8F901220D490D4800F05A
:1027800007FF02210B48FFF7E5FB00F0CBF938B952
:10279000237843F004032370637865F38203637046
:1027A000BDE8F081B2670008610B0020CA6700082D
:1027B0007C670008CC150020E06700081668000858
:1027C00071680008826800082C68000861680008C9
:1027D000981500208F68000889670008A86800081D
:1027E00098670008BD68000830B587B0114B00221B
:1027F0000092196B41F0020119631B6B039203F005
:102800000203009305460124009B0B480194032317
:1028100001A902940493FEF7ADFA3DB12246214688
:102820000548FEF71BFC002007B030BD2A462146B4
:10283000F6E700BF003802400004024038B54648C1
:1028400000F01AFE454800F08BFE454800F088FE77
:10285000444800F085FE00F0D1F90120FFF7C4FFE5
:1028600000F008F90021404800F02EFA0446002844
:102870006FD100F069F93D493D4800F02AFF02217F
:102880003B48FFF767FB00F04DF90446002860D194
:1028900000F05AF93749364800F01BFF022134484E
:1028A000FFF758FB00F03EF90446002851D100F034
:1028B000E1F800F049F922462F492D4800F068FE62
:1028C00002212B48FFF746FB00F02CF904460028B4
:1028D0003FD12A4B1D469A7D0F2AFCD10021284862
:1028E00000F0F2F90446002833D100F02DF901225E
:1028F00021491F4800F04CFE02211D48FFF72AFB2A
:1029000000F010F9044620BB2B78DB06FCD500F064
:102910001BF91C49164800F0DCFE02211448FFF7A1
:1029200019FB00F0FFF8044698B90146164800F07C
:10293000CBF9044668B9FFF757FF00F00DF90446DC
:1029400038B9124800F00CFE114B1B68986800F073
:10295000D3FB204638BD00BFCF680008E7680008F9
:10296000006900081C6900082C690008F35700087A
:10297000CC150020C35700087C6700080009002020
:102980009867000839690008506900086069000804
:102990001C0000201B4B1A7842F008021A701A78AB
:1029A00042F080021A701A786FF386121A700022B1
:1029B0005A749A745A60597862F300015970FF2171
:1029C00099750221D97419755A75DA600E4B197808
:1029D000987941F003011970597962F345115971E1
:1029E000197A01F0F80140F0040062F3C301987114
:1029F0001972D879597A62F3C71062F38201D871DB
:102A00005972704700090020610B0020164B1748CF
:102A1000DA796FF3C502DA714FF480520021C3F8FE
:102A2000E4200A22A3F89A20C3F8AC10C3F8A0103F
:102A3000C3F8A810C3F8B810C3F8B010A3F89810E2
:102A4000C3F8BC10C3F8C410C3F8C8105973C3F856
:102A5000CC10A3F89410064B4FF001321A605A6064
:102A60004FF4006200F053BC6C0B0020880D002076
:102A700090150020F7B5214B21492248224C002611
:102A800000961A6B42F002021A631A6B02F00202FD
:102A90000092009A01961A6B42F001021A631B6BB6
:102AA00003F0010301934FF480750127019B0D632F
:102AB0000323CB634F638F633031FEF75BF9134B16
:102AC00010481E703246FF232946A375FEF7C6FA4A
:102AD000C820FDF7D7FD29463A460A48FEF7BEFA58
:102AE0003220FDF7CFFD29460648FEF71DFAA37DEB
:102AF0000E2B01D103B0F0BD00BFF8E70038024053
:102B00001420002000000240000900209C07002043
:102B1000034B00229A601A7842F004021A70704740
:102B200000090020064A5378DB0707D553786FF376
:102B300000035370034B93F8E800704700BFF2E7BF
:102B4000000900206C0B00204FF4006200210148B6
:102B500000F0DDBBCC15002030B585B0002301931B
:102B60000293ADF80C30FFF7EFFF1A4A1A491B48E1
:102B700000F00EFD02211948FFF7ECF9184B032273
:102B80005A75FFF7CFFF044600BB1648FDF79AFBC6
:102B900014490546024601A800F0AEFB2A46124D34
:102BA0001048214600F0B3FB29681048FDF780FB70
:102BB00060B96D6801A82946FDF77AFB002805DA9F
:102BC0002A460A490A4800F057FC0224204605B06C
:102BD00030BD00BF546A00085F6A0008CC150020B1
:102BE000000900207A0B0020140000206B6A000806
:102BF000716A00080020FFF7B9BC000010B54FF45F
:102C000080611448FFF7FCF8134A144853786FF3B7
:102C100043035370124B00241C70FFF72DFAFFF78B
:102C20004FFAFFF7F3FEFFF7B5FE0E483221FEF72D
:102C3000BBFFFFF76DFF0C4B0C481C605C60FEF7A0
:102C4000B6FC30B10A4800F017FCBDE81040FFF7B1
:102C5000D1BF10BD1420002000090020300D00203D
:102C60009C07002028200020E80C0020D01F002016
:102C70008968000870B5104C05460E46FFF764FFE2
:102C800033462A460D49204600F082FC02212046A8
:102C9000FFF760F90A4B0B4C03225A75FFF742FF0E
:102CA0000546204600F0E8FB204600F0E5FB204604
:102CB00000F0E2FB284670BDCC1500207B690008BF
:102CC000000900208B69000870B5094C05460E46C6
:102CD000FFF73AFF33462A460649204600F058FCE3
:102CE00020460221FFF736F9BDE87040FFF71ABF12
:102CF000CC150020A169000838B5114C0546FFF736
:102D000023FF204600F0B8FB204600F0B5FB20462C
:102D10000C4C00F0B1FB2A460B49204600F038FC71
:102D200020460A4C0221FFF715F9204600F0A4FBCB
:102D3000204600F0A1FB204600F09EFB002038BD9D
:102D4000B1690008CC150020D9690008E9690008BC
:102D500010B50446FFF7F8FE0C4800F08DFB0B4859
:102D600000F08AFB094800F087FB21460848FFF77E
:102D700081FF044640B1074800F07EFB054800F0A3
:102D80007BFB044800F078FB204610BD066A000873
:102D9000276A0008396A000838B5304C0546FFF745
:102DA0009DF9FFF79FF9A26C1268116821F00101EB
:102DB0001160E16C0968086820F00100086008688B
:102DC00020F01000086026498A4204D9254B4FF0B4
:102DD0000062DA6006E0244B9A421AD94FF0006292
:102DE000C3F850233B20FDF7A5FFA36C1B681A68AE
:102DF00042F010021A601A68012D42F480621A60D3
:102E00001AD00FD3022D1ED01A6842F001021A60A8
:102E100038BD164B9A424FF00062A3F15803D8D840
:102E20009A60DFE7124A00211170124A12785A6044
:102E3000114A1268DA60E7E70D4A15700F4A126806
:102E40005A600F4AF5E70A4A012111700D4AB2F89B
:102E50008C105960D2F88820ECE700BF300D0020BC
:102E60005864024000640240B8600240586002406A
:102E7000732000205C2000206420002060200020BF
:102E8000782000206C0B002008B5FFF73BF9094AB9
:102E9000936C19680B6823F001030B60D36C1A68FC
:102EA000136823F001031360FFF70AF9024B0122B4
:102EB0001A7008BD300D00205820002038B5044697
:102EC0000D46FFF70BF9FFF70DF94FF47A73AAB22D
:102ED00021460448FFF785FA18B9BDE83840FFF7E6
:102EE000D3BF38BD300D002070B50F4B0F4C0546D9
:102EF000D87823600E46FFF713F801460C4800F01F
:102F0000BBFA0C4B012E1D6002D0022E06D070BD04
:102F100029462068BDE87040FFF7D0BF0120BDE81A
:102F20007040FFF739BF00BF680C002078200020F8
:102F3000B26A000860200020DFF834D0002103E0EE
:102F40000C4B5B58435004310B480C4B42189A42CF
:102F5000F6D30B4A02E0002342F8043B094B9A42A5
:102F6000F9D3FFF70DFB00F0A3F9FEF77FFE7047E2
:102F700000000220886C000800000020EC01002006
:102F8000EC0100208C240020FEE70A22002100F042
:102F9000E3BC00008A892DE9F041054610070C4684
:102FA0005AD44B68002B05DC0B6C002B02DC002094
:102FB000BDE8F081E66A002EF9D0002312F48052B9
:102FC0002F682B6033D0606DA3895A0705D56368DD
:102FD000C01A636B0BB1236CC01A00230246E66A69
:102FE000216A2846B047431CA38906D129681D29B8
:102FF0004BD82B4ACA40D60747D500226260D90475
:103000002269226004D5421C01D12B6803B9606596
:10301000616B2F600029CAD004F14403994202D0A9
:10302000284600F07DF900206063BDE8F081216A48
:1030300001232846B047411CC6D12B68002BC3D0C2
:103040001D2B01D0162B01D12F60B0E7A38943F0CF
:103050004003A381BDE8F0810F69002FA7D093073B
:103060000E6808BF4B690F6018BF0023A6EB070866
:103070008B60B8F1000F9ADD43463A46216AA66A92
:103080002846B047002807DCA38943F04003A3810A
:103090004FF0FF30BDE8F0810744A8EB0008E8E7F7
:1030A0000100402038B50B6905460C46DBB118B16C
:1030B00083690BB900F072F80C4B9C4209D16C6823
:1030C000B4F90C307BB121462846BDE83840FFF703
:1030D00061BF074B9C4201D1AC68F1E7054B9C42B4
:1030E00008BFEC68ECE7002038BD00BFDC6A0008D0
:1030F000FC6A0008BC6A0008014620B9044B054977
:10310000186800F0B7B8044B1868FFF7CBBF00BFD2
:103110001C6B0008A53000081C000020014900F0CD
:10312000A9B800BFA5300008002310B5044603600D
:103130004360836081814366C2810361436183612F
:10314000194608225C3000F0E2F8054B6362054B3B
:10315000A362054BE362054B2462236310BD00BFED
:103160002D360008533600088B360008AF360008AD
:1031700070B54A1E682555430E4605F1740100F0EE
:103180001DF9044640B1002180E842000C30A060E7
:1031900005F1680200F0BBF8204670BD836910B5E8
:1031A000044633BB8364C3640365124B124A1B6835
:1031B0008262984204BF0123836100F01FF86060BF
:1031C000204600F01BF8A060204600F017F800220F
:1031D000E06004216068FFF7A7FF01220921A068D1
:1031E000FFF7A2FF02221221E068FFF79DFF0123F3
:1031F000A36110BD1C6B00081D310008F8B51C4B05
:103200001E68B369074613B93046FFF7C7FF483653
:10321000B4687368013B03D5336833B13668F7E7A8
:10322000B4F90C506DB16834F4E704213846FFF767
:103230009FFF30600028F1D10C233B6004462046FC
:10324000F8BD4FF6FF73E3810123A3816566256016
:10325000A560656025616561A5610822294604F1C4
:103260005C0000F054F86563A563A564E564E6E7D7
:103270001C6B00082DE9F8438046894600F148049C
:10328000002614B93046BDE8F883A5686768013F99
:1032900001D52468F5E7AB89012B07D9B5F90E30C4
:1032A000013303D029464046C84706436835EEE758
:1032B00070B50D4E0D4CA41BA4100025A54209D1DC
:1032C0000B4E0C4C01F0D4FDA41BA4100025A5420C
:1032D00005D170BD56F8253098470135EEE756F810
:1032E000253098470135F2E7806C0008806C0008B3
:1032F000806C0008846C000810B5431E0A4491429B
:1033000000D110BD11F8014B03F8014FF7E702445B
:103310000346934200D1704703F8011BF9E7000010
:1033200038B50546002945D051F8043C0C1F002B48
:10333000B8BFE41800F0AAFC1F4A1368104633B95E
:10334000636014602846BDE8384000F0A0BCA3428A
:103350000CD921686218934204BF1A685B686360E5
:1033600004BF521822600460ECE713465A680AB1A1
:10337000A242FAD919685818A0420BD1206801441A
:10338000581882421960DDD1106852685A600144B1
:103390001960D7E702D90C232B60D3E720682118E6
:1033A0008A4204BF11685268626004BF0918216034
:1033B0005C60C7E738BD00BFA007002070B5CD1C1A
:1033C00025F0030508350C2D38BF0C25002D0646C9
:1033D00001DBA94203D90C233360002070BD00F04B
:1033E00055FC234A1468214691B9224C23681BB925
:1033F000304600F0BDF820602946304600F0B8F8AD
:10340000431C26D10C233360304600F040FCE4E737
:103410000B685B1B1AD40B2B0FD90B60CD50CC184B
:10342000304600F034FC04F10B00231D20F00700AF
:10343000C31A1BD05A42E25070BD8C420DBF636864
:103440004B686360136018BF0C46E9E70C46496897
:10345000CAE7C41C24F00304A04205D0211A304658
:1034600000F086F80130CDD02560D9E770BD00BFEF
:10347000A0070020A40700200FB40A4B13B51C6856
:1034800024B1A36913B92046FFF788FE05AB049A5F
:10349000A1680193204600F023FF02B0BDE8104070
:1034A00004B070471C00002070B50E46054618B1E8
:1034B00083690BB9FFF772FEAB69AC6813B9284694
:1034C000FFF76CFE234B9C4217D16C68A3891B0746
:1034D0001DD52369DBB1013EA36816F8011F013B2E
:1034E000A360E9B9002B2EDA22460A21284600F013
:1034F00049FA013011D00A2070BD174B9C4201D10E
:10350000AC68E3E7154B9C4208BFEC68DEE7214658
:10351000284600F09BFA0028DDD04FF0FF3070BD48
:10352000002B04DAA269934206DB0A2904D023683F
:103530005A1C22601970CFE72246284600F022FA72
:103540000130C9D1E9E723680A205A1C22601870AB
:1035500070BD00BFDC6A0008FC6A0008BC6A000895
:10356000024B01461868FFF79FBF00BF1C000020F8
:1035700038B5064C002305460846236001F062FC7E
:10358000431C02D1236803B12B6038BD882400207E
:103590000EB400B59CB04FF402711DABADF8141021
:1035A000029006906FF000410A48049107914FF68F
:1035B000FF7153F8042BADF816100068019302A9AF
:1035C00000F0C2FB029B00221A701CB05DF804EBF5
:1035D00003B070471C0000200EB430B59CB01FAC87
:1035E0004FF4017254F8045BADF814200290069079
:1035F000FCF768FE0B4B039007900B930A4801946D
:1036000000230F9314934FF6FF73ADF816302A463C
:10361000234602A9006800F0E5FC1CB0BDE830407C
:1036200003B070474F3600081C00002010B50C4650
:10363000B1F90E1001F058FA0028ABBF636DA389F1
:103640001B1823F48053ACBF6365A38110BD002019
:1036500070472DE9F0411F468B89DB0505460C4676
:10366000164605D502230022B1F90E1000F07EFAAD
:10367000A389B4F90E1023F48053A38132463B464C
:103680002846BDE8F04100F0CFB910B50C46B1F9BD
:103690000E1000F06BFA431CA38915BF606523F47C
:1036A000805343F48053A38118BFA38110BDB1F9A7
:1036B0000E1000F039BAC9B2034610F8012B1AB146
:1036C0009142F9D11846704700290CBF18460020D6
:1036D0007047034611F8012B03F8012B002AF9D19A
:1036E00070472DE9F04106460F4600EB02084645BB
:1036F00019D016F8014B00F02BFA204417F8015BA3
:10370000437803F00303012B08BF203400F020FAB4
:103710002844437803F00303012B08BF2035601BC6
:1037200004D1002DE3D10020BDE8F081BDE8F08197
:1037300038B503460D4651B1002429461846FFF717
:10374000BAFF08B9204638BD431C0446F5E7BDE87A
:103750003840FFF7B0BFF0B5037833B103461846E1
:103760005E1C1B7833B91846F0BD0B78002B18BFD0
:103770000020F0BD4D1E441E15F8012F002AF3D085
:1037800014F8017F97423346F6D0E8E7134B2DE952
:10379000F0411D68AC6D06460F46B4B9502000F0EC
:1037A0005BFAA865046044608460C460046144619D
:1037B00084618462C462046344638463C463046494
:1037C00044648464C46404774462AA6D3946304614
:1037D0000123BDE8F04100F003B800BF1C00002049
:1037E000F0B518B9106808B9F0BD204604460F4678
:1037F00014F8015B17F8016B1EB965B9156028460E
:10380000F0BDB542F6D1002BEFD114600370F0BDCE
:103810001C460CE015B914F8013B0E4616F8015B86
:10382000AB42F7D1002BF3D0002304F8013C146025
:10383000F0BD2DE9F84F8046894692461F468B46DB
:103840005D460A9815F8014B00F07EF92044467851
:1038500016F008060BD12D2C0BD12C7801260BF17C
:10386000020567B1102F14D1302C0AD011E0AB46FD
:10387000E6E72B2C04BF2C780BF10205F1E7302C86
:1038800027D12B7803F0DF03582B4BD16C7810270E
:103890000235002E0CBF6FF000414FF000410022B6
:1038A000B1FBF7FE104607FB1E1CA4F13003092BE9
:1038B00011D81C46A7421DDD531C07D0864516D3E0
:1038C00001D1A44513DB00FB0740012215F8014B91
:1038D000EBE70A27DDE7A4F14103192B01D8373CB8
:1038E000E8E7A4F16103192B04D8573CE2E74FF055
:1038F000FF32EBE7531C08D12223C8F800300846FA
:10390000BAF1000F07D1BDE8F88F06B14042BAF115
:10391000000F0CD022B1013DCAF80050BDE8F88F6D
:103920004D46F9E73024002FB3D10827B1E7BDE8B1
:10393000F88F000037B5064C064D2468246A002C29
:1039400008BF2C460094FFF774FF03B030BD00BFE2
:103950001C00002080000020084B37B51C68084D73
:10396000236A002B08BF2B46009313460A460146E4
:103970002046FFF75EFF03B030BD00BF1C000020F3
:1039800080000020F8B50E461446054618B183693C
:103990000BB9FFF703FC214B9C422AD16C68A36949
:1039A000A360A3891A072ED5236963B3236920680E
:1039B000C01A6369F6B29842374604DB21462846AE
:1039C000FFF770FB28BBA368013BA36023685A1C68
:1039D00022601E7063690130984204D0A389DB071E
:1039E00019D50A2E17D121462846FFF75BFB90B167
:1039F0000FE00B4B9C4201D1AC68D0E7094B9C42D5
:103A000008BFEC68CBE72146284600F01FF80028E5
:103A1000CCD04FF0FF373846F8BD00BFDC6A000855
:103A2000FC6A0008BC6A000838B5074C0546084621
:103A30001146002222601A4601F012FA431C02D1FC
:103A4000236803B12B6038BD88240020324B70B549
:103A50001D6806460C4625B1AB6913B92846FFF729
:103A60009DFB2E4B9C420FD16C68B4F90C309AB27E
:103A700015072CD4D00611D40922326043F040033C
:103A8000A3814FF0FF3070BD254B9C4201D1AC6843
:103A9000EBE7244B9C4208BFEC68E6E7510712D5E0
:103AA000616B41B104F14403994202D03046FFF703
:103AB00037FC00236363A38923F02403A38100233D
:103AC000636023692360A38943F00803A38123690A
:103AD0004BB9A38903F42073B3F5007F03D02146CB
:103AE000304600F079F8A28912F001030CD00023CF
:103AF000A36063695B42A361236953B9B4F90C30D5
:103B000013F08000BAD170BD920758BF6369A360FB
:103B1000F2E70020F7E700BF1C000020DC6A000885
:103B2000FC6A0008BC6A000838B5064C002305464C
:103B30000846236001F05EF9431C02D1236803B1FB
:103B40002B6038BD88240020D0F8EC0070470000BE
:103B5000044B054A1B681B6A002B08BF1346D3F8A9
:103B6000EC0070471C0000208000002038B5074C96
:103B7000054608461146002222601A4601F052F915
:103B8000431C02D1236803B12B6038BD8824002078
:103B900070B50E46B1F90E10002990B014461D46BE
:103BA00007DA00232B60B3891A0610D44FF4806320
:103BB0000EE001AA01F0B2F80028F2DB029A02F44A
:103BC0007042A2F500535A425A412A60EEE7402360
:103BD0000020236010B070BD8B8973B59D07064629
:103BE0000C4607D504F14703236023610123636179
:103BF00002B070BD01AB6A46FFF7CAFF00990546E7
:103C00003046FFF7DBFB48B9B4F90C309A05EFD426
:103C100023F0030343F00203A381E3E70D4BB362F8
:103C2000A389206043F08003A381009B6361019B13
:103C300020615BB1B4F90E10304601F081F828B173
:103C4000A38923F0030343F00103A381A3891D4348
:103C5000A581CDE71D310008024B01461868FFF72A
:103C6000ADBB00BF1C00002082B001B901A942B168
:103C70004BB113780B601278101C18BF012002B0F2
:103C800070471046FBE76FF00100F8E77047704798
:103C90002DE9F0478E689E4282460C469146984632
:103CA00035D88A8912F4906F31D0256809696F1A66
:103CB0006569022305EB450595FBF3F508F1010362
:103CC0003B449D4238BF1D46530531D52946FFF779
:103CD00075FB064650B90C23CAF80030A38943F09F
:103CE0004003A3814FF0FF30BDE8F0873A462169D9
:103CF000FFF702FBA38923F4906343F08003A381C1
:103D0000266165613E44ED1B2660A560464646453A
:103D100028BF464632464946206801F021F8A3688C
:103D20009B1BA36023681E4426600020BDE8F0872B
:103D30002A4601F02FF806460028E1D121695046B5
:103D4000FFF7EEFAC7E700002DE9F04F9DB080467F
:103D500003938B891C060D4616460FD50B696BB96C
:103D60004021FFF72BFB2860286128B90C23C8F8F5
:103D700000304FF0FF30C5E040236B610023099312
:103D800020238DF8293030238DF82A304FF0010B95
:103D900037463C4614F8013B002B3CD1B7EB060AF2
:103DA0000BD05346324629464046FFF771FF01309B
:103DB00000F0A380099B534409933B78002B00F04B
:103DC0009C8000234FF0FF320493079305920693E3
:103DD0008DF853301A93052221785048FCF718FAD1
:103DE000671C049BD8B9D90644BF20228DF8532004
:103DF0001A0744BF2B228DF8532022782A2A16D086
:103E0000079A00210A20274601343B78303B092BD2
:103E100051D9C9B111E0252BC0D02746B9E73F4A97
:103E2000801A0BFA00F0184304903C46D3E7039A3B
:103E3000111D12680391002A01DB079204E052422F
:103E400043F00203079204933B782E2B0ED17B782C
:103E50002A2B07F1010132D1039B1A1D1B68039223
:103E6000002BB8BF4FF0FF33023705932C4C397845
:103E700003222046FCF7CCF938B14023001B03FA9B
:103E800000F0049B034304930137397825488DF8EB
:103E9000281006227E1CFCF7BBF9002835D0224BE7
:103EA000FBB9039B073323F0070308330393099BF4
:103EB0004B4409936CE700FB02320121A3E7002386
:103EC000059318460A240F4601313A78303A092AF8
:103ED00003D9002BCAD00590C8E704FB00200123BA
:103EE000F1E703AB00932A46104B04A94046AFF319
:103EF0000080B0F1FF3F8146D9D1AB895B063FF529
:103F000038AF09981DB0BDE8F08F03AB00932A4687
:103F1000064B04A9404600F06FFBEAE7266B000859
:103F20002C6B0008306B000800000000913C00087A
:103F300038B54B1C144603D14FF0FF35284638BD29
:103F4000938923F020039381536B5268CDB28BB1D8
:103F5000A36B9A4208DA23685A1E226003F8015CB8
:103F6000636801336360E9E7214600F08FFE0028B3
:103F7000F1D0E1E72169236851B1994208D213F8E1
:103F8000011C8D4204D1013B013223606260D5E700
:103F9000E36304F1440363630323A36323462264BE
:103FA00003F8465F23600123DCE710B50C46496B3C
:103FB00069B104F14403994201D0FFF7B1F9236CD0
:103FC00063600020606313B1E36B236010BD23695D
:103FD000236000236360A38943F02003A3814FF093
:103FE000FF3010BD2DE9F04FADF5257D0DF10C082A
:103FF0000193002346934793A04BA293DFF884924A
:104000009F4BCDF8208106460C46A39392460A2783
:104010009AF80030002B00F02F81FFF799FD9AF8F5
:1040200000B05844437813F0080343D1BBF1250F87
:104030000AF1010540F09980459343939AF80130C5
:104040002A2B03D1102343930AF102052978A1F109
:104050003002092AAA4605F1010541D903228948FF
:10406000FCF7D6F838B1A0EB090301209840439B38
:1040700018434390AA469AF80030672B0AF10105CD
:104080004AD8652B80F0B780472B2FD8452B80F07E
:10409000B280002B00F08280252B66D00323499349
:1040A000449745E0479901314791616801330139EF
:1040B000616023606368002B0BDDFFF749FD236817
:1040C0001978084441780D07ECD40AF10105AA4695
:1040D0009EE7A39B2146304698470028EDD0F4E7A1
:1040E000459B07FB0313303B4593AFE75B2B61D048
:1040F0000CD8582BD2D1439A42F40072439210222A
:1041000044926F2BB4BF0323042310E0632B5CD0D5
:10411000642BC3D14497F4E7702B42D01DD86E2B8B
:1041200059D043D8692BB9D1002344930323499331
:104130006368002B61DD439B59066FD5499B022BB9
:104140007CDC01AB224643A9304600F075FB012818
:1041500000F092800228BAD11DE0752BDAD0782BBE
:10416000C9D0732B9AD10223E1E76368002B0CDDE1
:1041700023681A7893457FD1013362682360479B97
:10418000013A013362604793A1E7A39B2146304681
:1041900098470028ECD04698002863D14FF0FF30B4
:1041A00066E0439A42F020024392A4E70823449336
:1041B0000423BCE72946404600F0A8FC439B43F09B
:1041C0004003439305460123B1E7439B43F040037B
:1041D00043930023ABE7439AD0063FF578AF12F044
:1041E000010F019A479B02F104010191126814BF6B
:1041F000138013606BE7052399E7A39B21463046A4
:104200009847002897D0C6E7479A013247926268DC
:10421000013A002A62600ADD01332360FFF798FC4F
:1042200023681A78104442781207EDD486E7A39BDE
:104230002146304698470028F0D0ACE7042B06DC36
:1042400001AB224643A9304600F05AFB7FE70E4BF4
:10425000002B3FF43CAF01AB224643A93046AFF3FD
:10426000008074E7A38913F0400F18BF4FF0FF30B0
:104270000DF5257DBDE8F08F4698F9E7313F000840
:10428000AB3F00082C6B0008000000009368013B66
:10429000002B10B4936009DA9469A34202DBCBB21D
:1042A0000A2B03D15DF8044BFFF76CBB1368581C55
:1042B00010601970C8B25DF8044B7047F8B5064637
:1042C0000F461446D518AC4201D1002007E03A460B
:1042D00014F8011B3046FFF7D9FF431CF3D1F8BD9A
:1042E0002DE9F04F9DB00C4617460393064618B1D2
:1042F00083690BB9FEF752FF7C4B9C4257D174681F
:10430000A38918075DD52369002B5AD00023099390
:1043100020238DF8293030238DF82A304FF0010BFF
:10432000B846454615F8013B002B55D1B8EB070AB6
:104330000BD053463A4621463046FFF7BFFF0130C7
:1043400000F0C480099B5344099398F80030002B77
:1043500000F0BC8000234FF0FF32049307930592D6
:1043600006938DF853301A93052229786048FBF79D
:104370004FFF05F10108049B002831D1D90644BF45
:1043800020228DF853201A0744BF2B228DF853208A
:104390002A782A2A2CD0079A00210A20A84601351B
:1043A00098F80030303B092B6DD971B326E0514BA2
:1043B0009C4201D1B468A3E74F4B9C4208BFF4680C
:1043C0009EE721463046FFF741FB00289ED04FF084
:1043D000FF301DB0BDE8F08F252BA7D0A846A0E781
:1043E000434A801A0BFA00F0184304904546BBE795
:1043F000039A111D12680391002A01DB079204E061
:10440000524243F002030792049398F800302E2B97
:1044100010D198F801302A2B08F1010137D1039B04
:104420001A1D1B680392002BB8BF4FF0FF3308F131
:1044300002080593314D98F8001003222846FBF737
:10444000E7FE40B14023401B03FA00F0049B034306
:10445000049308F1010898F8001029488DF82810F5
:10446000062208F10107FBF7D3FE002834D0254BC4
:1044700003BB039B073323F0070308330393099B14
:104480004B4409934CE700FB0232012186E70023ED
:10449000059318460A258846013198F80020303ADD
:1044A000092A03D9002BC5D00590C3E705FB0020DE
:1044B0000123F0E703AB00932246134B04A93046D7
:1044C000AFF30080B0F1FF3F8146D8D1A3895B06EE
:1044D0003FF57DAF09987CE703AB009322460A4B7A
:1044E00004A9304600F088F8ECE700BFDC6A000859
:1044F000266B0008FC6A0008BC6A00082C6B0008E8
:10450000306B000800000000BD4200082DE9F047B4
:1045100091461F468A680B69DDF820809342B8BF38
:104520001346C9F8003091F8432006460C4612B1F4
:104530000133C9F800302368990642BFD9F800302A
:104540000233C9F80030256815F0060507D104F1DB
:10455000190AE368D9F800209B1A9D4229DB94F8D8
:1045600043302268003318BF012392062ED404F191
:10457000430239463046C047013021D02368E56800
:10458000D9F8002003F00603042B08BFAD1AA36876
:1045900022690CBF25EAE57500259342C4BF9B1A2A
:1045A000ED184FF000091A344D451BD10020BDE82D
:1045B000F0870123524639463046C047013003D1C7
:1045C0004FF0FF30BDE8F0870135C2E7E1185A1C13
:1045D000302081F84300224494F8451082F84310BB
:1045E0000233C4E70123224639463046C047013032
:1045F000E6D009F10109D7E72DE9F04317460A7E15
:1046000085B06E2A984606460C460C9B01F1430E77
:1046100000F0BC801AD8632A2ED00AD8002A00F0F5
:10462000C880582A00F08A8004F1420584F84220AC
:104630002AE0642A01D0692AF6D121681A6811F0AB
:10464000800F23D0111D1960136827E0732A00F032
:10465000B48008D86F2A2AD0702AE5D10A6842F0BF
:1046600020020A6003E0752A21D0782ADCD1782262
:1046700084F845206E4964E01A6801F14205111D75
:104680001960136884F842300123A3E011F0400F51
:1046900002F104011960D7D0B2F90030002B03DA1F
:1046A0002D225B4284F8432062490A2217E02068E9
:1046B000196810F0800F03D0081D18600B6806E021
:1046C00010F0400F01F104001860F7D00B88594931
:1046D0006F2A14BF0A220822002084F8430065686C
:1046E000A560002DC0F29C80206820F004002060AE
:1046F000002B3FD1002D40F095807546082A0BD144
:104700002368DA0708D5236962689A42DEBF30233E
:1047100005F8013C05F1FF35AEEB05032361CDF84B
:1047200000803B4603AA21463046FFF7EFFE0130EA
:1047300055D14FF0FF3005B0BDE8F08381F845203A
:104740003C492268186812F0800F00F104051D60D2
:1047500001D0036802E05506FBD50388D00744BFAB
:1047600042F0200222601BB9226822F0200222605F
:104770001022B1E77546B3FBF2F002FB1033CB5CBD
:1047800005F8013D03460028F5D1B7E708681A6827
:10479000496910F0800F04D0101D1860136819606B
:1047A00007E010F0400F02F1040018601368F6D023
:1047B0001980002323617546B1E71A68111D19603D
:1047C0001568626800212846FBF722FD08B1401BEE
:1047D000606063682361002384F843309FE72369A6
:1047E0002A4639463046C0470130A2D023689B078D
:1047F00007D5002504F11909E368039A9B1A9D4225
:1048000005DBE068039B9842B8BF184693E7012395
:104810004A4639463046C04701308AD00135EBE779
:10482000002BA7D10B7884F8423004F1420565E7EC
:10483000486B0008376B00082DE9F04115468A687F
:1048400080460C4632B98A69002A0CBF01224FF01B
:10485000FF328A602268D1065FBF1A68111D196095
:1048600017680026A369DBB1012B07D12B686269A9
:104870001B78D35CA3B9002E32D106E0022B07D0FF
:10488000002E2DD1A369012B2AD10120BDE8F08192
:10489000FFF75EF92B681B78184443781B07EFD4A9
:1048A0002368DA065EBF2B681B783B702A686B684A
:1048B00002F101022A60A26803F1FF3302F1FF3224
:1048C0006B6006F1010658BF0137A26042B1002BB0
:1048D000C8DCD4F880312946404698470028C1D02A
:1048E000236813F0100305D1E2680132E260A26987
:1048F00002B13B7023691E4426610020BDE8F081AF
:104900002DE9F04F9A46744B0C468346164693E8C1
:10491000070087B003ABA76883E807006F4BA16966
:104920006F4A032918BF1A467B1EB3F5AE7F84BFBA
:1049300040F25D13A3602368009243F4506388BF84
:104940006FF4AE7504F11C0923608CBF7F1900273A
:104950004B464FF000080193316803AB022253F835
:1049600028000978FBF754FC019B28B3B8F1010F2C
:1049700056D162682AB908226260226842F4007245
:104980002260226822F4A0622260A268511EA16007
:1049900092B13268511C316012781A705D1C7368D4
:1049A000013B002B736006DCD4F880313146584659
:1049B0009847002876D12B4608F10108B8F1030F7B
:1049C000C9D162680AB90A226260626845496069B1
:1049D0000193891A00F09AF8019B4FF000081D46D8
:1049E000A368002B38D0316860690A78805C0028A1
:1049F00032D0302A226821D110051FD508F10108D4
:104A000017B10133013FA3607368013B002B736052
:104A10001BDD336801333360A368013BA360DFE72C
:104A2000B8F1020FB1D1226802F4C061B1F5007F84
:104A3000C2D11021616042F48072A5E722F41062B5
:104A400022600B782B700135DEE7D4F880313146D7
:104A5000584698470028DFD02368D9050CD54D4526
:104A600008D915F8011CD4F87C31324658469847CD
:104A70006F1E3D464D452CD0226812F010021ED10B
:104A80002A706368009E49465846B0472268DAF8A3
:104A9000003012F0200F08D01A1DCAF800201B6841
:104AA000186009E04FF00008D6E7D207F4D51A1DC8
:104AB000CAF800201B681880E3680133E360A5EBA7
:104AC0000905A844256945442561002007B0BDE8D3
:104AD000F08F0120FAE700BF884E0008694C0008FB
:104AE00035390008696B000838B5074C054608469B
:104AF0001146002222601A4600F09CF9431C02D1A4
:104B0000236803B12B6038BD8824002070B50B7872
:104B10005E2B13BF4A1C8A1C4B78002108BF012161
:104B2000441E00F1FF0504F8011FA542FBD113B993
:104B3000013A104670BD81F00104C45411460D784D
:104B40002D2D01F1010206D05D2DF2D00DB90A46DE
:104B5000EFE72B46F1E74E785D2EFAD0B342F8DC52
:104B6000023101339E42C454FBDCE8E72DE9F047F3
:104B70008046894692461E460F463D46089815F8DF
:104B8000014BFEF7E1FF2044437813F008030AD1FC
:104B90002D2C0AD12C780123BD1C5EB1102E13D10F
:104BA000302C09D010E02F46E7E72B2C04BF2C78DF
:104BB000BD1CF2E7302C25D12A7802F0DF02582AFA
:104BC0004AD16C78102602354FF0FF310027B1FB37
:104BD000F6F106FB01FE6FEA0E0E3846A4F1300234
:104BE000092A11D81446A6421DDD002F18DB814288
:104BF00016D301D1A64513DB00FB0640012715F8AB
:104C0000014BEBE70A26DFE7A4F14102192A01D89C
:104C1000373CE8E7A4F16102192A04D8573CE2E7DF
:104C20004FF0FF37EBE7002F09DA2223C8F80030F6
:104C30004FF0FF30BAF1000F07D1BDE8F08703B1A4
:104C40004042BAF1000F0CD027B1013DCAF8005024
:104C5000BDE8F0874D46F9E73024002EB4D1082690
:104C6000B2E7BDE8F087000037B5064C064D246872
:104C7000246A002C08BF2C460094FFF777FF03B08E
:104C800030BD00BF1C000020800000202DE9F04155
:104C90000C46496B04F1440399421ED14FF48061E4
:104CA000FEF78CFB18B94FF0FF30BDE8F0814FF4F0
:104CB0008063A36394F84630606380F8FF3394F810
:104CC000453080F8FE3394F8443080F8FD3300F22C
:104CD000FD3020600020BDE8F081A66B77003A46E9
:104CE00000F058F805460028DDD000EB0608014624
:104CF00032464046FEF700FBC4F800806563A763B8
:104D0000E8E749B1FF2A85BF8A2303600A704FF0A4
:104D1000FF3098BF012070470846704738B5074CF0
:104D20000023054608461146236000F06BF8431C3B
:104D300002D1236803B12B6038BD00BF8824002056
:104D400038B5064C002305460846236000F062F89B
:104D5000431C02D1236803B12B6038BD8824002096
:104D6000884210B501EB020303D8421E99420CD1D0
:104D700010BD9842F9D28118D21AD34200D110BD89
:104D800013F8014D01F8014DF7E711F8014B02F856
:104D9000014FEBE7F8B5074614460E4621B9114618
:104DA000BDE8F840FEF70ABB22B9FEF7B9FA25467E
:104DB0002846F8BD00F014F884420FD92146384641
:104DC000FEF7FCFA05460028F2D031462246FEF7EF
:104DD00093FA31463846FEF7A3FAE9E73546E7E7A6
:104DE00051F8040C0028A0F10400BCBF0B58C018F7
:104DF00070470000024B58221A604FF0FF30704796
:104E000088240020024B58221A604FF0FF30704770
:104E100088240020024B58221A600020704700BFEF
:104E200088240020024B58221A604FF0FF30704750
:104E300088240020024B58221A604FF0FF30704740
:104E400088240020044B1968024609B903491960F7
:104E5000186802441A607047A80700208C240020BC
:104E6000024B58221A604FF0FF3070478824002010
:104E7000F8B500BFF8BC08BC9E467047F8B500BF47
:084E8000F8BC08BC9E46704717
:104E88006B6B00086E6B0008716B000865727265C9
:104E9800757220706172616D0A0070726F746F6351
:104EA8006F6C206572726F720A00627573206F668C
:104EB800660A0070617373697665206572726F7235
:104EC8000A006572726575722061636B0A0061750C
:104ED80074726573206572726575727300726563AA
:104EE800657074696F6E206465206C27E97461745D
:104EF80020636D640A0070617373616765206D6F6C
:104F08006465206D616E75656C0A00726563657015
:104F180074696F6E206465206C612076616C6575BC
:104F28007220636F7572616E7420706F6D70650AA0
:104F380000726563657074696F6E206465206C61CA
:104F48002076616C657572206E697665617520657D
:104F580061750A000D0A0A496E697469616C697A9B
:104F6800696E67207468652077696669206D6F646B
:104F7800756C652E2E2E004572726F7220696E2038
:104F8800436F6E666967007374657068616E65006B
:104F9800486F6E6F723232004E554C4C0000000064
:104FA800036A000800000000AB550008151E000841
:104FB80001010000CB550008D5550008E25500084E
:104FC800151E000801020000195600080000000024
:104FD80024560008151E0008010300003D5600086D
:104FE8004656000851560008151E00080104000026
:104FF800825600088B56000898560008151E0008AF
:1050080001050000B956000800000000C656000857
:10501800151E000801060000E75600080000000001
:10502800F3560008151E000801070000165700086F
:105038002257000830570008151E00080108000014
:10504800505700085A57000867570008151E0008EF
:10505800010900008F57000899570008A857000851
:10506800151E0008010A0000C357000800000000D0
:10507800CD570008151E0008010B0000F357000863
:1050880000000000FD570008151E0008010C000074
:10509800305800083958000842580008151E000802
:1050A800010D0000705800087D5800089958000844
:1050B800151E0008010E0000BA580008C458000860
:1050C800CE580008151E000801110000EE5800080F
:1050D80000000000FA580008151E00080112000020
:1050E800165900082159000839590008151E0008EA
:1050F80001130000525900085D590008645900085E
:10510800151E00080114000078590008835900088A
:1051180090590008151E000801150000A55900083F
:10512800AE590008B9590008151E000801160000FC
:10513800D659000800000000DF590008151E0008B5
:1051480001170000F7590008005A0008165A00080D
:10515800151E000801180000275A0008000000006A
:10516800305A0008151E000801210000455A0008A1
:105178004E5A00086E5A0008151E00080123000048
:10518800975A0008A05A0008AC5A0008151E0008D3
:1051980001250000C45A0008CD5A0008EC5A00083E
:1051A800151E000801260000045B000822570008AD
:1051B8000D5B0008151E000801270000275B00088A
:1051C800305B00084E5B0008151E0008012800002F
:1051D800755B00087F5B0008965B0008151E0008D9
:1051E80001290000A55B0008B35B0008DF5B00082D
:1051F800151E0008012A00000F5C0008B35B0008B8
:105208001C5C0008151E0008012B0000415C00080A
:105218004B5C0008525C0008151E000801320000B3
:105228006C5C0008765C00088A5C0008151E0008A3
:1052380001330000B55C0008C25C0008CF5C0008C0
:10524800151E000801340000E55C0008F05C000849
:105258000A5D0008151E0008013500002A5D0008D7
:10526800335D0008445D0008151E00080136000083
:105278005C5D000800000000675D0008151E00085E
:10528800013700008A5D000800000000935D0008F7
:10529800151E000801380000A65D0008B05D000872
:1052A800D15D0008151E000801390000EE5D0008F8
:1052B800FA5D00082A5E0008151E0008014100007A
:1052C8003F5E00084A5E0008505E0008151E000890
:1052D80001420000755E00084A5E0008805E000812
:1052E800151E000801430000945E00089F5E000838
:1052F800AB5E0008151E000801440000C75E0008E8
:105308009F5E0008D25E0008151E000801450000D7
:10531800EF5E000800000000FA5E0008151E000895
:1053280001460000155F0008225F0008365F00088C
:10533800151E0008014700004B5F0008575F000872
:10534800645F0008151E000801480000895F000816
:10535800955F0008A45F0008151E000801490000B9
:10536800D75F0008E35F0008F65F0008151E000815
:10537800014A000012600008E35F00081E60000890
:10538800151E0008014B00003B60000800000000EB
:1053980047600008151E0008014C00006160000805
:1053A8006F60000897600008151E0008014F000094
:1053B800A1600008AE600008CB600008151E000858
:1053C80001510000F0600008AE600008FD600008B0
:1053D800151E000801520000226100082C61000817
:1053E80092610008151E000801530000AB61000817
:1053F800B86100080A620008151E00080154000080
:105408002F6200083D62000882620008151E00082D
:1054180001550000A8620008B6620008EC620008A6
:10542800151E0008015600001B630008B66200083C
:1054380029630008151E0008015800009D55000842
:105448000000000055630008151E000801590000FF
:105458007863000886630008F4630008151E0008D6
:10546800015A000015640008226400083664000828
:10547800151E0008015B00005564000862640008FE
:105488008B640008151E0008015C0000AC6400086D
:10549800BB640008C9640008151E0008015D00000F
:1054A800EC6400084A5E0008FA640008151E00084B
:1054B800015E000016650008236500087165000894
:1054C800151E0008016100008A6500084A5E000890
:1054D80096650008151E000801620000BF650008F7
:1054E800CB650008DA650008151E00080163000096
:1054F8000F6600081B66000847660008151E0008AE
:1055080001640000676600089F5E00087366000873
:10551800151E0008016500009466000800000000E0
:10552800A0660008151E000801660000BF66000896
:1055380000000000C4660008151E000800000000F6
:10554800E366000800000000CD570008151E00089B
:1055580000000000E866000800000000FD57000891
:10556800151E0008000000000000000000000000F8
:105578000000000000000000000000004572726F8B
:10558800723A20636F6D6D616E64206E6F74206671
:105598006F756E640041542B532E494E5055545329
:1055A8005349004E756C6C20636F6D6D616E642C91
:1055B80020616C776179732072657475726E7320DF
:1055C8004F4B0041542B532E48454C50005B3D3CFB
:1055D800636F6D6D616E643E5D00446973706C61EC
:1055E800792041542D436F6D6D616E6420696E663C
:1055F8006F726D6174696F6E205B6F6E20612073CE
:105608007065636966696320636F6D6D616E645D63
:105618000041542B532E52455345540050726F7617
:10562800696465206120736F6674776172652072A2
:10563800657365740041542B532E504D53003D3C07
:10564800307C317C327C333E00456E61626C652073
:105658006163746976652F706F77657273617665BB
:105668002F73746F702F7374616E64627920706F1A
:10567800776572206D6F6465730041542B532E5308
:105688005453005B3D3C7374735F7661723E5D00FA
:105698005265706F7274205B73696E676C655D200C
:1056A8007374617475732F73746174697374696347
:1056B8000041542B532E52544F53535453005265A8
:1056C800706F7274207374617475732F737461745E
:1056D800697374696373206F662052544F53004195
:1056E800542B532E535358535453005265706F72B2
:1056F80074207374617475732F737461746973742F
:10570800696373206F66205443502F4950004154F9
:105718002B532E505954484F4E005B3D3C66696CE4
:10572800656E616D653E5D00456E74657220696EDB
:105738007465726163746976652075506879746FF1
:105748006E207368656C6C0041542B532E4743469A
:1057580047005B3D3C6366675F7661723E5D005261
:1057680065706F7274205B73696E676C655D20632A
:105778006F6E66696775726174696F6E20766172A3
:105788006961626C65730041542B532E534346473D
:10579800003D3C6B65793E2C3C76616C75653E003E
:1057A80053657420636F6E66696775726174696F9B
:1057B8006E207661726961626C650041542B532ECC
:1057C80057434647005361766520636F6E66696785
:1057D80075726174696F6E207661726961626C6559
:1057E8007320746F20666C6173680041542B532ECC
:1057F8004643464700526573746F7265206661635D
:10580800746F727920636F6E666967757261746907
:105818006F6E207661726961626C65732066726F63
:105828006D20666C6173680041542B532E4E565799
:10583800003D3C6D616769633E0053617665206693
:105848006163746F727920636F6E666967757261E0
:1058580074696F6E207661726961626C6573207419
:105868006F20666C6173680041542B532E4D464778
:1058780054455354003D3C6D616769633E2C3C6C54
:105888006F777C686967687C4853497C5359533EF5
:1058980000506572666F726D204D616E756661634A
:1058A800747572696E672053656C662D54657374E0
:1058B800730041542B532E54494D45005B3D3C74B5
:1058C800696D653E5D004765742F53657420637587
:1058D8007272656E742074696D6520696E207365D7
:1058E800636F6E64730041542B532E52414E444FE4
:1058F8004D0050726F766964652061206E6577206F
:1059080072616E646F6D206E756D626572004154D0
:105918002B532E4750494F43003D3C6E756D3E2C2E
:105928003C696E7C6F75743E2C3C727C667C623E72
:1059380000436F6E66696775726520737065636989
:1059480066696564204750494F0041542B532E47E0
:1059580050494F52003D3C6E756D3E005265616482
:1059680020737065636966696564204750494F0014
:1059780041542B532E4750494F57003D3C6E756D8F
:105988003E2C3C76616C3E005772697465207370DA
:1059980065636966696564204750494F0041542B27
:1059A800532E444143003D3C307C76616C75653E26
:1059B8000044697361626C652F456E61626C652095
:1059C800444143206F6E204750494F3135004154C0
:1059D8002B532E41444300526561642041444320C7
:1059E80076616C7565206F6E204750494F310041D4
:1059F800542B532E50574D003D6672657175656E78
:105A080063792C647574795F6379636C6500536599
:105A1800742050574D206F6E204750494F32004137
:105A2800542B532E46535500556E6D6F756E742F5B
:105A3800457261736520566F6C756D650041542B16
:105A4800532E465343003D3C66696C656E616D6537
:105A58003E2C3C646174616C656E3E3C43523E3C36
:105A6800646174613E0043726561746520612066FB
:105A7800696C652F417070656E6420746F20616E6B
:105A8800206578697374696E672066696C65004182
:105A9800542B532E465344003D3C66696C656E6139
:105AA8006D653E0044656C65746520616E2065789F
:105AB800697374696E672066696C650041542B537D
:105AC8002E465352003D3C6F6C645F66696C656E90
:105AD800616D653E2C3C6E65775F66696C656E61CD
