:020000040800F2
:1000000078050020D5520008CD290008CF29000826
:10001000D9290008E3290008ED29000800000000A4
:10002000000000000000000000000000F7290008A8
:10003000012A0008000000000B2A0008212A0008FD
:1000400015530008195300081D53000821530008D8
:1000500025530008295300082D5300083153000888
:1000600035530008395300083D5300084153000838
:1000700045530008495300084D530008692A0008F9
:10008000512A0008515300085553000859530008DD
:100090005D53000861530008655300086953000868
:1000A0006D53000871530008755300087953000818
:1000B000172A00080D2A00087D5300088153000804
:1000C00085530008895300088D5300089153000898
:1000D000955300083B2A0008452A00089953000858
:1000E0009D530008A1530008A5530008A953000818
:1000F000AD530008B1530008B5530008B9530008C8
:10010000BD530008C1530008C5530008C953000877
:10011000CD530008D1530008D5530008D953000827
:10012000DD530008E1530008E5530008E9530008D7
:10013000ED530008F1530008F5530008F953000887
:10014000FD53000801540008055400080954000834
:100150000D540008115400081554000819540008E3
:100160001D54000821540008255400082954000893
:100170002D540008315400083554000800000000D8
:10018000395400083D5400082DE9F04FA1B08246D3
:10019000002016461D4602910B900DF144086FF0A9
:1001A00000490AE016F8011B0298D0470028029087
:1001B00000F0B5820B98401C0B903078010001D103
:1001C0000B98AEE22528EDD100200590069007900F
:1001D000089009900A9001E040F0010016F8011F14
:1001E0002029F9D023290DD02B2904D02D2906D080
:1001F00030290AD00CE040F0020080B2EEE740F077
:100200000400FAE740F00800F7E740F01000F4E7D8
:100210002A290ED12968296051F8042B2960002A67
:100220000D9204D5514240F004000D9180B2761C2D
:1002300011E000210D9109E00D99494505D001EB30
:10024000810302EB430130390D91761C3278A2F123
:1002500030010A29F0D331782E2903D04FF0FF3135
:100260000C911DE016F8011F2A2907D12968296081
:10027000761C51F8042B29600C9211E000210C919E
:1002800009E00C99494505D001EB810302EB4301DC
:1002900030390C91761C3278A2F130010A29F0D362
:1002A000ADF838000FF67C40317800F04DFE08B113
:1002B00016F8010B8DF83A009DF83A00682802BF45
:1002C00031786829622005D06C2804BF30786C280A
:1002D00003D171208DF83A00761C11A8049016F80D
:1002E000017BB7F125002AD01C3800F0CA80001F1E
:1002F000022840F2C680133800F0EB80093800F085
:10030000C080801E00F05681401E00F02C81401EEF
:10031000022840F2B680001F00F02581401F00F047
:100320008180401E00F0D580401E24D0C01E0BD01E
:10033000801E00F0CE80C01E00F0CB8044E125205E
:100340008DF84400012049E12868286050F8044BEA
:10035000286003940C9F002F04D5204600F000FE77
:10036000074606E03A460021204600F015FE00B19F
:10037000071B069733E129682960002251F8040B16
:1003800029600021CDE9000111A80390DDE90001F9
:100390009142049F08BF90424FF03C0C01D10C9A4F
:1003A000C2B100F00F033033DBB23A2BA8BF2733C2
:1003B000ACF101020009BB54944640EA01700909FE
:1003C0000022914208BF904204D0039A07EB0C032D
:1003D0009A42E6D307EB0C000390CCF13C010C9859
:1003E0000691814209DA401A08904FF6EF71BDF884
:1003F00038000840ADF83800F1E0002840F1EF8007
:100400009DF8380000F01400102840F0E8800D98A6
:10041000059A801A089A801A401A0128C0F2DF80D3
:100420000890DCE09DF83A0062281AD0682806D0CF
:100430006A280CD06C281CD0712808D019E02868D4
:10044000286050F8041B28600B980880C7E02868D3
:10045000286050F8042B28600B98C117C2E90001EE
:10046000BDE02868286050F8041B28600B980870CD
:10047000B5E02868286050F8041B28600B980860D5
:10048000ADE02868C01D20F007022A60D2E9000113
:1004900008322A60CDE90001002902D505982D21F6
:1004A0000AE0BDF83800810702D505982B2103E04A
:1004B000C00705D50598202108F80010401C0590BC
:1004C00011A80599084403903946684600F0E8F9F8
:1004D00085E09DF83A006C280DD0712818BF6A2875
:1004E00009D12868C01D20F007022A60D2E9000166
:1004F00008322A6005E02968296051F8040B296058
:100500000021CDE900019DF83A00682803D1DDE91A
:10051000000180B20BE0622803D1DDE90001C0B226
:1005200005E0742818BF7A2804D1DDE90001002114
:10053000CDE900019DF83800000732D5DDE9002340
:100540000020834208BF82422BD047F02000782849
:1005500027D10598302108F80010401C411C059156
:1005600008F800701DE09DF83A00294600F0DCF81C
:10057000CDE90001DDE9002300218B4202DA059874
:100580002D210AE0BDF83800810702D505982B21FE
:1005900003E0C00705D50598202108F80010401C8D
:1005A000059011A80599084403903946684600F063
:1005B000F2F814E0012005902868286050F8041B28
:1005C00028608DF844100AE025208DF844000120B1
:1005D0000590380003D088F80170022005900D982E
:1005E0000599401A0899401A0699401A0999401A23
:1005F0000799401A0A99471A9DF83800400710D405
:100600002020012F8DF840000BDB3C46012310AA6F
:100610006946504600F06EFC002840F08080641E61
:10062000F4D1DDF814B0BBF1000F11AC0CD014F80C
:10063000011B0298D0470028029070D00B98401CF4
:10064000BBF1010B0B90F2D130208DF84000089CDB
:10065000012C09DB012310AA6946504600F04AFC30
:1006600000285CD1641EF5D1DDF818B0039CBBF105
:10067000000F0CD014F8011B0298D04700280290FC
:100680004DD00B98401CBBF1010B0B90F2D13020E8
:100690008DF84000099C012C09DB012310AA694652
:1006A000504600F027FC002839D1641EF5D103988C
:1006B0000699DDF81CB04418BBF1000F0BD014F8FC
:1006C000011B0298D047029048B30B98401CBBF125
:1006D000010B0B90F3D130208DF840000A9C012CC7
:1006E00008DB012310AA6946504600F003FCB0B9AC
:1006F000641EF6D19DF8380040077FF55EAD2020DE
:10070000012F8DF84000FFF658AD012310AA69466D
:10071000504600F0EFFB10B97F1EF6D14DE54FF0CB
:10072000FF3021B0BDE8F08F622826D068281DD0A8
:100730006A2808D06C2827D0712804D0742823D0C8
:100740007A280CD020E00868C01D20F0070008605F
:10075000D0E90023083008601946104670470A683F
:100760000A6052F8040B0A60002170470A680A60A8
:1007700052F8040B0A6000B20BE00A680A6052F8F3
:10078000040B0A6040B204E00A680A6052F8040BE5
:100790000A60C11770472DE9F343054608462F69E3
:1007A0006F2808BF082405D041F02001782914BF24
:1007B0000A2410243C26D5E90023642818BF6928A0
:1007C0009046994606D100218B4203DAD8F1000801
:1007D00069EB49090020814508BF80450CD1286B91
:1007E00050B9082C38D195F83800000734D530209E
:1007F0003B2687F83B002FE0701E009006464046DF
:1008000049462246E31700F0F3FB02F13000C0B284
:100810003A2803DB9DF8041051390818B8554946A9
:1008200040462246E31700F0E3FB8046894600205D
:10083000814508BF804503D0E868B9198842DBD3F9
:10084000082C09D195F83800000705D5B85D302887
:1008500002D0761E3020B855B919E960C6F13C00C7
:10086000296BA861884208DA081A28624FF6EF71EE
:10087000288F08402887BDE8F38300290ED595F816
:10088000381001F01401102908D1696B6A69891ABE
:100890002A6A891A0E1A012EA8BF2E62BDE8F383B8
:1008A0002DE9F24F04468EB0D4E90001CDE90201F2
:1008B00004AF9DF8380040F0200BBBF1610F0AD067
:1008C000206B002848BF062004D408BFBBF1670F87
:1008D00001D1012020636168C1F30A5040F2FF7228
:1008E00090421CD1080304BF2068002809D10320CE
:1008F000A0619DF8380061381A2835D30FF23861AD
:1009000008E00320A0619DF8380061381A2828D338
:100910000FF21C61E068032200F0E2FBBDE1012858
:1009200015DA204600F017FC012810DB0025002016
:10093000BBF1610F1FD1E16830220A708A1CE260AE
:100940009DF83820612A0CBF782258220FE0626897
:1009500040F2FE3161F31E52451A62604FF0FF30E3
:10096000E6E70FF2C851D5E70FF2C851D2E74A7057
:100970006169891C616110B90026002584E1BBF121
:10098000610F40F09880206BD4E900AB00284CBF89
:100990002126461CDDE902010022002300F0FEFBB7
:1009A00036B23ABF8BF00040CDE902A0CDE902ABF0
:1009B00006F101082D1FB8F1010F8DF810200DF17F
:1009C000110736DBDDE902010022002300F0FEFB07
:1009D0002FD21C2102A800F011FCDDE9020100F079
:1009E00097FCA8F10708B8F1010F814609DB00F078
:1009F000BBFC02460B46DDE9020100F0CDFCCDE96F
:100A00000201F81D072105E009F00F0200F8012D91
:100A10004FEA2919B9F1010F01DB491EF4D5491E2E
:100A20005CBF002200F8012DF9D5C71DB8F1010FF8
:100A3000C8DA0DF11100391AB142B8BF0E4636B20C
:100A400030000DF111072FD4884206DA04A90144C1
:100A500049780829A8BF0F2100DA002104AA02441E
:100A600000E0761E12F80139401E8B42F9D00F29A2
:100A700004D104A901444A78521C4A70002802D5C6
:100A800004AF761C2D1D36B2701E0DD439180A78AD
:100A90003032D2B23A2A03DB9DF838303A3B9A180A
:100AA000401E01F80129F2D5206B002840F1EC80AE
:100AB000701E2063E8E0DDE902010022002300F05F
:100AC0006DFB3CBF81F00041CDE902012DB247F240
:100AD000975068434B49DFF8309190FBF1F52DB208
:100AE000C5F1070ABAF1010F90461CDBDDE9026788
:100AF0005FEACA7007D542464B463046394600F099
:100B00000BFD06460F464046494642464B464FEAD5
:100B10006A0A00F001FDBAF1000F80468946E7D16C
:100B2000CDE9026724E0CAF1000A0026374F14E03D
:100B30005FEACA7007D542464B463046394600F058
:100B4000EBFC06460F464046494642464B4600F0FF
:100B5000E3FC4FEA6A0A80468946BAF1000FE7D102
:100B6000DDE9020132463B4600F0A8FDCDE9020175
:100B7000BBF1660F216BDFF898900CBF05F10A00FE
:100B800006204618142EA8BF132630208DF810001A
:100B90000DF11107012E3DDBDDE9020100F0CEFB76
:100BA00007F1080104220A23B0FBF3F303EB8307E8
:100BB000A0EB4700303001F8010C0A20B3FBF0F045
:100BC00000EB8007A3EB47033033521E01F8023DD0
:100BD000E9D1083E012E01F10807DBDBDDE9020166
:100BE00000F0ACFB00F0CAFB02460B46DDE9020157
:100BF00000F0D2FB00224B4600F08EFCCDE9020152
:100C0000CAE700BFA0860100000024400000F03FBA
:100C100084D797410DF11100381A0DF1110702E048
:100C2000401E6D1E7F1C39783029F9D0BBF1660F4C
:100C300008BF691C04D0BBF1650F0CBF0121002166
:100C4000226B8E1836B2B042B8BF064636B23100BB
:100C50001AD4814204DA785C3528A8BF392000DA3A
:100C600030207A18521E00E0761E12F80139491E13
:100C70008342F9D0392802D1785C401C785400298D
:100C800002D57F1E761C6D1C2DB29DF83810009584
:100C900033B23A46204600F003F80FB0BDE8F08FBB
:100CA0002DE9F04786B006468A4690461D4600F07C
:100CB0004EFE012D406A376B90F8009002DA012554
:100CC0000FF278284AF02000BDF93840662808BFA6
:100CD000641C12D0672878D114F1040F7BDBBC426E
:100CE00079DA96F83800641C000702D4BD42B8BF18
:100CF0002F4624B23F1B48BF002724B2F068B169D9
:100D0000012C23DA4A1C30234354012F03DA96F8CE
:100D10003800000703D5F06800F80290521CE74243
:100D2000B8BF7C4224B260427062E719AF42B26140
:100D3000B8BF3D46F068B3692DB2F5612A46414619
:100D4000184400F0CDF9781BB062BCE02246954211
:100D5000084416DA2A46414600F0C2F9B16969181A
:100D6000601B012FB161706203DA96F8380000074A
:100D700005D5F06800F80190F069401CF061B76299
:100D8000A1E0414600F0ACF9B06920182D1B012FFD
:100D900003DA96F83810090703D5F16801F80090D6
:100DA000401CB0612DB2AF42B8BF3D46F068B36998
:100DB0002DB22A4608EB0401184400F091F9B069FD
:100DC0002818B061781B70627DE0BAF1610F14D110
:100DD0004FF0700A16E0BD4204DA96F838100907A1
:100DE00058BF2F467F1E48BF0027BAF1670F14BFB8
:100DF0004FF0450A4FF0650A04E0BAF1410F08BF11
:100E00004FF0500AB169F368481CB061012F18F81F
:100E1000012B5A5403DA96F83810090717D5F168F0
:100E2000431CB36101F80090012F10DB6D1E2DB241
:100E3000AF42B8BF3D46F0682DB22A46414618443D
:100E400000F04EF9B0692818B061781B7062F06844
:100E5000B1690144200081F800A004D42B2048701F
:100E600001F1020804E02D224A7001F102086442F7
:100E7000002502AF08E00A22684600F081FD0198D3
:100E800007F8010B6D1C009C21B20129F3DA022D39
:100E900006DA4AF02000652804BF302008F8010B6C
:100EA0004DB9302008F8010B07E06D1E02A8405D27
:100EB000303008F8010B012DF7DAF068B169084409
:100EC000A8EB0000F06196F8380000F0140010283C
:100ED0000DD17069B1690818716A0818F1690818AC
:100EE000B16A0818716B8842BCBF081A306206B03C
:100EF000BDE8F087F8B504460D4616461F460020AB
:100F000077B116F8011BA868A047A86030B1E86A5D
:100F1000401CE86200207F1EF3D1F2BD4FF0FF308D
:100F2000F2BD0000686A6C747A4C00006E616E005D
:100F30004E414E00696E6600494E46003000026820
:100F4000531C0360117070470278C9B28A421AB10B
:100F50001CBF10F8012FF9E718BF002070472000D0
:100F600000F10103810704D010F8011B89B181074A
:100F7000FAD10268B2F10131914311F0803F04BF10
:100F800050F8042FF6E710F8011B11B110F8011BFF
:100F9000FBE7C01A70470000C9B2830706D0521E93
:100FA00022D310F8013B9942F7D11FE0083A13D33E
:100FB00002F1040241EA012141EA014150F8043BF7
:100FC000121F21BF4B40A3F1013C2CEA030C1CF083
:100FD000803FF3D0C9B2001F083210F8013B521E07
:100FE00028BF91EA030FF8D818BF0120401E7047B0
:100FF0001B4213D1094236D12AB18446B0FBF2F02C
:1010000002FB10C2704700F0C3BCFCD300220023D7
:1010100070470B000200002100207047904271EBE6
:10102000030CF6D370B5B1FA81F4B3FA83F52C1B37
:10103000A340C4F1200532FA05F63343A2405FF025
:101040000046E64002E05B085FEA3202841A71EB78
:10105000030524BF204629467641F4D302000B0045
:101060003000002170BD012ACFD970B5140C20D0FA
:10107000B1FA81F4B2FA82F5C4F120046419B4F132
:101080002006D6D3B2405FF00044F440002502E0D1
:1010900052085FEA3303C61A71EB020E24BF3046D2
:1010A000714664416D41F3D302000B00200029001A
:1010B00070BD0C46B1FBF2F102FB11452D0445EA6F
:1010C0001045B5FBF2F402FB145580B240EA054529
:1010D000B5FBF2F002FB105240EA044070BD000084
:1010E00062B38B0708D0521E11F8013B00F8013B98
:1010F00000F024808B07F6D1830740F0208000BFEA
:10110000103A07D330B4B1E83810103AA0E83810DC
:10111000F9D230BC530724BFB1E80810A0E808108A
:1011200044BF51F8043B40F8043BD20724BF31F8D8
:10113000022B20F8022B44BF0B7803707047083A4B
:1011400007D3B1E80810083A40F8043B40F804CB54
:10115000F7D25307E4E730B4436803F000420121BB
:10116000C3F313034360002B04BF0368002B08D1B3
:101170000DE00368DD0F45EA440444605B00036052
:10118000491E4468E302F4D5C4F313034360436883
:101190001A434260084630BC704700004FF4001C00
:1011A0001CEB410F94BF1CEB430F09E041EA030C19
:1011B00050EA4C0C52EA0C0C03D2994208BF904200
:1011C000704714BF8B428242704700004FF4001CEE
:1011D0001CEB410F94BF1CEB430F09E041EA030CE9
:1011E00050EA4C0C52EA0C0C03D28B4208BF8242EC
:1011F000704714BF994290427047000070B5044692
:101200000D466068C0F30A5040F2FF71884207D172
:101210006068000304BF2068002817D0022070BD5A
:1012200020B92046FFF797FF012866DA012D0FDB72
:1012300040F2FF71091A8D420AD3606800284CBF42
:101240009FED2F0B9FED300B84ED000B012070BD47
:101250004142A942616806DA6FF31E51401941EA22
:101260000050606040E0401E63684519012205F1AE
:10127000350062F31F53352801F00041636003D34A
:1012800061600020206070BD002015F11F0F04DA9E
:10129000206823600022203562606A4212D0401E1E
:1012A00025688041C2F12003C0439D4045EAD070CB
:1012B00025686668D54006FA03F32B43236063680C
:1012C000D340636062680A43B0F1004F626003D8A4
:1012D0000DD12078C0070AD52068401C2060206806
:1012E00028B96068401C60604FF0FF3070BD6068D6
:1012F000884204BF20680028F6D1002070BD00BFDE
:10130000000000000000F0FF000000000000F07F7F
:10131000F446400D40EAC120490006D200F014F81E
:10132000004248BF6FF00040604700F00DF84FF0FA
:10133000004188428CBF084640426047400D40EA69
:10134000C120490080F00D8040F00040490DA1F51A
:101350008061491C05D4D1F11F0154BFC840C0179A
:1013600070474FF000007047010040F10980F446DB
:10137000404200F005F851F000416047010000BF15
:1013800009D0B0FA80F18840C91CC1F58461090513
:1013900001EBD02140057047F0B44FF0004591EAD1
:1013A000030F44BF6B4000F0F5BA00BF841A71EB25
:1013B000030604D26E40001BB141121973414FF471
:1013C000001C1CEB410F34BF7CEB430684E00C0D8A
:1013D000A4EB1356362E7DDC012E43DC45EAC323F5
:1013E00043EA525312BFD20292025B08240545EA37
:1013F000C12141EA5051D2EBC020994125D407D1F7
:10140000B0FA80F610FA06F164D00020203608E029
:10141000B1FA81F6B140C6F1200220FA02F211437E
:10142000B0404FEAF474B4EB465434F001064FEA8E
:1014300074040AD8D6F50016760D04F00044F04086
:1014400061FA06F25040F1404840C00A40EA41507B
:1014500021F0004128BF5FEA500550F1000044EB45
:10146000D12137E045EAC323DB0A45EAC121C90A95
:10147000B6F120050EDD42EA0242120CC5F120064B
:1014800003FA06F6EB4042EA06056D42984161F127
:1014900000010DE062FA06F5F240554063FA06FCE1
:1014A00082EA0C02F3405A406D42904161EB030125
:1014B00011F4801F05D1641E620502D06D00404109
:1014C000494121F48011430875F1004350F10000B7
:1014D00041EB0451F0BC70471CEB410F15D223F0D7
:1014E000004352EA43060BD04FEA4C0CBCEB410FD1
:1014F00004D80C0D661E342EB7DDEBE7801A994137
:1015000050EA410608BF0021E4E708BF1CEB430F87
:1015100028BF6FF00001DDE7B0B581EA030C0CF0E5
:10152000004C40F2FF7515EA11541DBF15EA135720
:10153000AC42AF4239E0E41923EA455343F4801347
:10154000C90241F0004141EA505EC7021100A7FB09
:10155000020200284FF00000EEFB01204FF00001D6
:10156000E3FB072118BF42F0010240180021494166
:10157000E3FB0E01A4F580640F0302D25200404148
:10158000494154F101046CDD470872F1004250F109
:10159000000051EB0451A1F580115CBF41EA0C0140
:1015A000B0BD4CEA05510020B0BD05EA1357AC426E
:1015B00014BFAF4241E050EA410E1CBF52EA430E55
:1015C00002E061460020B0BD24423C441BD15FEAEA
:1015D000070EF6D0090302BF01460020AEF1140E3B
:1015E000B1FA81F7AEEB070401FA07FE0C37C7F139
:1015F000200100FA07F7C8404EEA000E23EA4553DF
:1016000043F48013A2E733F00043B3FA83F704BF37
:10161000B2FA82FE77440B3FE41BB7F1200E2FBFD6
:1016200002FA0EF3BB40C7F1200E22FA0EFE38BFBD
:1016300043EA0E03BA40641C82E750EA410E14BF2D
:1016400052EA430E6FF000014FF4001717EB430FFF
:101650008ABF194617EB410FB5E74CEA0551002048
:10166000B0BDD4F10104B4F120070FDAC4F12007B2
:10167000520828BF42F0010210FA07F501FA07F7F5
:10168000E1BF2A43E0403843E1400FE0352C98DCCD
:10169000C7F1200452EA400220FA07F218BF42F0D4
:1016A000010231FA07F0A1400A43002172F1004221
:1016B00050F1000051EB0C01B0BD00002DE9F041EC
:1016C00040F2FF7581EA030C0CF0004C15EA11544E
:1016D0001DBF15EA1357AC42AF42E9E0BC41C1F36C
:1016E0001301C3F31303801A994143F4801304D206
:1016F000641E4000494180185941C90241EA5051D5
:10170000B1FBF3F603FB1611A2FB0675D7EBC02065
:10171000A94102D2761E80185941C90241EA5051AE
:10172000B1FBF3FE03FB1E11A2FB0E75D7EBC0202D
:10173000A94103D2AEF1010E80185941890241EA54
:101740009051760546EA8E2EB1FBF3F603FB161197
:10175000A2FB0675D7EB8020A94102D2761E801825
:101760005941C90241EA50514EEA060EB1FBF3F667
:1017700003FB1611A2FB0675D7EBC020A94102D2CC
:10178000761E80185941C90241EA5051B1FBF3F766
:1017900003FB1711A2FB0735D3EBC020A94167F16A
:1017A00000070CBF004247F0010766F3D5274FEA58
:1017B0001E31B80814F5806414DDBD0775F10042D0
:1017C00050EB0E5051EB045111F5801F5CBF41EA04
:1017D0000C01BDE8F0814CF07F6141F0E041002058
:1017E000BDE8F081BD076D0840EA0E5041F480115C
:1017F000D4F10104B4F120060ADAC4F12006020093
:10180000E04001FA06F3E1401843B24015430EE010
:10181000342C14DCC6F1200445EA40056D0820FA9A
:1018200006F2154321FA06F0A1400D43002175F19F
:10183000004250F1000051EB0C01BDE8F0810020A6
:101840005FEA0C01BDE8F081CFB992185B41B3FAB1
:1018500083F704BFB2FA82F6BF190B3FB7F1200637
:101860002FBF02FA06F3BB40C7F1200622FA06F6A4
:1018700038BF3343BA401CB1E419641E2FE77F42DE
:1018800031F00041B1FA81F404BFB0FA80F6A41936
:101890000B3CB4F120062FBF00FA06F1A140C4F1C1
:1018A000200620FA06F638BF3143A0403C1B16E75D
:1018B000AC421ABF05EA1357AF4214E050EA4106A2
:1018C0001CBF52EA4306BFE750EA41073046614673
:1018D0001CBF41EA0551BDE8F08152EA430C08BF44
:1018E000C143BDE8F08100204FF4001616EB410F14
:1018F00098BF16EB430F08BF16EB410F24BFC1433F
:1019000005E016EB430F0CBF61464CEA0551BDE8FC
:10191000F081000080B5134800F0A6F80FF24C02E9
:101920000FF244010160426241600FF2440282639F
:1019300081600FF24402C160016141618161816295
:10194000C16201634163C2630164416401BD10B5BA
:10195000044800F089F80446206808B9FFF7DAFF68
:10196000204610BDEC000020000000002E0000000A
:1019700066616C736500000074727565000000009C
:1019800091FBF2F303FB1211C0E900317047000034
:1019900070470000841A71EB030603D2001BB141AB
:1019A000121973414FF4001C1CEB410F34BF7CEB48
:1019B000430443E00C0DA4EB1356352E50DC45EAEE
:1019C000C323DB0A45EAC121C912B6F120050DDDAA
:1019D00063FA05F6EB4086EA0305124218BF45F0AC
:1019E0000105C01851F100010CD213E062FA06F5AE
:1019F000F2405540F3415A40B340F3405A408018FA
:101A0000594107D349085FEA30005FEA350528BF2E
:101A100045F0010501F58011420875F1004250F1D1
:101A2000000041EB0451F0BC4FF4001C1CEB410FD3
:101A300038BF70470020090D090570471CEB410FA6
:101A400010D252EA43060BD0BCEB410F05D80C0D67
:101A5000AB43661E342EB5DD02E0AB43801859411E
:101A6000F0BC7047F0BC70477047000010B5040030
:101A7000002C01D1012037E0A0690028FFD194F8A3
:101A80006900002805D1002084F86800200000F0DB
:101A90003BFE242084F8690020680068400840006C
:101AA00021680860200000F06BFA012801D10120B4
:101AB0001AE0606A002802D0200000F09BFC206839
:101AC000406830F49040216848602068806830F0B9
:101AD0002A00216888602068006850F001002168B1
:101AE0000860200000F0F3FC10BD10B50400002CCD
:101AF00001D1012020E0242084F8690020680068DA
:101B0000400840002168086000202168086000202B
:101B100021684860002021688860200000F05AFE9B
:101B20000020E066002084F86900002084F86A0044
:101B3000002084F86800002010BD2DE9F84304005F
:101B40000D0016001F005FF0000994F869002028BE
:101B500057D1002D02D0B6B2002E01D1012051E0A4
:101B600094F86800012801D102204BE0012084F89C
:101B700068000020E066212084F8690000F054FE2F
:101B80008146A4F85060A4F85260B4F852000028CE
:101B900024D0B4F85200401EA4F8520000974B46DF
:101BA00000228021200000F0C9FC002801D0032081
:101BB00028E0A068B0F5805F0BD12069002808D12B
:101BC000A846B8F80000C005C00D21680885AD1C06
:101BD000DBE72878216808856D1CD6E700974B461F
:101BE00000224021200000F0A9FC002801D00320A1
:101BF00008E0202084F86900002084F868000020B4
:101C000000E00220BDE8F2832DE9F04782B0040035
:101C10000D0016001F005FF0000A94F86A002028EB
:101C20007DD1002D02D0B6B2002E01D1012077E087
:101C300094F86800012801D1022071E0012084F8A5
:101C400068000020E066222084F86A0000F0ECFDC5
:101C50008246A4F85860A4F85A60A068B0F5805F86
:101C60000BD12069002804D140F2FF10A4F85C00D9
:101C70001FE0FF20A4F85C001BE0A06800280AD148
:101C80002069002803D1FF20A4F85C0011E07F2028
:101C9000A4F85C000DE0A068B0F1805F09D1206974
:101CA000002803D17F20A4F85C0002E03F20A4F8C4
:101CB0005C00B4F85C008146B4F85A00002826D0D5
:101CC000B4F85A00401EA4F85A0000975346002268
:101CD0002021200000F032FC002801D003201FE06A
:101CE000A068B0F5805F0BD12069002808D1A84614
:101CF0002068808C19EA0000A8F80000AD1CDBE722
:101D00002068808C19EA000028706D1CD4E7202020
:101D100084F86A00002084F86800002000E00220B7
:101D2000BDE8F68710B4030093F86A0020285CD160
:101D3000002902D092B2002A01D1012056E093F886
:101D40006800012801D1022050E0012083F86800DA
:101D50005965A3F85820A3F85A209868B0F5805F19
:101D60000BD11869002804D140F2FF10A3F85C00E1
:101D70001FE0FF20A3F85C001BE0986800280AD150
:101D80001869002803D1FF20A3F85C0011E07F2030
:101D9000A3F85C000DE09868B0F1805F09D1186984
:101DA000002803D17F20A3F85C0002E03F20A3F8C5
:101DB0005C000020D866222083F86A00002083F8A7
:101DC00068001868006850F480701C68206018680B
:101DD000806850F001001C68A0601868006850F02E
:101DE00020001C682060002000E0022010BC70472A
:101DF0002DE9F04104002068C5692068066815F0E7
:101E00000F008046B8F1000F12D1A80605D5B00624
:101E100003D5200000F02FFCB0E0E80608D5F0065E
:101E200006D5102021680862200000F003FDA5E01F
:101E3000206880680700B8F1000F7AD040F20110E6
:101E4000074276D015F00100C0B2002808D0F00596
:101E500006D5012021680862E06E50F00100E066BE
:101E6000A8070BD517F00100C0B2002806D0022049
:101E700021680862E06E50F00400E06668070BD548
:101E800017F00100C0B2002806D0042021680862C3
:101E9000E06E50F00200E06628070DD5B00604D4CD
:101EA00017F00100C0B2002806D00820216808629F
:101EB000E06E50F00800E066E06E002838D0A8061A
:101EC00004D5B00602D5200000F0D5FBE06E000777
:101ED00003D420688068400625D5200000F066FB0A
:101EE0002068806840061AD52068806830F040007D
:101EF00021688860606E00280DD00FF2D160616E9D
:101F00008863606E00F01EFD002811D0606E616E67
:101F1000896B88470CE0200000F089FD08E0200074
:101F200000F085FD04E0200000F081FD0020E06667
:101F300024E0206880680700E8020FD578020DD5FC
:101F40005FF4801021680862202084F86900202056
:101F500084F86A00200000F09FFD0FE0280605D5F8
:101F6000300603D5200000F03EFB07E0680605D5EB
:101F7000700603D5200000F06EFBFFE7BDE8F0819E
:101F80002DE9F84304000027102500265FF0000922
:101F90005FF000082068DFF834148842FFD0A068A2
:101FA0002169084361690843E16908430700206823
:101FB0000068DFF81C140840384321680860206876
:101FC000406830F44050E168084321684860A069E7
:101FD00007002068DFF8F413884201D0206A074325
:101FE0002068806830F43060384321688860206859
:101FF000DFF8E01388421BD1DFF8DC03006810F043
:102000000300002805D0022806D008D3032809D0F1
:102010000BE001200500B4E002200500B1E004203F
:102020000500AEE008200500ABE010200500A8E0A8
:102030002068DFF8A81388421CD1DFF89C030068F1
:1020400010F00C00002806D004280AD0082805D07B
:102050000C2809D00BE00020050092E002200500CA
:102060008FE0042005008CE00820050089E01020A6
:10207000050086E02068DFF8681388421CD1DFF88D
:102080005803006810F03000002806D010280AD04D
:10209000202805D0302809D00BE00020050070E092
:1020A000022005006DE0042005006AE0082005001C
:1020B00067E01020050064E02068CA4988421BD10F
:1020C000C548006810F0C000002806D040280AD09B
:1020D000802805D0C02809D00BE00020050050E082
:1020E000022005004DE0042005004AE0082005001C
:1020F00047E01020050044E02068BB4988421ED11B
:10210000B548006810F44070002809D0B0F5807F11
:102110000CD0B0F5007F06D0B0F5407F09D00BE0C1
:10212000002005002DE0022005002AE00420050023
:1021300027E00820050024E01020050021E02068A9
:10214000A24988421DD1A448006810F440600028CC
:1021500009D0B0F5806F0CD0B0F5006F06D0B0F5A7
:10216000406F09D00BE0002005000AE002200500C6
:1021700007E00420050004E00820050001E010202D
:1021800005002068914988427DD100200700EDB20A
:102190002800002806D0022808D0042809D00828E2
:1021A0000BD00EE001F042F907000CE08F48070069
:1021B00009E001F08AF8070005E04FF4004007004D
:1021C00001E001208046002F00F0FC8060680321C0
:1021D0004843874205D360684FF480514843B84272
:1021E00002D201208046EDE0EDB22800002806D0A2
:1021F000022814D004281FD008282DD035E001F083
:1022000015F902004FF48073606840080021E3FB79
:10221000020162680023FEF7EBFE070027E060681A
:1022200042080023724800211018594162680023B7
:10223000FEF7DEFE07001AE001F047F802004FF457
:102240008073606840080021E3FB0201626800239C
:10225000FEF7CEFE07000AE06068400810F50000B7
:102260006168B0FBF1F0070001E001208046B7F59E
:10227000407F05D3B7F5801F02D22068C760A1E078
:10228000012080469EE0E069B0F5004F4FD1EDB2ED
:102290002800002808D0012811D002281AD00428CC
:1022A00023D008282CD034E001F0C0F86168490838
:1022B00011EB40006168B0FBF1F081462BE001F0CA
:1022C000C5F86168490811EB40006168B0FBF1F0A6
:1022D000814620E06068400800F1F47010F59040FD
:1022E0006168B0FBF1F0814615E000F0EEFF616837
:1022F000490811EB40006168B0FBF1F081460AE04B
:102300006068400810F580306168B0FBF1F08146EC
:1023100001E0012080464FF6F07010EA0900060047
:10232000C9F342000643B6B22068C6604AE0EDB287
:102330002800002808D0012812D002281CD0042828
:1023400027D0082831D03BE001F070F8616810EB2D
:1023500051006168B0FBF1F080B22168C86031E0E3
:1023600001F074F8616810EB51006168B0FBF1F0A6
:1023700080B22168C86025E06068400800F57400FC
:1023800010F510506168B0FBF1F080B22168C860B0
:1023900018E000F09AFF616810EB51006168B0FB33
:1023A000F1F080B22168C8600CE06068400810F568
:1023B00000406168B0FBF1F080B22168C86001E0C4
:1023C000012080464046C0B2BDE8F2830080004054
:1023D000F369FFEF003801408810024000440040DC
:1023E00000480040004C0040005000400024F40031
:1023F000000024F490F82410C90707D50168496843
:1024000031F40031826A11430268516090F824105F
:10241000890707D50168496831F48031C26A1143E0
:102420000268516090F82410490707D5016849688F
:1024300031F48021026B11430268516090F824103E
:10244000090707D50168496831F40041426B11431F
:102450000268516090F82410C90607D501688968A0
:1024600031F48051826B11430268916090F824101E
:10247000890607D50168896831F40051C26B1143A0
:102480000268916090F82410490613D501684968E4
:1024900031F48011026C114302685160016CB1F596
:1024A000801F07D10168496831F4C001426C1143B3
:1024B0000268516090F82410090607D50168496840
:1024C00031F40021826C114302685160704738B5C5
:1024D000040000250020E06600F0A6F90500206851
:1024E000006800070DD57FF07E4000902B00002291
:1024F0005FF40011200000F021F8002801D0032033
:102500001BE02068006840070DD57FF07E400090FA
:102510002B0000225FF48001200000F00FF800285B
:1025200001D0032009E0202084F86900202084F8ED
:102530006A00002084F86800002032BD2DE9F041D7
:1025400004000D0016001F00DDF818802068C06927
:102550002840A84201D1012000E00020F6B2B0429C
:1025600021D118F1010FF1D0B8F1000F04D000F023
:102570005BF9C01B8045E9D22068006830F4D07058
:1025800021680860206880684008400021688860F1
:10259000202084F86900202084F86A00002084F854
:1025A0006800032000E00020BDE8F081202180F8D1
:1025B0006A100168096831F490710268116001685D
:1025C00089684908490002689160704738B504007D
:1025D000A56A0020A5F85A000020A5F8520028009E
:1025E00000F025FA31BD010091F86900212830D1B1
:1025F000B1F8520000280DD10868006830F0800062
:102600000B6818600868006850F040000B6818609C
:1026100000201FE08868B0F5805F0DD108690028B0
:102620000AD1C86C02001088C005C00D0B6818855F
:10263000C86C801CC86405E0C86C431CCB6400787F
:102640000B681885B1F85200401EA1F85200002016
:1026500000E00220704710B504002068006830F0E8
:10266000400021680860202084F86900200000F004
:10267000DDF9002010BDF8B50400B4F85C6094F8F2
:102680006A00222837D12068808C0700A068B0F546
:10269000805F0BD12069002808D1606D050016EA23
:1026A00007002880606D801C606505E0606D411C3E
:1026B000616516EA07010170B4F85A00401EA4F8DB
:1026C0005A00B4F85A00002813D12068006830F48A
:1026D0009070216808602068806840084000216888
:1026E0008860202084F86A00200000F09EF9002015
:1026F00008E0002006E02068008B50F00800216808
:1027000008830220F2BD000010B586B004004448E2
:1027100084425DD14048006850F001003E490860A5
:102720003D48006810F00100009000983A480068A9
:1027300050F00100384908603748006810F0010087
:10274000009000983548006850F480403349086094
:102750003248006810F48040009000982F480068CC
:1027600050F001002D4908602C48006810F001006D
:10277000009000984FF40070019002200290002019
:102780000390072005900320049001A95FF090407A
:1027900000F0DAFE4FF4806001900720059001A957
:1027A0005FF0904000F0D0FE4FF480500190012087
:1027B00003900720059001A95FF0904000F0C4FE4F
:1027C00000220321252001F0F5F8252001F005F96C
:1027D00006B010BD10B50400114884421AD111484A
:1027E000006850F480400F4908600E48006830F4DB
:1027F00080400C4908604FF400715FF0904000F099
:102800009CFF4FF480615FF0904000F096FF252020
:1028100001F0EAF810BD00004C10024060100240C8
:10282000641100204010024001480068704700BF5A
:10283000A81300207047000010B4010000220029F6
:1028400001D101206DE08868B0F5804F0868364BF3
:1028500098420AD20868354B18181423B0FBF3F0DD
:10286000800048643248086409E00868314B181851
:102870001423B0FBF3F0800048642F480864022062
:1028800081F825000868006802006FF30D1288685F
:10289000CB6818430B6918434B6918438B6918437D
:1028A000CB6918430B6A18430243086802608868C2
:1028B000B0F5804F24D0086C1D4B984210D11F48B2
:1028C00000680F234C6CA34098431C4B18601B48B6
:1028D00000684B684C6CA3401843184B18600FE01D
:1028E000174800680F234C6CA3409843144B1860A2
:1028F000134800684B684C6CA3401843104B186099
:102900000020C8620020086300204863002088631C
:102910000020C863012081F82500002081F82400F0
:10292000002010BC7047000008040240F8FFFDBF03
:1029300000000240F8FBFDBF00040240A800024076
:10294000A804024038B50400002594F825000228A8
:1029500004D00420E063012005001FE02068006827
:1029600030F00E00216808602068006840084000D0
:1029700021680860206C40680121626C9140084326
:10298000216C4860012084F82500002084F8240090
:10299000A06B002802D02000A16B88472800C0B29D
:1029A00032BD00000068400C10F001007047006864
:1029B000400D10F001007047416851F40031416052
:1029C0007047416851F4001141607047704780B50D
:1029D000002001F029F8FBE780B5002001F024F881
:1029E000FBE780B5002001F01FF8FBE780B5002071
:1029F00001F01AF8FBE780B5002001F015F801BDE1
:102A000080B5002001F010F801BD704780B51D4869
:102A100001F01EF801BD80B51B4801F019F801BD99
:102A200080B501F0D1F801BD70477047704710B50F
:102A30000400200001F0B6FA10BD80B51348FFF77E
:102A4000D7F901BD80B512480068FFF7D1F901BD83
:102A500080B51048FFF7ABFF012804D10D48FFF700
:102A6000B0FF01F004FA01BD80B50A48FFF79AFFF4
:102A7000012804D10748FFF79FFF01F02AFA01BDA2
:102A80000000000004130020401300206411002007
:102A9000AC130020000002407047000070B582B007
:102AA000040000252078C00640F1D380DFF8C0097B
:102AB000006810F00C0F7DD1DFF8B00900688007C6
:102AC00004D5A069002801D101200AE3DFF89C09A0
:102AD0000068000705D5DFF89409006810F0F000E1
:102AE00005E0DFF8340A0068000910F0F000216A00
:102AF000884224D2206A00F0BFFC002801D00120C7
:102B0000EFE2DFF86809006850F00800DFF85C19B0
:102B10000860DFF85809006830F0F000216A0843C7
:102B2000DFF848190860DFF8F409006830F47F40E6
:102B3000E16950EA0120DFF8E419086023E0DFF8DA
:102B40002C09006850F00800DFF820190860DFF851
:102B50001C09006830F0F000216A0843DFF80C1906
:102B60000860DFF8B809006830F47F40E16950EA96
:102B70000120DFF8A8190860206A00F07DFC002819
:102B800001D00120ADE200F0A0FBDFF8E4180968F5
:102B9000DFF88C2911F0F0015FF07063B3FA83F372
:102BA000D940515CC840DFF86C1908600F2001F073
:102BB0002BFB4EE0A069002834D0DFF8B008006895
:102BC00050F00100DFF8A4180860FFF72DFE0500A3
:102BD000DFF898080068800706D4FFF725FE401B41
:102BE0000328F5D303207CE2DFF88008006850F06A
:102BF0000800DFF878180860DFF87008006830F027
:102C0000F000216A0843DFF864180860DFF80C0957
:102C1000006830F47F40E16950EA0120DFF8FC18D9
:102C2000086016E0DFF84408006840084000DFF85C
:102C30003C180860FFF7F8FD0500DFF83008006871
:102C4000800706D5FFF7F0FD401B0328F5D30320CE
:102C500047E22078C00771D5DFF81408006810F04B
:102C60000C0008280DD0DFF80808006810F00C00F0
:102C70000C2810D1DFF8FC07006810F003000328CF
:102C800009D1DFF8E8070068800357D5606800289D
:102C900054D1012025E26068B0F5803F08D1DFF80B
:102CA000CC07006850F48030DFF8C017086024E0DB
:102CB0006068B0F5A02F10D1DFF8B007006850F4BD
:102CC0008020DFF8A8170860DFF8A007006850F43C
:102CD0008030DFF8981708600FE0DFF89007006891
:102CE00030F48030DFF884170860DFF88007006870
:102CF00030F48020DFF874170860606800280ED078
:102D0000FFF792FD0500DFF864070068800315D423
:102D1000FFF78AFD401B6528F5D30320E1E1FFF7AB
:102D200083FD0500DFF844070068800306D5FFF740
:102D30007BFD401B6528F5D30320D2E12078800776
:102D40006FD5DFF82C07006810F00C0004280DD0B8
:102D5000DFF81C07006810F00C000C2820D1DFF809
:102D60001407006810F00300022819D1DFF8FC06F0
:102D70000068400504D5E068002801D10120B0E1D9
:102D8000DFF898070068F821B1FA81F130F0F850C7
:102D9000226912FA01F10843DFF88017086040E069
:102DA000E068002826D0DFF8C406006850F4807080
:102DB000DFF8B8160860FFF737FD0500DFF8AC064E
:102DC0000068400506D4FFF72FFD401B0328F5D30C
:102DD000032086E1DFF844070068F821B1FA81F1A9
:102DE00030F0F850226912FA01F10843DFF82C178D
:102DF000086016E0DFF87406006830F48070DFF8D1
:102E00006C160860FFF710FD0500DFF8600600682B
:102E1000400506D5FFF708FD401B0328F5D3032026
:102E20005FE12078000730D56069002816D0DFF810
:102E3000E806006850F00100DFF8DC160860FFF7D4
:102E4000F3FC0500DFF8D006006880071DD4FFF70B
:102E5000EBFC401B0328F5D3032042E1DFF8B80662
:102E6000006840084000DFF8B0160860FFF7DCFC9F
:102E70000500DFF8A4060068800706D5FFF7D4FC3C
:102E8000401B0328F5D303202BE12078400740F1B5
:102E900093800026DFF88C060068C00010D4DFF8AD
:102EA0008406006850F08050DFF878160860DFF87C
:102EB0007406006810F08050009000980120060011
:102EC000DFF864060068C00516D4DFF85C06006809
:102ED00050F48070DFF850160860FFF7A5FC05007D
:102EE000DFF844060068C00506D4FFF79DFC401BD0
:102EF0000328F5D30320F4E0A068012808D1DFF807
:102F00002C06006850F00100DFF82016086023E06E
:102F1000A068052810D1DFF81406006850F00400FE
:102F2000DFF808160860DFF80406006850F00100BA
:102F3000DFF8F81508600FE0DFF8F00500684008DA
:102F40004000DFF8E8150860DFF8E005006830F0C1
:102F50000400DFF8D8150860A068002810D0FFF73B
:102F600063FC0500DFF8C4050068800719D4FFF78B
:102F70005BFC401B41F289318842F3D30320B0E06F
:102F8000FFF752FC0500DFF8A4050068800708D5AC
:102F9000FFF74AFC401B41F289318842F3D30320FA
:102FA0009FE0F6B2012E07D1DFF87805006830F017
:102FB0008050DFF870150860A06A002800F090804B
:102FC000DFF8AC04006810F00C000C2800F08680DC
:102FD000A06A022850D1DFF89404006830F08070B5
:102FE000DFF888140860FFF71FFC0500DFF87C0499
:102FF0000068800106D5FFF717FC401B0328F5D3B6
:1030000003206EE0206B401E616B090251EA001044
:10301000A16B090950EA4140E16A0843E16B891E4E
:103020000905490D49050843216C891E090611F05F
:103030007E410843DFF83C140860DFF83004006884
:1030400050F08070DFF824140860DFF8280400686E
:1030500050F08070DFF81C140860FFF7E5FB0500F6
:10306000DFF80804006880013AD4FFF7DDFB401B5D
:103070000328F5D3032034E0DFF8F003006830F0D4
:103080008070DFF8E8130860DFF8E00300680001F3
:103090000CD4DFF8D8030068800007D4DFF8D4032D
:1030A000006880088000DFF8CC130860DFF8C403F4
:1030B0000068DFF87C140840DFF8B8130860FFF7F9
:1030C000B3FB0500DFF8A4030068800108D5FFF713
:1030D000ABFB401B0328F5D3032002E0012000E0F6
:1030E000002076BD70B504000D000026DFF8440412
:1030F000006810F00700A84211D2DFF83804006819
:10310000C008C0002843DFF82C140860DFF824044E
:10311000006810F00700A84201D00120D4E0207818
:10312000800709D5DFF84803006830F0F000A16897
:103130000843DFF83C1308602078C00779D5606841
:10314000022806D1DFF82403006880031CD4012084
:10315000BAE06068032806D1DFF810030068800138
:1031600012D40120B0E06068002806D1DFF8FC022C
:103170000068800708D40120A6E0DFF8F0020068AC
:10318000400501D401209FE0DFF8E40200688008D8
:10319000800061680843DFF8D8120860FFF744FB3D
:1031A0000600606802280FD1DFF8C402006810F042
:1031B0000C0008283DD0FFF737FB801B41F2893116
:1031C0008842F1D303207FE0606803280FD1DFF845
:1031D000A002006810F00C000C282AD0FFF724FB96
:1031E000801B41F289318842F1D303206CE0606892
:1031F00000280ED1DFF87802006810F00C0F18D00C
:10320000FFF712FB801B41F289318842F2D3032081
:103210005AE0DFF85C02006810F00C00042808D0C7
:10322000FFF702FB801B41F289318842F1D3032072
:103230004AE0DFF80003006810F00700854211D271
:10324000DFF8F0020068C008C0002843DFF8E4128D
:103250000860DFF8E002006810F00700A84201D023
:10326000012031E02078400709D5DFF8040200682A
:1032700030F4E060E1680843DFF8F411086020787A
:1032800000070AD5DFF8E801006830F460502169D2
:1032900050EAC100DFF8D811086000F016F8DFF836
:1032A000D0110968DFF8782211F0F0015FF0706347
:1032B000B3FA83F3D940515CC840DFF85812086074
:1032C0000F2000F0A1FF002070BDF0B4002100220B
:1032D0000023022402250020654E366816F00C0FEC
:1032E0000BD0634E366816F00C060C2E2AD1614EB8
:1032F000366816F00306012E24D15C4E3668360778
:103300000BD4DFF81462366816F470665FF4700749
:10331000B7FA87F7FE40310009E0544E366816F0E0
:10332000F0065FF07067B7FA87F7FE403100DFF80C
:10333000086256F821104E4E366816F00C0F14D164
:10334000080012E04A4E366816F00C06042E03D12F
:10335000DFF8E861300008E0454E366816F00C06EC
:10336000082E02D1DFF8D8613000414E366816F0E1
:103370000C060C2E55D13F4E366816F0030633006E
:103380003C4E366816F070065FF06067B7FA87F754
:10339000FE40761C35001E00022E02D0032E12D0F5
:1033A00022E0344E3668DFF89471B7FBF5F716F477
:1033B000FE465FF47E0CBCFA8CFC36FA0CF606FB7B
:1033C00007F632001FE02B4E36685D4FB7FBF5F76E
:1033D00016F4FE465FF47E0CBCFA8CFC36FA0CF652
:1033E00006FB07F632000EE0224E3668B1FBF5F719
:1033F00016F4FE465FF47E0CBCFA8CFC36FA0CF632
:1034000006FB07F632001B4E366816F0C0666027D2
:10341000B7FA87F7FE40761C76003400B2FBF4F66C
:103420003000F0BC70473B480068704780B5FFF73C
:10343000FAFF0F490968434A11F4E0615FF4600341
:10344000B3FA83F3D940515CC84002BD80B5FFF7A1
:10345000EAFF074909683B4A11F460515FF4E01341
:10346000B3FA83F3D940515CC84002BD001002405A
:10347000081002400C10024070B582B00400002514
:10348000002628480068C00003D500F0D1FE0500E2
:1034900014E02448006850F0805022490860214818
:1034A000006810F080500090009800F0C1FE050008
:1034B0001C48006830F080501A490860B5F5007F5C
:1034C00009D1812C15D3A12C02D30220060010E0D3
:1034D000012006000DE0812C02D30320060008E045
:1034E000802C02D10220060003E0702C01D10120C3
:1034F000060010480068C008C00030430D4908604D
:103500000C48006810F00700B04201D0012000E034
:10351000002076BD040000209410024004100240F8
:10352000C452000858100240007000409010024041
:10353000FFFFEEFE00200240105100080024F400BE
:1035400000127A000453000878B4002200230024FB
:103550000D68D540002D00F0EE800D6801269640E4
:1035600035402B00002B00F0E4804D68022D02D086
:103570004D68122D16D1D50800EB85052D6A2C005B
:103580000F2512F00706F6B2B600B540AC430D6940
:1035900012F00706F6B2B600B5402C43D50800EB92
:1035A00085052C6205682C0003251600F6B276000E
:1035B000B540AC430D7915F003051600F6B2760060
:1035C000B5402C4304604D68012D08D04D68022D94
:1035D00005D04D68112D02D04D68122D19D1856886
:1035E0002C0003251600F6B27600B540AC43CD683A
:1035F0001600F6B27600B5402C43846045682C0076
:1036000001259540AC434D68C5F3001595402C430A
:1036100044600D7915F00305032D0AD1C56A2C000D
:1036200001259540AC434D68C5F3C00595402C433A
:10363000C462C5682C0003251600F6B27600B540BA
:10364000AC438D681600F6B27600B5402C43C460DA
:103650004D68ED006DD58F4D2D6855F001058D4EEF
:1036600035608C4D2D6815F001050095009D8A4D43
:10367000960855F826502C000F2512F00306F6B2D6
:10368000B600B540AC43B0F1904F01D100251EE02B
:10369000824DA84201D1012519E0814DA84201D1F6
:1036A000022514E07F4DA84201D103250FE07E4D95
:1036B000A84201D104250AE07C4DA84201D105258C
:1036C00005E07B4DA84201D1062500E0072512F058
:1036D0000306F6B2B600B5402C436F4D960845F888
:1036E0002640744D2D682C009C434D68ED0300D599
:1036F0001C43704D2C60704D2D682C009C434D6810
:10370000AD0300D51C436C4D2C606C4D2D682C0016
:103710009C434D68ED0200D51C43684D2C60684DFC
:103720002D682C009C434D68AD0200D51C43644DB0
:103730002C60521C0CE771BC7047F0B400220023CF
:1037400000240D00D540002D00F098800125954003
:103750000D402B00002B00F08F800568032617001A
:10376000FFB27F00BE4035430560D50800EB8505FC
:10377000D60800EB8606366A0F2712F0070C5FFAB0
:103780008CFC5FEA8C0C17FA0CF7BE432E6285683E
:1037900003261700FFB27F00BE40B5438560456831
:1037A00001269640B5434560C56803261700FFB261
:1037B0007F00BE40B543C560C56A01269640B5434B
:1037C000C562354D960855F826502C000F2512F08D
:1037D0000306F6B2B600B5402C40B0F1904F01D1CF
:1037E00000251EE02D4DA84201D1012519E02C4DE8
:1037F000A84201D1022514E02A4DA84201D1032597
:103800000FE0294DA84201D104250AE0274DA84226
:1038100001D1052505E0264DA84201D1062500E08D
:10382000072512F00306F6B2B600B540AC4223D12C
:103830000F2512F00306F6B2B600B5402C00164D67
:10384000960855F82650A543134E970846F827507A
:10385000184D2D689D43174E3560174D2D689D43BB
:10386000154E3560154D2D689D43144E3560144D31
:103870002D689D43124E3560521C62E7F0BC7047C4
:10388000D2B2002A02D089B2816101E089B281629C
:10389000704700006010024008000140000400482A
:1038A00000080048000C00480010004800140048C0
:1038B00000180048000401400404014008040140CD
:1038C0000C04014010F007024E4B1B6819004FF624
:1038D000FF0319404C4B53EA02231943494B19602B
:1038E000704748480068C0F302207047012110F07B
:1038F0001F029140454A40B2430942F823107047E5
:10390000012110F01F029140414A40B2430942F8A0
:103910002310704710B440B2002808D50A013D4B6F
:1039200040B210F00F04234403F8042C03E00A0112
:10393000394B40B21A5410BC704770B4030013F0F6
:103940000704D4F10706052E01D3042001E0D4F1C9
:103950000700261D072E01D2002500E0E51E0126E6
:1039600016FA00F0401E0840A8400121A940491E57
:103970001140084370BC704710B50400601EB0F1E0
:10398000807F01D301200EE0601E244908600F21D2
:103990005FF0FF30FFF7BEFF0020214908600720DD
:1039A00020490860002010BD10B504002000FFF77A
:1039B00089FF10BDF8B504000D0016000027FFF7C1
:1039C00090FF0700320029003800FFF7B6FF010022
:1039D000200040B2FFF79EFFF1BD10B504002000AB
:1039E00040B2FFF783FF10BD10B50400200040B2C5
:1039F000FFF786FF10BD10B504002000FFF7BCFFE5
:103A000010BD00000CED00E00000FA0500E100E050
:103A100080E100E018ED00E000E400E014E000E0E8
:103A200018E000E010E000E010B504000122DFF82B
:103A30001800E4B230F81410DFF81000E4B250F8C7
:103A40002400FFF71DFF10BD5E0F000800000020DE
:103A500010B504002068006980071AD52068C06886
:103A6000800716D57FF002002168086101202076CA
:103A70002068806910F0030F03D0200000F0E0FB05
:103A800005E0200000F0DDFB200000F0DBFB002063
:103A900020762068006940071AD52068C068400772
:103AA00016D57FF004002168086102202076206886
:103AB000806910F4407F03D0200000F0C1FB05E0D6
:103AC000200000F0BEFB200000F0BCFB00202076B0
:103AD0002068006900071AD52068C068000716D55D
:103AE0007FF0080021680861042020762068C06902
:103AF00010F0030F03D0200000F0A2FB05E020002F
:103B000000F09FFB200000F09DFB00202076206845
:103B10000069C0061AD52068C068C00616D57FF0B7
:103B2000100021680861082020762068C06910F420
:103B3000407F03D0200000F083FB05E0200000F070
:103B400080FB200000F07EFB0020207620680069CA
:103B5000C0070AD52068C068C00706D57FF00100FD
:103B6000216808612000FEF75FFF206800690006F9
:103B70000AD52068C068000606D57FF0800021685D
:103B80000861200000F05FFB2068006940060AD54C
:103B90002068C068400606D57FF0400021680861B3
:103BA000200000F051FB2068006980060AD52068DB
:103BB000C068800606D57FF02000216808612000DB
:103BC00000F043FB10BD000002480068401C0149A2
:103BD00008607047A8130020DFF890230A4412F809
:103BE000012C50FA82F2126852F00102DFF87C33A5
:103BF0000B4413F8013C50FA83F31A60704710B479
:103C0000DFF868330B4413F8013C50FA83F3DFF814
:103C10005C430C4414F8014C50FA84F46468240C9E
:103C2000240414435C6010BC704730B4029C102C18
:103C300020D1DFF838530D4415F8015C50FA85F5B2
:103C4000ED68DFF828530D4415F8015C50FA85F54E
:103C5000EA60DFF818530D4415F8015C50FA85F559
:103C6000AD68DFF808530D4415F8015C50FA85F58E
:103C7000AB601FE0DFF8F4520D4415F8015C50FA18
:103C800085F5AD68DFF8E4520D4415F8015C50FA93
:103C900085F5AA60DFF8D4520D4415F8015C50FA9E
:103CA00085F5ED68DFF8C4520D4415F8015C50FA53
:103CB00085F5EB6030BC7047DFF8B0220A4412F89B
:103CC000012C50FA82F2126852F00202DFF89C32A4
:103CD0000B4413F8013C50FA83F31A60704738B56F
:103CE000DFF88C02006850F00100DFF884120860F1
:103CF000DFF87C02006810F00100009000980220BC
:103D0000DFF8701248600020DFF868128860002039
:103D1000DFF86012C8600020DFF858120861002048
:103D2000DFF8501248610020DFF848128861202037
:103D3000DFF84012C8614FF48050DFF83812086293
:103D4000DFF83402DFF82C120860DFF82802FEF7F3
:103D500073FD002801D000F036F900220021102068
:103D6000FFF728FE1020FFF738FEDFF81042DFF8DB
:103D70001052002000902B0022000621DFF80402E0
:103D8000FFF753FF01220621DFF8F801FFF737FFA5
:103D90000621DFF8F001FFF78FFF0621DFF8E401CD
:103DA000FFF71AFFDFF8C801006850F00100DFF8E4
:103DB000C0110860DFF8B801006810F00100009041
:103DC00000980220DFF8C01148600020DFF8B81129
:103DD00088600020DFF8B011C8600020DFF8A8116B
:103DE00008610020DFF8A01148610020DFF8981179
:103DF00088612020DFF89011C8614FF48050DFF80F
:103E000088110862DFF88401DFF87C110860DFF8B0
:103E10007801FEF711FD002801D000F0D4F800224F
:103E200000210F20FFF7C6FD0F20FFF7D6FDDFF8BA
:103E300060010400DFF85C010500002000902B0009
:103E400022000521DFF83C01FFF7EFFE01220521EA
:103E5000DFF83001FFF7D3FE0521DFF82801FFF777
:103E60002BFF0521DFF81C01FFF7B6FE31BD012055
:103E7000DFF8241181F868000020DFF81C11C86603
:103E80002120DFF8141181F86900DFF8F400DFF871
:103E90000811C8640120DFF80011A1F850000120CA
:103EA000DFF8F410A1F852000020DFF8EC1081F8E0
:103EB0006800DFF8E4000068006850F08000DFF878
:103EC000D810096808600020DFF8CC1081F868007D
:103ED00070470120DFF8C410096881F868000020ED
:103EE000DFF8B8100968C8662120DFF8B01009684B
:103EF00081F86900DFF89C00DFF8A0100968C86449
:103F00000120DFF898100968A1F850000120DFF8BF
:103F10008C100968A1F852000020DFF880100968B1
:103F200081F86800DFF8740000680068006850F0ED
:103F30008000DFF86810096809680860704780B57C
:103F400000224FF480515FF09040FFF799FC01226E
:103F500010491148FDF7E6FE002805D11049086810
:103F60000F4950F48050086001BD00000C53000858
:103F700048100240741200206C00024024440040AB
:103F8000B413002000000240BC1200205800024080
:103F900024380140C60F002064110020AC1300201B
:103FA0009413002010B5040000F012F810BD70B595
:103FB0004FF400640025DFF830622A002100300051
:103FC00000F044F970BD80B50020FFF72DFD01BD64
:103FD00080B50020FFF728FD01BD10B50400DFF813
:103FE00014020078C0F30010C0B2002809D1DFF835
:103FF00004020078C0F38010C0B2002801D105206F
:1040000042E0DFF8F4110868C0F30020002806D170
:10401000DFF8E4110868C0F3C010002801D01020B8
:1040200032E0DFF8D4110868DFF8CC1150F40060FA
:104030000860A4B2002C05D1DFF8C00100F03AF905
:104040001F2021E04FF47A73220092B2DFF898111A
:10405000DFF8AC01FDF771FD002803D0FFF7B8FFD2
:104060000F2011E0DFF890110868DFF88C1130F4B0
:1040700000600860DFF880110868C0F30030002895
:1040800001D1FFF75CFF002010BD70B504000D00EA
:104090000026FFF78CFF2B0022005A49524800F0FF
:1040A0001BF95148FCF75CFF4FF47A73020092B29F
:1040B0004D495348FDF741FD002803D0FFF788FF25
:1040C0000F2005E0062000F066F806003000C0B2C0
:1040D00070BD00002DE9F04192B000240225402679
:1040E00000270DF108083A003100404600F0AEF814
:1040F0005FF00008FFF75BFF3CA1684600F006F99F
:104100003AA1684600F024F96946374800F0E4F81F
:104110003548FCF725FF80B2FFF75FFF0400E4B2EB
:10412000002C33D1364890F86A0020280AD01FFAB4
:1041300088F8B8F57A7F05DA18F101080A2000F04E
:1041400015F9EFE71FFA88F8B8F57A7F1CDA4FF413
:104150009673142202A92A48FDF756FD0500EDB218
:10416000002D06D0EDB2032D03D0FFF731FF0F2055
:104170000EE01FA102A800F005F9002801D10D20D2
:1041800006E00020040001E00F2001E02000C0B2A2
:1041900012B0BDE8F081F0B591B0040040250026D2
:1041A0006F4632002900380000F050F80027A4B212
:1041B000412C15DA4FF47A73220092B26946104806
:1041C000FDF722FD002803D0FFF702FF0F2009E0D2
:1041D00007A1684600F0D6F8002801D10D2001E0C3
:1041E0003800C0B211B0F0BD7807002041540D0076
:1041F0004F4B00007C13002094130020D451000882
:1042000064110020A052000810B50400074800689F
:104210004FF47A71B0FBF1F0FFF7EDFB00222100C3
:104220005FF0FF30FFF7C6FB002010BD0400002048
:10423000DFF80800006810F4C060704700700040AC
:1042400070477047704770477047704762F30F229E
:1042500062F31F42401810F0030308D0C91A1FD39D
:10426000DB0748BF00F8012D28BF20F8022D1300FE
:1042700030B414461546103928BF20E93C00FAD85E
:10428000490728BF20E90C0048BF40F8042D8900E9
:1042900028BF20F8022D48BF00F8012D30BC704720
:1042A000C91818BF00F8012DCB0728BF00F8012D51
:1042B000704700000EB400B582B003A90091024619
:1042C0006B460121034878440A30FBF75DFF06BCCA
:1042D0005DF810FB810F00000CB41CB5044604A867
:1042E00001900A46009401AB6946074878441830AB
:1042F000FBF74AFF009A0021117000285CBF00986C
:10430000001B16BC5DF80CFB37CCFFFF5FEA000C0E
:10431000830706D011F8013B00F8013BB3B18307D6
:10432000F8D10A68B2F1013323EA020313F0803FA7
:1043300002BF40F8042B51F8042FF3E711F8013BBA
:1043400000F8013B13B111F8013BF9E760467047F3
:10435000024600E0521C1378002BFBD111F8013B00
:10436000137012F8013B002BF8D1704738B50400E8
:104370000025FEF759FA0500FEF756FA401BA04249
:10438000FAD331BD38B504000D002900200000F03B
:1043900001F832BD70B50C462578290006D170BDF4
:1043A00011F8013F1678B34206D0401C2946FCF7AD
:1043B000CBFD28B10146224612F8013F002BEFD178
:1043C00070BD000010B582B000247C48006850F039
:1043D00001007A4908607948006810F001000090F7
:1043E000009800F007F900F039F800F08FF85FF45A
:1043F0006121734800F065F8714800F007F97148D1
:10440000FFF758FF7048FFF755FF7048FFF752FF5E
:104410006F48FFF74FFF6F48FFF74CFF6A48FFF701
:1044200049FF6D48FFF746FF6C48FFF743FF5FF415
:10443000612000F052F90400E4B2002C02D1FFF731
:104440004EFC02E06648FFF735FF4FF4FA60FFF7D5
:104450008DFF6448FFF72EFF00BFFDE700B597B062
:104460006846142100F082F905A8442100F07EF985
:104470001020059001200B9060200D9000200C90E2
:1044800002200F90012010900120119028201290FE
:1044900002201590072013900420149005A8FEF721
:1044A000FDFA0F20009003200190002002900020D0
:1044B00003900020049004216846FEF713FE17B015
:1044C00000BD38B504000D0047482060656000203D
:1044D000A0600020E060002020610020A0610C208E
:1044E00060612000FDF701FB002801D0FFF76BFDA4
:1044F0002000FDF7BBFA002801D0FFF764FD20681B
:10450000806850F040002168886031BD00B587B0F8
:104510002A48006850F001002849086027480068D0
:1045200010F00100009000982448006850F001004D
:10453000224908602148006810F0010000900098AE
:104540002A48006850F4003028490860274800686D
:1045500010F40030009000982548006850F00100E9
:10456000234908602248006810F00100009000987C
:104570000420019002200290012003900320049067
:104580000720059001A95FF09040FEF7DDFF0820AD
:10459000019000200290022002900720059001A9BE
:1045A0005FF09040FEF7D0FF012200212620FFF7A8
:1045B00001FA2620FFF711FA07B000BD4C100240A7
:1045C000F4100020284F0008E84F0008245000088D
:1045D000605000089C500008684F0008785200089E
:1045E000405100088C52000800440040581002401E
:1045F0006010024080B50320FFF7D6F90F20FFF7C7
:1046000003FE00F002F8002002BD70470149086077
:10461000704700BFAC13002010B50400DFF82C0178
:10462000DFF82C110860DFF8280144600020DFF873
:10463000201188600020DFF81811C8600020DFF822
:10464000101108614FF48070DFF8041188610C20AC
:10465000DFF8FC1048610020DFF8F410C861DFF8D3
:10466000F000FDF742FA002801D0FFF7ACFCDFF8BC
:10467000E000FDF7FBF9002801D0FFF7A4FCDFF80C
:10468000D0000068806850F04000DFF8C41009686E
:10469000886010BD10B586B0002468462E491822E7
:1046A000FCF72EFD6846E4B250F8240000280ED036
:1046B0006846E4B250F82400FFF7AEFF0A20FFF787
:1046C00055FEFFF707FD002801D0641CEAE76846A5
:1046D000E4B250F8240006B010BD70B504001F48C5
:1046E000007850F010001D490870FFF7D3FF060056
:1046F000002E26D021001A48FFF7C7FC0500FFF75F
:1047000056FC18491348FFF7E7FD1248FCF728FC50
:1047100080B2FFF762FC0500FFF749FC12490D4823
:10472000FFF7DAFD0B48FCF71BFC80B2FFF755FCE6
:104730000500EDB2002D02D12000FFF76DFF002033
:1047400002E0FFF740FC012070BD0000003801408E
:1047500064110020780700203C5200087C130020E0
:10476000B4520008FC520008E4520008002200F095
:1047700001B8000000B500BF1300964694461039FA
:1047800028BFA0E80C50FAD85FEA417C28BF0CC0D3
:1047900048BF40F8042BC90728BF20F8022B48BFA8
:1047A00000F8012B00BD2DE9F04104460D462078AC
:1047B0000321084216461F4632D0204600F099F8E1
:1047C00070BB15B1D5E900018619012F30D12088C1
:1047D000C00416D5A16904F13D02204600F0A6F8F8
:1047E000626A804602B92269E168204600F09EF8BC
:1047F000A6EB08010E1AA26AE168204600F096F8BE
:10480000361A1EB94FB916F1010F09D094F90300F9
:104810003A46314600F08FF8064616F1010F0AD1EC
:1048200000F0B0F8232101604FF0FF30BDE8F081C7
:10483000022FE7D1EAE720884FF4405108420ED01A
:104840006068E0602061A06260616068E06204F11D
:104850003D00A06104F12400E061002060622DB100
:10486000D5E9020104F13002C2E9000120884CF6CA
:10487000FF61084020800020BDE8F08138B500F0DD
:1048800087F80446208880042ED5656809E04A1B15
:10489000294600F08DF810F1010F18BF00280CD048
:1048A0000544E16894F903008D42F0D30022002111
:1048B00000F07EF810F1010F0DD16068E0606061DA
:1048C000E062208840F400702080204600F061F80B
:1048D0004FF0FF3032BD6568E5606561E5624DF619
:1048E000FF71208808402080204600F052F8002008
:1048F00032BDF8B5A0B9C046C04600240A4D08260E
:104900004FF0FF37286820B1FFF7B8FF002848BFF5
:104910003C462D1D761EF5D1C046C0462046F2BD50
:10492000BDE8F240AAE70000C8000020914234BF71
:10493000501A0020704730B583B004000D00012AE2
:1049400002D100F090F807E0022A07D1009400207D
:10495000019069460C20ABBE2D1801E0002A0CD155
:104960000094019569460A20ABBE002805D10022BB
:104970002100280000F054F801E00020C04303B0FB
:1049800030BD00000148FDF76FB80000E8000020CE
:104990007047704701B55FF0FF3301226946034855
:1049A0000068FDF7CAF8009802BD0000AC130020B3
:1049B000F8B504000D001600012C04D0022C02D022
:1049C0005FF0FF3009E000200700B74204D2E85D45
:1049D000FFF7E0FF7F1CF8E73000F2BD10B4314A6A
:1049E000002113461C68844205D1002342F831306F
:1049F00002EBC10111E09C68491C84421EBF491CA6
:104A00001C6984421EBF491C9C698442EDD0491C2C
:104A100020331029E6D310BC70474B6010BC7047A0
:104A200070B4204C002325462E688E4209D10146E1
:104A300004EBC303012A04BF5A685118596070BCC3
:104A40007047AE685B1C8E421EBF5B1C2E698E4297
:104A50001EBF5B1CAE698E42E9D05B1C2035102B5B
:104A6000E2D370BC704710B40E4A002113461C6894
:104A7000844204D102EBC100406810BC70479C68BE
:104A8000491C84421EBF491C1C6984421EBF491C2C
:104A90009C698442EED0491C20331029E7D310BC16
:104AA000002070477410002010B50446E06861696A
:104AB000884253D3218849F202020A40022A08D0D0
:104AC00008044CBF4FF400704FF48440084320802A
:104AD0003DE001F4C041B1F5C04F06D1A168884264
:104AE00003D32046FFF705FF88BB20884FF44061C1
:104AF000084202BF606804F13D01884218D14FF4BA
:104B0000007000F02DF8606030B904F13D00606085
:104B1000E060401CA0600BE0218841F04001218052
:104B2000E060A0624FF4007101446068A160E0623F
:104B300060682061A0686061207840070AD5022281
:104B40000021204600F064F810F1010F02D14FF06F
:104B5000FF3010BD208840F4C0402080002010BDF0
:104B600070B5054605F10F00C408C046C046E40014
:104B7000A54232D2082C04D2082402E0083000F00A
:104B800059F82248026811000CD1011D0A6802B3CD
:104B90001368A34238BF111DF8D310E01D68A54269
:104BA0000DD2191D0B68002BF8D11268011D00E011
:104BB000191D0B6893420CD01D68A542F8D361B152
:104BC0000D682A68A2F10803A3420AD26A680A6043
:104BD0000FE000F06FF80028D0D1C046C04600209A
:104BE00070BD2B190B60121B6E685E600B681A603B
:104BF0002C60096800291DBF4A68002A091D002190
:104C00000160C046C04605F1080070BDA013002039
:104C100070B50C461546FFF7BBFE06462B462246EE
:104C20000021FFF7C0FD04463046FFF7B2FE2046E4
:104C300070BD000000B9704738B5A0F108042068C5
:104C4000082833D310F0070F30D1C046C0461848AB
:104C5000416809B18C4203D26160446017E0194693
:104C60004B680BB1A342FAD30B68CD18AC421BD3EF
:104C7000A54204D12268D2180A600C4607E04A68AF
:104C80001AB1236823449A420ED362604C60616873
:104C900051B12268A3188B4206D100230360086833
:104CA0008018206048686060C046C04631BD000082
:104CB000A01300200749086808B100207047064883
:104CC000C008C00008600549C908C900091A016088
:104CD000704700BFB01300207F0500207807002038
:104CE0000178090626D51D4A13680021834203D1A5
:104CF000002342F821301BE05368012183421EBF8C
:104D0000022193688342F3D0D368032183421EBFFC
:104D1000042113698342EBD05369052183421EBFEE
:104D20000621936983421EBF0721D3698342DFD0E6
:104D3000FFF780BF002101804FF0FF31C17000F10B
:104D40003D014160C160016181624161C162816177
:104D500000F12401C161704700000000C80000207C
:104D600038B5044603212078084202D06056002856
:104D700009D5C046C0462046FFF7B2FFC046C04630
:104D80004FF0FF3527E02046FFF7B3FD0546C0464C
:104D9000C0462078400644BF6068FFF74BFF002004
:104DA000606094F90300022804D900F016F808B1F5
:104DB0004FF0FF35A06B48B100F01CF808B14FF080
:104DC000FF35A06BFFF736FF0020A0632046FFF7FA
:104DD00087FFC046C046284632BD10B582B00200EB
:104DE000009269460220ABBE04001000FFF7F6FDFA
:104DF000200016BD00B583B00090FCF7B1F801901B
:104E000069460E20ABBE03B000BD00001348006829
:104E100050F47000114908601148006850F001001A
:104E20000F49086000200F4908600D4800680E49CE
:104E300008400B4908604FF480500C49086008484E
:104E4000006830F4802006490860002008490860A6
:104E50005FF00060074908607047000088ED00E0DF
:104E60000010024008100240FFFFF6EA0C1002405A
:104E70001810024008ED00E010B5144C206808B18D
:104E8000FFF76EFF606808B1FFF76AFFA06808B11E
:104E9000FFF766FFE06808B1FFF762FF206908B11D
:104EA000FFF75EFF606908B1FFF75AFFA06908B11C
:104EB000FFF756FFE06908B1FFF752FFBDE8104069
:104EC000002200214FF0FF30FFF772BDC800002024
:104ED00038B505460846FFF75BFD0446E0686169A2
:104EE000884204D32046FFF7DFFD002810D4E06895
:104EF000401CE06000F8015D2088010504D44005F5
:104F00000CD5EDB20A2D09D12046FFF7F2FC28B1ED
:104F10002046FFF73EFD4FF0FF3032BD2046FFF741
:104F200038FDE8B232BD00000D0A0A2F2A2A2A2ACB
:104F30002A2A2A2A2A2A2A2A2A2A2A2A2A2A2A2AD1
:104F40002A2A2A2A2A2A2A2A2A2A2A2A2A2A2A2AC1
:104F50002A2A2A2A2A2A2A2A2A2A2A2A2A2A2A2AB1
:104F60002A2A2A2A0A0000000D202A2A2A2A2A2A66
:104F70002A2A2A2A2A2A2A2A2A2A2A2A2A2A2A2A91
:104F80002A2A2A2A2A2A2A2A2A2A2A2A2A2A2A2A81
:104F90002A2A2A2A2A2A2A2A2A2A2A2A2A2A2A2A71
:104FA0002A2F0A0D0A00000019E050F8041BCB0755
:104FB00044BFA9F101035918121F0023042A41F824
:104FC000043BF9D25FEA827C0B4604D54FF0000C1B
:104FD000A1F800C09B1CD10744BF0021197050F8F4
:104FE000042B002AE1D170470D202A202020202008
:104FF00020202020202020202020202020202020B1
:1050000020202020202020202020202020202020A0
:105010002020202020202020202020202020202090
:10502000202A0A000D202A20582D435542452D578D
:105030004946493120457870616E73696F6E20531F
:105040006F6674776172652076332E312E312020A1
:10505000202020202020202020202020202A0A007C
:105060000D202A20436F6E736F6C65204170706C49
:1050700069636174696F6E20202020202020202029
:105080002020202020202020202020202020202020
:105090002020202020202020202A0A000D202A2045
:1050A00053656E6420415420636F6D6D616E64734F
:1050B00020746F2053505746206D6F64756C6520C7
:1050C0006469726563746C79202020202020202080
:1050D00020202020202A0A0030B501684268846818
:1050E000014401EB5203D20748BF4C44994201D11D
:1050F0000C3030BD11F9012B11F8015B002A04F8C6
:10510000015B02D5521CF9D1F0E7521EF4D5EDE750
:10511000A0860100400D0300801A060000350C0037
:1051200040420F0080841E0000093D0000127A00FA
:105130000024F40000366E010048E801006CDC0237
:105140000D4572726F7220696E20626175642D72F6
:10515000617465206175746F2D646574656374692D
:105160006F6E2E2E2E0D0A0010B5074979441831A6
:10517000064C7C44163404E00A68081D1144884734
:105180000146A142F8D110BD2C00000048000000EB
:105190004EF68851CEF20001086840F470000860B5
:1051A000BFF34F8FBFF36F8F4FF00070E1EE100A27
:1051B00070470000F5FDFFFF400C0000780700205D
:1051C0000000000015FFFFFF780200000E01000044
:1051D000000000204552524F5220696E2055534125
:1051E00052545F5472616E736D69745F41545F43D2
:1051F0006D64210000F00BF8002801D0FFF7B4FF28
:105200000020C046C046FFF7DDF800F002F801209C
:10521000704700F001B800000746FFF72DFE384642
:1052200000F002F8FBE7000080B5C046C046024A25
:1052300011001820ABBEFBE726000200C0120000E0
:105240008025000000C201000008070000100E00C9
:105250000000000038B504460D46284600F006F868
:10526000A84218BF0024204632BD00000149FFF7C4
:105270002FBE00BF480000200D506C656173652093
:10528000776169742E2E2E0D0A0000000D436F6E9B
:10529000736F6C652052656164792E2E2E0D0A00A5
:1052A00041542B532E534346473D25732C25640D03
:1052B00000000000636F6E736F6C65315F73706523
:1052C000656400000000000000000000010203040B
:1052D0000607080901488047014800470D4E0008AD
:1052E000F152000841542B4346554E3D300D00000D
:1052F000C046C046FFF74CFFFFF77CFF41542657DE
:105300000D0000000000000001020304081C3044EE
:10531000586C8000FFF7FEBFFFF7FEBFFFF7FEBF30
:10532000FFF7FEBFFFF7FEBFFFF7FEBFFFF7FEBFB1
:10533000FFF7FEBFFFF7FEBFFFF7FEBFFFF7FEBFA1
:10534000FFF7FEBFFFF7FEBFFFF7FEBFFFF7FEBF91
:10535000FFF7FEBFFFF7FEBFFFF7FEBFFFF7FEBF81
:10536000FFF7FEBFFFF7FEBFFFF7FEBFFFF7FEBF71
:10537000FFF7FEBFFFF7FEBFFFF7FEBFFFF7FEBF61
:10538000FFF7FEBFFFF7FEBFFFF7FEBFFFF7FEBF51
:10539000FFF7FEBFFFF7FEBFFFF7FEBFFFF7FEBF41
:1053A000FFF7FEBFFFF7FEBFFFF7FEBFFFF7FEBF31
:1053B000FFF7FEBFFFF7FEBFFFF7FEBFFFF7FEBF21
:1053C000FFF7FEBFFFF7FEBFFFF7FEBFFFF7FEBF11
:1053D000FFF7FEBFFFF7FEBFFFF7FEBFFFF7FEBF01
:1053E000FFF7FEBFFFF7FEBFFFF7FEBFFFF7FEBFF1
:1053F000FFF7FEBFFFF7FEBFFFF7FEBFFFF7FEBFE1
:10540000FFF7FEBFFFF7FEBFFFF7FEBFFFF7FEBFD0
:10541000FFF7FEBFFFF7FEBFFFF7FEBFFFF7FEBFC0
:10542000FFF7FEBFFFF7FEBFFFF7FEBFFFF7FEBFB0
:10543000FFF7FEBFFFF7FEBFFFF7FEBFFFF7FEBFA0
:10544000FD00244800093D00010400004500002043
:1054500046000020450000204500002045000020B7
:10546000450000202C000020E0001F020401012460
:105470001200207412002024120020241200202484
:10548000120020850000206C000020E0001F0208B0
:105490000202D411002024120020D4110020D411C3
:1054A0000020D4110020C5000020AC000020E00046
:1054B0000B080000204800002088000020CC00F8E5
:0754C000FFDC00FAFFC6004B
:04000005080052F1AC
:00000001FF
