:020000040800F2
:1000000060050020653E00088D1800088F18000864
:1000100099180008A3180008AD1800080000000097
:10002000000000000000000000000000B7180008F9
:10003000C118000800000000CB180008E1180008F3
:10004000953E0008993E00089D3E0008A13E00082C
:10005000A53E0008A93E0008AD3E0008B13E0008DC
:10006000B53E0008B93E0008BD3E0008C13E00088C
:10007000C53E0008C93E0008CD3E000851190008E1
:1000800039190008D13E0008D53E0008D93E0008C5
:10009000DD3E0008E13E0008E53E0008E93E0008BC
:1000A000ED3E0008F13E0008F53E0008F93E00086C
:1000B000D7180008CD180008FD3E0008013F0008D1
:1000C000053F0008093F00080D3F0008113F0008E8
:1000D000153F0008FB18000805190008193F000823
:1000E0001D3F0008213F0008253F000838B50400E7
:1000F00000252078C00740F10D81DFF8140C00685E
:1001000010F00C0004280BD0DFF8040C006810F08D
:100110000C0008282AD1DFF8F80B0068C00325D5A9
:100120004FF48040B0FA80F050F02000C0B2400997
:10013000C0B2012803D1DFF8DC0B006806E04FF401
:100140008040B0FA80F0DFF8F00B00684FF4804197
:10015000B1FA81F111F01F01C840C00740F1DA8007
:100160006068002840F0D6800120ADE3DFF8A40BE2
:10017000006830F48030DFF89C1B0860DFF8940BD7
:10018000006830F48020DFF88C1B086000F0F0FD80
:1001900005004FF48040B0FA80F050F02000C0B26B
:1001A0004009C0B2012803D1DFF8680B006806E0FF
:1001B0004FF48040B0FA80F0DFF87C0B00684FF419
:1001C0008041B1FA81F111F01F01C840C00706D586
:1001D00000F0CEFD401B6528DBD3032074E360688C
:1001E000B0F5803F08D1DFF82C0B006850F4803068
:1001F000DFF8201B086038E06068002810D1DFF8C5
:10020000140B006830F48030DFF8081B0860DFF85A
:10021000040B006830F48020DFF8F81A086024E04E
:100220006068B0F5A02F10D1DFF8E80A006850F43C
:100230008020DFF8E01A0860DFF8D80A006850F480
:100240008030DFF8D01A08600FE0DFF8C80A0068D5
:1002500030F48030DFF8BC1A0860DFF8B80A0068B4
:1002600030F48020DFF8AC1A08606068002828D0DD
:1002700000F07EFD05004FF48040B0FA80F050F0B1
:100280002000C0B24009C0B2012803D1DFF8840ABF
:10029000006806E04FF48040B0FA80F0DFF8980A7A
:1002A00000684FF48041B1FA81F111F01F01C8409C
:1002B000C0072FD400F05CFD401B6528DBD3032072
:1002C00002E300F055FD05004FF48040B0FA80F0E5
:1002D00050F02000C0B24009C0B2012803D1DFF8BD
:1002E000340A006806E04FF48040B0FA80F0DFF88E
:1002F000480A00684FF48041B1FA81F111F01F0102
:10030000C840C00706D500F033FD401B6528DBD38D
:100310000320D9E22078800740F1C180DFF8F0099E
:10032000006810F00C0F0BD0DFF8E409006810F043
:100330000C00082839D1DFF8D8090068C00334D48C
:100340005FF08040B0FA80F050F02000C0B2400969
:10035000C0B2012803D1DFF8BC09006806E05FF0F5
:100360008040B0FA80F0DFF8D00900685FF080418B
:10037000B1FA81F111F01F01C840C00704D520690E
:10038000012801D001209FE2DFF8880900685FF0B2
:10039000F851B1FA81F130F0F800626912FA01F116
:1003A0000843DFF87019086079E02069002843D01D
:1003B00001205FF00041B1FA81F1DFF8802912EBF2
:1003C0008101086000F0D4FC05005FF08040B0FAC5
:1003D00080F050F02000C0B24009C0B2012803D123
:1003E000DFF83009006806E05FF08040B0FA80F086
:1003F000DFF8440900685FF08041B1FA81F111F043
:100400001F01C840C00706D400F0B2FC401B0328FF
:10041000DBD3032058E2DFF8FC0800685FF0F851F6
:10042000B1FA81F130F0F800626912FA01F1084383
:10043000DFF8E018086032E000205FF00041B1FA18
:1004400081F1DFF8F82812EB8101086000F090FCE0
:1004500005005FF08040B0FA80F050F02000C0B29C
:100460004009C0B2012803D1DFF8A808006806E0FF
:100470005FF08040B0FA80F0DFF8BC0800685FF001
:100480008041B1FA81F111F01F01C840C00706D5C3
:1004900000F06EFC401B0328DBD3032014E220781D
:1004A000000756D5A06900282BD001205FF000413D
:1004B000B1FA81F1DFF8882812EB8101086000F0C1
:1004C00057FC05005FF08040B0FA80F05FF080409C
:1004D000B0FA80F0DFF8600800685FF08041B1FAA0
:1004E00081F111F01F01C840C00706D400F040FCA4
:1004F000401B0328E6D30320E6E1012000F03EFC88
:1005000027E000205FF00041B1FA81F1DFF83028E8
:1005100012EB8101086000F02BFC05005FF08040C9
:10052000B0FA80F05FF08040B0FA80F0DFF80808A1
:1005300000685FF08041B1FA81F111F01F01C840FD
:10054000C00706D500F014FC401B0328E6D30320A7
:10055000BAE12078400740F1FE80DFF8E807006844
:1005600050F08050DFF8DC170860DFF8D80700682B
:1005700010F0805000900098DFF8CC07006850F42D
:100580008070DFF8C417086000F0F2FB0500DFF8A8
:10059000B8070068C00506D400F0EAFB401B6528D8
:1005A000F5D3032090E1DFF8A4070068400840007D
:1005B000DFF898170860DFF89407006830F004004F
:1005C000DFF88817086000F0D3FB05005FF080407B
:1005D000B0FA80F05FF08040B0FA80F050F0400058
:1005E000C0B24009C0B2022803D1DFF8600700683A
:1005F00002E0DFF8440700685FF08041B1FA81F162
:1006000011F01F01C840C00708D500F0B1FB401B26
:1006100041F289318842D9D3032055E1E0680128AD
:1006200008D1DFF82807006850F00100DFF81C1738
:10063000086037E0E068002810D1DFF81007006894
:1006400040084000DFF804170860DFF80007006882
:1006500030F00400DFF8F416086023E0E0680528B5
:1006600010D1DFF8E806006850F00400DFF8DC166F
:100670000860DFF8D806006850F00100DFF8CC16FB
:1006800008600FE0DFF8C406006840084000DFF8AB
:10069000BC160860DFF8B406006830F00400DFF82C
:1006A000AC160860E06800282AD000F061FB050065
:1006B0005FF08040B0FA80F05FF08040B0FA80F0E8
:1006C00050F04000C0B24009C0B2022803D1DFF8A8
:1006D0007C06006802E0DFF8600600685FF0804199
:1006E000B1FA81F111F01F01C840C00733D400F006
:1006F0003FFB401B41F289318842D9D30320E3E01C
:1007000000F036FB05005FF08040B0FA80F05FF04B
:100710008040B0FA80F050F04000C0B24009C0B252
:10072000022803D1DFF82406006802E0DFF808069B
:1007300000685FF08041B1FA81F111F01F01C840FB
:10074000C00708D500F014FB401B41F289318842F4
:10075000D9D30320B8E0E069002800F0B480DFF8C6
:10076000B005006810F00C00082800F0AA80E069CD
:10077000022877D100208021B1FA81F1DFF8BC2571
:1007800012EB8101086000F0F3FA05004020B0FA96
:1007900080F050F02000C0B24009C0B2012803D15F
:1007A000DFF87005006805E04020B0FA80F0DFF85F
:1007B000880500684021B1FA81F111F01F01C8409D
:1007C000C00706D500F0D4FA401B0328DED303206F
:1007D0007AE0206AB0F5803F09D1DFF8340500687F
:1007E00030F40030A1680843DFF824150860DFF812
:1007F0002005006830F47410216A0843616A0843D8
:10080000DFF80C15086001208021B1FA81F1DFF8D2
:100810002C2512EB8101086000F0AAFA05004020A7
:10082000B0FA80F050F02000C0B24009C0B20128F8
:1008300003D1DFF8E004006805E04020B0FA80F062
:10084000DFF8F40400684021B1FA81F111F01F01D2
:10085000C840C00737D400F08BFA401B0328DED312
:10086000032031E000208021B1FA81F1DFF8CC24AF
:1008700012EB8101086000F07BFA05004020B0FA1D
:1008800080F050F02000C0B24009C0B2012803D16E
:10089000DFF88004006805E04020B0FA80F0DFF85F
:1008A000980400684021B1FA81F111F01F01C8409D
:1008B000C00708D500F05CFA401B0328DED30320F4
:1008C00002E0012000E0002032BD70B504000D0000
:1008D0000026DFF87C04006810F00700A84280F0D2
:1008E000CE80DFF86C040068C008C0002843DFF841
:1008F00060140860DFF85804006810F00700A84290
:1009000001D0012099E12078800709D5DFF844045F
:10091000006830F0F000A1680843DFF83814086080
:100920002078C00740F16E816068012820D14FF423
:100930008040B0FA80F050F02000C0B24009C0B250
:10094000012803D1DFF8CC03006806E04FF48040B3
:10095000B0FA80F0DFF8E00300684FF48041B1FAAC
:1009600081F111F01F01C840C00743D4012064E1A8
:10097000606802281DD14020B0FA80F050F02000BD
:10098000C0B24009C0B2012803D1DFF88803006873
:1009900005E04020B0FA80F0DFF89C0300684021B9
:1009A000B1FA81F111F01F01C840C00722D4012023
:1009B00043E15FF08040B0FA80F050F02000C0B218
:1009C0004009C0B2012803D1DFF84803006806E0FF
:1009D0005FF08040B0FA80F0DFF85C0300685FF001
:1009E0008041B1FA81F111F01F01C840C00701D464
:1009F000012022E1DFF85C03006880088000616864
:100A00000843DFF85013086000F0B2F90600606890
:100A1000012810D1DFF83C03006810F00C00042816
:100A200000F0F08000F0A4F9801B41F28931884287
:100A3000F0D3032001E16068022810D1DFF814032D
:100A4000006810F00C00082800F0DC8000F090F93D
:100A5000801B41F289318842F0D30320EDE0DFF8BA
:100A6000F402006810F00C0F00F0CC8000F080F968
:100A7000801B41F289318842F1D30320DDE02078E8
:100A8000800709D5DFF8CC02006830F0F000A168DB
:100A90000843DFF8C01208602078C00740F1A38047
:100AA000606801281FD14FF48040B0FA80F050F008
:100AB0002000C0B24009C0B2012802D195480068A8
:100AC00006E04FF48040B0FA80F0DFF86C02006876
:100AD0004FF48041B1FA81F111F01F01C840C00705
:100AE00041D40120A9E0606802281CD14020B0FA5E
:100AF00080F050F02000C0B24009C0B2012802D1FD
:100B00008448006805E04020B0FA80F0DFF8280251
:100B100000684021B1FA81F111F01F01C840C007FF
:100B200021D4012089E05FF08040B0FA80F050F0DD
:100B30002000C0B24009C0B2012802D17548006847
:100B400006E05FF08040B0FA80F0DFF8EC0100686A
:100B50005FF08041B1FA81F111F01F01C840C00778
:100B600001D4012069E0DFF8EC0100688008800012
:100B700061680843DFF8DC11086000F0F9F806004E
:100B8000606801280FD1DFF8CC01006810F00C007C
:100B9000042828D000F0ECF8801B41F2893188420B
:100BA000F1D3032049E0606802280ED1694800684B
:100BB00010F00C00082816D000F0DAF8801B41F283
:100BC00089318842F2D3032037E06248006810F090
:100BD0000C0F08D000F0CCF8801B41F2893188421C
:100BE000F3D3032029E05A480068C008C000284316
:100BF000574908605648006810F00700A84201D025
:100C000001201AE02078400707D55248006830F4E8
:100C1000E060E16808434F4908602078000708D584
:100C20004C48006830F46050216950EAC1004949DD
:100C300008600F2000F0AFF8002070BDF0B585B05F
:100C400001A84549102200F0CDF844480088ADF8CD
:100C50000000002100220023002400202C4D2D68DC
:100C6000290011F00C05042D02D0082D03D026E038
:100C70003B4D280025E001AD11F470164FF470577C
:100C8000B7FA87F7FE40AD5D2C00CD0311D5204D9E
:100C90002D686E4615F400354FF48047B7FA87F794
:100CA000FD40755D2A002E4DB5FBF2F565432B0026
:100CB00003E02C4D05FB04F52B00180001E0284D46
:100CC000280005B0F0BD80B5FFF7B8FF10490968EE
:100CD000254A11F0F0015FF07063B3FA83F3D94055
:100CE000515CC840214908602048006802BD80B5B9
:100CF000FFF7E9FF064909681B4A11F4E0615FF458
:100D00006003B3FA83F3D940515CC84002BD0000D0
:100D1000041002400010024080B5FFF7D4FF0D49D7
:100D20000968114A11F460515FF4E013B3FA83F3D8
:100D3000D940515CC84002BD24100240000042422C
:100D4000800442421C10024000700040201002400B
:100D50000020024004100240443E00083A0E000801
:100D600000127A0000093D00543E000804000020F3
:100D700001480068704700BF100F002011B581B016
:100D80000024FFF7F5FF0400FFF7F2FF001B0199B5
:100D90008842F9D313BD10B50400FFF794FF4FF458
:100DA0007A71B0FBF1F000F0E2F8002221005FF070
:100DB000FF3000F0BBF8002010BD0268531C036038
:100DC0001170704762B38B0708D0521E11F8013BB7
:100DD00000F8013B00F024808B07F6D1830740F038
:100DE000208000BF103A07D330B4B1E83810103A71
:100DF000A0E83810F9D230BC530724BFB1E808107E
:100E0000A0E8081044BF51F8043B40F8043BD20767
:100E100024BF31F8022B20F8022B44BF0B7803705B
:100E20007047083A07D3B1E80810083A40F8043B85
:100E300040F804CBF7D25307E4E7010210F00702B1
:100E40004E4B1B6819004FF6FF0319404C4B53EAF9
:100E500002231943494B1960704748480068C0F3A2
:100E600002207047012110F01F029140454A40B214
:100E7000430942F823107047012110F01F029140EE
:100E8000414A40B2430942F82310704710B440B2BF
:100E9000002808D50A013D4B40B210F00F0423444E
:100EA00003F8042C03E00A01394B40B21A5410BC79
:100EB000704770B4030013F00704D4F10706052E41
:100EC00001D3042001E0D4F10700261D072E01D232
:100ED000002500E0E51E012616FA00F0401E08403D
:100EE000A8400121A940491E1140084370BC704729
:100EF00010B50400601EB0F1807F01D301200EE028
:100F0000601E244908600F215FF0FF30FFF7BEFF2D
:100F1000002021490860072020490860002010BDFA
:100F200010B504002000FFF789FF10BDF8B50400DC
:100F30000D0016000027FFF790FF07003200290080
:100F40003800FFF7B6FF0100200040B2FFF79EFF18
:100F5000F1BD10B50400200040B2FFF783FF10BDC3
:100F600010B50400200040B2FFF786FF10BD10B599
:100F700004002000FFF7BCFF10BD00000CED00E0F6
:100F80000000FA0500E100E080E100E018ED00E07B
:100F900000E400E014E000E018E000E010E000E011
:100FA00010B50400002C01D1012030E0A069002818
:100FB000FFD194F83900002805D1002084F83800CA
:100FC000200000F0D1FB022084F839002068C068BE
:100FD00030F400502168C860200000F03AFB20681F
:100FE000006930F49040216808612068406930F061
:100FF0002A00216848612068C06850F400502168C8
:10100000C8600020E063012084F83900002010BD92
:1010100010B50400002C01D101201DE0022084F84D
:1010200039002068C06830F400502168C860002092
:101030002168C8600020216808610020216848619B
:10104000200000F0FAFB0020E063002084F8390063
:10105000002084F83800002010BD2DE9F84304007A
:101060000D0016001F005FF0000994F8390081465A
:10107000B9F1010F02D0B9F1220F69D1002D02D0D0
:10108000B6B2002E01D1012063E094F838000128A7
:1010900001D102205DE0012084F838000020E063E7
:1010A00094F83900222803D1322084F8390002E074
:1010B000122084F83900A684E684E08C00282DD024
:1010C000E08C401EE084A068B0F5805F17D13B0043
:1010D00000228021200000F093F9002801D0032095
:1010E00037E0A846B8F80000C005C00D2168486088
:1010F0002069002801D1AD1CDFE76D1CDDE73B0056
:1011000000228021200000F07BF9002801D003207C
:101110001FE02878216848606D1CCEE73B00002264
:101120004021200000F06CF9002801D0032010E0DD
:1011300094F83900322803D1222084F8390002E0E3
:10114000012084F83900002084F83800002000E0F5
:101150000220BDE8F2832DE9F84304000D001600DB
:101160001F005FF0000994F839008146B9F1010FC2
:1011700002D0B9F1120F6FD1002D02D0B6B2002EFD
:1011800001D1012069E094F83800012801D1022042
:1011900063E0012084F838000020E06394F839000F
:1011A000122803D1322084F8390002E0222084F88A
:1011B0003900A685E685E08D00283DD0E08D401EF3
:1011C000E085A068B0F5805F1DD13B0000222021A2
:1011D000200000F015F9002801D003203DE0A846CA
:1011E0002069002807D120684068C005C00DA8F814
:1011F0000000AD1CDFE72068406800F0FF00A8F8A1
:1012000000006D1CD7E73B0000222021200000F0E9
:10121000F7F8002801D003201FE02069002804D13E
:101220002068406828706D1CC5E72068406810F091
:101230007F0028706D1CBEE794F83900322803D176
:10124000122084F8390002E0012084F839000020DF
:1012500084F83800002000E00220BDE8F28330B4BA
:101260000300002493F839000400012C01D0122C53
:1012700036D1002902D092B2002A01D1012030E0FB
:1012800093F83800012801D102202AE0012083F8D8
:10129000380099629A85DA850020D86393F839007E
:1012A000122803D1322083F8390002E0222083F88B
:1012B0003900002083F838001868C06850F4807046
:1012C0001D68E8601868406950F001001D68686199
:1012D0001868C06850F020001D68E860002000E039
:1012E000022030BC704770B582B004000025002693
:1012F0002068006810F0010005002068C06810F444
:1013000080700600002D05D0002E03D0E06B50F059
:101310000100E06320680068400810F0010005004B
:101320002068406910F001000600002D05D0002E55
:1013300003D0E06B50F00400E06320680068800890
:1013400010F001000500002D05D0002E03D0E06B49
:1013500050F00200E06320680068C00810F001004F
:101360000500002D05D0002E03D0E06B50F00800E2
:10137000E06320680068400910F001000500206863
:10138000C06810F020000600002D04D0002E02D00E
:10139000200000F0FBF820680068C00910F0010090
:1013A00005002068C06810F080000600002D04D001
:1013B000002E02D0200000F094F820680068800918
:1013C00010F0010005002068C06810F04000060021
:1013D000002D04D0002E02D0200000F0BFF8E06BFA
:1013E00000280CD0206800680090206840680090B9
:1013F0000098012084F83900200000F078FA73BDCD
:101400002DE9F04104000D0016001F005FF00008F8
:10141000FFF7AEFC8046F6B2002E2FD120680068A0
:101420002840A8425AD017F1010FF7D0002F05D05D
:10143000FFF79EFCB0EB08008742EFD22068C0683F
:1014400030F080002168C8602068C06830F020005B
:101450002168C8602068C06830F480702168C86066
:10146000206840694008400021684861012084F8F4
:101470003900002084F83800032030E0206800683C
:101480002840A8422AD117F1010FF7D0002F05D02C
:10149000FFF76EFCB0EB08008742EFD22068C0680F
:1014A00030F080002168C8602068C06830F02000FB
:1014B0002168C8602068C06830F480702168C86006
:1014C000206840694008400021684861012084F894
:1014D0003900002084F83800032000E00020BDE837
:1014E000F08110B40100002391F839000300122BA1
:1014F00001D0322B2FD18868B0F5805F11D1086AF6
:1015000002001088C005C00D0C68606008690028E2
:1015100003D1086A801C086209E0086A401C08625E
:1015200005E0086A441C0C6200780C686060C88C96
:10153000401EC884C88C00280BD10868C06830F0F1
:1015400080000C68E0600868C06850F040000C68DB
:10155000E060002000E0022010BC704710B50400DD
:101560002068C06830F040002168C86094F83900F5
:10157000322803D1222084F8390002E0012084F8C7
:101580003900200000F0B2F9002010BD70B5040051
:10159000002694F839000600222E01D0322E56D1B2
:1015A000A068B0F5805F16D1A06A05002069002808
:1015B00008D120684068C005C00D2880A06A801C42
:1015C000A0621AE02068406800F0FF002880A06A4E
:1015D000401CA06211E02069002806D1A06A411CCD
:1015E000A16221684968017007E0A06A411CA162FC
:1015F0002168496811F07F010170E08D401EE0858F
:10160000E08D002821D12068C06830F020002168DA
:10161000C86094F83900322803D1122084F83900C8
:101620000EE02068C06830F480702168C8602068CF
:1016300040694008400021684861012084F8390071
:10164000200000F052F9002002E0002000E002201B
:1016500070BDF8B5040000252068006930F44050E2
:10166000E168084321680861A0682169084361694D
:10167000084305002068C0683949084028432168AC
:10168000C8602068406930F44070A169084321684F
:10169000486120683349884230D1FFF73DFB07009D
:1016A000FFF73AFB0600FFF737FB192101FB07F1B3
:1016B00062689200B1FBF2F16422B1FBF2F11922EF
:1016C00002FB06F263689B00B2FBF3F21923584356
:1016D00063689B00B0FBF3F06423B0FBF3F064237A
:1016E00003FB1020000132306422B0FBF2F010F056
:1016F0000F0050EA0110216888602FE0FFF7F7FA29
:101700000700FFF7F4FA0600FFF7F1FA192101FBD1
:1017100007F162689200B1FBF2F16422B1FBF2F1D1
:10172000192202FB06F263689B00B2FBF3F2192355
:10173000584363689B00B0FBF3F06423B0FBF3F005
:10174000642303FB1020000132306422B0FBF2F06E
:1017500010F00F0050EA011021688860F1BD000010
:10176000F3E9FFFF0038014010B586B0040042489D
:10177000844260D14148006850F004003F4908604D
:101780003E48006810F00400009000983B48006854
:1017900050F00400394908603848006810F004002F
:1017A000009000983548006850F480403349086044
:1017B0003248006810F48040009000982F4800687C
:1017C00050F001002D4908602C48006810F001001D
:1017D000009000982A48006830F0300050F0100067
:1017E000274908604FF40070019002200290012008
:1017F00003900320049001A9224800F0C1F84FF49F
:10180000806001900020029001A91E4800F0B8F805
:101810004FF480500190022003900120029001A912
:10182000184800F0ADF8002201212520FFF77EFBCB
:101830002520FFF78EFB06B010BD10B504000E4842
:10184000844218D11048006850F480400E49086066
:101850000D48006830F480400B4908604FF4007177
:10186000084800F0EAF94FF48061064800F0E5F915
:101870002520FFF775FB10BDBC0D0020181002409D
:1018800004000140000801400C100240704780B580
:10189000002000F08DFAFBE780B5002000F088FA08
:1018A000FBE780B5002000F083FAFBE780B500205D
:1018B00000F07EFAFBE780B5002000F079FA01BD68
:1018C00080B5002000F074FA01BD704780B527484C
:1018D00000F080FA01BD80B5254800F07BFA01BD1B
:1018E00080B500F033FB01BD70477047704710B5FD
:1018F0000400200000F0A4FC10BD80B51D48FFF7D7
:10190000F2FC01BD80B51C480068FFF7ECFC01BD8E
:101910000068400D10F0010070470068400C10F0A6
:1019200001007047416851F40011416070474168FF
:1019300051F400314160704780B51048FFF7E8FF6F
:10194000012804D10D48FFF7EDFF00F0CBFB01BDEE
:1019500080B50A48FFF7E1FF012804D10748FFF7E7
:10196000E6FF00F0FBFB01BD00000000FC0D0020C5
:10197000380E0020BC0D0020140F00200000024093
:101980002DE9F84100230024002500265FF0000E19
:101990005FF0000C6246102A80F04D815FF0010C70
:1019A0001CFA02FC6346D1F800C013EA0C0C644632
:1019B0009C4240F03E81D1F804C0BCF1000F3DD004
:1019C000BCF1010F24D0BCF1020F2BD0BCF1030FEE
:1019D0004CD0BCF1110F1FD0BCF1120F28D0DFF892
:1019E0009083C4452AD0DFF88C83C44526D0DFF825
:1019F0008883C44522D0DFF88483C4451ED0DFF835
:101A00008083C4451AD0DFF87C83C44516D031E00A
:101A1000D1F80CC066462DE0D1F80CC01CF1040CC6
:101A2000664627E0D1F80CC01CF1080C664621E0A0
:101A3000D1F80CC01CF10C0C66461BE0D1F808C0B4
:101A4000BCF1000F03D15FF0040C66460DE0D1F845
:101A500008C0BCF1010F04D15FF0080C66460361B9
:101A600003E05FF0080C6646436103E05FF0000CA2
:101A70006646FFE7FF2C01D8070000E0071DFF2C9A
:101A800002D85FEA820E03E0B2F1080C5FEA8C0E26
:101A9000D7F800C05FF00F0818FA0EF83CEA080CFF
:101AA00016FA0EF858EA0C0CC7F800C0D1F804C0BA
:101AB0005FEACC0C40F1BD80DFF8CCC2DCF800C09E
:101AC0005CF0010CDFF8C082C8F800C0DFF8B8C2D3
:101AD000DCF800C01CF00108CDF80080DDF800C083
:101AE000DFF8A8C25FEA92085CF828C065465FF09C
:101AF0000F0C12F003085FFA88F85FEA88081CFAF6
:101B000008FC35EA0C05DFF888C2604502D15FF0B9
:101B1000000C16E0DFF87CC2604502D15FF0010CDA
:101B20000FE0DFF874C2604502D15FF0020C08E0FC
:101B3000DFF868C2604502D15FF0030C01E05FF09E
:101B4000040C12F003085FFA88F85FEA88081CFAB0
:101B500008FC5CEA0505DFF834C25FEA92084CF83D
:101B60002850D1F804C05FEACC3C0AD5DFF830C277
:101B7000DCF800C054EA0C0CDFF82482C8F800C07E
:101B800009E0DFF81CC2DCF800C03CEA040CDFF816
:101B90001082C8F800C0D1F804C05FEA8C3C0AD5B6
:101BA000DFF800C2DCF800C054EA0C0CDFF8F48166
:101BB000C8F800C009E0DFF8ECC1DCF800C03CEA7E
:101BC000040CDFF8E081C8F800C0D1F804C05FEA77
:101BD000CC2C0AD5DFF8D0C1DCF800C054EA0C0CDC
:101BE000DFF8C481C8F800C009E0DFF8BCC1DCF848
:101BF00000C03CEA040CDFF8B081C8F800C0D1F89E
:101C000004C05FEA8C2C0AD5DFF8A0C1DCF800C064
:101C100054EA0C0CDFF89481C8F800C009E0DFF842
:101C20008CC1DCF800C03CEA040CDFF88081C8F805
:101C300000C0521CAFE6BDE8F181F0B500220023E0
:101C4000002400260F00D740002F00F086800127D7
:101C500097400F403B00002B7DD0FF2B01D80500A3
:101C600000E0051DFF2B01D8960002E0B2F1080646
:101C7000B6002F685FF00F0C1CFA06FC37EA0C0761
:101C80005FF0040C1CFA06FC5CEA07072F60C768CB
:101C90009F43C7603D4F5FEA920C57F82C703C00A1
:101CA0000F2712F0030C5FFA8CFC5FEA8C0C17FA1A
:101CB0000CF73C40364FB84201D100270FE0354FBA
:101CC000B84201D101270AE0334FB84201D10227BF
:101CD00005E0324FB84201D1032700E0042712F09B
:101CE000030C5FFA8CFC5FEA8C0C17FA0CF7BC4211
:101CF00031D10F2712F0030C5FFA8CFC5FEA8C0CD9
:101D000017FA0CF73C00214F5FEA920C57F82C7041
:101D1000A743DFF878C05FEA920E4CF82E70204F90
:101D20003F689F43DFF878C0CCF800701D4F3F68D4
:101D30009F43DFF870C0CCF800701B4F3F689F4393
:101D4000DFF864C0CCF80070184F3F689F43DFF89D
:101D50005CC0CCF80070521C74E7F0BDD2B2002A0F
:101D600002D089B2016102E089B20B0403617047BD
:101D700000001110000012100000211000002210BD
:101D8000000031100000321018100240080001401D
:101D900000080140000C0140001001400014014007
:101DA0000004014004040140080401400C04014007
:101DB00010B5040001220548E4B230F814100448BC
:101DC000E4B250F82400FFF7C9FF10BD4A1F000815
:101DD0000000002010B504002068006980071AD5B3
:101DE0002068C068800716D57FF00200216808616E
:101DF000012020762068806910F0030F03D02000B6
:101E000000F048FB05E0200000F045FB200000F05A
:101E100043FB002020762068006940071AD520681F
:101E2000C068400716D57FF00400216808610220D1
:101E300020762068806910F4407F03D0200000F0F5
:101E400029FB05E0200000F026FB200000F024FB29
:101E5000002020762068006900071AD52068C06835
:101E6000000716D57FF0080021680861042020765D
:101E70002068C06910F0030F03D0200000F00AFBB7
:101E800005E0200000F007FB200000F005FB00202B
:101E9000207620680069C0061AD52068C068C00690
:101EA00016D57FF010002168086108202076206890
:101EB000C06910F4407F03D0200000F0EBFA05E089
:101EC000200000F0E8FA200000F0E6FA002020767A
:101ED00020680069C0070AD52068C068C00706D519
:101EE0007FF00100216808612000FFF7FDFC2068F9
:101EF000006900060AD52068C068000606D57FF094
:101F0000800021680861200000F0C7FA206800699D
:101F100040060AD52068C068400606D57FF040001C
:101F200021680861200000F0B9FA20680069800685
:101F30000AD52068C068800606D57FF02000216899
:101F40000861200000F0ABFA10BD200002480068D4
:101F5000401C014908607047100F002038B5DFF8B9
:101F6000AC02006850F00100DFF8A0120860DFF852
:101F70009C02006810F00100009000980020DFF83B
:101F8000901248600020DFF8881288600020DFF897
:101F90008012C8600020DFF8781208610020DFF8A6
:101FA000701248612020DFF8681288614FF4805079
:101FB000DFF85C12C861DFF85C02DFF854120860D9
:101FC000DFF84C0200F06CFA002801D000F049F96B
:101FD000002200211020FEF7A9FF1020FEF7B9FF14
:101FE000DFF83442DFF8345201232A002100DFF801
:101FF000200200F01DFBDFF818020068006850F0B6
:102000000200DFF80C1209680860DFF804020068BB
:10201000006850F00100DFF8F81109680860DFF887
:10202000EC01006850F00100DFF8E0110860DFF813
:10203000DC01006810F00100009000980020DFF83B
:10204000E01148600020DFF8D81188600020DFF838
:10205000D011C8600020DFF8C81108610020DFF847
:10206000C01148612020DFF8B81188614FF480501A
:10207000DFF8AC11C861DFF8AC01DFF8A41108602B
:10208000DFF89C0100F00CFA002801D000F0E9F81C
:10209000002200210F20FEF749FF0F20FEF759FF15
:1020A000DFF884010400DFF88401050001232A0021
:1020B0002100DFF86C0100F0BBFADFF86401006872
:1020C000006850F00200DFF8581109680860DFF876
:1020D00050010068006850F00100DFF84411096801
:1020E000086031BD0120DFF8481181F83800002078
:1020F000DFF83C11C863DFF82401DFF8341108620F
:102100000120DFF82C1188840120DFF82411C88415
:10211000DFF81C0190F83900222805D13220DFF8C1
:10212000101181F8390004E01220DFF8041181F861
:1021300039000020DFF8F81081F83800DFF8F000EF
:102140000068C06850F08000DFF8E4100968C860DB
:102150000020DFF8DC1081F8380070470120DFF83C
:10216000D410096881F838000020DFF8C810096829
:10217000C863DFF8B800DFF8BC1009680862012006
:10218000DFF8B010096888840120DFF8A81009681A
:10219000C884DFF8A000006890F83900222806D132
:1021A0003220DFF89010096881F8390005E012202C
:1021B000DFF88010096881F839000020DFF874101A
:1021C000096881F83800DFF86C0000680068C068B2
:1021D00050F08000DFF85C1009680968C86070473B
:1021E00080B500224FF480511448FFF7B7FD01225B
:1021F0000E490F48FFF733F8002805D10E48006854
:1022000050F480500C49086001BD000014100240D9
:10221000740E00206C000240044400401C0F00209B
:10222000AC0E00205800024004380140AE0B0020E4
:10223000BC0D0020140F0020FC0E002000080140FF
:1022400010B5040000F012F810BD70B54FF48064B2
:102250000025DFF820622A002100300000F0FAF9A2
:1022600070BD80B50020FFF7A3FD01BD80B5002043
:10227000FFF79EFD01BD10B50400DFF804020078F1
:10228000C0F30010C0B2002809D1DFF8F4010078D3
:10229000C0F38010C0B2002801D105203AE0DFF879
:1022A000E401006810F4C07F01D0102032E0DFF8B4
:1022B000D401006850F40060DFF8C8110860A4B2CF
:1022C000002C05D1DFF8C00100F0F8F91F2021E053
:1022D0004FF47A73220092B2DFF89811DFF8AC0164
:1022E000FEF7BBFE002803D0FFF7C0FF0F2011E070
:1022F000DFF89001006830F40060DFF888110860B2
:10230000DFF880010068C0F30030002801D1FFF73A
:1023100067FF002010BD70B504000D000026FFF718
:1023200094FF2B0022005A49524800F0D9F9514835
:1023300000F0F0F94FF47A73020092B24D4953481D
:10234000FEF78BFE002803D0FFF790FF0F2005E07B
:10235000062000F066F806003000C0B270BD000034
:102360002DE9F04192B000240225402600270DF10E
:1023700008083A003100404600F06CF95FF00008B0
:10238000FFF763FF3CA1684600F0E0F93AA1684618
:1023900000F0FEF96946374800F0A2F9354800F030
:1023A000B9F980B2FFF767FF0400E4B2002C33D123
:1023B000364890F8390001280AD01FFA88F8B8F595
:1023C0007A7F05DA18F101080A20FEF7D7FCEFE75B
:1023D0001FFA88F8B8F57A7F1CDA4FF49673142246
:1023E00002A92A48FEF7B7FE0500EDB2002D06D07F
:1023F000EDB2032D03D0FFF739FF0F200EE01FA130
:1024000002A800F0D3F9002801D10D2006E0002039
:10241000040001E00F2001E02000C0B212B0BDE8CE
:10242000F081F0B591B00400402500266F463200DF
:102430002900380000F00EF90027A4B2412C15DA6B
:102440004FF47A73220092B269461048FEF783FE79
:10245000002803D0FFF70AFF0F2009E007A1684614
:1024600000F0A4F9002801D10D2001E03800C0B22D
:1024700011B0F0BD6007002041540D004F4B00002B
:10248000E40E0020FC0E0020543D0008BC0D00208E
:10249000203E00087047704770477047704770478C
:1024A00001000022002901D1012024E091F821003F
:1024B000002802D1002081F82000022081F82100AC
:1024C0000868006802006FF30D1248688B681843B3
:1024D000CB6818430B6918434B6918438B69184341
:1024E000CB6918430243086802600020486301205A
:1024F00081F821000020704710B504004448454988
:1025000008604448446000204249886000204149F6
:10251000C86000203F4908614FF480703D498861E0
:102520000C203C49486100203A49C8613948FEF70F
:102530006FFD002801D0FFF794FE3648FEF730FD0E
:10254000002801D0FFF78DFE32480068406950F046
:10255000400030490968486110BD10B586B00024BC
:1025600068462E491822FEF73DFC6846E4B250F852
:10257000240000280ED06846E4B250F82400FFF78B
:10258000BBFF0A20FEF7FAFBFFF7EAFE002801D0A6
:10259000641CEAE76846E4B250F8240006B010BDB7
:1025A00070B504001E48007850F010001C490870F7
:1025B000FFF7D3FF0600002E26D021001948FFF7B1
:1025C000AAFE0500FFF741FE1749134800F088F8FE
:1025D000114800F09FF880B2FFF74DFE0500FFF7AD
:1025E00034FE12490C4800F07BF80B4800F092F8DA
:1025F00080B2FFF740FE0500EDB2002D02D12000B1
:10260000FFF77AFF002002E0FFF72BFE012070BDEC
:1026100000380140BC0D002060070020BC3D0008D0
:10262000E40E0020343E00088C3E0008743E000892
:1026300010B4046863604468102C04D10468A2607C
:102640000468E16003E00468A1600468E26010BC13
:102650007047000062F30F2262F31F42401810F02F
:10266000030308D0C91A1FD3DB0748BF00F8012DA8
:1026700028BF20F8022D130030B414461546103937
:1026800028BF20E93C00FAD8490728BF20E90C0000
:1026900048BF40F8042D890028BF20F8022D48BF0C
:1026A00000F8012D30BC7047C91818BF00F8012D83
:1026B000CB0728BF00F8012D704700000EB400B50D
:1026C00082B003A9009102466B4601210348784479
:1026D0000A3000F073F806BC5DF810FBF916000034
:1026E0000CB41CB5044604A801900A46009401AB42
:1026F000694607487844183000F060F8009A0021D5
:10270000117000285CBF0098001B16BC5DF80CFB24
:10271000ABE6FFFF00F10103810704D010F8011BB5
:1027200089B18107FAD10268B2F10131914311F008
:10273000803F04BF50F8042FF6E710F8011B11B1D9
:1027400010F8011BFBE7C01A704700005FEA000C9D
:10275000830706D011F8013B00F8013BB3B18307B2
:10276000F8D10A68B2F1013323EA020313F0803F83
:1027700002BF40F8042B51F8042FF3E711F8013B96
:1027800000F8013B13B111F8013BF9E760467047CF
:10279000024600E0521C1378002BFBD111F8013BDC
:1027A000137012F8013B002BF8D1704738B50400C4
:1027B0000D002900200000F0E3FB32BD2DE9F04FB1
:1027C00080460FF2A47095B015461E46D0E900234E
:1027D000CDE9132303AF00200391B8610DF1340953
:1027E00000E02D190020ADF8020013AB4FF0FF32CE
:1027F00029460DF1020000F0DAFB0446012C04DA50
:102800002878441EA441E443E40FBDF802002528C3
:102810000CBFA4F1010BA346BBF1010F0EDBAA46CE
:102820001AF8011B0398C0470028039000F0DA80D3
:10283000B869401CBBF1010BB861F1D1BDF80200D1
:10284000252804D10020F8603861786105E000286F
:10285000C7D1B86906E340F0010015F8011F20292F
:10286000F9D023290DD02B2904D02D2906D03029C9
:102870000AD00CE040F0020080B2EEE740F0040025
:10288000FAE740F00800F7E740F01000F4E72A29E3
:102890000ED13168316051F8042B3160002A3A6260
:1028A00004D5514240F00400396280B26D1C13E03F
:1028B000002139620BE0396A6FF00043994205D07C
:1028C00001EB810302EB4301303939626D1C2A7838
:1028D000A2F130010A29EED329782E2903D04FF036
:1028E000FF31F9611FE015F8011F2A2907D131686E
:1028F00031606D1C51F8042B3160FA6113E0002146
:10290000F9610BE0F9696FF00043994205D001EBE2
:10291000810302EB43013039F9616D1C2A78A2F181
:1029200030010A29EED3B8840FF24460297800F010
:102930004FFB08B115F8010B8DF832009DF83200FD
:10294000682804BF2878682803D162208DF83200F7
:102950006D1C0DA8B86015F8014B252C13D0582C10
:102960004BD0632C00F0A380642C18BF692C7CD062
:102970006F2C42D0702C36D0732C0AD0752C18BF17
:10298000782C3AD0B6E00120F86025208DF834008C
:10299000BAE09DF832006C283068306018D050F8EA
:1029A000044B30607C60D7F81CA0BAF1000F04D54E
:1029B0002046FFF7AFFE824607E052460021204640
:1029C00000F012FB08B1A0EB040AC7F810A09BE0CE
:1029D00050F8042B306002A9404600F02DF9002881
:1029E00040F192803CE23068306050F8041B306067
:1029F00002910DA87860782155E09DF832006C288E
:102A00000DD0712818BF6A2809D13068C01D20F088
:102A100007023260D2E900010832326004E0316816
:102A2000316051F8040B316002909DF83200682843
:102A300002D102A8008803E0622802D102A800782F
:102A4000029097F82400000728D5029830B344F08C
:102A50002000782822D1F868302109F80010401CA5
:102A6000411CF96009F8004018E09DF83200314639
:102A700000F0BCF80028029002D5F8682D2109E08A
:102A8000B88C810702D5F8682B2103E0C00705D573
:102A9000F868202109F80010401CF8600DA8F968BA
:102AA00008447860214602A800F0DFF92CE09DF888
:102AB00032006C2809D00120F8603068306050F88E
:102AC000041B30608DF834101EE03068306001AABD
:102AD00050F8041B3060ADF804100020ADF806007B
:102AE00002A94FF0FF30F861404600F0A5F8002839
:102AF0000AD577E70120F86025208DF834001CB155
:102B00000220F86089F80140386AF968401A79694A
:102B1000401A3969441A97F82400400711D420203C
:102B2000012C8DF800000CDBA24601236A4602A9A5
:102B3000404600F001FA00287FF454AFBAF1010AD0
:102B4000F3D1D7F80CB0BBF1000F0DF1340A0DD062
:102B50001AF8011B0398C047002803903FF442AFC6
:102B6000B869401CBBF1010BB861F1D1D7F814A0D2
:102B70003020BAF1010F8DF800000BDB01236A460B
:102B800002A9404600F0D8F900287FF42BAFBAF133
:102B9000010AF3D1D7F810B0D7F804A0BBF1000FA9
:102BA0000DD01AF8011B0398C047002803903FF48A
:102BB00019AFB869401CBBF1010BB861F1D197F8AE
:102BC000240040077FF50EAE2020012C8DF8000078
:102BD000FFF608AE01236A4602A9404600F0ACF9B0
:102BE00000287FF4FFAE641EF4D1FBE5622815D007
:102BF00068280CD06C2818BF742816D07A2814D1F5
:102C00000A680A6052F8040B0A60002170470A68DB
:102C10000A6052F8040B0A6000B20BE00A680A600E
:102C200052F8040B0A6040B204E00A680A6052F8E5
:102C3000040B0A60C11770472DE9F44F0D4694B09C
:102C40002F6A002F804648BF6FF0004700F0F8F968
:102C5000696A401801900FF22030D0E90023CDE9D5
:102C6000022395F82800400702D40198412805D294
:102C700040200DF110090190002606E000F0E6F971
:102C80005FEA0009F8D1EBE03F1B012FC0F294800E
:102C90001498018802AA0DF1010000F02FFA002813
:102CA000044600F19C801498008810B9641E00F15D
:102CB0009680A742C0F2808028690199221891422B
:102CC00068D26E624042A969401A6969461A95F84D
:102CD0002800400710D42020012E8DF800000BDBC7
:102CE000B24601236A462946404600F025F90028ED
:102CF00075D1BAF1010AF4D1D5F810B0BBF1000FCB
:102D0000CA460CD01AF8011B6868C04700286860E2
:102D100065D0E869401CBBF1010BE861F2D13020BD
:102D20008DF80000D5F818A0BAF1010F0ADB0123D5
:102D30006A462946404600F0FFF800284FD1BAF114
:102D4000010AF4D1D5F814B0D5F808A0BBF1000FF2
:102D50000CD01AF8011B6868C047002868603ED094
:102D6000E869401CBBF1010BE861F2D195F828003D
:102D700040070DD52020012E8DF8000008DB01232F
:102D80006A462946404600F0D7F840BB761EF6D189
:102D900000262E61224628690DF101014844FEF704
:102DA00011F82869201828611498801C1490801E3E
:102DB000008800287FF468AF686A2969401AA96909
:102DC000401A6969471A95F8280040070FD4012F67
:102DD0000DDB3C4668682021C047686010B94FF0A1
:102DE000FF3635E0E869401C641EE861F2D12B69CA
:102DF0004A462946404600F09FF80028EFD1AC69CA
:102E0000012C0ADB68683021C04700286860E6D0E2
:102E1000E869401C641EE861F4D16B69AA68294620
:102E2000404600F089F80028D9D195F828004007DD
:102E30000CD5012F0ADB68682021C0470028686094
:102E4000CDD0E869401C7F1EE861F4D12E616E622E
:102E500004A881451CBF484600F05EF9304601E0F9
:102E60004FF0FF3015B0BDE8F08FF0B4C2686F29A5
:102E700008BF082405D041F02003782B14BF0A2492
:102E8000102418230668642918BF6929374602D11F
:102E9000002E48BF7F425FB9056A4DB9082C27D183
:102EA00090F82810090723D530211723D1751FE08A
:102EB000B7FBF4F604FB16773037FFB25D1E3A2FEE
:102EC000A4BFA1F1510C674457552B46370003D0DE
:102ED0008568D618B542EBD3082C09D190F8281094
:102EE000090705D5D15C302902D05B1E3021D154B1
:102EF0001A448260C3F11801026A4161914208DA02
:102F0000511A81614FF6EF72018D11400185F0BCBD
:102F10007047002A0ED590F8282002F01402102ADB
:102F200008D1426A0369D21A8369D21A531A012B53
:102F3000A8BF8361F0BC7047F8B504460D4616463D
:102F40001F46002077B116F8011B6868A04768602B
:102F500030B1E869401CE86100207F1EF3D1F2BD6A
:102F60004FF0FF30F2BD0000000000000000000044
:102F7000686C747A4C000000000000000000000043
:102F800070B50C462578290006D170BD11F8013FB7
:102F90001678B34206D0401C294600F019F828B133
:102FA0000146224612F8013F002BEFD170BDF8B563
:102FB00004460D4616461F4600F0EEF83B463246E4
:102FC0002946204601B0BDE8F04000F0FCB8000002
:102FD0000278C9B28A421AB11CBF10F8012FF9E772
:102FE00018BF002070470000C9B2830706D0521EE8
:102FF00022D310F8013B9942F7D11FE0083A13D3CE
:1030000002F1040241EA012141EA014150F8043B86
:10301000121F21BF4B40A3F1013C2CEA030C1CF012
:10302000803FF3D0C9B2001F083210F8013B521E96
:1030300028BF91EA030FF8D818BF0120401E70473F
:1030400080B500F0A9F8012002BD000070B505466A
:1030500005F10F00C408C046C046E400A54232D2C4
:10306000082C04D2082402E0083000F055F8224869
:10307000026811000CD1011D0A6802B31368A34253
:1030800038BF111DF8D310E01D68A5420DD2191DDF
:103090000B68002BF8D11268011D00E0191D0B68A8
:1030A00093420CD01D68A542F8D361B10D682A681F
:1030B000A2F10803A3420AD26A680A600FE000F096
:1030C000A5F80028D0D1C046C046002070BD2B19FD
:1030D0000B60121B6E685E600B681A602C600968DA
:1030E00000291DBF4A68002A091D00210160C04651
:1030F000C04605F1080070BD080F002070B50446F9
:103100000D46164600F048F8324629462046BDE8EE
:10311000704000F04BB8000000B9704738B5A0F11E
:1031200008042068082833D310F0070F30D1C046B8
:10313000C0461848416809B18C4203D261604460BE
:1031400017E019464B680BB1A342FAD30B68CD18B0
:10315000AC421BD3A54204D12268D2180A600C46A7
:1031600007E04A681AB1236823449A420ED362608A
:103170004C60616851B12268A3188B4206D10023CC
:10318000036008688018206048686060C046C046D8
:1031900031BD0000080F002080B5DFF80C0000F002
:1031A0004BF8806902BD0000F400002030B430B953
:1031B0000FF24800D0E90045C2E900451BE001706C
:1031C000012030BC704730B431B90FF23800D0E97B
:1031D0000045C3E900450EE01AB930BC6FF00100AC
:1031E000704708B10A7802800978481E804130BCD7
:1031F000C043C00F7047002030BC70470000000083
:1032000000000000000000000000000007490868FE
:1032100008B1002070470648C008C0000860054992
:10322000C908C900091A0160704700BF180F0020C3
:1032300067050020600700207047000010B582B0CD
:1032400000247B48006850F0040079490860784801
:10325000006810F004000090009800F005F900F0FC
:1032600039F800F095F85FF46121724800F06BF8CE
:10327000704800F00FF97048FFF720FA6F48FFF729
:103280001DFA6F48FFF71AFA6E48FFF717FA6E48F3
:10329000FFF714FA6948FFF711FA6C48FFF70EFAC6
:1032A0006B48FFF70BFA5FF46120FFF779F9040030
:1032B000E4B2002C02D1FEF751FE02E06548FFF7B0
:1032C000FDF94FF4FA60FDF759FD6348FFF7F6F991
:1032D00000BFFDE700B58FB06846142100F0E0F8AC
:1032E00005A8282100F0DCF8012005905FF480306B
:1032F0000690002008900020099010200A900020DD
:10330000079002200C905FF480300D905FF4E01085
:103310000E9005A8FCF7EAFE002800D0FEE70F207B
:1033200000900220019000200290002004904FF4B1
:103330008060039002216846FDF7C7FA002800D09C
:10334000FEE70FB000BD38B504000D004348206013
:1033500065600020A0600020E06000202061002067
:10336000A0610C2060612000FDF752FE002801D012
:10337000FEF777FF2000FDF713FE002801D0FEF7CF
:1033800070FF2068406950F040002168486131BDFD
:1033900000B585B02648006850F004002449086054
:1033A0002348006810F0040000900098204800684E
:1033B00050F004001E4908601D48006810F0040029
:1033C000009000982648006850F4003024490860B6
:1033D0002348006810F400300090009814480068FA
:1033E00050F00100124908601148006810F0010017
:1033F0000090009804200190022002900120039088
:103400000320049001A91748FEF7BAFA082001909A
:103410000020029001A91348FEF7B2FA0122002110
:103420002620FDF783FD2620FDF793FD05B000BDA6
:10343000181002407C0D0020FC3A0008BC3B00083C
:10344000F83B0008343C0008703C00083C3B000896
:10345000F83D0008E43C00080C3E00080044004031
:103460001C1002400008014080B50848006850F078
:103470001000064908600320FDF752FD0F20FDF7FC
:103480008AFC00F005F8002002BD00000020024088
:103490007047000001490860704700BF140F00200A
:1034A000002200F001B8000000B500BF13009646EE
:1034B0009446103928BFA0E80C50FAD85FEA417C46
:1034C00028BF0CC048BF40F8042BC90728BF20F80C
:1034D000022B48BF00F8012B00BD2DE9F041044646
:1034E0000D4620780321084216461F4632D020465A
:1034F00000F099F870BB15B1D5E900018619012FCC
:1035000030D12088C00416D5A16904F13D022046BF
:1035100000F0A6F8626A804602B92269E168204696
:1035200000F09EF8A6EB08010E1AA26AE168204698
:1035300000F096F8361A1EB94FB916F1010F09D0EE
:1035400094F903003A46314600F08FF8064616F12A
:10355000010F0AD100F0B0F8232101604FF0FF30D5
:10356000BDE8F081022FE7D1EAE720884FF440510F
:1035700008420ED06068E0602061A062606160680F
:10358000E06204F13D00A06104F12400E06100204C
:1035900060622DB1D5E9020104F13002C2E90001F7
:1035A00020884CF6FF61084020800020BDE8F081B3
:1035B00038B500F087F80446208880042ED5656869
:1035C00009E04A1B294600F08DF810F1010F18BFE1
:1035D00000280CD00544E16894F903008D42F0D333
:1035E0000022002100F07EF810F1010F0DD160687B
:1035F000E0606061E062208840F400702080204636
:1036000000F061F84FF0FF3032BD6568E56065613C
:10361000E5624DF6FF71208808402080204600F0CA
:1036200052F8002032BDF8B5A0B9C046C04600240B
:103630000A4D08264FF0FF37286820B1FFF7B8FF82
:10364000002848BF3C462D1D761EF5D1C046C04619
:103650002046F2BDBDE8F240AAE70000C800002005
:10366000914234BF501A0020704730B583B0040037
:103670000D00012A02D100F090F807E0022A07D1DC
:1036800000940020019069460C20ABBE2D1801E08B
:10369000002A0CD10094019569460A20ABBE00288F
:1036A00005D100222100280000F054F801E000209C
:1036B000C04303B030BD00000148FFF7BDBD0000AE
:1036C000E80000207047704701B55FF0FF3301222A
:1036D000694603480068FDF7C0FC009802BD000081
:1036E000140F0020F8B504000D001600012C04D0C2
:1036F000022C02D05FF0FF3009E000200700B74243
:1037000004D2E85DFFF7E0FF7F1CF8E73000F2BD70
:1037100010B4314A002113461C68844205D10023AD
:1037200042F8313002EBC10111E09C68491C84422F
:103730001EBF491C1C6984421EBF491C9C698442EF
:10374000EDD0491C20331029E6D310BC70474B60E4
:1037500010BC704770B4204C002325462E688E4262
:1037600009D1014604EBC303012A04BF5A6851186A
:10377000596070BC7047AE685B1C8E421EBF5B1CFC
:103780002E698E421EBF5B1CAE698E42E9D05B1C67
:103790002035102BE2D370BC704710B40E4A0021C4
:1037A00013461C68844204D102EBC100406810BC7F
:1037B00070479C68491C84421EBF491C1C69844296
:1037C0001EBF491C9C698442EED0491C203310293D
:1037D000E7D310BC002070475C0C002010B50446F5
:1037E000E0686169884253D3218849F202020A40A5
:1037F000022A08D008044CBF4FF400704FF48440F4
:10380000084320803DE001F4C041B1F5C04F06D12E
:10381000A168884203D32046FFF705FF88BB2088B4
:103820004FF44061084202BF606804F13D018842E4
:1038300018D14FF40070FFF709FC606030B904F153
:103840003D006060E060401CA0600BE0218841F01A
:1038500040012180E060A0624FF400710144606883
:10386000A160E06260682061A06860612078400724
:103870000AD502220021204600F00CF810F1010FB9
:1038800002D14FF0FF3010BD208840F4C0402080AE
:10389000002010BD70B50C461546FFF713FF064615
:1038A0002B4622460021FFF718FE04463046FFF75C
:1038B0000AFF204670BD00000178090626D51D4A82
:1038C00013680021834203D1002342F821301BE01A
:1038D0005368012183421EBF022193688342F3D0C3
:1038E000D368032183421EBF042113698342EBD0B6
:1038F0005369052183421EBF0621936983421EBF7F
:103900000721D3698342DFD0FFF706BC0021018085
:103910004FF0FF31C17000F13D014160C1600161B4
:1039200081624161C162816100F12401C16170471E
:1039300000000000C800002038B5044603212078AC
:10394000084202D06056002809D5C046C04620462D
:10395000FFF7B2FFC046C0464FF0FF3527E02046D4
:10396000FFF761FE0546C046C0462078400644BFCA
:103970006068FFF7D1FB0020606094F90300022823
:1039800004D900F016F808B14FF0FF35A06B48B12C
:1039900000F01CF808B14FF0FF35A06BFFF7BCFB3F
:1039A0000020A0632046FFF787FFC046C046284698
:1039B00032BD10B582B00200009269460220ABBE53
:1039C00004001000FFF7A4FE200016BD00B583B070
:1039D0000090FEF79FFE019069460E20ABBE03B03B
:1039E00000BD00001348006850F001001149086054
:1039F00011480068114908400F4908600D480068E7
:103A00000F4908400B4908600A48006830F48020DC
:103A1000084908600848006830F4FE00064908605C
:103A20005FF41F00074908605FF000600649086006
:103A30007047000000100240041002400000FFF830
:103A4000FFFFF6FE0810024008ED00E010B5144C30
:103A5000206808B1FFF770FF606808B1FFF76CFFDE
:103A6000A06808B1FFF768FFE06808B1FFF764FFDE
:103A7000206908B1FFF760FF606908B1FFF75CFFDC
:103A8000A06908B1FFF758FFE06908B1FFF754FFDC
:103A9000BDE81040002200214FF0FF30FFF722BEAA
:103AA000C800002038B505460846FFF70BFE04465F
:103AB000E0686169884204D32046FFF78FFE002842
:103AC00010D4E068401CE06000F8015D208801052A
:103AD00004D440050CD5EDB20A2D09D12046FFF7DC
:103AE000A2FD28B12046FFF7EEFD4FF0FF3032BDBA
:103AF0002046FFF7E8FDE8B232BD00000D0A0A2FAC
:103B00002A2A2A2A2A2A2A2A2A2A2A2A2A2A2A2A15
:103B10002A2A2A2A2A2A2A2A2A2A2A2A2A2A2A2A05
:103B20002A2A2A2A2A2A2A2A2A2A2A2A2A2A2A2AF5
:103B30002A2A2A2A2A2A2A2A0A0000000D202A2AAA
:103B40002A2A2A2A2A2A2A2A2A2A2A2A2A2A2A2AD5
:103B50002A2A2A2A2A2A2A2A2A2A2A2A2A2A2A2AC5
:103B60002A2A2A2A2A2A2A2A2A2A2A2A2A2A2A2AB5
:103B70002A2A2A2A2A2F0A0D0A00000019E050F8E2
:103B8000041BCB0744BFA9F101035918121F0023DE
:103B9000042A41F8043BF9D25FEA827C0B4604D543
:103BA0004FF0000CA1F800C09B1CD10744BF0021BE
:103BB000197050F8042B002AE1D170470D202A20FB
:103BC00020202020202020202020202020202020F5
:103BD00020202020202020202020202020202020E5
:103BE00020202020202020202020202020202020D5
:103BF00020202020202A0A000D202A20582D43555D
:103C000042452D574946493120457870616E7369A8
:103C10006F6E20536F6674776172652076332E3134
:103C20002E31202020202020202020202020202075
:103C3000202A0A000D202A20436F6E736F6C6520C6
:103C40004170706C69636174696F6E202020202060
:103C50002020202020202020202020202020202064
:103C6000202020202020202020202020202A0A0080
:103C70000D202A2053656E6420415420636F6D6DC2
:103C8000616E647320746F2053505746206D6F64CB
:103C9000756C65206469726563746C7920202020DE
:103CA0002020202020202020202A0A0030B5016872
:103CB00042688468014401EB5203D20748BF4C4478
:103CC000994201D10C3030BD11F9012B11F8015B83
:103CD000002A04F8015B02D5521CF9D1F0E7521E0C
:103CE000F4D5EDE70D4572726F7220696E20626146
:103CF00075642D72617465206175746F2D646574CF
:103D0000656374696F6E2E2E2E0D0A0010B507497B
:103D100079441831064C7C44163404E00A68081DC6
:103D2000114488470146A142F8D110BD08000000A7
:103D30002400000049FEFFFFC007000060070020CC
:103D40000000000069FFFFFFE00100000401000027
:103D5000000000204552524F5220696E20555341B9
:103D600052545F5472616E736D69745F41545F4366
:103D70006D64210000F00BF8002801D0FFF7C6FFAA
:103D80000020C046C046FFF759FA00F002F80120B3
:103D9000704700F001B800000746FFF757FE3846AD
:103DA00000F002F8FBE7000080B5C046C046024ABA
:103DB00011001820ABBEFBE726000200C012000075
:103DC0008025000000C201000008070000100E005E
:103DD0000000000038B504460D46284600F006F8FD
:103DE000A84218BF0024204632BD00000149FFF759
:103DF00059BE00BF480000200D506C6561736520FE
:103E0000776169742E2E2E0D0A0000000D436F6E2F
:103E1000736F6C652052656164792E2E2E0D0A0039
:103E200041542B532E534346473D25732C25640D97
:103E300000000000636F6E736F6C65315F737065B7
:103E40006564000002030405060708090A0B0C0D4F
:103E50000E0F101000000000010203040102030411
:103E6000060708090148804701480047E53900086E
:103E7000813E000841542B4346554E3D300D000015
:103E8000C046C046C046C046FFF774FF415426579F
:103E90000D000000FFF7FEBFFFF7FEBFFFF7FEBFFC
:103EA000FFF7FEBFFFF7FEBFFFF7FEBFFFF7FEBF46
:103EB000FFF7FEBFFFF7FEBFFFF7FEBFFFF7FEBF36
:103EC000FFF7FEBFFFF7FEBFFFF7FEBFFFF7FEBF26
:103ED000FFF7FEBFFFF7FEBFFFF7FEBFFFF7FEBF16
:103EE000FFF7FEBFFFF7FEBFFFF7FEBFFFF7FEBF06
:103EF000FFF7FEBFFFF7FEBFFFF7FEBFFFF7FEBFF6
:103F0000FFF7FEBFFFF7FEBFFFF7FEBFFFF7FEBFE5
:103F1000FFF7FEBFFFF7FEBFFFF7FEBFFFF7FEBFD5
:103F2000FFF7FEBFFFF7FEBF270008014000A24ACF
:103F30000401040000450000204600002045000068
:103F4000204500002045000020450000202C0000F6
:103F500020E0001F020401012C0D00207C0D002038
:103F60002C0D00202C0D00202C0D002085000020A1
:103F70006C000020E0001F02080202DC0C00202C74
:103F80000D0020DC0C0020DC0C0020DC0C0020C527
:103F9000000020AC000020E0000B080000204800DA
:0A3FA0000020880000208100F300DB
:0400000508003E8130
:00000001FF
